{
  "contractName": "Airdrop",
  "abi": [
    {
      "anonymous": false,
      "inputs": [
        {
          "indexed": true,
          "internalType": "address",
          "name": "user",
          "type": "address"
        },
        {
          "indexed": false,
          "internalType": "uint256",
          "name": "amount",
          "type": "uint256"
        }
      ],
      "name": "ClaimedAirdrop",
      "type": "event"
    },
    {
      "anonymous": false,
      "inputs": [
        {
          "indexed": true,
          "internalType": "address",
          "name": "previousOwner",
          "type": "address"
        },
        {
          "indexed": true,
          "internalType": "address",
          "name": "newOwner",
          "type": "address"
        }
      ],
      "name": "OwnershipTransferred",
      "type": "event"
    },
    {
      "anonymous": false,
      "inputs": [
        {
          "indexed": false,
          "internalType": "address",
          "name": "account",
          "type": "address"
        }
      ],
      "name": "Paused",
      "type": "event"
    },
    {
      "anonymous": false,
      "inputs": [
        {
          "indexed": false,
          "internalType": "address",
          "name": "account",
          "type": "address"
        }
      ],
      "name": "Unpaused",
      "type": "event"
    },
    {
      "inputs": [],
      "name": "CORE",
      "outputs": [
        {
          "internalType": "contract IERC20",
          "name": "",
          "type": "address"
        }
      ],
      "stateMutability": "view",
      "type": "function"
    },
    {
      "inputs": [],
      "name": "ELITE_WEIGHTAGE",
      "outputs": [
        {
          "internalType": "uint256",
          "name": "",
          "type": "uint256"
        }
      ],
      "stateMutability": "view",
      "type": "function"
    },
    {
      "inputs": [],
      "name": "TOTAL_DISTRIBUTION",
      "outputs": [
        {
          "internalType": "uint256",
          "name": "",
          "type": "uint256"
        }
      ],
      "stateMutability": "view",
      "type": "function"
    },
    {
      "inputs": [],
      "name": "TRAINEE_WEIGHTAGE",
      "outputs": [
        {
          "internalType": "uint256",
          "name": "",
          "type": "uint256"
        }
      ],
      "stateMutability": "view",
      "type": "function"
    },
    {
      "inputs": [],
      "name": "WEAPON_WEIGHTAGE",
      "outputs": [
        {
          "internalType": "uint256",
          "name": "",
          "type": "uint256"
        }
      ],
      "stateMutability": "view",
      "type": "function"
    },
    {
      "inputs": [],
      "name": "airdropDuration",
      "outputs": [
        {
          "internalType": "uint256",
          "name": "",
          "type": "uint256"
        }
      ],
      "stateMutability": "view",
      "type": "function"
    },
    {
      "inputs": [],
      "name": "airdropStarts",
      "outputs": [
        {
          "internalType": "uint256",
          "name": "",
          "type": "uint256"
        }
      ],
      "stateMutability": "view",
      "type": "function"
    },
    {
      "inputs": [],
      "name": "characters",
      "outputs": [
        {
          "internalType": "contract Characters",
          "name": "",
          "type": "address"
        }
      ],
      "stateMutability": "view",
      "type": "function"
    },
    {
      "inputs": [
        {
          "internalType": "uint256",
          "name": "",
          "type": "uint256"
        }
      ],
      "name": "claimedCharacterIds",
      "outputs": [
        {
          "internalType": "bool",
          "name": "",
          "type": "bool"
        }
      ],
      "stateMutability": "view",
      "type": "function"
    },
    {
      "inputs": [
        {
          "internalType": "uint256",
          "name": "",
          "type": "uint256"
        }
      ],
      "name": "claimedWeaponIds",
      "outputs": [
        {
          "internalType": "bool",
          "name": "",
          "type": "bool"
        }
      ],
      "stateMutability": "view",
      "type": "function"
    },
    {
      "inputs": [
        {
          "internalType": "uint256",
          "name": "",
          "type": "uint256"
        }
      ],
      "name": "earlyAdopters",
      "outputs": [
        {
          "internalType": "address",
          "name": "",
          "type": "address"
        }
      ],
      "stateMutability": "view",
      "type": "function"
    },
    {
      "inputs": [],
      "name": "owner",
      "outputs": [
        {
          "internalType": "address",
          "name": "",
          "type": "address"
        }
      ],
      "stateMutability": "view",
      "type": "function"
    },
    {
      "inputs": [],
      "name": "paused",
      "outputs": [
        {
          "internalType": "bool",
          "name": "",
          "type": "bool"
        }
      ],
      "stateMutability": "view",
      "type": "function"
    },
    {
      "inputs": [],
      "name": "renounceOwnership",
      "outputs": [],
      "stateMutability": "nonpayable",
      "type": "function"
    },
    {
      "inputs": [
        {
          "internalType": "address",
          "name": "",
          "type": "address"
        },
        {
          "internalType": "uint256",
          "name": "",
          "type": "uint256"
        }
      ],
      "name": "snapshotCharacterIds",
      "outputs": [
        {
          "internalType": "uint256",
          "name": "",
          "type": "uint256"
        }
      ],
      "stateMutability": "view",
      "type": "function"
    },
    {
      "inputs": [
        {
          "internalType": "address",
          "name": "",
          "type": "address"
        },
        {
          "internalType": "uint256",
          "name": "",
          "type": "uint256"
        }
      ],
      "name": "snapshotWeaponIds",
      "outputs": [
        {
          "internalType": "uint256",
          "name": "",
          "type": "uint256"
        }
      ],
      "stateMutability": "view",
      "type": "function"
    },
    {
      "inputs": [],
      "name": "totalWeight",
      "outputs": [
        {
          "internalType": "uint256",
          "name": "",
          "type": "uint256"
        }
      ],
      "stateMutability": "view",
      "type": "function"
    },
    {
      "inputs": [
        {
          "internalType": "address",
          "name": "newOwner",
          "type": "address"
        }
      ],
      "name": "transferOwnership",
      "outputs": [],
      "stateMutability": "nonpayable",
      "type": "function"
    },
    {
      "inputs": [],
      "name": "weapons",
      "outputs": [
        {
          "internalType": "contract Weapons",
          "name": "",
          "type": "address"
        }
      ],
      "stateMutability": "view",
      "type": "function"
    },
    {
      "inputs": [
        {
          "internalType": "contract Characters",
          "name": "_characters",
          "type": "address"
        },
        {
          "internalType": "contract Weapons",
          "name": "_weapons",
          "type": "address"
        },
        {
          "internalType": "address",
          "name": "_core",
          "type": "address"
        },
        {
          "internalType": "address[]",
          "name": "_earlyAdopters",
          "type": "address[]"
        }
      ],
      "name": "initialize",
      "outputs": [],
      "stateMutability": "nonpayable",
      "type": "function"
    },
    {
      "inputs": [
        {
          "internalType": "uint256",
          "name": "duration",
          "type": "uint256"
        }
      ],
      "name": "setAirdropDuration",
      "outputs": [],
      "stateMutability": "nonpayable",
      "type": "function"
    },
    {
      "inputs": [],
      "name": "setAirdropStartTime",
      "outputs": [],
      "stateMutability": "nonpayable",
      "type": "function"
    },
    {
      "inputs": [
        {
          "internalType": "bool",
          "name": "characterData",
          "type": "bool"
        },
        {
          "internalType": "address",
          "name": "user",
          "type": "address"
        },
        {
          "internalType": "uint256[]",
          "name": "ids",
          "type": "uint256[]"
        }
      ],
      "name": "setSnapshotForUsers",
      "outputs": [],
      "stateMutability": "nonpayable",
      "type": "function"
    },
    {
      "inputs": [
        {
          "internalType": "uint256",
          "name": "_weight",
          "type": "uint256"
        }
      ],
      "name": "setTotalWeight",
      "outputs": [],
      "stateMutability": "nonpayable",
      "type": "function"
    },
    {
      "inputs": [],
      "name": "claimAirdrop",
      "outputs": [],
      "stateMutability": "nonpayable",
      "type": "function"
    },
    {
      "inputs": [
        {
          "internalType": "address",
          "name": "user",
          "type": "address"
        }
      ],
      "name": "checkClaimableAirdropAmount",
      "outputs": [
        {
          "internalType": "uint256",
          "name": "",
          "type": "uint256"
        }
      ],
      "stateMutability": "view",
      "type": "function"
    },
    {
      "inputs": [],
      "name": "getAllEarlyAdopters",
      "outputs": [
        {
          "internalType": "address[]",
          "name": "",
          "type": "address[]"
        }
      ],
      "stateMutability": "view",
      "type": "function"
    },
    {
      "inputs": [
        {
          "internalType": "address",
          "name": "user",
          "type": "address"
        }
      ],
      "name": "getUserWeapons",
      "outputs": [
        {
          "internalType": "uint256[]",
          "name": "",
          "type": "uint256[]"
        }
      ],
      "stateMutability": "view",
      "type": "function"
    },
    {
      "inputs": [
        {
          "internalType": "address",
          "name": "user",
          "type": "address"
        }
      ],
      "name": "getUserCharacters",
      "outputs": [
        {
          "internalType": "uint256[]",
          "name": "",
          "type": "uint256[]"
        }
      ],
      "stateMutability": "view",
      "type": "function"
    },
    {
      "inputs": [
        {
          "internalType": "bool",
          "name": "characterData",
          "type": "bool"
        },
        {
          "internalType": "address",
          "name": "user",
          "type": "address"
        }
      ],
      "name": "getUserSnapshots",
      "outputs": [
        {
          "internalType": "uint256[]",
          "name": "",
          "type": "uint256[]"
        }
      ],
      "stateMutability": "view",
      "type": "function"
    },
    {
      "inputs": [
        {
          "internalType": "uint256",
          "name": "amount",
          "type": "uint256"
        }
      ],
      "name": "withdrawCORE",
      "outputs": [],
      "stateMutability": "nonpayable",
      "type": "function"
    },
    {
      "inputs": [],
      "name": "pause",
      "outputs": [],
      "stateMutability": "nonpayable",
      "type": "function"
    },
    {
      "inputs": [],
      "name": "unpause",
      "outputs": [],
      "stateMutability": "nonpayable",
      "type": "function"
    }
  ],
  "bytecode": "0x608060405234801561001057600080fd5b506124f5806100206000396000f3fe608060405234801561001057600080fd5b50600436106101fb5760003560e01c806388b2436e1161011a578063c5e88d9c116100ad578063e6bfbfd81161007c578063e6bfbfd8146103a5578063e8e51d90146103b8578063e8f21f6a146103cb578063f2fde38b146103d3578063fab97db6146103e6576101fb565b8063c5e88d9c14610378578063d070bb5414610380578063da57bb5714610388578063e03a4eb514610390576101fb565b8063b2494293116100e9578063b249429314610337578063b2dbbe971461034a578063b78f171e1461035d578063b7e1cd8614610370576101fb565b806388b2436e146103015780638a7130a0146103145780638da5cb5b1461032757806396c82e571461032f576101fb565b80635b88349d11610192578063715018a611610161578063715018a6146102d65780637fc6d7c1146102de57806380c44cab146102f15780638456cb59146102f9576101fb565b80635b88349d146102a95780635c975abb146102b15780635e39a6f1146102b95780636b6c0774146102c1576101fb565b80632f3856e5116101ce5780632f3856e5146102595780633b4ec1d4146102795780633f4ba83a1461028157806359ac374514610289576101fb565b806302710bea14610200578063059d969d146102295780630dd08489146102315780631d49692314610246575b600080fd5b61021361020e366004611e64565b6103f9565b604051610220919061244c565b60405180910390f35b610213610427565b61024461023f36600461206b565b61042d565b005b610213610254366004611e64565b61049a565b61026c610267366004611e48565b6104b3565b6040516102209190612115565b61021361062f565b610244610635565b61029c61029736600461206b565b61067e565b604051610220919061214d565b610244610693565b61029c610a48565b610213610a52565b6102c9610a58565b604051610220919061209b565b610244610a67565b61029c6102ec36600461206b565b610af0565b610213610b05565b610244610b0b565b6102c961030f36600461206b565b610b52565b61024461032236600461206b565b610b79565b6102c9610cf9565b610213610d08565b61026c610345366004611eab565b610d0e565b61024461035836600461206b565b610dec565b61021361036b366004611e48565b610e30565b6102c96110ad565b6102136110bc565b6102c96110c2565b6102136110d1565b6103986110d7565b60405161022091906120c8565b6102446103b3366004611f74565b611139565b6102446103c6366004611ee3565b611246565b6102446112fd565b6102446103e1366004611e48565b611362565b61026c6103f4366004611e48565b611423565b60a2602052816000526040600020818154811061041257fe5b90600052602060002001600091509150505481565b609f5481565b609e54156104565760405162461bcd60e51b815260040161044d9061234c565b60405180910390fd5b61045e611598565b6001600160a01b031661046f610cf9565b6001600160a01b0316146104955760405162461bcd60e51b815260040161044d906122e9565b60a055565b60a3602052816000526040600020818154811061041257fe5b609b546040516370a0823160e01b815260609182916001600160a01b03909116906370a08231906104e890869060040161209b565b60206040518083038186803b15801561050057600080fd5b505afa158015610514573d6000803e3d6000fd5b505050506040513d601f19601f820116820180604052508101906105389190612083565b67ffffffffffffffff8111801561054e57600080fd5b50604051908082528060200260200182016040528015610578578160200160208202803683370190505b50905060005b815181101561062857609b54604051632f745c5960e01b81526001600160a01b0390911690632f745c59906105b990879085906004016120af565b60206040518083038186803b1580156105d157600080fd5b505afa1580156105e5573d6000803e3d6000fd5b505050506040513d601f19601f820116820180604052508101906106099190612083565b82828151811061061557fe5b602090810291909101015260010161057e565b5092915050565b60995481565b61063d611598565b6001600160a01b031661064e610cf9565b6001600160a01b0316146106745760405162461bcd60e51b815260040161044d906122e9565b61067c61159c565b565b60a46020526000908152604090205460ff1681565b61069b610a48565b156106b85760405162461bcd60e51b815260040161044d90612203565b609e546106d75760405162461bcd60e51b815260040161044d9061231e565b609f54609e546106ec9163ffffffff61160a16565b421015610760576000805b60a15481101561074057336001600160a01b031660a1828154811061071857fe5b6000918252602090912001546001600160a01b0316141561073857600191505b6001016106f7565b508061075e5760405162461bcd60e51b815260040161044d9061222d565b505b609b546040516370a0823160e01b81526000916001600160a01b0316906370a082319061079190339060040161209b565b60206040518083038186803b1580156107a957600080fd5b505afa1580156107bd573d6000803e3d6000fd5b505050506040513d601f19601f820116820180604052508101906107e19190612083565b609c546040516370a0823160e01b81529192506000916001600160a01b03909116906370a082319061081790339060040161209b565b60206040518083038186803b15801561082f57600080fd5b505afa158015610843573d6000803e3d6000fd5b505050506040513d601f19601f820116820180604052508101906108679190612083565b9050600061087b838363ffffffff61160a16565b116108985760405162461bcd60e51b815260040161044d9061222d565b60006108a333611636565b9050600081116108c55760405162461bcd60e51b815260040161044d906122b2565b609d546040516370a0823160e01b815282916001600160a01b0316906370a08231906108f590309060040161209b565b60206040518083038186803b15801561090d57600080fd5b505afa158015610921573d6000803e3d6000fd5b505050506040513d601f19601f820116820180604052508101906109459190612083565b116109625760405162461bcd60e51b815260040161044d906123ba565b609d5460405163a9059cbb60e01b81526001600160a01b039091169063a9059cbb9061099490339085906004016120af565b602060405180830381600087803b1580156109ae57600080fd5b505af11580156109c2573d6000803e3d6000fd5b505050506040513d601f19601f820116820180604052508101906109e69190611e8f565b610a025760405162461bcd60e51b815260040161044d906123ea565b336001600160a01b03167f83265b23c474cc19d093563d55ac9f2ed482ac7bf0b34628271110c11db9f9e682604051610a3b919061244c565b60405180910390a2505050565b60335460ff165b90565b609a5481565b609d546001600160a01b031681565b610a6f611598565b6001600160a01b0316610a80610cf9565b6001600160a01b031614610aa65760405162461bcd60e51b815260040161044d906122e9565b6065546040516000916001600160a01b0316907f8be0079c531659141344cd1fd0a4f28419497f9722a3daafe3b4186f6b6457e0908390a3606580546001600160a01b0319169055565b60a56020526000908152604090205460ff1681565b60975481565b610b13611598565b6001600160a01b0316610b24610cf9565b6001600160a01b031614610b4a5760405162461bcd60e51b815260040161044d906122e9565b61067c611907565b60a18181548110610b5f57fe5b6000918252602090912001546001600160a01b0316905081565b610b81611598565b6001600160a01b0316610b92610cf9565b6001600160a01b031614610bb85760405162461bcd60e51b815260040161044d906122e9565b609d546040516370a0823160e01b815282916001600160a01b0316906370a0823190610be890309060040161209b565b60206040518083038186803b158015610c0057600080fd5b505afa158015610c14573d6000803e3d6000fd5b505050506040513d601f19601f82011682018060405250810190610c389190612083565b1015610c565760405162461bcd60e51b815260040161044d90612421565b609d5460405163a9059cbb60e01b81526001600160a01b039091169063a9059cbb90610c8890339085906004016120af565b602060405180830381600087803b158015610ca257600080fd5b505af1158015610cb6573d6000803e3d6000fd5b505050506040513d601f19601f82011682018060405250810190610cda9190611e8f565b610cf65760405162461bcd60e51b815260040161044d90612383565b50565b6065546001600160a01b031690565b60a05481565b60608215610d80576001600160a01b038216600090815260a2602090815260409182902080548351818402810184019094528084529091830182828015610d7457602002820191906000526020600020905b815481526020019060010190808311610d60575b50505050509050610de6565b6001600160a01b038216600090815260a3602090815260409182902080548351818402810184019094528084529091830182828015610dde57602002820191906000526020600020905b815481526020019060010190808311610dca575b505050505090505b92915050565b610df4611598565b6001600160a01b0316610e05610cf9565b6001600160a01b031614610e2b5760405162461bcd60e51b815260040161044d906122e9565b609f55565b6001600160a01b038116600090815260a2602090815260408083208054825181850281018501909352808352606093830182828015610e8e57602002820191906000526020600020905b815481526020019060010190808311610e7a575b5050506001600160a01b038616600090815260a3602090815260409182902080548351818402810184019094528084529596506060959294509250830182828015610ef857602002820191906000526020600020905b815481526020019060010190808311610ee4575b509394506000935083925050505b83518110156110245760a46000858381518110610f1f57fe5b60209081029190910181015182528101919091526040016000205460ff1661101c57609b5484516000916001600160a01b031690631bd2a47790879085908110610f6557fe5b60200260200101516040518263ffffffff1660e01b8152600401610f89919061244c565b60206040518083038186803b158015610fa157600080fd5b505afa158015610fb5573d6000803e3d6000fd5b505050506040513d601f19601f82011682018060405250810190610fd9919061204c565b6002811115610fe457fe5b141561100557609754610ffe90839063ffffffff61160a16565b915061101c565b60985461101990839063ffffffff61160a16565b91505b600101610f06565b5060005b82518110156110825760a5600084838151811061104157fe5b60209081029190910181015182528101919091526040016000205460ff1661107a5760995461107790839063ffffffff61160a16565b91505b600101611028565b506110a4609a546110958360a054611962565b600f0b9063ffffffff6119a216565b95945050505050565b609c546001600160a01b031681565b609e5481565b609b546001600160a01b031681565b60985481565b606060a180548060200260200160405190810160405280929190818152602001828054801561112f57602002820191906000526020600020905b81546001600160a01b03168152600190910190602001808311611111575b5050505050905090565b600054610100900460ff16806111525750611152611a0a565b80611160575060005460ff16155b61117c5760405162461bcd60e51b815260040161044d90612264565b600054610100900460ff161580156111a7576000805460ff1961ff0019909116610100171660011790555b6111af611a1b565b6111b7611a9d565b6111bf611b77565b609d80546001600160a01b038086166001600160a01b031992831617909255609b8054888416908316179055609c805492871692909116919091179055815161120f9060a1906020850190611d53565b5060196097556005609855600160995569d3c21bcecceda1000000609a55801561123f576000805461ff00191690555b5050505050565b609e54156112665760405162461bcd60e51b815260040161044d9061234c565b61126e611598565b6001600160a01b031661127f610cf9565b6001600160a01b0316146112a55760405162461bcd60e51b815260040161044d906122e9565b83156112d4576001600160a01b038316600090815260a2602052604090206112ce908383611db8565b506112f7565b6001600160a01b038316600090815260a36020526040902061123f908383611db8565b50505050565b609e541561131d5760405162461bcd60e51b815260040161044d9061234c565b611325611598565b6001600160a01b0316611336610cf9565b6001600160a01b03161461135c5760405162461bcd60e51b815260040161044d906122e9565b42609e55565b61136a611598565b6001600160a01b031661137b610cf9565b6001600160a01b0316146113a15760405162461bcd60e51b815260040161044d906122e9565b6001600160a01b0381166113c75760405162461bcd60e51b815260040161044d90612186565b6065546040516001600160a01b038084169216907f8be0079c531659141344cd1fd0a4f28419497f9722a3daafe3b4186f6b6457e090600090a3606580546001600160a01b0319166001600160a01b0392909216919091179055565b609c546040516370a0823160e01b815260609182916001600160a01b03909116906370a082319061145890869060040161209b565b60206040518083038186803b15801561147057600080fd5b505afa158015611484573d6000803e3d6000fd5b505050506040513d601f19601f820116820180604052508101906114a89190612083565b67ffffffffffffffff811180156114be57600080fd5b506040519080825280602002602001820160405280156114e8578160200160208202803683370190505b50905060005b815181101561062857609c54604051632f745c5960e01b81526001600160a01b0390911690632f745c599061152990879085906004016120af565b60206040518083038186803b15801561154157600080fd5b505afa158015611555573d6000803e3d6000fd5b505050506040513d601f19601f820116820180604052508101906115799190612083565b82828151811061158557fe5b60209081029190910101526001016114ee565b3390565b6115a4610a48565b6115c05760405162461bcd60e51b815260040161044d90612158565b6033805460ff191690557f5db9ee0a495bf2e6ff9c91a7834c1ba4fdd244a5e8aa4e537bd38aeae4b073aa6115f3611598565b604051611600919061209b565b60405180910390a1565b60008282018381101561162f5760405162461bcd60e51b815260040161044d906121cc565b9392505050565b6001600160a01b038116600090815260a260209081526040808320805482518185028101850190935280835260609383018282801561169457602002820191906000526020600020905b815481526020019060010190808311611680575b5050506001600160a01b038616600090815260a36020908152604091829020805483518184028101840190945280845295965060609592945092508301828280156116fe57602002820191906000526020600020905b8154815260200190600101908083116116ea575b509394506000935083925050505b835181101561186a5760a4600085838151811061172557fe5b60209081029190910181015182528101919091526040016000205460ff1661186257609b5484516000916001600160a01b031690631bd2a4779087908590811061176b57fe5b60200260200101516040518263ffffffff1660e01b815260040161178f919061244c565b60206040518083038186803b1580156117a757600080fd5b505afa1580156117bb573d6000803e3d6000fd5b505050506040513d601f19601f820116820180604052508101906117df919061204c565b60028111156117ea57fe5b141561180b5760975461180490839063ffffffff61160a16565b9150611822565b60985461181f90839063ffffffff61160a16565b91505b600160a4600086848151811061183457fe5b6020026020010151815260200190815260200160002060006101000a81548160ff0219169083151502179055505b60010161170c565b5060005b82518110156110825760a5600084838151811061188757fe5b60209081029190910181015182528101919091526040016000205460ff166118ff576099546118bd90839063ffffffff61160a16565b9150600160a560008584815181106118d157fe5b6020026020010151815260200190815260200160002060006101000a81548160ff0219169083151502179055505b60010161186e565b61190f610a48565b1561192c5760405162461bcd60e51b815260040161044d90612203565b6033805460ff191660011790557f62e78cea01bee320cd4e420270b5ea74000d11b0c9f74754ebdbfc544b05a2586115f3611598565b60008161196e57600080fd5b600061197a8484611c03565b90506f7fffffffffffffffffffffffffffffff6001600160801b038216111561162f57600080fd5b6000816119b157506000610de6565b600083600f0b12156119c257600080fd5b600f83900b6001600160801b038316810260401c90608084901c026001600160c01b038111156119f157600080fd5b60401b8119811115611a0257600080fd5b019392505050565b6000611a1530611d4d565b15905090565b600054610100900460ff1680611a345750611a34611a0a565b80611a42575060005460ff16155b611a5e5760405162461bcd60e51b815260040161044d90612264565b600054610100900460ff16158015611a89576000805460ff1961ff0019909116610100171660011790555b8015610cf6576000805461ff001916905550565b600054610100900460ff1680611ab65750611ab6611a0a565b80611ac4575060005460ff16155b611ae05760405162461bcd60e51b815260040161044d90612264565b600054610100900460ff16158015611b0b576000805460ff1961ff0019909116610100171660011790555b6000611b15611598565b606580546001600160a01b0319166001600160a01b038316908117909155604051919250906000907f8be0079c531659141344cd1fd0a4f28419497f9722a3daafe3b4186f6b6457e0908290a3508015610cf6576000805461ff001916905550565b600054610100900460ff1680611b905750611b90611a0a565b80611b9e575060005460ff16155b611bba5760405162461bcd60e51b815260040161044d90612264565b600054610100900460ff16158015611be5576000805460ff1961ff0019909116610100171660011790555b6033805460ff191690558015610cf6576000805461ff001916905550565b600081611c0f57600080fd5b60006001600160c01b038411611c345782604085901b81611c2c57fe5b049050611d39565b60c084811c6401000000008110611c4d576020918201911c5b620100008110611c5f576010918201911c5b6101008110611c70576008918201911c5b60108110611c80576004918201911c5b60048110611c90576002918201911c5b60028110611c9f576001820191505b60bf820360018603901c6001018260ff0387901b81611cba57fe5b0492506001600160801b03831115611cd157600080fd5b608085901c83026001600160801b038616840260c088901c604089901b82811015611cfd576001820391505b608084901b92900382811015611d14576001820391505b829003608084901c8214611d2457fe5b888181611d2d57fe5b04870196505050505050505b6001600160801b0381111561162f57600080fd5b3b151590565b828054828255906000526020600020908101928215611da8579160200282015b82811115611da857825182546001600160a01b0319166001600160a01b03909116178255602090920191600190910190611d73565b50611db4929150611dff565b5090565b828054828255906000526020600020908101928215611df3579160200282015b82811115611df3578235825591602001919060010190611dd8565b50611db4929150611e23565b610a4f91905b80821115611db45780546001600160a01b0319168155600101611e05565b610a4f91905b80821115611db45760008155600101611e29565b8035610de68161249c565b600060208284031215611e59578081fd5b813561162f8161249c565b60008060408385031215611e76578081fd5b8235611e818161249c565b946020939093013593505050565b600060208284031215611ea0578081fd5b815161162f816124b1565b60008060408385031215611ebd578182fd5b8235611ec8816124b1565b91506020830135611ed88161249c565b809150509250929050565b60008060008060608587031215611ef8578182fd5b8435611f03816124b1565b93506020850135611f138161249c565b9250604085013567ffffffffffffffff80821115611f2f578384fd5b81870188601f820112611f40578485fd5b8035925081831115611f50578485fd5b8860208085028301011115611f63578485fd5b959894975050602090940194505050565b60008060008060808587031215611f89578384fd5b8435611f948161249c565b9350602085810135611fa58161249c565b93506040860135611fb58161249c565b9250606086013567ffffffffffffffff811115611fd0578283fd5b80870188601f820112611fe1578384fd5b80359150611ff6611ff18361247c565b612455565b82815283810190828501858502840186018c1015612012578687fd5b8693505b8484101561203c576120288c82611e3d565b835260019390930192918501918501612016565b50979a9699509497505050505050565b60006020828403121561205d578081fd5b81516003811061162f578182fd5b60006020828403121561207c578081fd5b5035919050565b600060208284031215612094578081fd5b5051919050565b6001600160a01b0391909116815260200190565b6001600160a01b03929092168252602082015260400190565b6020808252825182820181905260009190848201906040850190845b818110156121095783516001600160a01b0316835292840192918401916001016120e4565b50909695505050505050565b6020808252825182820181905260009190848201906040850190845b8181101561210957835183529284019291840191600101612131565b901515815260200190565b60208082526014908201527314185d5cd8589b194e881b9bdd081c185d5cd95960621b604082015260600190565b60208082526026908201527f4f776e61626c653a206e6577206f776e657220697320746865207a65726f206160408201526564647265737360d01b606082015260800190565b6020808252601b908201527f536166654d6174683a206164646974696f6e206f766572666c6f770000000000604082015260600190565b60208082526010908201526f14185d5cd8589b194e881c185d5cd95960821b604082015260600190565b60208082526019908201527f4e6f7420656c696769626c6520666f722061697264726f702100000000000000604082015260600190565b6020808252602e908201527f496e697469616c697a61626c653a20636f6e747261637420697320616c72656160408201526d191e481a5b9a5d1a585b1a5e995960921b606082015260800190565b60208082526017908201527f4e6f20616d6f756e74206c65667420746f20636c61696d000000000000000000604082015260600190565b6020808252818101527f4f776e61626c653a2063616c6c6572206973206e6f7420746865206f776e6572604082015260600190565b60208082526014908201527341697264726f70206e6f7420737461727465642160601b604082015260600190565b60208082526018908201527f41697264726f7020616c726561647920737461727465642e0000000000000000604082015260600190565b6020808252601e908201527f556e61626c6520746f20776974686472617720434f524520746f6b656e730000604082015260600190565b6020808252601690820152754e6f7420656e6f75676820434f524520746f6b656e7360501b604082015260600190565b6020808252601d908201527f556e61626c6520746f2073656e642061697264726f7020746f6b656e73000000604082015260600190565b602080825260119082015270139bdd08195b9bdd59da08185b5bdd5b9d607a1b604082015260600190565b90815260200190565b60405181810167ffffffffffffffff8111828210171561247457600080fd5b604052919050565b600067ffffffffffffffff821115612492578081fd5b5060209081020190565b6001600160a01b0381168114610cf657600080fd5b8015158114610cf657600080fdfea26469706673582212207cd23bc3c5643b399a8f80eb9fcd970fb50a20f3aaa11c5db07d54b120c69c5564736f6c63430006050033",
  "immutableReferences": {},
  "source": "// SPDX-License-Identifier: MIT\npragma solidity ^0.6.0;\npragma experimental ABIEncoderV2;\n\nimport '@openzeppelin/contracts-upgradeable/proxy/Initializable.sol';\nimport '@openzeppelin/contracts-upgradeable/utils/PausableUpgradeable.sol';\nimport '@openzeppelin/contracts-upgradeable/access/OwnableUpgradeable.sol';\nimport '@openzeppelin/contracts/math/SafeMath.sol';\nimport 'abdk-libraries-solidity/ABDKMath64x64.sol';\nimport '@openzeppelin/contracts/token/ERC20/IERC20.sol';\nimport './characters.sol';\nimport './interfaces/ICharacter.sol';\nimport './weapons.sol';\n\ncontract Airdrop is\n    Initializable,\n    PausableUpgradeable,\n    OwnableUpgradeable,\n    ICharacter\n{\n    using SafeMath for uint256;\n    using ABDKMath64x64 for uint256;\n    using ABDKMath64x64 for int128;\n\n    uint256 public ELITE_WEIGHTAGE;\n    uint256 public TRAINEE_WEIGHTAGE;\n    uint256 public WEAPON_WEIGHTAGE;\n    uint256 public TOTAL_DISTRIBUTION;\n\n    Characters public characters;\n    Weapons public weapons;\n    IERC20 public CORE;\n\n    function initialize(\n        Characters _characters,\n        Weapons _weapons,\n        address _core,\n        address[] memory _earlyAdopters\n    ) public initializer {\n        __Context_init_unchained();\n        __Ownable_init_unchained();\n        __Pausable_init_unchained();\n\n        CORE = IERC20(_core);\n        characters = _characters;\n        weapons = _weapons; \n\n        earlyAdopters = _earlyAdopters;\n\n        ELITE_WEIGHTAGE = 25;\n        TRAINEE_WEIGHTAGE = 5;\n        WEAPON_WEIGHTAGE = 1;\n        TOTAL_DISTRIBUTION = 1000000 ether;\n\n    }\n\n    uint256 public airdropStarts;\n    uint256 public airdropDuration;\n    uint256 public totalWeight;\n    address[] public earlyAdopters;\n\n    mapping(address => uint256[]) public snapshotCharacterIds;\n    mapping(address => uint256[]) public snapshotWeaponIds;\n\n    mapping(uint256 => bool) public claimedCharacterIds;\n    mapping(uint256 => bool) public claimedWeaponIds;\n\n    event ClaimedAirdrop(address indexed user, uint256 amount);\n    \n    modifier checkForValidAirdrop() {\n        require(airdropStarts !=0, \"Airdrop not started!\");\n        if((block.timestamp < airdropStarts.add(airdropDuration))) {\n            bool isEarlyAdopter = false;\n            for(uint256 i = 0; i < earlyAdopters.length; i++) {\n                if(earlyAdopters[i] == msg.sender) {\n                    isEarlyAdopter = true;\n                }\n            }\n            require(isEarlyAdopter, \"Not eligible for airdrop!\");\n        }\n        _;\n    }\n\n    modifier airdropNotStarted() {\n        require(airdropStarts == 0, \"Airdrop already started.\");\n        _;\n    }\n\n    function setAirdropDuration(uint256 duration) external onlyOwner {\n        airdropDuration = duration;\n    }\n\n    function setAirdropStartTime() external airdropNotStarted onlyOwner {\n        airdropStarts = block.timestamp;\n    }\n\n    function setSnapshotForUsers(bool characterData, address user, uint256[] calldata ids) external airdropNotStarted onlyOwner {\n        if(characterData) {\n            snapshotCharacterIds[user] = ids;\n        } else {\n            snapshotWeaponIds[user] = ids;\n        }\n    }\n\n    // function setAmounts(uint256 _ELITE_WEIGHTAGE, uint256 _TRAINEE_WEIGHTAGE, uint256 _WEAPON_WEIGHTAGE) external onlyOwner {\n    //     ELITE_WEIGHTAGE = _ELITE_WEIGHTAGE;\n    //     TRAINEE_WEIGHTAGE = _TRAINEE_WEIGHTAGE;\n    //     WEAPON_WEIGHTAGE = _WEAPON_WEIGHTAGE;\n    // }\n\n    function setTotalWeight(uint256 _weight) external airdropNotStarted onlyOwner {\n        totalWeight = _weight;\n    }\n\n    function claimAirdrop()\n        public\n        whenNotPaused\n        checkForValidAirdrop\n    {\n        uint256 charactersCount = characters.balanceOf(msg.sender);\n        uint256 weaponsCount = weapons.balanceOf(msg.sender);\n        require(charactersCount.add(weaponsCount) > 0, \"Not eligible for airdrop!\");\n\n        uint256 totalAmount = _checkClaimableAirdropAmount(msg.sender);\n        require(totalAmount > 0, \"No amount left to claim\");\n        require(CORE.balanceOf(address(this)) > totalAmount, \"Not enough CORE tokens\");\n\n        require(CORE.transfer(msg.sender, totalAmount), \"Unable to send airdrop tokens\");\n        emit ClaimedAirdrop(msg.sender, totalAmount);\n    }\n\n    function _checkClaimableAirdropAmount(address user) internal returns(uint256) {\n        uint256[] memory characterIds = snapshotCharacterIds[user];\n        uint256[] memory weaponIds = snapshotWeaponIds[user];\n\n        uint256 totalAmount = 0;\n        for(uint256 i=0; i<characterIds.length; i++) {\n            if(!claimedCharacterIds[characterIds[i]]) {\n                if(characters.getCharacterType(characterIds[i]) == CharacterType.Elite) {\n                    totalAmount = totalAmount.add(ELITE_WEIGHTAGE);\n                } else {\n                    totalAmount = totalAmount.add(TRAINEE_WEIGHTAGE);\n                }\n            claimedCharacterIds[characterIds[i]] = true; \n            }\n        }\n\n        for(uint256 i=0; i<weaponIds.length; i++) {\n            if(!claimedWeaponIds[weaponIds[i]]) {\n                totalAmount = totalAmount.add(WEAPON_WEIGHTAGE);\n                claimedWeaponIds[weaponIds[i]] = true; \n            }\n        }\n\n        return ABDKMath64x64.divu(totalAmount, totalWeight).mulu(TOTAL_DISTRIBUTION);\n    }\n\n    function checkClaimableAirdropAmount(address user) public view returns(uint256) {\n        uint256[] memory characterIds = snapshotCharacterIds[user];\n        uint256[] memory weaponIds = snapshotWeaponIds[user];\n\n        uint256 totalAmount = 0;\n        for(uint256 i=0; i<characterIds.length; i++) {\n            if(!claimedCharacterIds[characterIds[i]]) {\n                if(characters.getCharacterType(characterIds[i]) == CharacterType.Elite) {\n                    totalAmount = totalAmount.add(ELITE_WEIGHTAGE);\n                } else {\n                    totalAmount = totalAmount.add(TRAINEE_WEIGHTAGE);\n                }\n            }\n        }\n\n        for(uint256 i=0; i<weaponIds.length; i++) {\n            if(!claimedWeaponIds[weaponIds[i]]) {\n                totalAmount = totalAmount.add(WEAPON_WEIGHTAGE);\n            }\n        }\n\n        return ABDKMath64x64.divu(totalAmount, totalWeight).mulu(TOTAL_DISTRIBUTION);\n    }\n\n    // if we will really need this?\n    // function addEarlyAdopters(address[] memory users) public airdropNotStarted onlyOwner {\n    //     require(users.length > 0, \"No addresses!\");\n    //     for(uint i=0; i< users.length; i++) {\n    //         require(users[i] != address(0), \"Address(0) error\");\n    //         earlyAdopters.push(users[i]);\n    //     }   \n    // }\n\n    function getAllEarlyAdopters() public view returns(address[] memory) {\n        return earlyAdopters;\n    }\n\n    function getUserWeapons(address user) public view returns(uint256[] memory) {\n        uint256[] memory tokens = new uint256[](weapons.balanceOf(user));\n        for(uint256 i = 0; i < tokens.length; i++) {\n            tokens[i] = weapons.tokenOfOwnerByIndex(user, i);\n        }\n        return tokens;\n    }\n\n    function getUserCharacters(address user) public view returns(uint256[] memory) {\n        uint256[] memory tokens = new uint256[](characters.balanceOf(user));\n        for(uint256 i = 0; i < tokens.length; i++) {\n            tokens[i] = characters.tokenOfOwnerByIndex(user, i);\n        }\n        return tokens;\n    }\n\n    function getUserSnapshots(bool characterData, address user) public view returns(uint256[] memory) {\n        if(characterData) {\n            return snapshotCharacterIds[user];\n        }\n        return snapshotWeaponIds[user];\n    }\n    \n    function withdrawCORE(uint256 amount) public onlyOwner {\n        require(CORE.balanceOf(address(this)) >= amount, \"Not enough amount\");\n        require(CORE.transfer(msg.sender, amount), \"Unable to withdraw CORE tokens\");\n    }\n\n    function pause() external onlyOwner {\n        _pause();\n    }\n\n    function unpause() external onlyOwner {\n        _unpause();\n    }\n\n}\n",
  "sourcePath": "/Users/school/dev/ciphershooters/contracts/Airdrop.sol",
  "compiler": {
    "name": "solc",
    "version": "0.6.5+commit.f956cc89.Emscripten.clang"
  },
  "schemaVersion": "3.4.6",
  "updatedAt": "2022-06-04T16:14:57.538Z",
  "devdoc": {
    "methods": {
      "owner()": {
        "details": "Returns the address of the current owner."
      },
      "paused()": {
        "details": "Returns true if the contract is paused, and false otherwise."
      },
      "renounceOwnership()": {
        "details": "Leaves the contract without owner. It will not be possible to call `onlyOwner` functions anymore. Can only be called by the current owner.     * NOTE: Renouncing ownership will leave the contract without an owner, thereby removing any functionality that is only available to the owner."
      },
      "transferOwnership(address)": {
        "details": "Transfers ownership of the contract to a new account (`newOwner`). Can only be called by the current owner."
      }
    }
  },
  "userdoc": {
    "methods": {}
  }
}