{
  "contractName": "ArmorySale",
  "abi": [
    {
      "anonymous": false,
      "inputs": [
        {
          "indexed": false,
          "internalType": "address",
          "name": "account",
          "type": "address"
        }
      ],
      "name": "Paused",
      "type": "event"
    },
    {
      "anonymous": false,
      "inputs": [
        {
          "indexed": true,
          "internalType": "bytes32",
          "name": "role",
          "type": "bytes32"
        },
        {
          "indexed": true,
          "internalType": "bytes32",
          "name": "previousAdminRole",
          "type": "bytes32"
        },
        {
          "indexed": true,
          "internalType": "bytes32",
          "name": "newAdminRole",
          "type": "bytes32"
        }
      ],
      "name": "RoleAdminChanged",
      "type": "event"
    },
    {
      "anonymous": false,
      "inputs": [
        {
          "indexed": true,
          "internalType": "bytes32",
          "name": "role",
          "type": "bytes32"
        },
        {
          "indexed": true,
          "internalType": "address",
          "name": "account",
          "type": "address"
        },
        {
          "indexed": true,
          "internalType": "address",
          "name": "sender",
          "type": "address"
        }
      ],
      "name": "RoleGranted",
      "type": "event"
    },
    {
      "anonymous": false,
      "inputs": [
        {
          "indexed": true,
          "internalType": "bytes32",
          "name": "role",
          "type": "bytes32"
        },
        {
          "indexed": true,
          "internalType": "address",
          "name": "account",
          "type": "address"
        },
        {
          "indexed": true,
          "internalType": "address",
          "name": "sender",
          "type": "address"
        }
      ],
      "name": "RoleRevoked",
      "type": "event"
    },
    {
      "anonymous": false,
      "inputs": [
        {
          "indexed": false,
          "internalType": "address",
          "name": "account",
          "type": "address"
        }
      ],
      "name": "Unpaused",
      "type": "event"
    },
    {
      "anonymous": false,
      "inputs": [
        {
          "indexed": true,
          "internalType": "address",
          "name": "buyer",
          "type": "address"
        },
        {
          "indexed": false,
          "internalType": "uint8",
          "name": "amount",
          "type": "uint8"
        }
      ],
      "name": "weaponMinted",
      "type": "event"
    },
    {
      "inputs": [],
      "name": "DEFAULT_ADMIN_ROLE",
      "outputs": [
        {
          "internalType": "bytes32",
          "name": "",
          "type": "bytes32"
        }
      ],
      "stateMutability": "view",
      "type": "function"
    },
    {
      "inputs": [],
      "name": "TAG",
      "outputs": [
        {
          "internalType": "contract IERC20",
          "name": "",
          "type": "address"
        }
      ],
      "stateMutability": "view",
      "type": "function"
    },
    {
      "inputs": [
        {
          "internalType": "uint8",
          "name": "",
          "type": "uint8"
        }
      ],
      "name": "bundleList",
      "outputs": [
        {
          "internalType": "uint8",
          "name": "count",
          "type": "uint8"
        },
        {
          "internalType": "uint8",
          "name": "price",
          "type": "uint8"
        }
      ],
      "stateMutability": "view",
      "type": "function"
    },
    {
      "inputs": [],
      "name": "characters",
      "outputs": [
        {
          "internalType": "contract Characters",
          "name": "",
          "type": "address"
        }
      ],
      "stateMutability": "view",
      "type": "function"
    },
    {
      "inputs": [],
      "name": "craftingItems",
      "outputs": [
        {
          "internalType": "contract CraftingItems",
          "name": "",
          "type": "address"
        }
      ],
      "stateMutability": "view",
      "type": "function"
    },
    {
      "inputs": [
        {
          "internalType": "bytes32",
          "name": "role",
          "type": "bytes32"
        }
      ],
      "name": "getRoleAdmin",
      "outputs": [
        {
          "internalType": "bytes32",
          "name": "",
          "type": "bytes32"
        }
      ],
      "stateMutability": "view",
      "type": "function"
    },
    {
      "inputs": [
        {
          "internalType": "bytes32",
          "name": "role",
          "type": "bytes32"
        },
        {
          "internalType": "uint256",
          "name": "index",
          "type": "uint256"
        }
      ],
      "name": "getRoleMember",
      "outputs": [
        {
          "internalType": "address",
          "name": "",
          "type": "address"
        }
      ],
      "stateMutability": "view",
      "type": "function"
    },
    {
      "inputs": [
        {
          "internalType": "bytes32",
          "name": "role",
          "type": "bytes32"
        }
      ],
      "name": "getRoleMemberCount",
      "outputs": [
        {
          "internalType": "uint256",
          "name": "",
          "type": "uint256"
        }
      ],
      "stateMutability": "view",
      "type": "function"
    },
    {
      "inputs": [
        {
          "internalType": "bytes32",
          "name": "role",
          "type": "bytes32"
        },
        {
          "internalType": "address",
          "name": "account",
          "type": "address"
        }
      ],
      "name": "grantRole",
      "outputs": [],
      "stateMutability": "nonpayable",
      "type": "function"
    },
    {
      "inputs": [
        {
          "internalType": "bytes32",
          "name": "role",
          "type": "bytes32"
        },
        {
          "internalType": "address",
          "name": "account",
          "type": "address"
        }
      ],
      "name": "hasRole",
      "outputs": [
        {
          "internalType": "bool",
          "name": "",
          "type": "bool"
        }
      ],
      "stateMutability": "view",
      "type": "function"
    },
    {
      "inputs": [],
      "name": "paused",
      "outputs": [
        {
          "internalType": "bool",
          "name": "",
          "type": "bool"
        }
      ],
      "stateMutability": "view",
      "type": "function"
    },
    {
      "inputs": [],
      "name": "randoms",
      "outputs": [
        {
          "internalType": "contract IRandoms",
          "name": "",
          "type": "address"
        }
      ],
      "stateMutability": "view",
      "type": "function"
    },
    {
      "inputs": [
        {
          "internalType": "bytes32",
          "name": "role",
          "type": "bytes32"
        },
        {
          "internalType": "address",
          "name": "account",
          "type": "address"
        }
      ],
      "name": "renounceRole",
      "outputs": [],
      "stateMutability": "nonpayable",
      "type": "function"
    },
    {
      "inputs": [
        {
          "internalType": "bytes32",
          "name": "role",
          "type": "bytes32"
        },
        {
          "internalType": "address",
          "name": "account",
          "type": "address"
        }
      ],
      "name": "revokeRole",
      "outputs": [],
      "stateMutability": "nonpayable",
      "type": "function"
    },
    {
      "inputs": [],
      "name": "tagPriceInUSD",
      "outputs": [
        {
          "internalType": "uint256",
          "name": "",
          "type": "uint256"
        }
      ],
      "stateMutability": "view",
      "type": "function"
    },
    {
      "inputs": [],
      "name": "weapons",
      "outputs": [
        {
          "internalType": "contract Weapons",
          "name": "",
          "type": "address"
        }
      ],
      "stateMutability": "view",
      "type": "function"
    },
    {
      "inputs": [
        {
          "internalType": "uint256",
          "name": "",
          "type": "uint256"
        }
      ],
      "name": "whitelistedCharacterIds",
      "outputs": [
        {
          "internalType": "bool",
          "name": "",
          "type": "bool"
        }
      ],
      "stateMutability": "view",
      "type": "function"
    },
    {
      "inputs": [
        {
          "internalType": "contract Characters",
          "name": "_characters",
          "type": "address"
        },
        {
          "internalType": "contract Weapons",
          "name": "_weapons",
          "type": "address"
        },
        {
          "internalType": "contract IRandoms",
          "name": "_randoms",
          "type": "address"
        },
        {
          "internalType": "address",
          "name": "_tag",
          "type": "address"
        }
      ],
      "name": "initialize",
      "outputs": [],
      "stateMutability": "nonpayable",
      "type": "function"
    },
    {
      "inputs": [
        {
          "internalType": "uint8",
          "name": "index",
          "type": "uint8"
        },
        {
          "internalType": "uint8",
          "name": "_count",
          "type": "uint8"
        },
        {
          "internalType": "uint8",
          "name": "_price",
          "type": "uint8"
        }
      ],
      "name": "setBundlePrice",
      "outputs": [],
      "stateMutability": "nonpayable",
      "type": "function"
    },
    {
      "inputs": [
        {
          "internalType": "contract CraftingItems",
          "name": "_craftingItems",
          "type": "address"
        }
      ],
      "name": "setCraftingItems",
      "outputs": [],
      "stateMutability": "nonpayable",
      "type": "function"
    },
    {
      "inputs": [
        {
          "internalType": "uint8",
          "name": "bundleType",
          "type": "uint8"
        }
      ],
      "name": "buyWeapons",
      "outputs": [],
      "stateMutability": "nonpayable",
      "type": "function"
    },
    {
      "inputs": [
        {
          "internalType": "uint8",
          "name": "bundleType",
          "type": "uint8"
        }
      ],
      "name": "buyWeaponsWithParts",
      "outputs": [],
      "stateMutability": "nonpayable",
      "type": "function"
    },
    {
      "inputs": [
        {
          "internalType": "uint256",
          "name": "amount",
          "type": "uint256"
        }
      ],
      "name": "withdrawTAG",
      "outputs": [],
      "stateMutability": "nonpayable",
      "type": "function"
    },
    {
      "inputs": [],
      "name": "getMyWeapons",
      "outputs": [
        {
          "internalType": "uint256[]",
          "name": "",
          "type": "uint256[]"
        }
      ],
      "stateMutability": "view",
      "type": "function"
    },
    {
      "inputs": [
        {
          "components": [
            {
              "internalType": "uint8",
              "name": "limit",
              "type": "uint8"
            },
            {
              "internalType": "uint256",
              "name": "pageNumber",
              "type": "uint256"
            },
            {
              "internalType": "uint8",
              "name": "element",
              "type": "uint8"
            },
            {
              "internalType": "uint8",
              "name": "quality",
              "type": "uint8"
            },
            {
              "internalType": "uint8",
              "name": "gunType",
              "type": "uint8"
            },
            {
              "internalType": "uint8",
              "name": "holographic",
              "type": "uint8"
            }
          ],
          "internalType": "struct ArmorySale.WeaponsFilter",
          "name": "filter",
          "type": "tuple"
        }
      ],
      "name": "getWeaponListingIDsPage",
      "outputs": [
        {
          "internalType": "uint256[]",
          "name": "",
          "type": "uint256[]"
        }
      ],
      "stateMutability": "view",
      "type": "function"
    },
    {
      "inputs": [
        {
          "components": [
            {
              "internalType": "uint8",
              "name": "limit",
              "type": "uint8"
            },
            {
              "internalType": "uint256",
              "name": "pageNumber",
              "type": "uint256"
            },
            {
              "internalType": "uint8",
              "name": "element",
              "type": "uint8"
            },
            {
              "internalType": "uint8",
              "name": "quality",
              "type": "uint8"
            },
            {
              "internalType": "uint8",
              "name": "gunType",
              "type": "uint8"
            },
            {
              "internalType": "uint8",
              "name": "holographic",
              "type": "uint8"
            }
          ],
          "internalType": "struct ArmorySale.WeaponsFilter",
          "name": "filter",
          "type": "tuple"
        }
      ],
      "name": "getNumberOfWeaponListings",
      "outputs": [
        {
          "internalType": "uint256",
          "name": "",
          "type": "uint256"
        }
      ],
      "stateMutability": "view",
      "type": "function"
    },
    {
      "inputs": [],
      "name": "pause",
      "outputs": [],
      "stateMutability": "nonpayable",
      "type": "function"
    },
    {
      "inputs": [],
      "name": "unpause",
      "outputs": [],
      "stateMutability": "nonpayable",
      "type": "function"
    }
  ],
  "bytecode": "0x608060405234801561001057600080fd5b506126e9806100206000396000f3fe608060405234801561001057600080fd5b50600436106101c35760003560e01c80637b3075e8116100f9578063b7e1cd8611610097578063d070bb5411610071578063d070bb541461037a578063d547741f14610382578063d680626d14610395578063f8c8765e1461039d576101c3565b8063b7e1cd8614610357578063bee666d81461035f578063ca15c87314610367576101c3565b80639010d07c116100d35780639010d07c1461031657806391d1485414610329578063a217fddf1461033c578063a537395414610344576101c3565b80637b3075e8146102e85780638456cb59146102fb57806388e8d9a914610303576101c3565b806336568abe1161016657806357e3a1d21161014057806357e3a1d21461028c57806358fbc1d3146102ad5780635c975abb146102c057806364d95258146102d5576101c3565b806336568abe1461025c5780633f4ba83a1461026f57806347221ac714610277576101c3565b80632301418a116101a25780632301418a14610219578063248a9ca31461022e5780632f2ff15d14610241578063336dfb4614610254576101c3565b80624f4650146101c857806301b32c1f146101dd5780630652b9ba146101f0575b600080fd5b6101db6101d636600461211a565b6103b0565b005b6101db6101eb366004611ed9565b610932565b6102036101fe366004611fb8565b610a60565b60405161021091906121f9565b60405180910390f35b610221610acb565b6040516102109190612269565b61022161023c366004611ed9565b610ad1565b6101db61024f366004611ef1565b610ae6565b610203610b2a565b6101db61026a366004611ef1565b610ca5565b6101db610ce7565b61027f610cf9565b604051610210919061218e565b61029f61029a36600461211a565b610d08565b60405161021092919061267b565b6101db6102bb366004611f9c565b610d26565b6102c8610d50565b604051610210919061223d565b6101db6102e3366004612136565b610d59565b6101db6102f636600461211a565b610db0565b6101db61112d565b6102c8610311366004611ed9565b61113d565b61027f610324366004611f20565b611152565b6102c8610337366004611ef1565b611179565b610221611197565b610221610352366004611fb8565b61119c565b61027f6111f0565b61027f6111ff565b610221610375366004611ed9565b61120e565b61027f611225565b6101db610390366004611ef1565b611234565b61027f61126e565b6101db6103ab366004611f41565b61127d565b6103b8610d50565b156103de5760405162461bcd60e51b81526004016103d59061245d565b60405180910390fd5b336103e88161147d565b6097546040516370a0823160e01b81526000916001600160a01b0316906370a082319061041990339060040161218e565b60206040518083038186803b15801561043157600080fd5b505afa158015610445573d6000803e3d6000fd5b505050506040513d601f19601f820116820180604052508101906104699190612102565b116104865760405162461bcd60e51b81526004016103d590612533565b609954604051630e20f61560e21b81526000916001600160a01b031690633883d854906104b790339060040161218e565b60206040518083038186803b1580156104cf57600080fd5b505afa1580156104e3573d6000803e3d6000fd5b505050506040513d601f19601f820116820180604052508101906105079190612102565b90506105116114d0565b15610694576060610520611531565b90506000805b825181101561064b57609f600084838151811061053f57fe5b60209081029190910181015182528101919091526040016000205460ff1661064357600061056d85836116a6565b60985460405163ef60e3b160e01b81529192506001600160a01b03169063ef60e3b1906105a39060019033908690600401612248565b602060405180830381600087803b1580156105bd57600080fd5b505af11580156105d1573d6000803e3d6000fd5b505050506040513d601f19601f820116820180604052508101906105f59190612102565b506001609f600086858151811061060857fe5b6020908102919091018101518252810191909152604001600020805460ff191691151591909117905561063f60ff841660016116da565b9250505b600101610526565b50336001600160a01b03167fca781710c37255bf212a02afb0f6c0d6686ed65e17dc1847a3088d1c441edda182604051610685919061266d565b60405180910390a2505061092d565b61069c611e85565b5060ff8084166000908152609e6020908152604080832081518083019092525480851682526101009004909316908301819052609c5461070c91670de0b6b3a764000091610700916106f4908463ffffffff6116ff16565b9063ffffffff61173916565b9063ffffffff6116ff16565b609a54604051636eb1769f60e11b815291925082916001600160a01b039091169063dd62ed3e9061074390339030906004016121a2565b60206040518083038186803b15801561075b57600080fd5b505afa15801561076f573d6000803e3d6000fd5b505050506040513d601f19601f820116820180604052508101906107939190612102565b10156107b15760405162461bcd60e51b81526004016103d59061239f565b609a546040516323b872dd60e01b81526001600160a01b03909116906323b872dd906107e5903390309086906004016121bc565b602060405180830381600087803b1580156107ff57600080fd5b505af1158015610813573d6000803e3d6000fd5b505050506040513d601f19601f820116820180604052508101906108379190611eb9565b5060005b826000015160ff168160ff1610156108ee57600061085c858360ff166116a6565b60985460405163ef60e3b160e01b81529192506001600160a01b03169063ef60e3b1906108929060009033908690600401612248565b602060405180830381600087803b1580156108ac57600080fd5b505af11580156108c0573d6000803e3d6000fd5b505050506040513d601f19601f820116820180604052508101906108e49190612102565b505060010161083b565b50815160405133917fca781710c37255bf212a02afb0f6c0d6686ed65e17dc1847a3088d1c441edda191610922919061266d565b60405180910390a250505b505050565b61093a61176b565b609a546040516370a0823160e01b815282916001600160a01b0316906370a082319061096a90309060040161218e565b60206040518083038186803b15801561098257600080fd5b505afa158015610996573d6000803e3d6000fd5b505050506040513d601f19601f820116820180604052508101906109ba9190612102565b10156109d85760405162461bcd60e51b81526004016103d590612642565b609a5460405163a9059cbb60e01b81526001600160a01b039091169063a9059cbb90610a0a90339085906004016121e0565b602060405180830381600087803b158015610a2457600080fd5b505af1158015610a38573d6000803e3d6000fd5b505050506040513d601f19601f82011682018060405250810190610a5c9190611eb9565b5050565b60606000610a6d8361119c565b905060008360200151600101846000015160ff16029050600081831015610aaf5760208501518551610aaa91859160ff160263ffffffff61179216565b610ab5565b845160ff165b9050610ac28583836117ba565b95945050505050565b609c5481565b60009081526033602052604090206002015490565b600082815260336020526040902060020154610b04906103376118a6565b610b205760405162461bcd60e51b81526004016103d5906122b4565b610a5c82826118aa565b6098546040516370a0823160e01b815260609182916001600160a01b03909116906370a0823190610b5f90339060040161218e565b60206040518083038186803b158015610b7757600080fd5b505afa158015610b8b573d6000803e3d6000fd5b505050506040513d601f19601f82011682018060405250810190610baf9190612102565b67ffffffffffffffff81118015610bc557600080fd5b50604051908082528060200260200182016040528015610bef578160200160208202803683370190505b50905060005b8151811015610c9f57609854604051632f745c5960e01b81526001600160a01b0390911690632f745c5990610c3090339085906004016121e0565b60206040518083038186803b158015610c4857600080fd5b505afa158015610c5c573d6000803e3d6000fd5b505050506040513d601f19601f82011682018060405250810190610c809190612102565b828281518110610c8c57fe5b6020908102919091010152600101610bf5565b50905090565b610cad6118a6565b6001600160a01b0316816001600160a01b031614610cdd5760405162461bcd60e51b81526004016103d5906125f3565b610a5c8282611919565b610cef61176b565b610cf7611988565b565b609a546001600160a01b031681565b609e6020526000908152604090205460ff8082169161010090041682565b610d2e61176b565b609b80546001600160a01b0319166001600160a01b0392909216919091179055565b60655460ff1690565b610d6161176b565b60408051808201825260ff938416815291831660208084019182529484166000908152609e909552932090518154935160ff199094169083161761ff0019166101009390921692909202179055565b610db8610d50565b15610dd55760405162461bcd60e51b81526004016103d59061245d565b33610ddf8161147d565b6097546040516370a0823160e01b81526000916001600160a01b0316906370a0823190610e1090339060040161218e565b60206040518083038186803b158015610e2857600080fd5b505afa158015610e3c573d6000803e3d6000fd5b505050506040513d601f19601f82011682018060405250810190610e609190612102565b11610e7d5760405162461bcd60e51b81526004016103d590612533565b609954604051630e20f61560e21b81526000916001600160a01b031690633883d85490610eae90339060040161218e565b60206040518083038186803b158015610ec657600080fd5b505afa158015610eda573d6000803e3d6000fd5b505050506040513d601f19601f82011682018060405250810190610efe9190612102565b9050610f08611e85565b5060ff8084166000908152609e6020908152604080832081518083019092525480851682526101009004909316908301819052609c54610f6091670de0b6b3a764000091610700916106f4908463ffffffff6116ff16565b9050610f7381600563ffffffff6116ff16565b609b5460405163e985e9c560e01b81529192506001600160a01b03169063e985e9c590610fa690339030906004016121a2565b60206040518083038186803b158015610fbe57600080fd5b505afa158015610fd2573d6000803e3d6000fd5b505050506040513d601f19601f82011682018060405250810190610ff69190611eb9565b6110125760405162461bcd60e51b81526004016103d5906125ad565b609b5460405163cbd0657b60e01b81526001600160a01b039091169063cbd0657b9061104490339085906004016121e0565b600060405180830381600087803b15801561105e57600080fd5b505af1158015611072573d6000803e3d6000fd5b506000925050505b826000015160ff168160ff1610156108ee57600061109b858360ff166116a6565b60985460405163ef60e3b160e01b81529192506001600160a01b03169063ef60e3b1906110d19060009033908690600401612248565b602060405180830381600087803b1580156110eb57600080fd5b505af11580156110ff573d6000803e3d6000fd5b505050506040513d601f19601f820116820180604052508101906111239190612102565b505060010161107a565b61113561176b565b610cf76119f6565b609f6020526000908152604090205460ff1681565b6000828152603360205260408120611170908363ffffffff611a5116565b90505b92915050565b6000828152603360205260408120611170908363ffffffff611a5d16565b600081565b600060606111a8610b2a565b90506000805b82518110156111e8576111d48382815181106111c657fe5b602002602001015186611a72565b156111e0576001909101905b6001016111ae565b509392505050565b6098546001600160a01b031681565b6099546001600160a01b031681565b600081815260336020526040812061117390611bb4565b6097546001600160a01b031681565b600082815260336020526040902060020154611252906103376118a6565b610cdd5760405162461bcd60e51b81526004016103d59061240d565b609b546001600160a01b031681565b600054610100900460ff16806112965750611296611bbf565b806112a4575060005460ff16155b6112c05760405162461bcd60e51b81526004016103d5906124a4565b600054610100900460ff161580156112eb576000805460ff1961ff0019909116610100171660011790555b6112f3611bd0565b6112fe600033610b20565b609a80546001600160a01b038085166001600160a01b0319928316179092556097805488841690831617905560998054868416908316179055609880549287169290911691909117905566071afd498d0000609c556040805180820182526001808252600a60208084018281526000808052609e80845295517fedae58bba15aea52a58242ef195db2cc4de2b75de265dbb0d58482df22a959788054935160ff90811661010090810261ff001994831660ff19978816178516179092558951808b018b52600581526028818801908152988552898752517f9f327656ac6adb1f47e9c0fa361c6ac2a34ea4898beba4721854970b7061b16d8054995183168402918316998716999099178416179097558851808a01909952948852604b88850190815260029092529590925294517fc4886b5ff611eeec2a2cedbef891edcb89b8166c281260bad3c8900b7696020980549251851690930293169416939093179091161790558015611476576000805461ff00191690555b5050505050565b6001600160a01b0381166000908152609d602052604090205443116114b45760405162461bcd60e51b81526004016103d590612487565b6001600160a01b03166000908152609d60205260409020439055565b600060606114dc611531565b90506000805b825181101561152a57609f60008483815181106114fb57fe5b60209081029190910181015182528101919091526040016000205460ff1661152257600191505b6001016114e2565b5091505090565b6097546040516370a0823160e01b815260609182916001600160a01b03909116906370a082319061156690339060040161218e565b60206040518083038186803b15801561157e57600080fd5b505afa158015611592573d6000803e3d6000fd5b505050506040513d601f19601f820116820180604052508101906115b69190612102565b67ffffffffffffffff811180156115cc57600080fd5b506040519080825280602002602001820160405280156115f6578160200160208202803683370190505b50905060005b8151811015610c9f57609754604051632f745c5960e01b81526001600160a01b0390911690632f745c599061163790339085906004016121e0565b60206040518083038186803b15801561164f57600080fd5b505afa158015611663573d6000803e3d6000fd5b505050506040513d601f19601f820116820180604052508101906116879190612102565b82828151811061169357fe5b60209081029190910101526001016115fc565b600082826040516020016116bb929190612180565b60408051601f1981840301815291905280516020909101209392505050565b6000828201838110156111705760405162461bcd60e51b81526004016103d590612331565b60008261170e57506000611173565b8282028284828161171b57fe5b04146111705760405162461bcd60e51b81526004016103d5906124f2565b600080821161175a5760405162461bcd60e51b81526004016103d5906123d6565b81838161176357fe5b049392505050565b611776600033611179565b610cf75760405162461bcd60e51b81526004016103d590612581565b6000828211156117b45760405162461bcd60e51b81526004016103d590612368565b50900390565b6060806117c5610b2a565b905060608367ffffffffffffffff811180156117e057600080fd5b5060405190808252806020026020018201604052801561180a578160200160208202803683370190505b509050600080805b84518110801561182157508783105b156118995761184385828151811061183557fe5b60200260200101518a611a72565b1561189157885160ff168803831061188a5784818151811061186157fe5b6020026020010151848360ff168151811061187857fe5b60209081029190910101526001909101905b6001909201915b600101611812565b5091979650505050505050565b3390565b60008281526033602052604090206118c8908263ffffffff611c6316565b15610a5c576118d56118a6565b6001600160a01b0316816001600160a01b0316837f2f8788117e7eff1d82e926ec794901d17c78024a50270940304540a733656f0d60405160405180910390a45050565b6000828152603360205260409020611937908263ffffffff611c7816565b15610a5c576119446118a6565b6001600160a01b0316816001600160a01b0316837ff6391f5c32d9c69d2a47ea670b442974b53935d1edc7fd64eb21e047a839171b60405160405180910390a45050565b611990610d50565b6119ac5760405162461bcd60e51b81526004016103d590612303565b6065805460ff191690557f5db9ee0a495bf2e6ff9c91a7834c1ba4fdd244a5e8aa4e537bd38aeae4b073aa6119df6118a6565b6040516119ec919061218e565b60405180910390a1565b6119fe610d50565b15611a1b5760405162461bcd60e51b81526004016103d59061245d565b6065805460ff191660011790557f62e78cea01bee320cd4e420270b5ea74000d11b0c9f74754ebdbfc544b05a2586119df6118a6565b60006111708383611c8d565b6000611170836001600160a01b038416611cd2565b609854604051634a83e9cd60e11b815260009182918291829182916001600160a01b031690639507d39a90611aab908a90600401612269565b6101006040518083038186803b158015611ac457600080fd5b505afa158015611ad8573d6000803e3d6000fd5b505050506040513d601f19601f82011682018060405250810190611afc9190612053565b975050965096509650505050600060ff90508060ff16876080015160ff161480611b2f5750866080015160ff168560ff16145b8015611b5757508060ff16876040015160ff161480611b575750866040015160ff168460ff16145b8015611b7f57508060ff16876060015160ff161480611b7f5750866060015160ff168360ff16145b8015611ba857508060ff168760a0015160ff161480611ba8575060a087015160ff161515821515145b98975050505050505050565b600061117382611cea565b6000611bca30611cee565b15905090565b600054610100900460ff1680611be95750611be9611bbf565b80611bf7575060005460ff16155b611c135760405162461bcd60e51b81526004016103d5906124a4565b600054610100900460ff16158015611c3e576000805460ff1961ff0019909116610100171660011790555b611c46611cf4565b611c4e611cf4565b8015611c60576000805461ff00191690555b50565b6000611170836001600160a01b038416611d75565b6000611170836001600160a01b038416611dbf565b81546000908210611cb05760405162461bcd60e51b81526004016103d590612272565b826000018281548110611cbf57fe5b9060005260206000200154905092915050565b60009081526001919091016020526040902054151590565b5490565b3b151590565b600054610100900460ff1680611d0d5750611d0d611bbf565b80611d1b575060005460ff16155b611d375760405162461bcd60e51b81526004016103d5906124a4565b600054610100900460ff16158015611c4e576000805460ff1961ff0019909116610100171660011790558015611c60576000805461ff001916905550565b6000611d818383611cd2565b611db757508154600181810184556000848152602080822090930184905584548482528286019093526040902091909155611173565b506000611173565b60008181526001830160205260408120548015611e7b5783546000198083019190810190600090879083908110611df257fe5b9060005260206000200154905080876000018481548110611e0f57fe5b600091825260208083209091019290925582815260018981019092526040902090840190558654879080611e3f57fe5b60019003818190600052602060002001600090559055866001016000878152602001908152602001600020600090556001945050505050611173565b6000915050611173565b604080518082019091526000808252602082015290565b805161ffff8116811461117357600080fd5b8035611173816126a4565b600060208284031215611eca578081fd5b81518015158114611170578182fd5b600060208284031215611eea578081fd5b5035919050565b60008060408385031215611f03578081fd5b823591506020830135611f158161268f565b809150509250929050565b60008060408385031215611f32578182fd5b50508035926020909101359150565b60008060008060808587031215611f56578182fd5b8435611f618161268f565b93506020850135611f718161268f565b92506040850135611f818161268f565b91506060850135611f918161268f565b939692955090935050565b600060208284031215611fad578081fd5b81356111708161268f565b600060c08284031215611fc9578081fd5b60405160c0810181811067ffffffffffffffff82111715611fe8578283fd5b6040528235611ff6816126a4565b8152602083810135908201526040830135612010816126a4565b60408201526060830135612023816126a4565b60608201526120358460808501611eae565b60808201526120478460a08501611eae565b60a08201529392505050565b600080600080600080600080610100898b03121561206f578384fd5b6120798a8a611e9c565b97506120888a60208b01611e9c565b96506040890151612098816126a4565b60608a01519096506120a9816126a4565b60808a01519095506120ba816126a4565b60a08a01519094506120cb816126a4565b60c08a01519093506120dc816126a4565b60e08a015190925080151581146120f1578182fd5b809150509295985092959890939650565b600060208284031215612113578081fd5b5051919050565b60006020828403121561212b578081fd5b8135611170816126a4565b60008060006060848603121561214a578081fd5b8335612155816126a4565b92506020840135612165816126a4565b91506040840135612175816126a4565b809150509250925092565b918252602082015260400190565b6001600160a01b0391909116815260200190565b6001600160a01b0392831681529116602082015260400190565b6001600160a01b039384168152919092166020820152604081019190915260600190565b6001600160a01b03929092168252602082015260400190565b6020808252825182820181905260009190848201906040850190845b8181101561223157835183529284019291840191600101612215565b50909695505050505050565b901515815260200190565b92151583526001600160a01b03919091166020830152604082015260600190565b90815260200190565b60208082526022908201527f456e756d657261626c655365743a20696e646578206f7574206f6620626f756e604082015261647360f01b606082015260800190565b6020808252602f908201527f416363657373436f6e74726f6c3a2073656e646572206d75737420626520616e60408201526e0818591b5a5b881d1bc819dc985b9d608a1b606082015260800190565b60208082526014908201527314185d5cd8589b194e881b9bdd081c185d5cd95960621b604082015260600190565b6020808252601b908201527f536166654d6174683a206164646974696f6e206f766572666c6f770000000000604082015260600190565b6020808252601e908201527f536166654d6174683a207375627472616374696f6e206f766572666c6f770000604082015260600190565b60208082526018908201527f4e6f7420656e6f7567682054414720616c6c6f77616e63650000000000000000604082015260600190565b6020808252601a908201527f536166654d6174683a206469766973696f6e206279207a65726f000000000000604082015260600190565b60208082526030908201527f416363657373436f6e74726f6c3a2073656e646572206d75737420626520616e60408201526f2061646d696e20746f207265766f6b6560801b606082015260800190565b60208082526010908201526f14185d5cd8589b194e881c185d5cd95960821b604082015260600190565b6020808252600390820152624f435360e81b604082015260600190565b6020808252602e908201527f496e697469616c697a61626c653a20636f6e747261637420697320616c72656160408201526d191e481a5b9a5d1a585b1a5e995960921b606082015260800190565b60208082526021908201527f536166654d6174683a206d756c7469706c69636174696f6e206f766572666c6f6040820152607760f81b606082015260800190565b6020808252602e908201527f506c6561736520627579206f70657261746f727320746f206d696e7420796f7560408201526d72206672656520776561706f6e7360901b606082015260800190565b60208082526012908201527120b236b4b7103937b632903732b2b232b21760711b604082015260600190565b60208082526026908201527f417070726f76616c206e6565646564206265666f72652073616c766167696e6760408201526520504152547360d01b606082015260800190565b6020808252602f908201527f416363657373436f6e74726f6c3a2063616e206f6e6c792072656e6f756e636560408201526e103937b632b9903337b91039b2b63360891b606082015260800190565b602080825260119082015270139bdd08195b9bdd59da08185b5bdd5b9d607a1b604082015260600190565b60ff91909116815260200190565b60ff92831681529116602082015260400190565b6001600160a01b0381168114611c6057600080fd5b60ff81168114611c6057600080fdfea264697066735822122019e5bab137fa98364b2752b6dc472c80f282e22ea8e46f804c58cdb2d81a898b64736f6c63430006050033",
  "immutableReferences": {},
  "source": "// SPDX-License-Identifier: MIT\npragma solidity ^0.6.0;\npragma experimental ABIEncoderV2;\n\nimport '@openzeppelin/contracts-upgradeable/proxy/Initializable.sol';\nimport '@openzeppelin/contracts-upgradeable/access/AccessControlUpgradeable.sol';\nimport '@openzeppelin/contracts-upgradeable/utils/PausableUpgradeable.sol';\nimport '@openzeppelin/contracts/math/SafeMath.sol';\nimport '@openzeppelin/contracts/token/ERC20/IERC20.sol';\nimport '@openzeppelin/contracts-upgradeable/token/ERC20/SafeERC20Upgradeable.sol';\nimport './characters.sol';\nimport './weapons.sol';\nimport './interfaces/IRandoms.sol';\nimport './CraftingItems.sol';\n\ncontract ArmorySale is Initializable, AccessControlUpgradeable, PausableUpgradeable {\n    using SafeMath for uint8;\n    using SafeMath for uint256;\n    using SafeERC20Upgradeable for IERC20;\n\n    struct Bundle {\n        uint8 count;\n        uint8 price;\n    }\n\n    struct WeaponsFilter {\n        uint8 limit;\n        uint256 pageNumber;\n        uint8 element;\n        uint8 quality;\n        uint8 gunType;\n        uint8 holographic;\n    }\n\n    Characters public characters;\n    Weapons public weapons;\n    IRandoms public randoms;\n    IERC20 public TAG;\n    CraftingItems public craftingItems;\n\n    function initialize(\n        Characters _characters,\n        Weapons _weapons,\n        IRandoms _randoms,\n        address _tag\n    ) public initializer {\n        __AccessControl_init();\n\n        _setupRole(DEFAULT_ADMIN_ROLE, msg.sender);\n\n        TAG = IERC20(_tag);\n\n        characters = _characters;\n        randoms = _randoms;\n        weapons = _weapons;\n\n        tagPriceInUSD = 2000000000000000;\n        bundleList[0] = Bundle({count: 1, price: 10});\n        bundleList[1] = Bundle({count: 5, price: 40});\n        bundleList[2] = Bundle({count: 10, price: 75});\n    }\n\n    uint256 public tagPriceInUSD;\n    mapping(address => uint256) lastBlockNumberCalled;\n    mapping(uint8 => Bundle) public bundleList;\n    mapping(uint256 => bool) public whitelistedCharacterIds;\n\n    event weaponMinted(address indexed buyer, uint8 amount);\n\n    function setBundlePrice(\n        uint8 index,\n        uint8 _count,\n        uint8 _price\n    ) external onlyOwner {\n        bundleList[index] = Bundle({count: _count, price: _price});\n    }\n\n    function setCraftingItems(CraftingItems _craftingItems) external onlyOwner {\n        craftingItems = _craftingItems;\n    }\n\n    function buyWeapons(uint8 bundleType)\n        public\n        whenNotPaused\n        // onlyNonContract\n        oncePerBlock(msg.sender)\n    {\n        require(characters.balanceOf(msg.sender) > 0, 'Please buy operators to mint your free weapons');\n        uint256 baseSeed = randoms.getRandomSeed(msg.sender);\n\n        // free weapons -- called only first time\n        if (checkIfFreeWeaponsLeft()) {\n            uint256[] memory characterIds = getMyCharacters();\n            uint8 count;\n            for (uint256 i = 0; i < characterIds.length; i++) {\n                if (!whitelistedCharacterIds[characterIds[i]]) {\n                    uint256 indexSeed = RandomUtil.combineSeeds(baseSeed, i);\n                    weapons.mint(true, msg.sender, indexSeed);\n                    whitelistedCharacterIds[characterIds[i]] = true; // whitelisted the character id\n                    count = uint8(count.add(1));\n                }\n            }\n            emit weaponMinted(msg.sender, count);\n        } else {\n            Bundle memory b = bundleList[bundleType];\n            uint256 sellPrice = (b.price.mul(10**18)).div(tagPriceInUSD).mul(10**18);\n            require(TAG.allowance(msg.sender, address(this)) >= sellPrice, 'Not enough TAG allowance');\n\n            // get tags\n            TAG.transferFrom(msg.sender, address(this), sellPrice);\n\n            // mint X amount of weapons\n            for (uint8 i = 0; i < b.count; i++) {\n                uint256 indexSeed = RandomUtil.combineSeeds(baseSeed, uint256(i));\n                weapons.mint(false, msg.sender, indexSeed);\n            }\n            emit weaponMinted(msg.sender, b.count);\n        }\n    }\n\n    function buyWeaponsWithParts(uint8 bundleType)\n        public\n        whenNotPaused\n        oncePerBlock(msg.sender)\n    {\n        require(characters.balanceOf(msg.sender) > 0, 'Please buy operators to mint your free weapons');\n        uint256 baseSeed = randoms.getRandomSeed(msg.sender);\n\n        Bundle memory bundle = bundleList[bundleType];\n        uint256 sellPrice = (bundle.price.mul(10**18)).div(tagPriceInUSD).mul(10**18);\n        sellPrice = sellPrice.mul(5);\n        require(craftingItems.isApprovedForAll(msg.sender, address(this)), 'Approval needed before salvaging PARTs');\n\n        // burn PARTs\n        craftingItems.burnParts(msg.sender, sellPrice);\n\n        // mint X amount of weapons\n        for (uint8 i = 0; i < bundle.count; i++) {\n            uint256 indexSeed = RandomUtil.combineSeeds(baseSeed, uint256(i));\n            weapons.mint(false, msg.sender, indexSeed);\n        }\n        emit weaponMinted(msg.sender, bundle.count);\n    }\n\n    function withdrawTAG(uint256 amount) public onlyOwner {\n        require(TAG.balanceOf(address(this)) >= amount, 'Not enough amount');\n        TAG.transfer(msg.sender, amount);\n    }\n\n    function getMyWeapons() public view returns (uint256[] memory) {\n        uint256[] memory tokens = new uint256[](weapons.balanceOf(msg.sender));\n        for (uint256 i = 0; i < tokens.length; i++) {\n            tokens[i] = weapons.tokenOfOwnerByIndex(msg.sender, i);\n        }\n        return tokens;\n    }\n\n    function getMyCharacters() private view returns (uint256[] memory) {\n        uint256[] memory tokens = new uint256[](characters.balanceOf(msg.sender));\n        for (uint256 i = 0; i < tokens.length; i++) {\n            tokens[i] = characters.tokenOfOwnerByIndex(msg.sender, i);\n        }\n        return tokens;\n    }\n\n    function checkIfFreeWeaponsLeft() private view returns (bool) {\n        uint256[] memory characterIds = getMyCharacters();\n        bool stillLeft;\n        for (uint256 i = 0; i < characterIds.length; i++) {\n            if (!whitelistedCharacterIds[characterIds[i]]) {\n                stillLeft = true;\n            }\n        }\n        return stillLeft;\n    }\n\n    function getWeaponListingIDsPage(WeaponsFilter memory filter) public view returns (uint256[] memory) {\n        uint256 matchingWeaponsAmount = getNumberOfWeaponListings(filter);\n        uint256 pageEnd = filter.limit * (filter.pageNumber + 1);\n        uint256 tokensSize = matchingWeaponsAmount >= pageEnd\n            ? filter.limit\n            : matchingWeaponsAmount.sub(filter.limit * filter.pageNumber);\n\n        return _getWeaponListingIDsPage(filter, pageEnd, tokensSize);\n    }\n\n    function _getWeaponListingIDsPage(\n        WeaponsFilter memory filter,\n        uint256 pageEnd,\n        uint256 tokensSize\n    ) internal view returns (uint256[] memory) {\n        uint256[] memory userWeapons = getMyWeapons();\n        uint256[] memory tokens = new uint256[](tokensSize);\n        uint256 counter = 0;\n        uint8 tokenIterator = 0;\n\n        for (uint256 i = 0; i < userWeapons.length && counter < pageEnd; i++) {\n            if (_weaponPassesFilter(userWeapons[i], filter)) {\n                if (counter >= pageEnd - filter.limit) {\n                    tokens[tokenIterator] = userWeapons[i];\n                    tokenIterator++;\n                }\n                counter++;\n            }\n        }\n\n        return tokens;\n    }\n\n    function getNumberOfWeaponListings(WeaponsFilter memory filter) public view returns (uint256) {\n        uint256[] memory userWeapons = getMyWeapons();\n        uint256 counter = 0;\n\n        for (uint256 i = 0; i < userWeapons.length; i++) {\n            if (_weaponPassesFilter(userWeapons[i], filter)) {\n                counter++;\n            }\n        }\n        return counter;\n    }\n\n    function _weaponPassesFilter(uint256 weaponId, WeaponsFilter memory filter) internal view returns (bool) {\n        (, , , uint8 gunType, uint8 element, uint8 quality, , bool holographic) = weapons.get(weaponId);\n\n        uint8 noFilter = 255;\n\n        return\n            (filter.gunType == noFilter || gunType == filter.gunType) &&\n            (filter.element == noFilter || element == filter.element) &&\n            (filter.quality == noFilter || quality == filter.quality) &&\n            (filter.holographic == noFilter || holographic == (filter.holographic != 0));\n    }\n\n    function pause() external onlyOwner {\n        _pause();\n    }\n\n    function unpause() external onlyOwner {\n        _unpause();\n    }\n\n    function _onlyOwner() internal view {\n        require(hasRole(DEFAULT_ADMIN_ROLE, msg.sender), 'Admin role needed.');\n    }\n\n    function _oncePerBlock(address user) internal {\n        require(lastBlockNumberCalled[user] < block.number, 'OCS');\n        lastBlockNumberCalled[user] = block.number;\n    }\n\n    function _onlyNonContract() internal view {\n        require(tx.origin == msg.sender);\n    }\n\n    modifier oncePerBlock(address user) {\n        _oncePerBlock(user);\n        _;\n    }\n\n    modifier onlyOwner() {\n        _onlyOwner();\n        _;\n    }\n\n    modifier onlyNonContract() {\n        _onlyNonContract();\n        _;\n    }\n}\n",
  "sourcePath": "/Users/school/dev/ciphershooters/contracts/ArmorySale.sol",
  "compiler": {
    "name": "solc",
    "version": "0.6.5+commit.f956cc89.Emscripten.clang"
  },
  "schemaVersion": "3.4.6",
  "updatedAt": "2022-06-04T16:14:57.556Z",
  "devdoc": {
    "methods": {
      "getRoleAdmin(bytes32)": {
        "details": "Returns the admin role that controls `role`. See {grantRole} and {revokeRole}.     * To change a role's admin, use {_setRoleAdmin}."
      },
      "getRoleMember(bytes32,uint256)": {
        "details": "Returns one of the accounts that have `role`. `index` must be a value between 0 and {getRoleMemberCount}, non-inclusive.     * Role bearers are not sorted in any particular way, and their ordering may change at any point.     * WARNING: When using {getRoleMember} and {getRoleMemberCount}, make sure you perform all queries on the same block. See the following https://forum.openzeppelin.com/t/iterating-over-elements-on-enumerableset-in-openzeppelin-contracts/2296[forum post] for more information."
      },
      "getRoleMemberCount(bytes32)": {
        "details": "Returns the number of accounts that have `role`. Can be used together with {getRoleMember} to enumerate all bearers of a role."
      },
      "grantRole(bytes32,address)": {
        "details": "Grants `role` to `account`.     * If `account` had not been already granted `role`, emits a {RoleGranted} event.     * Requirements:     * - the caller must have ``role``'s admin role."
      },
      "hasRole(bytes32,address)": {
        "details": "Returns `true` if `account` has been granted `role`."
      },
      "paused()": {
        "details": "Returns true if the contract is paused, and false otherwise."
      },
      "renounceRole(bytes32,address)": {
        "details": "Revokes `role` from the calling account.     * Roles are often managed via {grantRole} and {revokeRole}: this function's purpose is to provide a mechanism for accounts to lose their privileges if they are compromised (such as when a trusted device is misplaced).     * If the calling account had been granted `role`, emits a {RoleRevoked} event.     * Requirements:     * - the caller must be `account`."
      },
      "revokeRole(bytes32,address)": {
        "details": "Revokes `role` from `account`.     * If `account` had been granted `role`, emits a {RoleRevoked} event.     * Requirements:     * - the caller must have ``role``'s admin role."
      }
    }
  },
  "userdoc": {
    "methods": {}
  }
}