{
  "contractName": "BasicPriceOracle",
  "abi": [
    {
      "anonymous": false,
      "inputs": [
        {
          "indexed": false,
          "internalType": "uint256",
          "name": "currentPrice",
          "type": "uint256"
        }
      ],
      "name": "CurrentPriceUpdated",
      "type": "event"
    },
    {
      "anonymous": false,
      "inputs": [
        {
          "indexed": true,
          "internalType": "bytes32",
          "name": "role",
          "type": "bytes32"
        },
        {
          "indexed": true,
          "internalType": "bytes32",
          "name": "previousAdminRole",
          "type": "bytes32"
        },
        {
          "indexed": true,
          "internalType": "bytes32",
          "name": "newAdminRole",
          "type": "bytes32"
        }
      ],
      "name": "RoleAdminChanged",
      "type": "event"
    },
    {
      "anonymous": false,
      "inputs": [
        {
          "indexed": true,
          "internalType": "bytes32",
          "name": "role",
          "type": "bytes32"
        },
        {
          "indexed": true,
          "internalType": "address",
          "name": "account",
          "type": "address"
        },
        {
          "indexed": true,
          "internalType": "address",
          "name": "sender",
          "type": "address"
        }
      ],
      "name": "RoleGranted",
      "type": "event"
    },
    {
      "anonymous": false,
      "inputs": [
        {
          "indexed": true,
          "internalType": "bytes32",
          "name": "role",
          "type": "bytes32"
        },
        {
          "indexed": true,
          "internalType": "address",
          "name": "account",
          "type": "address"
        },
        {
          "indexed": true,
          "internalType": "address",
          "name": "sender",
          "type": "address"
        }
      ],
      "name": "RoleRevoked",
      "type": "event"
    },
    {
      "inputs": [],
      "name": "DEFAULT_ADMIN_ROLE",
      "outputs": [
        {
          "internalType": "bytes32",
          "name": "",
          "type": "bytes32"
        }
      ],
      "stateMutability": "view",
      "type": "function"
    },
    {
      "inputs": [],
      "name": "PRICE_UPDATER",
      "outputs": [
        {
          "internalType": "bytes32",
          "name": "",
          "type": "bytes32"
        }
      ],
      "stateMutability": "view",
      "type": "function"
    },
    {
      "inputs": [
        {
          "internalType": "bytes32",
          "name": "role",
          "type": "bytes32"
        }
      ],
      "name": "getRoleAdmin",
      "outputs": [
        {
          "internalType": "bytes32",
          "name": "",
          "type": "bytes32"
        }
      ],
      "stateMutability": "view",
      "type": "function"
    },
    {
      "inputs": [
        {
          "internalType": "bytes32",
          "name": "role",
          "type": "bytes32"
        },
        {
          "internalType": "uint256",
          "name": "index",
          "type": "uint256"
        }
      ],
      "name": "getRoleMember",
      "outputs": [
        {
          "internalType": "address",
          "name": "",
          "type": "address"
        }
      ],
      "stateMutability": "view",
      "type": "function"
    },
    {
      "inputs": [
        {
          "internalType": "bytes32",
          "name": "role",
          "type": "bytes32"
        }
      ],
      "name": "getRoleMemberCount",
      "outputs": [
        {
          "internalType": "uint256",
          "name": "",
          "type": "uint256"
        }
      ],
      "stateMutability": "view",
      "type": "function"
    },
    {
      "inputs": [
        {
          "internalType": "bytes32",
          "name": "role",
          "type": "bytes32"
        },
        {
          "internalType": "address",
          "name": "account",
          "type": "address"
        }
      ],
      "name": "grantRole",
      "outputs": [],
      "stateMutability": "nonpayable",
      "type": "function"
    },
    {
      "inputs": [
        {
          "internalType": "bytes32",
          "name": "role",
          "type": "bytes32"
        },
        {
          "internalType": "address",
          "name": "account",
          "type": "address"
        }
      ],
      "name": "hasRole",
      "outputs": [
        {
          "internalType": "bool",
          "name": "",
          "type": "bool"
        }
      ],
      "stateMutability": "view",
      "type": "function"
    },
    {
      "inputs": [
        {
          "internalType": "bytes32",
          "name": "role",
          "type": "bytes32"
        },
        {
          "internalType": "address",
          "name": "account",
          "type": "address"
        }
      ],
      "name": "renounceRole",
      "outputs": [],
      "stateMutability": "nonpayable",
      "type": "function"
    },
    {
      "inputs": [
        {
          "internalType": "bytes32",
          "name": "role",
          "type": "bytes32"
        },
        {
          "internalType": "address",
          "name": "account",
          "type": "address"
        }
      ],
      "name": "revokeRole",
      "outputs": [],
      "stateMutability": "nonpayable",
      "type": "function"
    },
    {
      "inputs": [],
      "name": "initialize",
      "outputs": [],
      "stateMutability": "nonpayable",
      "type": "function"
    },
    {
      "inputs": [],
      "name": "currentPrice",
      "outputs": [
        {
          "internalType": "uint256",
          "name": "",
          "type": "uint256"
        }
      ],
      "stateMutability": "view",
      "type": "function"
    },
    {
      "inputs": [
        {
          "internalType": "uint256",
          "name": "_currentPrice",
          "type": "uint256"
        }
      ],
      "name": "setCurrentPrice",
      "outputs": [],
      "stateMutability": "nonpayable",
      "type": "function"
    }
  ],
  "bytecode": "0x608060405234801561001057600080fd5b50610bbb806100206000396000f3fe608060405234801561001057600080fd5b50600436106100b45760003560e01c806391d148541161007157806391d14854146101a65780639d1b464a146101e6578063a217fddf146101ee578063ca15c873146101f6578063d547741f14610213578063e1f84a361461023f576100b4565b806318b20071146100b9578063248a9ca3146100d85780632f2ff15d1461010757806336568abe146101335780638129fc1c1461015f5780639010d07c14610167575b600080fd5b6100d6600480360360208110156100cf57600080fd5b5035610247565b005b6100f5600480360360208110156100ee57600080fd5b5035610361565b60408051918252519081900360200190f35b6100d66004803603604081101561011d57600080fd5b50803590602001356001600160a01b0316610376565b6100d66004803603604081101561014957600080fd5b50803590602001356001600160a01b03166103dd565b6100d661043e565b61018a6004803603604081101561017d57600080fd5b5080359060200135610537565b604080516001600160a01b039092168252519081900360200190f35b6101d2600480360360408110156101bc57600080fd5b50803590602001356001600160a01b031661055e565b604080519115158252519081900360200190f35b6100f561057c565b6100f56105dd565b6100f56004803603602081101561020c57600080fd5b50356105e2565b6100d66004803603604081101561022957600080fd5b50803590602001356001600160a01b03166105f9565b6100f5610652565b604080516c282924a1a2afaaa82220aa22a960991b8152905190819003600d01902061027a90610275610677565b61055e565b6102cb576040805162461bcd60e51b815260206004820152601a60248201527f4d697373696e672050524943455f5550444154455220726f6c65000000000000604482015290519081900360640190fd5b60008111610319576040805162461bcd60e51b81526020600482015260166024820152755072696365206d757374206265206e6f6e2d7a65726f60501b604482015290519081900360640190fd5b6065805460ff1916600117905560668190556040805182815290517fcfebfed7291191489847e6abdd482d8816f6f32efecf69fc66c91631a2f217f99181900360200190a150565b60009081526033602052604090206002015490565b60008281526033602052604090206002015461039490610275610677565b6103cf5760405162461bcd60e51b815260040180806020018281038252602f815260200180610aca602f913960400191505060405180910390fd5b6103d9828261067b565b5050565b6103e5610677565b6001600160a01b0316816001600160a01b0316146104345760405162461bcd60e51b815260040180806020018281038252602f815260200180610b57602f913960400191505060405180910390fd5b6103d982826106ea565b600054610100900460ff16806104575750610457610759565b80610465575060005460ff16155b6104a05760405162461bcd60e51b815260040180806020018281038252602e815260200180610b29602e913960400191505060405180910390fd5b600054610100900460ff161580156104cb576000805460ff1961ff0019909116610100171660011790555b6104d361076a565b6104e560006104e0610677565b6103cf565b604080516c282924a1a2afaaa82220aa22a960991b8152905190819003600d019020610513906104e0610677565b6065805460ff1916905560006066558015610534576000805461ff00191690555b50565b6000828152603360205260408120610555908363ffffffff61081b16565b90505b92915050565b6000828152603360205260408120610555908363ffffffff61082716565b60655460009060ff166105d6576040805162461bcd60e51b815260206004820152601c60248201527f5072696365206d75737420626520736574206265666f726568616e6400000000604482015290519081900360640190fd5b5060665490565b600081565b60008181526033602052604081206105589061083c565b60008281526033602052604090206002015461061790610275610677565b6104345760405162461bcd60e51b8152600401808060200182810382526030815260200180610af96030913960400191505060405180910390fd5b604080516c282924a1a2afaaa82220aa22a960991b8152905190819003600d01902081565b3390565b6000828152603360205260409020610699908263ffffffff61084716565b156103d9576106a6610677565b6001600160a01b0316816001600160a01b0316837f2f8788117e7eff1d82e926ec794901d17c78024a50270940304540a733656f0d60405160405180910390a45050565b6000828152603360205260409020610708908263ffffffff61085c16565b156103d957610715610677565b6001600160a01b0316816001600160a01b0316837ff6391f5c32d9c69d2a47ea670b442974b53935d1edc7fd64eb21e047a839171b60405160405180910390a45050565b600061076430610871565b15905090565b600054610100900460ff16806107835750610783610759565b80610791575060005460ff16155b6107cc5760405162461bcd60e51b815260040180806020018281038252602e815260200180610b29602e913960400191505060405180910390fd5b600054610100900460ff161580156107f7576000805460ff1961ff0019909116610100171660011790555b6107ff610877565b610807610877565b8015610534576000805461ff001916905550565b60006105558383610917565b6000610555836001600160a01b03841661097b565b600061055882610993565b6000610555836001600160a01b038416610997565b6000610555836001600160a01b0384166109e1565b3b151590565b600054610100900460ff16806108905750610890610759565b8061089e575060005460ff16155b6108d95760405162461bcd60e51b815260040180806020018281038252602e815260200180610b29602e913960400191505060405180910390fd5b600054610100900460ff16158015610807576000805460ff1961ff0019909116610100171660011790558015610534576000805461ff001916905550565b815460009082106109595760405162461bcd60e51b8152600401808060200182810382526022815260200180610aa86022913960400191505060405180910390fd5b82600001828154811061096857fe5b9060005260206000200154905092915050565b60009081526001919091016020526040902054151590565b5490565b60006109a3838361097b565b6109d957508154600181810184556000848152602080822090930184905584548482528286019093526040902091909155610558565b506000610558565b60008181526001830160205260408120548015610a9d5783546000198083019190810190600090879083908110610a1457fe5b9060005260206000200154905080876000018481548110610a3157fe5b600091825260208083209091019290925582815260018981019092526040902090840190558654879080610a6157fe5b60019003818190600052602060002001600090559055866001016000878152602001908152602001600020600090556001945050505050610558565b600091505061055856fe456e756d657261626c655365743a20696e646578206f7574206f6620626f756e6473416363657373436f6e74726f6c3a2073656e646572206d75737420626520616e2061646d696e20746f206772616e74416363657373436f6e74726f6c3a2073656e646572206d75737420626520616e2061646d696e20746f207265766f6b65496e697469616c697a61626c653a20636f6e747261637420697320616c726561647920696e697469616c697a6564416363657373436f6e74726f6c3a2063616e206f6e6c792072656e6f756e636520726f6c657320666f722073656c66a2646970667358221220e8e7e36d4ec48f5a13a1071cf344d36b7d0b3e9656313dc31aacbb3c9079ce8364736f6c63430006050033",
  "immutableReferences": {},
  "source": "// SPDX-License-Identifier: MIT\npragma solidity ^0.6.5;\n\nimport \"@openzeppelin/contracts-upgradeable/proxy/Initializable.sol\";\nimport \"@openzeppelin/contracts-upgradeable/access/AccessControlUpgradeable.sol\";\nimport \"./interfaces/IPriceOracle.sol\";\n\ncontract BasicPriceOracle is IPriceOracle, Initializable, AccessControlUpgradeable {\n    bytes32 public constant PRICE_UPDATER = keccak256(\"PRICE_UPDATER\");\n\n    bool private priceSet;\n    uint256 private currentPrice_;\n\n    function initialize() public initializer {\n        __AccessControl_init();\n\n        _setupRole(DEFAULT_ADMIN_ROLE, _msgSender());\n        _setupRole(PRICE_UPDATER, _msgSender());\n\n        priceSet = false;\n        currentPrice_ = 0;\n    }\n\n    // Views\n    function currentPrice() external override view returns (uint256) {\n        require(priceSet, \"Price must be set beforehand\");\n        return currentPrice_;\n    }\n\n    // Mutative\n    function setCurrentPrice(uint256 _currentPrice) external override {\n        require(hasRole(PRICE_UPDATER, _msgSender()), \"Missing PRICE_UPDATER role\");\n        require(_currentPrice > 0, \"Price must be non-zero\");\n\n        priceSet = true;\n        currentPrice_ = _currentPrice;\n\n        emit CurrentPriceUpdated(_currentPrice);\n    }\n\n    // Events\n    event CurrentPriceUpdated(uint256 currentPrice);\n}\n",
  "sourcePath": "/Users/school/dev/ciphershooters/contracts/BasicPriceOracle.sol",
  "compiler": {
    "name": "solc",
    "version": "0.6.5+commit.f956cc89.Emscripten.clang"
  },
  "schemaVersion": "3.4.6",
  "updatedAt": "2022-06-04T16:14:57.569Z",
  "devdoc": {
    "methods": {
      "getRoleAdmin(bytes32)": {
        "details": "Returns the admin role that controls `role`. See {grantRole} and {revokeRole}.     * To change a role's admin, use {_setRoleAdmin}."
      },
      "getRoleMember(bytes32,uint256)": {
        "details": "Returns one of the accounts that have `role`. `index` must be a value between 0 and {getRoleMemberCount}, non-inclusive.     * Role bearers are not sorted in any particular way, and their ordering may change at any point.     * WARNING: When using {getRoleMember} and {getRoleMemberCount}, make sure you perform all queries on the same block. See the following https://forum.openzeppelin.com/t/iterating-over-elements-on-enumerableset-in-openzeppelin-contracts/2296[forum post] for more information."
      },
      "getRoleMemberCount(bytes32)": {
        "details": "Returns the number of accounts that have `role`. Can be used together with {getRoleMember} to enumerate all bearers of a role."
      },
      "grantRole(bytes32,address)": {
        "details": "Grants `role` to `account`.     * If `account` had not been already granted `role`, emits a {RoleGranted} event.     * Requirements:     * - the caller must have ``role``'s admin role."
      },
      "hasRole(bytes32,address)": {
        "details": "Returns `true` if `account` has been granted `role`."
      },
      "renounceRole(bytes32,address)": {
        "details": "Revokes `role` from the calling account.     * Roles are often managed via {grantRole} and {revokeRole}: this function's purpose is to provide a mechanism for accounts to lose their privileges if they are compromised (such as when a trusted device is misplaced).     * If the calling account had been granted `role`, emits a {RoleRevoked} event.     * Requirements:     * - the caller must be `account`."
      },
      "revokeRole(bytes32,address)": {
        "details": "Revokes `role` from `account`.     * If `account` had been granted `role`, emits a {RoleRevoked} event.     * Requirements:     * - the caller must have ``role``'s admin role."
      }
    }
  },
  "userdoc": {
    "methods": {}
  }
}