{
  "contractName": "ChainlinkRandoms",
  "abi": [
    {
      "inputs": [
        {
          "internalType": "address",
          "name": "_vrfCoordinator",
          "type": "address"
        },
        {
          "internalType": "address",
          "name": "_link",
          "type": "address"
        },
        {
          "internalType": "bytes32",
          "name": "_keyHash",
          "type": "bytes32"
        },
        {
          "internalType": "uint256",
          "name": "_fee",
          "type": "uint256"
        }
      ],
      "stateMutability": "nonpayable",
      "type": "constructor"
    },
    {
      "anonymous": false,
      "inputs": [
        {
          "indexed": false,
          "internalType": "address",
          "name": "account",
          "type": "address"
        }
      ],
      "name": "Paused",
      "type": "event"
    },
    {
      "anonymous": false,
      "inputs": [
        {
          "indexed": true,
          "internalType": "bytes32",
          "name": "role",
          "type": "bytes32"
        },
        {
          "indexed": true,
          "internalType": "bytes32",
          "name": "previousAdminRole",
          "type": "bytes32"
        },
        {
          "indexed": true,
          "internalType": "bytes32",
          "name": "newAdminRole",
          "type": "bytes32"
        }
      ],
      "name": "RoleAdminChanged",
      "type": "event"
    },
    {
      "anonymous": false,
      "inputs": [
        {
          "indexed": true,
          "internalType": "bytes32",
          "name": "role",
          "type": "bytes32"
        },
        {
          "indexed": true,
          "internalType": "address",
          "name": "account",
          "type": "address"
        },
        {
          "indexed": true,
          "internalType": "address",
          "name": "sender",
          "type": "address"
        }
      ],
      "name": "RoleGranted",
      "type": "event"
    },
    {
      "anonymous": false,
      "inputs": [
        {
          "indexed": true,
          "internalType": "bytes32",
          "name": "role",
          "type": "bytes32"
        },
        {
          "indexed": true,
          "internalType": "address",
          "name": "account",
          "type": "address"
        },
        {
          "indexed": true,
          "internalType": "address",
          "name": "sender",
          "type": "address"
        }
      ],
      "name": "RoleRevoked",
      "type": "event"
    },
    {
      "anonymous": false,
      "inputs": [
        {
          "indexed": false,
          "internalType": "address",
          "name": "account",
          "type": "address"
        }
      ],
      "name": "Unpaused",
      "type": "event"
    },
    {
      "inputs": [],
      "name": "DEFAULT_ADMIN_ROLE",
      "outputs": [
        {
          "internalType": "bytes32",
          "name": "",
          "type": "bytes32"
        }
      ],
      "stateMutability": "view",
      "type": "function"
    },
    {
      "inputs": [],
      "name": "RANDOMNESS_REQUESTER",
      "outputs": [
        {
          "internalType": "bytes32",
          "name": "",
          "type": "bytes32"
        }
      ],
      "stateMutability": "view",
      "type": "function"
    },
    {
      "inputs": [
        {
          "internalType": "bytes32",
          "name": "role",
          "type": "bytes32"
        }
      ],
      "name": "getRoleAdmin",
      "outputs": [
        {
          "internalType": "bytes32",
          "name": "",
          "type": "bytes32"
        }
      ],
      "stateMutability": "view",
      "type": "function"
    },
    {
      "inputs": [
        {
          "internalType": "bytes32",
          "name": "role",
          "type": "bytes32"
        },
        {
          "internalType": "uint256",
          "name": "index",
          "type": "uint256"
        }
      ],
      "name": "getRoleMember",
      "outputs": [
        {
          "internalType": "address",
          "name": "",
          "type": "address"
        }
      ],
      "stateMutability": "view",
      "type": "function"
    },
    {
      "inputs": [
        {
          "internalType": "bytes32",
          "name": "role",
          "type": "bytes32"
        }
      ],
      "name": "getRoleMemberCount",
      "outputs": [
        {
          "internalType": "uint256",
          "name": "",
          "type": "uint256"
        }
      ],
      "stateMutability": "view",
      "type": "function"
    },
    {
      "inputs": [
        {
          "internalType": "bytes32",
          "name": "role",
          "type": "bytes32"
        },
        {
          "internalType": "address",
          "name": "account",
          "type": "address"
        }
      ],
      "name": "grantRole",
      "outputs": [],
      "stateMutability": "nonpayable",
      "type": "function"
    },
    {
      "inputs": [
        {
          "internalType": "bytes32",
          "name": "role",
          "type": "bytes32"
        },
        {
          "internalType": "address",
          "name": "account",
          "type": "address"
        }
      ],
      "name": "hasRole",
      "outputs": [
        {
          "internalType": "bool",
          "name": "",
          "type": "bool"
        }
      ],
      "stateMutability": "view",
      "type": "function"
    },
    {
      "inputs": [],
      "name": "paused",
      "outputs": [
        {
          "internalType": "bool",
          "name": "",
          "type": "bool"
        }
      ],
      "stateMutability": "view",
      "type": "function"
    },
    {
      "inputs": [
        {
          "internalType": "bytes32",
          "name": "requestId",
          "type": "bytes32"
        },
        {
          "internalType": "uint256",
          "name": "randomness",
          "type": "uint256"
        }
      ],
      "name": "rawFulfillRandomness",
      "outputs": [],
      "stateMutability": "nonpayable",
      "type": "function"
    },
    {
      "inputs": [
        {
          "internalType": "bytes32",
          "name": "role",
          "type": "bytes32"
        },
        {
          "internalType": "address",
          "name": "account",
          "type": "address"
        }
      ],
      "name": "renounceRole",
      "outputs": [],
      "stateMutability": "nonpayable",
      "type": "function"
    },
    {
      "inputs": [
        {
          "internalType": "bytes32",
          "name": "role",
          "type": "bytes32"
        },
        {
          "internalType": "address",
          "name": "account",
          "type": "address"
        }
      ],
      "name": "revokeRole",
      "outputs": [],
      "stateMutability": "nonpayable",
      "type": "function"
    },
    {
      "inputs": [
        {
          "internalType": "address",
          "name": "user",
          "type": "address"
        }
      ],
      "name": "getRandomSeed",
      "outputs": [
        {
          "internalType": "uint256",
          "name": "",
          "type": "uint256"
        }
      ],
      "stateMutability": "view",
      "type": "function"
    },
    {
      "inputs": [
        {
          "internalType": "address",
          "name": "user",
          "type": "address"
        },
        {
          "internalType": "bytes32",
          "name": "hash",
          "type": "bytes32"
        }
      ],
      "name": "getRandomSeedUsingHash",
      "outputs": [
        {
          "internalType": "uint256",
          "name": "",
          "type": "uint256"
        }
      ],
      "stateMutability": "view",
      "type": "function"
    },
    {
      "inputs": [],
      "name": "requestRandomNumber",
      "outputs": [],
      "stateMutability": "nonpayable",
      "type": "function"
    },
    {
      "inputs": [],
      "name": "pause",
      "outputs": [],
      "stateMutability": "nonpayable",
      "type": "function"
    },
    {
      "inputs": [],
      "name": "unpause",
      "outputs": [],
      "stateMutability": "nonpayable",
      "type": "function"
    },
    {
      "inputs": [
        {
          "internalType": "uint256",
          "name": "tokenAmount",
          "type": "uint256"
        }
      ],
      "name": "withdrawLink",
      "outputs": [],
      "stateMutability": "nonpayable",
      "type": "function"
    }
  ],
  "bytecode": "0x60c06040523480156200001157600080fd5b506040516200157138038062001571833981810160405260808110156200003757600080fd5b508051602082015160408301516060938401516000805460ff191681556001600160601b031985871b811660a0529584901b909516608052600382905560048190559293919290916200009490336001600160e01b036200009e16565b50505050620001d8565b620000b382826001600160e01b03620000b716565b5050565b6000828152600160209081526040909120620000de91839062000d486200013b821b17901c565b15620000b357620000f76001600160e01b036200016416565b6001600160a01b0316816001600160a01b0316837f2f8788117e7eff1d82e926ec794901d17c78024a50270940304540a733656f0d60405160405180910390a45050565b60006200015b836001600160a01b0384166001600160e01b036200016816565b90505b92915050565b3390565b60006200017f83836001600160e01b03620001c016565b620001b7575081546001818101845560008481526020808220909301849055845484825282860190935260409020919091556200015e565b5060006200015e565b60009081526001919091016020526040902054151590565b60805160601c60a05160601c61136062000211600039806108075280610b8752508061056752806106c65280610b5852506113606000f3fe608060405234801561001057600080fd5b506004361061010b5760003560e01c80637a8042bd116100a257806391d148541161007157806391d148541461028357806394985ddd146102af578063a217fddf146102d2578063ca15c873146102da578063d547741f146102f75761010b565b80637a8042bd146102175780638456cb59146102345780638678a7b21461023c5780639010d07c146102445761010b565b80633883d854116100de5780633883d854146101c55780633f4ba83a146101eb5780635c975abb146101f3578063790273dd1461020f5761010b565b8063248a9ca3146101105780632f2ff15d1461013f578063319b22a71461016d57806336568abe14610199575b600080fd5b61012d6004803603602081101561012657600080fd5b5035610323565b60408051918252519081900360200190f35b61016b6004803603604081101561015557600080fd5b50803590602001356001600160a01b0316610338565b005b61012d6004803603604081101561018357600080fd5b506001600160a01b0381351690602001356103a4565b61016b600480360360408110156101af57600080fd5b50803590602001356001600160a01b0316610408565b61012d600480360360208110156101db57600080fd5b50356001600160a01b0316610469565b61016b610479565b6101fb6104d4565b604080519115158252519081900360200190f35b61012d6104dd565b61016b6004803603602081101561022d57600080fd5b5035610509565b61016b610597565b61016b6105f0565b6102676004803603604081101561025a57600080fd5b50803590602001356107b9565b604080516001600160a01b039092168252519081900360200190f35b6101fb6004803603604081101561029957600080fd5b50803590602001356001600160a01b03166107de565b61016b600480360360408110156102c557600080fd5b50803590602001356107fc565b61012d610883565b61012d600480360360208110156102f057600080fd5b5035610888565b61016b6004803603604081101561030d57600080fd5b50803590602001356001600160a01b031661089f565b60009081526001602052604090206002015490565b60008281526001602052604090206002015461035b906103566108f8565b6107de565b6103965760405162461bcd60e51b815260040180806020018281038252602f815260200180611273602f913960400191505060405180910390fd5b6103a082826108fc565b5050565b600082600554835a60405160200180856001600160a01b03166001600160a01b031660601b81526014018481526020018381526020018281526020019450505050506040516020818303038152906040528051906020012060001c90505b92915050565b6104106108f8565b6001600160a01b0316816001600160a01b03161461045f5760405162461bcd60e51b815260040180806020018281038252602f8152602001806112fc602f913960400191505060405180910390fd5b6103a0828261096b565b60006104028260014303406103a4565b6104846000336107de565b6104ca576040805162461bcd60e51b815260206004820152601260248201527120b236b4b7103937b632903732b2b232b21760711b604482015290519081900360640190fd5b6104d26109da565b565b60005460ff1690565b60408051732920a72227a6a722a9a9afa922a8aaa2a9aa22a960611b8152905190819003601401902081565b6105146000336107de565b61055a576040805162461bcd60e51b815260206004820152601260248201527120b236b4b7103937b632903732b2b232b21760711b604482015290519081900360640190fd5b6105946001600160a01b037f000000000000000000000000000000000000000000000000000000000000000016338363ffffffff610a7a16565b50565b6105a26000336107de565b6105e8576040805162461bcd60e51b815260206004820152601260248201527120b236b4b7103937b632903732b2b232b21760711b604482015290519081900360640190fd5b6104d2610ad1565b6105f86104d4565b1561063d576040805162461bcd60e51b815260206004820152601060248201526f14185d5cd8589b194e881c185d5cd95960821b604482015290519081900360640190fd5b60408051732920a72227a6a722a9a9afa922a8aaa2a9aa22a960611b8152905190819003601401902061067090336107de565b6106c1576040805162461bcd60e51b815260206004820152601a60248201527f53656e6465722063616e6e6f7420726571756573742073656564000000000000604482015290519081900360640190fd5b6004547f00000000000000000000000000000000000000000000000000000000000000006001600160a01b03166370a08231306040518263ffffffff1660e01b815260040180826001600160a01b03166001600160a01b0316815260200191505060206040518083038186803b15801561073a57600080fd5b505afa15801561074e573d6000803e3d6000fd5b505050506040513d602081101561076457600080fd5b505110156107ab576040805162461bcd60e51b815260206004820152600f60248201526e4e6f7420656e6f756768204c494e4b60881b604482015290519081900360640190fd5b610594600354600454610b54565b60008281526001602052604081206107d7908363ffffffff610d1616565b9392505050565b60008281526001602052604081206107d7908363ffffffff610d2216565b336001600160a01b037f00000000000000000000000000000000000000000000000000000000000000001614610879576040805162461bcd60e51b815260206004820152601f60248201527f4f6e6c7920565246436f6f7264696e61746f722063616e2066756c66696c6c00604482015290519081900360640190fd5b6103a08282610d37565b600081565b600081815260016020526040812061040290610d3d565b6000828152600160205260409020600201546108bd906103566108f8565b61045f5760405162461bcd60e51b81526004018080602001828103825260308152602001806112a26030913960400191505060405180910390fd5b3390565b600082815260016020526040902061091a908263ffffffff610d4816565b156103a0576109276108f8565b6001600160a01b0316816001600160a01b0316837f2f8788117e7eff1d82e926ec794901d17c78024a50270940304540a733656f0d60405160405180910390a45050565b6000828152600160205260409020610989908263ffffffff610d5d16565b156103a0576109966108f8565b6001600160a01b0316816001600160a01b0316837ff6391f5c32d9c69d2a47ea670b442974b53935d1edc7fd64eb21e047a839171b60405160405180910390a45050565b6109e26104d4565b610a2a576040805162461bcd60e51b815260206004820152601460248201527314185d5cd8589b194e881b9bdd081c185d5cd95960621b604482015290519081900360640190fd5b6000805460ff191690557f5db9ee0a495bf2e6ff9c91a7834c1ba4fdd244a5e8aa4e537bd38aeae4b073aa610a5d6108f8565b604080516001600160a01b039092168252519081900360200190a1565b604080516001600160a01b038416602482015260448082018490528251808303909101815260649091019091526020810180516001600160e01b031663a9059cbb60e01b179052610acc908490610d72565b505050565b610ad96104d4565b15610b1e576040805162461bcd60e51b815260206004820152601060248201526f14185d5cd8589b194e881c185d5cd95960821b604482015290519081900360640190fd5b6000805460ff191660011790557f62e78cea01bee320cd4e420270b5ea74000d11b0c9f74754ebdbfc544b05a258610a5d6108f8565b60007f00000000000000000000000000000000000000000000000000000000000000006001600160a01b0316634000aea07f00000000000000000000000000000000000000000000000000000000000000008486600060405160200180838152602001828152602001925050506040516020818303038152906040526040518463ffffffff1660e01b815260040180846001600160a01b03166001600160a01b0316815260200183815260200180602001828103825283818151815260200191508051906020019080838360005b83811015610c3a578181015183820152602001610c22565b50505050905090810190601f168015610c675780820380516001836020036101000a031916815260200191505b50945050505050602060405180830381600087803b158015610c8857600080fd5b505af1158015610c9c573d6000803e3d6000fd5b505050506040513d6020811015610cb257600080fd5b5050600083815260026020526040812054610cd290859083903090610e23565b600085815260026020526040902054909150610cf590600163ffffffff610e6a16565b600085815260026020526040902055610d0e8482610ec4565b949350505050565b60006107d78383610ef0565b60006107d7836001600160a01b038416610f54565b60055550565b600061040282610f6c565b60006107d7836001600160a01b038416610f70565b60006107d7836001600160a01b038416610fba565b6060610dc7826040518060400160405280602081526020017f5361666545524332303a206c6f772d6c6576656c2063616c6c206661696c6564815250856001600160a01b03166110809092919063ffffffff16565b805190915015610acc57808060200190516020811015610de657600080fd5b5051610acc5760405162461bcd60e51b815260040180806020018281038252602a8152602001806112d2602a913960400191505060405180910390fd5b60408051602080820196909652808201949094526001600160a01b039290921660608401526080808401919091528151808403909101815260a09092019052805191012090565b6000828201838110156107d7576040805162461bcd60e51b815260206004820152601b60248201527f536166654d6174683a206164646974696f6e206f766572666c6f770000000000604482015290519081900360640190fd5b604080516020808201949094528082019290925280518083038201815260609092019052805191012090565b81546000908210610f325760405162461bcd60e51b81526004018080602001828103825260228152602001806112516022913960400191505060405180910390fd5b826000018281548110610f4157fe5b9060005260206000200154905092915050565b60009081526001919091016020526040902054151590565b5490565b6000610f7c8383610f54565b610fb257508154600181810184556000848152602080822090930184905584548482528286019093526040902091909155610402565b506000610402565b600081815260018301602052604081205480156110765783546000198083019190810190600090879083908110610fed57fe5b906000526020600020015490508087600001848154811061100a57fe5b60009182526020808320909101929092558281526001898101909252604090209084019055865487908061103a57fe5b60019003818190600052602060002001600090559055866001016000878152602001908152602001600020600090556001945050505050610402565b6000915050610402565b6060610d0e848460008585611094856111a6565b6110e5576040805162461bcd60e51b815260206004820152601d60248201527f416464726573733a2063616c6c20746f206e6f6e2d636f6e7472616374000000604482015290519081900360640190fd5b60006060866001600160a01b031685876040518082805190602001908083835b602083106111245780518252601f199092019160209182019101611105565b6001836020036101000a03801982511681845116808217855250505050505090500191505060006040518083038185875af1925050503d8060008114611186576040519150601f19603f3d011682016040523d82523d6000602084013e61118b565b606091505b509150915061119b8282866111ac565b979650505050505050565b3b151590565b606083156111bb5750816107d7565b8251156111cb5782518084602001fd5b8160405162461bcd60e51b81526004018080602001828103825283818151815260200191508051906020019080838360005b838110156112155781810151838201526020016111fd565b50505050905090810190601f1680156112425780820380516001836020036101000a031916815260200191505b509250505060405180910390fdfe456e756d657261626c655365743a20696e646578206f7574206f6620626f756e6473416363657373436f6e74726f6c3a2073656e646572206d75737420626520616e2061646d696e20746f206772616e74416363657373436f6e74726f6c3a2073656e646572206d75737420626520616e2061646d696e20746f207265766f6b655361666545524332303a204552433230206f7065726174696f6e20646964206e6f742073756363656564416363657373436f6e74726f6c3a2063616e206f6e6c792072656e6f756e636520726f6c657320666f722073656c66a26469706673582212205ebde9d06c22d8799d9e04eaddf2d14b276673be866c017d9e413d6b0e4ec0d664736f6c63430006050033",
  "immutableReferences": {
    "76": [
      {
        "length": 32,
        "start": 1383
      },
      {
        "length": 32,
        "start": 1734
      },
      {
        "length": 32,
        "start": 2904
      }
    ],
    "78": [
      {
        "length": 32,
        "start": 2055
      },
      {
        "length": 32,
        "start": 2951
      }
    ]
  },
  "source": "// SPDX-License-Identifier: MIT\npragma solidity ^0.6.0;\n\nimport \"@openzeppelin/contracts/access/AccessControl.sol\";\nimport \"@openzeppelin/contracts/utils/Pausable.sol\";\nimport \"@openzeppelin/contracts/token/ERC20/SafeERC20.sol\";\nimport \"@openzeppelin/contracts/token/ERC20/IERC20.sol\";\nimport \"@chainlink/contracts/src/v0.6/VRFConsumerBase.sol\";\nimport \"./interfaces/IRandoms.sol\";\n\nstruct SeedState {\n    bytes32 requestId;\n    uint256 seed;\n    bool isAvailable;\n}\n\ncontract ChainlinkRandoms is IRandoms, Pausable, AccessControl, VRFConsumerBase {\n    using SafeERC20 for IERC20;\n\n    uint256 constant VRF_MAGIC_SEED = uint256(keccak256(\"CipherShooters\"));\n\n    bytes32 public constant RANDOMNESS_REQUESTER = keccak256(\"RANDOMNESS_REQUESTER\");\n\n    bytes32 private keyHash;\n    uint256 private fee;\n\n    uint256 private seed;\n\n    // MATIC mainnet details:\n    // LINK token: 0xb0897686c545045aFc77CF20eC7A532E3120E0F1\n    // VRF Coordinator: 0x3d2341ADb2D31f1c5530cDC622016af293177AE0\n    // Key Hash: 0xf86195cf7690c55907b2b611ebb7343a6f649bff128701cc542f0569e2c549da\n    // Fee: 0.0001 LINK\n\n    constructor(address _vrfCoordinator, address _link, bytes32 _keyHash, uint256 _fee)\n        VRFConsumerBase(\n            _vrfCoordinator, // VRF Coordinator\n            _link  // LINK Token\n        ) public\n    {\n        keyHash = _keyHash;\n        fee = _fee;\n\n        _setupRole(DEFAULT_ADMIN_ROLE, msg.sender);\n    }\n\n    // Views\n    function getRandomSeed(address user) external override view returns (uint256) {\n        return getRandomSeedUsingHash(user, blockhash(block.number - 1));\n    }\n\n    function getRandomSeedUsingHash(address user, bytes32 hash) public override view returns (uint256) {\n        return uint256(keccak256(abi.encodePacked(user, seed, hash, gasleft())));\n    }\n\n    // Mutative\n\n    /**\n     * Requests randomness from a user-provided seed\n     */\n    function requestRandomNumber() external whenNotPaused {\n        require(hasRole(RANDOMNESS_REQUESTER, msg.sender), \"Sender cannot request seed\");\n        require(LINK.balanceOf(address(this)) >= fee, \"Not enough LINK\");\n\n        // the user-provided seed is not necessary, as per the docs\n        // hence we set it to an arbitrary constant\n        requestRandomness(keyHash, fee);\n    }\n\n    function pause() external onlyOwner {\n        _pause();\n    }\n\n    function unpause() external onlyOwner {\n        _unpause();\n    }\n\n    /**\n     * Callback function used by VRF Coordinator\n     */\n    function fulfillRandomness(bytes32 /* requestId */, uint256 randomness) internal override {\n        seed = randomness;\n    }\n\n    function withdrawLink(uint256 tokenAmount) external onlyOwner {\n        // very awkward - but should be safe given that the LINK token is ERC20-compatible\n        IERC20(address(LINK)).safeTransfer(msg.sender, tokenAmount);\n    }\n\n    // Modifiers\n    modifier onlyOwner() {\n        require(hasRole(DEFAULT_ADMIN_ROLE, msg.sender), \"Admin role needed.\");\n        _;\n    }\n}\n",
  "sourcePath": "/Users/school/dev/ciphershooters/contracts/ChainlinkRandoms.sol",
  "compiler": {
    "name": "solc",
    "version": "0.6.5+commit.f956cc89.Emscripten.clang"
  },
  "schemaVersion": "3.4.6",
  "updatedAt": "2022-06-04T16:14:57.575Z",
  "devdoc": {
    "methods": {
      "getRoleAdmin(bytes32)": {
        "details": "Returns the admin role that controls `role`. See {grantRole} and {revokeRole}.     * To change a role's admin, use {_setRoleAdmin}."
      },
      "getRoleMember(bytes32,uint256)": {
        "details": "Returns one of the accounts that have `role`. `index` must be a value between 0 and {getRoleMemberCount}, non-inclusive.     * Role bearers are not sorted in any particular way, and their ordering may change at any point.     * WARNING: When using {getRoleMember} and {getRoleMemberCount}, make sure you perform all queries on the same block. See the following https://forum.openzeppelin.com/t/iterating-over-elements-on-enumerableset-in-openzeppelin-contracts/2296[forum post] for more information."
      },
      "getRoleMemberCount(bytes32)": {
        "details": "Returns the number of accounts that have `role`. Can be used together with {getRoleMember} to enumerate all bearers of a role."
      },
      "grantRole(bytes32,address)": {
        "details": "Grants `role` to `account`.     * If `account` had not been already granted `role`, emits a {RoleGranted} event.     * Requirements:     * - the caller must have ``role``'s admin role."
      },
      "hasRole(bytes32,address)": {
        "details": "Returns `true` if `account` has been granted `role`."
      },
      "paused()": {
        "details": "Returns true if the contract is paused, and false otherwise."
      },
      "renounceRole(bytes32,address)": {
        "details": "Revokes `role` from the calling account.     * Roles are often managed via {grantRole} and {revokeRole}: this function's purpose is to provide a mechanism for accounts to lose their privileges if they are compromised (such as when a trusted device is misplaced).     * If the calling account had been granted `role`, emits a {RoleRevoked} event.     * Requirements:     * - the caller must be `account`."
      },
      "revokeRole(bytes32,address)": {
        "details": "Revokes `role` from `account`.     * If `account` had been granted `role`, emits a {RoleRevoked} event.     * Requirements:     * - the caller must have ``role``'s admin role."
      }
    }
  },
  "userdoc": {
    "methods": {
      "requestRandomNumber()": {
        "notice": "Requests randomness from a user-provided seed"
      }
    }
  }
}