{
  "contractName": "Characters",
  "abi": [
    {
      "anonymous": false,
      "inputs": [
        {
          "indexed": true,
          "internalType": "address",
          "name": "owner",
          "type": "address"
        },
        {
          "indexed": true,
          "internalType": "address",
          "name": "approved",
          "type": "address"
        },
        {
          "indexed": true,
          "internalType": "uint256",
          "name": "tokenId",
          "type": "uint256"
        }
      ],
      "name": "Approval",
      "type": "event"
    },
    {
      "anonymous": false,
      "inputs": [
        {
          "indexed": true,
          "internalType": "address",
          "name": "owner",
          "type": "address"
        },
        {
          "indexed": true,
          "internalType": "address",
          "name": "operator",
          "type": "address"
        },
        {
          "indexed": false,
          "internalType": "bool",
          "name": "approved",
          "type": "bool"
        }
      ],
      "name": "ApprovalForAll",
      "type": "event"
    },
    {
      "anonymous": false,
      "inputs": [
        {
          "indexed": true,
          "internalType": "address",
          "name": "owner",
          "type": "address"
        },
        {
          "indexed": false,
          "internalType": "uint256",
          "name": "character",
          "type": "uint256"
        },
        {
          "indexed": false,
          "internalType": "uint8",
          "name": "customType",
          "type": "uint8"
        }
      ],
      "name": "CustomizedCharacter",
      "type": "event"
    },
    {
      "anonymous": false,
      "inputs": [
        {
          "indexed": true,
          "internalType": "address",
          "name": "owner",
          "type": "address"
        },
        {
          "indexed": true,
          "internalType": "uint256",
          "name": "character",
          "type": "uint256"
        },
        {
          "indexed": false,
          "internalType": "uint16",
          "name": "level",
          "type": "uint16"
        }
      ],
      "name": "LevelUp",
      "type": "event"
    },
    {
      "anonymous": false,
      "inputs": [
        {
          "indexed": true,
          "internalType": "uint256",
          "name": "character",
          "type": "uint256"
        },
        {
          "indexed": true,
          "internalType": "address",
          "name": "minter",
          "type": "address"
        }
      ],
      "name": "NewCharacter",
      "type": "event"
    },
    {
      "anonymous": false,
      "inputs": [
        {
          "indexed": true,
          "internalType": "bytes32",
          "name": "role",
          "type": "bytes32"
        },
        {
          "indexed": true,
          "internalType": "bytes32",
          "name": "previousAdminRole",
          "type": "bytes32"
        },
        {
          "indexed": true,
          "internalType": "bytes32",
          "name": "newAdminRole",
          "type": "bytes32"
        }
      ],
      "name": "RoleAdminChanged",
      "type": "event"
    },
    {
      "anonymous": false,
      "inputs": [
        {
          "indexed": true,
          "internalType": "bytes32",
          "name": "role",
          "type": "bytes32"
        },
        {
          "indexed": true,
          "internalType": "address",
          "name": "account",
          "type": "address"
        },
        {
          "indexed": true,
          "internalType": "address",
          "name": "sender",
          "type": "address"
        }
      ],
      "name": "RoleGranted",
      "type": "event"
    },
    {
      "anonymous": false,
      "inputs": [
        {
          "indexed": true,
          "internalType": "bytes32",
          "name": "role",
          "type": "bytes32"
        },
        {
          "indexed": true,
          "internalType": "address",
          "name": "account",
          "type": "address"
        },
        {
          "indexed": true,
          "internalType": "address",
          "name": "sender",
          "type": "address"
        }
      ],
      "name": "RoleRevoked",
      "type": "event"
    },
    {
      "anonymous": false,
      "inputs": [
        {
          "indexed": true,
          "internalType": "address",
          "name": "from",
          "type": "address"
        },
        {
          "indexed": true,
          "internalType": "address",
          "name": "to",
          "type": "address"
        },
        {
          "indexed": true,
          "internalType": "uint256",
          "name": "tokenId",
          "type": "uint256"
        }
      ],
      "name": "Transfer",
      "type": "event"
    },
    {
      "anonymous": false,
      "inputs": [
        {
          "indexed": true,
          "internalType": "address",
          "name": "owner",
          "type": "address"
        },
        {
          "indexed": false,
          "internalType": "uint256",
          "name": "character",
          "type": "uint256"
        }
      ],
      "name": "UpdatedCharacterName",
      "type": "event"
    },
    {
      "inputs": [],
      "name": "DEFAULT_ADMIN_ROLE",
      "outputs": [
        {
          "internalType": "bytes32",
          "name": "",
          "type": "bytes32"
        }
      ],
      "stateMutability": "view",
      "type": "function"
    },
    {
      "inputs": [],
      "name": "GAME_ADMIN",
      "outputs": [
        {
          "internalType": "bytes32",
          "name": "",
          "type": "bytes32"
        }
      ],
      "stateMutability": "view",
      "type": "function"
    },
    {
      "inputs": [],
      "name": "NO_OWNED_LIMIT",
      "outputs": [
        {
          "internalType": "bytes32",
          "name": "",
          "type": "bytes32"
        }
      ],
      "stateMutability": "view",
      "type": "function"
    },
    {
      "inputs": [],
      "name": "RECEIVE_DOES_NOT_SET_TRANSFER_TIMESTAMP",
      "outputs": [
        {
          "internalType": "bytes32",
          "name": "",
          "type": "bytes32"
        }
      ],
      "stateMutability": "view",
      "type": "function"
    },
    {
      "inputs": [],
      "name": "TRANSFER_COOLDOWN",
      "outputs": [
        {
          "internalType": "uint256",
          "name": "",
          "type": "uint256"
        }
      ],
      "stateMutability": "view",
      "type": "function"
    },
    {
      "inputs": [
        {
          "internalType": "address",
          "name": "to",
          "type": "address"
        },
        {
          "internalType": "uint256",
          "name": "tokenId",
          "type": "uint256"
        }
      ],
      "name": "approve",
      "outputs": [],
      "stateMutability": "nonpayable",
      "type": "function"
    },
    {
      "inputs": [
        {
          "internalType": "address",
          "name": "owner",
          "type": "address"
        }
      ],
      "name": "balanceOf",
      "outputs": [
        {
          "internalType": "uint256",
          "name": "",
          "type": "uint256"
        }
      ],
      "stateMutability": "view",
      "type": "function"
    },
    {
      "inputs": [],
      "name": "baseURI",
      "outputs": [
        {
          "internalType": "string",
          "name": "",
          "type": "string"
        }
      ],
      "stateMutability": "view",
      "type": "function"
    },
    {
      "inputs": [],
      "name": "characterLimit",
      "outputs": [
        {
          "internalType": "uint256",
          "name": "",
          "type": "uint256"
        }
      ],
      "stateMutability": "view",
      "type": "function"
    },
    {
      "inputs": [
        {
          "internalType": "uint256",
          "name": "",
          "type": "uint256"
        }
      ],
      "name": "characterNames",
      "outputs": [
        {
          "internalType": "string",
          "name": "firstName",
          "type": "string"
        },
        {
          "internalType": "string",
          "name": "familyName",
          "type": "string"
        }
      ],
      "stateMutability": "view",
      "type": "function"
    },
    {
      "inputs": [
        {
          "internalType": "uint256",
          "name": "",
          "type": "uint256"
        },
        {
          "internalType": "uint256",
          "name": "",
          "type": "uint256"
        }
      ],
      "name": "eliteTraineeMap",
      "outputs": [
        {
          "internalType": "uint256",
          "name": "",
          "type": "uint256"
        }
      ],
      "stateMutability": "view",
      "type": "function"
    },
    {
      "inputs": [
        {
          "internalType": "uint256",
          "name": "tokenId",
          "type": "uint256"
        }
      ],
      "name": "getApproved",
      "outputs": [
        {
          "internalType": "address",
          "name": "",
          "type": "address"
        }
      ],
      "stateMutability": "view",
      "type": "function"
    },
    {
      "inputs": [
        {
          "internalType": "bytes32",
          "name": "role",
          "type": "bytes32"
        }
      ],
      "name": "getRoleAdmin",
      "outputs": [
        {
          "internalType": "bytes32",
          "name": "",
          "type": "bytes32"
        }
      ],
      "stateMutability": "view",
      "type": "function"
    },
    {
      "inputs": [
        {
          "internalType": "bytes32",
          "name": "role",
          "type": "bytes32"
        },
        {
          "internalType": "uint256",
          "name": "index",
          "type": "uint256"
        }
      ],
      "name": "getRoleMember",
      "outputs": [
        {
          "internalType": "address",
          "name": "",
          "type": "address"
        }
      ],
      "stateMutability": "view",
      "type": "function"
    },
    {
      "inputs": [
        {
          "internalType": "bytes32",
          "name": "role",
          "type": "bytes32"
        }
      ],
      "name": "getRoleMemberCount",
      "outputs": [
        {
          "internalType": "uint256",
          "name": "",
          "type": "uint256"
        }
      ],
      "stateMutability": "view",
      "type": "function"
    },
    {
      "inputs": [
        {
          "internalType": "bytes32",
          "name": "role",
          "type": "bytes32"
        },
        {
          "internalType": "address",
          "name": "account",
          "type": "address"
        }
      ],
      "name": "grantRole",
      "outputs": [],
      "stateMutability": "nonpayable",
      "type": "function"
    },
    {
      "inputs": [
        {
          "internalType": "bytes32",
          "name": "role",
          "type": "bytes32"
        },
        {
          "internalType": "address",
          "name": "account",
          "type": "address"
        }
      ],
      "name": "hasRole",
      "outputs": [
        {
          "internalType": "bool",
          "name": "",
          "type": "bool"
        }
      ],
      "stateMutability": "view",
      "type": "function"
    },
    {
      "inputs": [],
      "name": "holographicChance",
      "outputs": [
        {
          "internalType": "uint8",
          "name": "",
          "type": "uint8"
        }
      ],
      "stateMutability": "view",
      "type": "function"
    },
    {
      "inputs": [
        {
          "internalType": "address",
          "name": "owner",
          "type": "address"
        },
        {
          "internalType": "address",
          "name": "operator",
          "type": "address"
        }
      ],
      "name": "isApprovedForAll",
      "outputs": [
        {
          "internalType": "bool",
          "name": "",
          "type": "bool"
        }
      ],
      "stateMutability": "view",
      "type": "function"
    },
    {
      "inputs": [
        {
          "internalType": "uint256",
          "name": "",
          "type": "uint256"
        }
      ],
      "name": "lastTransferTimestamp",
      "outputs": [
        {
          "internalType": "uint256",
          "name": "",
          "type": "uint256"
        }
      ],
      "stateMutability": "view",
      "type": "function"
    },
    {
      "inputs": [],
      "name": "maxStamina",
      "outputs": [
        {
          "internalType": "uint256",
          "name": "",
          "type": "uint256"
        }
      ],
      "stateMutability": "view",
      "type": "function"
    },
    {
      "inputs": [],
      "name": "name",
      "outputs": [
        {
          "internalType": "string",
          "name": "",
          "type": "string"
        }
      ],
      "stateMutability": "view",
      "type": "function"
    },
    {
      "inputs": [
        {
          "internalType": "uint256",
          "name": "tokenId",
          "type": "uint256"
        }
      ],
      "name": "ownerOf",
      "outputs": [
        {
          "internalType": "address",
          "name": "",
          "type": "address"
        }
      ],
      "stateMutability": "view",
      "type": "function"
    },
    {
      "inputs": [
        {
          "internalType": "bytes32",
          "name": "role",
          "type": "bytes32"
        },
        {
          "internalType": "address",
          "name": "account",
          "type": "address"
        }
      ],
      "name": "renounceRole",
      "outputs": [],
      "stateMutability": "nonpayable",
      "type": "function"
    },
    {
      "inputs": [
        {
          "internalType": "bytes32",
          "name": "role",
          "type": "bytes32"
        },
        {
          "internalType": "address",
          "name": "account",
          "type": "address"
        }
      ],
      "name": "revokeRole",
      "outputs": [],
      "stateMutability": "nonpayable",
      "type": "function"
    },
    {
      "inputs": [
        {
          "internalType": "address",
          "name": "from",
          "type": "address"
        },
        {
          "internalType": "address",
          "name": "to",
          "type": "address"
        },
        {
          "internalType": "uint256",
          "name": "tokenId",
          "type": "uint256"
        }
      ],
      "name": "safeTransferFrom",
      "outputs": [],
      "stateMutability": "nonpayable",
      "type": "function"
    },
    {
      "inputs": [
        {
          "internalType": "address",
          "name": "from",
          "type": "address"
        },
        {
          "internalType": "address",
          "name": "to",
          "type": "address"
        },
        {
          "internalType": "uint256",
          "name": "tokenId",
          "type": "uint256"
        },
        {
          "internalType": "bytes",
          "name": "_data",
          "type": "bytes"
        }
      ],
      "name": "safeTransferFrom",
      "outputs": [],
      "stateMutability": "nonpayable",
      "type": "function"
    },
    {
      "inputs": [],
      "name": "secondsPerStamina",
      "outputs": [
        {
          "internalType": "uint256",
          "name": "",
          "type": "uint256"
        }
      ],
      "stateMutability": "view",
      "type": "function"
    },
    {
      "inputs": [
        {
          "internalType": "address",
          "name": "operator",
          "type": "address"
        },
        {
          "internalType": "bool",
          "name": "approved",
          "type": "bool"
        }
      ],
      "name": "setApprovalForAll",
      "outputs": [],
      "stateMutability": "nonpayable",
      "type": "function"
    },
    {
      "inputs": [
        {
          "internalType": "bytes4",
          "name": "interfaceId",
          "type": "bytes4"
        }
      ],
      "name": "supportsInterface",
      "outputs": [
        {
          "internalType": "bool",
          "name": "",
          "type": "bool"
        }
      ],
      "stateMutability": "view",
      "type": "function"
    },
    {
      "inputs": [],
      "name": "symbol",
      "outputs": [
        {
          "internalType": "string",
          "name": "",
          "type": "string"
        }
      ],
      "stateMutability": "view",
      "type": "function"
    },
    {
      "inputs": [
        {
          "internalType": "uint256",
          "name": "index",
          "type": "uint256"
        }
      ],
      "name": "tokenByIndex",
      "outputs": [
        {
          "internalType": "uint256",
          "name": "",
          "type": "uint256"
        }
      ],
      "stateMutability": "view",
      "type": "function"
    },
    {
      "inputs": [
        {
          "internalType": "address",
          "name": "owner",
          "type": "address"
        },
        {
          "internalType": "uint256",
          "name": "index",
          "type": "uint256"
        }
      ],
      "name": "tokenOfOwnerByIndex",
      "outputs": [
        {
          "internalType": "uint256",
          "name": "",
          "type": "uint256"
        }
      ],
      "stateMutability": "view",
      "type": "function"
    },
    {
      "inputs": [
        {
          "internalType": "uint256",
          "name": "tokenId",
          "type": "uint256"
        }
      ],
      "name": "tokenURI",
      "outputs": [
        {
          "internalType": "string",
          "name": "",
          "type": "string"
        }
      ],
      "stateMutability": "view",
      "type": "function"
    },
    {
      "inputs": [],
      "name": "totalSupply",
      "outputs": [
        {
          "internalType": "uint256",
          "name": "",
          "type": "uint256"
        }
      ],
      "stateMutability": "view",
      "type": "function"
    },
    {
      "inputs": [
        {
          "internalType": "address",
          "name": "from",
          "type": "address"
        },
        {
          "internalType": "address",
          "name": "to",
          "type": "address"
        },
        {
          "internalType": "uint256",
          "name": "tokenId",
          "type": "uint256"
        }
      ],
      "name": "transferFrom",
      "outputs": [],
      "stateMutability": "nonpayable",
      "type": "function"
    },
    {
      "inputs": [],
      "name": "initialize",
      "outputs": [],
      "stateMutability": "nonpayable",
      "type": "function"
    },
    {
      "inputs": [],
      "name": "setExperienceTable",
      "outputs": [],
      "stateMutability": "nonpayable",
      "type": "function"
    },
    {
      "inputs": [],
      "name": "setAccuracyTable",
      "outputs": [],
      "stateMutability": "nonpayable",
      "type": "function"
    },
    {
      "inputs": [],
      "name": "setRegisterInterface",
      "outputs": [],
      "stateMutability": "nonpayable",
      "type": "function"
    },
    {
      "inputs": [
        {
          "internalType": "uint256",
          "name": "tokenId",
          "type": "uint256"
        }
      ],
      "name": "transferCooldownEnd",
      "outputs": [
        {
          "internalType": "uint256",
          "name": "",
          "type": "uint256"
        }
      ],
      "stateMutability": "view",
      "type": "function"
    },
    {
      "inputs": [
        {
          "internalType": "uint256",
          "name": "tokenId",
          "type": "uint256"
        }
      ],
      "name": "transferCooldownLeft",
      "outputs": [
        {
          "internalType": "uint256",
          "name": "",
          "type": "uint256"
        }
      ],
      "stateMutability": "view",
      "type": "function"
    },
    {
      "inputs": [
        {
          "internalType": "uint256",
          "name": "id",
          "type": "uint256"
        }
      ],
      "name": "get",
      "outputs": [
        {
          "internalType": "uint16",
          "name": "",
          "type": "uint16"
        },
        {
          "internalType": "uint8",
          "name": "",
          "type": "uint8"
        },
        {
          "internalType": "uint8",
          "name": "",
          "type": "uint8"
        },
        {
          "internalType": "uint8",
          "name": "",
          "type": "uint8"
        },
        {
          "internalType": "uint8",
          "name": "",
          "type": "uint8"
        },
        {
          "internalType": "uint64",
          "name": "",
          "type": "uint64"
        },
        {
          "internalType": "enum ICharacter.CharacterType",
          "name": "",
          "type": "uint8"
        },
        {
          "internalType": "uint256",
          "name": "",
          "type": "uint256"
        },
        {
          "internalType": "bool",
          "name": "",
          "type": "bool"
        }
      ],
      "stateMutability": "view",
      "type": "function"
    },
    {
      "inputs": [
        {
          "internalType": "address",
          "name": "minter",
          "type": "address"
        },
        {
          "internalType": "uint256",
          "name": "seed",
          "type": "uint256"
        },
        {
          "internalType": "enum ICharacter.CharacterType",
          "name": "ctype",
          "type": "uint8"
        },
        {
          "internalType": "uint256",
          "name": "eliteId",
          "type": "uint256"
        }
      ],
      "name": "mint",
      "outputs": [],
      "stateMutability": "nonpayable",
      "type": "function"
    },
    {
      "inputs": [
        {
          "internalType": "uint256",
          "name": "id",
          "type": "uint256"
        },
        {
          "internalType": "uint8",
          "name": "customType",
          "type": "uint8"
        },
        {
          "internalType": "uint256",
          "name": "seed",
          "type": "uint256"
        }
      ],
      "name": "customizeCharacter",
      "outputs": [],
      "stateMutability": "nonpayable",
      "type": "function"
    },
    {
      "inputs": [
        {
          "internalType": "uint256",
          "name": "id",
          "type": "uint256"
        },
        {
          "internalType": "string",
          "name": "firstN",
          "type": "string"
        },
        {
          "internalType": "string",
          "name": "lastN",
          "type": "string"
        }
      ],
      "name": "setCharacterName",
      "outputs": [],
      "stateMutability": "nonpayable",
      "type": "function"
    },
    {
      "inputs": [
        {
          "internalType": "uint256",
          "name": "id",
          "type": "uint256"
        }
      ],
      "name": "getLevel",
      "outputs": [
        {
          "internalType": "uint8",
          "name": "",
          "type": "uint8"
        }
      ],
      "stateMutability": "view",
      "type": "function"
    },
    {
      "inputs": [
        {
          "internalType": "uint8",
          "name": "currentLevel",
          "type": "uint8"
        }
      ],
      "name": "getRequiredXpForNextLevel",
      "outputs": [
        {
          "internalType": "uint16",
          "name": "",
          "type": "uint16"
        }
      ],
      "stateMutability": "view",
      "type": "function"
    },
    {
      "inputs": [
        {
          "internalType": "uint256",
          "name": "id",
          "type": "uint256"
        }
      ],
      "name": "getPower",
      "outputs": [
        {
          "internalType": "uint24",
          "name": "",
          "type": "uint24"
        }
      ],
      "stateMutability": "view",
      "type": "function"
    },
    {
      "inputs": [
        {
          "internalType": "uint8",
          "name": "level",
          "type": "uint8"
        }
      ],
      "name": "getPowerAtLevel",
      "outputs": [
        {
          "internalType": "uint24",
          "name": "",
          "type": "uint24"
        }
      ],
      "stateMutability": "pure",
      "type": "function"
    },
    {
      "inputs": [
        {
          "internalType": "uint256",
          "name": "id",
          "type": "uint256"
        }
      ],
      "name": "getElement",
      "outputs": [
        {
          "internalType": "uint8",
          "name": "",
          "type": "uint8"
        }
      ],
      "stateMutability": "view",
      "type": "function"
    },
    {
      "inputs": [
        {
          "internalType": "uint256",
          "name": "id",
          "type": "uint256"
        }
      ],
      "name": "getClass",
      "outputs": [
        {
          "internalType": "uint8",
          "name": "",
          "type": "uint8"
        }
      ],
      "stateMutability": "view",
      "type": "function"
    },
    {
      "inputs": [
        {
          "internalType": "uint256",
          "name": "id",
          "type": "uint256"
        }
      ],
      "name": "getXp",
      "outputs": [
        {
          "internalType": "uint32",
          "name": "",
          "type": "uint32"
        }
      ],
      "stateMutability": "view",
      "type": "function"
    },
    {
      "inputs": [
        {
          "internalType": "uint256",
          "name": "id",
          "type": "uint256"
        }
      ],
      "name": "getAccuracy",
      "outputs": [
        {
          "internalType": "uint32",
          "name": "",
          "type": "uint32"
        }
      ],
      "stateMutability": "view",
      "type": "function"
    },
    {
      "inputs": [
        {
          "internalType": "uint256",
          "name": "id",
          "type": "uint256"
        }
      ],
      "name": "getCharacterType",
      "outputs": [
        {
          "internalType": "enum ICharacter.CharacterType",
          "name": "",
          "type": "uint8"
        }
      ],
      "stateMutability": "view",
      "type": "function"
    },
    {
      "inputs": [
        {
          "internalType": "uint256",
          "name": "id",
          "type": "uint256"
        },
        {
          "internalType": "uint16",
          "name": "xp",
          "type": "uint16"
        }
      ],
      "name": "gainXp",
      "outputs": [],
      "stateMutability": "nonpayable",
      "type": "function"
    },
    {
      "inputs": [
        {
          "internalType": "uint256",
          "name": "id",
          "type": "uint256"
        }
      ],
      "name": "getStaminaTimestamp",
      "outputs": [
        {
          "internalType": "uint64",
          "name": "",
          "type": "uint64"
        }
      ],
      "stateMutability": "view",
      "type": "function"
    },
    {
      "inputs": [
        {
          "internalType": "uint256",
          "name": "id",
          "type": "uint256"
        },
        {
          "internalType": "uint64",
          "name": "timestamp",
          "type": "uint64"
        }
      ],
      "name": "setStaminaTimestamp",
      "outputs": [],
      "stateMutability": "nonpayable",
      "type": "function"
    },
    {
      "inputs": [
        {
          "internalType": "uint256",
          "name": "id",
          "type": "uint256"
        }
      ],
      "name": "getStaminaPoints",
      "outputs": [
        {
          "internalType": "uint8",
          "name": "",
          "type": "uint8"
        }
      ],
      "stateMutability": "view",
      "type": "function"
    },
    {
      "inputs": [
        {
          "internalType": "uint64",
          "name": "timestamp",
          "type": "uint64"
        }
      ],
      "name": "getStaminaPointsFromTimestamp",
      "outputs": [
        {
          "internalType": "uint8",
          "name": "",
          "type": "uint8"
        }
      ],
      "stateMutability": "view",
      "type": "function"
    },
    {
      "inputs": [
        {
          "internalType": "uint256",
          "name": "id",
          "type": "uint256"
        }
      ],
      "name": "isStaminaFull",
      "outputs": [
        {
          "internalType": "bool",
          "name": "",
          "type": "bool"
        }
      ],
      "stateMutability": "view",
      "type": "function"
    },
    {
      "inputs": [],
      "name": "getStaminaMaxWait",
      "outputs": [
        {
          "internalType": "uint64",
          "name": "",
          "type": "uint64"
        }
      ],
      "stateMutability": "pure",
      "type": "function"
    },
    {
      "inputs": [
        {
          "internalType": "enum ICharacter.CharacterType",
          "name": "ctype",
          "type": "uint8"
        }
      ],
      "name": "getOperatorsCountPerRole",
      "outputs": [
        {
          "internalType": "uint256",
          "name": "count",
          "type": "uint256"
        }
      ],
      "stateMutability": "view",
      "type": "function"
    },
    {
      "inputs": [
        {
          "internalType": "uint256",
          "name": "id",
          "type": "uint256"
        },
        {
          "internalType": "uint8",
          "name": "amount",
          "type": "uint8"
        }
      ],
      "name": "getFightDataAndDrainStamina",
      "outputs": [
        {
          "internalType": "uint112",
          "name": "",
          "type": "uint112"
        }
      ],
      "stateMutability": "nonpayable",
      "type": "function"
    },
    {
      "inputs": [
        {
          "internalType": "uint256",
          "name": "max",
          "type": "uint256"
        }
      ],
      "name": "setCharacterLimit",
      "outputs": [],
      "stateMutability": "nonpayable",
      "type": "function"
    },
    {
      "inputs": [
        {
          "internalType": "uint8",
          "name": "chance",
          "type": "uint8"
        }
      ],
      "name": "setHolographicChance",
      "outputs": [],
      "stateMutability": "nonpayable",
      "type": "function"
    },
    {
      "inputs": [
        {
          "internalType": "uint8",
          "name": "class",
          "type": "uint8"
        },
        {
          "internalType": "uint256",
          "name": "first",
          "type": "uint256"
        }
      ],
      "name": "setURIStartIndex",
      "outputs": [],
      "stateMutability": "nonpayable",
      "type": "function"
    },
    {
      "inputs": [
        {
          "internalType": "uint8",
          "name": "class",
          "type": "uint8"
        },
        {
          "internalType": "uint256",
          "name": "last",
          "type": "uint256"
        }
      ],
      "name": "setURILastIndex",
      "outputs": [],
      "stateMutability": "nonpayable",
      "type": "function"
    },
    {
      "inputs": [
        {
          "internalType": "uint256",
          "name": "id",
          "type": "uint256"
        },
        {
          "internalType": "uint256",
          "name": "xpNew",
          "type": "uint256"
        }
      ],
      "name": "setXp",
      "outputs": [],
      "stateMutability": "nonpayable",
      "type": "function"
    },
    {
      "inputs": [
        {
          "internalType": "uint256",
          "name": "index",
          "type": "uint256"
        },
        {
          "internalType": "string",
          "name": "uri",
          "type": "string"
        }
      ],
      "name": "setClassURIs",
      "outputs": [],
      "stateMutability": "nonpayable",
      "type": "function"
    }
  ],
  "bytecode": "0x608060405234801561001057600080fd5b50615fbf80620000216000396000f3fe608060405234801561001057600080fd5b50600436106104125760003560e01c80636352211e1161022057806395d89b4111610130578063ca15c873116100b8578063dfd8f25911610087578063dfd8f2591461102e578063e985e9c514611051578063f2a7417a1461107f578063fa6cc84b146110ab578063ff2e65ab146110d157610412565b8063ca15c87314610fb7578063d547741f14610fd4578063d9b317ea14611000578063da62ade01461102657610412565b8063a7a6be96116100ff578063a7a6be9614610e6d578063aa3c6cfc14610ea8578063b88d4fde14610eb0578063befd20c614610f74578063c87b56dd14610f9a57610412565b806395d89b4114610e125780639d7c828b14610e1a578063a217fddf14610e37578063a22cb46514610e3f57610412565b80637d66a999116101b357806386481d401161018257806386481d4014610d075780638f08d9e214610d245780639010d07c14610d2c57806391d1485414610d4f5780639507d39a14610d7b57610412565b80637d66a99914610cd25780638129fc1c14610cda578063847c8e5414610ce257806384db739514610cff57610412565b806370a08231116101ef57806370a0823114610c4157806370f71efd14610c675780637a4a341214610c935780637d5f8e1e14610c9b57610412565b80636352211e14610bf75780636500aee014610c145780636a4d521d14610c315780636c0360eb14610c3957610412565b80632ee6accf116103265780634d443bb5116102ae5780635504d3d21161027d5780635504d3d214610b895780635dba06e414610b915780635e56f08314610b9957806360df35d314610bb957806360eb73e714610bc157610412565b80634d443bb514610a6b5780634f6ccce714610b16578063512d62df14610b3357806354ec7fc014610b5057610412565b806336568abe116102f557806336568abe146109ac5780633703640b146109d85780633a7d22bc146109fb57806342842e0e14610a1857806344678be114610a4e57610412565b80632ee6accf146108ee5780632f2ff15d146109375780632f745c591461096357806330947d2a1461098f57610412565b80630f0dc402116103a95780631bd2a477116103785780631bd2a4771461073f57806323b872dd14610780578063241516c4146107b6578063248a9ca3146108b15780632b5f101d146108ce57610412565b80630f0dc402146105c65780630fc00575146106f657806318160ddd1461071d57806318bb29331461073757610412565b806306fdde03116103e557806306fdde03146104c4578063081812fc14610541578063095ea7b31461057a5780630bb18546146105a657610412565b8063017fe8091461041757806301ffc9a71461044c57806305d3d93a1461048757806306fd0060146104ba575b600080fd5b6104346004803603602081101561042d57600080fd5b50356110ee565b6040805162ffffff9092168252519081900360200190f35b6104736004803603602081101561046257600080fd5b50356001600160e01b031916611133565b604080519115158252519081900360200190f35b6104a46004803603602081101561049d57600080fd5b5035611156565b6040805160ff9092168252519081900360200190f35b6104c2611198565b005b6104cc6111fa565b6040805160208082528351818301528351919283929083019185019080838360005b838110156105065781810151838201526020016104ee565b50505050905090810190601f1680156105335780820380516001836020036101000a031916815260200191505b509250505060405180910390f35b61055e6004803603602081101561055757600080fd5b5035611291565b604080516001600160a01b039092168252519081900360200190f35b6104c26004803603604081101561059057600080fd5b506001600160a01b0381351690602001356112f3565b610434600480360360208110156105bc57600080fd5b503560ff166113ce565b6104c2600480360360608110156105dc57600080fd5b81359190810190604081016020820135600160201b8111156105fd57600080fd5b82018360208201111561060f57600080fd5b803590602001918460018302840111600160201b8311171561063057600080fd5b91908080601f0160208091040260200160405190810160405280939291908181526020018383808284376000920191909152509295949360208101935035915050600160201b81111561068257600080fd5b82018360208201111561069457600080fd5b803590602001918460018302840111600160201b831117156106b557600080fd5b91908080601f016020809104026020016040519081016040528093929190818152602001838380828437600092019190915250929550611430945050505050565b6104c26004803603604081101561070c57600080fd5b508035906020013561ffff16611576565b61072561171c565b60408051918252519081900360200190f35b6104c261172d565b61075c6004803603602081101561075557600080fd5b5035611f88565b6040518082600281111561076c57fe5b60ff16815260200191505060405180910390f35b6104c26004803603606081101561079657600080fd5b506001600160a01b03813581169160208101359091169060400135611fbc565b6107d3600480360360208110156107cc57600080fd5b5035612013565b604051808060200180602001838103835285818151815260200191508051906020019080838360005b838110156108145781810151838201526020016107fc565b50505050905090810190601f1680156108415780820380516001836020036101000a031916815260200191505b50838103825284518152845160209182019186019080838360005b8381101561087457818101518382015260200161085c565b50505050905090810190601f1680156108a15780820380516001836020036101000a031916815260200191505b5094505050505060405180910390f35b610725600480360360208110156108c757600080fd5b5035612153565b6104c2600480360360208110156108e457600080fd5b503560ff16612168565b6109146004803603604081101561090457600080fd5b508035906020013560ff16612187565b604080516dffffffffffffffffffffffffffff9092168252519081900360200190f35b6104c26004803603604081101561094d57600080fd5b50803590602001356001600160a01b031661233f565b6107256004803603604081101561097957600080fd5b506001600160a01b0381351690602001356123ab565b610473600480360360208110156109a557600080fd5b50356123da565b6104c2600480360360408110156109c257600080fd5b50803590602001356001600160a01b03166123fd565b6104c2600480360360408110156109ee57600080fd5b508035906020013561245e565b6104a460048036036020811015610a1157600080fd5b50356124d3565b6104c260048036036060811015610a2e57600080fd5b506001600160a01b0381358116916020810135909116906040013561250e565b6104c260048036036020811015610a6457600080fd5b5035612529565b6104c260048036036040811015610a8157600080fd5b81359190810190604081016020820135600160201b811115610aa257600080fd5b820183602082011115610ab457600080fd5b803590602001918460018302840111600160201b83111715610ad557600080fd5b91908080601f016020809104026020016040519081016040528093929190818152602001838380828437600092019190915250929550612537945050505050565b61072560048036036020811015610b2c57600080fd5b5035612562565b6104a460048036036020811015610b4957600080fd5b503561257e565b610b6d60048036036020811015610b6657600080fd5b50356125b9565b604080516001600160401b039092168252519081900360200190f35b6107256125fa565b61072561261c565b61072560048036036020811015610baf57600080fd5b503560ff16612642565b610b6d61272f565b610bde60048036036020811015610bd757600080fd5b5035612735565b6040805163ffffffff9092168252519081900360200190f35b61055e60048036036020811015610c0d57600080fd5b503561276f565b610bde60048036036020811015610c2a57600080fd5b503561279d565b6107256127d8565b6104cc6127f3565b61072560048036036020811015610c5757600080fd5b50356001600160a01b0316612854565b6104c260048036036060811015610c7d57600080fd5b5080359060ff60208201351690604001356128bc565b610725612e9b565b610cbb60048036036020811015610cb157600080fd5b503560ff16612ea2565b6040805161ffff9092168252519081900360200190f35b610725612ebd565b6104c2612ec3565b61072560048036036020811015610cf857600080fd5b5035612fd1565b6104c2613021565b6104a460048036036020811015610d1d57600080fd5b503561395c565b610725613997565b61055e60048036036040811015610d4257600080fd5b508035906020013561399c565b61047360048036036040811015610d6557600080fd5b50803590602001356001600160a01b03166139ba565b610d9860048036036020811015610d9157600080fd5b50356139d8565b6040805161ffff8b16815260ff808b16602083015289811692820192909252878216606082015290861660808201526001600160401b03851660a082015260c08101846002811115610de657fe5b60ff16815260200183815260200182151515158152602001995050505050505050505060405180910390f35b6104cc613b70565b61072560048036036020811015610e3057600080fd5b5035613bd1565b610725613be4565b6104c260048036036040811015610e5557600080fd5b506001600160a01b0381351690602001351515613be9565b6104c260048036036080811015610e8357600080fd5b506001600160a01b038135169060208101359060ff6040820135169060600135613cee565b610725613fdb565b6104c260048036036080811015610ec657600080fd5b6001600160a01b03823581169260208101359091169160408201359190810190608081016060820135600160201b811115610f0057600080fd5b820183602082011115610f1257600080fd5b803590602001918460018302840111600160201b83111715610f3357600080fd5b91908080601f016020809104026020016040519081016040528093929190818152602001838380828437600092019190915250929550613fe2945050505050565b6104a460048036036020811015610f8a57600080fd5b50356001600160401b0316614040565b6104cc60048036036020811015610fb057600080fd5b503561407d565b61072560048036036020811015610fcd57600080fd5b5035614300565b6104c260048036036040811015610fea57600080fd5b50803590602001356001600160a01b0316614317565b6104c26004803603604081101561101657600080fd5b5060ff8135169060200135614370565b6104a4614390565b6107256004803603604081101561104457600080fd5b508035906020013561439a565b6104736004803603604081101561106757600080fd5b506001600160a01b03813581169160200135166143c9565b6104c26004803603604081101561109557600080fd5b50803590602001356001600160401b03166143f7565b6104c2600480360360408110156110c157600080fd5b5060ff8135169060200135614446565b610725600480360360208110156110e757600080fd5b5035614460565b6000816110fa81614483565b61112a60c9848154811061110a57fe5b6000918252602090912060039091020154600160201b900460ff166113ce565b91505b50919050565b6001600160e01b0319811660009081526033602052604090205460ff165b919050565b60008161116281614483565b61112a60c9848154811061117257fe5b6000918252602090912060039091020154600160381b90046001600160401b0316614040565b6111a36000336139ba565b6111e8576040805162461bcd60e51b815260206004820152601160248201527010591b5a5b881c9bdb19481b9959591959607a1b604482015290519081900360640190fd5b6111f86111f36144de565b6144e9565b565b606a8054604080516020601f60026000196101006001881615020190951694909404938401819004810282018101909252828152606093909290918301828280156112865780601f1061125b57610100808354040283529160200191611286565b820191906000526020600020905b81548152906001019060200180831161126957829003601f168201915b505050505090505b90565b600061129c8261456d565b6112d75760405162461bcd60e51b815260040180806020018281038252602c815260200180615e32602c913960400191505060405180910390fd5b506000908152606860205260409020546001600160a01b031690565b60006112fe8261276f565b9050806001600160a01b0316836001600160a01b031614156113515760405162461bcd60e51b8152600401808060200182810382526021815260200180615ee26021913960400191505060405180910390fd5b806001600160a01b0316611363614580565b6001600160a01b0316148061138457506113848161137f614580565b6143c9565b6113bf5760405162461bcd60e51b8152600401808060200182810382526038815260200180615d366038913960400191505060405180910390fd5b6113c98383614584565b505050565b600061142a6113f860016113ec60ff8616600a63ffffffff6145f216565b9063ffffffff61465916565b61141e61140f60ff8616600a63ffffffff6146b316565b6103e89063ffffffff61465916565b9063ffffffff6146b316565b92915050565b61143861470c565b6000825111801561144b5750600a825111155b6114865760405162461bcd60e51b8152600401808060200182810382526021815260200180615c956021913960400191505060405180910390fd5b600081511180156114995750600a815111155b6114d45760405162461bcd60e51b8152600401808060200182810382526022815260200180615c736022913960400191505060405180910390fd5b604080518082018252838152602080820184905260008681526101e6825292909220815180519293919261150b9284920190615a27565b5060208281015180516115249260018501920190615a27565b509050506115318361276f565b6001600160a01b03167f6d36d688d9bb5afadb8e69f797de686b5d8fd625b9b6bc73df6365da0a84a471846040518082815260200191505060405180910390a2505050565b61157e61470c565b600060c9838154811061158d57fe5b60009182526020909120600390910201805490915060ff600160201b909104811610156113c95780546000906115d690610100900461ffff90811690851663ffffffff61465916565b825490915060009060ca90600160201b900460ff1661010081106115f657fe5b015490505b8082106116ff57825460ff600160201b80830482166001018216810264ff00000000199093169290921780865593839003936101ca92900416610100811061163f57fe5b602081049190910154845463ff0000001916601f9092166101000a900460ff16630100000002178355846116728161276f565b845460408051600160201b90920460ff168252516001600160a01b0392909216917f1e8ccc52fc2f78485fd47b1731bb16a4286756d20e27ba77463ba36806772372916020908290030190a3825460ff600160201b909104811610156116f557825460ca90600160201b900460ff1661010081106116ec57fe5b015490506116fa565b600091505b6115fb565b50815461ffff9091166101000262ffff0019909116178155505050565b60006117286066614786565b905090565b6117386000336139ba565b61177d576040805162461bcd60e51b815260206004820152601160248201527010591b5a5b881c9bdb19481b9959591959607a1b604482015290519081900360640190fd5b60408051611fe0810182526000815260016020808301829052928201526002606082018190526080820181905260a0820152600360c0820181905260e08201526004610100820181905261012082018190526101408201526005610160820181905261018082018190526101a082015260066101c082018190526101e08201526007610200820181905261022082018190526102408201526008610260820181905261028082018190526102a082015260096102c082018190526102e08201819052610300820152600a6103208201819052610340820152600b610360820181905261038082018190526103a0820152600c6103c082018190526103e08201819052610400820152600d61042082018190526104408201819052610460820152600e61048082018190526104a082018190526104c0820152600f6104e08201819052610500820181905261052082015260106105408201819052610560820181905261058082015260116105a082018190526105c082018190526105e08201526012610600820181905261062082018190526106408201819052610660820152601361068082018190526106a082018190526106c082015260146106e08201819052610700820181905261072082015260156107408201819052610760820181905261078082015260166107a082018190526107c082018190526107e08201819052610800820152601761082082018190526108408201819052610860820152601861088082018190526108a082018190526108c082018190526108e08201526019610900820181905261092082018190526109408201819052610960820152601a61098082018190526109a082018190526109c0820152601b6109e08201819052610a008201819052610a208201819052610a40820152601c610a608201819052610a808201819052610aa08201819052610ac0820152601d610ae08201819052610b008201819052610b208201819052610b40820152601e610b608201819052610b808201819052610ba08201819052610bc0820152601f610be08201819052610c008201819052610c208201819052610c40820152610c608101829052610c808101829052610ca08101829052610cc08101829052610ce08101919091526021610d008201819052610d208201819052610d408201819052610d608201526022610d808201819052610da08201819052610dc08201819052610de08201819052610e008201526023610e208201819052610e408201819052610e608201819052610e808201819052610ea08201526024610ec08201819052610ee08201819052610f008201819052610f208201819052610f408201526025610f608201819052610f808201819052610fa08201819052610fc08201819052610fe08201526026611000820181905261102082018190526110408201819052611060820181905261108082015260276110a082018190526110c082018190526110e08201819052611100820181905261112082018190526111408201526028611160820181905261118082018190526111a082018190526111c082018190526111e08201819052611200820152602961122082018190526112408201819052611260820181905261128082018190526112a082018190526112c082018190526112e0820152602a611300820181905261132082018190526113408201819052611360820181905261138082018190526113a082018190526113c0820152602b6113e08201819052611400820181905261142082018190526114408201819052611460820181905261148082018190526114a082018190526114c0820152602c6114e08201819052611500820181905261152082018190526115408201819052611560820181905261158082018190526115a082018190526115c082018190526115e0820152602d611600820181905261162082018190526116408201819052611660820181905261168082018190526116a082018190526116c082018190526116e082018190526117008201819052611720820152602e6117408201819052611760820181905261178082018190526117a082018190526117c082018190526117e08201819052611800820181905261182082018190526118408201819052611860820181905261188082018190526118a082018190526118c0820152602f6118e08201819052611900820181905261192082018190526119408201819052611960820181905261198082018190526119a082018190526119c082018190526119e08201819052611a008201819052611a208201819052611a408201819052611a608201819052611a808201819052611aa08201819052611ac08201819052611ae08201819052611b008201819052611b208201526030611b408201819052611b608201819052611b808201819052611ba08201819052611bc08201819052611be08201819052611c008201819052611c208201819052611c408201819052611c608201819052611c808201819052611ca08201819052611cc08201819052611ce08201819052611d008201819052611d208201819052611d408201819052611d608201819052611d808201819052611da08201819052611dc08201819052611de08201819052611e008201819052611e208201819052611e408201819052611e608201819052611e808201819052611ea08201819052611ec08201819052611ee08201819052611f008201819052611f208201819052611f408201819052611f608201819052611f808201819052611fa08201819052611fc0820152611f85906101ca9060ff615aa5565b50565b600081611f9481614483565b60c98381548110611fa157fe5b600091825260209091206003909102015460ff169392505050565b611fcd611fc7614580565b82614791565b6120085760405162461bcd60e51b8152600401808060200182810382526031815260200180615f036031913960400191505060405180910390fd5b6113c983838361482d565b6101e66020908152600091825260409182902080548351601f600260001961010060018616150201909316929092049182018490048402810184019094528084529092918391908301828280156120ab5780601f10612080576101008083540402835291602001916120ab565b820191906000526020600020905b81548152906001019060200180831161208e57829003601f168201915b505050505090806001018054600181600116156101000203166002900480601f0160208091040260200160405190810160405280929190818152602001828054600181600116156101000203166002900480156121495780601f1061211e57610100808354040283529160200191612149565b820191906000526020600020905b81548152906001019060200180831161212c57829003601f168201915b5050505050905082565b60009081526097602052604090206002015490565b61217061470c565b6101e7805460ff191660ff92909216919091179055565b600061219161470c565b600060c984815481106121a057fe5b60009182526020822060039091020180549092506121ce906001600160401b03600160381b90910416614040565b90508360ff168160ff161015612221576040805162461bcd60e51b81526020600482015260136024820152724e6f7420656e6f756768207374616d696e612160681b604482015290519081900360640190fd5b815460ff80861661012c02916001600160401b03600160381b909104169060c89084161061228d57816001600160401b031661225b61272f565b85546001600160401b0391821642039290920116600160381b0267ffffffffffffffff60381b199091161784556122bb565b83546001600160401b03600160381b808304821685019091160267ffffffffffffffff60381b199091161784555b8354603082901b6dffffffffffffffff00000000000016906018906122e990600160201b900460ff166113ce565b955462ffffff96871690911b600160301b820460101b62ff0000166301000000830460081b61ff001660ff600160281b9094048416171790911617909416939093176001600160401b0316935050505092915050565b6000828152609760205260409020600201546123629061235d614580565b6139ba565b61239d5760405162461bcd60e51b815260040180806020018281038252602f815260200180615c12602f913960400191505060405180910390fd5b6123a7828261498b565b5050565b6001600160a01b03821660009081526065602052604081206123d3908363ffffffff6149fa16565b9392505050565b6000816123e681614483565b60c86123f184611156565b60ff1610159392505050565b612405614580565b6001600160a01b0316816001600160a01b0316146124545760405162461bcd60e51b815260040180806020018281038252602f815260200180615f5b602f913960400191505060405180910390fd5b6123a78282614a06565b61246661470c565b6124978160c9848154811061247757fe5b6000918252602090912060039091020154610100900461ffff1690614659565b60c983815481106124a457fe5b906000526020600020906003020160000160016101000a81548161ffff021916908361ffff1602179055505050565b6000816124df81614483565b60c983815481106124ec57fe5b6000918252602090912060039091020154600160281b900460ff169392505050565b6113c983838360405180602001604052806000815250613fe2565b61253161470c565b6101db55565b61253f61470c565b806101d2836005811061254e57fe5b0190805190602001906113c9929190615a27565b60008061257660668463ffffffff614a7516565b509392505050565b60008161258a81614483565b60c9838154811061259757fe5b6000918252602090912060039091020154600160301b900460ff169392505050565b6000816125c581614483565b60c983815481106125d257fe5b6000918252602090912060039091020154600160381b90046001600160401b03169392505050565b604080516923a0a6a2afa0a226a4a760b11b8152905190819003600a01902081565b604080516d1393d7d3d5d3915117d31253525560921b8152905190819003600e01902081565b60008082600281111561265157fe5b14806126685750600182600281111561266657fe5b145b8061267e5750600282600281111561267c57fe5b145b6126c8576040805162461bcd60e51b8152602060048201526016602482015275496e76616c6964206f70657261746f7220747970652160501b604482015290519081900360640190fd5b60005b60c95481101561112d578260028111156126e157fe5b60c982815481106126ee57fe5b600091825260209091206003909102015460ff16600281111561270d57fe5b14156127275761272482600163ffffffff61465916565b91505b6001016126cb565b61ea6090565b60008161274181614483565b60c9838154811061274e57fe5b6000918252602090912060039091020154610100900461ffff169392505050565b600061142a82604051806060016040528060298152602001615d98602991396066919063ffffffff614a9316565b6000816127a981614483565b60c983815481106127b657fe5b60009182526020909120600390910201546301000000900460ff169392505050565b604051806027615f3482396027019050604051809103902081565b606d8054604080516020601f60026000196101006001881615020190951694909404938401819004810282018101909252828152606093909290918301828280156112865780601f1061125b57610100808354040283529160200191611286565b60006001600160a01b03821661289b5760405162461bcd60e51b815260040180806020018281038252602a815260200180615d6e602a913960400191505060405180910390fd5b6001600160a01b038216600090815260656020526040902061142a90614786565b6128c461470c565b600060c984815481106128d357fe5b906000526020600020906003020190508260ff166000141561296b578054600160281b900460ff16600061290981600386614aa0565b90508160ff168160ff161415612945578060ff1660031461293d5761293860ff8216600163ffffffff61465916565b612940565b60005b612947565b805b835460ff91909116600160281b0265ff00000000001990911617835550612df49050565b8260ff1660011415612b31578054600160301b900460ff16600061299181600486614aa0565b90508160ff168160ff1614156129cd578060ff166004146129c5576129c060ff8216600163ffffffff61465916565b6129c8565b60005b6129cf565b805b835466ff0000000000001916600160301b60ff928316810291909117808655600092612a38926101dc92041660058110612a0557fe5b015485546101e190600160301b900460ff1660058110612a2157fe5b0154612a33884263ffffffff61465916565b614aa0565b8454909150612b299088906101d290600160301b900460ff1660058110612a5b57fe5b01612a6584614b0a565b6040516020018083805460018160011615610100020316600290048015612ac35780601f10612aa1576101008083540402835291820191612ac3565b820191906000526020600020905b815481529060010190602001808311612aaf575b5050825160208401908083835b60208310612aef5780518252601f199092019160209182019101612ad0565b6001836020036101000a03801982511681845116808217855250505050505090500192505050604051602081830303815290604052614be4565b505050612df4565b8260ff1660021415612df4576060612b488561407d565b8254909150600090612b90906101dc90600160301b900460ff1660058110612b6c57fe5b015484546101e190600160301b900460ff1660058110612b8857fe5b015486614aa0565b83549091506060906101d290600160301b900460ff1660058110612bb057fe5b01612bba83614b0a565b6040516020018083805460018160011615610100020316600290048015612c185780601f10612bf6576101008083540402835291820191612c18565b820191906000526020600020905b815481529060010190602001808311612c04575b5050825160208401908083835b60208310612c445780518252601f199092019160209182019101612c25565b6001836020036101000a038019825116818451168082178552505050505050905001925050506040516020818303038152906040529050806040516020018082805190602001908083835b60208310612cae5780518252601f199092019160209182019101612c8f565b6001836020036101000a03801982511681845116808217855250505050505090500191505060405160208183030381529060405280519060200120836040516020018082805190602001908083835b60208310612d1c5780518252601f199092019160209182019101612cfd565b6001836020036101000a0380198251168184511680821785525050505050509050019150506040516020818303038152906040528051906020012014612d6b57612d668782614be4565b612df0565b83546101e190600160301b900460ff1660058110612d8557fe5b0154821415612dbc57835460019250612d669088906101d290600160301b900460ff1660058110612db257fe5b01612a6585614b0a565b612dcd82600163ffffffff61465916565b8454909250612df09088906101d290600160301b900460ff1660058110612db257fe5b5050505b600281015460ff16612e42576101e75460ff166103e8612e1a844263ffffffff61465916565b81612e2157fe5b0660ff16148160020160006101000a81548160ff0219169083151502179055505b612e4b8461276f565b6040805186815260ff8616602082015281516001600160a01b0393909316927fcf0c73e0cc71736ad32250303fee9b34bf87c438c21619846a8a9e283dfd9dec929181900390910190a250505050565b6201518081565b600060ca8260ff166101008110612eb557fe5b015492915050565b61012c81565b600054610100900460ff1680612edc5750612edc614c47565b80612eea575060005460ff16155b612f255760405162461bcd60e51b815260040180806020018281038252602e815260200180615dc1602e913960400191505060405180910390fd5b600054610100900460ff16158015612f50576000805460ff1961ff0019909116610100171660011790555b612faa6040518060400160405280601781526020017f43697068657253686f6f74657273206f70657261746f720000000000000000008152506040518060400160405280600381526020016243534f60e81b815250614c58565b612fb2614d15565b612fbd60003361239d565b8015611f85576000805461ff001916905550565b60008080613007612feb426201518063ffffffff614db516565b60008681526101d760205260409020549063ffffffff614e1216565b9150915081613017576000613019565b805b949350505050565b61302c6000336139ba565b613072576040805162461bcd60e51b815260206004820152601260248201527120b236b4b7103937b632903732b2b232b21760711b604482015290519081900360640190fd5b60408051611fe08101825260108152601160208201526012918101919091526013606082015260146080820152601660a0820152601860c0820152601a60e0820152601c610100820152601e610120820152602161014082015260246101608201526027610180820152602a6101a0820152602e6101c082015260326101e08201526037610200820152603c61022082015260426102408201526048610260820152604f61028082015260566102a0820152605e6102c082015260676102e08201526071610300820152607c6103208201526088610340820152609561036082015260a361038082015260b26103a082015260c26103c082015260d36103e082015260e561040082015260f861042082015261010c61044082015261012161046082015261013761048082015261014e6104a08201526101666104c082015261017f6104e08201526101996105008201526101b46105208201526101d06105408201526101ed61056082015261020b61058082015261022a6105a082015261024a6105c082015261026b6105e082015261028d6106008201526102b06106208201526102d46106408201526102f961066082015261031f6106808201526103466106a082015261036e6106c08201526103976106e08201526103c16107008201526103ec610720820152610418610740820152610445610760808301919091526104736107808301526104a26107a08301526104d26107c08301526105036107e083015261053561080083015261056861082083015261059c6108408301526105d161086083015261060761088083015261063e6108a08301526106766108c08301526106af6108e08301526106e96109008301526107246109208084019190915261094083019190915261079d6109608301526107db61098083015261081a6109a083015261085a6109c083015261089b6109e08301526108dd610a00830152610a20820152610964610a408201526109a9610a608201526109ef610a80820152610a36610aa0820152610a7e610ac0820152610ac7610ae0820152610b11610b00820152610b5c610b20820152610ba8610b40820152610bf5610b60820152610c43610b80820152610c92610ba0820152610ce2610bc0820152610d33610be0820152610d85610c00820152610dd8610c20820152610e2c610c40820152610e81610c60820152610ed7610c80820152610f2e610ca0820152610f86610cc0820152610fdf610ce0820152611039610d00820152611094610d208201526110f0610d4082015261114d610d608201526111ab610d8082015261120a610da082015261126a610dc08201526112cb610de082015261132d610e00820152611390610e208201526113f4610e40820152611459610e608201526114bf610e80820152611526610ea082015261158e610ec08201526115f7610ee0820152611661610f008201526116cc610f20820152611738610f408201526117a5610f60820152611813610f80820152611882610fa08201526118f2610fc0820152611963610fe08201526119d5611000820152611a48611020820152611abc611040820152611b31611060820152611ba7611080820152611c1e6110a0820152611c966110c0820152611d0f6110e0820152611d89611100820152611e04611120820152611e806111408201819052611efd611160830152611f7b611180830152611ffa6111a083015261207a6111c08301526120fb6111e083015261217d61120083015261220061122083015261228461124083015261230961126083015261238f6112808301526124166112a083015261249e6112c08301526125276112e08301526125b161130083015261263c6113208301526126c86113408301526127556113608301526127e36113808301526128726113a08301526129026113c08301526129936113e0830152612a25611400830152612ab8611420830152612b4c611440830152612be1611460830152612c77611480830152612d0e6114a0830152612da66114c0830152612e3f6114e0830152612ed9611500830152612f746115208301526130106115408301526130ad61156083015261314b6115808301526131ea6115a083015261328a6115c083015261332b6115e08301526133cd6116008301526134706116208301526135146116408301526135b961166083015261365f6116808301526137066116a08301526137ae6116c08301526138576116e08301526139016117008301526139ac611720830152613a58611740830152613b05611760830152613bb3611780830152613c626117a0830152613d126117c0830152613dc36117e0830152613e75611800830152613f28611820830152613fdc6118408301526140916118608301526141476118808301526141fe6118a08301526142b66118c083015261436f6118e08301526144296119008301526144e46119208301526145a061194083015261465d61196083015261471b6119808301526147da6119a083015261489a6119c083015261495b6119e0830152614a1d611a00830152614ae0611a20830152614ba4611a40830152614c69611a60830152614d2f611a80830152614df6611aa0830152614ebe611ac0830152614f87611ae0830152615051611b0083015261511c611b208301526151e8611b408301526152b5611b60830152615383611b80830152615452611ba0830152615522611bc08301526155f3611be08301526156c5611c00830152615798611c2083015261586c611c40830152615941611c60830152615a17611c80830152615aee611ca0830152615bc6611cc0830152615c9f611ce0830152615d79611d00830152615e54611d20830152615f30611d4083015261600d611d608301526160eb611d808301526161ca611da08301526162aa611dc083015261638b611de083015261646d611e00830152616550611e20830152616634611e40830152616719611e608301526167ff908201526168e6611ea08201526169ce611ec0820152616ab7611ee0820152616ba1611f00820152616c8c611f20820152616d78611f40820152616e65611f60820152616f53611f80820152617042611fa0820152617132611fc0820152611f859060ca9060ff615b34565b60008161396881614483565b60c9838154811061397557fe5b6000918252602090912060039091020154600160201b900460ff169392505050565b60c881565b60008281526097602052604081206123d3908363ffffffff6149fa16565b60008281526097602052604081206123d3908363ffffffff614e3416565b60008060008060008060008060006139ee615b69565b60c98b815481106139fb57fe5b600091825260209091206040805161012081019091526003909202018054829060ff166002811115613a2957fe5b6002811115613a3457fe5b81526020016000820160019054906101000a900461ffff1661ffff1661ffff1681526020016000820160039054906101000a900460ff1660ff1660ff1681526020016000820160049054906101000a900460ff1660ff1660ff1681526020016000820160059054906101000a900460ff1660ff1660ff1681526020016000820160069054906101000a900460ff1660ff1660ff1681526020016000820160079054906101000a90046001600160401b03166001600160401b03166001600160401b03168152602001600182015481526020016002820160009054906101000a900460ff161515151581525050905080602001518160400151826060015183608001518460a001518560c0015186600001518760e00151886101000151995099509950995099509950995099509950509193959799909294969850565b606b8054604080516020601f60026000196101006001881615020190951694909404938401819004810282018101909252828152606093909290918301828280156112865780601f1061125b57610100808354040283529160200191611286565b6101d76020526000908152604090205481565b600081565b613bf1614580565b6001600160a01b0316826001600160a01b03161415613c57576040805162461bcd60e51b815260206004820152601960248201527f4552433732313a20617070726f766520746f2063616c6c657200000000000000604482015290519081900360640190fd5b8060696000613c64614580565b6001600160a01b03908116825260208083019390935260409182016000908120918716808252919093529120805460ff191692151592909217909155613ca8614580565b60408051841515815290516001600160a01b0392909216917f17307eab39ab6107e8899845ad3d59bd9653f200f220920489ca2b5937696c319181900360200190a35050565b613cf661470c565b60c9546101d9544314613d0a576101da8190555b436101d9556101ca54600090819060ff1681613d288160048a614aa0565b90506000613d42816003612a338c4263ffffffff61465916565b90506000613d67613d5161272f565b42906001600160401b031663ffffffff614db516565b905060006103e8613d7e8c4263ffffffff61465916565b81613d8557fe5b0690506000613db96101dc8660ff1660058110613d9e57fe5b01546101e18760ff1660058110613db157fe5b01548e614aa0565b905060c96040518061012001604052808d6002811115613dd557fe5b815261ffff8b1660208083019190915260ff808b1660408401528b81166060840152888116608084015289811660a08401526001600160401b03881660c084015260e083018f90526101e7548782169116146101009092019190915282546001818101855560009485529190932082516003909402018054929390929091839160ff191690836002811115613e6657fe5b02179055506020820151815460408401516060850151608086015160a087015160c088015162ffff001990951661010061ffff90971687021763ff0000001916630100000060ff958616021764ff000000001916600160201b938516939093029290921765ff00000000001916600160281b918416919091021766ff0000000000001916600160301b92909116919091021767ffffffffffffffff60381b1916600160381b6001600160401b039092169190910217825560e08301516001808401919091559201516002909101805460ff19169115159190911790558b6002811115613f4e57fe5b1415613f775760008a81526101d860209081526040822080546001810182559083529120018990555b613f818d8a614e49565b613f96896101d28760ff1660058110612a5b57fe5b6040516001600160a01b038e16908a907f4589a3573ad46836d8192432d52ee2523357610d87f3cc4cc61da7ea362989f790600090a350505050505050505050505050565b6101db5481565b613ff3613fed614580565b83614791565b61402e5760405162461bcd60e51b8152600401808060200182810382526031815260200180615f036031913960400191505060405180910390fd5b61403a84848484614f83565b50505050565b600042826001600160401b0316111561405b57506000611151565b61012c6001600160401b03831642030460c881111561142a575060c892915050565b60606140888261456d565b6140c35760405162461bcd60e51b815260040180806020018281038252602f815260200180615eb3602f913960400191505060405180910390fd5b6000828152606c602090815260409182902080548351601f60026000196101006001861615020190931692909204918201849004840281018401909452808452606093928301828280156141585780601f1061412d57610100808354040283529160200191614158565b820191906000526020600020905b81548152906001019060200180831161413b57829003601f168201915b5050505050905060606141696127f3565b905080516000141561417d57509050611151565b81511561423e5780826040516020018083805190602001908083835b602083106141b85780518252601f199092019160209182019101614199565b51815160209384036101000a600019018019909216911617905285519190930192850191508083835b602083106142005780518252601f1990920191602091820191016141e1565b6001836020036101000a0380198251168184511680821785525050505050509050019250505060405160208183030381529060405292505050611151565b8061424885614b0a565b6040516020018083805190602001908083835b6020831061427a5780518252601f19909201916020918201910161425b565b51815160209384036101000a600019018019909216911617905285519190930192850191508083835b602083106142c25780518252601f1990920191602091820191016142a3565b6001836020036101000a0380198251168184511680821785525050505050509050019250505060405160208183030381529060405292505050919050565b600081815260976020526040812061142a90614786565b6000828152609760205260409020600201546143359061235d614580565b6124545760405162461bcd60e51b8152600401808060200182810382526030815260200180615d066030913960400191505060405180910390fd5b61437861470c565b806101dc8360ff166005811061438a57fe5b01555050565b6101e75460ff1681565b6101d860205281600052604060002081815481106143b457fe5b90600052602060002001600091509150505481565b6001600160a01b03918216600090815260696020908152604080832093909416825291909152205460ff1690565b6143ff61470c565b8060c9838154811061440d57fe5b906000526020600020906003020160000160076101000a8154816001600160401b0302191690836001600160401b031602179055505050565b61444e61470c565b806101e18360ff166005811061438a57fe5b60008181526101d7602052604081205461142a906201518063ffffffff61465916565b6101da548110806144965750436101d954105b611f85576040805162461bcd60e51b81526020600482015260146024820152730546f6f20667265736820666f72206c6f6f6b75760641b604482015290519081900360640190fd5b63398b9a5d60e21b90565b6001600160e01b03198082161415614548576040805162461bcd60e51b815260206004820152601c60248201527f4552433136353a20696e76616c696420696e7465726661636520696400000000604482015290519081900360640190fd5b6001600160e01b0319166000908152603360205260409020805460ff19166001179055565b600061142a60668363ffffffff614fd516565b3390565b600081815260686020526040902080546001600160a01b0319166001600160a01b03841690811790915581906145b98261276f565b6001600160a01b03167f8c5be1e5ebec7d5bd14f71427d1e84f3dd0314c0f7b2291e5b200ac8c7c3b92560405160405180910390a45050565b6000808211614648576040805162461bcd60e51b815260206004820152601a60248201527f536166654d6174683a206469766973696f6e206279207a65726f000000000000604482015290519081900360640190fd5b81838161465157fe5b049392505050565b6000828201838110156123d3576040805162461bcd60e51b815260206004820152601b60248201527f536166654d6174683a206164646974696f6e206f766572666c6f770000000000604482015290519081900360640190fd5b6000826146c25750600061142a565b828202828482816146cf57fe5b04146123d35760405162461bcd60e51b8152600401808060200182810382526021815260200180615e116021913960400191505060405180910390fd5b604080516923a0a6a2afa0a226a4a760b11b8152905190819003600a01902061473590336139ba565b6111f8576040805162461bcd60e51b815260206004820152601760248201527f47616d652061646d696e20726f6c65206e65656465642e000000000000000000604482015290519081900360640190fd5b600061142a82614fe1565b600061479c8261456d565b6147d75760405162461bcd60e51b815260040180806020018281038252602c815260200180615cda602c913960400191505060405180910390fd5b60006147e28361276f565b9050806001600160a01b0316846001600160a01b0316148061481d5750836001600160a01b031661481284611291565b6001600160a01b0316145b80613019575061301981856143c9565b826001600160a01b03166148408261276f565b6001600160a01b0316146148855760405162461bcd60e51b8152600401808060200182810382526029815260200180615e8a6029913960400191505060405180910390fd5b6001600160a01b0382166148ca5760405162461bcd60e51b8152600401808060200182810382526024815260200180615cb66024913960400191505060405180910390fd5b6148d5838383614fe5565b6148e0600082614584565b6001600160a01b0383166000908152606560205260409020614908908263ffffffff61516c16565b506001600160a01b0382166000908152606560205260409020614931908263ffffffff61517816565b506149446066828463ffffffff61518416565b5080826001600160a01b0316846001600160a01b03167fddf252ad1be2c89b69c2b068fc378daa952ba7f163c4a11628f55a4df523b3ef60405160405180910390a4505050565b60008281526097602052604090206149a9908263ffffffff61519a16565b156123a7576149b6614580565b6001600160a01b0316816001600160a01b0316837f2f8788117e7eff1d82e926ec794901d17c78024a50270940304540a733656f0d60405160405180910390a45050565b60006123d383836151af565b6000828152609760205260409020614a24908263ffffffff61521316565b156123a757614a31614580565b6001600160a01b0316816001600160a01b0316837ff6391f5c32d9c69d2a47ea670b442974b53935d1edc7fd64eb21e047a839171b60405160405180910390a45050565b6000808080614a848686615228565b909450925050505b9250929050565b60006130198484846152a3565b600080614ab860016113ec868863ffffffff614db516565b6040805160208082018790528251808303820181529183019092528051910120909150600090614aee908363ffffffff61536d16565b9050614b00818763ffffffff61465916565b9695505050505050565b606081614b2f57506040805180820190915260018152600360fc1b6020820152611151565b8160005b8115614b4757600101600a82049150614b33565b6060816001600160401b0381118015614b5f57600080fd5b506040519080825280601f01601f191660200182016040528015614b8a576020820181803683370190505b50859350905060001982015b8315614bdb57600a840660300160f81b82828060019003935081518110614bb957fe5b60200101906001600160f81b031916908160001a905350600a84049350614b96565b50949350505050565b614bed8261456d565b614c285760405162461bcd60e51b815260040180806020018281038252602c815260200180615e5e602c913960400191505060405180910390fd5b6000828152606c6020908152604090912082516113c992840190615a27565b6000614c52306153d4565b15905090565b600054610100900460ff1680614c715750614c71614c47565b80614c7f575060005460ff16155b614cba5760405162461bcd60e51b815260040180806020018281038252602e815260200180615dc1602e913960400191505060405180910390fd5b600054610100900460ff16158015614ce5576000805460ff1961ff0019909116610100171660011790555b614ced614d15565b614cf56153da565b614cff8383615477565b80156113c9576000805461ff0019169055505050565b600054610100900460ff1680614d2e5750614d2e614c47565b80614d3c575060005460ff16155b614d775760405162461bcd60e51b815260040180806020018281038252602e815260200180615dc1602e913960400191505060405180910390fd5b600054610100900460ff16158015612fbd576000805460ff1961ff0019909116610100171660011790558015611f85576000805461ff001916905550565b600082821115614e0c576040805162461bcd60e51b815260206004820152601e60248201527f536166654d6174683a207375627472616374696f6e206f766572666c6f770000604482015290519081900360640190fd5b50900390565b60008083831115614e2857506000905080614a8c565b50600193919092039150565b60006123d3836001600160a01b03841661555c565b6001600160a01b038216614ea4576040805162461bcd60e51b815260206004820181905260248201527f4552433732313a206d696e7420746f20746865207a65726f2061646472657373604482015290519081900360640190fd5b614ead8161456d565b15614eff576040805162461bcd60e51b815260206004820152601c60248201527f4552433732313a20746f6b656e20616c7265616479206d696e74656400000000604482015290519081900360640190fd5b614f0b60008383614fe5565b6001600160a01b0382166000908152606560205260409020614f33908263ffffffff61517816565b50614f466066828463ffffffff61518416565b5060405181906001600160a01b038416906000907fddf252ad1be2c89b69c2b068fc378daa952ba7f163c4a11628f55a4df523b3ef908290a45050565b614f8e84848461482d565b614f9a84848484615574565b61403a5760405162461bcd60e51b8152600401808060200182810382526032815260200180615c416032913960400191505060405180910390fd5b60006123d3838361555c565b5490565b6001600160a01b0382161580159061500857506001600160a01b03821661dead14155b801561503e5750604080516d1393d7d3d5d3915117d31253525560921b8152905190819003600e01902061503c90836139ba565b155b156150a2576101db5461505083612854565b106150a2576040805162461bcd60e51b815260206004820152601f60248201527f4f6e6c79206c696d69746564206f70657261746f727320616c6c6f7765642e00604482015290519081900360640190fd5b6001600160a01b038316158015906150c257506001600160a01b03821615155b156113c9576150da426201518063ffffffff614db516565b60008281526101d7602052604090205410615130576040805162461bcd60e51b81526020600482015260116024820152702a3930b739b332b91031b7b7b63237bbb760791b604482015290519081900360640190fd5b6151526040518080615f346027913960270190506040518091039020836139ba565b6113c95760009081526101d7602052604090204290555050565b60006123d383836156f4565b60006123d383836157ba565b600061301984846001600160a01b038516615804565b60006123d3836001600160a01b0384166157ba565b815460009082106151f15760405162461bcd60e51b8152600401808060200182810382526022815260200180615bf06022913960400191505060405180910390fd5b82600001828154811061520057fe5b9060005260206000200154905092915050565b60006123d3836001600160a01b0384166156f4565b81546000908190831061526c5760405162461bcd60e51b8152600401808060200182810382526022815260200180615def6022913960400191505060405180910390fd5b600084600001848154811061527d57fe5b906000526020600020906002020190508060000154816001015492509250509250929050565b6000828152600184016020526040812054828161533e5760405162461bcd60e51b81526004018080602001828103825283818151815260200191508051906020019080838360005b838110156153035781810151838201526020016152eb565b50505050905090810190601f1680156153305780820380516001836020036101000a031916815260200191505b509250505060405180910390fd5b5084600001600182038154811061535157fe5b9060005260206000209060020201600101549150509392505050565b60008082116153c3576040805162461bcd60e51b815260206004820152601860248201527f536166654d6174683a206d6f64756c6f206279207a65726f0000000000000000604482015290519081900360640190fd5b8183816153cc57fe5b069392505050565b3b151590565b600054610100900460ff16806153f357506153f3614c47565b80615401575060005460ff16155b61543c5760405162461bcd60e51b815260040180806020018281038252602e815260200180615dc1602e913960400191505060405180910390fd5b600054610100900460ff16158015615467576000805460ff1961ff0019909116610100171660011790555b612fbd6301ffc9a760e01b6144e9565b600054610100900460ff16806154905750615490614c47565b8061549e575060005460ff16155b6154d95760405162461bcd60e51b815260040180806020018281038252602e815260200180615dc1602e913960400191505060405180910390fd5b600054610100900460ff16158015615504576000805460ff1961ff0019909116610100171660011790555b825161551790606a906020860190615a27565b50815161552b90606b906020850190615a27565b5061553c6380ac58cd60e01b6144e9565b61554c635b5e139f60e01b6144e9565b614cff63780e9d6360e01b6144e9565b60009081526001919091016020526040902054151590565b6000615588846001600160a01b03166153d4565b61559457506001613019565b60606156ba630a85bd0160e11b6155a9614580565b88878760405160240180856001600160a01b03166001600160a01b03168152602001846001600160a01b03166001600160a01b0316815260200183815260200180602001828103825283818151815260200191508051906020019080838360005b8381101561562257818101518382015260200161560a565b50505050905090810190601f16801561564f5780820380516001836020036101000a031916815260200191505b5095505050505050604051602081830303815290604052906001600160e01b0319166020820180516001600160e01b038381831617835250505050604051806060016040528060328152602001615c41603291396001600160a01b038816919063ffffffff61589b16565b905060008180602001905160208110156156d357600080fd5b50516001600160e01b031916630a85bd0160e11b1492505050949350505050565b600081815260018301602052604081205480156157b0578354600019808301919081019060009087908390811061572757fe5b906000526020600020015490508087600001848154811061574457fe5b60009182526020808320909101929092558281526001898101909252604090209084019055865487908061577457fe5b6001900381819060005260206000200160009055905586600101600087815260200190815260200160002060009055600194505050505061142a565b600091505061142a565b60006157c6838361555c565b6157fc5750815460018181018455600084815260208082209093018490558454848252828601909352604090209190915561142a565b50600061142a565b6000828152600184016020526040812054806158695750506040805180820182528381526020808201848152865460018181018955600089815284812095516002909302909501918255915190820155865486845281880190925292909120556123d3565b8285600001600183038154811061587c57fe5b90600052602060002090600202016001018190555060009150506123d3565b60606130198484600085856158af856153d4565b615900576040805162461bcd60e51b815260206004820152601d60248201527f416464726573733a2063616c6c20746f206e6f6e2d636f6e7472616374000000604482015290519081900360640190fd5b60006060866001600160a01b031685876040518082805190602001908083835b6020831061593f5780518252601f199092019160209182019101615920565b6001836020036101000a03801982511681845116808217855250505050505090500191505060006040518083038185875af1925050503d80600081146159a1576040519150601f19603f3d011682016040523d82523d6000602084013e6159a6565b606091505b50915091506159b68282866159c1565b979650505050505050565b606083156159d05750816123d3565b8251156159e05782518084602001fd5b60405162461bcd60e51b81526020600482018181528451602484015284518593919283926044019190850190808383600083156153035781810151838201526020016152eb565b828054600181600116156101000203166002900490600052602060002090601f016020900481019282601f10615a6857805160ff1916838001178555615a95565b82800160010185558215615a95579182015b82811115615a95578251825591602001919060010190615a7a565b50615aa1929150615bb7565b5090565b600883019183908215615b285791602002820160005b83821115615af957835183826101000a81548160ff021916908360ff1602179055509260200192600101602081600001049283019260010302615abb565b8015615b265782816101000a81549060ff0219169055600101602081600001049283019260010302615af9565b505b50615aa1929150615bd1565b826101008101928215615a95579160200282015b82811115615a95578251829061ffff16905591602001919060010190615b48565b604080516101208101909152806000815260006020820181905260408201819052606082018190526080820181905260a0820181905260c0820181905260e082018190526101009091015290565b61128e91905b80821115615aa15760008155600101615bbd565b61128e91905b80821115615aa157805460ff19168155600101615bd756fe456e756d657261626c655365743a20696e646578206f7574206f6620626f756e6473416363657373436f6e74726f6c3a2073656e646572206d75737420626520616e2061646d696e20746f206772616e744552433732313a207472616e7366657220746f206e6f6e20455243373231526563656976657220696d706c656d656e74657246616d696c79206e616d652063686172616374657273206c696d6974206572726f724669727374206e616d652063686172616374657273206c696d6974206572726f724552433732313a207472616e7366657220746f20746865207a65726f20616464726573734552433732313a206f70657261746f7220717565727920666f72206e6f6e6578697374656e7420746f6b656e416363657373436f6e74726f6c3a2073656e646572206d75737420626520616e2061646d696e20746f207265766f6b654552433732313a20617070726f76652063616c6c6572206973206e6f74206f776e6572206e6f7220617070726f76656420666f7220616c6c4552433732313a2062616c616e636520717565727920666f7220746865207a65726f20616464726573734552433732313a206f776e657220717565727920666f72206e6f6e6578697374656e7420746f6b656e496e697469616c697a61626c653a20636f6e747261637420697320616c726561647920696e697469616c697a6564456e756d657261626c654d61703a20696e646578206f7574206f6620626f756e6473536166654d6174683a206d756c7469706c69636174696f6e206f766572666c6f774552433732313a20617070726f76656420717565727920666f72206e6f6e6578697374656e7420746f6b656e4552433732314d657461646174613a2055524920736574206f66206e6f6e6578697374656e7420746f6b656e4552433732313a207472616e73666572206f6620746f6b656e2074686174206973206e6f74206f776e4552433732314d657461646174613a2055524920717565727920666f72206e6f6e6578697374656e7420746f6b656e4552433732313a20617070726f76616c20746f2063757272656e74206f776e65724552433732313a207472616e736665722063616c6c6572206973206e6f74206f776e6572206e6f7220617070726f766564524543454956455f444f45535f4e4f545f5345545f5452414e534645525f54494d455354414d50416363657373436f6e74726f6c3a2063616e206f6e6c792072656e6f756e636520726f6c657320666f722073656c66a26469706673582212208c438e83f0f8801dff8584255ca6e23fc010bc01ab3747887ec4488ae6e0166c64736f6c63430006050033",
  "immutableReferences": {},
  "source": "// SPDX-License-Identifier: MIT\npragma solidity ^0.6.0;\n\nimport '@openzeppelin/contracts-upgradeable/proxy/Initializable.sol';\nimport '@openzeppelin/contracts-upgradeable/token/ERC721/ERC721Upgradeable.sol';\nimport '@openzeppelin/contracts-upgradeable/access/AccessControlUpgradeable.sol';\nimport '@openzeppelin/contracts/math/SafeMath.sol';\nimport './util.sol';\nimport './interfaces/ITransferCooldownable.sol';\nimport './interfaces/ICharacter.sol';\n\ncontract Characters is Initializable, ERC721Upgradeable, AccessControlUpgradeable, ITransferCooldownable, ICharacter {\n    using SafeMath for uint16;\n    using SafeMath for uint8;\n\n    bytes32 public constant GAME_ADMIN = keccak256('GAME_ADMIN');\n    bytes32 public constant NO_OWNED_LIMIT = keccak256('NO_OWNED_LIMIT');\n    bytes32 public constant RECEIVE_DOES_NOT_SET_TRANSFER_TIMESTAMP =\n        keccak256('RECEIVE_DOES_NOT_SET_TRANSFER_TIMESTAMP');\n\n    uint256 public constant TRANSFER_COOLDOWN = 1 days;\n\n    function initialize() public initializer {\n        __ERC721_init('CipherShooters operator', 'CSO');\n        __AccessControl_init_unchained();\n\n        _setupRole(DEFAULT_ADMIN_ROLE, msg.sender);\n    }\n\n    function setExperienceTable() public {\n        require(hasRole(DEFAULT_ADMIN_ROLE, msg.sender), 'Admin role needed.');\n\n        experienceTable = [\n            16,\n            17,\n            18,\n            19,\n            20,\n            22,\n            24,\n            26,\n            28,\n            30,\n            33,\n            36,\n            39,\n            42,\n            46,\n            50,\n            55,\n            60,\n            66,\n            72,\n            79,\n            86,\n            94,\n            103,\n            113,\n            124,\n            136,\n            149,\n            163,\n            178,\n            194,\n            211,\n            229,\n            248,\n            268,\n            289,\n            311,\n            334,\n            358,\n            383,\n            409,\n            436,\n            464,\n            493,\n            523,\n            554,\n            586,\n            619,\n            653,\n            688,\n            724,\n            761,\n            799,\n            838,\n            878,\n            919,\n            961,\n            1004,\n            1048,\n            1093,\n            1139,\n            1186,\n            1234,\n            1283,\n            1333,\n            1384,\n            1436,\n            1489,\n            1543,\n            1598,\n            1654,\n            1711,\n            1769,\n            1828,\n            1888,\n            1949,\n            2011,\n            2074,\n            2138,\n            2203,\n            2269,\n            2336,\n            2404,\n            2473,\n            2543,\n            2614,\n            2686,\n            2759,\n            2833,\n            2908,\n            2984,\n            3061,\n            3139,\n            3218,\n            3298,\n            3379,\n            3461,\n            3544,\n            3628,\n            3713,\n            3799,\n            3886,\n            3974,\n            4063,\n            4153,\n            4244,\n            4336,\n            4429,\n            4523,\n            4618,\n            4714,\n            4811,\n            4909,\n            5008,\n            5108,\n            5209,\n            5311,\n            5414,\n            5518,\n            5623,\n            5729,\n            5836,\n            5944,\n            6053,\n            6163,\n            6274,\n            6386,\n            6499,\n            6613,\n            6728,\n            6844,\n            6961,\n            7079,\n            7198,\n            7318,\n            7439,\n            7561,\n            7684,\n            7808,\n            7933,\n            8059,\n            8186,\n            8314,\n            8443,\n            8573,\n            8704,\n            8836,\n            8969,\n            9103,\n            9238,\n            9374,\n            9511,\n            9649,\n            9788,\n            9928,\n            10069,\n            10211,\n            10354,\n            10498,\n            10643,\n            10789,\n            10936,\n            11084,\n            11233,\n            11383,\n            11534,\n            11686,\n            11839,\n            11993,\n            12148,\n            12304,\n            12461,\n            12619,\n            12778,\n            12938,\n            13099,\n            13261,\n            13424,\n            13588,\n            13753,\n            13919,\n            14086,\n            14254,\n            14423,\n            14593,\n            14764,\n            14936,\n            15109,\n            15283,\n            15458,\n            15634,\n            15811,\n            15989,\n            16168,\n            16348,\n            16529,\n            16711,\n            16894,\n            17078,\n            17263,\n            17449,\n            17636,\n            17824,\n            18013,\n            18203,\n            18394,\n            18586,\n            18779,\n            18973,\n            19168,\n            19364,\n            19561,\n            19759,\n            19958,\n            20158,\n            20359,\n            20561,\n            20764,\n            20968,\n            21173,\n            21379,\n            21586,\n            21794,\n            22003,\n            22213,\n            22424,\n            22636,\n            22849,\n            23063,\n            23278,\n            23494,\n            23711,\n            23929,\n            24148,\n            24368,\n            24589,\n            24811,\n            25034,\n            25258,\n            25483,\n            25709,\n            25936,\n            26164,\n            26393,\n            26623,\n            26854,\n            27086,\n            27319,\n            27553,\n            27788,\n            28024,\n            28261,\n            28499,\n            28738,\n            28978\n        ];\n    }\n\n    function setAccuracyTable() public {\n        require(hasRole(DEFAULT_ADMIN_ROLE, msg.sender), 'Admin role needed');\n\n        accuracyTable = [\n            0,\n            1,\n            1,\n            2,\n            2,\n            2,\n            3,\n            3,\n            4,\n            4,\n            4,\n            5,\n            5,\n            5,\n            6,\n            6,\n            7,\n            7,\n            7,\n            8,\n            8,\n            8,\n            9,\n            9,\n            9,\n            10,\n            10,\n            11,\n            11,\n            11,\n            12,\n            12,\n            12,\n            13,\n            13,\n            13,\n            14,\n            14,\n            14,\n            15,\n            15,\n            15,\n            16,\n            16,\n            16,\n            17,\n            17,\n            17,\n            18,\n            18,\n            18,\n            18,\n            19,\n            19,\n            19,\n            20,\n            20,\n            20,\n            21,\n            21,\n            21,\n            22,\n            22,\n            22,\n            22,\n            23,\n            23,\n            23,\n            24,\n            24,\n            24,\n            24,\n            25,\n            25,\n            25,\n            25,\n            26,\n            26,\n            26,\n            27,\n            27,\n            27,\n            27,\n            28,\n            28,\n            28,\n            28,\n            29,\n            29,\n            29,\n            29,\n            30,\n            30,\n            30,\n            30,\n            31,\n            31,\n            31,\n            31,\n            32,\n            32,\n            32,\n            32,\n            32,\n            33,\n            33,\n            33,\n            33,\n            34,\n            34,\n            34,\n            34,\n            34,\n            35,\n            35,\n            35,\n            35,\n            35,\n            36,\n            36,\n            36,\n            36,\n            36,\n            37,\n            37,\n            37,\n            37,\n            37,\n            38,\n            38,\n            38,\n            38,\n            38,\n            39,\n            39,\n            39,\n            39,\n            39,\n            39,\n            40,\n            40,\n            40,\n            40,\n            40,\n            40,\n            41,\n            41,\n            41,\n            41,\n            41,\n            41,\n            41,\n            42,\n            42,\n            42,\n            42,\n            42,\n            42,\n            42,\n            43,\n            43,\n            43,\n            43,\n            43,\n            43,\n            43,\n            43,\n            44,\n            44,\n            44,\n            44,\n            44,\n            44,\n            44,\n            44,\n            44,\n            45,\n            45,\n            45,\n            45,\n            45,\n            45,\n            45,\n            45,\n            45,\n            45,\n            46,\n            46,\n            46,\n            46,\n            46,\n            46,\n            46,\n            46,\n            46,\n            46,\n            46,\n            46,\n            46,\n            47,\n            47,\n            47,\n            47,\n            47,\n            47,\n            47,\n            47,\n            47,\n            47,\n            47,\n            47,\n            47,\n            47,\n            47,\n            47,\n            47,\n            47,\n            47,\n            48,\n            48,\n            48,\n            48,\n            48,\n            48,\n            48,\n            48,\n            48,\n            48,\n            48,\n            48,\n            48,\n            48,\n            48,\n            48,\n            48,\n            48,\n            48,\n            48,\n            48,\n            48,\n            48,\n            48,\n            48,\n            48,\n            48,\n            48,\n            48,\n            48,\n            48,\n            48,\n            48,\n            48,\n            48,\n            48,\n            48\n        ];\n    }\n\n    function setRegisterInterface() public {\n        require(hasRole(DEFAULT_ADMIN_ROLE, msg.sender), 'Admin role needed');\n\n        _registerInterface(TransferCooldownableInterfaceId.interfaceId());\n    }\n\n    // function setCharacterLimitInit() external {\n    //     require(hasRole(DEFAULT_ADMIN_ROLE, msg.sender), 'Admin role needed');\n    //     characterLimit = 4;\n    // }\n\n    // function setURIFirstIndex() external {\n    //     require(hasRole(DEFAULT_ADMIN_ROLE, msg.sender), 'Admin role needed');\n    //     firstIndex[0] = 1;\n    //     firstIndex[1] = 1;\n    // }\n\n    // function setURILastIndex() external {\n    //     require(hasRole(DEFAULT_ADMIN_ROLE, msg.sender), 'Admin role needed');\n    //     lastIndex[0] = 3072;\n    //     lastIndex[1] = 8190;\n    // }\n\n    /*\n        visual numbers start at 0, increment values by 1\n        levels: 1-256\n        elements: 0-3 [0(fire) > 1(water) > 2(lighting) > 3(earth) > repeat]\n        class: 0-4 [0(Sentry) 1(Spy) 2(Commando) 3(Vanguard) 4(Hunter)]\n    */\n\n    // enum CharacterType {Elite, Trainee}\n    struct Character {\n        CharacterType ctype;\n        uint16 xp; // xp to next level\n        uint8 accuracy; // upto 48 cap\n        uint8 level; // up to 256 cap\n        uint8 element;\n        uint8 class;\n        uint64 staminaTimestamp; // standard timestamp in seconds-resolution marking regen start from 0\n        uint256 eliteId;\n        bool holographic;\n    }\n\n    struct CharacterName {\n        string firstName;\n        string familyName;\n    }\n\n    Character[] private tokens;\n\n    uint256 public constant maxStamina = 200;\n    uint256 public constant secondsPerStamina = 300; //5 * 60\n\n    uint256[256] private experienceTable;\n    uint8[256] private accuracyTable;\n    string[5] private classURIs;\n\n    mapping(uint256 => uint256) public override lastTransferTimestamp;\n    mapping(uint256 => uint256[]) public eliteTraineeMap;\n\n    uint256 private lastMintedBlock;\n    uint256 private firstMintedOfLastBlock;\n\n    uint256 public characterLimit;\n    uint256[5] private firstIndex;\n    uint256[5] private lastIndex;\n    mapping(uint256 => CharacterName) public characterNames;\n    uint8 public holographicChance;\n\n    event NewCharacter(uint256 indexed character, address indexed minter);\n    event LevelUp(address indexed owner, uint256 indexed character, uint16 level);\n    event CustomizedCharacter(address indexed owner, uint256 character, uint8 customType);\n    event UpdatedCharacterName(address indexed owner, uint256 character);\n\n    modifier restricted() {\n        _restricted();\n        _;\n    }\n\n    function _restricted() internal view {\n        require(hasRole(GAME_ADMIN, msg.sender), 'Game admin role needed.');\n    }\n\n    modifier noFreshLookup(uint256 id) {\n        _noFreshLookup(id);\n        _;\n    }\n\n    function _noFreshLookup(uint256 id) internal view {\n        require(id < firstMintedOfLastBlock || lastMintedBlock < block.number, 'Too fresh for lookup');\n    }\n\n    function transferCooldownEnd(uint256 tokenId) public view override returns (uint256) {\n        return lastTransferTimestamp[tokenId].add(TRANSFER_COOLDOWN);\n    }\n\n    function transferCooldownLeft(uint256 tokenId) public view override returns (uint256) {\n        (bool success, uint256 secondsLeft) = lastTransferTimestamp[tokenId].trySub(\n            block.timestamp.sub(TRANSFER_COOLDOWN)\n        );\n\n        return success ? secondsLeft : 0;\n    }\n\n    function get(uint256 id)\n        public\n        view\n        returns (\n            uint16,\n            uint8,\n            uint8,\n            uint8,\n            uint8,\n            uint64,\n            CharacterType,\n            uint256,\n            bool\n        )\n    {\n        Character memory c = tokens[id];\n        return (c.xp, c.accuracy, c.level, c.element, c.class, c.staminaTimestamp, c.ctype, c.eliteId, c.holographic);\n    }\n\n    function mint(\n        address minter,\n        uint256 seed,\n        CharacterType ctype,\n        uint256 eliteId\n    ) public restricted {\n        uint256 tokenID = tokens.length;\n\n        if (block.number != lastMintedBlock) firstMintedOfLastBlock = tokenID;\n        lastMintedBlock = block.number;\n\n        uint16 xp = 0;\n        uint8 level = 0; // 1\n        uint8 accuracy = accuracyTable[0];\n        uint8 class = uint8(RandomUtil.randomSeededMinMax(0, 4, seed));\n        uint8 element = uint8(RandomUtil.randomSeededMinMax(0, 3, seed.add(now)));\n        uint64 pp = uint64(now.sub(getStaminaMaxWait()));\n        uint8 holographicRoll = uint8((seed.add(now)) % 1000);\n        uint256 selectedURI = RandomUtil.randomSeededMinMax(firstIndex[class], lastIndex[class], seed);\n\n        tokens.push(Character(ctype, xp, accuracy, level, element, class, pp, eliteId, holographicRoll == holographicChance));\n        if (ctype == CharacterType.Trainee) {\n            eliteTraineeMap[eliteId].push(tokenID);\n        }\n        _mint(minter, tokenID);\n        _setTokenURI(tokenID, string(abi.encodePacked(classURIs[class], selectedURI.toString()))); //  classURIs[class]+\"/selectedURI\"\n        emit NewCharacter(tokenID, minter);\n    }\n\n    function customizeCharacter(\n        uint256 id,\n        uint8 customType,\n        uint256 seed\n    ) public restricted {\n        Character storage char = tokens[id];\n\n        if (customType == 0) {\n            // faction\n            uint8 currrentElement = char.element;\n            uint8 newElement = uint8(RandomUtil.randomSeededMinMax(0, 3, seed));\n\n            char.element = newElement != currrentElement ? newElement : newElement == 3 ? 0 : uint8(newElement.add(1));\n        } else if (customType == 1) {\n            // class\n            uint8 currrentClass = char.class;\n            uint8 newClass = uint8(RandomUtil.randomSeededMinMax(0, 4, seed));\n            char.class = newClass != currrentClass ? newClass : newClass == 4 ? 0 : uint8(newClass.add(1));\n\n            uint256 selectedURI = RandomUtil.randomSeededMinMax(\n                firstIndex[char.class],\n                lastIndex[char.class],\n                seed.add(now)\n            );\n            _setTokenURI(id, string(abi.encodePacked(classURIs[char.class], selectedURI.toString())));\n        } else if (customType == 2) {\n            // art\n            string memory currentUri = tokenURI(id);\n            uint256 newSelectedURI = RandomUtil.randomSeededMinMax(firstIndex[char.class], lastIndex[char.class], seed);\n            string memory newUri = string(abi.encodePacked(classURIs[char.class], newSelectedURI.toString()));\n\n            if (keccak256(abi.encodePacked(currentUri)) != keccak256(abi.encodePacked(newUri))) {\n                _setTokenURI(id, newUri);\n            } else if (newSelectedURI == lastIndex[char.class]) {\n                newSelectedURI = 1;\n                _setTokenURI(id, string(abi.encodePacked(classURIs[char.class], newSelectedURI.toString())));\n            } else {\n                newSelectedURI = newSelectedURI.add(1);\n                _setTokenURI(id, string(abi.encodePacked(classURIs[char.class], newSelectedURI.toString())));\n            }\n        }\n\n        // Holographic chance on roll\n        if (!char.holographic) {\n            char.holographic = uint8((seed.add(now)) % 1000) == holographicChance;\n        }\n\n        emit CustomizedCharacter(ownerOf(id), id, customType);\n    }\n\n    function setCharacterName(\n        uint256 id,\n        string memory firstN,\n        string memory lastN\n    ) public restricted {\n        require(bytes(firstN).length > 0 && bytes(firstN).length <= 10, 'First name characters limit error');\n        require(bytes(lastN).length > 0 && bytes(lastN).length <= 10, 'Family name characters limit error');\n\n        characterNames[id] = CharacterName({firstName: firstN, familyName: lastN});\n        emit UpdatedCharacterName(ownerOf(id), id);\n    }\n\n    function getLevel(uint256 id) public view noFreshLookup(id) returns (uint8) {\n        return tokens[id].level; // this is used by dataminers and it benefits us\n    }\n\n    function getRequiredXpForNextLevel(uint8 currentLevel) public view returns (uint16) {\n        return uint16(experienceTable[currentLevel]); // this is helpful to users as the array is private\n    }\n\n    function getPower(uint256 id) public view noFreshLookup(id) returns (uint24) {\n        return getPowerAtLevel(tokens[id].level);\n    }\n\n    function getPowerAtLevel(uint8 level) public pure returns (uint24) {\n        // does not use fixed points since the numbers are simple\n        // the breakpoints every 10 levels are floored as expected\n        // level starts at 0 (visually 1)\n        // 1000 at lvl 1\n        // 9000 at lvl 51 (~3months)\n        // 22440 at lvl 105 (~3 years)\n        // 92300 at lvl 255 (heat death of the universe)\n        return uint24(uint256(1000).add(level.mul(10)).mul(level.div(10).add(1)));\n    }\n\n    function getElement(uint256 id) public view noFreshLookup(id) returns (uint8) {\n        return tokens[id].element;\n    }\n\n    function getClass(uint256 id) public view noFreshLookup(id) returns (uint8) {\n        return tokens[id].class;\n    }\n\n    function getXp(uint256 id) public view noFreshLookup(id) returns (uint32) {\n        return tokens[id].xp;\n    }\n\n    function getAccuracy(uint256 id) public view noFreshLookup(id) returns (uint32) {\n        return tokens[id].accuracy;\n    }\n\n    function getCharacterType(uint256 id) public view noFreshLookup(id) returns (CharacterType) {\n        return tokens[id].ctype; // this is used by dataminers and it benefits us\n    }\n\n    function gainXp(uint256 id, uint16 xp) public restricted {\n        Character storage char = tokens[id];\n        if (char.level < 255) {\n            uint256 newXp = char.xp.add(xp);\n            uint256 requiredToLevel = experienceTable[char.level]; // technically next level\n            while (newXp >= requiredToLevel) {\n                newXp = newXp - requiredToLevel;\n                char.level += 1;\n                char.accuracy = accuracyTable[char.level];\n                emit LevelUp(ownerOf(id), id, char.level);\n                if (char.level < 255) requiredToLevel = experienceTable[char.level];\n                else newXp = 0;\n            }\n            char.xp = uint16(newXp);\n        }\n    }\n\n    function getStaminaTimestamp(uint256 id) public view noFreshLookup(id) returns (uint64) {\n        return tokens[id].staminaTimestamp;\n    }\n\n    function setStaminaTimestamp(uint256 id, uint64 timestamp) public restricted {\n        tokens[id].staminaTimestamp = timestamp;\n    }\n\n    function getStaminaPoints(uint256 id) public view noFreshLookup(id) returns (uint8) {\n        return getStaminaPointsFromTimestamp(tokens[id].staminaTimestamp);\n    }\n\n    function getStaminaPointsFromTimestamp(uint64 timestamp) public view returns (uint8) {\n        if (timestamp > now) return 0;\n\n        uint256 points = (now - timestamp) / secondsPerStamina;\n        if (points > maxStamina) {\n            points = maxStamina;\n        }\n        return uint8(points);\n    }\n\n    function isStaminaFull(uint256 id) public view noFreshLookup(id) returns (bool) {\n        return getStaminaPoints(id) >= maxStamina;\n    }\n\n    function getStaminaMaxWait() public pure returns (uint64) {\n        return uint64(maxStamina * secondsPerStamina);\n    }\n\n    function getOperatorsCountPerRole(CharacterType ctype) public view returns (uint256 count) {\n        require(\n            ctype == CharacterType.Elite || ctype == CharacterType.Trainee || ctype == CharacterType.Citizen,\n            'Invalid operator type!'\n        );\n        for (uint256 i = 0; i < tokens.length; i++) {\n            if (tokens[i].ctype == ctype) {\n                count = count.add(1);\n            }\n        }\n    }\n\n    function getFightDataAndDrainStamina(uint256 id, uint8 amount) public restricted returns (uint112) {\n        Character storage char = tokens[id];\n        uint8 staminaPoints = getStaminaPointsFromTimestamp(char.staminaTimestamp);\n        require(staminaPoints >= amount, 'Not enough stamina!');\n\n        uint64 drainTime = uint64(amount * secondsPerStamina);\n        uint64 preTimestamp = char.staminaTimestamp;\n        if (staminaPoints >= maxStamina) {\n            // if stamina full, we reset timestamp and drain from that\n            char.staminaTimestamp = uint64(now - getStaminaMaxWait() + drainTime);\n        } else {\n            char.staminaTimestamp = uint64(char.staminaTimestamp + drainTime);\n        }\n        // bitwise magic to avoid stacking limitations later on\n        return\n            uint112(\n                char.element |\n                    (char.accuracy << 8) |\n                    (char.class << 16) |\n                    (getPowerAtLevel(char.level) << 24) |\n                    (preTimestamp << 48)\n            );\n    }\n\n    function _beforeTokenTransfer(\n        address from,\n        address to,\n        uint256 tokenId\n    ) internal override {\n        if (\n            to != address(0) &&\n            to != address(0x000000000000000000000000000000000000dEaD) &&\n            !hasRole(NO_OWNED_LIMIT, to)\n        ) {\n            require(balanceOf(to) < characterLimit, 'Only limited operators allowed.');\n        }\n\n        // when not minting or burning...\n        if (from != address(0) && to != address(0)) {\n            // only allow transferring a particular token every TRANSFER_COOLDOWN seconds\n            require(lastTransferTimestamp[tokenId] < block.timestamp.sub(TRANSFER_COOLDOWN), 'Transfer cooldown');\n\n            if (!hasRole(RECEIVE_DOES_NOT_SET_TRANSFER_TIMESTAMP, to)) {\n                lastTransferTimestamp[tokenId] = block.timestamp;\n            }\n        }\n    }\n\n    function setCharacterLimit(uint256 max) public restricted {\n        characterLimit = max;\n    }\n\n    function setHolographicChance(uint8 chance) public restricted {\n        holographicChance = chance;\n    }\n\n    function setURIStartIndex(uint8 class, uint256 first) public restricted {\n        firstIndex[class] = first;\n    }\n\n    function setURILastIndex(uint8 class, uint256 last) public restricted {\n        lastIndex[class] = last;\n    }\n\n    function setXp(uint256 id, uint256 xpNew) external restricted {\n        tokens[id].xp = uint16(tokens[id].xp.add(uint256(xpNew)));\n    }\n\n    function setClassURIs(uint256 index, string memory uri) public restricted {\n        classURIs[index] = uri;\n    }\n}\n",
  "sourcePath": "/Users/school/dev/ciphershooters/contracts/characters.sol",
  "compiler": {
    "name": "solc",
    "version": "0.6.5+commit.f956cc89.Emscripten.clang"
  },
  "schemaVersion": "3.4.6",
  "updatedAt": "2022-06-04T16:14:57.881Z",
  "devdoc": {
    "methods": {
      "approve(address,uint256)": {
        "details": "See {IERC721-approve}."
      },
      "balanceOf(address)": {
        "details": "See {IERC721-balanceOf}."
      },
      "baseURI()": {
        "details": "Returns the base URI set via {_setBaseURI}. This will be automatically added as a prefix in {tokenURI} to each token's URI, or to the token ID if no specific URI is set for that token ID."
      },
      "getApproved(uint256)": {
        "details": "See {IERC721-getApproved}."
      },
      "getRoleAdmin(bytes32)": {
        "details": "Returns the admin role that controls `role`. See {grantRole} and {revokeRole}.     * To change a role's admin, use {_setRoleAdmin}."
      },
      "getRoleMember(bytes32,uint256)": {
        "details": "Returns one of the accounts that have `role`. `index` must be a value between 0 and {getRoleMemberCount}, non-inclusive.     * Role bearers are not sorted in any particular way, and their ordering may change at any point.     * WARNING: When using {getRoleMember} and {getRoleMemberCount}, make sure you perform all queries on the same block. See the following https://forum.openzeppelin.com/t/iterating-over-elements-on-enumerableset-in-openzeppelin-contracts/2296[forum post] for more information."
      },
      "getRoleMemberCount(bytes32)": {
        "details": "Returns the number of accounts that have `role`. Can be used together with {getRoleMember} to enumerate all bearers of a role."
      },
      "grantRole(bytes32,address)": {
        "details": "Grants `role` to `account`.     * If `account` had not been already granted `role`, emits a {RoleGranted} event.     * Requirements:     * - the caller must have ``role``'s admin role."
      },
      "hasRole(bytes32,address)": {
        "details": "Returns `true` if `account` has been granted `role`."
      },
      "isApprovedForAll(address,address)": {
        "details": "See {IERC721-isApprovedForAll}."
      },
      "name()": {
        "details": "See {IERC721Metadata-name}."
      },
      "ownerOf(uint256)": {
        "details": "See {IERC721-ownerOf}."
      },
      "renounceRole(bytes32,address)": {
        "details": "Revokes `role` from the calling account.     * Roles are often managed via {grantRole} and {revokeRole}: this function's purpose is to provide a mechanism for accounts to lose their privileges if they are compromised (such as when a trusted device is misplaced).     * If the calling account had been granted `role`, emits a {RoleRevoked} event.     * Requirements:     * - the caller must be `account`."
      },
      "revokeRole(bytes32,address)": {
        "details": "Revokes `role` from `account`.     * If `account` had been granted `role`, emits a {RoleRevoked} event.     * Requirements:     * - the caller must have ``role``'s admin role."
      },
      "safeTransferFrom(address,address,uint256)": {
        "details": "See {IERC721-safeTransferFrom}."
      },
      "safeTransferFrom(address,address,uint256,bytes)": {
        "details": "See {IERC721-safeTransferFrom}."
      },
      "setApprovalForAll(address,bool)": {
        "details": "See {IERC721-setApprovalForAll}."
      },
      "supportsInterface(bytes4)": {
        "details": "See {IERC165-supportsInterface}.     * Time complexity O(1), guaranteed to always use less than 30 000 gas."
      },
      "symbol()": {
        "details": "See {IERC721Metadata-symbol}."
      },
      "tokenByIndex(uint256)": {
        "details": "See {IERC721Enumerable-tokenByIndex}."
      },
      "tokenOfOwnerByIndex(address,uint256)": {
        "details": "See {IERC721Enumerable-tokenOfOwnerByIndex}."
      },
      "tokenURI(uint256)": {
        "details": "See {IERC721Metadata-tokenURI}."
      },
      "totalSupply()": {
        "details": "See {IERC721Enumerable-totalSupply}."
      },
      "transferFrom(address,address,uint256)": {
        "details": "See {IERC721-transferFrom}."
      }
    }
  },
  "userdoc": {
    "methods": {}
  }
}