{
  "contractName": "CipherCore",
  "abi": [
    {
      "anonymous": false,
      "inputs": [
        {
          "indexed": false,
          "internalType": "address",
          "name": "from",
          "type": "address"
        },
        {
          "indexed": false,
          "internalType": "uint256",
          "name": "amount",
          "type": "uint256"
        }
      ],
      "name": "Deposit",
      "type": "event"
    },
    {
      "anonymous": false,
      "inputs": [
        {
          "indexed": true,
          "internalType": "bytes32",
          "name": "role",
          "type": "bytes32"
        },
        {
          "indexed": true,
          "internalType": "bytes32",
          "name": "previousAdminRole",
          "type": "bytes32"
        },
        {
          "indexed": true,
          "internalType": "bytes32",
          "name": "newAdminRole",
          "type": "bytes32"
        }
      ],
      "name": "RoleAdminChanged",
      "type": "event"
    },
    {
      "anonymous": false,
      "inputs": [
        {
          "indexed": true,
          "internalType": "bytes32",
          "name": "role",
          "type": "bytes32"
        },
        {
          "indexed": true,
          "internalType": "address",
          "name": "account",
          "type": "address"
        },
        {
          "indexed": true,
          "internalType": "address",
          "name": "sender",
          "type": "address"
        }
      ],
      "name": "RoleGranted",
      "type": "event"
    },
    {
      "anonymous": false,
      "inputs": [
        {
          "indexed": true,
          "internalType": "bytes32",
          "name": "role",
          "type": "bytes32"
        },
        {
          "indexed": true,
          "internalType": "address",
          "name": "account",
          "type": "address"
        },
        {
          "indexed": true,
          "internalType": "address",
          "name": "sender",
          "type": "address"
        }
      ],
      "name": "RoleRevoked",
      "type": "event"
    },
    {
      "anonymous": false,
      "inputs": [
        {
          "indexed": false,
          "internalType": "uint256",
          "name": "usdYieldAmount",
          "type": "uint256"
        },
        {
          "indexed": false,
          "internalType": "uint256",
          "name": "tagsAmount",
          "type": "uint256"
        }
      ],
      "name": "YieldHarvested",
      "type": "event"
    },
    {
      "inputs": [],
      "name": "DEFAULT_ADMIN_ROLE",
      "outputs": [
        {
          "internalType": "bytes32",
          "name": "",
          "type": "bytes32"
        }
      ],
      "stateMutability": "view",
      "type": "function"
    },
    {
      "inputs": [],
      "name": "GAME_ADMIN",
      "outputs": [
        {
          "internalType": "bytes32",
          "name": "",
          "type": "bytes32"
        }
      ],
      "stateMutability": "view",
      "type": "function"
    },
    {
      "inputs": [],
      "name": "aaveAToken",
      "outputs": [
        {
          "internalType": "contract IERC20",
          "name": "",
          "type": "address"
        }
      ],
      "stateMutability": "view",
      "type": "function"
    },
    {
      "inputs": [],
      "name": "aaveIncentivesController",
      "outputs": [
        {
          "internalType": "contract IAaveIncentivesController",
          "name": "",
          "type": "address"
        }
      ],
      "stateMutability": "view",
      "type": "function"
    },
    {
      "inputs": [],
      "name": "aaveLendingPoolAddressesProvider",
      "outputs": [
        {
          "internalType": "contract IAaveLendingPoolAddressesProvider",
          "name": "",
          "type": "address"
        }
      ],
      "stateMutability": "view",
      "type": "function"
    },
    {
      "inputs": [
        {
          "internalType": "bytes32",
          "name": "role",
          "type": "bytes32"
        }
      ],
      "name": "getRoleAdmin",
      "outputs": [
        {
          "internalType": "bytes32",
          "name": "",
          "type": "bytes32"
        }
      ],
      "stateMutability": "view",
      "type": "function"
    },
    {
      "inputs": [
        {
          "internalType": "bytes32",
          "name": "role",
          "type": "bytes32"
        },
        {
          "internalType": "uint256",
          "name": "index",
          "type": "uint256"
        }
      ],
      "name": "getRoleMember",
      "outputs": [
        {
          "internalType": "address",
          "name": "",
          "type": "address"
        }
      ],
      "stateMutability": "view",
      "type": "function"
    },
    {
      "inputs": [
        {
          "internalType": "bytes32",
          "name": "role",
          "type": "bytes32"
        }
      ],
      "name": "getRoleMemberCount",
      "outputs": [
        {
          "internalType": "uint256",
          "name": "",
          "type": "uint256"
        }
      ],
      "stateMutability": "view",
      "type": "function"
    },
    {
      "inputs": [
        {
          "internalType": "bytes32",
          "name": "role",
          "type": "bytes32"
        },
        {
          "internalType": "address",
          "name": "account",
          "type": "address"
        }
      ],
      "name": "grantRole",
      "outputs": [],
      "stateMutability": "nonpayable",
      "type": "function"
    },
    {
      "inputs": [
        {
          "internalType": "bytes32",
          "name": "role",
          "type": "bytes32"
        },
        {
          "internalType": "address",
          "name": "account",
          "type": "address"
        }
      ],
      "name": "hasRole",
      "outputs": [
        {
          "internalType": "bool",
          "name": "",
          "type": "bool"
        }
      ],
      "stateMutability": "view",
      "type": "function"
    },
    {
      "inputs": [],
      "name": "minAmountToClaim",
      "outputs": [
        {
          "internalType": "uint256",
          "name": "",
          "type": "uint256"
        }
      ],
      "stateMutability": "view",
      "type": "function"
    },
    {
      "inputs": [],
      "name": "principalBalance",
      "outputs": [
        {
          "internalType": "uint256",
          "name": "",
          "type": "uint256"
        }
      ],
      "stateMutability": "view",
      "type": "function"
    },
    {
      "inputs": [
        {
          "internalType": "bytes32",
          "name": "role",
          "type": "bytes32"
        },
        {
          "internalType": "address",
          "name": "account",
          "type": "address"
        }
      ],
      "name": "renounceRole",
      "outputs": [],
      "stateMutability": "nonpayable",
      "type": "function"
    },
    {
      "inputs": [
        {
          "internalType": "bytes32",
          "name": "role",
          "type": "bytes32"
        },
        {
          "internalType": "address",
          "name": "account",
          "type": "address"
        }
      ],
      "name": "revokeRole",
      "outputs": [],
      "stateMutability": "nonpayable",
      "type": "function"
    },
    {
      "inputs": [],
      "name": "swapRouter",
      "outputs": [
        {
          "internalType": "contract IUniswapRouterV2",
          "name": "",
          "type": "address"
        }
      ],
      "stateMutability": "view",
      "type": "function"
    },
    {
      "inputs": [],
      "name": "tagToken",
      "outputs": [
        {
          "internalType": "contract IERC20",
          "name": "",
          "type": "address"
        }
      ],
      "stateMutability": "view",
      "type": "function"
    },
    {
      "inputs": [],
      "name": "underlyingToken",
      "outputs": [
        {
          "internalType": "contract IERC20",
          "name": "",
          "type": "address"
        }
      ],
      "stateMutability": "view",
      "type": "function"
    },
    {
      "inputs": [
        {
          "internalType": "contract IAaveLendingPoolAddressesProvider",
          "name": "_aaveLendingPoolAddressesProvider",
          "type": "address"
        },
        {
          "internalType": "contract IERC20",
          "name": "_aaveAToken",
          "type": "address"
        },
        {
          "internalType": "contract IERC20",
          "name": "_underlyingToken",
          "type": "address"
        },
        {
          "internalType": "contract IERC20",
          "name": "_tagToken",
          "type": "address"
        },
        {
          "internalType": "contract IUniswapRouterV2",
          "name": "_swapRouter",
          "type": "address"
        },
        {
          "internalType": "contract IAaveIncentivesController",
          "name": "_aaveIncentivesController",
          "type": "address"
        },
        {
          "internalType": "uint256",
          "name": "_minAmountToClaim",
          "type": "uint256"
        }
      ],
      "name": "initialize",
      "outputs": [],
      "stateMutability": "nonpayable",
      "type": "function"
    },
    {
      "inputs": [],
      "name": "totalBalance",
      "outputs": [
        {
          "internalType": "uint256",
          "name": "",
          "type": "uint256"
        }
      ],
      "stateMutability": "view",
      "type": "function"
    },
    {
      "inputs": [
        {
          "internalType": "uint256",
          "name": "amount",
          "type": "uint256"
        }
      ],
      "name": "deposit",
      "outputs": [],
      "stateMutability": "nonpayable",
      "type": "function"
    },
    {
      "inputs": [
        {
          "internalType": "uint256",
          "name": "amount",
          "type": "uint256"
        }
      ],
      "name": "depositInTags",
      "outputs": [],
      "stateMutability": "nonpayable",
      "type": "function"
    },
    {
      "inputs": [],
      "name": "harvestYieldInTags",
      "outputs": [],
      "stateMutability": "nonpayable",
      "type": "function"
    },
    {
      "inputs": [
        {
          "internalType": "address",
          "name": "recipient",
          "type": "address"
        }
      ],
      "name": "withdrawAll",
      "outputs": [],
      "stateMutability": "nonpayable",
      "type": "function"
    },
    {
      "inputs": [
        {
          "internalType": "uint256",
          "name": "_minAmountToClaim",
          "type": "uint256"
        }
      ],
      "name": "setMinAmountToClaim",
      "outputs": [],
      "stateMutability": "nonpayable",
      "type": "function"
    },
    {
      "inputs": [
        {
          "internalType": "contract IERC20",
          "name": "_tagToken",
          "type": "address"
        }
      ],
      "name": "setTagToken",
      "outputs": [],
      "stateMutability": "nonpayable",
      "type": "function"
    }
  ],
  "bytecode": "0x608060405234801561001057600080fd5b50611be8806100206000396000f3fe608060405234801561001057600080fd5b50600436106101735760003560e01c80635f2475ca116100de578063ad7a672f11610097578063ca15c87311610071578063ca15c873146103ab578063d547741f146103c8578063f5d5e270146103f4578063fa09e630146103fc57610173565b8063ad7a672f1461037e578063b6b55f2514610386578063c31c9c07146103a357610173565b80635f2475ca146102fb57806368898a2a146103035780639010d07c1461030b57806391d148541461032e578063a217fddf1461036e578063a83e53ac1461037657610173565b80634f2f0b08116101305780634f2f0b081461028357806351baa36e1461028b578063536c4efc146102a85780635504d3d2146102ce57806357fbf8a8146102d65780635a5a3c6d146102de57610173565b80631460e39014610178578063238f9b7a146101d0578063248a9ca3146101f45780632495a599146102235780632f2ff15d1461022b57806336568abe14610257575b600080fd5b6101ce600480360360e081101561018e57600080fd5b506001600160a01b038135811691602081013582169160408201358116916060810135821691608082013581169160a08101359091169060c00135610422565b005b6101d861054c565b604080516001600160a01b039092168252519081900360200190f35b6102116004803603602081101561020a57600080fd5b503561055b565b60408051918252519081900360200190f35b6101d8610570565b6101ce6004803603604081101561024157600080fd5b50803590602001356001600160a01b031661057f565b6101ce6004803603604081101561026d57600080fd5b50803590602001356001600160a01b03166105eb565b6101d861064c565b6101ce600480360360208110156102a157600080fd5b503561065b565b6101ce600480360360208110156102be57600080fd5b50356001600160a01b0316610760565b610211610798565b6101d86107ba565b6101ce600480360360208110156102f457600080fd5b50356107c9565b6101d86107e4565b6101ce6107f3565b6101d86004803603604081101561032157600080fd5b5080359060200135610a88565b61035a6004803603604081101561034457600080fd5b50803590602001356001600160a01b0316610aaf565b604080519115158252519081900360200190f35b610211610acd565b610211610ad2565b610211610ad8565b6101ce6004803603602081101561039c57600080fd5b5035610b55565b6101d8610c32565b610211600480360360208110156103c157600080fd5b5035610c41565b6101ce600480360360408110156103de57600080fd5b50803590602001356001600160a01b0316610c58565b610211610cb1565b6101ce6004803603602081101561041257600080fd5b50356001600160a01b0316610cb7565b600054610100900460ff168061043b575061043b610e26565b80610449575060005460ff16155b6104845760405162461bcd60e51b815260040180806020018281038252602e815260200180611b32602e913960400191505060405180910390fd5b600054610100900460ff161580156104af576000805460ff1961ff0019909116610100171660011790555b6104b7610e37565b6104c960006104c4610ee9565b6105dd565b606580546001600160a01b03199081166001600160a01b038b8116919091179092556066805482168a8416179055606780548216898416179055606880548216888416179055606980548216878416179055606b8054909116918516919091179055606c8290558015610542576000805461ff00191690555b5050505050505050565b6065546001600160a01b031681565b60009081526033602052604090206002015490565b6067546001600160a01b031681565b6000828152603360205260409020600201546105a29061059d610ee9565b610aaf565b6105dd5760405162461bcd60e51b815260040180806020018281038252602f815260200180611aa8602f913960400191505060405180910390fd5b6105e78282610eed565b5050565b6105f3610ee9565b6001600160a01b0316816001600160a01b0316146106425760405162461bcd60e51b815260040180806020018281038252602f815260200180611b84602f913960400191505060405180910390fd5b6105e78282610f5c565b6066546001600160a01b031681565b6068546001600160a01b03166323b872dd610674610ee9565b604080516001600160e01b031960e085901b1681526001600160a01b039092166004830152306024830152604482018590525160648083019260209291908290030181600087803b1580156106c857600080fd5b505af11580156106dc573d6000803e3d6000fd5b505050506040513d60208110156106f257600080fd5b505161072f5760405162461bcd60e51b8152600401808060200182810382526024815260200180611b606024913960400191505060405180910390fd5b606854606754600091610750916001600160a01b0391821691168430610fcb565b905061075b816112d4565b505050565b61076d600061059d610ee9565b61077657600080fd5b606880546001600160a01b0319166001600160a01b0392909216919091179055565b604080516923a0a6a2afa0a226a4a760b11b8152905190819003600a01902081565b6068546001600160a01b031681565b6107d6600061059d610ee9565b6107df57600080fd5b606c55565b606b546001600160a01b031681565b604080516923a0a6a2afa0a226a4a760b11b8152905190819003600a01902061081e9061059d610ee9565b61082757600080fd5b606654604080516370a0823160e01b815230600482015290516000926001600160a01b0316916370a08231916024808301926020929190829003018186803b15801561087257600080fd5b505afa158015610886573d6000803e3d6000fd5b505050506040513d602081101561089c57600080fd5b5051606a5490915081116108e15760405162461bcd60e51b815260040180806020018281038252602b815260200180611ad7602b913960400191505060405180910390fd5b60655460408051630261bf8b60e01b815290516000926001600160a01b031691630261bf8b916004808301926020929190829003018186803b15801561092657600080fd5b505afa15801561093a573d6000803e3d6000fd5b505050506040513d602081101561095057600080fd5b5051606a5490915060009061096c90849063ffffffff6114fc16565b60675460408051631a4ca37b60e21b81526001600160a01b039283166004820152602481018490523060448201529051929350600092918516916369328dec9160648082019260209290919082900301818787803b1580156109cd57600080fd5b505af11580156109e1573d6000803e3d6000fd5b505050506040513d60208110156109f757600080fd5b505190506000610a05611559565b9050610a17828263ffffffff61179f16565b606754606854919350600091610a42916001600160a01b03908116911685610a3d610ee9565b610fcb565b604080518581526020810183905281519293507f3fb12fb590bb295327f3bfc48158ada0b1147f8f823e0c7a09b98b301d186774929081900390910190a1505050505050565b6000828152603360205260408120610aa6908363ffffffff6117f916565b90505b92915050565b6000828152603360205260408120610aa6908363ffffffff61180516565b600081565b606a5481565b606654604080516370a0823160e01b815230600482015290516000926001600160a01b0316916370a08231916024808301926020929190829003018186803b158015610b2357600080fd5b505afa158015610b37573d6000803e3d6000fd5b505050506040513d6020811015610b4d57600080fd5b505190505b90565b6067546001600160a01b03166323b872dd610b6e610ee9565b604080516001600160e01b031960e085901b1681526001600160a01b039092166004830152306024830152604482018590525160648083019260209291908290030181600087803b158015610bc257600080fd5b505af1158015610bd6573d6000803e3d6000fd5b505050506040513d6020811015610bec57600080fd5b5051610c295760405162461bcd60e51b8152600401808060200182810382526024815260200180611b606024913960400191505060405180910390fd5b6105e7816112d4565b6069546001600160a01b031681565b6000818152603360205260408120610aa99061181a565b600082815260336020526040902060020154610c769061059d610ee9565b6106425760405162461bcd60e51b8152600401808060200182810382526030815260200180611b026030913960400191505060405180910390fd5b606c5481565b610cc4600061059d610ee9565b610ccd57600080fd5b6001600160a01b038116610d1c576040805162461bcd60e51b8152602060048201526011602482015270125b9d985b1a59081c9958da5c1a595b9d607a1b604482015290519081900360640190fd5b6000606a81905560655460408051630261bf8b60e01b815290516001600160a01b0390921691630261bf8b91600480820192602092909190829003018186803b158015610d6857600080fd5b505afa158015610d7c573d6000803e3d6000fd5b505050506040513d6020811015610d9257600080fd5b505160675460408051631a4ca37b60e21b81526001600160a01b039283166004820152600019602482015285831660448201529051929350908316916369328dec916064808201926020929091908290030181600087803b158015610df657600080fd5b505af1158015610e0a573d6000803e3d6000fd5b505050506040513d6020811015610e2057600080fd5b50505050565b6000610e3130611825565b15905090565b600054610100900460ff1680610e505750610e50610e26565b80610e5e575060005460ff16155b610e995760405162461bcd60e51b815260040180806020018281038252602e815260200180611b32602e913960400191505060405180910390fd5b600054610100900460ff16158015610ec4576000805460ff1961ff0019909116610100171660011790555b610ecc61182b565b610ed461182b565b8015610ee6576000805461ff00191690555b50565b3390565b6000828152603360205260409020610f0b908263ffffffff6118cb16565b156105e757610f18610ee9565b6001600160a01b0316816001600160a01b0316837f2f8788117e7eff1d82e926ec794901d17c78024a50270940304540a733656f0d60405160405180910390a45050565b6000828152603360205260409020610f7a908263ffffffff6118e016565b156105e757610f87610ee9565b6001600160a01b0316816001600160a01b0316837ff6391f5c32d9c69d2a47ea670b442974b53935d1edc7fd64eb21e047a839171b60405160405180910390a45050565b6069546040805163095ea7b360e01b81526001600160a01b03928316600482015260248101859052905160009287169163095ea7b391604480830192602092919082900301818787803b15801561102157600080fd5b505af1158015611035573d6000803e3d6000fd5b505050506040513d602081101561104b57600080fd5b505161109e576040805162461bcd60e51b815260206004820152601e60248201527f756e6465726c79696e67546f6b656e20617070726f7665206661696c65640000604482015290519081900360640190fd5b604080516002808252606080830184529260208301908036833701905050905085816000815181106110cc57fe5b60200260200101906001600160a01b031690816001600160a01b03168152505084816001815181106110fa57fe5b60200260200101906001600160a01b031690816001600160a01b0316815250506060606960009054906101000a90046001600160a01b03166001600160a01b03166338ed17398660008588426040518663ffffffff1660e01b81526004018086815260200185815260200180602001846001600160a01b03166001600160a01b03168152602001838152602001828103825285818151815260200191508051906020019060200280838360005b838110156111bf5781810151838201526020016111a7565b505050509050019650505050505050600060405180830381600087803b1580156111e857600080fd5b505af11580156111fc573d6000803e3d6000fd5b505050506040513d6000823e601f3d908101601f19168201604052602081101561122557600080fd5b810190808051604051939291908464010000000082111561124557600080fd5b90830190602082018581111561125a57600080fd5b825186602082028301116401000000008211171561127757600080fd5b82525081516020918201928201910280838360005b838110156112a457818101518382015260200161128c565b505050509050016040525050509050806001815181106112c057fe5b602002602001015192505050949350505050565b606a546000906112ea908363ffffffff61179f16565b606a5560655460408051630261bf8b60e01b815290516000926001600160a01b031691630261bf8b916004808301926020929190829003018186803b15801561133257600080fd5b505afa158015611346573d6000803e3d6000fd5b505050506040513d602081101561135c57600080fd5b50516067546040805163095ea7b360e01b81526001600160a01b03808516600483015260248201889052915193945091169163095ea7b3916044808201926020929091908290030181600087803b1580156113b657600080fd5b505af11580156113ca573d6000803e3d6000fd5b505050506040513d60208110156113e057600080fd5b5051611433576040805162461bcd60e51b815260206004820152601e60248201527f756e6465726c79696e67546f6b656e20617070726f7665206661696c65640000604482015290519081900360640190fd5b6067546040805163e8eda9df60e01b81526001600160a01b0392831660048201526024810186905230604482015260006064820181905291519284169263e8eda9df9260848084019391929182900301818387803b15801561149457600080fd5b505af11580156114a8573d6000803e3d6000fd5b505050507fe1fffcc4923d04b559f4d29a8bfc6cda04eb5b0d3c460751c2402c5c5cc9109c6114d5610ee9565b604080516001600160a01b039092168252602082018690528051918290030190a150919050565b600082821115611553576040805162461bcd60e51b815260206004820152601e60248201527f536166654d6174683a207375627472616374696f6e206f766572666c6f770000604482015290519081900360640190fd5b50900390565b606b5460408051630cc7d40f60e11b8152306004820152905160009283926001600160a01b039091169163198fa81e91602480820192602092909190829003018186803b1580156115a957600080fd5b505afa1580156115bd573d6000803e3d6000fd5b505050506040513d60208110156115d357600080fd5b5051606c549091508110156115ec576000915050610b52565b60408051600180825281830190925260609160208083019080368337505060665482519293506001600160a01b03169183915060009061162857fe5b6001600160a01b03928316602091820292909201810191909152606b54604051633111e7b360e01b81526000196024820181905230604483018190526060600484019081528751606485015287516000979590951695633111e7b3958995839260849091019187820191028083838d5b838110156116b0578181015183820152602001611698565b50505050905001945050505050602060405180830381600087803b1580156116d757600080fd5b505af11580156116eb573d6000803e3d6000fd5b505050506040513d602081101561170157600080fd5b5051606b54604080516399248ea760e01b815290519293506000926001600160a01b03909216916399248ea791600480820192602092909190829003018186803b15801561174e57600080fd5b505afa158015611762573d6000803e3d6000fd5b505050506040513d602081101561177857600080fd5b50516067549091506117969082906001600160a01b03168430610fcb565b94505050505090565b600082820183811015610aa6576040805162461bcd60e51b815260206004820152601b60248201527f536166654d6174683a206164646974696f6e206f766572666c6f770000000000604482015290519081900360640190fd5b6000610aa683836118f5565b6000610aa6836001600160a01b038416611959565b6000610aa982611971565b3b151590565b600054610100900460ff16806118445750611844610e26565b80611852575060005460ff16155b61188d5760405162461bcd60e51b815260040180806020018281038252602e815260200180611b32602e913960400191505060405180910390fd5b600054610100900460ff16158015610ed4576000805460ff1961ff0019909116610100171660011790558015610ee6576000805461ff001916905550565b6000610aa6836001600160a01b038416611975565b6000610aa6836001600160a01b0384166119bf565b815460009082106119375760405162461bcd60e51b8152600401808060200182810382526022815260200180611a866022913960400191505060405180910390fd5b82600001828154811061194657fe5b9060005260206000200154905092915050565b60009081526001919091016020526040902054151590565b5490565b60006119818383611959565b6119b757508154600181810184556000848152602080822090930184905584548482528286019093526040902091909155610aa9565b506000610aa9565b60008181526001830160205260408120548015611a7b57835460001980830191908101906000908790839081106119f257fe5b9060005260206000200154905080876000018481548110611a0f57fe5b600091825260208083209091019290925582815260018981019092526040902090840190558654879080611a3f57fe5b60019003818190600052602060002001600090559055866001016000878152602001908152602001600020600090556001945050505050610aa9565b6000915050610aa956fe456e756d657261626c655365743a20696e646578206f7574206f6620626f756e6473416363657373436f6e74726f6c3a2073656e646572206d75737420626520616e2061646d696e20746f206772616e7443757272656e7420706f6f6c2062616c616e6365206973206c657373207468616e207072696e636970616c416363657373436f6e74726f6c3a2073656e646572206d75737420626520616e2061646d696e20746f207265766f6b65496e697469616c697a61626c653a20636f6e747261637420697320616c726561647920696e697469616c697a6564556e61626c6520746f2070756c6c2066756e64732066726f6d207468652073656e646572416363657373436f6e74726f6c3a2063616e206f6e6c792072656e6f756e636520726f6c657320666f722073656c66a2646970667358221220f13b7db14597760dacdae5309100cb9f7725106fc79f562542f64b8c5221cfb564736f6c63430006050033",
  "immutableReferences": {},
  "source": "// SPDX-License-Identifier: MIT\npragma solidity >=0.4.22 <0.9.0;\n\nimport '@openzeppelin/contracts-upgradeable/proxy/Initializable.sol';\nimport '@openzeppelin/contracts-upgradeable/access/AccessControlUpgradeable.sol';\nimport '@openzeppelin/contracts/token/ERC20/IERC20.sol'; //TODO: chage\nimport '@openzeppelin/contracts/math/SafeMath.sol';\nimport './interfaces/ICipherCore.sol';\nimport './interfaces/IAaveLendingPool.sol';\nimport './interfaces/IAaveLendingPoolAddressesProvider.sol';\nimport './interfaces/IAaveIncentivesController.sol';\nimport './interfaces/IUniswapRouterV2.sol';\n\ncontract CipherCore is Initializable, AccessControlUpgradeable, ICipherCore {\n    using SafeMath for uint256;\n\n    IAaveLendingPoolAddressesProvider public aaveLendingPoolAddressesProvider;\n    IERC20 public aaveAToken;\n    IERC20 public underlyingToken;\n    IERC20 public tagToken;\n    IUniswapRouterV2 public swapRouter;\n    uint256 public principalBalance;\n    IAaveIncentivesController public aaveIncentivesController;\n    uint256 public minAmountToClaim;\n\n    bytes32 public constant GAME_ADMIN = keccak256('GAME_ADMIN');\n\n    event Deposit(address from, uint256 amount);\n    event YieldHarvested(uint256 usdYieldAmount, uint256 tagsAmount);\n\n    function initialize(\n        IAaveLendingPoolAddressesProvider _aaveLendingPoolAddressesProvider,\n        IERC20 _aaveAToken,\n        IERC20 _underlyingToken,\n        IERC20 _tagToken,\n        IUniswapRouterV2 _swapRouter,\n        IAaveIncentivesController _aaveIncentivesController,\n        uint256 _minAmountToClaim\n    ) public initializer {\n        __AccessControl_init();\n\n        _setupRole(DEFAULT_ADMIN_ROLE, _msgSender());\n\n        aaveLendingPoolAddressesProvider = _aaveLendingPoolAddressesProvider;\n        aaveAToken = _aaveAToken;\n        underlyingToken = _underlyingToken;\n        tagToken = _tagToken;\n        swapRouter = _swapRouter;\n        aaveIncentivesController = _aaveIncentivesController;\n        minAmountToClaim = _minAmountToClaim;\n    }\n\n    function totalBalance() view external returns (uint256) {\n        return aaveAToken.balanceOf(address(this));\n    }\n\n    function deposit(uint256 amount) external override {\n        require( //TODO: add safe transfer\n            underlyingToken.transferFrom(_msgSender(), address(this), amount),\n            'Unable to pull funds from the sender'\n        );\n\n        _deposit(amount);\n    }\n\n    function depositInTags(uint256 amount) external override {\n        require(\n            tagToken.transferFrom(_msgSender(), address(this), amount),\n            'Unable to pull funds from the sender'\n        );\n\n        uint256 result = _swap(tagToken, underlyingToken, amount, address(this));\n\n        _deposit(result);\n    }\n\n    function harvestYieldInTags() external override onlyGameMaster {\n        uint256 currentBalance = aaveAToken.balanceOf(address(this));\n        require(currentBalance > principalBalance, 'Current pool balance is less than principal');\n\n        // Withdraw yearned yield\n        IAaveLendingPool lendingPool = aaveLendingPoolAddressesProvider.getLendingPool();\n        uint256 yield = currentBalance.sub(principalBalance);\n        uint256 withdrawn = lendingPool.withdraw(address(underlyingToken), yield, address(this));\n\n        // Claim Aave rewards\n        uint256 claimed = _claimRewards();\n        withdrawn = withdrawn.add(claimed);\n\n        // Convert to TAGs on Uniswap and send to the caller\n        uint256 result = _swap(underlyingToken, tagToken, withdrawn, _msgSender());\n\n        emit YieldHarvested(withdrawn, result);\n    }\n\n    function withdrawAll(address recipient) external onlyOwner {\n        require(recipient != address(0), 'Invalid recipient');\n\n        principalBalance = 0;\n        IAaveLendingPool lendingPool = aaveLendingPoolAddressesProvider.getLendingPool();\n        lendingPool.withdraw(address(underlyingToken), uint256(-1), recipient);\n    }\n\n    function setMinAmountToClaim(uint256 _minAmountToClaim) external onlyOwner {\n        minAmountToClaim = _minAmountToClaim;\n    }\n\n    function setTagToken(IERC20 _tagToken) external onlyOwner {\n        tagToken = _tagToken;\n    }\n\n    function _deposit(uint256 amount) internal returns (uint256) {\n        principalBalance = principalBalance.add(amount);\n\n        IAaveLendingPool lendingPool = aaveLendingPoolAddressesProvider.getLendingPool();\n        require(underlyingToken.approve(address(lendingPool), amount), 'underlyingToken approve failed');\n        lendingPool.deposit(address(underlyingToken), amount, address(this), 0);\n\n        emit Deposit(_msgSender(), amount);\n    }\n\n    function _claimRewards() internal returns (uint256) {\n        uint256 rewardsAmount = aaveIncentivesController.getUserUnclaimedRewards(address(this));\n        if (rewardsAmount < minAmountToClaim) {\n            return 0;\n        }\n\n        address[] memory pools = new address[](1);\n        pools[0] = address(aaveAToken);\n        uint256 claimed = aaveIncentivesController.claimRewards(pools, uint256(-1), address(this));\n\n        IERC20 rewardToken = IERC20(aaveIncentivesController.REWARD_TOKEN());\n\n        return _swap(rewardToken, underlyingToken, claimed, address(this));\n    }\n\n    function _swap(\n        IERC20 from,\n        IERC20 to,\n        uint256 amount,\n        address recipient\n    ) internal returns (uint256) {\n        require(from.approve(address(swapRouter), amount), 'underlyingToken approve failed');\n\n        // TODO: fetch real minimum price instead of zero\n        address[] memory path = new address[](2);\n        path[0] = address(from);\n        path[1] = address(to);\n        uint256[] memory result = swapRouter.swapExactTokensForTokens(amount, 0, path, recipient, now);\n\n        return result[1];\n    }\n\n    modifier onlyGameMaster() {\n        require(hasRole(GAME_ADMIN, _msgSender()));\n        _;\n    }\n\n    modifier onlyOwner() {\n        require(hasRole(DEFAULT_ADMIN_ROLE, _msgSender()));\n        _;\n    }\n}\n",
  "sourcePath": "/Users/school/dev/ciphershooters/contracts/CipherCore.sol",
  "compiler": {
    "name": "solc",
    "version": "0.6.5+commit.f956cc89.Emscripten.clang"
  },
  "schemaVersion": "3.4.6",
  "updatedAt": "2022-06-04T16:14:57.582Z",
  "devdoc": {
    "methods": {
      "getRoleAdmin(bytes32)": {
        "details": "Returns the admin role that controls `role`. See {grantRole} and {revokeRole}.     * To change a role's admin, use {_setRoleAdmin}."
      },
      "getRoleMember(bytes32,uint256)": {
        "details": "Returns one of the accounts that have `role`. `index` must be a value between 0 and {getRoleMemberCount}, non-inclusive.     * Role bearers are not sorted in any particular way, and their ordering may change at any point.     * WARNING: When using {getRoleMember} and {getRoleMemberCount}, make sure you perform all queries on the same block. See the following https://forum.openzeppelin.com/t/iterating-over-elements-on-enumerableset-in-openzeppelin-contracts/2296[forum post] for more information."
      },
      "getRoleMemberCount(bytes32)": {
        "details": "Returns the number of accounts that have `role`. Can be used together with {getRoleMember} to enumerate all bearers of a role."
      },
      "grantRole(bytes32,address)": {
        "details": "Grants `role` to `account`.     * If `account` had not been already granted `role`, emits a {RoleGranted} event.     * Requirements:     * - the caller must have ``role``'s admin role."
      },
      "hasRole(bytes32,address)": {
        "details": "Returns `true` if `account` has been granted `role`."
      },
      "renounceRole(bytes32,address)": {
        "details": "Revokes `role` from the calling account.     * Roles are often managed via {grantRole} and {revokeRole}: this function's purpose is to provide a mechanism for accounts to lose their privileges if they are compromised (such as when a trusted device is misplaced).     * If the calling account had been granted `role`, emits a {RoleRevoked} event.     * Requirements:     * - the caller must be `account`."
      },
      "revokeRole(bytes32,address)": {
        "details": "Revokes `role` from `account`.     * If `account` had been granted `role`, emits a {RoleRevoked} event.     * Requirements:     * - the caller must have ``role``'s admin role."
      }
    }
  },
  "userdoc": {
    "methods": {}
  }
}