{
  "contractName": "CipherStore",
  "abi": [
    {
      "anonymous": false,
      "inputs": [
        {
          "indexed": false,
          "internalType": "address",
          "name": "account",
          "type": "address"
        }
      ],
      "name": "Paused",
      "type": "event"
    },
    {
      "anonymous": false,
      "inputs": [
        {
          "indexed": true,
          "internalType": "bytes32",
          "name": "role",
          "type": "bytes32"
        },
        {
          "indexed": true,
          "internalType": "bytes32",
          "name": "previousAdminRole",
          "type": "bytes32"
        },
        {
          "indexed": true,
          "internalType": "bytes32",
          "name": "newAdminRole",
          "type": "bytes32"
        }
      ],
      "name": "RoleAdminChanged",
      "type": "event"
    },
    {
      "anonymous": false,
      "inputs": [
        {
          "indexed": true,
          "internalType": "bytes32",
          "name": "role",
          "type": "bytes32"
        },
        {
          "indexed": true,
          "internalType": "address",
          "name": "account",
          "type": "address"
        },
        {
          "indexed": true,
          "internalType": "address",
          "name": "sender",
          "type": "address"
        }
      ],
      "name": "RoleGranted",
      "type": "event"
    },
    {
      "anonymous": false,
      "inputs": [
        {
          "indexed": true,
          "internalType": "bytes32",
          "name": "role",
          "type": "bytes32"
        },
        {
          "indexed": true,
          "internalType": "address",
          "name": "account",
          "type": "address"
        },
        {
          "indexed": true,
          "internalType": "address",
          "name": "sender",
          "type": "address"
        }
      ],
      "name": "RoleRevoked",
      "type": "event"
    },
    {
      "anonymous": false,
      "inputs": [
        {
          "indexed": false,
          "internalType": "address",
          "name": "account",
          "type": "address"
        }
      ],
      "name": "Unpaused",
      "type": "event"
    },
    {
      "anonymous": false,
      "inputs": [
        {
          "indexed": true,
          "internalType": "address",
          "name": "buyer",
          "type": "address"
        },
        {
          "indexed": false,
          "internalType": "uint256",
          "name": "amount",
          "type": "uint256"
        }
      ],
      "name": "coreTokensSold",
      "type": "event"
    },
    {
      "anonymous": false,
      "inputs": [
        {
          "indexed": true,
          "internalType": "address",
          "name": "user",
          "type": "address"
        },
        {
          "indexed": false,
          "internalType": "uint256",
          "name": "amount",
          "type": "uint256"
        }
      ],
      "name": "overflowed",
      "type": "event"
    },
    {
      "anonymous": false,
      "inputs": [
        {
          "indexed": true,
          "internalType": "address",
          "name": "buyer",
          "type": "address"
        },
        {
          "indexed": false,
          "internalType": "uint256",
          "name": "amount",
          "type": "uint256"
        }
      ],
      "name": "tagTokensSold",
      "type": "event"
    },
    {
      "inputs": [],
      "name": "CORE",
      "outputs": [
        {
          "internalType": "contract IERC20",
          "name": "",
          "type": "address"
        }
      ],
      "stateMutability": "view",
      "type": "function"
    },
    {
      "inputs": [],
      "name": "DEFAULT_ADMIN_ROLE",
      "outputs": [
        {
          "internalType": "bytes32",
          "name": "",
          "type": "bytes32"
        }
      ],
      "stateMutability": "view",
      "type": "function"
    },
    {
      "inputs": [],
      "name": "TAG",
      "outputs": [
        {
          "internalType": "contract IERC20",
          "name": "",
          "type": "address"
        }
      ],
      "stateMutability": "view",
      "type": "function"
    },
    {
      "inputs": [],
      "name": "TAGUsdcLPToken",
      "outputs": [
        {
          "internalType": "contract IERC20",
          "name": "",
          "type": "address"
        }
      ],
      "stateMutability": "view",
      "type": "function"
    },
    {
      "inputs": [],
      "name": "USDC",
      "outputs": [
        {
          "internalType": "contract IERC20",
          "name": "",
          "type": "address"
        }
      ],
      "stateMutability": "view",
      "type": "function"
    },
    {
      "inputs": [
        {
          "internalType": "uint8",
          "name": "",
          "type": "uint8"
        }
      ],
      "name": "bundleTokensCount",
      "outputs": [
        {
          "internalType": "uint256",
          "name": "",
          "type": "uint256"
        }
      ],
      "stateMutability": "view",
      "type": "function"
    },
    {
      "inputs": [],
      "name": "characters",
      "outputs": [
        {
          "internalType": "contract Characters",
          "name": "",
          "type": "address"
        }
      ],
      "stateMutability": "view",
      "type": "function"
    },
    {
      "inputs": [],
      "name": "corePrice",
      "outputs": [
        {
          "internalType": "uint256",
          "name": "",
          "type": "uint256"
        }
      ],
      "stateMutability": "view",
      "type": "function"
    },
    {
      "inputs": [
        {
          "internalType": "uint256",
          "name": "",
          "type": "uint256"
        }
      ],
      "name": "earlyAdopters",
      "outputs": [
        {
          "internalType": "address",
          "name": "",
          "type": "address"
        }
      ],
      "stateMutability": "view",
      "type": "function"
    },
    {
      "inputs": [],
      "name": "earlyAdoptersDuration",
      "outputs": [
        {
          "internalType": "uint256",
          "name": "",
          "type": "uint256"
        }
      ],
      "stateMutability": "view",
      "type": "function"
    },
    {
      "inputs": [
        {
          "internalType": "bytes32",
          "name": "role",
          "type": "bytes32"
        }
      ],
      "name": "getRoleAdmin",
      "outputs": [
        {
          "internalType": "bytes32",
          "name": "",
          "type": "bytes32"
        }
      ],
      "stateMutability": "view",
      "type": "function"
    },
    {
      "inputs": [
        {
          "internalType": "bytes32",
          "name": "role",
          "type": "bytes32"
        },
        {
          "internalType": "uint256",
          "name": "index",
          "type": "uint256"
        }
      ],
      "name": "getRoleMember",
      "outputs": [
        {
          "internalType": "address",
          "name": "",
          "type": "address"
        }
      ],
      "stateMutability": "view",
      "type": "function"
    },
    {
      "inputs": [
        {
          "internalType": "bytes32",
          "name": "role",
          "type": "bytes32"
        }
      ],
      "name": "getRoleMemberCount",
      "outputs": [
        {
          "internalType": "uint256",
          "name": "",
          "type": "uint256"
        }
      ],
      "stateMutability": "view",
      "type": "function"
    },
    {
      "inputs": [
        {
          "internalType": "bytes32",
          "name": "role",
          "type": "bytes32"
        },
        {
          "internalType": "address",
          "name": "account",
          "type": "address"
        }
      ],
      "name": "grantRole",
      "outputs": [],
      "stateMutability": "nonpayable",
      "type": "function"
    },
    {
      "inputs": [
        {
          "internalType": "bytes32",
          "name": "role",
          "type": "bytes32"
        },
        {
          "internalType": "address",
          "name": "account",
          "type": "address"
        }
      ],
      "name": "hasRole",
      "outputs": [
        {
          "internalType": "bool",
          "name": "",
          "type": "bool"
        }
      ],
      "stateMutability": "view",
      "type": "function"
    },
    {
      "inputs": [],
      "name": "lpPrice",
      "outputs": [
        {
          "internalType": "uint256",
          "name": "",
          "type": "uint256"
        }
      ],
      "stateMutability": "view",
      "type": "function"
    },
    {
      "inputs": [],
      "name": "maxPercent",
      "outputs": [
        {
          "internalType": "uint256",
          "name": "",
          "type": "uint256"
        }
      ],
      "stateMutability": "view",
      "type": "function"
    },
    {
      "inputs": [
        {
          "internalType": "uint8",
          "name": "",
          "type": "uint8"
        }
      ],
      "name": "miniFeatures",
      "outputs": [
        {
          "internalType": "uint256",
          "name": "",
          "type": "uint256"
        }
      ],
      "stateMutability": "view",
      "type": "function"
    },
    {
      "inputs": [],
      "name": "overflowChance",
      "outputs": [
        {
          "internalType": "uint256",
          "name": "",
          "type": "uint256"
        }
      ],
      "stateMutability": "view",
      "type": "function"
    },
    {
      "inputs": [],
      "name": "overflowCore",
      "outputs": [
        {
          "internalType": "uint256",
          "name": "",
          "type": "uint256"
        }
      ],
      "stateMutability": "view",
      "type": "function"
    },
    {
      "inputs": [],
      "name": "paused",
      "outputs": [
        {
          "internalType": "bool",
          "name": "",
          "type": "bool"
        }
      ],
      "stateMutability": "view",
      "type": "function"
    },
    {
      "inputs": [],
      "name": "priceIncreaseForTag",
      "outputs": [
        {
          "internalType": "uint256",
          "name": "",
          "type": "uint256"
        }
      ],
      "stateMutability": "view",
      "type": "function"
    },
    {
      "inputs": [],
      "name": "randoms",
      "outputs": [
        {
          "internalType": "contract IRandoms",
          "name": "",
          "type": "address"
        }
      ],
      "stateMutability": "view",
      "type": "function"
    },
    {
      "inputs": [
        {
          "internalType": "address",
          "name": "",
          "type": "address"
        }
      ],
      "name": "referralEarning",
      "outputs": [
        {
          "internalType": "uint256",
          "name": "",
          "type": "uint256"
        }
      ],
      "stateMutability": "view",
      "type": "function"
    },
    {
      "inputs": [],
      "name": "referralPercent",
      "outputs": [
        {
          "internalType": "uint256",
          "name": "",
          "type": "uint256"
        }
      ],
      "stateMutability": "view",
      "type": "function"
    },
    {
      "inputs": [
        {
          "internalType": "bytes32",
          "name": "role",
          "type": "bytes32"
        },
        {
          "internalType": "address",
          "name": "account",
          "type": "address"
        }
      ],
      "name": "renounceRole",
      "outputs": [],
      "stateMutability": "nonpayable",
      "type": "function"
    },
    {
      "inputs": [
        {
          "internalType": "bytes32",
          "name": "role",
          "type": "bytes32"
        },
        {
          "internalType": "address",
          "name": "account",
          "type": "address"
        }
      ],
      "name": "revokeRole",
      "outputs": [],
      "stateMutability": "nonpayable",
      "type": "function"
    },
    {
      "inputs": [],
      "name": "storeSaleStarts",
      "outputs": [
        {
          "internalType": "uint256",
          "name": "",
          "type": "uint256"
        }
      ],
      "stateMutability": "view",
      "type": "function"
    },
    {
      "inputs": [],
      "name": "storeTagBasePrice",
      "outputs": [
        {
          "internalType": "uint256",
          "name": "",
          "type": "uint256"
        }
      ],
      "stateMutability": "view",
      "type": "function"
    },
    {
      "inputs": [],
      "name": "storeTagPrice",
      "outputs": [
        {
          "internalType": "uint256",
          "name": "",
          "type": "uint256"
        }
      ],
      "stateMutability": "view",
      "type": "function"
    },
    {
      "inputs": [],
      "name": "tagSoldInPercentage",
      "outputs": [
        {
          "internalType": "uint256",
          "name": "",
          "type": "uint256"
        }
      ],
      "stateMutability": "view",
      "type": "function"
    },
    {
      "inputs": [],
      "name": "totalMiniFeaturesFee",
      "outputs": [
        {
          "internalType": "uint256",
          "name": "",
          "type": "uint256"
        }
      ],
      "stateMutability": "view",
      "type": "function"
    },
    {
      "inputs": [],
      "name": "totalTags",
      "outputs": [
        {
          "internalType": "uint256",
          "name": "",
          "type": "uint256"
        }
      ],
      "stateMutability": "view",
      "type": "function"
    },
    {
      "inputs": [],
      "name": "treasury",
      "outputs": [
        {
          "internalType": "address",
          "name": "",
          "type": "address"
        }
      ],
      "stateMutability": "view",
      "type": "function"
    },
    {
      "inputs": [
        {
          "internalType": "contract Characters",
          "name": "_characters",
          "type": "address"
        },
        {
          "internalType": "contract IRandoms",
          "name": "_randoms",
          "type": "address"
        },
        {
          "internalType": "address",
          "name": "_usdc",
          "type": "address"
        },
        {
          "internalType": "address",
          "name": "_tag",
          "type": "address"
        },
        {
          "internalType": "address",
          "name": "_core",
          "type": "address"
        },
        {
          "internalType": "address",
          "name": "_tagUsdcLPTokens",
          "type": "address"
        },
        {
          "internalType": "address",
          "name": "_treasury",
          "type": "address"
        },
        {
          "internalType": "uint256",
          "name": "_overflowChance",
          "type": "uint256"
        },
        {
          "internalType": "address[]",
          "name": "_earlyAdopters",
          "type": "address[]"
        }
      ],
      "name": "initialize",
      "outputs": [],
      "stateMutability": "nonpayable",
      "type": "function"
    },
    {
      "inputs": [
        {
          "internalType": "uint8",
          "name": "customType",
          "type": "uint8"
        },
        {
          "internalType": "uint256",
          "name": "amount",
          "type": "uint256"
        }
      ],
      "name": "setMiniFeaturesFee",
      "outputs": [],
      "stateMutability": "nonpayable",
      "type": "function"
    },
    {
      "inputs": [
        {
          "internalType": "address",
          "name": "_treasury",
          "type": "address"
        }
      ],
      "name": "setTreasury",
      "outputs": [],
      "stateMutability": "nonpayable",
      "type": "function"
    },
    {
      "inputs": [
        {
          "internalType": "address",
          "name": "_lpToken",
          "type": "address"
        }
      ],
      "name": "setLPTokenAddress",
      "outputs": [],
      "stateMutability": "nonpayable",
      "type": "function"
    },
    {
      "inputs": [
        {
          "internalType": "uint256",
          "name": "_overflowChance",
          "type": "uint256"
        }
      ],
      "name": "setOverflowChance",
      "outputs": [],
      "stateMutability": "nonpayable",
      "type": "function"
    },
    {
      "inputs": [],
      "name": "setStoreStartTime",
      "outputs": [],
      "stateMutability": "nonpayable",
      "type": "function"
    },
    {
      "inputs": [
        {
          "internalType": "uint256",
          "name": "_price",
          "type": "uint256"
        }
      ],
      "name": "setCorePrice",
      "outputs": [],
      "stateMutability": "nonpayable",
      "type": "function"
    },
    {
      "inputs": [
        {
          "internalType": "uint256",
          "name": "_price",
          "type": "uint256"
        }
      ],
      "name": "setLPTokenPrice",
      "outputs": [],
      "stateMutability": "nonpayable",
      "type": "function"
    },
    {
      "inputs": [
        {
          "internalType": "uint8",
          "name": "bundleType",
          "type": "uint8"
        },
        {
          "internalType": "address",
          "name": "referral",
          "type": "address"
        }
      ],
      "name": "buyTagUsingUSDC",
      "outputs": [],
      "stateMutability": "nonpayable",
      "type": "function"
    },
    {
      "inputs": [
        {
          "internalType": "uint256",
          "name": "lpAmount",
          "type": "uint256"
        }
      ],
      "name": "buyCoreUsingLP",
      "outputs": [],
      "stateMutability": "nonpayable",
      "type": "function"
    },
    {
      "inputs": [
        {
          "internalType": "address[]",
          "name": "users",
          "type": "address[]"
        }
      ],
      "name": "addEarlyAdopters",
      "outputs": [],
      "stateMutability": "nonpayable",
      "type": "function"
    },
    {
      "inputs": [],
      "name": "getAllEarlyAdopters",
      "outputs": [
        {
          "internalType": "address[]",
          "name": "",
          "type": "address[]"
        }
      ],
      "stateMutability": "view",
      "type": "function"
    },
    {
      "inputs": [
        {
          "internalType": "uint256",
          "name": "amount",
          "type": "uint256"
        }
      ],
      "name": "withdrawUSDC",
      "outputs": [],
      "stateMutability": "nonpayable",
      "type": "function"
    },
    {
      "inputs": [
        {
          "internalType": "uint256",
          "name": "amount",
          "type": "uint256"
        }
      ],
      "name": "withdrawTAG",
      "outputs": [],
      "stateMutability": "nonpayable",
      "type": "function"
    },
    {
      "inputs": [
        {
          "internalType": "uint256",
          "name": "amount",
          "type": "uint256"
        }
      ],
      "name": "withdrawCORE",
      "outputs": [],
      "stateMutability": "nonpayable",
      "type": "function"
    },
    {
      "inputs": [
        {
          "internalType": "uint256",
          "name": "amount",
          "type": "uint256"
        }
      ],
      "name": "withdrawLPTokens",
      "outputs": [],
      "stateMutability": "nonpayable",
      "type": "function"
    },
    {
      "inputs": [
        {
          "internalType": "uint256",
          "name": "characterId",
          "type": "uint256"
        },
        {
          "internalType": "uint8",
          "name": "customType",
          "type": "uint8"
        }
      ],
      "name": "customizeOperators",
      "outputs": [],
      "stateMutability": "nonpayable",
      "type": "function"
    },
    {
      "inputs": [
        {
          "internalType": "uint256",
          "name": "characterId",
          "type": "uint256"
        },
        {
          "internalType": "string",
          "name": "firstN",
          "type": "string"
        },
        {
          "internalType": "string",
          "name": "lastN",
          "type": "string"
        }
      ],
      "name": "setOperatorName",
      "outputs": [],
      "stateMutability": "nonpayable",
      "type": "function"
    },
    {
      "inputs": [],
      "name": "pause",
      "outputs": [],
      "stateMutability": "nonpayable",
      "type": "function"
    },
    {
      "inputs": [],
      "name": "unpause",
      "outputs": [],
      "stateMutability": "nonpayable",
      "type": "function"
    }
  ],
  "bytecode": "0x608060405234801561001057600080fd5b506137a0806100206000396000f3fe608060405234801561001057600080fd5b50600436106103415760003560e01c806389a30271116101b8578063ca15c87311610104578063e03a4eb5116100a2578063e5cb196c1161007c578063e5cb196c14610628578063f0f4426014610630578063f42ebbe014610643578063fff5e0421461065657610341565b8063e03a4eb514610603578063e1b85fc914610618578063e4658b501461062057610341565b8063d070bb54116100de578063d070bb54146105c2578063d547741f146105ca578063daeaea53146105dd578063db81f99b146105f057610341565b8063ca15c87314610594578063cdafdb0e146105a7578063cf5ed7f7146105ba57610341565b8063a1a2335811610171578063b2efd34f1161014b578063b2efd34f14610569578063b99495411461057c578063bee666d814610584578063c2763cd61461058c57610341565b8063a1a2335814610546578063a1cae8e11461054e578063a217fddf1461056157610341565b806389a30271146104ea5780638a7130a0146104f25780638f53bdf4146105055780639010d07c1461051857806391d148541461052b57806397f8c8e51461053e57610341565b80633f4ba83a1161029257806361d027b3116102305780638456cb591161020a5780638456cb59146104b4578063851dc111146104bc5780638797c8dc146104c457806388b2436e146104d757610341565b806361d027b3146104915780636b6c0774146104995780637c6863d4146104a157610341565b8063452d003f1161026c578063452d003f1461044c57806347221ac71461045f57806359a153ba146104745780635c975abb1461047c57610341565b80633f4ba83a14610434578063408a80271461043c578063438e11f81461044457610341565b8063248a9ca3116102ff57806331285e1c116102d957806331285e1c146103f3578063343dfb7e1461040657806336568abe1461040e57806339d76e9b1461042157610341565b8063248a9ca3146103ba57806326704920146103cd5780632f2ff15d146103e057610341565b8062e9236f14610346578063013115fd146103645780630145d3841461037957806301b32c1f1461038c5780630c2804441461039f5780631bd8225d146103a7575b600080fd5b61034e61065e565b60405161035b9190613039565b60405180910390f35b610377610372366004612ce3565b61066d565b005b610377610387366004612f01565b61067a565b61037761039a366004612ce3565b610698565b61034e6107fc565b61034e6103b5366004612c50565b610802565b61034e6103c8366004612ce3565b610814565b61034e6103db366004612eb9565b610829565b6103776103ee366004612cfb565b61083b565b610377610401366004612d4b565b610883565b61034e610a6a565b61037761041c366004612cfb565b610a6f565b61037761042f366004612ed4565b610ab1565b610377611223565b61034e611235565b61034e61123b565b61037761045a366004612ce3565b611241565b610467611341565b60405161035b9190612f76565b61034e611350565b610484611355565b60405161035b919061302e565b61046761135f565b61046761136e565b61034e6104af366004612eb9565b61137d565b61037761138f565b61037761139f565b6103776104d2366004612ce3565b6113cd565b6104676104e5366004612ce3565b61170c565b610467611733565b610377610500366004612ce3565b611742565b610377610513366004612e95565b611842565b610467610526366004612d2a565b611b30565b610484610539366004612cfb565b611b57565b61034e611b75565b61034e611b7b565b61037761055c366004612ce3565b611b81565b61034e611b8e565b610377610577366004612e2b565b611b93565b61034e611db5565b610467611dbb565b610467611dca565b61034e6105a2366004612ce3565b611dd9565b6103776105b5366004612ce3565b611df0565b61034e611dfd565b610467611e03565b6103776105d8366004612cfb565b611e12565b6103776105eb366004612c88565b611e4c565b6103776105fe366004612ce3565b611f1a565b61060b61201a565b60405161035b9190612fe1565b61034e61207c565b61034e612082565b61034e612088565b61037761063e366004612c50565b61208e565b610377610651366004612c50565b6120b8565b61034e6120e2565b6aa56fa5b99019a5c800000081565b6106756120e8565b60dd55565b6106826120e8565b60ff909116600090815260dc6020526040902055565b600260975414156106c45760405162461bcd60e51b81526004016106bb90613620565b60405180910390fd5b60026097556106d16120e8565b60cb546040516370a0823160e01b815282916001600160a01b0316906370a0823190610701903090600401612f76565b60206040518083038186803b15801561071957600080fd5b505afa15801561072d573d6000803e3d6000fd5b505050506040513d601f19601f820116820180604052508101906107519190612e13565b101561076f5760405162461bcd60e51b81526004016106bb906136a6565b60cb5460405163a9059cbb60e01b81526001600160a01b039091169063a9059cbb906107a19033908590600401612fc8565b602060405180830381600087803b1580156107bb57600080fd5b505af11580156107cf573d6000803e3d6000fd5b505050506040513d601f19601f820116820180604052508101906107f39190612cc3565b50506001609755565b60de5481565b60d96020526000908152604090205481565b60009081526033602052604090206002015490565b60dc6020526000908152604090205481565b6000828152603360205260409020600201546108599061053961210f565b6108755760405162461bcd60e51b81526004016106bb906130f9565b61087f8282612113565b5050565b600054610100900460ff168061089c575061089c612182565b806108aa575060005460ff16155b6108c65760405162461bcd60e51b81526004016106bb90613383565b600054610100900460ff161580156108f1576000805460ff1961ff0019909116610100171660011790555b6108f9612193565b610904600033610875565b60cd80546001600160a01b03199081166001600160a01b038b81169190911790925560cb805482168a841617905560cc8054821689841617905560ce8054821688841617905560c9805482168d841617905560ca805482168c841617905560d6805490911691861691909117905560d58390556107d060cf81905560d055600060d281905561019060d15560d381905560d860209081526109c47fa1c22ab04d5a14eb0b9d727ce553bde77dd4c57869bd47735629b3593c2d1364556130d47fdd1fd626b6a6510e3f131ed76f8d2c0ac44a92fbf50a4ce319f246853c5b5a09556161a87f7e178e8cc2471df3be8871998633f08a591282fb3a8961cb5d8a7a2413d2aac8556003825261c3507f60a592c01b1028f28cf4d7ce4c92f34a7df548ac23775b70c0b8b662d9347dcc5560d4919091558251610a4b9160da9190850190612ac4565b508015610a5e576000805461ff00191690555b50505050505050505050565b601981565b610a7761210f565b6001600160a01b0316816001600160a01b031614610aa75760405162461bcd60e51b81526004016106bb90613657565b61087f8282612226565b610ab9611355565b15610ad65760405162461bcd60e51b81526004016106bb90613305565b33610ae081612295565b60026097541415610b035760405162461bcd60e51b81526004016106bb90613620565b600260975560d354610b1d90610e1063ffffffff6122e816565b421015610b91576000805b60da54811015610b7157336001600160a01b031660da8281548110610b4957fe5b6000918252602090912001546001600160a01b03161415610b6957600191505b600101610b28565b5080610b8f5760405162461bcd60e51b81526004016106bb906131ad565b505b816001600160a01b03811615610bca57336001600160a01b0382161415610bca5760405162461bcd60e51b81526004016106bb906135c6565b83610bd48161230d565b60ff8516600090815260d8602052604081205460cf54909190610bfe90839063ffffffff61248116565b90506000610c256103e8610c1984601963ffffffff61248116565b9063ffffffff6124bb16565b60cd54604051636eb1769f60e11b815291925083916001600160a01b039091169063dd62ed3e90610c5c9033903090600401612f8a565b60206040518083038186803b158015610c7457600080fd5b505afa158015610c88573d6000803e3d6000fd5b505050506040513d601f19601f82011682018060405250810190610cac9190612e13565b1015610cca5760405162461bcd60e51b81526004016106bb9061345c565b60cb546040516370a0823160e01b8152610d7e91610d70916aa56fa5b99019a5c800000091610c19916064916001600160a01b0316906370a0823190610d14903090600401612f76565b60206040518083038186803b158015610d2c57600080fd5b505afa158015610d40573d6000803e3d6000fd5b505050506040513d601f19601f82011682018060405250810190610d649190612e13565b9063ffffffff61248116565b60649063ffffffff6124ed16565b60d2819055603211801590610d955750603c60d254105b15610db75760d15460d054610daf9163ffffffff6122e816565b60cf55610e92565b603c60d25410158015610dcc5750604660d254105b15610df85760d154610daf90610de990600263ffffffff61248116565b60d0549063ffffffff6122e816565b604660d25410158015610e0d5750605060d254105b15610e2a5760d154610daf90610de990600363ffffffff61248116565b605060d25410158015610e3f5750605a60d254105b15610e5c5760d154610daf90610de990600463ffffffff61248116565b605a60d25410158015610e715750606460d254105b15610e925760d154610e8e90610de990600563ffffffff61248116565b60cf555b60cd546001600160a01b03166323b872dd3330610ec6610eb986600263ffffffff61248116565b879063ffffffff6124ed16565b6040518463ffffffff1660e01b8152600401610ee493929190612fa4565b602060405180830381600087803b158015610efe57600080fd5b505af1158015610f12573d6000803e3d6000fd5b505050506040513d601f19601f82011682018060405250810190610f369190612cc3565b506001600160a01b038716156110145760cd546040516323b872dd60e01b81526001600160a01b03909116906323b872dd90610f7a9033908b908690600401612fa4565b602060405180830381600087803b158015610f9457600080fd5b505af1158015610fa8573d6000803e3d6000fd5b505050506040513d601f19601f82011682018060405250810190610fcc9190612cc3565b506001600160a01b038716600090815260d96020526040902054610ff6908263ffffffff6122e816565b6001600160a01b038816600090815260d960205260409020556110a1565b60cd5460d6546040516323b872dd60e01b81526001600160a01b03928316926323b872dd9261104d923392909116908690600401612fa4565b602060405180830381600087803b15801561106757600080fd5b505af115801561107b573d6000803e3d6000fd5b505050506040513d601f19601f8201168201806040525081019061109f9190612cc3565b505b60cd5460d6546040516323b872dd60e01b81526001600160a01b03928316926323b872dd926110da923392909116908690600401612fa4565b602060405180830381600087803b1580156110f457600080fd5b505af1158015611108573d6000803e3d6000fd5b505050506040513d601f19601f8201168201806040525081019061112c9190612cc3565b5060cb546001600160a01b031663a9059cbb3361115786670de0b6b3a764000063ffffffff61248116565b6040518363ffffffff1660e01b8152600401611174929190612fc8565b602060405180830381600087803b15801561118e57600080fd5b505af11580156111a2573d6000803e3d6000fd5b505050506040513d601f19601f820116820180604052508101906111c69190612cc3565b5060ff8816600090815260d860205260409081902054905133917f6bf09d88df35e3a9f078672669e47fac71dda4136decc107b4c9d4b9f9c25fec9161120c9190613039565b60405180910390a250506001609755505050505050565b61122b6120e8565b611233612515565b565b60dd5481565b60cf5481565b600260975414156112645760405162461bcd60e51b81526004016106bb90613620565b60026097556112716120e8565b60ce546040516370a0823160e01b815282916001600160a01b0316906370a08231906112a1903090600401612f76565b60206040518083038186803b1580156112b957600080fd5b505afa1580156112cd573d6000803e3d6000fd5b505050506040513d601f19601f820116820180604052508101906112f19190612e13565b101561130f5760405162461bcd60e51b81526004016106bb906136a6565b60ce5460405163a9059cbb60e01b81526001600160a01b039091169063a9059cbb906107a19033908590600401612fc8565b60cb546001600160a01b031681565b606481565b60655460ff165b90565b60d6546001600160a01b031681565b60cc546001600160a01b031681565b60d86020526000908152604090205481565b6113976120e8565b611233612583565b6113a76120e8565b60d354156113c75760405162461bcd60e51b81526004016106bb9061350b565b4260d355565b6113d5611355565b156113f25760405162461bcd60e51b81526004016106bb90613305565b600260975414156114155760405162461bcd60e51b81526004016106bb90613620565b600260975560ce54604051636eb1769f60e11b815282916001600160a01b03169063dd62ed3e9061144c9033903090600401612f8a565b60206040518083038186803b15801561146457600080fd5b505afa158015611478573d6000803e3d6000fd5b505050506040513d601f19601f8201168201806040525081019061149c9190612e13565b10156114ba5760405162461bcd60e51b81526004016106bb90613542565b60006114dd60de546114ce8460dd546125de565b600f0b9063ffffffff61261e16565b60cc546040516370a0823160e01b815291925082916001600160a01b03909116906370a0823190611512903090600401612f76565b60206040518083038186803b15801561152a57600080fd5b505afa15801561153e573d6000803e3d6000fd5b505050506040513d601f19601f820116820180604052508101906115629190612e13565b10156115805760405162461bcd60e51b81526004016106bb9061321b565b60ce546040516323b872dd60e01b81526001600160a01b03909116906323b872dd906115b490339030908790600401612fa4565b602060405180830381600087803b1580156115ce57600080fd5b505af11580156115e2573d6000803e3d6000fd5b505050506040513d601f19601f820116820180604052508101906116069190612cc3565b6116225760405162461bcd60e51b81526004016106bb906133d1565b60cc5460405163a9059cbb60e01b81526001600160a01b039091169063a9059cbb906116549033908590600401612fc8565b602060405180830381600087803b15801561166e57600080fd5b505af1158015611682573d6000803e3d6000fd5b505050506040513d601f19601f820116820180604052508101906116a69190612cc3565b6116c25760405162461bcd60e51b81526004016106bb906135f2565b336001600160a01b03167ff2b3dbeb39df3ef5ef87d0c700e66a6c8a38c648c20fdeacab01b7b6cddb0d54826040516116fb9190613039565b60405180910390a250506001609755565b60da818154811061171957fe5b6000918252602090912001546001600160a01b0316905081565b60cd546001600160a01b031681565b600260975414156117655760405162461bcd60e51b81526004016106bb90613620565b60026097556117726120e8565b60cc546040516370a0823160e01b815282916001600160a01b0316906370a08231906117a2903090600401612f76565b60206040518083038186803b1580156117ba57600080fd5b505afa1580156117ce573d6000803e3d6000fd5b505050506040513d601f19601f820116820180604052508101906117f29190612e13565b10156118105760405162461bcd60e51b81526004016106bb906136a6565b60cc5460405163a9059cbb60e01b81526001600160a01b039091169063a9059cbb906107a19033908590600401612fc8565b61184a611355565b156118675760405162461bcd60e51b81526004016106bb90613305565b6002609754141561188a5760405162461bcd60e51b81526004016106bb90613620565b60026097553361189981612295565b826118a381612686565b60028360ff1611156118c75760405162461bcd60e51b81526004016106bb90613408565b60ff8316600090815260dc60205260408120546118f290670de0b6b3a764000063ffffffff61248116565b60cb54604051636eb1769f60e11b815291925082916001600160a01b039091169063dd62ed3e906119299033903090600401612f8a565b60206040518083038186803b15801561194157600080fd5b505afa158015611955573d6000803e3d6000fd5b505050506040513d601f19601f820116820180604052508101906119799190612e13565b10156119975760405162461bcd60e51b81526004016106bb90613176565b60ca54604051630e20f61560e21b81526000916001600160a01b031690633883d854906119c8903390600401612f76565b60206040518083038186803b1580156119e057600080fd5b505afa1580156119f4573d6000803e3d6000fd5b505050506040513d601f19601f82011682018060405250810190611a189190612e13565b60db54909150611a2e908363ffffffff6122e816565b60db5560cb5460d6546040516323b872dd60e01b81526001600160a01b03928316926323b872dd92611a6a923392909116908790600401612fa4565b602060405180830381600087803b158015611a8457600080fd5b505af1158015611a98573d6000803e3d6000fd5b505050506040513d601f19601f82011682018060405250810190611abc9190612cc3565b5060c9546040516370f71efd60e01b81526001600160a01b03909116906370f71efd90611af190899089908690600401613706565b600060405180830381600087803b158015611b0b57600080fd5b505af1158015611b1f573d6000803e3d6000fd5b505060016097555050505050505050565b6000828152603360205260408120611b4e908363ffffffff61272c16565b90505b92915050565b6000828152603360205260408120611b4e908363ffffffff61273816565b60d35481565b60d45481565b611b896120e8565b60d555565b600081565b611b9b611355565b15611bb85760405162461bcd60e51b81526004016106bb90613305565b60026097541415611bdb5760405162461bcd60e51b81526004016106bb90613620565b600260975533611bea81612295565b83611bf481612686565b6003600090815260dc6020527fd424594b947c18da8f3a6f93819695640a748b6d74709a708102e14e3e81669c54611c3a90670de0b6b3a764000063ffffffff61248116565b60cb54604051636eb1769f60e11b815291925082916001600160a01b039091169063dd62ed3e90611c719033903090600401612f8a565b60206040518083038186803b158015611c8957600080fd5b505afa158015611c9d573d6000803e3d6000fd5b505050506040513d601f19601f82011682018060405250810190611cc19190612e13565b1015611cdf5760405162461bcd60e51b81526004016106bb90613176565b60db54611cf2908263ffffffff6122e816565b60db5560cb5460d6546040516323b872dd60e01b81526001600160a01b03928316926323b872dd92611d2e923392909116908690600401612fa4565b602060405180830381600087803b158015611d4857600080fd5b505af1158015611d5c573d6000803e3d6000fd5b505050506040513d601f19601f82011682018060405250810190611d809190612cc3565b5060c954604051630786e20160e11b81526001600160a01b0390911690630f0dc40290611af1908990899089906004016136d1565b60d25481565b60ca546001600160a01b031681565b60ce546001600160a01b031681565b6000818152603360205260408120611b519061274d565b611df86120e8565b60de55565b60d15481565b60c9546001600160a01b031681565b600082815260336020526040902060020154611e309061053961210f565b610aa75760405162461bcd60e51b81526004016106bb906132b5565b611e546120e8565b6000815111611e755760405162461bcd60e51b81526004016106bb90613435565b60005b815181101561087f5760006001600160a01b0316828281518110611e9857fe5b60200260200101516001600160a01b03161415611ec75760405162461bcd60e51b81526004016106bb9061359c565b60da828281518110611ed557fe5b60209081029190910181015182546001808201855560009485529290932090920180546001600160a01b0319166001600160a01b039093169290921790915501611e78565b60026097541415611f3d5760405162461bcd60e51b81526004016106bb90613620565b6002609755611f4a6120e8565b60cd546040516370a0823160e01b815282916001600160a01b0316906370a0823190611f7a903090600401612f76565b60206040518083038186803b158015611f9257600080fd5b505afa158015611fa6573d6000803e3d6000fd5b505050506040513d601f19601f82011682018060405250810190611fca9190612e13565b1015611fe85760405162461bcd60e51b81526004016106bb906136a6565b60cd5460405163a9059cbb60e01b81526001600160a01b039091169063a9059cbb906107a19033908590600401612fc8565b606060da80548060200260200160405190810160405280929190818152602001828054801561207257602002820191906000526020600020905b81546001600160a01b03168152600190910190602001808311612054575b5050505050905090565b60db5481565b60d05481565b60d55481565b6120966120e8565b60d680546001600160a01b0319166001600160a01b0392909216919091179055565b6120c06120e8565b60ce80546001600160a01b0319166001600160a01b0392909216919091179055565b610e1081565b6120f3600033611b57565b6112335760405162461bcd60e51b81526004016106bb90613570565b3390565b6000828152603360205260409020612131908263ffffffff61275816565b1561087f5761213e61210f565b6001600160a01b0316816001600160a01b0316837f2f8788117e7eff1d82e926ec794901d17c78024a50270940304540a733656f0d60405160405180910390a45050565b600061218d3061276d565b15905090565b600054610100900460ff16806121ac57506121ac612182565b806121ba575060005460ff16155b6121d65760405162461bcd60e51b81526004016106bb90613383565b600054610100900460ff16158015612201576000805460ff1961ff0019909116610100171660011790555b612209612773565b612211612773565b8015612223576000805461ff00191690555b50565b6000828152603360205260409020612244908263ffffffff6127f416565b1561087f5761225161210f565b6001600160a01b0316816001600160a01b0316837ff6391f5c32d9c69d2a47ea670b442974b53935d1edc7fd64eb21e047a839171b60405160405180910390a45050565b6001600160a01b038116600090815260d7602052604090205443116122cc5760405162461bcd60e51b81526004016106bb9061332f565b6001600160a01b0316600090815260d760205260409020439055565b600082820183811015611b4e5760405162461bcd60e51b81526004016106bb906131e4565b60c9546040516370a0823160e01b81526000916001600160a01b0316906370a082319061233e903390600401612f76565b60206040518083038186803b15801561235657600080fd5b505afa15801561236a573d6000803e3d6000fd5b505050506040513d601f19601f8201168201806040525081019061238e9190612e13565b116123ab5760405162461bcd60e51b81526004016106bb90613084565b60038160ff1611156123cf5760405162461bcd60e51b81526004016106bb906130cc565b60ff8116600090815260d86020526040908190205460cb5491516370a0823160e01b815290916001600160a01b0316906370a0823190612413903090600401612f76565b60206040518083038186803b15801561242b57600080fd5b505afa15801561243f573d6000803e3d6000fd5b505050506040513d601f19601f820116820180604052508101906124639190612e13565b10156122235760405162461bcd60e51b81526004016106bb9061334c565b60008261249057506000611b51565b8282028284828161249d57fe5b0414611b4e5760405162461bcd60e51b81526004016106bb90613493565b60008082116124dc5760405162461bcd60e51b81526004016106bb9061327e565b8183816124e557fe5b049392505050565b60008282111561250f5760405162461bcd60e51b81526004016106bb90613247565b50900390565b61251d611355565b6125395760405162461bcd60e51b81526004016106bb90613148565b6065805460ff191690557f5db9ee0a495bf2e6ff9c91a7834c1ba4fdd244a5e8aa4e537bd38aeae4b073aa61256c61210f565b6040516125799190612f76565b60405180910390a1565b61258b611355565b156125a85760405162461bcd60e51b81526004016106bb90613305565b6065805460ff191660011790557f62e78cea01bee320cd4e420270b5ea74000d11b0c9f74754ebdbfc544b05a25861256c61210f565b6000816125ea57600080fd5b60006125f68484612809565b90506f7fffffffffffffffffffffffffffffff6001600160801b0382161115611b4e57600080fd5b60008161262d57506000611b51565b600083600f0b121561263e57600080fd5b600f83900b6001600160801b038316810260401c90608084901c026001600160c01b0381111561266d57600080fd5b60401b811981111561267e57600080fd5b019392505050565b60c9546040516331a9108f60e11b815233916001600160a01b031690636352211e906126b6908590600401613039565b60206040518083038186803b1580156126ce57600080fd5b505afa1580156126e2573d6000803e3d6000fd5b505050506040513d601f19601f820116820180604052508101906127069190612c6c565b6001600160a01b0316146122235760405162461bcd60e51b81526004016106bb906134d4565b6000611b4e8383612953565b6000611b4e836001600160a01b038416612998565b6000611b51826129b0565b6000611b4e836001600160a01b0384166129b4565b3b151590565b600054610100900460ff168061278c575061278c612182565b8061279a575060005460ff16155b6127b65760405162461bcd60e51b81526004016106bb90613383565b600054610100900460ff16158015612211576000805460ff1961ff0019909116610100171660011790558015612223576000805461ff001916905550565b6000611b4e836001600160a01b0384166129fe565b60008161281557600080fd5b60006001600160c01b03841161283a5782604085901b8161283257fe5b04905061293f565b60c084811c6401000000008110612853576020918201911c5b620100008110612865576010918201911c5b6101008110612876576008918201911c5b60108110612886576004918201911c5b60048110612896576002918201911c5b600281106128a5576001820191505b60bf820360018603901c6001018260ff0387901b816128c057fe5b0492506001600160801b038311156128d757600080fd5b608085901c83026001600160801b038616840260c088901c604089901b82811015612903576001820391505b608084901b9290038281101561291a576001820391505b829003608084901c821461292a57fe5b88818161293357fe5b04870196505050505050505b6001600160801b03811115611b4e57600080fd5b815460009082106129765760405162461bcd60e51b81526004016106bb90613042565b82600001828154811061298557fe5b9060005260206000200154905092915050565b60009081526001919091016020526040902054151590565b5490565b60006129c08383612998565b6129f657508154600181810184556000848152602080822090930184905584548482528286019093526040902091909155611b51565b506000611b51565b60008181526001830160205260408120548015612aba5783546000198083019190810190600090879083908110612a3157fe5b9060005260206000200154905080876000018481548110612a4e57fe5b600091825260208083209091019290925582815260018981019092526040902090840190558654879080612a7e57fe5b60019003818190600052602060002001600090559055866001016000878152602001908152602001600020600090556001945050505050611b51565b6000915050611b51565b828054828255906000526020600020908101928215612b19579160200282015b82811115612b1957825182546001600160a01b0319166001600160a01b03909116178255602090920191600190910190612ae4565b50612b25929150612b29565b5090565b61135c91905b80821115612b255780546001600160a01b0319168155600101612b2f565b600082601f830112612b5d578081fd5b813567ffffffffffffffff811115612b73578182fd5b6020808202612b8382820161371f565b83815293508184018583018287018401881015612b9f57600080fd5b600092505b84831015612bcb578035612bb781613746565b825260019290920191908301908301612ba4565b505050505092915050565b600082601f830112612be6578081fd5b813567ffffffffffffffff811115612bfc578182fd5b612c0f601f8201601f191660200161371f565b9150808252836020828501011115612c2657600080fd5b8060208401602084013760009082016020015292915050565b803560ff81168114611b5157600080fd5b600060208284031215612c61578081fd5b8135611b4e81613746565b600060208284031215612c7d578081fd5b8151611b4e81613746565b600060208284031215612c99578081fd5b813567ffffffffffffffff811115612caf578182fd5b612cbb84828501612b4d565b949350505050565b600060208284031215612cd4578081fd5b81518015158114611b4e578182fd5b600060208284031215612cf4578081fd5b5035919050565b60008060408385031215612d0d578081fd5b823591506020830135612d1f81613746565b809150509250929050565b60008060408385031215612d3c578182fd5b50508035926020909101359150565b60008060008060008060008060006101208a8c031215612d69578485fd5b8935612d7481613746565b985060208a0135612d8481613746565b975060408a0135612d9481613746565b965060608a0135612da481613746565b955060808a0135612db481613746565b945060a08a0135612dc481613746565b935060c08a0135612dd481613746565b925060e08a013591506101008a013567ffffffffffffffff811115612df7578182fd5b612e038c828d01612b4d565b9150509295985092959850929598565b600060208284031215612e24578081fd5b5051919050565b600080600060608486031215612e3f578283fd5b83359250602084013567ffffffffffffffff80821115612e5d578384fd5b612e6987838801612bd6565b93506040860135915080821115612e7e578283fd5b50612e8b86828701612bd6565b9150509250925092565b60008060408385031215612ea7578182fd5b823591506020830135612d1f8161375b565b600060208284031215612eca578081fd5b611b4e8383612c3f565b60008060408385031215612ee6578182fd5b8235612ef18161375b565b91506020830135612d1f81613746565b60008060408385031215612f13578182fd5b612f1d8484612c3f565b946020939093013593505050565b60008151808452815b81811015612f5057602081850181015186830182015201612f34565b81811115612f615782602083870101525b50601f01601f19169290920160200192915050565b6001600160a01b0391909116815260200190565b6001600160a01b0392831681529116602082015260400190565b6001600160a01b039384168152919092166020820152604081019190915260600190565b6001600160a01b03929092168252602082015260400190565b6020808252825182820181905260009190848201906040850190845b818110156130225783516001600160a01b031683529284019291840191600101612ffd565b50909695505050505050565b901515815260200190565b90815260200190565b60208082526022908201527f456e756d657261626c655365743a20696e646578206f7574206f6620626f756e604082015261647360f01b606082015260800190565b60208082526028908201527f506c656173652062757920616e206f70657261746f7220746f206275792054416040820152674720746f6b656e7360c01b606082015260800190565b602080825260139082015272496e76616c69642062756e646c65207479706560681b604082015260600190565b6020808252602f908201527f416363657373436f6e74726f6c3a2073656e646572206d75737420626520616e60408201526e0818591b5a5b881d1bc819dc985b9d608a1b606082015260800190565b60208082526014908201527314185d5cd8589b194e881b9bdd081c185d5cd95960621b604082015260600190565b60208082526017908201527f4e6f7420656e6f7567682054414720617070726f766564000000000000000000604082015260600190565b6020808252601f908201527f4f6e6c79204561726c792041646f707465727320616363657373206e6f772100604082015260600190565b6020808252601b908201527f536166654d6174683a206164646974696f6e206f766572666c6f770000000000604082015260600190565b602080825260129082015271105b1b0810d3d4915cc81cdbdb19081bdd5d60721b604082015260600190565b6020808252601e908201527f536166654d6174683a207375627472616374696f6e206f766572666c6f770000604082015260600190565b6020808252601a908201527f536166654d6174683a206469766973696f6e206279207a65726f000000000000604082015260600190565b60208082526030908201527f416363657373436f6e74726f6c3a2073656e646572206d75737420626520616e60408201526f2061646d696e20746f207265766f6b6560801b606082015260800190565b60208082526010908201526f14185d5cd8589b194e881c185d5cd95960821b604082015260600190565b6020808252600390820152624f435360e81b604082015260600190565b6020808252601a908201527f4e6f7420656e6f7567682054414720746f6b656e73206c656674000000000000604082015260600190565b6020808252602e908201527f496e697469616c697a61626c653a20636f6e747261637420697320616c72656160408201526d191e481a5b9a5d1a585b1a5e995960921b606082015260800190565b60208082526018908201527f4c5020746f6b656e207472616e73666572206661696c65640000000000000000604082015260600190565b602080825260139082015272496e76616c696420637573746f6d207479706560681b604082015260600190565b6020808252600d908201526c4e6f206164647265737365732160981b604082015260600190565b60208082526019908201527f4e6f7420656e6f756768205553444320616c6c6f77616e636500000000000000604082015260600190565b60208082526021908201527f536166654d6174683a206d756c7469706c69636174696f6e206f766572666c6f6040820152607760f81b606082015260800190565b60208082526017908201527f4e6f742074686520636861726163746572206f776e6572000000000000000000604082015260600190565b6020808252601b908201527f4561726c792073616c6520616c726561647920737461727465642e0000000000604082015260600190565b6020808252601490820152734e6f7420656e6f75676820616c6c6f77616e636560601b604082015260600190565b60208082526012908201527120b236b4b7103937b632903732b2b232b21760711b604082015260600190565b60208082526010908201526f20b2323932b9b99418149032b93937b960811b604082015260600190565b602080825260129082015271155cd9481d985b1a59081c9959995c9c985b60721b604082015260600190565b60208082526014908201527310dbdc99481d1c985b9cd9995c8819985a5b195960621b604082015260600190565b6020808252601f908201527f5265656e7472616e637947756172643a207265656e7472616e742063616c6c00604082015260600190565b6020808252602f908201527f416363657373436f6e74726f6c3a2063616e206f6e6c792072656e6f756e636560408201526e103937b632b9903337b91039b2b63360891b606082015260800190565b602080825260119082015270139bdd08195b9bdd59da08185b5bdd5b9d607a1b604082015260600190565b6000848252606060208301526136ea6060830185612f2b565b82810360408401526136fc8185612f2b565b9695505050505050565b92835260ff919091166020830152604082015260600190565b60405181810167ffffffffffffffff8111828210171561373e57600080fd5b604052919050565b6001600160a01b038116811461222357600080fd5b60ff8116811461222357600080fdfea2646970667358221220ad7d98c7c899c03163a59d7857ebe6cbf51b8da1d3ade76f7b1b95809c237eca64736f6c63430006050033",
  "immutableReferences": {},
  "source": "// SPDX-License-Identifier: MIT\npragma solidity ^0.6.0;\npragma experimental ABIEncoderV2;\n\nimport '@openzeppelin/contracts-upgradeable/proxy/Initializable.sol';\nimport '@openzeppelin/contracts-upgradeable/access/AccessControlUpgradeable.sol';\nimport '@openzeppelin/contracts-upgradeable/utils/PausableUpgradeable.sol';\nimport '@openzeppelin/contracts-upgradeable/utils/ReentrancyGuardUpgradeable.sol';\nimport '@openzeppelin/contracts/math/SafeMath.sol';\nimport '@openzeppelin/contracts/utils/Pausable.sol';\nimport '@openzeppelin/contracts/utils/ReentrancyGuard.sol';\nimport 'abdk-libraries-solidity/ABDKMath64x64.sol';\nimport '@openzeppelin/contracts/token/ERC20/IERC20.sol';\nimport \"@openzeppelin/contracts-upgradeable/token/ERC20/SafeERC20Upgradeable.sol\";\nimport './characters.sol';\nimport './interfaces/IRandoms.sol';\nimport './interfaces/ICharacter.sol';\n\ncontract CipherStore is\n    Initializable,\n    AccessControlUpgradeable,\n    PausableUpgradeable,\n    ReentrancyGuardUpgradeable,\n    ICharacter\n{\n    using SafeMath for uint8;\n    using SafeMath for uint256;\n    using SafeERC20Upgradeable for IERC20;\n    using ABDKMath64x64 for int128; \n\n    Characters public characters;\n    IRandoms public randoms;\n    IERC20 public TAG;\n    IERC20 public CORE;\n    IERC20 public USDC;\n    IERC20 public TAGUsdcLPToken;\n\n    function initialize(\n        Characters _characters,\n        IRandoms _randoms,\n        address _usdc,\n        address _tag,\n        address _core,\n        address _tagUsdcLPTokens,\n        address _treasury,\n        uint256 _overflowChance,\n        address[] memory _earlyAdopters\n    ) public initializer {\n        __AccessControl_init();\n\n        _setupRole(DEFAULT_ADMIN_ROLE, msg.sender);\n\n        USDC = IERC20(_usdc);\n        TAG = IERC20(_tag);\n        CORE = IERC20(_core);\n        TAGUsdcLPToken = IERC20(_tagUsdcLPTokens);\n\n        characters = _characters;\n        randoms = _randoms;\n        treasury = _treasury;\n        overflowChance = _overflowChance;\n\n        storeTagPrice = 2000;\n        storeTagBasePrice = 2000;\n        tagSoldInPercentage = 0;\n        priceIncreaseForTag = 400;\n        storeSaleStarts = 0;\n        bundleTokensCount[0] = 2500;\n        bundleTokensCount[1] = 12500;\n        bundleTokensCount[2] = 25000;\n        bundleTokensCount[3] = 50000;\n        overflowCore = 0;\n\n        earlyAdopters = _earlyAdopters;\n    }\n\n    uint256 public storeTagPrice;\n    uint256 public storeTagBasePrice;\n    uint256 public priceIncreaseForTag;\n    uint256 public tagSoldInPercentage;\n    uint256 public storeSaleStarts;\n    uint256 public constant earlyAdoptersDuration = 3600;\n    uint256 public constant referralPercent = 25;\n    uint256 public constant totalTags = 200000000 ether;\n    uint256 public constant maxPercent = 100;\n    uint256 public overflowCore;\n    uint256 public overflowChance;\n    address public treasury; \n    mapping(address => uint256) lastBlockNumberCalled;\n    mapping(uint8 => uint256) public bundleTokensCount;\n    mapping(address => uint256) public referralEarning;\n    address[] public earlyAdopters;\n    uint256 public totalMiniFeaturesFee;\n    mapping(uint8 => uint256) public miniFeatures;\n    uint256 public corePrice;\n    uint256 public lpPrice;\n\n    event tagTokensSold(address indexed buyer, uint256 amount);\n    event coreTokensSold(address indexed buyer, uint256 amount);\n    event overflowed(address indexed user, uint256 amount);\n    \n    modifier onlyValidReferrer(address referrer) {\n        if(referrer != address(0)) {\n            require(msg.sender != referrer, \"Use valid referral\" );\n            // require(characters.balanceOf(referrer) > 0, \"Use valid referral\");\n        }\n        _;\n    }\n\n    modifier onlyEarlyAdopters() {\n        if((block.timestamp < storeSaleStarts.add(earlyAdoptersDuration))) {\n            bool isEarlyAdopter = false;\n            for(uint256 i = 0; i < earlyAdopters.length; i++) {\n                if(earlyAdopters[i] == msg.sender) {\n                    isEarlyAdopter = true;\n                }\n            }\n            require(isEarlyAdopter, \"Only Early Adopters access now!\");\n        }\n        _;\n    }\n\n    function setMiniFeaturesFee(uint8 customType, uint256 amount) external onlyOwner {\n        miniFeatures[customType] = amount;\n    }\n\n    function setTreasury(address _treasury) external onlyOwner {\n        treasury = _treasury;\n    }\n\n    function setLPTokenAddress(address _lpToken) external onlyOwner {\n        TAGUsdcLPToken = IERC20(_lpToken);\n    }\n\n    function setOverflowChance(uint256 _overflowChance) external onlyOwner {\n        overflowChance = _overflowChance;\n    }\n\n    function setStoreStartTime() external onlyOwner {\n        require(storeSaleStarts == 0, \"Early sale already started.\");\n        storeSaleStarts = block.timestamp;\n    }\n\n    function setCorePrice(uint256 _price) external onlyOwner {\n        corePrice = _price;\n    }\n\n    function setLPTokenPrice(uint256 _price) external onlyOwner {\n        lpPrice = _price;\n    }\n\n    function buyTagUsingUSDC(uint8 bundleType, address referral)\n        public\n        whenNotPaused\n        // onlyNonContract\n        oncePerBlock(msg.sender)\n        nonReentrant\n        onlyEarlyAdopters\n        onlyValidReferrer(referral)\n        buyTAGChecks(bundleType)\n    {\n        uint256 tagsCount = bundleTokensCount[bundleType];\n        uint256 sellPrice = tagsCount.mul(storeTagPrice);\n        uint256 referralFee = sellPrice.mul(referralPercent).div(1000);\n        require(USDC.allowance(msg.sender, address(this)) >= sellPrice, \"Not enough USDC allowance\");\n        \n        // update tag-percent-buy and store-tagPrice\n        tagSoldInPercentage = maxPercent.sub(TAG.balanceOf(address(this)).mul(100).div(totalTags));\n        if(tagSoldInPercentage>=50 && tagSoldInPercentage<60) {\n            storeTagPrice = storeTagBasePrice.add(priceIncreaseForTag);\n        } else if(tagSoldInPercentage>=60 && tagSoldInPercentage<70) {\n            storeTagPrice = storeTagBasePrice.add(priceIncreaseForTag.mul(2));\n        } else if(tagSoldInPercentage>=70 && tagSoldInPercentage<80) {\n            storeTagPrice = storeTagBasePrice.add(priceIncreaseForTag.mul(3));\n        } else if(tagSoldInPercentage>=80 && tagSoldInPercentage<90) {\n            storeTagPrice = storeTagBasePrice.add(priceIncreaseForTag.mul(4));\n        } else if(tagSoldInPercentage>=90 && tagSoldInPercentage<100) {\n            storeTagPrice = storeTagBasePrice.add(priceIncreaseForTag.mul(5));\n        }\n\n        // get USDC \n        USDC.transferFrom(msg.sender, address(this), sellPrice.sub(referralFee.mul(2)));\n        if(referral != address(0)) {\n            USDC.transferFrom(msg.sender,referral,referralFee);\n            referralEarning[referral] = referralEarning[referral].add(referralFee); \n        } else {\n            USDC.transferFrom(msg.sender,treasury,referralFee);\n        }\n        USDC.transferFrom(msg.sender,treasury,referralFee);\n\n        // transfer TAGs\n        TAG.transfer(msg.sender, tagsCount.mul(10**18));\n\n        emit tagTokensSold(msg.sender, bundleTokensCount[bundleType]);\n    }\n\n    function buyCoreUsingLP(uint256 lpAmount)\n        public\n        whenNotPaused\n        // onlyNonContract\n        nonReentrant\n    {\n        require(TAGUsdcLPToken.allowance(msg.sender, address(this)) >= lpAmount, \"Not enough allowance\");\n        uint256 coreAmount = ABDKMath64x64.divu(lpAmount, corePrice).mulu(lpPrice);\n        require(CORE.balanceOf(address(this)) >= coreAmount, \"All COREs sold out\");\n        require(TAGUsdcLPToken.transferFrom(msg.sender, address(this), lpAmount), \"LP token transfer failed\");\n        require(CORE.transfer(msg.sender, coreAmount), \"Core transfer failed\");\n        emit coreTokensSold(msg.sender, coreAmount);\n    }\n\n    function addEarlyAdopters(address[] memory users) public onlyOwner {\n        require(users.length > 0, \"No addresses!\");\n        for(uint i=0; i< users.length; i++) {\n            require(users[i] != address(0), \"Address(0) error\");\n            earlyAdopters.push(users[i]);\n        }   \n    }\n\n    function getAllEarlyAdopters() public view returns(address[] memory) {\n        return earlyAdopters;\n    }\n    \n    function withdrawUSDC(uint256 amount) public nonReentrant onlyOwner {\n        require(USDC.balanceOf(address(this)) >= amount, \"Not enough amount\");\n        USDC.transfer(msg.sender, amount);\n    }\n\n    function withdrawTAG(uint256 amount) public nonReentrant onlyOwner {\n        require(TAG.balanceOf(address(this)) >= amount, \"Not enough amount\");\n        TAG.transfer(msg.sender, amount);\n    }\n\n    function withdrawCORE(uint256 amount) public nonReentrant onlyOwner {\n        require(CORE.balanceOf(address(this)) >= amount, \"Not enough amount\");\n        CORE.transfer(msg.sender, amount);\n    }\n\n    function withdrawLPTokens(uint256 amount) public nonReentrant onlyOwner {\n        require(TAGUsdcLPToken.balanceOf(address(this)) >= amount, \"Not enough amount\");\n        TAGUsdcLPToken.transfer(msg.sender, amount);\n    }\n\n    function customizeOperators(uint256 characterId, uint8 customType) \n        public \n        whenNotPaused\n        nonReentrant\n        oncePerBlock(msg.sender)\n        // onlyNonContract\n        isCharacterOwner(characterId)\n    {\n        require(customType>=0 && customType <=2, \"Invalid custom type\");\n        uint256 amount = miniFeatures[customType].mul(10**18);\n        require(TAG.allowance(msg.sender, address(this)) >= amount, \"Not enough TAG approved\");\n        uint256 seed = randoms.getRandomSeed(msg.sender);\n        totalMiniFeaturesFee = totalMiniFeaturesFee.add(amount);\n        TAG.transferFrom(msg.sender, treasury, amount);\n        characters.customizeCharacter(characterId, customType, seed);\n    }\n\n    function setOperatorName(uint256 characterId, string memory firstN, string memory lastN) \n        public \n        whenNotPaused\n        nonReentrant\n        oncePerBlock(msg.sender)\n        // onlyNonContract\n        isCharacterOwner(characterId)\n    {\n        uint256 amount = miniFeatures[3].mul(10**18);\n        require(TAG.allowance(msg.sender, address(this)) >= amount, \"Not enough TAG approved\");\n        totalMiniFeaturesFee = totalMiniFeaturesFee.add(amount);\n        TAG.transferFrom(msg.sender, treasury, amount);\n        characters.setCharacterName(characterId, firstN, lastN);\n    }\n\n    function pause() external onlyOwner {\n        _pause();\n    }\n\n    function unpause() external onlyOwner {\n        _unpause();\n    }\n\n    function _onlyOwner() internal view {\n        require(hasRole(DEFAULT_ADMIN_ROLE, msg.sender), \"Admin role needed.\");\n    }\n\n    function _oncePerBlock(address user) internal {\n        require(lastBlockNumberCalled[user] < block.number, 'OCS');\n        lastBlockNumberCalled[user] = block.number;\n    }\n\n    function _onlyNonContract() internal view {\n        require(tx.origin == msg.sender);\n    }\n\n    function _isCharacterOwner(uint256 character) internal view {\n            require(\n                characters.ownerOf(character) == msg.sender,\n                'Not the character owner'\n            );\n    }\n\n    function _buyTAGChecks(uint8 bundleType) internal view {\n        require(characters.balanceOf(msg.sender) > 0, \"Please buy an operator to buy TAG tokens\");\n        // require(characters.getStaminaPoints(characterId) >= 40, \"Not enough stamina for Buy\");\n        require(bundleType>=0 && bundleType<=3, \"Invalid bundle type\");\n        require(TAG.balanceOf(address(this)) >= bundleTokensCount[bundleType], \"Not enough TAG tokens left\");\n    }\n\n    modifier buyTAGChecks(uint8 bundleType) {\n        _buyTAGChecks(bundleType);\n        _;\n    }\n\n    modifier isCharacterOwner(uint256 character) {\n            _isCharacterOwner(character);\n            _;\n    }\n\n    modifier oncePerBlock(address user) {\n        _oncePerBlock(user);\n        _;\n    }\n\n    modifier onlyOwner() {\n        _onlyOwner();\n        _;\n    }\n\n    modifier onlyNonContract() {\n        _onlyNonContract();\n        _;\n    }\n\n}\n",
  "sourcePath": "/Users/school/dev/ciphershooters/contracts/CipherStore.sol",
  "compiler": {
    "name": "solc",
    "version": "0.6.5+commit.f956cc89.Emscripten.clang"
  },
  "schemaVersion": "3.4.6",
  "updatedAt": "2022-06-04T16:14:57.596Z",
  "devdoc": {
    "methods": {
      "getRoleAdmin(bytes32)": {
        "details": "Returns the admin role that controls `role`. See {grantRole} and {revokeRole}.     * To change a role's admin, use {_setRoleAdmin}."
      },
      "getRoleMember(bytes32,uint256)": {
        "details": "Returns one of the accounts that have `role`. `index` must be a value between 0 and {getRoleMemberCount}, non-inclusive.     * Role bearers are not sorted in any particular way, and their ordering may change at any point.     * WARNING: When using {getRoleMember} and {getRoleMemberCount}, make sure you perform all queries on the same block. See the following https://forum.openzeppelin.com/t/iterating-over-elements-on-enumerableset-in-openzeppelin-contracts/2296[forum post] for more information."
      },
      "getRoleMemberCount(bytes32)": {
        "details": "Returns the number of accounts that have `role`. Can be used together with {getRoleMember} to enumerate all bearers of a role."
      },
      "grantRole(bytes32,address)": {
        "details": "Grants `role` to `account`.     * If `account` had not been already granted `role`, emits a {RoleGranted} event.     * Requirements:     * - the caller must have ``role``'s admin role."
      },
      "hasRole(bytes32,address)": {
        "details": "Returns `true` if `account` has been granted `role`."
      },
      "paused()": {
        "details": "Returns true if the contract is paused, and false otherwise."
      },
      "renounceRole(bytes32,address)": {
        "details": "Revokes `role` from the calling account.     * Roles are often managed via {grantRole} and {revokeRole}: this function's purpose is to provide a mechanism for accounts to lose their privileges if they are compromised (such as when a trusted device is misplaced).     * If the calling account had been granted `role`, emits a {RoleRevoked} event.     * Requirements:     * - the caller must be `account`."
      },
      "revokeRole(bytes32,address)": {
        "details": "Revokes `role` from `account`.     * If `account` had been granted `role`, emits a {RoleRevoked} event.     * Requirements:     * - the caller must have ``role``'s admin role."
      }
    }
  },
  "userdoc": {
    "methods": {}
  }
}