{
  "contractName": "CraftingItems",
  "abi": [
    {
      "anonymous": false,
      "inputs": [
        {
          "indexed": true,
          "internalType": "address",
          "name": "account",
          "type": "address"
        },
        {
          "indexed": true,
          "internalType": "address",
          "name": "operator",
          "type": "address"
        },
        {
          "indexed": false,
          "internalType": "bool",
          "name": "approved",
          "type": "bool"
        }
      ],
      "name": "ApprovalForAll",
      "type": "event"
    },
    {
      "anonymous": false,
      "inputs": [
        {
          "indexed": true,
          "internalType": "bytes32",
          "name": "role",
          "type": "bytes32"
        },
        {
          "indexed": true,
          "internalType": "bytes32",
          "name": "previousAdminRole",
          "type": "bytes32"
        },
        {
          "indexed": true,
          "internalType": "bytes32",
          "name": "newAdminRole",
          "type": "bytes32"
        }
      ],
      "name": "RoleAdminChanged",
      "type": "event"
    },
    {
      "anonymous": false,
      "inputs": [
        {
          "indexed": true,
          "internalType": "bytes32",
          "name": "role",
          "type": "bytes32"
        },
        {
          "indexed": true,
          "internalType": "address",
          "name": "account",
          "type": "address"
        },
        {
          "indexed": true,
          "internalType": "address",
          "name": "sender",
          "type": "address"
        }
      ],
      "name": "RoleGranted",
      "type": "event"
    },
    {
      "anonymous": false,
      "inputs": [
        {
          "indexed": true,
          "internalType": "bytes32",
          "name": "role",
          "type": "bytes32"
        },
        {
          "indexed": true,
          "internalType": "address",
          "name": "account",
          "type": "address"
        },
        {
          "indexed": true,
          "internalType": "address",
          "name": "sender",
          "type": "address"
        }
      ],
      "name": "RoleRevoked",
      "type": "event"
    },
    {
      "anonymous": false,
      "inputs": [
        {
          "indexed": true,
          "internalType": "address",
          "name": "operator",
          "type": "address"
        },
        {
          "indexed": true,
          "internalType": "address",
          "name": "from",
          "type": "address"
        },
        {
          "indexed": true,
          "internalType": "address",
          "name": "to",
          "type": "address"
        },
        {
          "indexed": false,
          "internalType": "uint256[]",
          "name": "ids",
          "type": "uint256[]"
        },
        {
          "indexed": false,
          "internalType": "uint256[]",
          "name": "values",
          "type": "uint256[]"
        }
      ],
      "name": "TransferBatch",
      "type": "event"
    },
    {
      "anonymous": false,
      "inputs": [
        {
          "indexed": true,
          "internalType": "address",
          "name": "operator",
          "type": "address"
        },
        {
          "indexed": true,
          "internalType": "address",
          "name": "from",
          "type": "address"
        },
        {
          "indexed": true,
          "internalType": "address",
          "name": "to",
          "type": "address"
        },
        {
          "indexed": false,
          "internalType": "uint256",
          "name": "id",
          "type": "uint256"
        },
        {
          "indexed": false,
          "internalType": "uint256",
          "name": "value",
          "type": "uint256"
        }
      ],
      "name": "TransferSingle",
      "type": "event"
    },
    {
      "anonymous": false,
      "inputs": [
        {
          "indexed": false,
          "internalType": "string",
          "name": "value",
          "type": "string"
        },
        {
          "indexed": true,
          "internalType": "uint256",
          "name": "id",
          "type": "uint256"
        }
      ],
      "name": "URI",
      "type": "event"
    },
    {
      "inputs": [],
      "name": "CRAFTING_ITEMS_ADMIN",
      "outputs": [
        {
          "internalType": "bytes32",
          "name": "",
          "type": "bytes32"
        }
      ],
      "stateMutability": "view",
      "type": "function"
    },
    {
      "inputs": [],
      "name": "DEFAULT_ADMIN_ROLE",
      "outputs": [
        {
          "internalType": "bytes32",
          "name": "",
          "type": "bytes32"
        }
      ],
      "stateMutability": "view",
      "type": "function"
    },
    {
      "inputs": [],
      "name": "EARTH_CRYSTAL",
      "outputs": [
        {
          "internalType": "uint256",
          "name": "",
          "type": "uint256"
        }
      ],
      "stateMutability": "view",
      "type": "function"
    },
    {
      "inputs": [],
      "name": "FIRE_CRYSTAL",
      "outputs": [
        {
          "internalType": "uint256",
          "name": "",
          "type": "uint256"
        }
      ],
      "stateMutability": "view",
      "type": "function"
    },
    {
      "inputs": [],
      "name": "LIGHTNING_CRYSTAL",
      "outputs": [
        {
          "internalType": "uint256",
          "name": "",
          "type": "uint256"
        }
      ],
      "stateMutability": "view",
      "type": "function"
    },
    {
      "inputs": [],
      "name": "PART",
      "outputs": [
        {
          "internalType": "uint256",
          "name": "",
          "type": "uint256"
        }
      ],
      "stateMutability": "view",
      "type": "function"
    },
    {
      "inputs": [],
      "name": "WATER_CRYSTAL",
      "outputs": [
        {
          "internalType": "uint256",
          "name": "",
          "type": "uint256"
        }
      ],
      "stateMutability": "view",
      "type": "function"
    },
    {
      "inputs": [
        {
          "internalType": "address",
          "name": "account",
          "type": "address"
        },
        {
          "internalType": "uint256",
          "name": "id",
          "type": "uint256"
        }
      ],
      "name": "balanceOf",
      "outputs": [
        {
          "internalType": "uint256",
          "name": "",
          "type": "uint256"
        }
      ],
      "stateMutability": "view",
      "type": "function"
    },
    {
      "inputs": [
        {
          "internalType": "address[]",
          "name": "accounts",
          "type": "address[]"
        },
        {
          "internalType": "uint256[]",
          "name": "ids",
          "type": "uint256[]"
        }
      ],
      "name": "balanceOfBatch",
      "outputs": [
        {
          "internalType": "uint256[]",
          "name": "",
          "type": "uint256[]"
        }
      ],
      "stateMutability": "view",
      "type": "function"
    },
    {
      "inputs": [
        {
          "internalType": "bytes32",
          "name": "role",
          "type": "bytes32"
        }
      ],
      "name": "getRoleAdmin",
      "outputs": [
        {
          "internalType": "bytes32",
          "name": "",
          "type": "bytes32"
        }
      ],
      "stateMutability": "view",
      "type": "function"
    },
    {
      "inputs": [
        {
          "internalType": "bytes32",
          "name": "role",
          "type": "bytes32"
        },
        {
          "internalType": "uint256",
          "name": "index",
          "type": "uint256"
        }
      ],
      "name": "getRoleMember",
      "outputs": [
        {
          "internalType": "address",
          "name": "",
          "type": "address"
        }
      ],
      "stateMutability": "view",
      "type": "function"
    },
    {
      "inputs": [
        {
          "internalType": "bytes32",
          "name": "role",
          "type": "bytes32"
        }
      ],
      "name": "getRoleMemberCount",
      "outputs": [
        {
          "internalType": "uint256",
          "name": "",
          "type": "uint256"
        }
      ],
      "stateMutability": "view",
      "type": "function"
    },
    {
      "inputs": [
        {
          "internalType": "bytes32",
          "name": "role",
          "type": "bytes32"
        },
        {
          "internalType": "address",
          "name": "account",
          "type": "address"
        }
      ],
      "name": "grantRole",
      "outputs": [],
      "stateMutability": "nonpayable",
      "type": "function"
    },
    {
      "inputs": [
        {
          "internalType": "bytes32",
          "name": "role",
          "type": "bytes32"
        },
        {
          "internalType": "address",
          "name": "account",
          "type": "address"
        }
      ],
      "name": "hasRole",
      "outputs": [
        {
          "internalType": "bool",
          "name": "",
          "type": "bool"
        }
      ],
      "stateMutability": "view",
      "type": "function"
    },
    {
      "inputs": [
        {
          "internalType": "address",
          "name": "account",
          "type": "address"
        },
        {
          "internalType": "address",
          "name": "operator",
          "type": "address"
        }
      ],
      "name": "isApprovedForAll",
      "outputs": [
        {
          "internalType": "bool",
          "name": "",
          "type": "bool"
        }
      ],
      "stateMutability": "view",
      "type": "function"
    },
    {
      "inputs": [
        {
          "internalType": "bytes32",
          "name": "role",
          "type": "bytes32"
        },
        {
          "internalType": "address",
          "name": "account",
          "type": "address"
        }
      ],
      "name": "renounceRole",
      "outputs": [],
      "stateMutability": "nonpayable",
      "type": "function"
    },
    {
      "inputs": [
        {
          "internalType": "bytes32",
          "name": "role",
          "type": "bytes32"
        },
        {
          "internalType": "address",
          "name": "account",
          "type": "address"
        }
      ],
      "name": "revokeRole",
      "outputs": [],
      "stateMutability": "nonpayable",
      "type": "function"
    },
    {
      "inputs": [
        {
          "internalType": "address",
          "name": "from",
          "type": "address"
        },
        {
          "internalType": "address",
          "name": "to",
          "type": "address"
        },
        {
          "internalType": "uint256[]",
          "name": "ids",
          "type": "uint256[]"
        },
        {
          "internalType": "uint256[]",
          "name": "amounts",
          "type": "uint256[]"
        },
        {
          "internalType": "bytes",
          "name": "data",
          "type": "bytes"
        }
      ],
      "name": "safeBatchTransferFrom",
      "outputs": [],
      "stateMutability": "nonpayable",
      "type": "function"
    },
    {
      "inputs": [
        {
          "internalType": "address",
          "name": "from",
          "type": "address"
        },
        {
          "internalType": "address",
          "name": "to",
          "type": "address"
        },
        {
          "internalType": "uint256",
          "name": "id",
          "type": "uint256"
        },
        {
          "internalType": "uint256",
          "name": "amount",
          "type": "uint256"
        },
        {
          "internalType": "bytes",
          "name": "data",
          "type": "bytes"
        }
      ],
      "name": "safeTransferFrom",
      "outputs": [],
      "stateMutability": "nonpayable",
      "type": "function"
    },
    {
      "inputs": [
        {
          "internalType": "address",
          "name": "operator",
          "type": "address"
        },
        {
          "internalType": "bool",
          "name": "approved",
          "type": "bool"
        }
      ],
      "name": "setApprovalForAll",
      "outputs": [],
      "stateMutability": "nonpayable",
      "type": "function"
    },
    {
      "inputs": [
        {
          "internalType": "bytes4",
          "name": "interfaceId",
          "type": "bytes4"
        }
      ],
      "name": "supportsInterface",
      "outputs": [
        {
          "internalType": "bool",
          "name": "",
          "type": "bool"
        }
      ],
      "stateMutability": "view",
      "type": "function"
    },
    {
      "inputs": [
        {
          "internalType": "uint256",
          "name": "",
          "type": "uint256"
        }
      ],
      "name": "uri",
      "outputs": [
        {
          "internalType": "string",
          "name": "",
          "type": "string"
        }
      ],
      "stateMutability": "view",
      "type": "function"
    },
    {
      "inputs": [],
      "name": "initialize",
      "outputs": [],
      "stateMutability": "nonpayable",
      "type": "function"
    },
    {
      "inputs": [
        {
          "internalType": "address",
          "name": "_address",
          "type": "address"
        },
        {
          "internalType": "uint256",
          "name": "amount",
          "type": "uint256"
        }
      ],
      "name": "mintParts",
      "outputs": [],
      "stateMutability": "nonpayable",
      "type": "function"
    },
    {
      "inputs": [
        {
          "internalType": "address",
          "name": "_address",
          "type": "address"
        },
        {
          "internalType": "uint256",
          "name": "amount",
          "type": "uint256"
        }
      ],
      "name": "burnParts",
      "outputs": [],
      "stateMutability": "nonpayable",
      "type": "function"
    },
    {
      "inputs": [
        {
          "internalType": "address",
          "name": "_address",
          "type": "address"
        },
        {
          "internalType": "uint256",
          "name": "amount",
          "type": "uint256"
        }
      ],
      "name": "mintFireCrystals",
      "outputs": [],
      "stateMutability": "nonpayable",
      "type": "function"
    },
    {
      "inputs": [
        {
          "internalType": "address",
          "name": "_address",
          "type": "address"
        },
        {
          "internalType": "uint256",
          "name": "amount",
          "type": "uint256"
        }
      ],
      "name": "burnFireCrystals",
      "outputs": [],
      "stateMutability": "nonpayable",
      "type": "function"
    },
    {
      "inputs": [
        {
          "internalType": "address",
          "name": "_address",
          "type": "address"
        },
        {
          "internalType": "uint256",
          "name": "amount",
          "type": "uint256"
        }
      ],
      "name": "mintWaterCrystals",
      "outputs": [],
      "stateMutability": "nonpayable",
      "type": "function"
    },
    {
      "inputs": [
        {
          "internalType": "address",
          "name": "_address",
          "type": "address"
        },
        {
          "internalType": "uint256",
          "name": "amount",
          "type": "uint256"
        }
      ],
      "name": "burnWaterCrystals",
      "outputs": [],
      "stateMutability": "nonpayable",
      "type": "function"
    },
    {
      "inputs": [
        {
          "internalType": "address",
          "name": "_address",
          "type": "address"
        },
        {
          "internalType": "uint256",
          "name": "amount",
          "type": "uint256"
        }
      ],
      "name": "mintEarthCrystal",
      "outputs": [],
      "stateMutability": "nonpayable",
      "type": "function"
    },
    {
      "inputs": [
        {
          "internalType": "address",
          "name": "_address",
          "type": "address"
        },
        {
          "internalType": "uint256",
          "name": "amount",
          "type": "uint256"
        }
      ],
      "name": "burnEarthCrystals",
      "outputs": [],
      "stateMutability": "nonpayable",
      "type": "function"
    },
    {
      "inputs": [
        {
          "internalType": "address",
          "name": "_address",
          "type": "address"
        },
        {
          "internalType": "uint256",
          "name": "amount",
          "type": "uint256"
        }
      ],
      "name": "mintLightningCrystals",
      "outputs": [],
      "stateMutability": "nonpayable",
      "type": "function"
    },
    {
      "inputs": [
        {
          "internalType": "address",
          "name": "_address",
          "type": "address"
        },
        {
          "internalType": "uint256",
          "name": "amount",
          "type": "uint256"
        }
      ],
      "name": "burnLightningCrystals",
      "outputs": [],
      "stateMutability": "nonpayable",
      "type": "function"
    },
    {
      "inputs": [
        {
          "internalType": "string",
          "name": "newuri",
          "type": "string"
        }
      ],
      "name": "updateUri",
      "outputs": [],
      "stateMutability": "nonpayable",
      "type": "function"
    }
  ],
  "bytecode": "0x608060405234801561001057600080fd5b50612b3a806100206000396000f3fe608060405234801561001057600080fd5b50600436106102055760003560e01c80638129fc1c1161011a578063ca15c873116100ad578063df74c55b1161007c578063df74c55b1461097c578063e985e9c5146109a8578063f242432a146109d6578063f600fe3714610a9f578063fb08fab514610acb57610205565b8063ca15c873146108db578063cbd0657b146108f8578063d547741f14610924578063db5c5f121461095057610205565b8063a217fddf116100e9578063a217fddf14610780578063a22cb46514610879578063adb85053146108a7578063bd7c1e11146108d357610205565b80638129fc1c146107fe5780639010d07c1461080657806391d14854146108455780639ce6d2531461087157610205565b80632eb2c2d61161019d57806352ca72821161016c57806352ca72821461072857806354c06d4e1461075457806356bda8d914610780578063570b3c6a14610788578063597c69ac146107f657610205565b80632eb2c2d61461039c5780632f2ff15d1461055d57806336568abe146105895780634e1273f4146105b557610205565b80631f782094116101d95780631f7820941461031d578063202678501461034b578063248a9ca3146103535780632ab8cb951461037057610205565b8062fdd58e1461020a57806301ffc9a71461024857806306da0ecb146102835780630e89341c1461028b575b600080fd5b6102366004803603604081101561022057600080fd5b506001600160a01b038135169060200135610af7565b60408051918252519081900360200190f35b61026f6004803603602081101561025e57600080fd5b50356001600160e01b031916610b69565b604080519115158252519081900360200190f35b610236610b88565b6102a8600480360360208110156102a157600080fd5b5035610b8d565b6040805160208082528351818301528351919283929083019185019080838360005b838110156102e25781810151838201526020016102ca565b50505050905090810190601f16801561030f5780820380516001836020036101000a031916815260200191505b509250505060405180910390f35b6103496004803603604081101561033357600080fd5b506001600160a01b038135169060200135610c25565b005b610236610c4d565b6102366004803603602081101561036957600080fd5b5035610c52565b6103496004803603604081101561038657600080fd5b506001600160a01b038135169060200135610c67565b610349600480360360a08110156103b257600080fd5b6001600160a01b038235811692602081013590911691810190606081016040820135600160201b8111156103e557600080fd5b8201836020820111156103f757600080fd5b803590602001918460208302840111600160201b8311171561041857600080fd5b9190808060200260200160405190810160405280939291908181526020018383602002808284376000920191909152509295949360208101935035915050600160201b81111561046757600080fd5b82018360208201111561047957600080fd5b803590602001918460208302840111600160201b8311171561049a57600080fd5b9190808060200260200160405190810160405280939291908181526020018383602002808284376000920191909152509295949360208101935035915050600160201b8111156104e957600080fd5b8201836020820111156104fb57600080fd5b803590602001918460018302840111600160201b8311171561051c57600080fd5b91908080601f016020809104026020016040519081016040528093929190818152602001838380828437600092019190915250929550610c7b945050505050565b6103496004803603604081101561057357600080fd5b50803590602001356001600160a01b0316610f7e565b6103496004803603604081101561059f57600080fd5b50803590602001356001600160a01b0316610fe6565b6106d8600480360360408110156105cb57600080fd5b810190602081018135600160201b8111156105e557600080fd5b8201836020820111156105f757600080fd5b803590602001918460208302840111600160201b8311171561061857600080fd5b9190808060200260200160405190810160405280939291908181526020018383602002808284376000920191909152509295949360208101935035915050600160201b81111561066757600080fd5b82018360208201111561067957600080fd5b803590602001918460208302840111600160201b8311171561069a57600080fd5b919080806020026020016040519081016040528093929190818152602001838360200280828437600092019190915250929550611047945050505050565b60408051602080825283518183015283519192839290830191858101910280838360005b838110156107145781810151838201526020016106fc565b505050509050019250505060405180910390f35b6103496004803603604081101561073e57600080fd5b506001600160a01b038135169060200135611133565b6103496004803603604081101561076a57600080fd5b506001600160a01b038135169060200135611147565b61023661116b565b6103496004803603602081101561079e57600080fd5b810190602081018135600160201b8111156107b857600080fd5b8201836020820111156107ca57600080fd5b803590602001918460018302840111600160201b831117156107eb57600080fd5b509092509050611170565b6102366111b7565b6103496111e3565b6108296004803603604081101561081c57600080fd5b50803590602001356112b0565b604080516001600160a01b039092168252519081900360200190f35b61026f6004803603604081101561085b57600080fd5b50803590602001356001600160a01b03166112d5565b6102366112f3565b6103496004803603604081101561088f57600080fd5b506001600160a01b03813516906020013515156112f8565b610349600480360360408110156108bd57600080fd5b506001600160a01b0381351690602001356113e7565b61023661140b565b610236600480360360208110156108f157600080fd5b5035611410565b6103496004803603604081101561090e57600080fd5b506001600160a01b038135169060200135611427565b6103496004803603604081101561093a57600080fd5b50803590602001356001600160a01b031661143b565b6103496004803603604081101561096657600080fd5b506001600160a01b038135169060200135611494565b6103496004803603604081101561099257600080fd5b506001600160a01b0381351690602001356114a8565b61026f600480360360408110156109be57600080fd5b506001600160a01b03813581169160200135166114cc565b610349600480360360a08110156109ec57600080fd5b6001600160a01b03823581169260208101359091169160408201359160608101359181019060a081016080820135600160201b811115610a2b57600080fd5b820183602082011115610a3d57600080fd5b803590602001918460018302840111600160201b83111715610a5e57600080fd5b91908080601f0160208091040260200160405190810160405280939291908181526020018383808284376000920191909152509295506114fa945050505050565b61034960048036036040811015610ab557600080fd5b506001600160a01b0381351690602001356116cb565b61034960048036036040811015610ae157600080fd5b506001600160a01b0381351690602001356116ef565b60006001600160a01b038316610b3e5760405162461bcd60e51b815260040180806020018281038252602b8152602001806128c1602b913960400191505060405180910390fd5b5060008181526065602090815260408083206001600160a01b03861684529091529020545b92915050565b6001600160e01b03191660009081526033602052604090205460ff1690565b600181565b60678054604080516020601f6002600019610100600188161502019095169490940493840181900481028201810190925282815260609390929091830182828015610c195780601f10610bee57610100808354040283529160200191610c19565b820191906000526020600020905b815481529060010190602001808311610bfc57829003601f168201915b50505050509050919050565b610c2d611703565b610c498260008360405180602001604052806000815250611773565b5050565b600281565b60009081526097602052604090206002015490565b610c6f611703565b610c4982600283611881565b8151835114610cbb5760405162461bcd60e51b8152600401808060200182810382526028815260200180612a8d6028913960400191505060405180910390fd5b6001600160a01b038416610d005760405162461bcd60e51b81526004018080602001828103825260258152602001806129696025913960400191505060405180910390fd5b610d086119ba565b6001600160a01b0316856001600160a01b03161480610d335750610d3385610d2e6119ba565b6114cc565b610d6e5760405162461bcd60e51b815260040180806020018281038252603281526020018061298e6032913960400191505060405180910390fd5b6000610d786119ba565b9050610d888187878787876119bf565b60005b8451811015610e8e576000858281518110610da257fe5b602002602001015190506000858381518110610dba57fe5b60200260200101519050610e27816040518060600160405280602a8152602001612a11602a91396065600086815260200190815260200160002060008d6001600160a01b03166001600160a01b0316815260200190815260200160002054611a3b9092919063ffffffff16565b60008381526065602090815260408083206001600160a01b038e811685529252808320939093558a1681522054610e5e9082611ad2565b60009283526065602090815260408085206001600160a01b038c1686529091529092209190915550600101610d8b565b50846001600160a01b0316866001600160a01b0316826001600160a01b03167f4a39dc06d4c0dbc64b70af90fd698a233a518aa5d07e595d983b8c0526c8f7fb8787604051808060200180602001838103835285818151815260200191508051906020019060200280838360005b83811015610f14578181015183820152602001610efc565b50505050905001838103825284818151815260200191508051906020019060200280838360005b83811015610f53578181015183820152602001610f3b565b5050505090500194505050505060405180910390a4610f76818787878787611b2c565b505050505050565b600082815260976020526040902060020154610fa190610f9c6119ba565b6112d5565b610fdc5760405162461bcd60e51b815260040180806020018281038252602f815260200180612892602f913960400191505060405180910390fd5b610c498282611e6a565b610fee6119ba565b6001600160a01b0316816001600160a01b03161461103d5760405162461bcd60e51b815260040180806020018281038252602f815260200180612ad6602f913960400191505060405180910390fd5b610c498282611ed9565b606081518351146110895760405162461bcd60e51b8152600401808060200182810382526029815260200180612a646029913960400191505060405180910390fd5b6060835167ffffffffffffffff811180156110a357600080fd5b506040519080825280602002602001820160405280156110cd578160200160208202803683370190505b50905060005b845181101561112b5761110c8582815181106110eb57fe5b60200260200101518583815181106110ff57fe5b6020026020010151610af7565b82828151811061111857fe5b60209081029190910101526001016110d3565b509392505050565b61113b611703565b610c4982600483611881565b61114f611703565b610c498260048360405180602001604052806000815250611773565b600081565b611178611f48565b610c4982828080601f016020809104026020016040519081016040528093929190818152602001838380828437600092019190915250611fa492505050565b604080517321a920a32a24a723afa4aa22a6a9afa0a226a4a760611b8152905190819003601401902081565b600054610100900460ff16806111fc57506111fc611fb7565b8061120a575060005460ff16155b6112455760405162461bcd60e51b815260040180806020018281038252602e8152602001806129c0602e913960400191505060405180910390fd5b600054610100900460ff16158015611270576000805460ff1961ff0019909116610100171660011790555b61128860405180602001604052806000815250611fc8565b611290612083565b61129b600033610fdc565b80156112ad576000805461ff00191690555b50565b60008281526097602052604081206112ce908363ffffffff61212016565b9392505050565b60008281526097602052604081206112ce908363ffffffff61212c16565b600381565b816001600160a01b031661130a6119ba565b6001600160a01b031614156113505760405162461bcd60e51b8152600401808060200182810382526029815260200180612a3b6029913960400191505060405180910390fd5b806066600061135d6119ba565b6001600160a01b03908116825260208083019390935260409182016000908120918716808252919093529120805460ff1916921515929092179091556113a16119ba565b60408051841515815290516001600160a01b0392909216917f17307eab39ab6107e8899845ad3d59bd9653f200f220920489ca2b5937696c319181900360200190a35050565b6113ef611703565b610c498260038360405180602001604052806000815250611773565b600481565b6000818152609760205260408120610b6390612141565b61142f611703565b610c4982600083611881565b60008281526097602052604090206002015461145990610f9c6119ba565b61103d5760405162461bcd60e51b81526004018080602001828103825260308152602001806129396030913960400191505060405180910390fd5b61149c611703565b610c4982600383611881565b6114b0611703565b610c498260018360405180602001604052806000815250611773565b6001600160a01b03918216600090815260666020908152604080832093909416825291909152205460ff1690565b6001600160a01b03841661153f5760405162461bcd60e51b81526004018080602001828103825260258152602001806129696025913960400191505060405180910390fd5b6115476119ba565b6001600160a01b0316856001600160a01b0316148061156d575061156d85610d2e6119ba565b6115a85760405162461bcd60e51b81526004018080602001828103825260298152602001806129106029913960400191505060405180910390fd5b60006115b26119ba565b90506115d28187876115c38861214c565b6115cc8861214c565b876119bf565b61161f836040518060600160405280602a8152602001612a11602a913960008781526065602090815260408083206001600160a01b038d168452909152902054919063ffffffff611a3b16565b60008581526065602090815260408083206001600160a01b038b811685529252808320939093558716815220546116569084611ad2565b60008581526065602090815260408083206001600160a01b03808b168086529184529382902094909455805188815291820187905280518a8416938616927fc3d58168c5ae7397731d063d5bbf3d657854427343f4c083240f7aacaa2d0f6292908290030190a4610f76818787878787612190565b6116d3611703565b610c498260028360405180602001604052806000815250611773565b6116f7611703565b610c4982600183611881565b604080517321a920a32a24a723afa4aa22a6a9afa0a226a4a760611b8152905190819003601401902061173690336112d5565b6117715760405162461bcd60e51b81526004018080602001828103825260218152602001806128716021913960400191505060405180910390fd5b565b6001600160a01b0384166117b85760405162461bcd60e51b8152600401808060200182810382526021815260200180612ab56021913960400191505060405180910390fd5b60006117c26119ba565b90506117d4816000876115c38861214c565b60008481526065602090815260408083206001600160a01b0389168452909152902054611807908463ffffffff611ad216565b60008581526065602090815260408083206001600160a01b03808b16808652918452828520959095558151898152928301889052815190948616927fc3d58168c5ae7397731d063d5bbf3d657854427343f4c083240f7aacaa2d0f6292908290030190a461187a81600087878787612190565b5050505050565b6001600160a01b0383166118c65760405162461bcd60e51b81526004018080602001828103825260238152602001806129ee6023913960400191505060405180910390fd5b60006118d06119ba565b9050611900818560006118e28761214c565b6118eb8761214c565b604051806020016040528060008152506119bf565b61194d826040518060600160405280602481526020016128ec6024913960008681526065602090815260408083206001600160a01b038b168452909152902054919063ffffffff611a3b16565b60008481526065602090815260408083206001600160a01b03808a16808652918452828520959095558151888152928301879052815193949093908616927fc3d58168c5ae7397731d063d5bbf3d657854427343f4c083240f7aacaa2d0f6292908290030190a450505050565b335b90565b6119cd868686868686610f76565b604080517321a920a32a24a723afa4aa22a6a9afa0a226a4a760611b81529051908190036014019020611a0090876112d5565b610f765760405162461bcd60e51b81526004018080602001828103825260218152602001806128716021913960400191505060405180910390fd5b60008184841115611aca5760405162461bcd60e51b81526004018080602001828103825283818151815260200191508051906020019080838360005b83811015611a8f578181015183820152602001611a77565b50505050905090810190601f168015611abc5780820380516001836020036101000a031916815260200191505b509250505060405180910390fd5b505050900390565b6000828201838110156112ce576040805162461bcd60e51b815260206004820152601b60248201527f536166654d6174683a206164646974696f6e206f766572666c6f770000000000604482015290519081900360640190fd5b611b3e846001600160a01b0316612323565b15610f7657836001600160a01b031663bc197c8187878686866040518663ffffffff1660e01b815260040180866001600160a01b03166001600160a01b03168152602001856001600160a01b03166001600160a01b03168152602001806020018060200180602001848103845287818151815260200191508051906020019060200280838360005b83811015611bde578181015183820152602001611bc6565b50505050905001848103835286818151815260200191508051906020019060200280838360005b83811015611c1d578181015183820152602001611c05565b50505050905001848103825285818151815260200191508051906020019080838360005b83811015611c59578181015183820152602001611c41565b50505050905090810190601f168015611c865780820380516001836020036101000a031916815260200191505b5098505050505050505050602060405180830381600087803b158015611cab57600080fd5b505af1925050508015611cd057506040513d6020811015611ccb57600080fd5b505160015b611e12576040516000815260443d1015611cec57506000611d89565b60046000803e60005160e01c6308c379a08114611d0d576000915050611d89565b60043d036004833e81513d602482011167ffffffffffffffff82111715611d3957600092505050611d89565b808301805167ffffffffffffffff811115611d5b576000945050505050611d89565b8060208301013d8601811115611d7957600095505050505050611d89565b601f01601f191660405250925050505b80611d945750611ddb565b60405162461bcd60e51b8152602060048201818152835160248401528351849391928392604401919085019080838360008315611a8f578181015183820152602001611a77565b60405162461bcd60e51b81526004018080602001828103825260348152602001806127f36034913960400191505060405180910390fd5b6001600160e01b0319811663bc197c8160e01b14611e615760405162461bcd60e51b81526004018080602001828103825260288152602001806128496028913960400191505060405180910390fd5b50505050505050565b6000828152609760205260409020611e88908263ffffffff61232916565b15610c4957611e956119ba565b6001600160a01b0316816001600160a01b0316837f2f8788117e7eff1d82e926ec794901d17c78024a50270940304540a733656f0d60405160405180910390a45050565b6000828152609760205260409020611ef7908263ffffffff61233e16565b15610c4957611f046119ba565b6001600160a01b0316816001600160a01b0316837ff6391f5c32d9c69d2a47ea670b442974b53935d1edc7fd64eb21e047a839171b60405160405180910390a45050565b611f536000336112d5565b611771576040805162461bcd60e51b815260206004820152601a60248201527f44656661756c742061646d696e20726f6c65206e65656465642e000000000000604482015290519081900360640190fd5b8051610c4990606790602084019061275a565b6000611fc230612323565b15905090565b600054610100900460ff1680611fe15750611fe1611fb7565b80611fef575060005460ff16155b61202a5760405162461bcd60e51b815260040180806020018281038252602e8152602001806129c0602e913960400191505060405180910390fd5b600054610100900460ff16158015612055576000805460ff1961ff0019909116610100171660011790555b61205d612353565b6120656123f3565b61206e82612490565b8015610c49576000805461ff00191690555050565b600054610100900460ff168061209c575061209c611fb7565b806120aa575060005460ff16155b6120e55760405162461bcd60e51b815260040180806020018281038252602e8152602001806129c0602e913960400191505060405180910390fd5b600054610100900460ff16158015612110576000805460ff1961ff0019909116610100171660011790555b612118612353565b61129b612353565b60006112ce8383612546565b60006112ce836001600160a01b0384166125aa565b6000610b63826125c2565b60408051600180825281830190925260609182919060208083019080368337019050509050828160008151811061217f57fe5b602090810291909101015292915050565b6121a2846001600160a01b0316612323565b15610f7657836001600160a01b031663f23a6e6187878686866040518663ffffffff1660e01b815260040180866001600160a01b03166001600160a01b03168152602001856001600160a01b03166001600160a01b0316815260200184815260200183815260200180602001828103825283818151815260200191508051906020019080838360005b8381101561224357818101518382015260200161222b565b50505050905090810190601f1680156122705780820380516001836020036101000a031916815260200191505b509650505050505050602060405180830381600087803b15801561229357600080fd5b505af19250505080156122b857506040513d60208110156122b357600080fd5b505160015b6122d4576040516000815260443d1015611cec57506000611d89565b6001600160e01b0319811663f23a6e6160e01b14611e615760405162461bcd60e51b81526004018080602001828103825260288152602001806128496028913960400191505060405180910390fd5b3b151590565b60006112ce836001600160a01b0384166125c6565b60006112ce836001600160a01b038416612610565b600054610100900460ff168061236c575061236c611fb7565b8061237a575060005460ff16155b6123b55760405162461bcd60e51b815260040180806020018281038252602e8152602001806129c0602e913960400191505060405180910390fd5b600054610100900460ff1615801561129b576000805460ff1961ff00199091166101001716600117905580156112ad576000805461ff001916905550565b600054610100900460ff168061240c575061240c611fb7565b8061241a575060005460ff16155b6124555760405162461bcd60e51b815260040180806020018281038252602e8152602001806129c0602e913960400191505060405180910390fd5b600054610100900460ff16158015612480576000805460ff1961ff0019909116610100171660011790555b61129b6301ffc9a760e01b6126d6565b600054610100900460ff16806124a957506124a9611fb7565b806124b7575060005460ff16155b6124f25760405162461bcd60e51b815260040180806020018281038252602e8152602001806129c0602e913960400191505060405180910390fd5b600054610100900460ff1615801561251d576000805460ff1961ff0019909116610100171660011790555b61252682611fa4565b612536636cdb3d1360e11b6126d6565b61206e6303a24d0760e21b6126d6565b815460009082106125885760405162461bcd60e51b81526004018080602001828103825260228152602001806128276022913960400191505060405180910390fd5b82600001828154811061259757fe5b9060005260206000200154905092915050565b60009081526001919091016020526040902054151590565b5490565b60006125d283836125aa565b61260857508154600181810184556000848152602080822090930184905584548482528286019093526040902091909155610b63565b506000610b63565b600081815260018301602052604081205480156126cc578354600019808301919081019060009087908390811061264357fe5b906000526020600020015490508087600001848154811061266057fe5b60009182526020808320909101929092558281526001898101909252604090209084019055865487908061269057fe5b60019003818190600052602060002001600090559055866001016000878152602001908152602001600020600090556001945050505050610b63565b6000915050610b63565b6001600160e01b03198082161415612735576040805162461bcd60e51b815260206004820152601c60248201527f4552433136353a20696e76616c696420696e7465726661636520696400000000604482015290519081900360640190fd5b6001600160e01b0319166000908152603360205260409020805460ff19166001179055565b828054600181600116156101000203166002900490600052602060002090601f016020900481019282601f1061279b57805160ff19168380011785556127c8565b828001600101855582156127c8579182015b828111156127c85782518255916020019190600101906127ad565b506127d49291506127d8565b5090565b6119bc91905b808211156127d457600081556001016127de56fe455243313135353a207472616e7366657220746f206e6f6e2045524331313535526563656976657220696d706c656d656e746572456e756d657261626c655365743a20696e646578206f7574206f6620626f756e6473455243313135353a204552433131353552656365697665722072656a656374656420746f6b656e734372616674696e67206974656d732061646d696e20726f6c65206e65656465642e416363657373436f6e74726f6c3a2073656e646572206d75737420626520616e2061646d696e20746f206772616e74455243313135353a2062616c616e636520717565727920666f7220746865207a65726f2061646472657373455243313135353a206275726e20616d6f756e7420657863656564732062616c616e6365455243313135353a2063616c6c6572206973206e6f74206f776e6572206e6f7220617070726f766564416363657373436f6e74726f6c3a2073656e646572206d75737420626520616e2061646d696e20746f207265766f6b65455243313135353a207472616e7366657220746f20746865207a65726f2061646472657373455243313135353a207472616e736665722063616c6c6572206973206e6f74206f776e6572206e6f7220617070726f766564496e697469616c697a61626c653a20636f6e747261637420697320616c726561647920696e697469616c697a6564455243313135353a206275726e2066726f6d20746865207a65726f2061646472657373455243313135353a20696e73756666696369656e742062616c616e636520666f72207472616e73666572455243313135353a2073657474696e6720617070726f76616c2073746174757320666f722073656c66455243313135353a206163636f756e747320616e6420696473206c656e677468206d69736d61746368455243313135353a2069647320616e6420616d6f756e7473206c656e677468206d69736d61746368455243313135353a206d696e7420746f20746865207a65726f2061646472657373416363657373436f6e74726f6c3a2063616e206f6e6c792072656e6f756e636520726f6c657320666f722073656c66a26469706673582212202f0d50fd68a3a783746e5cbe2ba8ef4fa1f0bbfef15bdb058e89df91a10b197f64736f6c63430006050033",
  "immutableReferences": {},
  "source": "//SPDX-License-Identifier: MIT\npragma solidity ^0.6.0;\n\nimport '@openzeppelin/contracts-upgradeable/proxy/Initializable.sol';\nimport '@openzeppelin/contracts-upgradeable/access/AccessControlUpgradeable.sol';\nimport '@openzeppelin/contracts/math/SafeMath.sol';\nimport 'abdk-libraries-solidity/ABDKMath64x64.sol';\nimport '@openzeppelin/contracts-upgradeable/token/ERC1155/ERC1155Upgradeable.sol';\n\ncontract CraftingItems is Initializable, ERC1155Upgradeable, AccessControlUpgradeable {\n    using ABDKMath64x64 for int128;\n    using SafeMath for uint256;\n\n    uint256 public constant PART = 0;\n    uint256 public constant FIRE_CRYSTAL = 1;\n    uint256 public constant LIGHTNING_CRYSTAL = 2;\n    uint256 public constant WATER_CRYSTAL = 3;\n    uint256 public constant EARTH_CRYSTAL = 4;\n\n    bytes32 public constant CRAFTING_ITEMS_ADMIN = keccak256('CRAFTING_ITEMS_ADMIN');\n\n    function initialize() public initializer {\n        __ERC1155_init(\"\");\n        __AccessControl_init();\n\n        _setupRole(DEFAULT_ADMIN_ROLE, msg.sender);\n    }\n\n    function _beforeTokenTransfer(\n        address operator,\n        address from,\n        address to,\n        uint256[] memory ids,\n        uint256[] memory amounts,\n        bytes memory data\n    ) internal virtual override {\n        super._beforeTokenTransfer(operator, from, to, ids, amounts, data);\n        require(hasRole(CRAFTING_ITEMS_ADMIN, operator), 'Crafting items admin role needed.');\n    }\n\n    function mintParts(address _address, uint256 amount) public restricted {\n        _mint(_address, PART, amount, '');\n    }\n\n    function burnParts(address _address, uint256 amount) public restricted {\n        _burn(_address, PART, amount);\n    }\n\n    function mintFireCrystals(address _address, uint256 amount) public restricted {\n        _mint(_address, FIRE_CRYSTAL, amount, '');\n    }\n\n    function burnFireCrystals(address _address, uint256 amount) public restricted {\n        _burn(_address, FIRE_CRYSTAL, amount);\n    }\n\n    function mintWaterCrystals(address _address, uint256 amount) public restricted {\n        _mint(_address, WATER_CRYSTAL, amount, '');\n    }\n\n    function burnWaterCrystals(address _address, uint256 amount) public restricted {\n        _burn(_address, WATER_CRYSTAL, amount);\n    }\n\n    function mintEarthCrystal(address _address, uint256 amount) public restricted {\n        _mint(_address, EARTH_CRYSTAL, amount, '');\n    }\n\n    function burnEarthCrystals(address _address, uint256 amount) public restricted {\n        _burn(_address, EARTH_CRYSTAL, amount);\n    }\n\n    function mintLightningCrystals(address _address, uint256 amount) public restricted {\n        _mint(_address, LIGHTNING_CRYSTAL, amount, '');\n    }\n\n    function burnLightningCrystals(address _address, uint256 amount) public restricted {\n        _burn(_address, LIGHTNING_CRYSTAL, amount);\n    }\n\n    function updateUri(string calldata newuri) external onlyAdmin {\n        _setURI(newuri);\n    }\n\n\n    modifier restricted() {\n        _restricted();\n        _;\n    }\n\n    modifier onlyAdmin(){\n        _onlyAdmin();\n        _;\n    }\n\n    function _restricted() internal view {\n        require(hasRole(CRAFTING_ITEMS_ADMIN, msg.sender), 'Crafting items admin role needed.');\n    }\n\n    function _onlyAdmin() internal view {\n        require(hasRole(DEFAULT_ADMIN_ROLE, msg.sender), 'Default admin role needed.');\n    }\n}\n",
  "sourcePath": "/Users/school/dev/ciphershooters/contracts/CraftingItems.sol",
  "compiler": {
    "name": "solc",
    "version": "0.6.5+commit.f956cc89.Emscripten.clang"
  },
  "schemaVersion": "3.4.6",
  "updatedAt": "2022-06-04T16:14:57.634Z",
  "devdoc": {
    "methods": {
      "balanceOf(address,uint256)": {
        "details": "See {IERC1155-balanceOf}.     * Requirements:     * - `account` cannot be the zero address."
      },
      "balanceOfBatch(address[],uint256[])": {
        "details": "See {IERC1155-balanceOfBatch}.     * Requirements:     * - `accounts` and `ids` must have the same length."
      },
      "getRoleAdmin(bytes32)": {
        "details": "Returns the admin role that controls `role`. See {grantRole} and {revokeRole}.     * To change a role's admin, use {_setRoleAdmin}."
      },
      "getRoleMember(bytes32,uint256)": {
        "details": "Returns one of the accounts that have `role`. `index` must be a value between 0 and {getRoleMemberCount}, non-inclusive.     * Role bearers are not sorted in any particular way, and their ordering may change at any point.     * WARNING: When using {getRoleMember} and {getRoleMemberCount}, make sure you perform all queries on the same block. See the following https://forum.openzeppelin.com/t/iterating-over-elements-on-enumerableset-in-openzeppelin-contracts/2296[forum post] for more information."
      },
      "getRoleMemberCount(bytes32)": {
        "details": "Returns the number of accounts that have `role`. Can be used together with {getRoleMember} to enumerate all bearers of a role."
      },
      "grantRole(bytes32,address)": {
        "details": "Grants `role` to `account`.     * If `account` had not been already granted `role`, emits a {RoleGranted} event.     * Requirements:     * - the caller must have ``role``'s admin role."
      },
      "hasRole(bytes32,address)": {
        "details": "Returns `true` if `account` has been granted `role`."
      },
      "isApprovedForAll(address,address)": {
        "details": "See {IERC1155-isApprovedForAll}."
      },
      "renounceRole(bytes32,address)": {
        "details": "Revokes `role` from the calling account.     * Roles are often managed via {grantRole} and {revokeRole}: this function's purpose is to provide a mechanism for accounts to lose their privileges if they are compromised (such as when a trusted device is misplaced).     * If the calling account had been granted `role`, emits a {RoleRevoked} event.     * Requirements:     * - the caller must be `account`."
      },
      "revokeRole(bytes32,address)": {
        "details": "Revokes `role` from `account`.     * If `account` had been granted `role`, emits a {RoleRevoked} event.     * Requirements:     * - the caller must have ``role``'s admin role."
      },
      "safeBatchTransferFrom(address,address,uint256[],uint256[],bytes)": {
        "details": "See {IERC1155-safeBatchTransferFrom}."
      },
      "safeTransferFrom(address,address,uint256,uint256,bytes)": {
        "details": "See {IERC1155-safeTransferFrom}."
      },
      "setApprovalForAll(address,bool)": {
        "details": "See {IERC1155-setApprovalForAll}."
      },
      "supportsInterface(bytes4)": {
        "details": "See {IERC165-supportsInterface}.     * Time complexity O(1), guaranteed to always use less than 30 000 gas."
      },
      "uri(uint256)": {
        "details": "See {IERC1155MetadataURI-uri}.     * This implementation returns the same URI for *all* token types. It relies on the token type ID substitution mechanism https://eips.ethereum.org/EIPS/eip-1155#metadata[defined in the EIP].     * Clients calling this function must replace the `\\{id\\}` substring with the actual token type ID."
      }
    }
  },
  "userdoc": {
    "methods": {}
  }
}