{
  "contractName": "Crafting",
  "abi": [
    {
      "anonymous": false,
      "inputs": [
        {
          "indexed": false,
          "internalType": "address",
          "name": "sender",
          "type": "address"
        },
        {
          "indexed": false,
          "internalType": "enum ItemTypes",
          "name": "itemType",
          "type": "uint8"
        }
      ],
      "name": "LootItems",
      "type": "event"
    },
    {
      "anonymous": false,
      "inputs": [
        {
          "indexed": false,
          "internalType": "address",
          "name": "sender",
          "type": "address"
        },
        {
          "indexed": false,
          "internalType": "enum ItemTypes",
          "name": "itemType",
          "type": "uint8"
        }
      ],
      "name": "LootedRandomItem",
      "type": "event"
    },
    {
      "anonymous": false,
      "inputs": [
        {
          "indexed": false,
          "internalType": "address",
          "name": "account",
          "type": "address"
        }
      ],
      "name": "Paused",
      "type": "event"
    },
    {
      "anonymous": false,
      "inputs": [
        {
          "indexed": true,
          "internalType": "bytes32",
          "name": "role",
          "type": "bytes32"
        },
        {
          "indexed": true,
          "internalType": "bytes32",
          "name": "previousAdminRole",
          "type": "bytes32"
        },
        {
          "indexed": true,
          "internalType": "bytes32",
          "name": "newAdminRole",
          "type": "bytes32"
        }
      ],
      "name": "RoleAdminChanged",
      "type": "event"
    },
    {
      "anonymous": false,
      "inputs": [
        {
          "indexed": true,
          "internalType": "bytes32",
          "name": "role",
          "type": "bytes32"
        },
        {
          "indexed": true,
          "internalType": "address",
          "name": "account",
          "type": "address"
        },
        {
          "indexed": true,
          "internalType": "address",
          "name": "sender",
          "type": "address"
        }
      ],
      "name": "RoleGranted",
      "type": "event"
    },
    {
      "anonymous": false,
      "inputs": [
        {
          "indexed": true,
          "internalType": "bytes32",
          "name": "role",
          "type": "bytes32"
        },
        {
          "indexed": true,
          "internalType": "address",
          "name": "account",
          "type": "address"
        },
        {
          "indexed": true,
          "internalType": "address",
          "name": "sender",
          "type": "address"
        }
      ],
      "name": "RoleRevoked",
      "type": "event"
    },
    {
      "anonymous": false,
      "inputs": [
        {
          "indexed": false,
          "internalType": "address",
          "name": "sender",
          "type": "address"
        },
        {
          "indexed": false,
          "internalType": "uint256",
          "name": "reward",
          "type": "uint256"
        },
        {
          "indexed": false,
          "internalType": "uint256",
          "name": "gunQuality",
          "type": "uint256"
        }
      ],
      "name": "Salvage",
      "type": "event"
    },
    {
      "anonymous": false,
      "inputs": [
        {
          "indexed": false,
          "internalType": "address",
          "name": "sender",
          "type": "address"
        },
        {
          "indexed": false,
          "internalType": "uint256",
          "name": "earthCrystals",
          "type": "uint256"
        },
        {
          "indexed": false,
          "internalType": "uint256",
          "name": "amount",
          "type": "uint256"
        }
      ],
      "name": "SetEarthCrystals",
      "type": "event"
    },
    {
      "anonymous": false,
      "inputs": [
        {
          "indexed": false,
          "internalType": "address",
          "name": "sender",
          "type": "address"
        },
        {
          "indexed": false,
          "internalType": "uint256",
          "name": "fireCrystals",
          "type": "uint256"
        },
        {
          "indexed": false,
          "internalType": "uint256",
          "name": "amount",
          "type": "uint256"
        }
      ],
      "name": "SetFireCrystals",
      "type": "event"
    },
    {
      "anonymous": false,
      "inputs": [
        {
          "indexed": false,
          "internalType": "address",
          "name": "sender",
          "type": "address"
        },
        {
          "indexed": false,
          "internalType": "uint256",
          "name": "lightningCrystals",
          "type": "uint256"
        },
        {
          "indexed": false,
          "internalType": "uint256",
          "name": "amount",
          "type": "uint256"
        }
      ],
      "name": "SetLightningCrystals",
      "type": "event"
    },
    {
      "anonymous": false,
      "inputs": [
        {
          "indexed": false,
          "internalType": "address",
          "name": "sender",
          "type": "address"
        },
        {
          "indexed": false,
          "internalType": "uint256",
          "name": "parts",
          "type": "uint256"
        },
        {
          "indexed": false,
          "internalType": "uint256",
          "name": "amount",
          "type": "uint256"
        }
      ],
      "name": "SetParts",
      "type": "event"
    },
    {
      "anonymous": false,
      "inputs": [
        {
          "indexed": false,
          "internalType": "address",
          "name": "sender",
          "type": "address"
        },
        {
          "indexed": false,
          "internalType": "uint256",
          "name": "waterCrystals",
          "type": "uint256"
        },
        {
          "indexed": false,
          "internalType": "uint256",
          "name": "amount",
          "type": "uint256"
        }
      ],
      "name": "SetWaterCrystals",
      "type": "event"
    },
    {
      "anonymous": false,
      "inputs": [
        {
          "indexed": false,
          "internalType": "address",
          "name": "account",
          "type": "address"
        }
      ],
      "name": "Unpaused",
      "type": "event"
    },
    {
      "inputs": [],
      "name": "DEFAULT_ADMIN_ROLE",
      "outputs": [
        {
          "internalType": "bytes32",
          "name": "",
          "type": "bytes32"
        }
      ],
      "stateMutability": "view",
      "type": "function"
    },
    {
      "inputs": [],
      "name": "GAME_ADMIN",
      "outputs": [
        {
          "internalType": "bytes32",
          "name": "",
          "type": "bytes32"
        }
      ],
      "stateMutability": "view",
      "type": "function"
    },
    {
      "inputs": [],
      "name": "characters",
      "outputs": [
        {
          "internalType": "contract Characters",
          "name": "",
          "type": "address"
        }
      ],
      "stateMutability": "view",
      "type": "function"
    },
    {
      "inputs": [],
      "name": "coreToken",
      "outputs": [
        {
          "internalType": "contract IERC20Upgradeable",
          "name": "",
          "type": "address"
        }
      ],
      "stateMutability": "view",
      "type": "function"
    },
    {
      "inputs": [],
      "name": "craftingItems",
      "outputs": [
        {
          "internalType": "contract CraftingItems",
          "name": "",
          "type": "address"
        }
      ],
      "stateMutability": "view",
      "type": "function"
    },
    {
      "inputs": [
        {
          "internalType": "bytes32",
          "name": "role",
          "type": "bytes32"
        }
      ],
      "name": "getRoleAdmin",
      "outputs": [
        {
          "internalType": "bytes32",
          "name": "",
          "type": "bytes32"
        }
      ],
      "stateMutability": "view",
      "type": "function"
    },
    {
      "inputs": [
        {
          "internalType": "bytes32",
          "name": "role",
          "type": "bytes32"
        },
        {
          "internalType": "uint256",
          "name": "index",
          "type": "uint256"
        }
      ],
      "name": "getRoleMember",
      "outputs": [
        {
          "internalType": "address",
          "name": "",
          "type": "address"
        }
      ],
      "stateMutability": "view",
      "type": "function"
    },
    {
      "inputs": [
        {
          "internalType": "bytes32",
          "name": "role",
          "type": "bytes32"
        }
      ],
      "name": "getRoleMemberCount",
      "outputs": [
        {
          "internalType": "uint256",
          "name": "",
          "type": "uint256"
        }
      ],
      "stateMutability": "view",
      "type": "function"
    },
    {
      "inputs": [
        {
          "internalType": "bytes32",
          "name": "role",
          "type": "bytes32"
        },
        {
          "internalType": "address",
          "name": "account",
          "type": "address"
        }
      ],
      "name": "grantRole",
      "outputs": [],
      "stateMutability": "nonpayable",
      "type": "function"
    },
    {
      "inputs": [
        {
          "internalType": "bytes32",
          "name": "role",
          "type": "bytes32"
        },
        {
          "internalType": "address",
          "name": "account",
          "type": "address"
        }
      ],
      "name": "hasRole",
      "outputs": [
        {
          "internalType": "bool",
          "name": "",
          "type": "bool"
        }
      ],
      "stateMutability": "view",
      "type": "function"
    },
    {
      "inputs": [
        {
          "internalType": "address",
          "name": "",
          "type": "address"
        },
        {
          "internalType": "address",
          "name": "",
          "type": "address"
        },
        {
          "internalType": "uint256[]",
          "name": "",
          "type": "uint256[]"
        },
        {
          "internalType": "uint256[]",
          "name": "",
          "type": "uint256[]"
        },
        {
          "internalType": "bytes",
          "name": "",
          "type": "bytes"
        }
      ],
      "name": "onERC1155BatchReceived",
      "outputs": [
        {
          "internalType": "bytes4",
          "name": "",
          "type": "bytes4"
        }
      ],
      "stateMutability": "nonpayable",
      "type": "function"
    },
    {
      "inputs": [
        {
          "internalType": "address",
          "name": "",
          "type": "address"
        },
        {
          "internalType": "address",
          "name": "",
          "type": "address"
        },
        {
          "internalType": "uint256",
          "name": "",
          "type": "uint256"
        },
        {
          "internalType": "uint256",
          "name": "",
          "type": "uint256"
        },
        {
          "internalType": "bytes",
          "name": "",
          "type": "bytes"
        }
      ],
      "name": "onERC1155Received",
      "outputs": [
        {
          "internalType": "bytes4",
          "name": "",
          "type": "bytes4"
        }
      ],
      "stateMutability": "nonpayable",
      "type": "function"
    },
    {
      "inputs": [],
      "name": "paused",
      "outputs": [
        {
          "internalType": "bool",
          "name": "",
          "type": "bool"
        }
      ],
      "stateMutability": "view",
      "type": "function"
    },
    {
      "inputs": [],
      "name": "randoms",
      "outputs": [
        {
          "internalType": "contract IRandoms",
          "name": "",
          "type": "address"
        }
      ],
      "stateMutability": "view",
      "type": "function"
    },
    {
      "inputs": [
        {
          "internalType": "bytes32",
          "name": "role",
          "type": "bytes32"
        },
        {
          "internalType": "address",
          "name": "account",
          "type": "address"
        }
      ],
      "name": "renounceRole",
      "outputs": [],
      "stateMutability": "nonpayable",
      "type": "function"
    },
    {
      "inputs": [
        {
          "internalType": "bytes32",
          "name": "role",
          "type": "bytes32"
        },
        {
          "internalType": "address",
          "name": "account",
          "type": "address"
        }
      ],
      "name": "revokeRole",
      "outputs": [],
      "stateMutability": "nonpayable",
      "type": "function"
    },
    {
      "inputs": [
        {
          "internalType": "bytes4",
          "name": "interfaceId",
          "type": "bytes4"
        }
      ],
      "name": "supportsInterface",
      "outputs": [
        {
          "internalType": "bool",
          "name": "",
          "type": "bool"
        }
      ],
      "stateMutability": "view",
      "type": "function"
    },
    {
      "inputs": [],
      "name": "tagToken",
      "outputs": [
        {
          "internalType": "contract IERC20Upgradeable",
          "name": "",
          "type": "address"
        }
      ],
      "stateMutability": "view",
      "type": "function"
    },
    {
      "inputs": [],
      "name": "weapons",
      "outputs": [
        {
          "internalType": "contract Weapons",
          "name": "",
          "type": "address"
        }
      ],
      "stateMutability": "view",
      "type": "function"
    },
    {
      "inputs": [
        {
          "internalType": "contract IERC20Upgradeable",
          "name": "_tagToken",
          "type": "address"
        },
        {
          "internalType": "contract IERC20Upgradeable",
          "name": "_coreToken",
          "type": "address"
        },
        {
          "internalType": "contract Characters",
          "name": "_characters",
          "type": "address"
        },
        {
          "internalType": "contract Weapons",
          "name": "_weapons",
          "type": "address"
        },
        {
          "internalType": "contract IRandoms",
          "name": "_randoms",
          "type": "address"
        },
        {
          "internalType": "contract CraftingItems",
          "name": "_craftingItems",
          "type": "address"
        }
      ],
      "name": "initialize",
      "outputs": [],
      "stateMutability": "nonpayable",
      "type": "function"
    },
    {
      "inputs": [],
      "name": "setRegisterInterfaces",
      "outputs": [],
      "stateMutability": "nonpayable",
      "type": "function"
    },
    {
      "inputs": [
        {
          "internalType": "uint256[]",
          "name": "weaponsList",
          "type": "uint256[]"
        },
        {
          "internalType": "address",
          "name": "user",
          "type": "address"
        }
      ],
      "name": "bulkSalvage",
      "outputs": [],
      "stateMutability": "nonpayable",
      "type": "function"
    },
    {
      "inputs": [
        {
          "internalType": "uint256",
          "name": "weapon",
          "type": "uint256"
        },
        {
          "internalType": "address",
          "name": "user",
          "type": "address"
        }
      ],
      "name": "salvage",
      "outputs": [],
      "stateMutability": "nonpayable",
      "type": "function"
    },
    {
      "inputs": [
        {
          "internalType": "uint256",
          "name": "character",
          "type": "uint256"
        },
        {
          "internalType": "uint256",
          "name": "amount",
          "type": "uint256"
        },
        {
          "internalType": "address",
          "name": "user",
          "type": "address"
        }
      ],
      "name": "lootItems",
      "outputs": [],
      "stateMutability": "nonpayable",
      "type": "function"
    },
    {
      "inputs": [
        {
          "internalType": "address",
          "name": "user",
          "type": "address"
        }
      ],
      "name": "doesHaveTrainee",
      "outputs": [
        {
          "internalType": "bool",
          "name": "",
          "type": "bool"
        }
      ],
      "stateMutability": "view",
      "type": "function"
    },
    {
      "inputs": [
        {
          "internalType": "address",
          "name": "user",
          "type": "address"
        }
      ],
      "name": "getMyCharacters",
      "outputs": [
        {
          "internalType": "uint256[]",
          "name": "",
          "type": "uint256[]"
        }
      ],
      "stateMutability": "view",
      "type": "function"
    },
    {
      "inputs": [
        {
          "internalType": "address",
          "name": "user",
          "type": "address"
        }
      ],
      "name": "getMyWeapons",
      "outputs": [
        {
          "internalType": "uint256[]",
          "name": "",
          "type": "uint256[]"
        }
      ],
      "stateMutability": "view",
      "type": "function"
    },
    {
      "inputs": [],
      "name": "pause",
      "outputs": [],
      "stateMutability": "nonpayable",
      "type": "function"
    },
    {
      "inputs": [],
      "name": "unpause",
      "outputs": [],
      "stateMutability": "nonpayable",
      "type": "function"
    }
  ],
  "bytecode": "0x608060405234801561001057600080fd5b50612bf1806100206000396000f3fe608060405234801561001057600080fd5b50600436106101cf5760003560e01c80639010d07c11610104578063cc2a9a5b116100a2578063de09575711610071578063de095757146106e2578063e0b032aa14610758578063f23a6e611461077e578063f46535d614610847576101cf565b8063cc2a9a5b14610658578063d070bb54146106a6578063d547741f146106ae578063d680626d146106da576101cf565b8063b7e1cd86116100de578063b7e1cd861461044d578063bc197c8114610455578063bee666d814610633578063ca15c8731461063b576101cf565b80639010d07c146103f657806391d1485414610419578063a217fddf14610445576101cf565b80632f2ff15d116101715780635504d3d21161014b5780635504d3d2146103d657806357fbf8a8146103de5780635c975abb146103e65780638456cb59146103ee576101cf565b80632f2ff15d1461037657806336568abe146103a25780633f4ba83a146103ce576101cf565b80630c2b72e9116101ad5780630c2b72e91461026f578063248a9ca31461029357806326d54c1e146102c2578063292c5afd1461036e576101cf565b806301ffc9a7146101d457806303cadbd31461020f5780630b8e1d141461023d575b600080fd5b6101fb600480360360208110156101ea57600080fd5b50356001600160e01b03191661086d565b604080519115158252519081900360200190f35b61023b6004803603604081101561022557600080fd5b50803590602001356001600160a01b0316610890565b005b61023b6004803603606081101561025357600080fd5b50803590602081013590604001356001600160a01b0316610b91565b610277610faf565b604080516001600160a01b039092168252519081900360200190f35b6102b0600480360360208110156102a957600080fd5b5035610fbf565b60408051918252519081900360200190f35b61023b600480360360408110156102d857600080fd5b810190602081018135600160201b8111156102f257600080fd5b82018360208201111561030457600080fd5b803590602001918460208302840111600160201b8311171561032557600080fd5b919080806020026020016040519081016040528093929190818152602001838360200280828437600092019190915250929550505090356001600160a01b03169150610fd49050565b61023b611057565b61023b6004803603604081101561038c57600080fd5b50803590602001356001600160a01b03166110c9565b61023b600480360360408110156103b857600080fd5b50803590602001356001600160a01b0316611135565b61023b611196565b6102b06111a6565b6102776111c8565b6101fb6111d8565b61023b6111e1565b6102776004803603604081101561040c57600080fd5b50803590602001356111f1565b6101fb6004803603604081101561042f57600080fd5b50803590602001356001600160a01b0316611218565b6102b0611236565b61027761123b565b610616600480360360a081101561046b57600080fd5b6001600160a01b038235811692602081013590911691810190606081016040820135600160201b81111561049e57600080fd5b8201836020820111156104b057600080fd5b803590602001918460208302840111600160201b831117156104d157600080fd5b9190808060200260200160405190810160405280939291908181526020018383602002808284376000920191909152509295949360208101935035915050600160201b81111561052057600080fd5b82018360208201111561053257600080fd5b803590602001918460208302840111600160201b8311171561055357600080fd5b9190808060200260200160405190810160405280939291908181526020018383602002808284376000920191909152509295949360208101935035915050600160201b8111156105a257600080fd5b8201836020820111156105b457600080fd5b803590602001918460018302840111600160201b831117156105d557600080fd5b91908080601f01602080910402602001604051908101604052809392919081815260200183838082843760009201919091525092955061124b945050505050565b604080516001600160e01b03199092168252519081900360200190f35b61027761125c565b6102b06004803603602081101561065157600080fd5b503561126c565b61023b600480360360c081101561066e57600080fd5b506001600160a01b038135811691602081013582169160408201358116916060810135821691608082013581169160a0013516611283565b61027761140a565b61023b600480360360408110156106c457600080fd5b50803590602001356001600160a01b031661141a565b610277611473565b610708600480360360208110156106f857600080fd5b50356001600160a01b0316611483565b60408051602080825283518183015283519192839290830191858101910280838360005b8381101561074457818101518382015260200161072c565b505050509050019250505060405180910390f35b6107086004803603602081101561076e57600080fd5b50356001600160a01b03166115f7565b610616600480360360a081101561079457600080fd5b6001600160a01b03823581169260208101359091169160408201359160608101359181019060a081016080820135600160201b8111156107d357600080fd5b8201836020820111156107e557600080fd5b803590602001918460018302840111600160201b8311171561080657600080fd5b91908080601f016020809104026020016040519081016040528093929190818152602001838380828437600092019190915250929550611764945050505050565b6101fb6004803603602081101561085d57600080fd5b50356001600160a01b0316611775565b6001600160e01b0319811660009081526001602052604090205460ff165b919050565b6108986111d8565b156108dd576040805162461bcd60e51b815260206004820152601060248201526f14185d5cd8589b194e881c185d5cd95960821b604482015290519081900360640190fd5b61012e54604080516331a9108f60e11b815260048101859052905133926001600160a01b031691636352211e916024808301926020929190829003018186803b15801561092957600080fd5b505afa15801561093d573d6000803e3d6000fd5b505050506040513d602081101561095357600080fd5b50516001600160a01b0316146109a7576040805162461bcd60e51b81526020600482015260146024820152732737ba103a3432903bb2b0b837b71037bbb732b960611b604482015290519081900360640190fd5b61012e546040805163eb8d8ca160e01b815260048101859052905160009283926001600160a01b039091169163eb8d8ca191602480820192602092909190829003018186803b1580156109f957600080fd5b505afa158015610a0d573d6000803e3d6000fd5b505050506040513d6020811015610a2357600080fd5b50516101355460ff909116915081610a3b5750610135545b8160011415610a4a5750610136545b8160021415610a595750610137545b8160031415610a685750610138545b8160041415610a775750610139545b610a8084611775565b15610ab557610aae61013454610aa2836101335461199690919063ffffffff16565b9063ffffffff61199616565b9250610acc565b61013354610ac9908263ffffffff61199616565b92505b610ad683856119ef565b61012e5460408051632142170760e11b8152336004820152600160248201526044810188905290516001600160a01b03909216916342842e0e9160648082019260009290919082900301818387803b158015610b3157600080fd5b505af1158015610b45573d6000803e3d6000fd5b5050604080513381526020810187905280820186905290517f0b1251cf7e5e829a5628351a2e2e73a37ce3ab6a6aa82af25a5682f56e00361e9350908190036060019150a15050505050565b610b99611ba1565b60008211610be2576040805162461bcd60e51b8152602060048201526011602482015270185b5bdd5b9d080f880c081b9959591959607a1b604482015290519081900360640190fd5b61012d54604080516331a9108f60e11b81526004810186905290516001600160a01b03808516931691636352211e916024808301926020929190829003018186803b158015610c3057600080fd5b505afa158015610c44573d6000803e3d6000fd5b505050506040513d6020811015610c5a57600080fd5b50516001600160a01b031614610cb7576040805162461bcd60e51b815260206004820152601760248201527f4e6f742074686520636861726163746572206f776e6572000000000000000000604482015290519081900360640190fd5b6101315460408051630e20f61560e21b81526001600160a01b0384811660048301529151600093610dc1931691633883d854916024808301926020929190829003018186803b158015610d0957600080fd5b505afa158015610d1d573d6000803e3d6000fd5b505050506040513d6020811015610d3357600080fd5b50516101315460408051630e20f61560e21b81526001600160a01b0387811660048301529151610dbc936000938b93911691633883d85491602480820192602092909190829003018186803b158015610d8b57600080fd5b505afa158015610d9f573d6000803e3d6000fd5b505050506040513d6020811015610db557600080fd5b5051611c1b565b611c91565b90506000610dd26001600484611c1b565b6004811115610ddd57fe5b61012d5460408051631bd2a47760e01b81526004810189905290519293506000926001600160a01b0390921691631bd2a47791602480820192602092909190829003018186803b158015610e3057600080fd5b505afa158015610e44573d6000803e3d6000fd5b505050506040513d6020811015610e5a57600080fd5b505190506001816002811115610e6c57fe5b1415610e8657610e8385600263ffffffff61199616565b94505b610e9085856119ef565b6001826004811115610e9e57fe5b1415610ebe57610ebe610eb886600463ffffffff611cbd16565b85611d24565b6004826004811115610ecc57fe5b1415610eec57610eec610ee686600463ffffffff611cbd16565b85611e04565b6003826004811115610efa57fe5b1415610f1a57610f1a610f1486600463ffffffff611cbd16565b85611ee4565b6002826004811115610f2857fe5b1415610f4857610f48610f4286600463ffffffff611cbd16565b85611fc4565b7f8d30c14940330106e5e72c839aad84903d289510cfddcf79485ca6c071fee51c848360405180836001600160a01b03166001600160a01b03168152602001826004811115610f9357fe5b60ff1681526020019250505060405180910390a1505050505050565b610130546001600160a01b031681565b600090815260c9602052604090206002015490565b610fdc6111d8565b15611021576040805162461bcd60e51b815260206004820152601060248201526f14185d5cd8589b194e881c185d5cd95960821b604482015290519081900360640190fd5b60005b82518110156110525761104a83828151811061103c57fe5b602002602001015183610890565b600101611024565b505050565b611062600033611218565b6110a7576040805162461bcd60e51b815260206004820152601160248201527010591b5a5b881c9bdb19481b9959591959607a1b604482015290519081900360640190fd5b6110b76380ac58cd60e01b6120a4565b6110c7636cdb3d1360e11b6120a4565b565b600082815260c960205260409020600201546110ec906110e761212b565b611218565b6111275760405162461bcd60e51b815260040180806020018281038252602f815260200180612adf602f913960400191505060405180910390fd5b611131828261212f565b5050565b61113d61212b565b6001600160a01b0316816001600160a01b03161461118c5760405162461bcd60e51b815260040180806020018281038252602f815260200180612b8d602f913960400191505060405180910390fd5b611131828261219e565b61119e611ba1565b6110c761220d565b604080516923a0a6a2afa0a226a4a760b11b8152905190819003600a01902081565b61012f546001600160a01b031681565b60fb5460ff1690565b6111e9611ba1565b6110c76122ad565b600082815260c96020526040812061120f908363ffffffff61233016565b90505b92915050565b600082815260c96020526040812061120f908363ffffffff61233c16565b600081565b61012e546001600160a01b031681565b63bc197c8160e01b95945050505050565b610131546001600160a01b031681565b600081815260c96020526040812061121290612351565b600054610100900460ff168061129c575061129c61235c565b806112aa575060005460ff16155b6112e55760405162461bcd60e51b815260040180806020018281038252602e815260200180612b3e602e913960400191505060405180910390fd5b600054610100900460ff16158015611310576000805460ff1961ff0019909116610100171660011790555b61131861236d565b61132061241f565b6113286124bc565b611333600033611127565b604080516923a0a6a2afa0a226a4a760b11b8152905190819003600a01902061135c9033611127565b61012f80546001600160a01b03199081166001600160a01b038a8116919091179092556101308054821689841617905561012d8054821688841617905561012e805482168784161790556101318054821686841617905561013280549091169184169190911790556109c461013355600261013481905560016101355561013655600a6101375560326101385560c8610139558015611401576000805461ff00191690555b50505050505050565b61012d546001600160a01b031681565b600082815260c96020526040902060020154611438906110e761212b565b61118c5760405162461bcd60e51b8152600401808060200182810382526030815260200180612b0e6030913960400191505060405180910390fd5b610132546001600160a01b031681565b61012e54604080516370a0823160e01b81526001600160a01b0384811660048301529151606093849316916370a08231916024808301926020929190829003018186803b1580156114d357600080fd5b505afa1580156114e7573d6000803e3d6000fd5b505050506040513d60208110156114fd57600080fd5b505167ffffffffffffffff8111801561151557600080fd5b5060405190808252806020026020018201604052801561153f578160200160208202803683370190505b50905060005b81518110156115f05761012e5460408051632f745c5960e01b81526001600160a01b0387811660048301526024820185905291519190921691632f745c59916044808301926020929190829003018186803b1580156115a357600080fd5b505afa1580156115b7573d6000803e3d6000fd5b505050506040513d60208110156115cd57600080fd5b505182518390839081106115dd57fe5b6020908102919091010152600101611545565b5092915050565b61012d54604080516370a0823160e01b81526001600160a01b0384811660048301529151606093849316916370a08231916024808301926020929190829003018186803b15801561164757600080fd5b505afa15801561165b573d6000803e3d6000fd5b505050506040513d602081101561167157600080fd5b505167ffffffffffffffff8111801561168957600080fd5b506040519080825280602002602001820160405280156116b3578160200160208202803683370190505b50905060005b81518110156115f05761012d5460408051632f745c5960e01b81526001600160a01b0387811660048301526024820185905291519190921691632f745c59916044808301926020929190829003018186803b15801561171757600080fd5b505afa15801561172b573d6000803e3d6000fd5b505050506040513d602081101561174157600080fd5b5051825183908390811061175157fe5b60209081029190910101526001016116b9565b63f23a6e6160e01b95945050505050565b61012d54604080516370a0823160e01b81526001600160a01b038481166004830152915160009360609316916370a08231916024808301926020929190829003018186803b1580156117c657600080fd5b505afa1580156117da573d6000803e3d6000fd5b505050506040513d60208110156117f057600080fd5b505167ffffffffffffffff8111801561180857600080fd5b50604051908082528060200260200182016040528015611832578160200160208202803683370190505b50905060005b815181101561198c5761012d5460408051632f745c5960e01b81526001600160a01b0387811660048301526024820185905291519190921691632f745c59916044808301926020929190829003018186803b15801561189657600080fd5b505afa1580156118aa573d6000803e3d6000fd5b505050506040513d60208110156118c057600080fd5b505182518390839081106118d057fe5b602090810291909101015261012d5482516001916001600160a01b031690631bd2a4779085908590811061190057fe5b60200260200101516040518263ffffffff1660e01b81526004018082815260200191505060206040518083038186803b15801561193c57600080fd5b505afa158015611950573d6000803e3d6000fd5b505050506040513d602081101561196657600080fd5b5051600281111561197357fe5b14156119845760019250505061088b565b600101611838565b5060009392505050565b6000826119a557506000611212565b828202828482816119b257fe5b041461120f5760405162461bcd60e51b8152600401808060200182810382526021815260200180612b6c6021913960400191505060405180910390fd5b61013254604080516307de082560e21b81526001600160a01b0384811660048301526024820186905291519190921691631f78209491604480830192600092919082900301818387803b158015611a4557600080fd5b505af1158015611a59573d6000803e3d6000fd5b505061013254604080516356bda8d960e01b815290517f7ff8b7889aa8693f922775dbba9b4a8ed6ecd023a94d4cba503c42605062c7b494508593506001600160a01b039092169162fdd58e91849184916356bda8d9916004808301926020929190829003018186803b158015611acf57600080fd5b505afa158015611ae3573d6000803e3d6000fd5b505050506040513d6020811015611af957600080fd5b5051604080516001600160e01b031960e086901b1681526001600160a01b0390931660048401526024830191909152516044808301926020929190829003018186803b158015611b4857600080fd5b505afa158015611b5c573d6000803e3d6000fd5b505050506040513d6020811015611b7257600080fd5b5051604080516001600160a01b0390931683526020830191909152818101859052519081900360600190a15050565b604080516923a0a6a2afa0a226a4a760b11b8152905190819003600a019020611bca9033611218565b6110c7576040805162461bcd60e51b815260206004820152601760248201527f47616d652061646d696e20726f6c65206e65656465642e000000000000000000604482015290519081900360640190fd5b600080611c3f6001611c33868863ffffffff61255916565b9063ffffffff6125b616565b6040805160208082018790528251808303820181529183019092528051910120909150600090611c75908363ffffffff61261016565b9050611c87818763ffffffff6125b616565b9695505050505050565b604080516020808201949094528082019290925280518083038201815260609092019052805191012090565b6000808211611d13576040805162461bcd60e51b815260206004820152601a60248201527f536166654d6174683a206469766973696f6e206279207a65726f000000000000604482015290519081900360640190fd5b818381611d1c57fe5b049392505050565b610132546040805163df74c55b60e01b81526001600160a01b038481166004830152602482018690529151919092169163df74c55b91604480830192600092919082900301818387803b158015611d7a57600080fd5b505af1158015611d8e573d6000803e3d6000fd5b505061013254604080516306da0ecb60e01b815290517f8d93498848f284eeefc7188609495da2fa406296e6f148c82234caa5be312f4694508593506001600160a01b039092169162fdd58e91849184916306da0ecb916004808301926020929190829003018186803b158015611acf57600080fd5b610132546040805163f600fe3760e01b81526001600160a01b038481166004830152602482018690529151919092169163f600fe3791604480830192600092919082900301818387803b158015611e5a57600080fd5b505af1158015611e6e573d6000803e3d6000fd5b50506101325460408051630202678560e41b815290517f260abe9f5cc9a3a5bda5c38f762ddbfe8d69d1a8ce8caf7b048144228cc7716294508593506001600160a01b039092169162fdd58e91849184916320267850916004808301926020929190829003018186803b158015611acf57600080fd5b610132546040805163adb8505360e01b81526001600160a01b038481166004830152602482018690529151919092169163adb8505391604480830192600092919082900301818387803b158015611f3a57600080fd5b505af1158015611f4e573d6000803e3d6000fd5b50506101325460408051639ce6d25360e01b815290517f5c16884bf14242fd0ef03b0d2f30b601f7cf7529486df47f5e3a7c99a28b50c294508593506001600160a01b039092169162fdd58e9184918491639ce6d253916004808301926020929190829003018186803b158015611acf57600080fd5b6101325460408051632a6036a760e11b81526001600160a01b03848116600483015260248201869052915191909216916354c06d4e91604480830192600092919082900301818387803b15801561201a57600080fd5b505af115801561202e573d6000803e3d6000fd5b5050610132546040805163bd7c1e1160e01b815290517f3dc1416f131386ca97bea092bafd25a02e336f00c970ddf16b5871080199588e94508593506001600160a01b039092169162fdd58e918491849163bd7c1e11916004808301926020929190829003018186803b158015611acf57600080fd5b6001600160e01b03198082161415612103576040805162461bcd60e51b815260206004820152601c60248201527f4552433136353a20696e76616c696420696e7465726661636520696400000000604482015290519081900360640190fd5b6001600160e01b0319166000908152600160208190526040909120805460ff19169091179055565b3390565b600082815260c96020526040902061214d908263ffffffff61267716565b156111315761215a61212b565b6001600160a01b0316816001600160a01b0316837f2f8788117e7eff1d82e926ec794901d17c78024a50270940304540a733656f0d60405160405180910390a45050565b600082815260c9602052604090206121bc908263ffffffff61268c16565b15611131576121c961212b565b6001600160a01b0316816001600160a01b0316837ff6391f5c32d9c69d2a47ea670b442974b53935d1edc7fd64eb21e047a839171b60405160405180910390a45050565b6122156111d8565b61225d576040805162461bcd60e51b815260206004820152601460248201527314185d5cd8589b194e881b9bdd081c185d5cd95960621b604482015290519081900360640190fd5b60fb805460ff191690557f5db9ee0a495bf2e6ff9c91a7834c1ba4fdd244a5e8aa4e537bd38aeae4b073aa61229061212b565b604080516001600160a01b039092168252519081900360200190a1565b6122b56111d8565b156122fa576040805162461bcd60e51b815260206004820152601060248201526f14185d5cd8589b194e881c185d5cd95960821b604482015290519081900360640190fd5b60fb805460ff191660011790557f62e78cea01bee320cd4e420270b5ea74000d11b0c9f74754ebdbfc544b05a25861229061212b565b600061120f83836126a1565b600061120f836001600160a01b038416612705565b60006112128261271d565b600061236730612721565b15905090565b600054610100900460ff1680612386575061238661235c565b80612394575060005460ff16155b6123cf5760405162461bcd60e51b815260040180806020018281038252602e815260200180612b3e602e913960400191505060405180910390fd5b600054610100900460ff161580156123fa576000805460ff1961ff0019909116610100171660011790555b612402612727565b61240a612727565b801561241c576000805461ff00191690555b50565b600054610100900460ff1680612438575061243861235c565b80612446575060005460ff16155b6124815760405162461bcd60e51b815260040180806020018281038252602e815260200180612b3e602e913960400191505060405180910390fd5b600054610100900460ff161580156124ac576000805460ff1961ff0019909116610100171660011790555b6124b46127c7565b612402612864565b600054610100900460ff16806124d557506124d561235c565b806124e3575060005460ff16155b61251e5760405162461bcd60e51b815260040180806020018281038252602e815260200180612b3e602e913960400191505060405180910390fd5b600054610100900460ff16158015612549576000805460ff1961ff0019909116610100171660011790555b612551612727565b61240a612901565b6000828211156125b0576040805162461bcd60e51b815260206004820152601e60248201527f536166654d6174683a207375627472616374696f6e206f766572666c6f770000604482015290519081900360640190fd5b50900390565b60008282018381101561120f576040805162461bcd60e51b815260206004820152601b60248201527f536166654d6174683a206164646974696f6e206f766572666c6f770000000000604482015290519081900360640190fd5b6000808211612666576040805162461bcd60e51b815260206004820152601860248201527f536166654d6174683a206d6f64756c6f206279207a65726f0000000000000000604482015290519081900360640190fd5b81838161266f57fe5b069392505050565b600061120f836001600160a01b0384166129ac565b600061120f836001600160a01b0384166129f6565b815460009082106126e35760405162461bcd60e51b8152600401808060200182810382526022815260200180612abd6022913960400191505060405180910390fd5b8260000182815481106126f257fe5b9060005260206000200154905092915050565b60009081526001919091016020526040902054151590565b5490565b3b151590565b600054610100900460ff1680612740575061274061235c565b8061274e575060005460ff16155b6127895760405162461bcd60e51b815260040180806020018281038252602e815260200180612b3e602e913960400191505060405180910390fd5b600054610100900460ff1615801561240a576000805460ff1961ff001990911661010017166001179055801561241c576000805461ff001916905550565b600054610100900460ff16806127e057506127e061235c565b806127ee575060005460ff16155b6128295760405162461bcd60e51b815260040180806020018281038252602e815260200180612b3e602e913960400191505060405180910390fd5b600054610100900460ff16158015612854576000805460ff1961ff0019909116610100171660011790555b61240a6301ffc9a760e01b6120a4565b600054610100900460ff168061287d575061287d61235c565b8061288b575060005460ff16155b6128c65760405162461bcd60e51b815260040180806020018281038252602e815260200180612b3e602e913960400191505060405180910390fd5b600054610100900460ff161580156128f1576000805460ff1961ff0019909116610100171660011790555b61240a630271189760e51b6120a4565b600054610100900460ff168061291a575061291a61235c565b80612928575060005460ff16155b6129635760405162461bcd60e51b815260040180806020018281038252602e815260200180612b3e602e913960400191505060405180910390fd5b600054610100900460ff1615801561298e576000805460ff1961ff0019909116610100171660011790555b60fb805460ff19169055801561241c576000805461ff001916905550565b60006129b88383612705565b6129ee57508154600181810184556000848152602080822090930184905584548482528286019093526040902091909155611212565b506000611212565b60008181526001830160205260408120548015612ab25783546000198083019190810190600090879083908110612a2957fe5b9060005260206000200154905080876000018481548110612a4657fe5b600091825260208083209091019290925582815260018981019092526040902090840190558654879080612a7657fe5b60019003818190600052602060002001600090559055866001016000878152602001908152602001600020600090556001945050505050611212565b600091505061121256fe456e756d657261626c655365743a20696e646578206f7574206f6620626f756e6473416363657373436f6e74726f6c3a2073656e646572206d75737420626520616e2061646d696e20746f206772616e74416363657373436f6e74726f6c3a2073656e646572206d75737420626520616e2061646d696e20746f207265766f6b65496e697469616c697a61626c653a20636f6e747261637420697320616c726561647920696e697469616c697a6564536166654d6174683a206d756c7469706c69636174696f6e206f766572666c6f77416363657373436f6e74726f6c3a2063616e206f6e6c792072656e6f756e636520726f6c657320666f722073656c66a264697066735822122077b0d24e6178377c16e4324032fa2e4e51363d1df138358521d77f2f82a2ce2764736f6c63430006050033",
  "immutableReferences": {},
  "source": "pragma solidity ^0.6.0;\n//SPDX-License-Identifier: MIT\n\nimport '@openzeppelin/contracts-upgradeable/access/AccessControlUpgradeable.sol';\nimport '@openzeppelin/contracts-upgradeable/utils/PausableUpgradeable.sol';\nimport '@openzeppelin/contracts/math/SafeMath.sol';\nimport '@openzeppelin/contracts-upgradeable/token/ERC20/IERC20Upgradeable.sol';\nimport '@openzeppelin/contracts-upgradeable/token/ERC20/SafeERC20Upgradeable.sol';\nimport '@openzeppelin/contracts-upgradeable/token/ERC1155/ERC1155HolderUpgradeable.sol';\nimport './interfaces/IRandoms.sol';\nimport './interfaces/ICharacter.sol';\nimport './interfaces/ICrafting.sol';\nimport './CraftingItems.sol';\nimport './characters.sol';\nimport './weapons.sol';\n\nenum ItemTypes {\n    Part,\n    FireCrystal,\n    EarthCrystal,\n    WaterCrystal,\n    LightningCrystal\n}\n\ncontract Crafting is\n    Initializable,\n    ERC1155HolderUpgradeable,\n    AccessControlUpgradeable,\n    PausableUpgradeable,\n    ICrafting,\n    ICharacter\n{\n    using SafeMath for uint256;\n    using SafeERC20Upgradeable for IERC20Upgradeable;\n\n    bytes32 public constant GAME_ADMIN = keccak256('GAME_ADMIN');\n\n    Characters public characters;\n    Weapons public weapons;\n    IERC20Upgradeable public tagToken;\n    IERC20Upgradeable public coreToken;\n    IRandoms public randoms;\n    CraftingItems public craftingItems;\n\n    uint256 private basePartsReward;\n    uint256 private traineeMultiplier;\n    uint256 private commonTypeMultiplier;\n    uint256 private uncommonTypeMultiplier;\n    uint256 private rareTypeMultiplier;\n    uint256 private epicTypeMultiplier;\n    uint256 private legendaryTypeMultiplier;\n\n    bytes4 private constant InterfaceId_ERC721 = 0x80ac58cd;\n    bytes4 private constant InterfaceId_ERC1155 = 0xd9b67a26;\n\n    event SetParts(address sender, uint256 parts, uint256 amount);\n    event SetFireCrystals(address sender, uint256 fireCrystals, uint256 amount);\n    event SetWaterCrystals(address sender, uint256 waterCrystals, uint256 amount);\n    event SetEarthCrystals(address sender, uint256 earthCrystals, uint256 amount);\n    event SetLightningCrystals(address sender, uint256 lightningCrystals, uint256 amount);\n    event Salvage(address sender, uint256 reward, uint256 gunQuality);\n    event LootItems(address sender, ItemTypes itemType);\n    event LootedRandomItem(address sender, ItemTypes itemType);\n\n    function initialize(\n        IERC20Upgradeable _tagToken,\n        IERC20Upgradeable _coreToken,\n        Characters _characters,\n        Weapons _weapons,\n        IRandoms _randoms,\n        CraftingItems _craftingItems\n    ) public initializer {\n        __AccessControl_init();\n        __ERC1155Holder_init();\n        __Pausable_init();\n\n        _setupRole(DEFAULT_ADMIN_ROLE, msg.sender);\n        _setupRole(GAME_ADMIN, msg.sender);\n\n        tagToken = _tagToken;\n        coreToken = _coreToken;\n        characters = _characters;\n        weapons = _weapons;\n        randoms = _randoms;\n        craftingItems = _craftingItems;\n\n        basePartsReward = 2500;\n        traineeMultiplier = 2;\n        commonTypeMultiplier = 1;\n        uncommonTypeMultiplier = 2;\n        rareTypeMultiplier = 10;\n        epicTypeMultiplier = 50;\n        legendaryTypeMultiplier = 200;\n    }\n\n    function setRegisterInterfaces() public {\n        require(hasRole(DEFAULT_ADMIN_ROLE, msg.sender), 'Admin role needed');\n\n        _registerInterface(InterfaceId_ERC721);\n        _registerInterface(InterfaceId_ERC1155);\n    }\n\n    function bulkSalvage(uint256[] memory weaponsList, address user) public override whenNotPaused {\n        for (uint256 i = 0; i < weaponsList.length; i++) {\n            salvage(weaponsList[i], user);\n        }\n    }\n\n    function salvage(uint256 weapon, address user) public override whenNotPaused {\n        require(weapons.ownerOf(weapon) == msg.sender, 'Not the weapon owner');\n\n        uint256 reward;\n        uint256 quality = weapons.getQuality(weapon);\n        uint256 typeMultiplier = commonTypeMultiplier;\n\n        if (quality == 0) typeMultiplier = commonTypeMultiplier;\n        if (quality == 1) typeMultiplier = uncommonTypeMultiplier;\n        if (quality == 2) typeMultiplier = rareTypeMultiplier;\n        if (quality == 3) typeMultiplier = epicTypeMultiplier;\n        if (quality == 4) typeMultiplier = legendaryTypeMultiplier;\n\n        if (doesHaveTrainee(user)) {\n            // update random value with bonus\n            reward = basePartsReward.mul(typeMultiplier).mul(traineeMultiplier);\n        } else {\n            // update parts with random drop value according to table\n            reward = basePartsReward.mul(typeMultiplier);\n        }\n        addParts(reward, user);\n        // burn weapon\n        weapons.safeTransferFrom(msg.sender, address(0x1), weapon);\n        emit Salvage(msg.sender, reward, quality);\n    }\n\n    function lootItems(\n        uint256 character,\n        uint256 amount,\n        address user\n    ) external override restricted {\n        require(amount > 0, 'amount > 0 needed');\n        require(characters.ownerOf(character) == user, 'Not the character owner');\n\n        uint256 baseSeed = RandomUtil.combineSeeds(\n            randoms.getRandomSeed(user),\n            RandomUtil.randomSeededMinMax(0, character, randoms.getRandomSeed(user))\n        );\n        ItemTypes randomItem = ItemTypes(RandomUtil.randomSeededMinMax(1, 4, baseSeed));\n        CharacterType ctype = characters.getCharacterType(character);\n\n        // Trainees gets bonus rewards for crafting.\n        if (ctype == CharacterType.Trainee) {\n            amount = amount.mul(2);\n        }\n\n        // always yield parts\n        addParts(amount, user);\n\n        if (randomItem == ItemTypes.FireCrystal) {\n            addFireCrystals(amount.div(4), user);\n        }\n        if (randomItem == ItemTypes.LightningCrystal) {\n            addLightningCrystals(amount.div(4), user);\n        }\n        if (randomItem == ItemTypes.WaterCrystal) {\n            addWaterCrystals(amount.div(4), user);\n        }\n        if (randomItem == ItemTypes.EarthCrystal) {\n            addEarthCrystals(amount.div(4), user);\n        }\n\n        emit LootedRandomItem(user, randomItem);\n    }\n\n    function addParts(uint256 amount, address user) private {\n        craftingItems.mintParts(user, amount);\n        emit SetParts(user, craftingItems.balanceOf(user, craftingItems.PART()), amount);\n    }\n\n    function addFireCrystals(uint256 amount, address user) private {\n        craftingItems.mintFireCrystals(user, amount);\n        emit SetFireCrystals(user, craftingItems.balanceOf(user, craftingItems.FIRE_CRYSTAL()), amount);\n    }\n\n    function addWaterCrystals(uint256 amount, address user) private {\n        craftingItems.mintWaterCrystals(user, amount);\n        emit SetWaterCrystals(user, craftingItems.balanceOf(user, craftingItems.WATER_CRYSTAL()), amount);\n    }\n\n    function addEarthCrystals(uint256 amount, address user) private {\n        craftingItems.mintEarthCrystal(user, amount);\n        emit SetEarthCrystals(user, craftingItems.balanceOf(user, craftingItems.EARTH_CRYSTAL()), amount);\n    }\n\n    function addLightningCrystals(uint256 amount, address user) private {\n        craftingItems.mintLightningCrystals(user, amount);\n        emit SetLightningCrystals(user, craftingItems.balanceOf(user, craftingItems.LIGHTNING_CRYSTAL()), amount);\n    }\n\n    function subParts(uint256 amount, address user) private {\n        require(craftingItems.balanceOf(user, craftingItems.PART()).sub(amount) >= 0, 'Burn amount exceeds balance');\n        craftingItems.burnParts(user, amount);\n        emit SetParts(user, craftingItems.balanceOf(user, craftingItems.PART()), amount);\n    }\n\n    function subFireCrystals(uint256 amount, address user) private {\n        require(\n            craftingItems.balanceOf(user, craftingItems.FIRE_CRYSTAL()).sub(amount) >= 0,\n            'Burn amount exceeds balance'\n        );\n        craftingItems.burnFireCrystals(user, amount);\n        emit SetFireCrystals(user, craftingItems.balanceOf(user, craftingItems.FIRE_CRYSTAL()), amount);\n    }\n\n    function subLightningCrystals(uint256 amount, address user) private {\n        require(\n            craftingItems.balanceOf(user, craftingItems.LIGHTNING_CRYSTAL()).sub(amount) >= 0,\n            'Burn amount exceeds balance'\n        );\n        craftingItems.burnLightningCrystals(user, amount);\n        emit SetLightningCrystals(user, craftingItems.balanceOf(user, craftingItems.LIGHTNING_CRYSTAL()), amount);\n    }\n\n    function subWaterCrystals(uint256 amount, address user) private {\n        require(\n            craftingItems.balanceOf(user, craftingItems.WATER_CRYSTAL()).sub(amount) >= 0,\n            'Burn amount exceeds balance'\n        );\n        craftingItems.burnWaterCrystals(user, amount);\n        emit SetWaterCrystals(user, craftingItems.balanceOf(user, craftingItems.WATER_CRYSTAL()), amount);\n    }\n\n    function subEarthCrystals(uint256 amount, address user) private {\n        require(\n            craftingItems.balanceOf(user, craftingItems.EARTH_CRYSTAL()).sub(amount) >= 0,\n            'Burn amount exceeds balance'\n        );\n        craftingItems.burnEarthCrystals(user, amount);\n        emit SetEarthCrystals(user, craftingItems.balanceOf(user, craftingItems.EARTH_CRYSTAL()), amount);\n    }\n\n    function doesHaveTrainee(address user) public view returns (bool) {\n        uint256[] memory tokens = new uint256[](characters.balanceOf(user));\n        for (uint256 i = 0; i < tokens.length; i++) {\n            tokens[i] = characters.tokenOfOwnerByIndex(user, i);\n            if (characters.getCharacterType(tokens[i]) == CharacterType.Trainee) {\n                return true;\n            }\n        }\n        return false;\n    }\n\n    function getMyCharacters(address user) public view returns (uint256[] memory) {\n        uint256[] memory tokens = new uint256[](characters.balanceOf(user));\n        for (uint256 i = 0; i < tokens.length; i++) {\n            tokens[i] = characters.tokenOfOwnerByIndex(user, i);\n        }\n        return tokens;\n    }\n\n    function getMyWeapons(address user) public view returns (uint256[] memory) {\n        uint256[] memory tokens = new uint256[](weapons.balanceOf(user));\n        for (uint256 i = 0; i < tokens.length; i++) {\n            tokens[i] = weapons.tokenOfOwnerByIndex(user, i);\n        }\n        return tokens;\n    }\n\n    modifier restricted() {\n        _restricted();\n        _;\n    }\n\n    function _restricted() internal view {\n        require(hasRole(GAME_ADMIN, msg.sender), 'Game admin role needed.');\n    }\n\n    function pause() external restricted {\n        _pause();\n    }\n\n    function unpause() external restricted {\n        _unpause();\n    }\n}\n",
  "sourcePath": "/Users/school/dev/ciphershooters/contracts/Crafting.sol",
  "compiler": {
    "name": "solc",
    "version": "0.6.5+commit.f956cc89.Emscripten.clang"
  },
  "schemaVersion": "3.4.6",
  "updatedAt": "2022-06-04T16:14:57.618Z",
  "devdoc": {
    "methods": {
      "getRoleAdmin(bytes32)": {
        "details": "Returns the admin role that controls `role`. See {grantRole} and {revokeRole}.     * To change a role's admin, use {_setRoleAdmin}."
      },
      "getRoleMember(bytes32,uint256)": {
        "details": "Returns one of the accounts that have `role`. `index` must be a value between 0 and {getRoleMemberCount}, non-inclusive.     * Role bearers are not sorted in any particular way, and their ordering may change at any point.     * WARNING: When using {getRoleMember} and {getRoleMemberCount}, make sure you perform all queries on the same block. See the following https://forum.openzeppelin.com/t/iterating-over-elements-on-enumerableset-in-openzeppelin-contracts/2296[forum post] for more information."
      },
      "getRoleMemberCount(bytes32)": {
        "details": "Returns the number of accounts that have `role`. Can be used together with {getRoleMember} to enumerate all bearers of a role."
      },
      "grantRole(bytes32,address)": {
        "details": "Grants `role` to `account`.     * If `account` had not been already granted `role`, emits a {RoleGranted} event.     * Requirements:     * - the caller must have ``role``'s admin role."
      },
      "hasRole(bytes32,address)": {
        "details": "Returns `true` if `account` has been granted `role`."
      },
      "paused()": {
        "details": "Returns true if the contract is paused, and false otherwise."
      },
      "renounceRole(bytes32,address)": {
        "details": "Revokes `role` from the calling account.     * Roles are often managed via {grantRole} and {revokeRole}: this function's purpose is to provide a mechanism for accounts to lose their privileges if they are compromised (such as when a trusted device is misplaced).     * If the calling account had been granted `role`, emits a {RoleRevoked} event.     * Requirements:     * - the caller must be `account`."
      },
      "revokeRole(bytes32,address)": {
        "details": "Revokes `role` from `account`.     * If `account` had been granted `role`, emits a {RoleRevoked} event.     * Requirements:     * - the caller must have ``role``'s admin role."
      },
      "supportsInterface(bytes4)": {
        "details": "See {IERC165-supportsInterface}.     * Time complexity O(1), guaranteed to always use less than 30 000 gas."
      }
    }
  },
  "userdoc": {
    "methods": {}
  }
}