{
  "contractName": "CryptoShooters",
  "abi": [
    {
      "anonymous": false,
      "inputs": [
        {
          "indexed": true,
          "internalType": "address",
          "name": "owner",
          "type": "address"
        },
        {
          "indexed": true,
          "internalType": "uint256",
          "name": "character",
          "type": "uint256"
        },
        {
          "indexed": false,
          "internalType": "uint256",
          "name": "weapon",
          "type": "uint256"
        },
        {
          "indexed": false,
          "internalType": "uint32",
          "name": "targetPower",
          "type": "uint32"
        },
        {
          "indexed": false,
          "internalType": "uint8",
          "name": "targetTrait",
          "type": "uint8"
        },
        {
          "indexed": false,
          "internalType": "uint24",
          "name": "playerRoll",
          "type": "uint24"
        },
        {
          "indexed": false,
          "internalType": "uint24",
          "name": "enemyRoll",
          "type": "uint24"
        },
        {
          "indexed": false,
          "internalType": "uint16",
          "name": "xpGain",
          "type": "uint16"
        },
        {
          "indexed": false,
          "internalType": "uint256",
          "name": "skillGain",
          "type": "uint256"
        }
      ],
      "name": "FightOutcome",
      "type": "event"
    },
    {
      "anonymous": false,
      "inputs": [
        {
          "indexed": true,
          "internalType": "address",
          "name": "minter",
          "type": "address"
        },
        {
          "indexed": false,
          "internalType": "uint32",
          "name": "count",
          "type": "uint32"
        }
      ],
      "name": "MintWeaponsFailure",
      "type": "event"
    },
    {
      "anonymous": false,
      "inputs": [
        {
          "indexed": true,
          "internalType": "address",
          "name": "minter",
          "type": "address"
        },
        {
          "indexed": false,
          "internalType": "uint32",
          "name": "count",
          "type": "uint32"
        }
      ],
      "name": "MintWeaponsSuccess",
      "type": "event"
    },
    {
      "anonymous": false,
      "inputs": [
        {
          "indexed": true,
          "internalType": "address",
          "name": "player",
          "type": "address"
        },
        {
          "indexed": false,
          "internalType": "uint256",
          "name": "reward",
          "type": "uint256"
        }
      ],
      "name": "OverflowRewardWon",
      "type": "event"
    },
    {
      "anonymous": false,
      "inputs": [
        {
          "indexed": true,
          "internalType": "bytes32",
          "name": "role",
          "type": "bytes32"
        },
        {
          "indexed": true,
          "internalType": "bytes32",
          "name": "previousAdminRole",
          "type": "bytes32"
        },
        {
          "indexed": true,
          "internalType": "bytes32",
          "name": "newAdminRole",
          "type": "bytes32"
        }
      ],
      "name": "RoleAdminChanged",
      "type": "event"
    },
    {
      "anonymous": false,
      "inputs": [
        {
          "indexed": true,
          "internalType": "bytes32",
          "name": "role",
          "type": "bytes32"
        },
        {
          "indexed": true,
          "internalType": "address",
          "name": "account",
          "type": "address"
        },
        {
          "indexed": true,
          "internalType": "address",
          "name": "sender",
          "type": "address"
        }
      ],
      "name": "RoleGranted",
      "type": "event"
    },
    {
      "anonymous": false,
      "inputs": [
        {
          "indexed": true,
          "internalType": "bytes32",
          "name": "role",
          "type": "bytes32"
        },
        {
          "indexed": true,
          "internalType": "address",
          "name": "account",
          "type": "address"
        },
        {
          "indexed": true,
          "internalType": "address",
          "name": "sender",
          "type": "address"
        }
      ],
      "name": "RoleRevoked",
      "type": "event"
    },
    {
      "anonymous": false,
      "inputs": [
        {
          "indexed": true,
          "internalType": "uint8",
          "name": "player",
          "type": "uint8"
        },
        {
          "indexed": false,
          "internalType": "uint256",
          "name": "totalDamage",
          "type": "uint256"
        },
        {
          "indexed": false,
          "internalType": "uint8",
          "name": "bodyPartHit",
          "type": "uint8"
        }
      ],
      "name": "ShotOutcome",
      "type": "event"
    },
    {
      "anonymous": false,
      "inputs": [
        {
          "indexed": false,
          "internalType": "uint256",
          "name": "amount",
          "type": "uint256"
        }
      ],
      "name": "TagsHarvested",
      "type": "event"
    },
    {
      "inputs": [],
      "name": "DEFAULT_ADMIN_ROLE",
      "outputs": [
        {
          "internalType": "bytes32",
          "name": "",
          "type": "bytes32"
        }
      ],
      "stateMutability": "view",
      "type": "function"
    },
    {
      "inputs": [],
      "name": "GAME_ADMIN",
      "outputs": [
        {
          "internalType": "bytes32",
          "name": "",
          "type": "bytes32"
        }
      ],
      "stateMutability": "view",
      "type": "function"
    },
    {
      "inputs": [],
      "name": "MINT_PAYMENT_RECLAIM_MINIMUM_WAIT_TIME",
      "outputs": [
        {
          "internalType": "uint256",
          "name": "",
          "type": "uint256"
        }
      ],
      "stateMutability": "view",
      "type": "function"
    },
    {
      "inputs": [],
      "name": "MINT_PAYMENT_TIMEOUT",
      "outputs": [
        {
          "internalType": "uint256",
          "name": "",
          "type": "uint256"
        }
      ],
      "stateMutability": "view",
      "type": "function"
    },
    {
      "inputs": [],
      "name": "burnPercentage",
      "outputs": [
        {
          "internalType": "int128",
          "name": "",
          "type": "int128"
        }
      ],
      "stateMutability": "view",
      "type": "function"
    },
    {
      "inputs": [],
      "name": "chanceOfWinningOverflow",
      "outputs": [
        {
          "internalType": "uint256",
          "name": "",
          "type": "uint256"
        }
      ],
      "stateMutability": "view",
      "type": "function"
    },
    {
      "inputs": [],
      "name": "characters",
      "outputs": [
        {
          "internalType": "contract Characters",
          "name": "",
          "type": "address"
        }
      ],
      "stateMutability": "view",
      "type": "function"
    },
    {
      "inputs": [],
      "name": "cipherCore",
      "outputs": [
        {
          "internalType": "contract ICipherCore",
          "name": "",
          "type": "address"
        }
      ],
      "stateMutability": "view",
      "type": "function"
    },
    {
      "inputs": [],
      "name": "epochDuration",
      "outputs": [
        {
          "internalType": "uint256",
          "name": "",
          "type": "uint256"
        }
      ],
      "stateMutability": "view",
      "type": "function"
    },
    {
      "inputs": [],
      "name": "fightRewardBaseAmount",
      "outputs": [
        {
          "internalType": "uint256",
          "name": "",
          "type": "uint256"
        }
      ],
      "stateMutability": "view",
      "type": "function"
    },
    {
      "inputs": [],
      "name": "fightRewardBaseline",
      "outputs": [
        {
          "internalType": "int128",
          "name": "",
          "type": "int128"
        }
      ],
      "stateMutability": "view",
      "type": "function"
    },
    {
      "inputs": [],
      "name": "fightRewardGasOffset",
      "outputs": [
        {
          "internalType": "int128",
          "name": "",
          "type": "int128"
        }
      ],
      "stateMutability": "view",
      "type": "function"
    },
    {
      "inputs": [],
      "name": "fightXpGain",
      "outputs": [
        {
          "internalType": "uint256",
          "name": "",
          "type": "uint256"
        }
      ],
      "stateMutability": "view",
      "type": "function"
    },
    {
      "inputs": [
        {
          "internalType": "bytes32",
          "name": "role",
          "type": "bytes32"
        }
      ],
      "name": "getRoleAdmin",
      "outputs": [
        {
          "internalType": "bytes32",
          "name": "",
          "type": "bytes32"
        }
      ],
      "stateMutability": "view",
      "type": "function"
    },
    {
      "inputs": [
        {
          "internalType": "bytes32",
          "name": "role",
          "type": "bytes32"
        },
        {
          "internalType": "uint256",
          "name": "index",
          "type": "uint256"
        }
      ],
      "name": "getRoleMember",
      "outputs": [
        {
          "internalType": "address",
          "name": "",
          "type": "address"
        }
      ],
      "stateMutability": "view",
      "type": "function"
    },
    {
      "inputs": [
        {
          "internalType": "bytes32",
          "name": "role",
          "type": "bytes32"
        }
      ],
      "name": "getRoleMemberCount",
      "outputs": [
        {
          "internalType": "uint256",
          "name": "",
          "type": "uint256"
        }
      ],
      "stateMutability": "view",
      "type": "function"
    },
    {
      "inputs": [
        {
          "internalType": "bytes32",
          "name": "role",
          "type": "bytes32"
        },
        {
          "internalType": "address",
          "name": "account",
          "type": "address"
        }
      ],
      "name": "grantRole",
      "outputs": [],
      "stateMutability": "nonpayable",
      "type": "function"
    },
    {
      "inputs": [
        {
          "internalType": "bytes32",
          "name": "role",
          "type": "bytes32"
        },
        {
          "internalType": "address",
          "name": "account",
          "type": "address"
        }
      ],
      "name": "hasRole",
      "outputs": [
        {
          "internalType": "bool",
          "name": "",
          "type": "bool"
        }
      ],
      "stateMutability": "view",
      "type": "function"
    },
    {
      "inputs": [
        {
          "internalType": "address",
          "name": "",
          "type": "address"
        }
      ],
      "name": "inGameOnlyFunds",
      "outputs": [
        {
          "internalType": "uint256",
          "name": "",
          "type": "uint256"
        }
      ],
      "stateMutability": "view",
      "type": "function"
    },
    {
      "inputs": [],
      "name": "injectedRewards",
      "outputs": [
        {
          "internalType": "uint256",
          "name": "",
          "type": "uint256"
        }
      ],
      "stateMutability": "view",
      "type": "function"
    },
    {
      "inputs": [],
      "name": "mintCharacterFee",
      "outputs": [
        {
          "internalType": "int128",
          "name": "",
          "type": "int128"
        }
      ],
      "stateMutability": "view",
      "type": "function"
    },
    {
      "inputs": [],
      "name": "mintWeaponFee",
      "outputs": [
        {
          "internalType": "int128",
          "name": "",
          "type": "int128"
        }
      ],
      "stateMutability": "view",
      "type": "function"
    },
    {
      "inputs": [],
      "name": "nextEpochStartTimestamp",
      "outputs": [
        {
          "internalType": "uint256",
          "name": "",
          "type": "uint256"
        }
      ],
      "stateMutability": "view",
      "type": "function"
    },
    {
      "inputs": [],
      "name": "overflowReward",
      "outputs": [
        {
          "internalType": "uint256",
          "name": "",
          "type": "uint256"
        }
      ],
      "stateMutability": "view",
      "type": "function"
    },
    {
      "inputs": [],
      "name": "priceOracleTagPerUsd",
      "outputs": [
        {
          "internalType": "contract IPriceOracle",
          "name": "",
          "type": "address"
        }
      ],
      "stateMutability": "view",
      "type": "function"
    },
    {
      "inputs": [],
      "name": "randoms",
      "outputs": [
        {
          "internalType": "contract IRandoms",
          "name": "",
          "type": "address"
        }
      ],
      "stateMutability": "view",
      "type": "function"
    },
    {
      "inputs": [
        {
          "internalType": "bytes32",
          "name": "role",
          "type": "bytes32"
        },
        {
          "internalType": "address",
          "name": "account",
          "type": "address"
        }
      ],
      "name": "renounceRole",
      "outputs": [],
      "stateMutability": "nonpayable",
      "type": "function"
    },
    {
      "inputs": [
        {
          "internalType": "bytes32",
          "name": "role",
          "type": "bytes32"
        },
        {
          "internalType": "address",
          "name": "account",
          "type": "address"
        }
      ],
      "name": "revokeRole",
      "outputs": [],
      "stateMutability": "nonpayable",
      "type": "function"
    },
    {
      "inputs": [],
      "name": "tagToken",
      "outputs": [
        {
          "internalType": "contract IERC20Upgradeable",
          "name": "",
          "type": "address"
        }
      ],
      "stateMutability": "view",
      "type": "function"
    },
    {
      "inputs": [],
      "name": "totalEpochRewards",
      "outputs": [
        {
          "internalType": "uint256",
          "name": "",
          "type": "uint256"
        }
      ],
      "stateMutability": "view",
      "type": "function"
    },
    {
      "inputs": [],
      "name": "totalInGameOnlyFunds",
      "outputs": [
        {
          "internalType": "uint256",
          "name": "",
          "type": "uint256"
        }
      ],
      "stateMutability": "view",
      "type": "function"
    },
    {
      "inputs": [],
      "name": "totalMintPaymentSkillRefundable",
      "outputs": [
        {
          "internalType": "uint256",
          "name": "",
          "type": "uint256"
        }
      ],
      "stateMutability": "view",
      "type": "function"
    },
    {
      "inputs": [],
      "name": "totalPlayerRewards",
      "outputs": [
        {
          "internalType": "uint256",
          "name": "",
          "type": "uint256"
        }
      ],
      "stateMutability": "view",
      "type": "function"
    },
    {
      "inputs": [],
      "name": "treasury",
      "outputs": [
        {
          "internalType": "address",
          "name": "",
          "type": "address"
        }
      ],
      "stateMutability": "view",
      "type": "function"
    },
    {
      "inputs": [],
      "name": "treasuryTax",
      "outputs": [
        {
          "internalType": "int128",
          "name": "",
          "type": "int128"
        }
      ],
      "stateMutability": "view",
      "type": "function"
    },
    {
      "inputs": [],
      "name": "weapons",
      "outputs": [
        {
          "internalType": "contract Weapons",
          "name": "",
          "type": "address"
        }
      ],
      "stateMutability": "view",
      "type": "function"
    },
    {
      "inputs": [
        {
          "internalType": "contract IERC20Upgradeable",
          "name": "_tagToken",
          "type": "address"
        },
        {
          "internalType": "contract Characters",
          "name": "_characters",
          "type": "address"
        },
        {
          "internalType": "contract Weapons",
          "name": "_weapons",
          "type": "address"
        },
        {
          "internalType": "contract IPriceOracle",
          "name": "_priceOracleTagPerUsd",
          "type": "address"
        },
        {
          "internalType": "contract IRandoms",
          "name": "_randoms",
          "type": "address"
        }
      ],
      "name": "initialize",
      "outputs": [],
      "stateMutability": "nonpayable",
      "type": "function"
    },
    {
      "inputs": [
        {
          "internalType": "uint256",
          "name": "eliteId",
          "type": "uint256"
        }
      ],
      "name": "mintCharacter",
      "outputs": [],
      "stateMutability": "nonpayable",
      "type": "function"
    },
    {
      "inputs": [],
      "name": "mintWeapon",
      "outputs": [],
      "stateMutability": "nonpayable",
      "type": "function"
    },
    {
      "inputs": [
        {
          "internalType": "uint256",
          "name": "char",
          "type": "uint256"
        },
        {
          "internalType": "uint256",
          "name": "wep",
          "type": "uint256"
        }
      ],
      "name": "getTargets",
      "outputs": [
        {
          "components": [
            {
              "internalType": "uint24",
              "name": "power",
              "type": "uint24"
            },
            {
              "internalType": "uint8",
              "name": "trait",
              "type": "uint8"
            },
            {
              "internalType": "uint16",
              "name": "fireRate",
              "type": "uint16"
            }
          ],
          "internalType": "struct CryptoShooters.Target[4]",
          "name": "",
          "type": "tuple[4]"
        }
      ],
      "stateMutability": "view",
      "type": "function"
    },
    {
      "inputs": [
        {
          "internalType": "uint112",
          "name": "playerData",
          "type": "uint112"
        }
      ],
      "name": "unpackFightData",
      "outputs": [
        {
          "internalType": "uint8",
          "name": "charTrait",
          "type": "uint8"
        },
        {
          "internalType": "uint8",
          "name": "charAccuracy",
          "type": "uint8"
        },
        {
          "internalType": "uint8",
          "name": "charClass",
          "type": "uint8"
        },
        {
          "internalType": "uint24",
          "name": "basePowerLevel",
          "type": "uint24"
        },
        {
          "internalType": "uint64",
          "name": "timestamp",
          "type": "uint64"
        }
      ],
      "stateMutability": "pure",
      "type": "function"
    },
    {
      "inputs": [
        {
          "internalType": "uint256",
          "name": "char",
          "type": "uint256"
        },
        {
          "internalType": "uint256",
          "name": "wep",
          "type": "uint256"
        },
        {
          "components": [
            {
              "internalType": "uint24",
              "name": "power",
              "type": "uint24"
            },
            {
              "internalType": "uint8",
              "name": "trait",
              "type": "uint8"
            },
            {
              "internalType": "uint16",
              "name": "fireRate",
              "type": "uint16"
            }
          ],
          "internalType": "struct CryptoShooters.Target",
          "name": "target",
          "type": "tuple"
        },
        {
          "internalType": "uint8",
          "name": "fightMultiplier",
          "type": "uint8"
        }
      ],
      "name": "fight",
      "outputs": [],
      "stateMutability": "nonpayable",
      "type": "function"
    },
    {
      "inputs": [
        {
          "internalType": "uint24",
          "name": "playerBasePower",
          "type": "uint24"
        },
        {
          "internalType": "uint24",
          "name": "weaponPower",
          "type": "uint24"
        },
        {
          "internalType": "uint64",
          "name": "staminaTimestamp",
          "type": "uint64"
        },
        {
          "internalType": "uint16",
          "name": "fireRate",
          "type": "uint16"
        },
        {
          "internalType": "uint256",
          "name": "hour",
          "type": "uint256"
        },
        {
          "components": [
            {
              "internalType": "uint24",
              "name": "power",
              "type": "uint24"
            },
            {
              "internalType": "uint8",
              "name": "trait",
              "type": "uint8"
            },
            {
              "internalType": "uint16",
              "name": "fireRate",
              "type": "uint16"
            }
          ],
          "internalType": "struct CryptoShooters.Target",
          "name": "target",
          "type": "tuple"
        }
      ],
      "name": "verifyFight",
      "outputs": [],
      "stateMutability": "pure",
      "type": "function"
    },
    {
      "inputs": [],
      "name": "claimTokenRewards",
      "outputs": [],
      "stateMutability": "nonpayable",
      "type": "function"
    },
    {
      "inputs": [
        {
          "internalType": "int128",
          "name": "usdAmount",
          "type": "int128"
        }
      ],
      "name": "usdTotag",
      "outputs": [
        {
          "internalType": "uint256",
          "name": "",
          "type": "uint256"
        }
      ],
      "stateMutability": "view",
      "type": "function"
    },
    {
      "inputs": [
        {
          "internalType": "uint256",
          "name": "_inGameOnlyFunds",
          "type": "uint256"
        },
        {
          "internalType": "uint256",
          "name": "_tokenRewards",
          "type": "uint256"
        },
        {
          "internalType": "uint256",
          "name": "_tagNeeded",
          "type": "uint256"
        }
      ],
      "name": "gettagToSubtract",
      "outputs": [
        {
          "internalType": "uint256",
          "name": "fromInGameOnlyFunds",
          "type": "uint256"
        },
        {
          "internalType": "uint256",
          "name": "fromTokenRewards",
          "type": "uint256"
        },
        {
          "internalType": "uint256",
          "name": "fromUserWallet",
          "type": "uint256"
        }
      ],
      "stateMutability": "pure",
      "type": "function"
    },
    {
      "inputs": [],
      "name": "getMyCharacters",
      "outputs": [
        {
          "internalType": "uint256[]",
          "name": "",
          "type": "uint256[]"
        }
      ],
      "stateMutability": "view",
      "type": "function"
    },
    {
      "inputs": [],
      "name": "getMyWeapons",
      "outputs": [
        {
          "internalType": "uint256[]",
          "name": "",
          "type": "uint256[]"
        }
      ],
      "stateMutability": "view",
      "type": "function"
    },
    {
      "inputs": [],
      "name": "getTokenRewards",
      "outputs": [
        {
          "internalType": "uint256",
          "name": "",
          "type": "uint256"
        }
      ],
      "stateMutability": "view",
      "type": "function"
    },
    {
      "inputs": [
        {
          "internalType": "uint256",
          "name": "_inGameOnlyFunds",
          "type": "uint256"
        },
        {
          "internalType": "uint256",
          "name": "_tokenRewards",
          "type": "uint256"
        },
        {
          "internalType": "uint256",
          "name": "_skillNeeded",
          "type": "uint256"
        }
      ],
      "name": "getSkillToSubtract",
      "outputs": [
        {
          "internalType": "uint256",
          "name": "fromInGameOnlyFunds",
          "type": "uint256"
        },
        {
          "internalType": "uint256",
          "name": "fromTokenRewards",
          "type": "uint256"
        },
        {
          "internalType": "uint256",
          "name": "fromUserWallet",
          "type": "uint256"
        }
      ],
      "stateMutability": "pure",
      "type": "function"
    },
    {
      "inputs": [],
      "name": "startNextEpoch",
      "outputs": [],
      "stateMutability": "nonpayable",
      "type": "function"
    },
    {
      "inputs": [
        {
          "internalType": "uint256",
          "name": "amount",
          "type": "uint256"
        }
      ],
      "name": "injectRewards",
      "outputs": [],
      "stateMutability": "nonpayable",
      "type": "function"
    },
    {
      "inputs": [
        {
          "internalType": "uint16",
          "name": "duration",
          "type": "uint16"
        }
      ],
      "name": "setCombatDuration",
      "outputs": [],
      "stateMutability": "nonpayable",
      "type": "function"
    },
    {
      "inputs": [
        {
          "internalType": "uint256",
          "name": "max",
          "type": "uint256"
        }
      ],
      "name": "setCharacterLimit",
      "outputs": [],
      "stateMutability": "nonpayable",
      "type": "function"
    },
    {
      "inputs": [
        {
          "internalType": "uint256",
          "name": "index",
          "type": "uint256"
        },
        {
          "internalType": "string",
          "name": "uri",
          "type": "string"
        }
      ],
      "name": "setClassURIs",
      "outputs": [],
      "stateMutability": "nonpayable",
      "type": "function"
    },
    {
      "inputs": [
        {
          "internalType": "uint256",
          "name": "index",
          "type": "uint256"
        },
        {
          "internalType": "string",
          "name": "uri",
          "type": "string"
        }
      ],
      "name": "setGunTypeURIs",
      "outputs": [],
      "stateMutability": "nonpayable",
      "type": "function"
    },
    {
      "inputs": [
        {
          "internalType": "uint256",
          "name": "duration",
          "type": "uint256"
        }
      ],
      "name": "setEpochDuration",
      "outputs": [],
      "stateMutability": "nonpayable",
      "type": "function"
    },
    {
      "inputs": [
        {
          "internalType": "uint256",
          "name": "chance",
          "type": "uint256"
        }
      ],
      "name": "setChanceOfWinningOverflow",
      "outputs": [],
      "stateMutability": "nonpayable",
      "type": "function"
    },
    {
      "inputs": [
        {
          "internalType": "address",
          "name": "_treasury",
          "type": "address"
        }
      ],
      "name": "setTreasury",
      "outputs": [],
      "stateMutability": "nonpayable",
      "type": "function"
    },
    {
      "inputs": [
        {
          "internalType": "int128",
          "name": "_tax",
          "type": "int128"
        }
      ],
      "name": "setTreasuryTax",
      "outputs": [],
      "stateMutability": "nonpayable",
      "type": "function"
    },
    {
      "inputs": [
        {
          "internalType": "int128",
          "name": "_burnPercentage",
          "type": "int128"
        }
      ],
      "name": "setBurnPercentage",
      "outputs": [],
      "stateMutability": "nonpayable",
      "type": "function"
    },
    {
      "inputs": [
        {
          "internalType": "contract ICipherCore",
          "name": "_core",
          "type": "address"
        }
      ],
      "name": "setCore",
      "outputs": [],
      "stateMutability": "nonpayable",
      "type": "function"
    },
    {
      "inputs": [
        {
          "internalType": "contract IERC20Upgradeable",
          "name": "_tagToken",
          "type": "address"
        }
      ],
      "name": "setTagToken",
      "outputs": [],
      "stateMutability": "nonpayable",
      "type": "function"
    },
    {
      "inputs": [
        {
          "internalType": "uint24",
          "name": "basePower",
          "type": "uint24"
        },
        {
          "internalType": "uint24",
          "name": "weaponPower",
          "type": "uint24"
        }
      ],
      "name": "getPlayerPower",
      "outputs": [
        {
          "internalType": "uint24",
          "name": "",
          "type": "uint24"
        }
      ],
      "stateMutability": "pure",
      "type": "function"
    },
    {
      "inputs": [],
      "name": "getExcessBalance",
      "outputs": [
        {
          "internalType": "uint256",
          "name": "",
          "type": "uint256"
        }
      ],
      "stateMutability": "view",
      "type": "function"
    }
  ],
  "bytecode": "0x608060405234801561001057600080fd5b50614cd7806100206000396000f3fe608060405234801561001057600080fd5b50600436106103da5760003560e01c806370b6aff61161020a578063c27d126011610125578063e3a6615a116100b8578063f0151b1711610087578063f0151b171461074e578063f01f20df14610761578063f0f4426014610769578063f72d9c691461077c578063fb198c4a14610784576103da565b8063e3a6615a14610723578063e6c6b7f01461072b578063e90eb7dc14610733578063ecfeb5ba14610746576103da565b8063d070bb54116100f4578063d070bb5414610700578063d0e13b7c14610708578063d547741f14610710578063e149e325146105ad576103da565b8063c27d1260146106d5578063c46a8238146106dd578063c6e195ed146106e5578063ca15c873146106ed576103da565b8063988b29351161019d578063b7e1cd861161016c578063b7e1cd86146106b5578063bd946f46146106bd578063be2cf138146106c5578063bee666d8146106cd576103da565b8063988b29351461068a5780639d66e3551461069d578063a217fddf146106a5578063ab37e934146106ad576103da565b806380009630116101d9578063800096301461063c578063888b042f1461064f5780639010d07c1461065757806391d148541461066a576103da565b806370b6aff6146105fb578063751482361461060e578063751ddc60146106165780637d4c76eb14610629576103da565b80633c4739d3116102fa5780635504d3d21161028d57806361d027b31161025c57806361d027b3146105a55780636a3c5e95146105ad5780636b246e1c146105cf5780636e28b752146105f3576103da565b80635504d3d21461057857806357fbf8a8146105805780635caf9a8114610595578063613f13521461059d576103da565b806353494695116102c9578063534946951461052a578063534db3b514610532578063536c4efc14610545578063542c0ce614610558576103da565b80633c4739d3146104f457806344678be1146104fc5780634d443bb51461050f5780634ff0876a14610522576103da565b8063248a9ca311610372578063336dfb4611610341578063336dfb46146104b157806336568abe146104c6578063372e5587146104d95780633bdc8a1f146104e1576103da565b8063248a9ca3146104705780632f2ff15d1461048357806330024dfe14610496578063328da351146104a9576103da565b80630ec32977116103ae5780630ec329771461043a5780631459457a146104425780631cc7259d146104555780631d3d043014610468576103da565b8062e94b18146103df57806306feab23146103f45780630dff3a10146104075780630e918b5a14610425575b600080fd5b6103f26103ed36600461403f565b6107a4565b005b6103f2610402366004614203565b6107d3565b61040f6108b8565b60405161041c91906145e5565b60405180910390f35b61042d6108c1565b60405161041c9190614483565b6103f26108c7565b6103f2610450366004613fcf565b6108fe565b6103f261046336600461403f565b610ac7565b61042d610af6565b61042d61047e366004613f67565b610afb565b6103f2610491366004613f7f565b610b13565b6103f26104a4366004613f67565b610b5b565b61042d610b68565b6104b9610b7b565b60405161041c9190614575565b6103f26104d4366004613f7f565b610cf6565b61042d610d38565b6103f26104ef366004613f67565b610d3e565b6104b9610dfe565b6103f261050a366004613f67565b610f73565b6103f261051d366004614291565b610fe0565b61042d611048565b61042d61104e565b6103f2610540366004613f67565b611054565b6103f2610553366004613f0f565b611061565b61056b6105663660046141d6565b61108b565b60405161041c9190614ab8565b61042d6110ae565b6105886110c5565b60405161041c919061449a565b61042d6110d4565b61042d6110da565b6105886110e0565b6105c06105bb366004614378565b6110ef565b60405161041c93929190614b71565b6105e26105dd36600461407b565b611136565b60405161041c959493929190614b98565b61042d61116b565b6103f2610609366004614291565b611171565b61042d6111ab565b61042d61062436600461403f565b6111b1565b6103f26106373660046140b3565b61124d565b6103f261064a366004613f0f565b61126d565b61042d61129f565b610588610665366004613fae565b611353565b61067d610678366004613f7f565b611371565b60405161041c91906145b9565b61042d610698366004613f0f565b61138f565b61042d6113a1565b61042d6113a7565b61042d6113ac565b6105886113b2565b6105886113c1565b61040f6113d0565b6105886113d9565b61042d6113e8565b61042d6113ee565b61040f6113f4565b61042d6106fb366004613f67565b611403565b61058861141a565b610588611429565b6103f261071e366004613f7f565b61143e565b61040f611478565b6103f2611488565b6103f2610741366004613f67565b611691565b61040f611876565b6103f261075c366004614326565b61187f565b61040f611c0b565b6103f2610777366004613f0f565b611c14565b6103f2611c3e565b610797610792366004613fae565b6120a9565b60405161041c919061451e565b6107ac6122ee565b60808054600f9290920b6001600160801b03166001600160801b0319909216919091179055565b6107db613e6c565b6107f06107e8888861108b565b858786612329565b90506000805b600481101561088757835162ffffff1683826004811061081257fe5b60200201515162ffffff161480156108475750836020015160ff1683826004811061083957fe5b60200201516020015160ff16145b80156108725750836040015161ffff1683826004811061086357fe5b60200201516040015161ffff16145b1561087f57506001905060045b6001016107f6565b50806108ae5760405162461bcd60e51b81526004016108a590614834565b60405180910390fd5b5050505050505050565b606a54600f0b81565b60815481565b336000908152606e602052604081208054919055607e546108ee908263ffffffff6123d316565b607e556108fb33826123fb565b50565b600054610100900460ff16806109175750610917612418565b80610925575060005460ff16155b6109415760405162461bcd60e51b81526004016108a5906148b0565b600054610100900460ff1615801561096c576000805460ff1961ff0019909116610100171660011790555b610974612429565b61097f600033610b4d565b61099c60405161098e9061446d565b604051809103902033610b4d565b606780546001600160a01b038089166001600160a01b03199283161790925560658054888416908316179055606680548784169083161790556068805486841690831617905560698054928516929091169190911790556020606d55606b805460ff19166028179055610a11600a60016124bb565b606a8054600f9290920b6001600160801b03166001600160801b0319909216919091179055610a42600360016124bb565b606a8054600f9290920b6001600160801b03908116600160801b029216919091179055606b805461280061ff0019909116179055610a846101586103e86124bb565b606b60026101000a8154816001600160801b030219169083600f0b6001600160801b031602179055508015610abf576000805461ff00191690555b505050505050565b610acf6122ee565b607c8054600f9290920b6001600160801b03166001600160801b0319909216919091179055565b60c881565b6000818152603360205260409020600201545b919050565b600082815260336020526040902060020154610b31906106786124f2565b610b4d5760405162461bcd60e51b81526004016108a5906146aa565b610b5782826124f6565b5050565b610b636122ee565b607955565b336000908152606e602052604090205490565b6066546040516370a0823160e01b815260609182916001600160a01b03909116906370a0823190610bb090339060040161449a565b60206040518083038186803b158015610bc857600080fd5b505afa158015610bdc573d6000803e3d6000fd5b505050506040513d601f19601f82011682018060405250810190610c009190614279565b67ffffffffffffffff81118015610c1657600080fd5b50604051908082528060200260200182016040528015610c40578160200160208202803683370190505b50905060005b8151811015610cf057606654604051632f745c5960e01b81526001600160a01b0390911690632f745c5990610c8190339085906004016144d2565b60206040518083038186803b158015610c9957600080fd5b505afa158015610cad573d6000803e3d6000fd5b505050506040513d601f19601f82011682018060405250810190610cd19190614279565b828281518110610cdd57fe5b6020908102919091010152600101610c46565b50905090565b610cfe6124f2565b6001600160a01b0316816001600160a01b031614610d2e5760405162461bcd60e51b81526004016108a590614a3b565b610b578282612565565b607e5481565b6067546001600160a01b03166323b872dd610d576124f2565b30846040518463ffffffff1660e01b8152600401610d77939291906144ae565b602060405180830381600087803b158015610d9157600080fd5b505af1158015610da5573d6000803e3d6000fd5b505050506040513d601f19601f82011682018060405250810190610dc99190613f47565b610de55760405162461bcd60e51b81526004016108a59061493f565b608154610df8908263ffffffff6125d416565b60815550565b6065546040516370a0823160e01b815260609182916001600160a01b03909116906370a0823190610e3390339060040161449a565b60206040518083038186803b158015610e4b57600080fd5b505afa158015610e5f573d6000803e3d6000fd5b505050506040513d601f19601f82011682018060405250810190610e839190614279565b67ffffffffffffffff81118015610e9957600080fd5b50604051908082528060200260200182016040528015610ec3578160200160208202803683370190505b50905060005b8151811015610cf057606554604051632f745c5960e01b81526001600160a01b0390911690632f745c5990610f0490339085906004016144d2565b60206040518083038186803b158015610f1c57600080fd5b505afa158015610f30573d6000803e3d6000fd5b505050506040513d601f19601f82011682018060405250810190610f549190614279565b828281518110610f6057fe5b6020908102919091010152600101610ec9565b610f7b6122ee565b6065546040516344678be160e01b81526001600160a01b03909116906344678be190610fab908490600401614483565b600060405180830381600087803b158015610fc557600080fd5b505af1158015610fd9573d6000803e3d6000fd5b5050505050565b610fe86122ee565b606554604051634d443bb560e01b81526001600160a01b0390911690634d443bb59061101a9085908590600401614ae0565b600060405180830381600087803b15801561103457600080fd5b505af1158015610abf573d6000803e3d6000fd5b60795481565b60745481565b61105c6122ee565b607b55565b6110696122ee565b606780546001600160a01b0319166001600160a01b0392909216919091179055565b60006110a562ffffff83811690851663ffffffff6125d416565b90505b92915050565b6040516110ba9061446d565b604051809103902081565b6067546001600160a01b031681565b607a5481565b606d5481565b607d546001600160a01b031681565b60008060008584116111095750829150600090508061112d565b85840393508484116111235750849150829050600061112d565b5050508190038282825b93509350939050565b60ff81811692600883901c821692601081901c90921691601881901c62ffffff169160309190911c67ffffffffffffffff1690565b60785481565b6111796122ee565b60665460405163385b57fb60e11b81526001600160a01b03909116906370b6aff69061101a9085908590600401614ae0565b612a3081565b60006110a8606860009054906101000a90046001600160a01b03166001600160a01b0316639d1b464a6040518163ffffffff1660e01b815260040160206040518083038186803b15801561120457600080fd5b505afa158015611218573d6000803e3d6000fd5b505050506040513d601f19601f8201168201806040525081019061123c9190614279565b600f84900b9063ffffffff6125f916565b6112556122ee565b6076805461ffff191661ffff92909216919091179055565b6112756122ee565b607680546001600160a01b03909216620100000262010000600160b01b0319909216919091179055565b6067546040516370a0823160e01b815260009182916001600160a01b03909116906370a08231906112d490309060040161449a565b60206040518083038186803b1580156112ec57600080fd5b505afa158015611300573d6000803e3d6000fd5b505050506040513d601f19601f820116820180604052508101906113249190614279565b905061134d607e54611341607a54846123d390919063ffffffff16565b9063ffffffff6123d316565b91505090565b60008281526033602052604081206110a5908363ffffffff61266116565b60008281526033602052604081206110a5908363ffffffff61266d16565b60716020526000908152604090205481565b607b5481565b600081565b60725481565b6066546001600160a01b031681565b6068546001600160a01b031681565b606c54600f0b81565b6069546001600160a01b031681565b60775481565b607f5481565b606b54620100009004600f0b81565b60008181526033602052604081206110a890612682565b6065546001600160a01b031681565b6076546201000090046001600160a01b031681565b60008281526033602052604090206002015461145c906106786124f2565b610d2e5760405162461bcd60e51b81526004016108a5906147e4565b606a54600160801b9004600f0b81565b61149061268d565b3361149a81612699565b606a546000906114b390600160801b9004600f0b6111b1565b336000908152606e6020526040812054919250906114d3908290846110ef565b6067546040516370a0823160e01b81529194508493506001600160a01b031691506370a082319061150890339060040161449a565b60206040518083038186803b15801561152057600080fd5b505afa158015611534573d6000803e3d6000fd5b505050506040513d601f19601f820116820180604052508101906115589190614279565b101561156357600080fd5b606a5460009061157c90600160801b9004600f0b6111b1565b905061158833826126ec565b606954604051630e20f61560e21b81526000916001600160a01b031690633883d854906115b990339060040161449a565b60206040518083038186803b1580156115d157600080fd5b505afa1580156115e5573d6000803e3d6000fd5b505050506040513d601f19601f820116820180604052508101906116099190614279565b60665460405163ef60e3b160e01b81529192506001600160a01b03169063ef60e3b19061163f90600090339086906004016145c4565b602060405180830381600087803b15801561165957600080fd5b505af115801561166d573d6000803e3d6000fd5b505050506040513d601f19601f82011682018060405250810190610abf9190614279565b61169961268d565b336116a381612699565b606a546000906116b590600f0b6111b1565b336000908152606e6020526040812054919250906116d5908290846110ef565b6067546040516370a0823160e01b81529194508493506001600160a01b031691506370a082319061170a90339060040161449a565b60206040518083038186803b15801561172257600080fd5b505afa158015611736573d6000803e3d6000fd5b505050506040513d601f19601f8201168201806040525081019061175a9190614279565b101561176557600080fd5b606a5460009061177790600f0b6111b1565b905061178333826126ec565b606954604051630e20f61560e21b81526000916001600160a01b031690633883d854906117b490339060040161449a565b60206040518083038186803b1580156117cc57600080fd5b505afa1580156117e0573d6000803e3d6000fd5b505050506040513d601f19601f820116820180604052508101906118049190614279565b6065546040516353d35f4b60e11b81529192506001600160a01b03169063a7a6be969061183c90339085906001908c906004016144eb565b600060405180830381600087803b15801561185657600080fd5b505af115801561186a573d6000803e3d6000fd5b50505050505050505050565b607c54600f0b81565b838361188a826127f7565b6118938161289d565b60018360ff16101580156118ab575060058360ff1611155b6118b457600080fd5b606554604051630153b1ff60e61b81526000916001600160a01b0316906354ec7fc0906118e5908a90600401614483565b60206040518083038186803b1580156118fd57600080fd5b505afa158015611911573d6000803e3d6000fd5b505050506040513d601f19601f8201168201806040525081019061193591906143a3565b606554606b549192506000916119dc916001600160a01b031690632ee6accf908b9061196d9060ff8b8116911663ffffffff61294316565b6040518363ffffffff1660e01b815260040161198a929190614b87565b602060405180830381600087803b1580156119a457600080fd5b505af11580156119b8573d6000803e3d6000fd5b505050506040513d601f19601f820116820180604052508101906105dd9190614097565b505060655460405163017fe80960e01b8152929450600093506001600160a01b03169163017fe8099150611a14908c90600401614483565b60206040518083038186803b158015611a2c57600080fd5b505afa158015611a40573d6000803e3d6000fd5b505050506040513d601f19601f82011682018060405250810190611a6491906141ba565b606654604051634a83e9cd60e11b8152919250600091829182916001600160a01b0390911690639507d39a90611a9e908e90600401614483565b6101006040518083038186803b158015611ab757600080fd5b505afa158015611acb573d6000803e3d6000fd5b505050506040513d601f19601f82011682018060405250810190611aef91906140eb565b5050606654606b54969950949750909550506001600160a01b039092169263c2aa718192508e9150611b329060ff8e81169161010090041663ffffffff61294316565b6040518363ffffffff1660e01b8152600401611b4f929190614b87565b6040805180830381600087803b158015611b6857600080fd5b505af1158015611b7c573d6000803e3d6000fd5b505050506040513d601f19601f82011682018060405250810190611ba091906143f7565b5050611bc3848461ffff1688858e803603810190611bbe9190614060565b61297d565b611bfd8c8c611bd6878761ffff1661108b565b611be360208f018f61419e565b8e6020016020810190611bf691906143bf565b8a8f61299c565b505050505050505050505050565b608054600f0b81565b611c1c6122ee565b607d80546001600160a01b0319166001600160a01b0392909216919091179055565b6078544211611c5f5760405162461bcd60e51b81526004016108a590614614565b607954607854611c749163ffffffff6125d416565b6078819055421115611c9857607954611c9490429063ffffffff6125d416565b6078555b6000611ca261129f565b90508015611eb657607c54600090600f90810b900b811215611cf457607c54611cce90600f0b836125f9565b607d54606754919250611cf4916001600160a01b0390811691168363ffffffff612eea16565b608054600090600f90810b900b811215611d3957608054611d1890600f0b846125f9565b606754909150611d39906001600160a01b031660008363ffffffff612eea16565b611d4d81611341858563ffffffff6123d316565b92506000611d5d600160036124bb565b90506000611d6b82866125f9565b60675460765460405163095ea7b360e01b81529293506001600160a01b039182169263095ea7b392611da992620100009004169085906004016144d2565b602060405180830381600087803b158015611dc357600080fd5b505af1158015611dd7573d6000803e3d6000fd5b505050506040513d601f19601f82011682018060405250810190611dfb9190613f47565b506076546040516328dd51b760e11b8152620100009091046001600160a01b0316906351baa36e90611e31908490600401614483565b600060405180830381600087803b158015611e4b57600080fd5b505af1158015611e5f573d6000803e3d6000fd5b50505050611e7681866123d390919063ffffffff16565b9450611e8282866125f9565b6077819055611e9890869063ffffffff6123d316565b607a54909550611eae908663ffffffff6125d416565b607a55505050505b6067546040516370a0823160e01b81526000916001600160a01b0316906370a0823190611ee790309060040161449a565b60206040518083038186803b158015611eff57600080fd5b505afa158015611f13573d6000803e3d6000fd5b505050506040513d601f19601f82011682018060405250810190611f379190614279565b9050607660029054906101000a90046001600160a01b03166001600160a01b03166368898a2a6040518163ffffffff1660e01b8152600401600060405180830381600087803b158015611f8957600080fd5b505af1158015611f9d573d6000803e3d6000fd5b50506067546040516370a0823160e01b815260009350612028925084916001600160a01b0316906370a0823190611fd890309060040161449a565b60206040518083038186803b158015611ff057600080fd5b505afa158015612004573d6000803e3d6000fd5b505050506040513d601f19601f820116820180604052508101906113419190614279565b60775490915061203e908263ffffffff6125d416565b6077556040517fe54dc2a1485b66f908a53e723950fdb3209957e8df712c1415f1c811d549b57090612071908390614483565b60405180910390a160815460775461208e9163ffffffff6125d416565b607781905560006081556120a190612f45565b607f55505050565b6120b1613e6c565b606654604051634a83e9cd60e11b81526000916001600160a01b031690639507d39a906120e2908690600401614483565b6101006040518083038186803b1580156120fb57600080fd5b505afa15801561210f573d6000803e3d6000fd5b505050506040513d601f19601f8201168201806040525081019061213391906140eb565b505060655460405163017fe80960e01b81529697506122e6966121cf96506001600160a01b03909116945063017fe809935061217592508a9150600401614483565b60206040518083038186803b15801561218d57600080fd5b505afa1580156121a1573d6000803e3d6000fd5b505050506040513d601f19601f820116820180604052508101906121c591906141ba565b8361ffff1661108b565b60665460405163154a06e360e01b81526001600160a01b039091169063154a06e3906121ff908890600401614483565b60206040518083038186803b15801561221757600080fd5b505afa15801561222b573d6000803e3d6000fd5b505050506040513d601f19601f8201168201806040525081019061224f91906140cf565b606554604051630153b1ff60e61b81526001600160a01b03909116906354ec7fc09061227f908a90600401614483565b60206040518083038186803b15801561229757600080fd5b505afa1580156122ab573d6000803e3d6000fd5b505050506040513d601f19601f820116820180604052508101906122cf91906143a3565b6122e142610e1063ffffffff612f8216565b612329565b949350505050565b61230b6040516122fd9061446d565b604051809103902033611371565b6123275760405162461bcd60e51b81526004016108a59061485c565b565b612331613e6c565b600061235561234a8567ffffffffffffffff1685612fb4565b8762ffffff16612fb4565b905061235f613e6c565b60005b60048110156123c85760006123778483612fb4565b905060405180606001604052806123938b62ffffff1684612fe8565b62ffffff16815260038316602082015261ffff8a166040909101528383600481106123ba57fe5b602002015250600101612362565b509695505050505050565b6000828211156123f55760405162461bcd60e51b81526004016108a590614730565b50900390565b606754610b57906001600160a01b0316838363ffffffff612eea16565b600061242330613039565b15905090565b600054610100900460ff16806124425750612442612418565b80612450575060005460ff16155b61246c5760405162461bcd60e51b81526004016108a5906148b0565b600054610100900460ff16158015612497576000805460ff1961ff0019909116610100171660011790555b61249f61303f565b6124a761303f565b80156108fb576000805461ff001916905550565b6000816124c757600080fd5b60006124d384846130c0565b905060016001607f1b036001600160801b03821611156110a557600080fd5b3390565b6000828152603360205260409020612514908263ffffffff61320a16565b15610b57576125216124f2565b6001600160a01b0316816001600160a01b0316837f2f8788117e7eff1d82e926ec794901d17c78024a50270940304540a733656f0d60405160405180910390a45050565b6000828152603360205260409020612583908263ffffffff61321f16565b15610b57576125906124f2565b6001600160a01b0316816001600160a01b0316837ff6391f5c32d9c69d2a47ea670b442974b53935d1edc7fd64eb21e047a839171b60405160405180910390a45050565b6000828201838110156110a55760405162461bcd60e51b81526004016108a5906146f9565b600081612608575060006110a8565b600083600f0b121561261957600080fd5b600f83900b6001600160801b038316810260401c90608084901c026001600160c01b0381111561264857600080fd5b60401b811981111561265957600080fd5b019392505050565b60006110a58383613234565b60006110a5836001600160a01b038416613279565b60006110a882613291565b32331461232757600080fd5b6001600160a01b03811660009081526070602052604090205443116126d05760405162461bcd60e51b81526004016108a59061464b565b6001600160a01b03166000908152607060205260409020439055565b6001600160a01b0382166000908152606e60205260408120548190612713908290856110ef565b6001600160a01b0387166000908152606e6020526040902054919450925061274291508363ffffffff6123d316565b6001600160a01b0385166000908152606e6020526040902055607e5461276e908363ffffffff6123d316565b607e556067546040516323b872dd60e01b81526001600160a01b03909116906323b872dd906127a5908790309086906004016144ae565b602060405180830381600087803b1580156127bf57600080fd5b505af11580156127d3573d6000803e3d6000fd5b505050506040513d601f19601f82011682018060405250810190610fd99190613f47565b6065546040516331a9108f60e11b815233916001600160a01b031690636352211e90612827908590600401614483565b60206040518083038186803b15801561283f57600080fd5b505afa158015612853573d6000803e3d6000fd5b505050506040513d601f19601f820116820180604052508101906128779190613f2b565b6001600160a01b0316146108fb5760405162461bcd60e51b81526004016108a590614983565b6066546040516331a9108f60e11b815233916001600160a01b031690636352211e906128cd908590600401614483565b60206040518083038186803b1580156128e557600080fd5b505afa1580156128f9573d6000803e3d6000fd5b505050506040513d601f19601f8201168201806040525081019061291d9190613f2b565b6001600160a01b0316146108fb5760405162461bcd60e51b81526004016108a590614a8a565b600082612952575060006110a8565b8282028284828161295f57fe5b04146110a55760405162461bcd60e51b81526004016108a5906148fe565b610fd98585858561299642610e1063ffffffff612f8216565b866107d3565b606954604051630e20f61560e21b81526000916001600160a01b031690633883d854906129cd90339060040161449a565b60206040518083038186803b1580156129e557600080fd5b505afa1580156129f9573d6000803e3d6000fd5b505050506040513d601f19601f82011682018060405250810190612a1d9190614279565b606554604051630e9f48af60e21b81529192506000916001600160a01b0390911690633a7d22bc90612a53908c90600401614483565b60206040518083038186803b158015612a6b57600080fd5b505afa158015612a7f573d6000803e3d6000fd5b505050506040513d601f19601f82011682018060405250810190612aa391906143db565b60655460405163512d62df60e01b81529192506000916001600160a01b039091169063512d62df90612ad9908d90600401614483565b60206040518083038186803b158015612af157600080fd5b505afa158015612b05573d6000803e3d6000fd5b505050506040513d601f19601f82011682018060405250810190612b2991906143db565b60665460405163e0f5ead960e01b81529192506001600160a01b03169063e0f5ead990612b60908c908c9087908790600401614b4b565b60206040518083038186803b158015612b7857600080fd5b505afa158015612b8c573d6000803e3d6000fd5b505050506040513d601f19601f82011682018060405250810190612bb091906141ba565b97506000612bc089878c87613295565b90508260ff1660048860010160ff1681612bd657fe5b0660ff161415612c1e57612c1b612c078262ffffff16612bf86001600a6124bb565b600f0b9063ffffffff6125f916565b62ffffff838116911663ffffffff6125d416565b90505b6000612c3689888d612c31896001612fb4565b613400565b90508760ff1660048560010160ff1681612c4c57fe5b0660ff161415612c7157612c6e612c078262ffffff16612bf86001600a6124bb565b90505b600080612c90612c808c61356c565b60ff8a169063ffffffff61294316565b9050806077541015612ca157506077545b607754612cb4908263ffffffff6123d316565b60775562ffffff8084169085161115612db457612ce8612cd48d8d61370b565b60ff8a169061ffff1663ffffffff61294316565b9150612d06607b54612cfa8942612fb4565b9063ffffffff61372716565b612d6957607a54612d1e90829063ffffffff6125d416565b9050336001600160a01b03167f52d8a99218ad7827c74971d54a5b7946f954c22ef6bdbaf3e53f488944a85c90607a54604051612d5b9190614483565b60405180910390a26000607a555b336000908152606e6020526040902054612d89908263ffffffff6125d416565b336000908152606e6020526040902055607e54612dac908263ffffffff6125d416565b607e55612df8565b607c54600090612dc790600f0b836125f9565b9050612dd9828263ffffffff6123d316565b607a54909250612def908363ffffffff6125d416565b607a5550600090505b61ffff8261ffff161115612e0c5761ffff91505b61ffff821615612e8c57606560009054906101000a90046001600160a01b03166001600160a01b0316630fc005758f846040518363ffffffff1660e01b8152600401612e59929190614af9565b600060405180830381600087803b158015612e7357600080fd5b505af1158015612e87573d6000803e3d6000fd5b505050505b8d336001600160a01b03167f352ae2583ad5c07a93de17fe3936fdba5e677680c07a200c2df00365a9458ade8f8e8e89898989604051612ed29796959493929190614b0b565b60405180910390a35050505050505050505050505050565b612f408363a9059cbb60e01b8484604051602401612f099291906144d2565b60408051601f198184030181529190526020810180516001600160e01b03166001600160e01b031990931692909217909152613759565b505050565b600080612f6062015180607954612f8290919063ffffffff16565b9050611b5881026000612f79858363ffffffff612f8216565b95945050505050565b6000808211612fa35760405162461bcd60e51b81526004016108a5906147ad565b818381612fac57fe5b049392505050565b60008282604051602001612fc992919061448c565b60408051601f1981840301815291905280516020909101209392505050565b600080612ffc84600a63ffffffff612f8216565b90506122e661301d600061301784600263ffffffff61294316565b866137e8565b61302d868463ffffffff6123d316565b9063ffffffff6125d416565b3b151590565b600054610100900460ff16806130585750613058612418565b80613066575060005460ff16155b6130825760405162461bcd60e51b81526004016108a5906148b0565b600054610100900460ff161580156124a7576000805460ff1961ff00199091166101001716600117905580156108fb576000805461ff001916905550565b6000816130cc57600080fd5b60006001600160c01b0384116130f15782604085901b816130e957fe5b0490506131f6565b60c084811c640100000000811061310a576020918201911c5b62010000811061311c576010918201911c5b610100811061312d576008918201911c5b6010811061313d576004918201911c5b6004811061314d576002918201911c5b6002811061315c576001820191505b60bf820360018603901c6001018260ff0387901b8161317757fe5b0492506001600160801b0383111561318e57600080fd5b608085901c83026001600160801b038616840260c088901c604089901b828110156131ba576001820391505b608084901b929003828110156131d1576001820391505b829003608084901c82146131e157fe5b8881816131ea57fe5b04870196505050505050505b6001600160801b038111156110a557600080fd5b60006110a5836001600160a01b03841661385b565b60006110a5836001600160a01b0384166138a5565b815460009082106132575760405162461bcd60e51b81526004016108a590614668565b82600001828154811061326657fe5b9060005260206000200154905092915050565b60009081526001919091016020526040902054151590565b5490565b606654604051634a83e9cd60e11b8152600091829182916001600160a01b031690639507d39a906132ca908890600401614483565b6101006040518083038186803b1580156132e357600080fd5b505afa1580156132f7573d6000803e3d6000fd5b505050506040513d601f19601f8201168201806040525081019061331b91906140eb565b50505050509250925050600061333c8760ff16612bf88460ff1660646124bb565b60765490915060009061335d9061ffff90811690612bf890871660646124bb565b90506000805b828110156133f25760006133778983612fb4565b90506000613385868361396b565b905060006133938e83613afe565b90506133aa8562ffffff831663ffffffff6125d416565b945060007f1d71850d974d512b8a465f268b9d3772ac5a9c6410d5b2518f842afb2d7dbbb882846040516133df929190614ac8565b60405180910390a2505050600101613363565b509998505050505050505050565b606654604051634a83e9cd60e11b8152600091829182916001600160a01b031690639507d39a90613435908890600401614483565b6101006040518083038186803b15801561344e57600080fd5b505afa158015613462573d6000803e3d6000fd5b505050506040513d601f19601f8201168201806040525081019061348691906140eb565b5050505050925092505060006134a78760ff16612bf88460ff1660646124bb565b90506134b68160ff1686612fe8565b6076549091506000906134d79061ffff90811690612bf890871660646124bb565b90506000805b828110156133f25760006134f18983612fb4565b905060006134ff868361396b565b9050600061350d8e83613afe565b90506135248562ffffff831663ffffffff6125d416565b945060017f1d71850d974d512b8a465f268b9d3772ac5a9c6410d5b2518f842afb2d7dbbb88284604051613559929190614ac8565b60405180910390a25050506001016134dd565b600061c35061138882613626613584600b600a6124bb565b6065546040516305d8c2a360e11b81526136219162ffffff8816916001600160a01b0390911690630bb18546906135c09060ff906004016145f3565b60206040518083038186803b1580156135d857600080fd5b505afa1580156135ec573d6000803e3d6000fd5b505050506040513d601f19601f8201168201806040525081019061361091906141ba565b62ffffff169063ffffffff6125d416565b6125f9565b905060006136756136396009600a6124bb565b6065546040516305d8c2a360e11b81526136219162ffffff8816916001600160a01b0390911690630bb18546906135c0906000906004016145f3565b905060006136b161369462ffffff89811690851663ffffffff6123d316565b6136ac62ffffff86811690861663ffffffff6123d316565b6124bb565b905060006136c06001806124bb565b905060006136d0600160026124bb565b905060006136ef826136ea856136e588613b90565b613bb2565b613be6565b90506136fd81607f546125f9565b9a9950505050505050505050565b60006110a5606d54612bf88462ffffff168662ffffff166124bb565b60008082116137485760405162461bcd60e51b81526004016108a590614879565b81838161375157fe5b069392505050565b60606137ae826040518060400160405280602081526020017f5361666545524332303a206c6f772d6c6576656c2063616c6c206661696c6564815250856001600160a01b0316613c1c9092919063ffffffff16565b805190915015612f4057808060200190518101906137cc9190613f47565b612f405760405162461bcd60e51b81526004016108a5906149f1565b600080613800600161302d868863ffffffff6123d316565b9050600061383d82856040516020016138199190614483565b60408051601f1981840301815291905280516020909101209063ffffffff61372716565b905061384f818763ffffffff6125d416565b925050505b9392505050565b60006138678383613279565b61389d575081546001818101845560008481526020808220909301849055845484825282860190935260409020919091556110a8565b5060006110a8565b6000818152600183016020526040812054801561396157835460001980830191908101906000908790839081106138d857fe5b90600052602060002001549050808760000184815481106138f557fe5b60009182526020808320909101929092558281526001898101909252604090209084019055865487908061392557fe5b600190038181906000526020600020016000905590558660010160008781526020019081526020016000206000905560019450505050506110a8565b60009150506110a8565b600060216064830660ff85166139915761398860006002866137e8565b925050506110a8565b60008560ff161180156139a75750818560ff1611155b15613a5f5760006139c18360ff881663ffffffff6123d316565b905060006139dd600161302d8660ff8b1663ffffffff6123d316565b90506000613a086139f860ff8a16600263ffffffff612f8216565b61302d848863ffffffff6125d416565b9050828411613a1f576000955050505050506110a8565b8284118015613a2e5750808411155b15613a41576001955050505050506110a8565b80841115613a57576002955050505050506110a8565b505050613af6565b818560ff16118015613a75575060528560ff1611155b15613ad4576000613ab3613a9260ff88168563ffffffff6123d316565b611341613aa686600263ffffffff612f8216565b869063ffffffff6125d416565b9050808211613ac857600193505050506110a8565b600293505050506110a8565b60528560ff161115613aeb576002925050506110a8565b6000925050506110a8565b505092915050565b600060ff8216613b3b57613b34613b208462ffffff16612bf8600f60646124bb565b62ffffff858116911663ffffffff6123d316565b9250613b89565b8160ff1660011415613b4c57613b89565b8160ff1660021415613b8457613b34613b708462ffffff16612bf8600f60646124bb565b62ffffff858116911663ffffffff6125d416565b600092505b5090919050565b60008082600f0b1215613ba257600080fd5b6110a8604083600f0b901b613c2b565b6000600f83810b9083900b0160016001607f1b03198112801590613bdd575060016001607f1b038113155b6110a557600080fd5b6000600f83810b9083900b0260401d60016001607f1b03198112801590613bdd575060016001607f1b038113156110a557600080fd5b60606122e68484600085613d72565b600081613c3a57506000610b0e565b816001600160801b8210613c535760809190911c9060401b5b680100000000000000008210613c6e5760409190911c9060201b5b6401000000008210613c855760209190911c9060101b5b620100008210613c9a5760109190911c9060081b5b6101008210613cae5760089190911c9060041b5b60108210613cc15760049190911c9060021b5b60088210613ccd5760011b5b6001818581613cd857fe5b048201901c90506001818581613cea57fe5b048201901c90506001818581613cfc57fe5b048201901c90506001818581613d0e57fe5b048201901c90506001818581613d2057fe5b048201901c90506001818581613d3257fe5b048201901c90506001818581613d4457fe5b048201901c90506000818581613d5657fe5b049050808210613d665780613d68565b815b9350505050610b0e565b606082471015613d945760405162461bcd60e51b81526004016108a590614767565b613d9d85613039565b613db95760405162461bcd60e51b81526004016108a5906149ba565b60006060866001600160a01b03168587604051613dd69190614451565b60006040518083038185875af1925050503d8060008114613e13576040519150601f19603f3d011682016040523d82523d6000602084013e613e18565b606091505b5091509150613e28828286613e33565b979650505050505050565b60608315613e42575081613854565b825115613e525782518084602001fd5b8160405162461bcd60e51b81526004016108a59190614601565b60405180608001604052806004905b613e83613e99565b815260200190600190039081613e7b5790505090565b604080516060810182526000808252602082018190529181019190915290565b600060608284031215613eca578081fd5b613ed46060614bd3565b90508135613ee181614c6b565b81526020820135613ef181614c92565b60208201526040820135613f0481614c5b565b604082015292915050565b600060208284031215613f20578081fd5b81356110a581614c2a565b600060208284031215613f3c578081fd5b81516110a581614c2a565b600060208284031215613f58578081fd5b815180151581146110a5578182fd5b600060208284031215613f78578081fd5b5035919050565b60008060408385031215613f91578081fd5b823591506020830135613fa381614c2a565b809150509250929050565b60008060408385031215613fc0578182fd5b50508035926020909101359150565b600080600080600060a08688031215613fe6578081fd5b8535613ff181614c2a565b9450602086013561400181614c2a565b9350604086013561401181614c2a565b9250606086013561402181614c2a565b9150608086013561403181614c2a565b809150509295509295909350565b600060208284031215614050578081fd5b813580600f0b81146110a5578182fd5b600060608284031215614071578081fd5b6110a58383613eb9565b60006020828403121561408c578081fd5b81356110a581614c3f565b6000602082840312156140a8578081fd5b81516110a581614c3f565b6000602082840312156140c4578081fd5b81356110a581614c5b565b6000602082840312156140e0578081fd5b81516110a581614c5b565b600080600080600080600080610100898b031215614107578586fd5b885161411281614c5b565b60208a015190985061412381614c5b565b60408a015190975061413481614c92565b60608a015190965061414581614c92565b60808a015190955061415681614c92565b60a08a015190945061416781614c92565b60c08a015190935061417881614c92565b60e08a0151909250801515811461418d578182fd5b809150509295985092959890939650565b6000602082840312156141af578081fd5b81356110a581614c6b565b6000602082840312156141cb578081fd5b81516110a581614c6b565b600080604083850312156141e8578182fd5b82356141f381614c6b565b91506020830135613fa381614c6b565b600080600080600080610100878903121561421c578384fd5b863561422781614c6b565b9550602087013561423781614c6b565b9450604087013561424781614c7c565b9350606087013561425781614c5b565b92506080870135915061426d8860a08901613eb9565b90509295509295509295565b60006020828403121561428a578081fd5b5051919050565b600080604083850312156142a3578182fd5b8235915060208084013567ffffffffffffffff808211156142c2578384fd5b81860187601f8201126142d3578485fd5b80359250818311156142e3578485fd5b6142f5601f8401601f19168501614bd3565b9150828252878484830101111561430a578485fd5b8284820185840137509081019091019190915290939092509050565b60008060008084860360c081121561433c578283fd5b85359450602086013593506060603f1982011215614358578283fd5b5060408501915060a085013561436d81614c92565b939692955090935050565b60008060006060848603121561438c578081fd5b505081359360208301359350604090920135919050565b6000602082840312156143b4578081fd5b81516110a581614c7c565b6000602082840312156143d0578081fd5b81356110a581614c92565b6000602082840312156143ec578081fd5b81516110a581614c92565b60008060408385031215614409578182fd5b825161441481614c92565b6020840151909250613fa381614c5b565b6000815180845261443d816020860160208601614bfa565b601f01601f19169290920160200192915050565b60008251614463818460208701614bfa565b9190910192915050565b6923a0a6a2afa0a226a4a760b11b8152600a0190565b90815260200190565b918252602082015260400190565b6001600160a01b0391909116815260200190565b6001600160a01b039384168152919092166020820152604081019190915260600190565b6001600160a01b03929092168252602082015260400190565b6001600160a01b038516815260208101849052608081016003841061450c57fe5b60408201939093526060015292915050565b6101808101818360005b600481101561456c578151805162ffffff16845260208082015160ff168186015260409182015161ffff169185019190915260609093019290910190600101614528565b50505092915050565b6020808252825182820181905260009190848201906040850190845b818110156145ad57835183529284019291840191600101614591565b50909695505050505050565b901515815260200190565b92151583526001600160a01b03919091166020830152604082015260600190565b600f9190910b815260200190565b60ff91909116815260200190565b6000602082526110a56020830184614425565b6020808252601f908201527f4e65772065706f63682063616e6e6f7420626520737461727465642079657400604082015260600190565b60208082526003908201526227a1a160e91b604082015260600190565b60208082526022908201527f456e756d657261626c655365743a20696e646578206f7574206f6620626f756e604082015261647360f01b606082015260800190565b6020808252602f908201527f416363657373436f6e74726f6c3a2073656e646572206d75737420626520616e60408201526e0818591b5a5b881d1bc819dc985b9d608a1b606082015260800190565b6020808252601b908201527f536166654d6174683a206164646974696f6e206f766572666c6f770000000000604082015260600190565b6020808252601e908201527f536166654d6174683a207375627472616374696f6e206f766572666c6f770000604082015260600190565b60208082526026908201527f416464726573733a20696e73756666696369656e742062616c616e636520666f6040820152651c8818d85b1b60d21b606082015260800190565b6020808252601a908201527f536166654d6174683a206469766973696f6e206279207a65726f000000000000604082015260600190565b60208082526030908201527f416363657373436f6e74726f6c3a2073656e646572206d75737420626520616e60408201526f2061646d696e20746f207265766f6b6560801b606082015260800190565b6020808252600e908201526d15185c99d95d081a5b9d985b1a5960921b604082015260600190565b6020808252600390820152624e474160e81b604082015260600190565b60208082526018908201527f536166654d6174683a206d6f64756c6f206279207a65726f0000000000000000604082015260600190565b6020808252602e908201527f496e697469616c697a61626c653a20636f6e747261637420697320616c72656160408201526d191e481a5b9a5d1a585b1a5e995960921b606082015260800190565b60208082526021908201527f536166654d6174683a206d756c7469706c69636174696f6e206f766572666c6f6040820152607760f81b606082015260800190565b60208082526024908201527f556e61626c6520746f2070756c6c2066756e64732066726f6d20746865207365604082015263373232b960e11b606082015260800190565b60208082526017908201527f4e6f742074686520636861726163746572206f776e6572000000000000000000604082015260600190565b6020808252601d908201527f416464726573733a2063616c6c20746f206e6f6e2d636f6e7472616374000000604082015260600190565b6020808252602a908201527f5361666545524332303a204552433230206f7065726174696f6e20646964206e6040820152691bdd081cdd58d8d9595960b21b606082015260800190565b6020808252602f908201527f416363657373436f6e74726f6c3a2063616e206f6e6c792072656e6f756e636560408201526e103937b632b9903337b91039b2b63360891b606082015260800190565b6020808252601490820152732737ba103a3432903bb2b0b837b71037bbb732b960611b604082015260600190565b62ffffff91909116815260200190565b62ffffff92909216825260ff16602082015260400190565b6000838252604060208301526122e66040830184614425565b91825261ffff16602082015260400190565b96875262ffffff958616602088015260ff9490941660408701529184166060860152909216608084015261ffff90911660a083015260c082015260e00190565b93845262ffffff92909216602084015260ff908116604084015216606082015260800190565b9283526020830191909152604082015260600190565b91825260ff16602082015260400190565b60ff9586168152938516602085015291909316604083015262ffffff909216606082015267ffffffffffffffff909116608082015260a00190565b60405181810167ffffffffffffffff81118282101715614bf257600080fd5b604052919050565b60005b83811015614c15578181015183820152602001614bfd565b83811115614c24576000848401525b50505050565b6001600160a01b03811681146108fb57600080fd5b6dffffffffffffffffffffffffffff811681146108fb57600080fd5b61ffff811681146108fb57600080fd5b62ffffff811681146108fb57600080fd5b67ffffffffffffffff811681146108fb57600080fd5b60ff811681146108fb57600080fdfea264697066735822122012936094b5ac48b39f490cc9bc0829a7a798c85d54244524211c70a866fe90e364736f6c63430006050033",
  "immutableReferences": {},
  "source": "pragma solidity ^0.6.0;\npragma experimental ABIEncoderV2;\n\nimport \"@openzeppelin/contracts-upgradeable/proxy/Initializable.sol\";\nimport \"@openzeppelin/contracts-upgradeable/access/AccessControlUpgradeable.sol\";\nimport \"@openzeppelin/contracts/math/SafeMath.sol\";\nimport \"abdk-libraries-solidity/ABDKMath64x64.sol\";\nimport \"@openzeppelin/contracts-upgradeable/token/ERC20/IERC20Upgradeable.sol\";\nimport \"@openzeppelin/contracts-upgradeable/token/ERC20/SafeERC20Upgradeable.sol\";\nimport \"./interfaces/IRandoms.sol\";\nimport \"./interfaces/IPriceOracle.sol\";\nimport \"./characters.sol\";\nimport \"./weapons.sol\";\nimport \"./util.sol\";\nimport \"./interfaces/ICharacter.sol\";\nimport \"./interfaces/ICipherCore.sol\";\n\ncontract CryptoShooters is Initializable, AccessControlUpgradeable, ICharacter {\n    using ABDKMath64x64 for int128;\n    using SafeMath for uint256;\n    using SafeMath for uint64;\n    using SafeMath for uint24;\n    using SafeMath for uint8;\n    using SafeERC20Upgradeable for IERC20Upgradeable;\n\n    bytes32 public constant GAME_ADMIN = keccak256(\"GAME_ADMIN\");\n\n    // Payment must be recent enough that the hash is available for the payment block.\n    // Use 200 as a 'friendly' window of \"You have 10 minutes.\"\n    uint256 public constant MINT_PAYMENT_TIMEOUT = 200;\n    uint256 public constant MINT_PAYMENT_RECLAIM_MINIMUM_WAIT_TIME = 3 hours;\n\n    Characters public characters;\n    Weapons public weapons;\n    IERC20Upgradeable public tagToken;//0x154A9F9cbd3449AD22FDaE23044319D6eF2a1Fab;\n    IPriceOracle public priceOracleTagPerUsd;\n    IRandoms public randoms;\n\n    function initialize(\n        IERC20Upgradeable _tagToken,\n        Characters _characters,\n        Weapons _weapons,\n        IPriceOracle _priceOracleTagPerUsd,\n        IRandoms _randoms\n        ) public initializer {\n        __AccessControl_init();\n\n        _setupRole(DEFAULT_ADMIN_ROLE, msg.sender);\n        _setupRole(GAME_ADMIN, msg.sender);\n\n        tagToken = _tagToken;\n        characters = _characters;\n        weapons = _weapons;\n        priceOracleTagPerUsd = _priceOracleTagPerUsd;\n        randoms = _randoms;\n\n        fightXpGain = 32;\n        staminaCostFight = 40;\n        mintCharacterFee = ABDKMath64x64.divu(10, 1);//10 usd;\n        mintWeaponFee = ABDKMath64x64.divu(3, 1);//3 usd;\n\n        durabilityCostFight = 40;\n\n        fightRewardBaseline = ABDKMath64x64.divu(344, 1000); // 0.08 x 4.3\n    }\n\n    // prices & payouts are in USD, with 4 decimals of accuracy in 64.64 fixed point format\n    int128 public mintCharacterFee;\n    int128 public mintWeaponFee;\n    uint8 staminaCostFight;\n    uint8 durabilityCostFight;\n    int128 public fightRewardBaseline; // [not used]\n    int128 public fightRewardGasOffset; // [not used]\n    uint256 public fightXpGain; // multiplied based on power differences\n\n    mapping(address => uint256) tokenRewards; // user adress : skill wei\n    mapping(uint256 => uint256) xpRewards; // character id : xp\n\n\n\n    mapping(address => uint256) lastBlockNumberCalled;\n    mapping(address => uint256) public inGameOnlyFunds;\n    uint256 public totalInGameOnlyFunds;\n    \n\n    event FightOutcome(address indexed owner, uint256 indexed character, uint256 weapon, uint32 targetPower, uint8 targetTrait, uint24 playerRoll, uint24 enemyRoll, uint16 xpGain, uint256 skillGain);\n    event ShotOutcome(uint8 indexed player, uint256 totalDamage, uint8 bodyPartHit);\n    // event AccuracyAndShots(uint8 accuracy, int128 accuracy128, uint256 shots, int128 shots128);\n\n    struct MintPayment {\n        bytes32 blockHash;\n        uint256 blockNumber;\n        address nftAddress;\n        uint count;\n    }\n\n    struct Target {\n        uint24 power;\n        uint8 trait;\n        uint16 fireRate;\n    }\n\n    // event verifyFailed( uint24 power, uint24 wpower, uint64 stamina, uint16 fireRate, uint256 hour);\n    // event targetData (uint256 indexed num, uint24 power, uint8 trait, uint16 fireRate);\n\n    mapping(address => MintPayment) mintPayments;\n\n    struct MintPaymentSkillDeposited {\n        uint256 skillDepositedFromWallet;\n        uint256 skillDepositedFromRewards;\n        uint256 skillDepositedFromIgo;\n\n        uint256 skillRefundableFromWallet;\n        uint256 skillRefundableFromRewards;\n        uint256 skillRefundableFromIgo;\n\n        uint256 refundClaimableTimestamp;\n    }\n\n    uint256 public totalMintPaymentSkillRefundable;\n    \n    mapping(address => MintPaymentSkillDeposited) mintPaymentSkillDepositeds;\n    uint16 combatDuration;\n\n    event MintWeaponsSuccess(address indexed minter, uint32 count);\n    event MintWeaponsFailure(address indexed minter, uint32 count);\n\n    event OverflowRewardWon(address indexed player, uint reward);\n    event TagsHarvested(uint256 amount);\n\n    ICipherCore public cipherCore;\n    uint256 public totalEpochRewards;\n    uint256 public nextEpochStartTimestamp;\n    uint256 public epochDuration;\n    uint256 public overflowReward;\n    uint256 public chanceOfWinningOverflow;\n    int128 public treasuryTax;\n    address public treasury;\n    uint256 public totalPlayerRewards;\n    uint256 public fightRewardBaseAmount;\n    int128 public burnPercentage;\n    uint256 public injectedRewards;\n\n    function mintCharacter(uint256 eliteId) public onlyNonContract oncePerBlock(msg.sender) {\n        // require to check if eliteId exist\n        uint256 tagAmount = usdTotag(mintCharacterFee);\n        (,, uint256 fromUserWallet) =\n            gettagToSubtract(\n                0,\n                tokenRewards[msg.sender],\n                tagAmount\n            );\n        require(tagToken.balanceOf(msg.sender) >= fromUserWallet);\n\n        uint256 convertedAmount = usdTotag(mintCharacterFee);\n        _payContractTokenOnly(msg.sender, convertedAmount);\n\n        uint256 seed = randoms.getRandomSeed(msg.sender);\n        characters.mint(msg.sender, seed, CharacterType.Trainee, eliteId);\n    }\n\n    function mintWeapon() public onlyNonContract oncePerBlock(msg.sender) {\n\n        uint256 tagAmount = usdTotag(mintWeaponFee);\n        (,, uint256 fromUserWallet) =\n            gettagToSubtract(\n                0,\n                tokenRewards[msg.sender],\n                tagAmount\n            );\n        require(tagToken.balanceOf(msg.sender) >= fromUserWallet);\n\n        uint256 convertedAmount = usdTotag(mintWeaponFee);\n        _payContractTokenOnly(msg.sender, convertedAmount);\n\n        uint256 seed = randoms.getRandomSeed(msg.sender);\n        weapons.mint(false, msg.sender, seed);\n    }\n\n    function getTargets(uint256 char, uint256 wep)\n        public\n        view\n        returns (Target[4] memory)\n    {\n        // (\n        //     uint24 wepPowerPlusBonus\n        // ) = weapons.getFightData(wep,characters.getElement(char),characters.getClass(char));\n\n        (uint16 wepPower,,,,,,,) = weapons.get(wep);\n\n        return\n            getTargetsInternal(\n                getPlayerPower(characters.getPower(char), wepPower),\n                weapons.getFireRate(wep),\n                characters.getStaminaTimestamp(char),\n                now.div(1 hours) \n            );\n    }\n\n    // x + y -- +-10% (90-110)\n    // ((x+y) +-10%) +-10% (81-119)\n\n\n    function getTargetsInternal(\n        uint24 playerPower,\n        uint16 fireRate,\n        uint64 staminaTimestamp,\n        uint256 currentHour\n    ) private pure returns (Target[4] memory) {\n        // 4 targets, roll powers based on character + weapon power\n        // targets expire on the hour\n        \n        // emit verifyFailed(playerPower, 0, staminaTimestamp, fireRate, currentHour );\n\n        uint256 baseSeed = RandomUtil.combineSeeds(\n            RandomUtil.combineSeeds(staminaTimestamp,\n            currentHour),\n            playerPower\n        );\n\n        Target[4] memory targets;\n        for(uint i = 0; i < targets.length; i++) {\n            // we alter seed per-index or they would be all the same\n            uint256 indexSeed = RandomUtil.combineSeeds(baseSeed, i);\n\n            targets[i] = Target(uint24(RandomUtil.plusMinus10PercentSeeded(playerPower, indexSeed)),\n                        uint8(indexSeed % 4),\n                        fireRate // make this same as player fire rate\n            );\n\n            // emit targetData(i, targets[i].power, targets[i].trait, targets[i].fireRate);\n        }\n\n        return targets;\n    }\n\n        // 40 bits -- 24 bits power 8 bits trait 8 bits fireRate\n\n        // Fighting Methods\n\n        function unpackFightData(uint112 playerData)\n            public pure returns (uint8 charTrait, uint8 charAccuracy, uint8 charClass, uint24 basePowerLevel, uint64 timestamp) {\n\n            charTrait = uint8(playerData & 0xFF);\n            charAccuracy = uint8((playerData >> 8) & 0xFF);\n            charClass = uint8((playerData >> 16) & 0xFF);\n            basePowerLevel = uint24((playerData >> 24) & 0xFFFFFF);\n            timestamp = uint64((playerData >> 48) & 0xFFFFFFFFFFFFFFFF);\n        }\n\n        function fight(\n            uint256 char,\n            uint256 wep,\n            Target calldata target,\n            uint8 fightMultiplier\n        ) external fightModifierChecks(char, wep) {\n            require(fightMultiplier >= 1 && fightMultiplier <= 5);\n             uint64 charStamina = characters.getStaminaTimestamp(char);\n\n            (\n                ,uint8 charAccuracy,,,\n                // uint64 timestamp\n            ) = unpackFightData(\n                    characters.getFightDataAndDrainStamina( \n                        char,\n                        uint8(fightMultiplier.mul(staminaCostFight))\n                    )\n            );\n            uint24 charPower = characters.getPower(char);\n            (uint16 wepPower,uint16 fireRate,,,uint8 weaponTrait,,,) = weapons.get(wep);\n\n            weapons.getFightDataAndDrainDurability(\n                    wep,\n                    uint8(fightMultiplier.mul(durabilityCostFight))\n            );\n\n            _verifyFight(\n                charPower,\n                wepPower,\n                charStamina,\n                fireRate,\n                target\n            );\n\n            performFight(char, \n                         wep, \n                         getPlayerPower(charPower, wepPower),\n                         uint24(target.power),\n                         uint8(target.trait),\n                         charAccuracy,\n                         fightMultiplier\n                         ); \n        }\n\n        function _verifyFight(\n            uint24 basePowerLevel,\n            uint24 weaponPower,\n            uint64 timestamp,\n            uint16 fireRate,\n            Target memory target\n        ) internal view {\n            verifyFight(\n                basePowerLevel,\n                weaponPower,\n                timestamp,\n                fireRate,\n                now.div(1 hours),\n                target\n            );\n        }\n\n        function verifyFight(\n            uint24 playerBasePower,\n            uint24 weaponPower,\n            uint64 staminaTimestamp,\n            uint16 fireRate,\n            uint256 hour,\n            Target memory target\n        ) public pure {\n            Target[4] memory targets = getTargetsInternal(\n                getPlayerPower(playerBasePower, weaponPower),\n                fireRate,\n                staminaTimestamp,\n                hour\n            );\n            bool foundMatch = false;\n            for (uint256 i = 0; i < targets.length; i++) {\n                if (targets[i].power == target.power && targets[i].trait == target.trait  && targets[i].fireRate == target.fireRate ) {\n                    foundMatch = true;\n                    i = targets.length;\n                }\n            }\n\n            // emit targetData(4, target.power, target.trait, target.fireRate);\n            // emit verifyFailed(playerBasePower, weaponPower,staminaTimestamp,fireRate,hour);\n            require(foundMatch, 'Target invalid');\n        }\n\n        function performFight(\n            uint256 char,\n            uint256 wep,\n            uint24 playerPower,\n            uint24 targetPower,\n            uint8 targetTrait,\n            uint8 playerAccuracy,\n            uint8 fightMultiplier\n        ) private {\n            uint256 seed = randoms.getRandomSeed(msg.sender);\n            uint8 charTrait = characters.getElement(char);\n            uint8 charClass = characters.getClass(char);\n            playerPower = weapons.getFightData(wep, playerPower, charTrait, charClass);\n\n            uint24 playerRoll = getPlayerPowerRoll(\n                playerPower, \n                playerAccuracy, \n                wep, \n                seed\n            );\n\n            if((((targetTrait + 1) % 4) == charTrait)) {\n               playerRoll = uint24(playerRoll.add(uint24(ABDKMath64x64.divu(1, 10).mulu(playerRoll))));\n            }\n\n            uint24 monsterRoll = getMonsterPowerRoll( \n                targetPower,\n                playerAccuracy,\n                wep,\n                RandomUtil.combineSeeds(seed, 1)\n            );\n\n            if((((charTrait + 1) % 4) == targetTrait)) {\n               monsterRoll = uint24(monsterRoll.add(uint24(ABDKMath64x64.divu(1, 10).mulu(monsterRoll))));\n            }\n            \n            uint16 xpRewardsToClaim = 0;\n            uint256 tokens = fightMultiplier.mul(getTokenGainForFight(targetPower));\n\n            // decrease reward if we are runing out of totalEpochRewards\n            if (totalEpochRewards < tokens) {\n                tokens = totalEpochRewards;\n            }\n\n            totalEpochRewards = totalEpochRewards.sub(tokens);\n\n            if (playerRoll > monsterRoll) {\n                xpRewardsToClaim = uint16(fightMultiplier.mul(getXpGainForFight(playerPower, targetPower)));\n\n                // Player won overflow reward\n                if (RandomUtil.combineSeeds(seed,block.timestamp).mod(chanceOfWinningOverflow) == 0) { \n                    tokens = tokens.add(overflowReward);\n                    emit OverflowRewardWon(msg.sender, overflowReward);\n                    overflowReward = 0;\n                }\n\n                tokenRewards[msg.sender] = tokenRewards[msg.sender].add(tokens);\n                totalPlayerRewards = totalPlayerRewards.add(tokens);\n            } else {\n                uint256 tokensToExcess = ABDKMath64x64.mulu(treasuryTax, tokens);\n                tokens = tokens.sub(tokensToExcess);\n                overflowReward = overflowReward.add(tokens);\n                tokens = 0;\n            }\n\n            if (xpRewardsToClaim > 65535) {\n                xpRewardsToClaim = 65535;\n            }\n            if(xpRewardsToClaim > 0) {\n                characters.gainXp(char, uint16(xpRewardsToClaim));\n            }\n            \n            emit FightOutcome(\n                msg.sender,\n                char,\n                wep,\n                targetPower,\n                targetTrait,\n                playerRoll,\n                monsterRoll,\n                xpRewardsToClaim,\n                tokens\n            );\n        }\n\n        // THIS CONTRACT NEEDS REVIEWING\n        function getPlayerPowerRoll(\n            uint24 playerFightPower,\n            uint8 playerAccuracy,\n            uint256 wep,\n            uint256 seed\n        ) internal returns (uint24) {\n            (\n                ,\n                uint16 _fireRate,\n                uint8 _accuracy,\n                ,\n                ,\n                ,\n                ,\n            ) = weapons.get(wep);\n\n            uint8 finalAccuracy = uint8(ABDKMath64x64.divu(_accuracy, 100).mulu(playerAccuracy));\n            uint256 shotsFired =  uint256(ABDKMath64x64.divu(_fireRate, 100).mulu(combatDuration)); // floor value\n            // uint8 finalAccuracy = uint8(ABDKMath64x64.divu(_accuracy, 100).mul(ABDKMath64x64.divu(playerAccuracy, 1)));\n            // uint256 shotsFired =  uint256(ABDKMath64x64.divu(_fireRate, 100).mul(ABDKMath64x64.divu(combatDuration, 1))); // floor value\n            // uint256 shotsFired = 3;\n            // emit AccuracyAndShots(finalAccuracy, ABDKMath64x64.divu(_accuracy, 100),shotsFired, ABDKMath64x64.divu(_fireRate, 100));\n            uint256 totalDamage = 0;\n            for (uint256 i = 0; i < shotsFired; i++) {\n                uint256 indexSeed = RandomUtil.combineSeeds(seed, i);\n                uint8 bodyPartHit = calculateBodyPartHit(finalAccuracy, indexSeed);\n                uint24 perShotDamage = calculateBodyPartShot(playerFightPower, bodyPartHit );\n                totalDamage = totalDamage.add(perShotDamage);\n                emit ShotOutcome(0, perShotDamage, bodyPartHit);\n            }\n\n            // uint256 playerPower = RandomUtil.plusMinus10PercentSeeded(\n            //     totalDamage,\n            //     seed\n            // );\n\n            return uint24(totalDamage);\n        }\n\n    // THIS CONTRACT NEEDS REVIEWING\n        function getMonsterPowerRoll(\n            uint24 monsterFightPower,\n            uint8 monsterAccuracy,\n            uint256 wep,\n            uint256 seed\n        ) internal returns (uint24) {\n            (\n                ,\n                uint16 _fireRate,\n                uint8 _accuracy,\n                ,\n                ,\n                ,\n                ,\n            ) = weapons.get(wep);\n\n            uint8 finalAccuracy = uint8(ABDKMath64x64.divu(_accuracy, 100).mulu(monsterAccuracy));\n            finalAccuracy = uint8(RandomUtil.plusMinus10PercentSeeded(\n                finalAccuracy,\n                seed\n            ));\n            uint256 shotsFired =  uint256(ABDKMath64x64.divu(_fireRate, 100).mulu(combatDuration)); // floor value\n            // emit AccuracyAndShots(finalAccuracy, ABDKMath64x64.divu(_accuracy, 100),shotsFired, ABDKMath64x64.divu(_fireRate, 100));\n            // uint8 finalAccuracy = uint8(ABDKMath64x64.divu(_accuracy, 100).mul(ABDKMath64x64.divu(monsterAccuracy, 1)));\n            // uint256 shotsFired =  uint256(ABDKMath64x64.divu(_fireRate, 100).mul(ABDKMath64x64.divu(combatDuration, 1))); // floor value\n            // uint256 shotsFired = 3;\n\n            uint256 totalDamage = 0;\n            for (uint256 i = 0; i < shotsFired; i++) {\n                uint256 indexSeed = RandomUtil.combineSeeds(seed, i);\n                uint8 bodyPartHit = calculateBodyPartHit(finalAccuracy, indexSeed);\n                uint24 perShotDamage = calculateBodyPartShot(monsterFightPower, bodyPartHit );\n                totalDamage = totalDamage.add(perShotDamage);\n                emit ShotOutcome(1, perShotDamage, bodyPartHit);\n            }\n\n            // uint256 monsterPower = RandomUtil.plusMinus10PercentSeeded(\n            //     totalDamage,\n            //     seed\n            // );\n            return uint24(totalDamage);\n        }\n\n    function calculateBodyPartShot(uint24 power, uint8 bodyPart) internal pure returns(uint24) {\n\n            // 0 -  (-15)% legs\n            // 1 - (0%) body\n            // 2 - (+15)% head\n            // int128 tPower = ABDKMath64x64.divu(power, 1);\n\n            if (bodyPart == 0) {\n                // power = power.sub(power.mul(ABDKMath64x64.divu(15, 100)));\n                power = uint24(power.sub( uint24((ABDKMath64x64.divu(15, 100)).mulu(power)) ));\n            } else if (bodyPart == 1) {\n                power = power;\n            } else if (bodyPart == 2) {\n                power = uint24(power.add( uint24((ABDKMath64x64.divu(15, 100)).mulu(power)) ));\n                // power = power.add(power.mul(ABDKMath64x64.divu(15, 100)));\n            } else {\n                power = 0;\n            }\n            return power;\n    }\n\n    // NEED A WORK\n    function calculateBodyPartHit(uint8 accuracy, uint256 seed)\n            internal\n            pure\n            returns (uint8)\n        {\n            uint256 base = 33;    \n            uint256 roll = seed % 100;\n            if (accuracy == 0) {\n                return uint8(RandomUtil.randomSeededMinMax(0, 2, seed));\n            } else if (accuracy > 0 && accuracy <= base) {\n                uint256 x1 = base.sub(accuracy);\n                uint256 x2 = base.sub(accuracy).add(1);\n                uint256 x3 = x2.add(base).add(accuracy.div(2));\n\n                if(roll>=0 && roll <= x1) {\n                    return 0;\n                } else if(roll>x1 && roll <= x3) {\n                    return 1;\n                } else if(roll > x3 ) {\n                    return 2;\n                }\n            } else if (accuracy > base && accuracy <= 82) {\n                \n                uint256 x1 =  (base.add(base.div(2))).sub(accuracy.sub(base));\n\n                if(roll >= 0 && roll <= x1) {\n                    return 1;\n                } else {\n                    return 2;\n                }\n            } else if(accuracy > 82) {\n                return 2;\n            } else {\n                return 0;\n            }\n    }\n\n    function getXpGainForFight(uint24 playerPower, uint24 monsterPower) internal view returns (uint16) {\n        return uint16(ABDKMath64x64.divu(monsterPower, playerPower).mulu(fightXpGain));\n    }\n\n    function getTokenGainForFight(uint24 monsterPower) internal view returns (uint256) {\n        uint24 maxWeaponPower = 50000;\n        uint24 minWeaponPower = 5000;\n        uint24 maxMonsterPower = uint24(ABDKMath64x64.mulu(\n            ABDKMath64x64.divu(11, 10),\n            (characters.getPowerAtLevel(255).add(maxWeaponPower))\n        ));\n        uint24 minMonsterPower = uint24(ABDKMath64x64.mulu(\n            ABDKMath64x64.divu(9, 10),\n            (characters.getPowerAtLevel(0).add(minWeaponPower))\n        ));\n        int128 k = ABDKMath64x64.divu(\n            monsterPower.sub(minMonsterPower),\n            maxMonsterPower.sub(minMonsterPower)\n        );\n        int128 one = ABDKMath64x64.divu(1, 1);\n        int128 half = ABDKMath64x64.divu(1, 2);\n        int128 m = ABDKMath64x64.mul(half, ABDKMath64x64.add(one, ABDKMath64x64.sqrt(k)));\n        return ABDKMath64x64.mulu(m, fightRewardBaseAmount);\n    }\n\n    function claimTokenRewards() public {\n        uint256 _tokenRewards = tokenRewards[msg.sender];\n        tokenRewards[msg.sender] = 0;\n        totalPlayerRewards = totalPlayerRewards.sub(_tokenRewards);\n\n        _payPlayerConverted(msg.sender, _tokenRewards);\n    }\n\n    function _payPlayerConverted(address playerAddress, uint256 convertedAmount) internal {\n        tagToken.safeTransfer(playerAddress, convertedAmount);\n    }\n\n    function usdTotag(int128 usdAmount) public view returns (uint256) {\n        return usdAmount.mulu(priceOracleTagPerUsd.currentPrice());\n    }\n\n    function gettagToSubtract(uint256 _inGameOnlyFunds, uint256 _tokenRewards, uint256 _tagNeeded)\n        public\n        pure\n        returns (uint256 fromInGameOnlyFunds, uint256 fromTokenRewards, uint256 fromUserWallet) {\n\n        if(_tagNeeded <= _inGameOnlyFunds) {\n            return (_tagNeeded, 0, 0);\n        }\n\n        _tagNeeded -= _inGameOnlyFunds;\n\n        if(_tagNeeded <= _tokenRewards) {\n            return (_inGameOnlyFunds, _tagNeeded, 0);\n        }\n\n        _tagNeeded -= _tokenRewards;\n\n        return (_inGameOnlyFunds, _tokenRewards, _tagNeeded);\n    }\n\n    function getMyCharacters() public view returns(uint256[] memory) {\n        uint256[] memory tokens = new uint256[](characters.balanceOf(msg.sender));\n        for(uint256 i = 0; i < tokens.length; i++) {\n            tokens[i] = characters.tokenOfOwnerByIndex(msg.sender, i);\n        }\n        return tokens;\n    }\n\n    function getMyWeapons() public view returns(uint256[] memory) {\n        uint256[] memory tokens = new uint256[](weapons.balanceOf(msg.sender));\n        for(uint256 i = 0; i < tokens.length; i++) {\n            tokens[i] = weapons.tokenOfOwnerByIndex(msg.sender, i);\n        }\n        return tokens;\n    }\n\n     function getTokenRewards() public view returns (uint256) {\n        return tokenRewards[msg.sender];\n    }\n\n    function getSkillToSubtract(uint256 _inGameOnlyFunds, uint256 _tokenRewards, uint256 _skillNeeded)\n        public\n        pure\n        returns (uint256 fromInGameOnlyFunds, uint256 fromTokenRewards, uint256 fromUserWallet) {\n\n        if(_skillNeeded <= _inGameOnlyFunds) {\n            return (_skillNeeded, 0, 0);\n        }\n\n        _skillNeeded -= _inGameOnlyFunds;\n\n        if(_skillNeeded <= _tokenRewards) {\n            return (_inGameOnlyFunds, _skillNeeded, 0);\n        }\n\n        _skillNeeded -= _tokenRewards;\n\n        return (_inGameOnlyFunds, _tokenRewards, _skillNeeded);\n    }\n\n    // can be called by anyone\n    function startNextEpoch() external {\n        require(now > nextEpochStartTimestamp, \"New epoch cannot be started yet\");\n        nextEpochStartTimestamp = nextEpochStartTimestamp.add(epochDuration);\n\n        if (nextEpochStartTimestamp < now) {\n            nextEpochStartTimestamp = now.add(epochDuration);\n        }\n\n        uint excessBalance = getExcessBalance();\n        if (excessBalance > 0) {\n            // pay tax\n            uint256 taxAmount = 0;\n            if (treasuryTax > 0) {\n                taxAmount = ABDKMath64x64.mulu(treasuryTax, excessBalance);\n                tagToken.safeTransfer(treasury, taxAmount);\n            }\n\n            // burn tokens\n            uint256 burnAmount = 0;\n            if (burnPercentage > 0) {\n                burnAmount = ABDKMath64x64.mulu(burnPercentage, excessBalance);\n                tagToken.safeTransfer(address(0), burnAmount);\n            }\n\n            excessBalance = excessBalance.sub(taxAmount).sub(burnAmount);\n\n            int128 oneThird = ABDKMath64x64.divu(1, 3);\n\n            // deposit to Cipher Core\n            uint256 depositAmount = ABDKMath64x64.mulu(oneThird, excessBalance);\n            tagToken.approve(address(cipherCore), depositAmount);\n            cipherCore.depositInTags(depositAmount);\n            excessBalance = excessBalance.sub(depositAmount);\n\n            // rollover to next epoch rewards\n            totalEpochRewards = ABDKMath64x64.mulu(oneThird, excessBalance);\n            excessBalance = excessBalance.sub(totalEpochRewards);\n\n            // send unclaimed rewards to overflow\n            overflowReward = overflowReward.add(excessBalance);\n        }\n        \n\n        // pull rewards from Core\n        uint balanceBefore = tagToken.balanceOf(address(this));\n        cipherCore.harvestYieldInTags();\n        uint harvested = tagToken.balanceOf(address(this)).sub(balanceBefore);\n        totalEpochRewards = totalEpochRewards.add(harvested);\n        emit TagsHarvested(harvested);\n\n        // add injected rewards\n        totalEpochRewards = totalEpochRewards.add(injectedRewards);\n        injectedRewards = 0;\n\n        // update reward formula multiplier\n        fightRewardBaseAmount = _calculateFightRewardBaseline(totalEpochRewards);\n    }\n\n    function injectRewards(uint256 amount) external {\n        require(\n            tagToken.transferFrom(_msgSender(), address(this), amount),\n            'Unable to pull funds from the sender'\n        );\n\n        injectedRewards = injectedRewards.add(amount);\n    }\n\n    function _calculateFightRewardBaseline(uint256 totalRewards) internal view returns (uint256) {\n        uint256 epochDurationInDays = epochDuration.div(1 days);\n        uint256 maxNumOfFights = 1000 * 7 * epochDurationInDays; // TODO: adjust -- update 1000 to current elite count\n        uint256 result = totalRewards.div(uint256(maxNumOfFights));\n\n        return result;\n    }\n\n    function _payContractTokenOnly(address playerAddress, uint256 convertedAmount) internal {\n        (, uint256 fromTokenRewards, uint256 fromUserWallet) =\n            gettagToSubtract(\n                0,\n                tokenRewards[playerAddress],\n                convertedAmount\n            );\n\n        tokenRewards[playerAddress] = tokenRewards[playerAddress].sub(fromTokenRewards);\n        totalPlayerRewards = totalPlayerRewards.sub(fromTokenRewards);\n        tagToken.transferFrom(playerAddress, address(this), fromUserWallet);\n    }\n\n    function setCombatDuration(uint16 duration) public restricted {\n        combatDuration = duration;\n    }\n\n    function setCharacterLimit(uint256 max) public restricted {\n        characters.setCharacterLimit(max);\n    }\n\n    function setClassURIs(uint256 index, string memory uri) public restricted {\n        characters.setClassURIs(index, uri);\n    }\n\n    function setGunTypeURIs(uint256 index, string memory uri) public restricted {\n        weapons.setGunTypeURIs(index, uri);\n    }\n\n    function setEpochDuration(uint256 duration) public restricted {\n        epochDuration = duration;\n    }\n\n    function setChanceOfWinningOverflow(uint256 chance) public restricted {\n        chanceOfWinningOverflow = chance;\n    }\n\n    function setTreasury(address _treasury) public restricted {\n        treasury = _treasury;\n    }\n\n    function setTreasuryTax(int128 _tax) public restricted {\n        treasuryTax = _tax;\n    }\n\n    function setBurnPercentage(int128 _burnPercentage) public restricted {\n        burnPercentage = _burnPercentage;\n    }\n\n    function setCore(ICipherCore _core) public restricted {\n        cipherCore = _core;\n    }\n\n    function setTagToken(IERC20Upgradeable _tagToken) public restricted {\n        tagToken = _tagToken;\n    }\n\n     function getPlayerPower(\n        uint24 basePower,\n        uint24 weaponPower\n    ) public pure returns(uint24) {\n        return uint24(weaponPower.add(basePower));\n    }\n\n    function getExcessBalance() public view returns (uint256){\n        uint balance = tagToken.balanceOf(address(this));\n        return balance.sub(overflowReward).sub(totalPlayerRewards);\n    }\n\n    modifier onlyNonContract() {\n        _onlyNonContract();\n        _;\n    }\n\n    function _onlyNonContract() internal view {\n        require(tx.origin == msg.sender);\n    }\n\n    modifier oncePerBlock(address user) {\n        _oncePerBlock(user);\n        _;\n    }\n\n    modifier restricted() {\n        _restricted();\n        _;\n    }\n\n    modifier isWeaponOwner(uint256 weapon) {\n        _isWeaponOwner(weapon);\n        _;\n    }\n\n    function _isWeaponOwner(uint256 weapon) internal view {\n        require(weapons.ownerOf(weapon) == msg.sender, \"Not the weapon owner\");\n    }\n\n     modifier isCharacterOwner(uint256 character) {\n            _isCharacterOwner(character);\n            _;\n        }\n\n    function _isCharacterOwner(uint256 character) internal view {\n            require(\n                characters.ownerOf(character) == msg.sender,\n                'Not the character owner'\n            );\n    }\n\n    modifier fightModifierChecks(uint256 character, uint256 weapon) {\n            // _onlyNonContract();\n            _isCharacterOwner(character);\n            _isWeaponOwner(weapon);\n            _;\n    }\n\n    modifier requestPayFromPlayer(int128 usdAmount) {\n        _requestPayFromPlayer(usdAmount);\n        _;\n    }\n\n    function _requestPayFromPlayer(int128 usdAmount) internal view {\n        uint256 skillAmount = usdTotag(usdAmount);\n\n        (,, uint256 fromUserWallet) =\n            getSkillToSubtract(\n                inGameOnlyFunds[msg.sender],\n                tokenRewards[msg.sender],\n                skillAmount\n            );\n\n        require(tagToken.balanceOf(msg.sender) >= fromUserWallet);\n    }\n\n    function _restricted() internal view {\n        require(hasRole(GAME_ADMIN, msg.sender), \"NGA\");\n    }\n\n    function _oncePerBlock(address user) internal {\n        require(lastBlockNumberCalled[user] < block.number, \"OCB\");\n        lastBlockNumberCalled[user] = block.number;\n    }\n}\n\n\n\n\n\n\n\n\n\n\n",
  "sourcePath": "/Users/school/dev/ciphershooters/contracts/cryptoshooter.sol",
  "compiler": {
    "name": "solc",
    "version": "0.6.5+commit.f956cc89.Emscripten.clang"
  },
  "schemaVersion": "3.4.3",
  "updatedAt": "2021-12-24T01:33:32.331Z",
  "devdoc": {
    "methods": {
      "getRoleAdmin(bytes32)": {
        "details": "Returns the admin role that controls `role`. See {grantRole} and {revokeRole}.     * To change a role's admin, use {_setRoleAdmin}."
      },
      "getRoleMember(bytes32,uint256)": {
        "details": "Returns one of the accounts that have `role`. `index` must be a value between 0 and {getRoleMemberCount}, non-inclusive.     * Role bearers are not sorted in any particular way, and their ordering may change at any point.     * WARNING: When using {getRoleMember} and {getRoleMemberCount}, make sure you perform all queries on the same block. See the following https://forum.openzeppelin.com/t/iterating-over-elements-on-enumerableset-in-openzeppelin-contracts/2296[forum post] for more information."
      },
      "getRoleMemberCount(bytes32)": {
        "details": "Returns the number of accounts that have `role`. Can be used together with {getRoleMember} to enumerate all bearers of a role."
      },
      "grantRole(bytes32,address)": {
        "details": "Grants `role` to `account`.     * If `account` had not been already granted `role`, emits a {RoleGranted} event.     * Requirements:     * - the caller must have ``role``'s admin role."
      },
      "hasRole(bytes32,address)": {
        "details": "Returns `true` if `account` has been granted `role`."
      },
      "renounceRole(bytes32,address)": {
        "details": "Revokes `role` from the calling account.     * Roles are often managed via {grantRole} and {revokeRole}: this function's purpose is to provide a mechanism for accounts to lose their privileges if they are compromised (such as when a trusted device is misplaced).     * If the calling account had been granted `role`, emits a {RoleRevoked} event.     * Requirements:     * - the caller must be `account`."
      },
      "revokeRole(bytes32,address)": {
        "details": "Revokes `role` from `account`.     * If `account` had been granted `role`, emits a {RoleRevoked} event.     * Requirements:     * - the caller must have ``role``'s admin role."
      }
    }
  },
  "userdoc": {
    "methods": {}
  }
}