{
  "contractName": "GameMaster",
  "abi": [
    {
      "anonymous": false,
      "inputs": [
        {
          "indexed": true,
          "internalType": "address",
          "name": "owner",
          "type": "address"
        },
        {
          "indexed": true,
          "internalType": "uint256",
          "name": "character",
          "type": "uint256"
        },
        {
          "indexed": false,
          "internalType": "uint256",
          "name": "weapon",
          "type": "uint256"
        },
        {
          "indexed": false,
          "internalType": "uint32",
          "name": "targetPower",
          "type": "uint32"
        },
        {
          "indexed": false,
          "internalType": "uint8",
          "name": "targetTrait",
          "type": "uint8"
        },
        {
          "indexed": false,
          "internalType": "uint24",
          "name": "playerRoll",
          "type": "uint24"
        },
        {
          "indexed": false,
          "internalType": "uint24",
          "name": "enemyRoll",
          "type": "uint24"
        },
        {
          "indexed": false,
          "internalType": "uint16",
          "name": "xpGain",
          "type": "uint16"
        },
        {
          "indexed": false,
          "internalType": "uint256",
          "name": "tagsGain",
          "type": "uint256"
        }
      ],
      "name": "FightOutcome",
      "type": "event"
    },
    {
      "anonymous": false,
      "inputs": [
        {
          "indexed": true,
          "internalType": "address",
          "name": "minter",
          "type": "address"
        },
        {
          "indexed": false,
          "internalType": "uint32",
          "name": "count",
          "type": "uint32"
        }
      ],
      "name": "MintWeaponsFailure",
      "type": "event"
    },
    {
      "anonymous": false,
      "inputs": [
        {
          "indexed": true,
          "internalType": "address",
          "name": "minter",
          "type": "address"
        },
        {
          "indexed": false,
          "internalType": "uint32",
          "name": "count",
          "type": "uint32"
        }
      ],
      "name": "MintWeaponsSuccess",
      "type": "event"
    },
    {
      "anonymous": false,
      "inputs": [
        {
          "indexed": true,
          "internalType": "address",
          "name": "player",
          "type": "address"
        },
        {
          "indexed": false,
          "internalType": "uint256",
          "name": "reward",
          "type": "uint256"
        }
      ],
      "name": "OverflowRewardWon",
      "type": "event"
    },
    {
      "anonymous": false,
      "inputs": [
        {
          "indexed": true,
          "internalType": "bytes32",
          "name": "param",
          "type": "bytes32"
        },
        {
          "indexed": false,
          "internalType": "uint256",
          "name": "prevValue",
          "type": "uint256"
        },
        {
          "indexed": false,
          "internalType": "uint256",
          "name": "newValue",
          "type": "uint256"
        }
      ],
      "name": "ParameterAdjusted",
      "type": "event"
    },
    {
      "anonymous": false,
      "inputs": [
        {
          "indexed": false,
          "internalType": "address",
          "name": "account",
          "type": "address"
        }
      ],
      "name": "Paused",
      "type": "event"
    },
    {
      "anonymous": false,
      "inputs": [
        {
          "indexed": true,
          "internalType": "bytes32",
          "name": "role",
          "type": "bytes32"
        },
        {
          "indexed": true,
          "internalType": "bytes32",
          "name": "previousAdminRole",
          "type": "bytes32"
        },
        {
          "indexed": true,
          "internalType": "bytes32",
          "name": "newAdminRole",
          "type": "bytes32"
        }
      ],
      "name": "RoleAdminChanged",
      "type": "event"
    },
    {
      "anonymous": false,
      "inputs": [
        {
          "indexed": true,
          "internalType": "bytes32",
          "name": "role",
          "type": "bytes32"
        },
        {
          "indexed": true,
          "internalType": "address",
          "name": "account",
          "type": "address"
        },
        {
          "indexed": true,
          "internalType": "address",
          "name": "sender",
          "type": "address"
        }
      ],
      "name": "RoleGranted",
      "type": "event"
    },
    {
      "anonymous": false,
      "inputs": [
        {
          "indexed": true,
          "internalType": "bytes32",
          "name": "role",
          "type": "bytes32"
        },
        {
          "indexed": true,
          "internalType": "address",
          "name": "account",
          "type": "address"
        },
        {
          "indexed": true,
          "internalType": "address",
          "name": "sender",
          "type": "address"
        }
      ],
      "name": "RoleRevoked",
      "type": "event"
    },
    {
      "anonymous": false,
      "inputs": [
        {
          "indexed": true,
          "internalType": "uint8",
          "name": "player",
          "type": "uint8"
        },
        {
          "indexed": false,
          "internalType": "uint256",
          "name": "totalDamage",
          "type": "uint256"
        },
        {
          "indexed": false,
          "internalType": "uint8",
          "name": "bodyPartHit",
          "type": "uint8"
        }
      ],
      "name": "ShotOutcome",
      "type": "event"
    },
    {
      "anonymous": false,
      "inputs": [
        {
          "indexed": false,
          "internalType": "uint256",
          "name": "amount",
          "type": "uint256"
        }
      ],
      "name": "TagsHarvested",
      "type": "event"
    },
    {
      "anonymous": false,
      "inputs": [
        {
          "indexed": false,
          "internalType": "address",
          "name": "account",
          "type": "address"
        }
      ],
      "name": "Unpaused",
      "type": "event"
    },
    {
      "inputs": [],
      "name": "DEFAULT_ADMIN_ROLE",
      "outputs": [
        {
          "internalType": "bytes32",
          "name": "",
          "type": "bytes32"
        }
      ],
      "stateMutability": "view",
      "type": "function"
    },
    {
      "inputs": [],
      "name": "GAME_ADMIN",
      "outputs": [
        {
          "internalType": "bytes32",
          "name": "",
          "type": "bytes32"
        }
      ],
      "stateMutability": "view",
      "type": "function"
    },
    {
      "inputs": [],
      "name": "burnPercentage",
      "outputs": [
        {
          "internalType": "int128",
          "name": "",
          "type": "int128"
        }
      ],
      "stateMutability": "view",
      "type": "function"
    },
    {
      "inputs": [],
      "name": "chanceOfWinningOverflow",
      "outputs": [
        {
          "internalType": "uint256",
          "name": "",
          "type": "uint256"
        }
      ],
      "stateMutability": "view",
      "type": "function"
    },
    {
      "inputs": [],
      "name": "characters",
      "outputs": [
        {
          "internalType": "contract Characters",
          "name": "",
          "type": "address"
        }
      ],
      "stateMutability": "view",
      "type": "function"
    },
    {
      "inputs": [],
      "name": "cipherChef",
      "outputs": [
        {
          "internalType": "contract IRewardsManager",
          "name": "",
          "type": "address"
        }
      ],
      "stateMutability": "view",
      "type": "function"
    },
    {
      "inputs": [],
      "name": "cipherCore",
      "outputs": [
        {
          "internalType": "contract ICipherCore",
          "name": "",
          "type": "address"
        }
      ],
      "stateMutability": "view",
      "type": "function"
    },
    {
      "inputs": [],
      "name": "crafting",
      "outputs": [
        {
          "internalType": "contract ICrafting",
          "name": "",
          "type": "address"
        }
      ],
      "stateMutability": "view",
      "type": "function"
    },
    {
      "inputs": [],
      "name": "eliteFee",
      "outputs": [
        {
          "internalType": "uint256",
          "name": "",
          "type": "uint256"
        }
      ],
      "stateMutability": "view",
      "type": "function"
    },
    {
      "inputs": [],
      "name": "epochDuration",
      "outputs": [
        {
          "internalType": "uint256",
          "name": "",
          "type": "uint256"
        }
      ],
      "stateMutability": "view",
      "type": "function"
    },
    {
      "inputs": [],
      "name": "fightRewardBaseAmount",
      "outputs": [
        {
          "internalType": "uint256",
          "name": "",
          "type": "uint256"
        }
      ],
      "stateMutability": "view",
      "type": "function"
    },
    {
      "inputs": [],
      "name": "fightXpGain",
      "outputs": [
        {
          "internalType": "uint256",
          "name": "",
          "type": "uint256"
        }
      ],
      "stateMutability": "view",
      "type": "function"
    },
    {
      "inputs": [
        {
          "internalType": "bytes32",
          "name": "role",
          "type": "bytes32"
        }
      ],
      "name": "getRoleAdmin",
      "outputs": [
        {
          "internalType": "bytes32",
          "name": "",
          "type": "bytes32"
        }
      ],
      "stateMutability": "view",
      "type": "function"
    },
    {
      "inputs": [
        {
          "internalType": "bytes32",
          "name": "role",
          "type": "bytes32"
        },
        {
          "internalType": "uint256",
          "name": "index",
          "type": "uint256"
        }
      ],
      "name": "getRoleMember",
      "outputs": [
        {
          "internalType": "address",
          "name": "",
          "type": "address"
        }
      ],
      "stateMutability": "view",
      "type": "function"
    },
    {
      "inputs": [
        {
          "internalType": "bytes32",
          "name": "role",
          "type": "bytes32"
        }
      ],
      "name": "getRoleMemberCount",
      "outputs": [
        {
          "internalType": "uint256",
          "name": "",
          "type": "uint256"
        }
      ],
      "stateMutability": "view",
      "type": "function"
    },
    {
      "inputs": [
        {
          "internalType": "bytes32",
          "name": "role",
          "type": "bytes32"
        },
        {
          "internalType": "address",
          "name": "account",
          "type": "address"
        }
      ],
      "name": "grantRole",
      "outputs": [],
      "stateMutability": "nonpayable",
      "type": "function"
    },
    {
      "inputs": [
        {
          "internalType": "bytes32",
          "name": "role",
          "type": "bytes32"
        },
        {
          "internalType": "address",
          "name": "account",
          "type": "address"
        }
      ],
      "name": "hasRole",
      "outputs": [
        {
          "internalType": "bool",
          "name": "",
          "type": "bool"
        }
      ],
      "stateMutability": "view",
      "type": "function"
    },
    {
      "inputs": [],
      "name": "injectedRewards",
      "outputs": [
        {
          "internalType": "uint256",
          "name": "",
          "type": "uint256"
        }
      ],
      "stateMutability": "view",
      "type": "function"
    },
    {
      "inputs": [],
      "name": "nextEpochStartTimestamp",
      "outputs": [
        {
          "internalType": "uint256",
          "name": "",
          "type": "uint256"
        }
      ],
      "stateMutability": "view",
      "type": "function"
    },
    {
      "inputs": [],
      "name": "overflowReward",
      "outputs": [
        {
          "internalType": "uint256",
          "name": "",
          "type": "uint256"
        }
      ],
      "stateMutability": "view",
      "type": "function"
    },
    {
      "inputs": [],
      "name": "overflowTax",
      "outputs": [
        {
          "internalType": "uint256",
          "name": "",
          "type": "uint256"
        }
      ],
      "stateMutability": "view",
      "type": "function"
    },
    {
      "inputs": [],
      "name": "overflowThreshold",
      "outputs": [
        {
          "internalType": "uint256",
          "name": "",
          "type": "uint256"
        }
      ],
      "stateMutability": "view",
      "type": "function"
    },
    {
      "inputs": [],
      "name": "paused",
      "outputs": [
        {
          "internalType": "bool",
          "name": "",
          "type": "bool"
        }
      ],
      "stateMutability": "view",
      "type": "function"
    },
    {
      "inputs": [],
      "name": "randoms",
      "outputs": [
        {
          "internalType": "contract IRandoms",
          "name": "",
          "type": "address"
        }
      ],
      "stateMutability": "view",
      "type": "function"
    },
    {
      "inputs": [
        {
          "internalType": "bytes32",
          "name": "role",
          "type": "bytes32"
        },
        {
          "internalType": "address",
          "name": "account",
          "type": "address"
        }
      ],
      "name": "renounceRole",
      "outputs": [],
      "stateMutability": "nonpayable",
      "type": "function"
    },
    {
      "inputs": [
        {
          "internalType": "bytes32",
          "name": "role",
          "type": "bytes32"
        },
        {
          "internalType": "address",
          "name": "account",
          "type": "address"
        }
      ],
      "name": "revokeRole",
      "outputs": [],
      "stateMutability": "nonpayable",
      "type": "function"
    },
    {
      "inputs": [],
      "name": "tagToken",
      "outputs": [
        {
          "internalType": "contract IERC20Upgradeable",
          "name": "",
          "type": "address"
        }
      ],
      "stateMutability": "view",
      "type": "function"
    },
    {
      "inputs": [
        {
          "internalType": "address",
          "name": "",
          "type": "address"
        }
      ],
      "name": "tokenRewards",
      "outputs": [
        {
          "internalType": "uint256",
          "name": "",
          "type": "uint256"
        }
      ],
      "stateMutability": "view",
      "type": "function"
    },
    {
      "inputs": [],
      "name": "totalEliteMinted",
      "outputs": [
        {
          "internalType": "uint256",
          "name": "",
          "type": "uint256"
        }
      ],
      "stateMutability": "view",
      "type": "function"
    },
    {
      "inputs": [],
      "name": "totalEliteToBeMinted",
      "outputs": [
        {
          "internalType": "uint256",
          "name": "",
          "type": "uint256"
        }
      ],
      "stateMutability": "view",
      "type": "function"
    },
    {
      "inputs": [],
      "name": "totalEpochRewards",
      "outputs": [
        {
          "internalType": "uint256",
          "name": "",
          "type": "uint256"
        }
      ],
      "stateMutability": "view",
      "type": "function"
    },
    {
      "inputs": [],
      "name": "totalPlayerRewards",
      "outputs": [
        {
          "internalType": "uint256",
          "name": "",
          "type": "uint256"
        }
      ],
      "stateMutability": "view",
      "type": "function"
    },
    {
      "inputs": [],
      "name": "totalTraineeMinted",
      "outputs": [
        {
          "internalType": "uint256",
          "name": "",
          "type": "uint256"
        }
      ],
      "stateMutability": "view",
      "type": "function"
    },
    {
      "inputs": [],
      "name": "totalTraineeToBeMinted",
      "outputs": [
        {
          "internalType": "uint256",
          "name": "",
          "type": "uint256"
        }
      ],
      "stateMutability": "view",
      "type": "function"
    },
    {
      "inputs": [],
      "name": "traineeFee",
      "outputs": [
        {
          "internalType": "uint256",
          "name": "",
          "type": "uint256"
        }
      ],
      "stateMutability": "view",
      "type": "function"
    },
    {
      "inputs": [],
      "name": "treasury",
      "outputs": [
        {
          "internalType": "address",
          "name": "",
          "type": "address"
        }
      ],
      "stateMutability": "view",
      "type": "function"
    },
    {
      "inputs": [],
      "name": "treasuryTax",
      "outputs": [
        {
          "internalType": "int128",
          "name": "",
          "type": "int128"
        }
      ],
      "stateMutability": "view",
      "type": "function"
    },
    {
      "inputs": [],
      "name": "weapons",
      "outputs": [
        {
          "internalType": "contract Weapons",
          "name": "",
          "type": "address"
        }
      ],
      "stateMutability": "view",
      "type": "function"
    },
    {
      "inputs": [
        {
          "internalType": "contract IERC20Upgradeable",
          "name": "_tagToken",
          "type": "address"
        },
        {
          "internalType": "contract Characters",
          "name": "_characters",
          "type": "address"
        },
        {
          "internalType": "contract Weapons",
          "name": "_weapons",
          "type": "address"
        },
        {
          "internalType": "contract IRandoms",
          "name": "_randoms",
          "type": "address"
        }
      ],
      "name": "initialize",
      "outputs": [],
      "stateMutability": "nonpayable",
      "type": "function"
    },
    {
      "inputs": [
        {
          "internalType": "enum ICharacter.CharacterType",
          "name": "ctype",
          "type": "uint8"
        }
      ],
      "name": "mintCharacter",
      "outputs": [],
      "stateMutability": "nonpayable",
      "type": "function"
    },
    {
      "inputs": [
        {
          "internalType": "uint256",
          "name": "char",
          "type": "uint256"
        },
        {
          "internalType": "uint256",
          "name": "wep",
          "type": "uint256"
        }
      ],
      "name": "getTargets",
      "outputs": [
        {
          "components": [
            {
              "internalType": "uint24",
              "name": "power",
              "type": "uint24"
            },
            {
              "internalType": "uint8",
              "name": "trait",
              "type": "uint8"
            },
            {
              "internalType": "uint16",
              "name": "fireRate",
              "type": "uint16"
            }
          ],
          "internalType": "struct IGameMaster.Target[4]",
          "name": "",
          "type": "tuple[4]"
        }
      ],
      "stateMutability": "view",
      "type": "function"
    },
    {
      "inputs": [
        {
          "internalType": "uint112",
          "name": "playerData",
          "type": "uint112"
        }
      ],
      "name": "unpackFightData",
      "outputs": [
        {
          "internalType": "uint8",
          "name": "charTrait",
          "type": "uint8"
        },
        {
          "internalType": "uint8",
          "name": "charAccuracy",
          "type": "uint8"
        },
        {
          "internalType": "uint8",
          "name": "charClass",
          "type": "uint8"
        },
        {
          "internalType": "uint24",
          "name": "basePowerLevel",
          "type": "uint24"
        },
        {
          "internalType": "uint64",
          "name": "timestamp",
          "type": "uint64"
        }
      ],
      "stateMutability": "pure",
      "type": "function"
    },
    {
      "inputs": [
        {
          "internalType": "uint256",
          "name": "char",
          "type": "uint256"
        },
        {
          "internalType": "uint256",
          "name": "wep",
          "type": "uint256"
        },
        {
          "components": [
            {
              "internalType": "uint24",
              "name": "power",
              "type": "uint24"
            },
            {
              "internalType": "uint8",
              "name": "trait",
              "type": "uint8"
            },
            {
              "internalType": "uint16",
              "name": "fireRate",
              "type": "uint16"
            }
          ],
          "internalType": "struct IGameMaster.Target",
          "name": "target",
          "type": "tuple"
        },
        {
          "internalType": "uint8",
          "name": "fightMultiplier",
          "type": "uint8"
        }
      ],
      "name": "fight",
      "outputs": [],
      "stateMutability": "nonpayable",
      "type": "function"
    },
    {
      "inputs": [
        {
          "internalType": "uint24",
          "name": "playerBasePower",
          "type": "uint24"
        },
        {
          "internalType": "uint24",
          "name": "weaponPower",
          "type": "uint24"
        },
        {
          "internalType": "uint64",
          "name": "staminaTimestamp",
          "type": "uint64"
        },
        {
          "internalType": "uint16",
          "name": "fireRate",
          "type": "uint16"
        },
        {
          "internalType": "uint256",
          "name": "hour",
          "type": "uint256"
        },
        {
          "components": [
            {
              "internalType": "uint24",
              "name": "power",
              "type": "uint24"
            },
            {
              "internalType": "uint8",
              "name": "trait",
              "type": "uint8"
            },
            {
              "internalType": "uint16",
              "name": "fireRate",
              "type": "uint16"
            }
          ],
          "internalType": "struct IGameMaster.Target",
          "name": "target",
          "type": "tuple"
        }
      ],
      "name": "verifyFight",
      "outputs": [],
      "stateMutability": "pure",
      "type": "function"
    },
    {
      "inputs": [],
      "name": "claimTokenRewards",
      "outputs": [],
      "stateMutability": "nonpayable",
      "type": "function"
    },
    {
      "inputs": [],
      "name": "getMyCharacters",
      "outputs": [
        {
          "internalType": "uint256[]",
          "name": "",
          "type": "uint256[]"
        }
      ],
      "stateMutability": "view",
      "type": "function"
    },
    {
      "inputs": [],
      "name": "getMyWeapons",
      "outputs": [
        {
          "internalType": "uint256[]",
          "name": "",
          "type": "uint256[]"
        }
      ],
      "stateMutability": "view",
      "type": "function"
    },
    {
      "inputs": [],
      "name": "startNextEpoch",
      "outputs": [],
      "stateMutability": "nonpayable",
      "type": "function"
    },
    {
      "inputs": [
        {
          "internalType": "uint256",
          "name": "amount",
          "type": "uint256"
        }
      ],
      "name": "injectRewards",
      "outputs": [],
      "stateMutability": "nonpayable",
      "type": "function"
    },
    {
      "inputs": [
        {
          "internalType": "uint16",
          "name": "duration",
          "type": "uint16"
        }
      ],
      "name": "setCombatDuration",
      "outputs": [],
      "stateMutability": "nonpayable",
      "type": "function"
    },
    {
      "inputs": [
        {
          "internalType": "uint256",
          "name": "duration",
          "type": "uint256"
        }
      ],
      "name": "setEpochDuration",
      "outputs": [],
      "stateMutability": "nonpayable",
      "type": "function"
    },
    {
      "inputs": [
        {
          "internalType": "uint256",
          "name": "chance",
          "type": "uint256"
        }
      ],
      "name": "setChanceOfWinningOverflow",
      "outputs": [],
      "stateMutability": "nonpayable",
      "type": "function"
    },
    {
      "inputs": [
        {
          "internalType": "address",
          "name": "_treasury",
          "type": "address"
        }
      ],
      "name": "setTreasury",
      "outputs": [],
      "stateMutability": "nonpayable",
      "type": "function"
    },
    {
      "inputs": [
        {
          "internalType": "int128",
          "name": "_tax",
          "type": "int128"
        }
      ],
      "name": "setTreasuryTax",
      "outputs": [],
      "stateMutability": "nonpayable",
      "type": "function"
    },
    {
      "inputs": [
        {
          "internalType": "int128",
          "name": "_burnPercentage",
          "type": "int128"
        }
      ],
      "name": "setBurnPercentage",
      "outputs": [],
      "stateMutability": "nonpayable",
      "type": "function"
    },
    {
      "inputs": [
        {
          "internalType": "uint256",
          "name": "_overflowThreshold",
          "type": "uint256"
        }
      ],
      "name": "setOverflowThreshold",
      "outputs": [],
      "stateMutability": "nonpayable",
      "type": "function"
    },
    {
      "inputs": [
        {
          "internalType": "uint256",
          "name": "_fightXpGain",
          "type": "uint256"
        }
      ],
      "name": "setFightXpGain",
      "outputs": [],
      "stateMutability": "nonpayable",
      "type": "function"
    },
    {
      "inputs": [
        {
          "internalType": "uint256",
          "name": "_fightRewardBaseAmount",
          "type": "uint256"
        }
      ],
      "name": "setFightRewardBaseAmount",
      "outputs": [],
      "stateMutability": "nonpayable",
      "type": "function"
    },
    {
      "inputs": [
        {
          "internalType": "uint256",
          "name": "_fee",
          "type": "uint256"
        }
      ],
      "name": "setEliteFee",
      "outputs": [],
      "stateMutability": "nonpayable",
      "type": "function"
    },
    {
      "inputs": [
        {
          "internalType": "uint256",
          "name": "_fee",
          "type": "uint256"
        }
      ],
      "name": "setTraineeFee",
      "outputs": [],
      "stateMutability": "nonpayable",
      "type": "function"
    },
    {
      "inputs": [
        {
          "internalType": "uint256",
          "name": "_value",
          "type": "uint256"
        }
      ],
      "name": "setTotalEliteToBeMinted",
      "outputs": [],
      "stateMutability": "nonpayable",
      "type": "function"
    },
    {
      "inputs": [],
      "name": "setTotalEliteMinted",
      "outputs": [],
      "stateMutability": "nonpayable",
      "type": "function"
    },
    {
      "inputs": [
        {
          "internalType": "uint256",
          "name": "_value",
          "type": "uint256"
        }
      ],
      "name": "setTotalTraineeToBeMinted",
      "outputs": [],
      "stateMutability": "nonpayable",
      "type": "function"
    },
    {
      "inputs": [],
      "name": "setTotalTraineeMinted",
      "outputs": [],
      "stateMutability": "nonpayable",
      "type": "function"
    },
    {
      "inputs": [
        {
          "internalType": "contract ICipherCore",
          "name": "_core",
          "type": "address"
        }
      ],
      "name": "setCore",
      "outputs": [],
      "stateMutability": "nonpayable",
      "type": "function"
    },
    {
      "inputs": [
        {
          "internalType": "contract ICrafting",
          "name": "_crafting",
          "type": "address"
        }
      ],
      "name": "setCrafting",
      "outputs": [],
      "stateMutability": "nonpayable",
      "type": "function"
    },
    {
      "inputs": [
        {
          "internalType": "contract IERC20Upgradeable",
          "name": "_tagToken",
          "type": "address"
        }
      ],
      "name": "setTagToken",
      "outputs": [],
      "stateMutability": "nonpayable",
      "type": "function"
    },
    {
      "inputs": [
        {
          "internalType": "contract IRewardsManager",
          "name": "_chef",
          "type": "address"
        }
      ],
      "name": "setRewardsManager",
      "outputs": [],
      "stateMutability": "nonpayable",
      "type": "function"
    },
    {
      "inputs": [],
      "name": "rewardsManager",
      "outputs": [
        {
          "internalType": "contract IRewardsManager",
          "name": "",
          "type": "address"
        }
      ],
      "stateMutability": "nonpayable",
      "type": "function"
    },
    {
      "inputs": [
        {
          "internalType": "uint24",
          "name": "basePower",
          "type": "uint24"
        },
        {
          "internalType": "uint24",
          "name": "weaponPower",
          "type": "uint24"
        }
      ],
      "name": "getPlayerPower",
      "outputs": [
        {
          "internalType": "uint24",
          "name": "",
          "type": "uint24"
        }
      ],
      "stateMutability": "pure",
      "type": "function"
    },
    {
      "inputs": [],
      "name": "getExcessBalance",
      "outputs": [
        {
          "internalType": "uint256",
          "name": "",
          "type": "uint256"
        }
      ],
      "stateMutability": "view",
      "type": "function"
    },
    {
      "inputs": [],
      "name": "pause",
      "outputs": [],
      "stateMutability": "nonpayable",
      "type": "function"
    },
    {
      "inputs": [],
      "name": "unpause",
      "outputs": [],
      "stateMutability": "nonpayable",
      "type": "function"
    }
  ],
  "bytecode": "0x608060405234801561001057600080fd5b5061572880620000216000396000f3fe608060405234801561001057600080fd5b50600436106104325760003560e01c806361d027b311610236578063b7e1cd861161013b578063defe2053116100c3578063f0f4426011610087578063f0f442601461080b578063f1bcd9471461081e578063f72d9c6914610826578063f8c8765e1461082e578063fb198c4a1461084157610432565b8063defe2053146107c0578063e36ed971146107c8578063ecfeb5ba146107db578063f0151b17146107f0578063f01f20df1461080357610432565b8063ca15c8731161010a578063ca15c87314610777578063cd09552d1461078a578063d070bb541461079d578063d0e13b7c146107a5578063d547741f146107ad57610432565b8063b7e1cd8614610757578063bee666d81461075f578063c27d126014610767578063c46a82381461076f57610432565b80638b7116ed116101be5780639d66e3551161018d5780639d66e35514610724578063a0199a971461072c578063a217fddf14610734578063a5ab5be61461073c578063a65261cd1461074457610432565b80638b7116ed146106ee5780639010d07c146106f657806391d148541461070957806391f1cf051461071c57610432565b80637d4c76eb116102055780637d4c76eb146106b057806380009630146106c35780638456cb59146106d6578063888b042f146106de57806389b56d32146106e657610432565b806361d027b314610674578063630ef1441461067c5780636b246e1c146106845780636e28b752146106a857610432565b80633bdc8a1f1161033c578063542c0ce6116102c457806359fbef9d1161029357806359fbef9d146106295780635c975abb1461063c5780635caf9a81146106515780636008596014610659578063613f13521461066c57610432565b8063542c0ce6146105f15780635504d3d21461061157806357fbf8a81461061957806359d939031461062157610432565b80634cbfc6361161030b5780634cbfc6361461059d5780634fb9d2cb146105b05780634ff0876a146105c3578063534db3b5146105cb578063536c4efc146105de57610432565b80633bdc8a1f146105655780633c4739d3146105785780633f4ba83a1461058057806346260aed1461058857610432565b80632d3df716116103bf57806330024dfe1161038e57806330024dfe1461050f57806330bd3eeb14610522578063336dfb461461053557806336568abe1461054a578063372e55871461055d57610432565b80632d3df716146104ce5780632d93ee49146104e15780632ebb8061146104f45780632f2ff15d146104fc57610432565b80630ec32977116104065780630ec32977146104905780631cc7259d14610498578063248a9ca3146104ab578063258347b7146104be5780632b97752b146104c657610432565b8062e94b181461043757806306feab231461044c5780630a8ddc5e1461045f5780630e918b5a14610472575b600080fd5b61044a61044536600461483c565b610861565b005b61044a61045a366004614a00565b6108d7565b61044a61046d3660046146e9565b6109bc565b61047a6109e6565b6040516104879190614cd7565b60405180910390f35b61044a6109ec565b61044a6104a636600461483c565b610a23565b61047a6104b9366004614741565b610a99565b61047a610ab1565b61047a610ab7565b61044a6104dc366004614741565b610abd565b61044a6104ef366004614804565b610b07565b61047a610feb565b61044a61050a366004614759565b610ff1565b61044a61051d366004614741565b611039565b61047a6105303660046146e9565b611083565b61053d611095565b6040516104879190614de4565b61044a610558366004614759565b611210565b61047a611252565b61044a610573366004614741565b611258565b61053d611318565b61044a61148d565b61059061149f565b6040516104879190614cee565b61044a6105ab366004614741565b6114ae565b61044a6105be3660046146e9565b6114f8565b61047a611522565b61044a6105d9366004614741565b611528565b61044a6105ec3660046146e9565b611572565b6106046105ff3660046149d3565b61159c565b604051610487919061552b565b61047a6115bf565b6105906115d6565b61044a6115e5565b61044a610637366004614741565b611673565b6106446116bd565b6040516104879190614e28565b61047a6116c6565b61044a610667366004614741565b6116cc565b61047a611716565b61059061171c565b61047a61172b565b610697610692366004614878565b611731565b6040516104879594939291906155dc565b61047a611766565b61044a6106be3660046148b0565b61176c565b61044a6106d13660046146e9565b6117d0565b61044a611802565b61047a611812565b61047a6118d2565b61047a6118d8565b610590610704366004614788565b6118de565b610644610717366004614759565b6118fc565b61059061191a565b61047a611929565b61044a61192f565b61047a6119bd565b61047a6119c2565b61044a610752366004614741565b6119c8565b610590611a12565b610590611a21565b61047a611a30565b61047a611a36565b61047a610785366004614741565b611a3c565b61044a610798366004614741565b611a53565b610590611a9d565b610590611aac565b61044a6107bb366004614759565b611ac1565b610590611afb565b61044a6107d6366004614741565b611b0a565b6107e3611b54565b6040516104879190614e48565b61044a6107fe366004614a8e565b611b5d565b6107e3611f0f565b61044a6108193660046146e9565b611f18565b61047a611f42565b61044a611f48565b61044a61083c3660046147a9565b6123e8565b61085461084f366004614788565b612508565b6040516104879190614d8d565b61086961274d565b60405161087590614c17565b60405190819003812060a95490916000805160206156d3833981519152916108a891600f91820b820b9186900b90614ce0565b60405180910390a260a98054600f9290920b6001600160801b03166001600160801b0319909216919091179055565b6108df61462b565b6108f46108ec888861159c565b858786612786565b90506000805b600481101561098b57835162ffffff1683826004811061091657fe5b60200201515162ffffff1614801561094b5750836020015160ff1683826004811061093d57fe5b60200201516020015160ff16145b80156109765750836040015161ffff1683826004811061096757fe5b60200201516040015161ffff16145b1561098357506001905060045b6001016108fa565b50806109b25760405162461bcd60e51b81526004016109a990615167565b60405180910390fd5b5050505050505050565b6109c461274d565b60b480546001600160a01b0319166001600160a01b0392909216919091179055565b60aa5481565b336000908152609c60205260408120805491905560a754610a13908263ffffffff61283016565b60a755610a203382612858565b50565b610a2b61274d565b604051610a3790614c5a565b60405190819003812060a55490916000805160206156d383398151915291610a6a91600f91820b820b9186900b90614ce0565b60405180910390a260a58054600f9290920b6001600160801b03166001600160801b0319909216919091179055565b6000818152603360205260409020600201545b919050565b60ad5481565b60ab5481565b610ac561274d565b604051610ad190614ca9565b60405180910390206000805160206156d383398151915260ac5483604051610afa929190614ce0565b60405180910390a260ac55565b610b0f6116bd565b15610b2c5760405162461bcd60e51b81526004016109a99061518f565b33610b3681612875565b6000826002811115610b4457fe5b1480610b5b57506001826002811115610b5957fe5b145b610b775760405162461bcd60e51b81526004016109a990614fc9565b609a54604051630e20f61560e21b81526000916001600160a01b031690633883d85490610ba8903390600401614cee565b60206040518083038186803b158015610bc057600080fd5b505afa158015610bd4573d6000803e3d6000fd5b505050506040513d601f19601f82011682018060405250810190610bf89190614a76565b9050600080846002811115610c0957fe5b1415610e065760ae5460b1541115610c335760405162461bcd60e51b81526004016109a9906152fa565b60ac54609954604051636eb1769f60e11b81526001600160a01b039091169063dd62ed3e90610c689033903090600401614d02565b60206040518083038186803b158015610c8057600080fd5b505afa158015610c94573d6000803e3d6000fd5b505050506040513d601f19601f82011682018060405250810190610cb89190614a76565b1015610cd65760405162461bcd60e51b81526004016109a990615331565b60a5546000600f91820b90910b1315610d245760a55460ac54610cfc91600f0b906128c8565b60a654609954919250610d24916001600160a01b03908116913391168463ffffffff61293016565b610d583330610d3e8460ac5461283090919063ffffffff16565b6099546001600160a01b031692919063ffffffff61293016565b6000610d816001610d75606460b15461298890919063ffffffff16565b9063ffffffff6129ba16565b60b154909150610d9890600163ffffffff6129ba16565b60b1556097546040516353d35f4b60e11b81526001600160a01b039091169063a7a6be9690610dd290339087906000908790600401614d59565b600060405180830381600087803b158015610dec57600080fd5b505af1158015610e00573d6000803e3d6000fd5b50505050505b6001846002811115610e1457fe5b1415610fe55760af5460b2541115610e3e5760405162461bcd60e51b81526004016109a99061502c565b60ad54609954604051636eb1769f60e11b81526001600160a01b039091169063dd62ed3e90610e739033903090600401614d02565b60206040518083038186803b158015610e8b57600080fd5b505afa158015610e9f573d6000803e3d6000fd5b505050506040513d601f19601f82011682018060405250810190610ec39190614a76565b1015610ee15760405162461bcd60e51b81526004016109a990615331565b60a5546000600f91820b90910b1315610f2f5760a55460ad54610f0791600f0b906128c8565b60a654609954919250610f2f916001600160a01b03908116913391168463ffffffff61293016565b610f493330610d3e8460ad5461283090919063ffffffff16565b60b254600090610f6090600563ffffffff61298816565b60b254909150610f7790600163ffffffff6129ba16565b60b2556097546040516353d35f4b60e11b81526001600160a01b039091169063a7a6be9690610fb190339087906001908790600401614d59565b600060405180830381600087803b158015610fcb57600080fd5b505af1158015610fdf573d6000803e3d6000fd5b50505050505b50505050565b60b05481565b60008281526033602052604090206002015461100f906107176129df565b61102b5760405162461bcd60e51b81526004016109a990614f4c565b61103582826129e3565b5050565b61104161274d565b60405161104d90614bab565b60405180910390206000805160206156d383398151915260a25483604051611076929190614ce0565b60405180910390a260a255565b609c6020526000908152604090205481565b6098546040516370a0823160e01b815260609182916001600160a01b03909116906370a08231906110ca903390600401614cee565b60206040518083038186803b1580156110e257600080fd5b505afa1580156110f6573d6000803e3d6000fd5b505050506040513d601f19601f8201168201806040525081019061111a9190614a76565b67ffffffffffffffff8111801561113057600080fd5b5060405190808252806020026020018201604052801561115a578160200160208202803683370190505b50905060005b815181101561120a57609854604051632f745c5960e01b81526001600160a01b0390911690632f745c599061119b9033908590600401614d40565b60206040518083038186803b1580156111b357600080fd5b505afa1580156111c7573d6000803e3d6000fd5b505050506040513d601f19601f820116820180604052508101906111eb9190614a76565b8282815181106111f757fe5b6020908102919091010152600101611160565b50905090565b6112186129df565b6001600160a01b0316816001600160a01b0316146112485760405162461bcd60e51b81526004016109a990615499565b6110358282612a52565b60a75481565b6099546001600160a01b03166323b872dd6112716129df565b30846040518463ffffffff1660e01b815260040161129193929190614d1c565b602060405180830381600087803b1580156112ab57600080fd5b505af11580156112bf573d6000803e3d6000fd5b505050506040513d601f19601f820116820180604052508101906112e39190614721565b6112ff5760405162461bcd60e51b81526004016109a99061527f565b60aa54611312908263ffffffff6129ba16565b60aa5550565b6097546040516370a0823160e01b815260609182916001600160a01b03909116906370a082319061134d903390600401614cee565b60206040518083038186803b15801561136557600080fd5b505afa158015611379573d6000803e3d6000fd5b505050506040513d601f19601f8201168201806040525081019061139d9190614a76565b67ffffffffffffffff811180156113b357600080fd5b506040519080825280602002602001820160405280156113dd578160200160208202803683370190505b50905060005b815181101561120a57609754604051632f745c5960e01b81526001600160a01b0390911690632f745c599061141e9033908590600401614d40565b60206040518083038186803b15801561143657600080fd5b505afa15801561144a573d6000803e3d6000fd5b505050506040513d601f19601f8201168201806040525081019061146e9190614a76565b82828151811061147a57fe5b60209081029190910101526001016113e3565b611495612ac1565b61149d612ae8565b565b60b4546001600160a01b031681565b6114b661274d565b6040516114c290614be1565b60405180910390206000805160206156d383398151915260ae54836040516114eb929190614ce0565b60405180910390a260ae55565b61150061274d565b60b380546001600160a01b0319166001600160a01b0392909216919091179055565b60a25481565b61153061274d565b60405161153c90614c31565b60405180910390206000805160206156d383398151915260a45483604051611565929190614ce0565b60405180910390a260a455565b61157a61274d565b609980546001600160a01b0319166001600160a01b0392909216919091179055565b60006115b662ffffff83811690851663ffffffff6129ba16565b90505b92915050565b6040516115cb90614c01565b604051809103902081565b6099546001600160a01b031681565b6115ed61274d565b609754604051635e56f08360e01b81526001600160a01b0390911690635e56f0839061161e90600090600401614e33565b60206040518083038186803b15801561163657600080fd5b505afa15801561164a573d6000803e3d6000fd5b505050506040513d601f19601f8201168201806040525081019061166e9190614a76565b60b155565b61167b61274d565b60405161168790614bc4565b60405180910390206000805160206156d383398151915260ab54836040516116b0929190614ce0565b60405180910390a260ab55565b60655460ff1690565b60a35481565b6116d461274d565b6040516116e090614c88565b60405180910390206000805160206156d383398151915260a85483604051611709929190614ce0565b60405180910390a260a855565b609b5481565b60a6546001600160a01b031681565b60ae5481565b60ff81811692600883901c821692601081901c90921691601881901c62ffffff169160309190911c67ffffffffffffffff1690565b60a15481565b61177461274d565b60405161178090614cbd565b604051908190038120609f5490916000805160206156d3833981519152916117b09161ffff909116908590615516565b60405180910390a2609f805461ffff191661ffff92909216919091179055565b6117d861274d565b609f80546001600160a01b03909216620100000262010000600160b01b0319909216919091179055565b61180a612ac1565b61149d612b56565b6099546040516370a0823160e01b815260009182916001600160a01b03909116906370a0823190611847903090600401614cee565b60206040518083038186803b15801561185f57600080fd5b505afa158015611873573d6000803e3d6000fd5b505050506040513d601f19601f820116820180604052508101906118979190614a76565b90506118cc60b0546118c060aa546118c060a7546118c060a3548861283090919063ffffffff16565b9063ffffffff61283016565b91505090565b60ac5481565b60b25481565b60008281526033602052604081206115b6908363ffffffff612bb116565b60008281526033602052604081206115b6908363ffffffff612bbd16565b60b3546001600160a01b031681565b60a45481565b61193761274d565b609754604051635e56f08360e01b81526001600160a01b0390911690635e56f0839061196890600190600401614e33565b60206040518083038186803b15801561198057600080fd5b505afa158015611994573d6000803e3d6000fd5b505050506040513d601f19601f820116820180604052508101906119b89190614a76565b60b255565b600081565b60b15481565b6119d061274d565b6040516119dc90614b73565b60405180910390206000805160206156d383398151915260ad5483604051611a05929190614ce0565b60405180910390a260ad55565b6098546001600160a01b031681565b609a546001600160a01b031681565b60a05481565b60a85481565b60008181526033602052604081206115b990612bd2565b611a5b61274d565b604051611a6790614b89565b60405180910390206000805160206156d383398151915260af5483604051611a90929190614ce0565b60405180910390a260af55565b6097546001600160a01b031681565b609f546201000090046001600160a01b031681565b600082815260336020526040902060020154611adf906107176129df565b6112485760405162461bcd60e51b81526004016109a990615117565b60b4546001600160a01b031690565b611b1261274d565b604051611b1e90614c71565b60405180910390206000805160206156d3833981519152609b5483604051611b47929190614ce0565b60405180910390a2609b55565b60a554600f0b81565b611b656116bd565b15611b825760405162461bcd60e51b81526004016109a99061518f565b8383611b8d82612bdd565b611b9681612c83565b60018360ff1610158015611bae575060058360ff1611155b611bb757600080fd5b609754604051630153b1ff60e61b81526000916001600160a01b0316906354ec7fc090611be8908a90600401614cd7565b60206040518083038186803b158015611c0057600080fd5b505afa158015611c14573d6000803e3d6000fd5b505050506040513d601f19601f82011682018060405250810190611c389190614ad5565b609754609a54919250600091611ce6916001600160a01b031690632ee6accf908b90611c779060ff8b811691600160a01b90041663ffffffff612d2916565b6040518363ffffffff1660e01b8152600401611c949291906155cb565b602060405180830381600087803b158015611cae57600080fd5b505af1158015611cc2573d6000803e3d6000fd5b505050506040513d601f19601f820116820180604052508101906106929190614894565b505060975460405163017fe80960e01b8152929450600093506001600160a01b03169163017fe8099150611d1e908c90600401614cd7565b60206040518083038186803b158015611d3657600080fd5b505afa158015611d4a573d6000803e3d6000fd5b505050506040513d601f19601f82011682018060405250810190611d6e91906149b7565b609854604051634a83e9cd60e11b815291925060009182916001600160a01b031690639507d39a90611da4908d90600401614cd7565b6101006040518083038186803b158015611dbd57600080fd5b505afa158015611dd1573d6000803e3d6000fd5b505050506040513d601f19601f82011682018060405250810190611df591906148e8565b5050609854609a54969850949650506001600160a01b039093169363c2aa718193508e9250611e38915060ff8d811691600160a81b90041663ffffffff612d2916565b6040518363ffffffff1660e01b8152600401611e559291906155cb565b6040805180830381600087803b158015611e6e57600080fd5b505af1158015611e82573d6000803e3d6000fd5b505050506040513d601f19601f82011682018060405250810190611ea69190614b29565b50611ec890508361ffff84168784611ec3368f90038f018f61485d565b612d63565b611f028b8b611edb868661ffff1661159c565b611ee860208e018e61499b565b8d6020016020810190611efb9190614af1565b898e612d82565b5050505050505050505050565b60a954600f0b81565b611f2061274d565b60a680546001600160a01b0319166001600160a01b0392909216919091179055565b60af5481565b60a1544211611f695760405162461bcd60e51b81526004016109a990614eb6565b60a25460a154611f7e9163ffffffff6129ba16565b60a1819055421115611fa25760a254611f9e90429063ffffffff6129ba16565b60a1555b60b05415611fd75760a65460b054609954611fd1926001600160a01b039182169291169063ffffffff6131f016565b600060b0555b6000611fe1611812565b905080156121f55760a554600090600f90810b900b8112156120335760a55461200d90600f0b836128c8565b60a654609954919250612033916001600160a01b0390811691168363ffffffff6131f016565b60a954600090600f90810b900b8112156120785760a95461205790600f0b846128c8565b609954909150612078906001600160a01b031660018363ffffffff6131f016565b61208c816118c0858563ffffffff61283016565b9250600061209c60016003613214565b905060006120aa82866128c8565b609954609f5460405163095ea7b360e01b81529293506001600160a01b039182169263095ea7b3926120e89262010000900416908590600401614d40565b602060405180830381600087803b15801561210257600080fd5b505af1158015612116573d6000803e3d6000fd5b505050506040513d601f19601f8201168201806040525081019061213a9190614721565b50609f546040516328dd51b760e11b8152620100009091046001600160a01b0316906351baa36e90612170908490600401614cd7565b600060405180830381600087803b15801561218a57600080fd5b505af115801561219e573d6000803e3d6000fd5b505050506121b5818661283090919063ffffffff16565b94506121c182866128c8565b60a08190556121d790869063ffffffff61283016565b60a3549095506121ed908663ffffffff6129ba16565b60a355505050505b6099546040516370a0823160e01b81526000916001600160a01b0316906370a0823190612226903090600401614cee565b60206040518083038186803b15801561223e57600080fd5b505afa158015612252573d6000803e3d6000fd5b505050506040513d601f19601f820116820180604052508101906122769190614a76565b9050609f60029054906101000a90046001600160a01b03166001600160a01b03166368898a2a6040518163ffffffff1660e01b8152600401600060405180830381600087803b1580156122c857600080fd5b505af11580156122dc573d6000803e3d6000fd5b50506099546040516370a0823160e01b815260009350612367925084916001600160a01b0316906370a0823190612317903090600401614cee565b60206040518083038186803b15801561232f57600080fd5b505afa158015612343573d6000803e3d6000fd5b505050506040513d601f19601f820116820180604052508101906118c09190614a76565b60a05490915061237d908263ffffffff6129ba16565b60a0556040517fe54dc2a1485b66f908a53e723950fdb3209957e8df712c1415f1c811d549b570906123b0908390614cd7565b60405180910390a160aa5460a0546123cd9163ffffffff6129ba16565b60a0819055600060aa556123e09061324b565b60a855505050565b600054610100900460ff16806124015750612401613322565b8061240f575060005460ff16155b61242b5760405162461bcd60e51b81526004016109a9906151f0565b600054610100900460ff16158015612456576000805460ff1961ff0019909116610100171660011790555b61245e613333565b61246960003361102b565b61248660405161247890614c01565b60405180910390203361102b565b609980546001600160a01b03199081166001600160a01b0388811691909117909255609780548216878416179055609880548216868416179055609a80546020609b559091169184169190911760ff60a01b1916600560a31b1760ff60a81b1916600560ab1b1790558015612501576000805461ff00191690555b5050505050565b61251061462b565b609854604051634a83e9cd60e11b81526000916001600160a01b031690639507d39a90612541908690600401614cd7565b6101006040518083038186803b15801561255a57600080fd5b505afa15801561256e573d6000803e3d6000fd5b505050506040513d601f19601f8201168201806040525081019061259291906148e8565b505060975460405163017fe80960e01b81529697506127459661262e96506001600160a01b03909116945063017fe80993506125d492508a9150600401614cd7565b60206040518083038186803b1580156125ec57600080fd5b505afa158015612600573d6000803e3d6000fd5b505050506040513d601f19601f8201168201806040525081019061262491906149b7565b8361ffff1661159c565b60985460405163154a06e360e01b81526001600160a01b039091169063154a06e39061265e908890600401614cd7565b60206040518083038186803b15801561267657600080fd5b505afa15801561268a573d6000803e3d6000fd5b505050506040513d601f19601f820116820180604052508101906126ae91906148cc565b609754604051630153b1ff60e61b81526001600160a01b03909116906354ec7fc0906126de908a90600401614cd7565b60206040518083038186803b1580156126f657600080fd5b505afa15801561270a573d6000803e3d6000fd5b505050506040513d601f19601f8201168201806040525081019061272e9190614ad5565b61274042610e1063ffffffff61298816565b612786565b949350505050565b61276a60405161275c90614c01565b6040518091039020336118fc565b61149d5760405162461bcd60e51b81526004016109a9906153c2565b61278e61462b565b60006127b26127a78567ffffffffffffffff16856133c5565b8762ffffff166133c5565b90506127bc61462b565b60005b60048110156128255760006127d484836133c5565b905060405180606001604052806127f08b62ffffff16846133f9565b62ffffff16815260038316602082015261ffff8a1660409091015283836004811061281757fe5b6020020152506001016127bf565b509695505050505050565b6000828211156128525760405162461bcd60e51b81526004016109a990615063565b50900390565b609954611035906001600160a01b0316838363ffffffff6131f016565b6001600160a01b0381166000908152609e602052604090205443116128ac5760405162461bcd60e51b81526004016109a990614eed565b6001600160a01b03166000908152609e60205260409020439055565b6000816128d7575060006115b9565b600083600f0b12156128e857600080fd5b600f83900b6001600160801b038316810260401c90608084901c026001600160c01b0381111561291757600080fd5b60401b811981111561292857600080fd5b019392505050565b610fe5846323b872dd60e01b85858560405160240161295193929190614d1c565b60408051601f198184030181529190526020810180516001600160e01b03166001600160e01b03199093169290921790915261343e565b60008082116129a95760405162461bcd60e51b81526004016109a9906150e0565b8183816129b257fe5b049392505050565b6000828201838110156115b65760405162461bcd60e51b81526004016109a990614ff5565b3390565b6000828152603360205260409020612a01908263ffffffff6134cd16565b1561103557612a0e6129df565b6001600160a01b0316816001600160a01b0316837f2f8788117e7eff1d82e926ec794901d17c78024a50270940304540a733656f0d60405160405180910390a45050565b6000828152603360205260409020612a70908263ffffffff6134e216565b1561103557612a7d6129df565b6001600160a01b0316816001600160a01b0316837ff6391f5c32d9c69d2a47ea670b442974b53935d1edc7fd64eb21e047a839171b60405160405180910390a45050565b612acc6000336118fc565b61149d5760405162461bcd60e51b81526004016109a99061535f565b612af06116bd565b612b0c5760405162461bcd60e51b81526004016109a990614f9b565b6065805460ff191690557f5db9ee0a495bf2e6ff9c91a7834c1ba4fdd244a5e8aa4e537bd38aeae4b073aa612b3f6129df565b604051612b4c9190614cee565b60405180910390a1565b612b5e6116bd565b15612b7b5760405162461bcd60e51b81526004016109a99061518f565b6065805460ff191660011790557f62e78cea01bee320cd4e420270b5ea74000d11b0c9f74754ebdbfc544b05a258612b3f6129df565b60006115b683836134f7565b60006115b6836001600160a01b03841661353c565b60006115b982613554565b6097546040516331a9108f60e11b815233916001600160a01b031690636352211e90612c0d908590600401614cd7565b60206040518083038186803b158015612c2557600080fd5b505afa158015612c39573d6000803e3d6000fd5b505050506040513d601f19601f82011682018060405250810190612c5d9190614705565b6001600160a01b031614610a205760405162461bcd60e51b81526004016109a9906152c3565b6098546040516331a9108f60e11b815233916001600160a01b031690636352211e90612cb3908590600401614cd7565b60206040518083038186803b158015612ccb57600080fd5b505afa158015612cdf573d6000803e3d6000fd5b505050506040513d601f19601f82011682018060405250810190612d039190614705565b6001600160a01b031614610a205760405162461bcd60e51b81526004016109a9906154e8565b600082612d38575060006115b9565b82820282848281612d4557fe5b04146115b65760405162461bcd60e51b81526004016109a99061523e565b61250185858585612d7c42610e1063ffffffff61298816565b866108d7565b609a54604051630e20f61560e21b81526000916001600160a01b031690633883d85490612db3903390600401614cee565b60206040518083038186803b158015612dcb57600080fd5b505afa158015612ddf573d6000803e3d6000fd5b505050506040513d601f19601f82011682018060405250810190612e039190614a76565b609754604051630e9f48af60e21b81529192506000916001600160a01b0390911690633a7d22bc90612e39908c90600401614cd7565b60206040518083038186803b158015612e5157600080fd5b505afa158015612e65573d6000803e3d6000fd5b505050506040513d601f19601f82011682018060405250810190612e899190614b0d565b60975460405163512d62df60e01b81529192506000916001600160a01b039091169063512d62df90612ebf908d90600401614cd7565b60206040518083038186803b158015612ed757600080fd5b505afa158015612eeb573d6000803e3d6000fd5b505050506040513d601f19601f82011682018060405250810190612f0f9190614b0d565b60985460405163e0f5ead960e01b81529192506001600160a01b03169063e0f5ead990612f46908c908c90879087906004016155a5565b60206040518083038186803b158015612f5e57600080fd5b505afa158015612f72573d6000803e3d6000fd5b505050506040513d601f19601f82011682018060405250810190612f9691906149b7565b97506000612fa689878c87613558565b90508260ff1660048860010160ff1681612fbc57fe5b0660ff16141561300457613001612fed8262ffffff16612fde60076064613214565b600f0b9063ffffffff6128c816565b62ffffff838116911663ffffffff6129ba16565b90505b600061301c89888d6130178960016133c5565b6136c3565b90508760ff1660048560010160ff168161303257fe5b0660ff16141561305757613054612fed8262ffffff16612fde60076064613214565b90505b60008062ffffff80841690851611156131895761308b6130778d8d61382f565b60ff8a169061ffff1663ffffffff612d2916565b91506130a96130998c61384b565b60ff8a169063ffffffff612d2916565b90508060a05410156130ba575060a0545b60a0546130cd908263ffffffff61283016565b60a0556130db8e88836139ea565b90506130e681613b9c565b6130f08e82613c71565b61ffff8261ffff1611156131045761ffff91505b61ffff82161561318457609760009054906101000a90046001600160a01b03166001600160a01b0316630fc005758f846040518363ffffffff1660e01b8152600401613151929190615553565b600060405180830381600087803b15801561316b57600080fd5b505af115801561317f573d6000803e3d6000fd5b505050505b613192565b61319281613b9c565b8d336001600160a01b03167f352ae2583ad5c07a93de17fe3936fdba5e677680c07a200c2df00365a9458ade8f8e8e898989896040516131d89796959493929190615565565b60405180910390a35050505050505050505050505050565b61320f8363a9059cbb60e01b8484604051602401612951929190614d40565b505050565b60008161322057600080fd5b600061322c8484613ce3565b905060016001607f1b036001600160801b03821611156115b657600080fd5b6000806132666201518060a25461298890919063ffffffff16565b609754604051635e56f08360e01b81529192506000916133059184916132f9916007916001600160a01b0390911690635e56f083906132a9908890600401614e33565b60206040518083038186803b1580156132c157600080fd5b505afa1580156132d5573d6000803e3d6000fd5b505050506040513d601f19601f820116820180604052508101906132f99190614a76565b9063ffffffff612d2916565b90506000613319858363ffffffff61298816565b95945050505050565b600061332d30613e2d565b15905090565b600054610100900460ff168061334c575061334c613322565b8061335a575060005460ff16155b6133765760405162461bcd60e51b81526004016109a9906151f0565b600054610100900460ff161580156133a1576000805460ff1961ff0019909116610100171660011790555b6133a9613e33565b6133b1613e33565b8015610a20576000805461ff001916905550565b600082826040516020016133da929190614ce0565b60408051601f1981840301815291905280516020909101209392505050565b60008061340d84600a63ffffffff61298816565b905061274561342e600061342884600263ffffffff612d2916565b86613eb4565b610d75868463ffffffff61283016565b6060613493826040518060400160405280602081526020017f5361666545524332303a206c6f772d6c6576656c2063616c6c206661696c6564815250856001600160a01b0316613f259092919063ffffffff16565b80519091501561320f57808060200190518101906134b19190614721565b61320f5760405162461bcd60e51b81526004016109a9906153f9565b60006115b6836001600160a01b038416613f34565b60006115b6836001600160a01b038416613f7e565b8154600090821061351a5760405162461bcd60e51b81526004016109a990614f0a565b82600001828154811061352957fe5b9060005260206000200154905092915050565b60009081526001919091016020526040902054151590565b5490565b609854604051634a83e9cd60e11b8152600091829182916001600160a01b031690639507d39a9061358d908890600401614cd7565b6101006040518083038186803b1580156135a657600080fd5b505afa1580156135ba573d6000803e3d6000fd5b505050506040513d601f19601f820116820180604052508101906135de91906148e8565b5050505050925092505060006135ff8760ff16612fde8460ff166064613214565b609f549091506000906136209061ffff90811690612fde9087166064613214565b90506000805b828110156136b557600061363a89836133c5565b905060006136488683614044565b905060006136568e836141d7565b905061366d8562ffffff831663ffffffff6129ba16565b945060007f1d71850d974d512b8a465f268b9d3772ac5a9c6410d5b2518f842afb2d7dbbb882846040516136a292919061553b565b60405180910390a2505050600101613626565b509998505050505050505050565b609854604051634a83e9cd60e11b8152600091829182916001600160a01b031690639507d39a906136f8908890600401614cd7565b6101006040518083038186803b15801561371157600080fd5b505afa158015613725573d6000803e3d6000fd5b505050506040513d601f19601f8201168201806040525081019061374991906148e8565b50505050509250925050600061376a8760ff16612fde8460ff166064613214565b90506137798160ff16866133f9565b609f5490915060009061379a9061ffff90811690612fde9087166064613214565b90506000805b828110156136b55760006137b489836133c5565b905060006137c28683614044565b905060006137d08e836141d7565b90506137e78562ffffff831663ffffffff6129ba16565b945060017f1d71850d974d512b8a465f268b9d3772ac5a9c6410d5b2518f842afb2d7dbbb8828460405161381c92919061553b565b60405180910390a25050506001016137a0565b60006115b6609b54612fde8462ffffff168662ffffff16613214565b600061c35061138882613905613863600b600a613214565b6097546040516305d8c2a360e11b81526139009162ffffff8816916001600160a01b0390911690630bb185469061389f9060ff90600401614e56565b60206040518083038186803b1580156138b757600080fd5b505afa1580156138cb573d6000803e3d6000fd5b505050506040513d601f19601f820116820180604052508101906138ef91906149b7565b62ffffff169063ffffffff6129ba16565b6128c8565b905060006139546139186009600a613214565b6097546040516305d8c2a360e11b81526139009162ffffff8816916001600160a01b0390911690630bb185469061389f90600090600401614e56565b9050600061399061397362ffffff89811690851663ffffffff61283016565b61398b62ffffff86811690861663ffffffff61283016565b613214565b9050600061399f600180613214565b905060006139af60016002613214565b905060006139ce826139c9856139c488614269565b61428b565b6142bf565b90506139dc8160a8546128c8565b9a9950505050505050505050565b609754604051631bd2a47760e01b815260009182916001600160a01b0390911690631bd2a47790613a1f908890600401614cd7565b60206040518083038186803b158015613a3757600080fd5b505afa158015613a4b573d6000803e3d6000fd5b505050506040513d601f19601f82011682018060405250810190613a6f9190614820565b905060008060a354118015613a9d5750613a9b60a454613a8f87426133c5565b9063ffffffff6142f516565b155b15613b8f576001826002811115613ab057fe5b1415613acb57613ac08685613c71565b506000925082613b4d565b60ab5460a35411613ade5760a354613ae2565b60ab545b60a354909150613af8908263ffffffff61283016565b60a35560a554600090613b0e90600f0b836128c8565b9050613b20828263ffffffff61283016565b60b054909250613b36908263ffffffff6129ba16565b60b055613b49858363ffffffff6129ba16565b9450505b336001600160a01b03167f52d8a99218ad7827c74971d54a5b7946f954c22ef6bdbaf3e53f488944a85c9082604051613b869190614cd7565b60405180910390a25b83925050505b9392505050565b336000908152609c602052604090205415613be557336000908152609c6020526040902054613bd290829063ffffffff6129ba16565b336000908152609c602052604081205590505b8015610a205760b454609954613c0e916001600160a01b0391821691168363ffffffff61432716565b60b454604051638dbdbe6d60e01b81526001600160a01b0390911690638dbdbe6d90613c439060009085903390600401614e64565b600060405180830381600087803b158015613c5d57600080fd5b505af1158015612501573d6000803e3d6000fd5b60b3546001600160a01b0316630b8e1d1483670de0b6b3a76400008404336040518463ffffffff1660e01b8152600401613cad93929190614e64565b600060405180830381600087803b158015613cc757600080fd5b505af1158015613cdb573d6000803e3d6000fd5b505050505050565b600081613cef57600080fd5b60006001600160c01b038411613d145782604085901b81613d0c57fe5b049050613e19565b60c084811c6401000000008110613d2d576020918201911c5b620100008110613d3f576010918201911c5b6101008110613d50576008918201911c5b60108110613d60576004918201911c5b60048110613d70576002918201911c5b60028110613d7f576001820191505b60bf820360018603901c6001018260ff0387901b81613d9a57fe5b0492506001600160801b03831115613db157600080fd5b608085901c83026001600160801b038616840260c088901c604089901b82811015613ddd576001820391505b608084901b92900382811015613df4576001820391505b829003608084901c8214613e0457fe5b888181613e0d57fe5b04870196505050505050505b6001600160801b038111156115b657600080fd5b3b151590565b600054610100900460ff1680613e4c5750613e4c613322565b80613e5a575060005460ff16155b613e765760405162461bcd60e51b81526004016109a9906151f0565b600054610100900460ff161580156133b1576000805460ff1961ff0019909116610100171660011790558015610a20576000805461ff001916905550565b600080613ecc6001610d75868863ffffffff61283016565b90506000613f098285604051602001613ee59190614cd7565b60408051601f1981840301815291905280516020909101209063ffffffff6142f516565b9050613f1b818763ffffffff6129ba16565b9695505050505050565b606061274584846000856143ea565b6000613f40838361353c565b613f76575081546001818101845560008481526020808220909301849055845484825282860190935260409020919091556115b9565b5060006115b9565b6000818152600183016020526040812054801561403a5783546000198083019190810190600090879083908110613fb157fe5b9060005260206000200154905080876000018481548110613fce57fe5b600091825260208083209091019290925582815260018981019092526040902090840190558654879080613ffe57fe5b600190038181906000526020600020016000905590558660010160008781526020019081526020016000206000905560019450505050506115b9565b60009150506115b9565b600060216064830660ff851661406a576140616000600286613eb4565b925050506115b9565b60008560ff161180156140805750818560ff1611155b1561413857600061409a8360ff881663ffffffff61283016565b905060006140b66001610d758660ff8b1663ffffffff61283016565b905060006140e16140d160ff8a16600263ffffffff61298816565b610d75848863ffffffff6129ba16565b90508284116140f8576000955050505050506115b9565b82841180156141075750808411155b1561411a576001955050505050506115b9565b80841115614130576002955050505050506115b9565b5050506141cf565b818560ff1611801561414e575060528560ff1611155b156141ad57600061418c61416b60ff88168563ffffffff61283016565b6118c061417f86600263ffffffff61298816565b869063ffffffff6129ba16565b90508082116141a157600193505050506115b9565b600293505050506115b9565b60528560ff1611156141c4576002925050506115b9565b6000925050506115b9565b505092915050565b600060ff82166142145761420d6141f98462ffffff16612fde600c6064613214565b62ffffff858116911663ffffffff61283016565b9250614262565b8160ff166001141561422557614262565b8160ff166002141561425d5761420d6142498462ffffff16612fde600c6064613214565b62ffffff858116911663ffffffff6129ba16565b600092505b5090919050565b60008082600f0b121561427b57600080fd5b6115b9604083600f0b901b6144ab565b6000600f83810b9083900b0160016001607f1b031981128015906142b6575060016001607f1b038113155b6115b657600080fd5b6000600f83810b9083900b0260401d60016001607f1b031981128015906142b6575060016001607f1b038113156115b657600080fd5b60008082116143165760405162461bcd60e51b81526004016109a9906151b9565b81838161431f57fe5b069392505050565b8015806143af5750604051636eb1769f60e11b81526001600160a01b0384169063dd62ed3e9061435d9030908690600401614d02565b60206040518083038186803b15801561437557600080fd5b505afa158015614389573d6000803e3d6000fd5b505050506040513d601f19601f820116820180604052508101906143ad9190614a76565b155b6143cb5760405162461bcd60e51b81526004016109a990615443565b61320f8363095ea7b360e01b8484604051602401612951929190614d40565b60608247101561440c5760405162461bcd60e51b81526004016109a99061509a565b61441585613e2d565b6144315760405162461bcd60e51b81526004016109a99061538b565b60006060866001600160a01b0316858760405161444e9190614b57565b60006040518083038185875af1925050503d806000811461448b576040519150601f19603f3d011682016040523d82523d6000602084013e614490565b606091505b50915091506144a08282866145f2565b979650505050505050565b6000816144ba57506000610aac565b816001600160801b82106144d35760809190911c9060401b5b6801000000000000000082106144ee5760409190911c9060201b5b64010000000082106145055760209190911c9060101b5b62010000821061451a5760109190911c9060081b5b610100821061452e5760089190911c9060041b5b601082106145415760049190911c9060021b5b6008821061454d5760011b5b600181858161455857fe5b048201901c9050600181858161456a57fe5b048201901c9050600181858161457c57fe5b048201901c9050600181858161458e57fe5b048201901c905060018185816145a057fe5b048201901c905060018185816145b257fe5b048201901c905060018185816145c457fe5b048201901c905060008185816145d657fe5b0490508082106145e657806145e8565b815b9350505050610aac565b60608315614601575081613b95565b8251156146115782518084602001fd5b8160405162461bcd60e51b81526004016109a99190614e83565b60405180608001604052806004905b614642614658565b81526020019060019003908161463a5790505090565b604080516060810182526000808252602082018190529181019190915290565b600060608284031215614689578081fd5b6040516060810181811067ffffffffffffffff821117156146a8578283fd5b60405290508082356146b98161569c565b815260208301356146c9816156c3565b602082015260408301356146dc8161568c565b6040919091015292915050565b6000602082840312156146fa578081fd5b81356115b68161564e565b600060208284031215614716578081fd5b81516115b68161564e565b600060208284031215614732578081fd5b815180151581146115b6578182fd5b600060208284031215614752578081fd5b5035919050565b6000806040838503121561476b578081fd5b82359150602083013561477d8161564e565b809150509250929050565b6000806040838503121561479a578182fd5b50508035926020909101359150565b600080600080608085870312156147be578182fd5b84356147c98161564e565b935060208501356147d98161564e565b925060408501356147e98161564e565b915060608501356147f98161564e565b939692955090935050565b600060208284031215614815578081fd5b81356115b681615663565b600060208284031215614831578081fd5b81516115b681615663565b60006020828403121561484d578081fd5b813580600f0b81146115b6578182fd5b60006060828403121561486e578081fd5b6115b68383614678565b600060208284031215614889578081fd5b81356115b681615670565b6000602082840312156148a5578081fd5b81516115b681615670565b6000602082840312156148c1578081fd5b81356115b68161568c565b6000602082840312156148dd578081fd5b81516115b68161568c565b600080600080600080600080610100898b031215614904578586fd5b885161490f8161568c565b60208a01519098506149208161568c565b60408a0151909750614931816156c3565b60608a0151909650614942816156c3565b60808a0151909550614953816156c3565b60a08a0151909450614964816156c3565b60c08a0151909350614975816156c3565b60e08a0151909250801515811461498a578182fd5b809150509295985092959890939650565b6000602082840312156149ac578081fd5b81356115b68161569c565b6000602082840312156149c8578081fd5b81516115b68161569c565b600080604083850312156149e5578182fd5b82356149f08161569c565b9150602083013561477d8161569c565b6000806000806000806101008789031215614a19578384fd5b8635614a248161569c565b95506020870135614a348161569c565b94506040870135614a44816156ad565b93506060870135614a548161568c565b925060808701359150614a6a8860a08901614678565b90509295509295509295565b600060208284031215614a87578081fd5b5051919050565b60008060008084860360c0811215614aa4578283fd5b85359450602086013593506060603f1982011215614ac0578283fd5b5060408501915060a08501356147f9816156c3565b600060208284031215614ae6578081fd5b81516115b6816156ad565b600060208284031215614b02578081fd5b81356115b6816156c3565b600060208284031215614b1e578081fd5b81516115b6816156c3565b60008060408385031215614b3b578182fd5b8251614b46816156c3565b602084015190925061477d8161568c565b60008251614b69818460208701615622565b9190910192915050565b69747261696e656546656560b01b8152600a0190565b751d1bdd185b151c985a5b9959551bd099535a5b9d195960521b815260160190565b6c32b837b1b4223ab930ba34b7b760991b8152600d0190565b701bdd995c999b1bddd51a1c995cda1bdb19607a1b815260110190565b731d1bdd185b115b1a5d19551bd099535a5b9d195960621b815260140190565b6923a0a6a2afa0a226a4a760b11b8152600a0190565b6d6275726e50657263656e7461676560901b8152600e0190565b7f6368616e63654f6657696e6e696e674f766572666c6f77000000000000000000815260170190565b6a0e8e4cac2e6eae4f2a8c2f60ab1b8152600b0190565b6a3334b3b43a2c3823b0b4b760a91b8152600b0190565b74199a59da1d14995dd85c9910985cd9505b5bdd5b9d605a1b815260150190565b67656c69746546656560c01b815260080190565b6d31b7b6b130ba223ab930ba34b7b760911b8152600e0190565b90815260200190565b918252602082015260400190565b6001600160a01b0391909116815260200190565b6001600160a01b0392831681529116602082015260400190565b6001600160a01b039384168152919092166020820152604081019190915260600190565b6001600160a01b03929092168252602082015260400190565b6001600160a01b03851681526020810184905260808101614d7984615617565b604083015282606083015295945050505050565b6101808101818360005b6004811015614ddb578151805162ffffff16845260208082015160ff168186015260409182015161ffff169185019190915260609093019290910190600101614d97565b50505092915050565b6020808252825182820181905260009190848201906040850190845b81811015614e1c57835183529284019291840191600101614e00565b50909695505050505050565b901515815260200190565b60208101614e4083615617565b825292915050565b600f9190910b815260200190565b60ff91909116815260200190565b92835260208301919091526001600160a01b0316604082015260600190565b6000602082528251806020840152614ea2816040850160208701615622565b601f01601f19169190910160400192915050565b6020808252601f908201527f4e65772065706f63682063616e6e6f7420626520737461727465642079657400604082015260600190565b60208082526003908201526227a1a160e91b604082015260600190565b60208082526022908201527f456e756d657261626c655365743a20696e646578206f7574206f6620626f756e604082015261647360f01b606082015260800190565b6020808252602f908201527f416363657373436f6e74726f6c3a2073656e646572206d75737420626520616e60408201526e0818591b5a5b881d1bc819dc985b9d608a1b606082015260800190565b60208082526014908201527314185d5cd8589b194e881b9bdd081c185d5cd95960621b604082015260600190565b602080825260129082015271496e76616c696420636c617373207479706560701b604082015260600190565b6020808252601b908201527f536166654d6174683a206164646974696f6e206f766572666c6f770000000000604082015260600190565b6020808252601d908201527f4e6f206d6f726520747261696e656573206c65667420746f206d696e74000000604082015260600190565b6020808252601e908201527f536166654d6174683a207375627472616374696f6e206f766572666c6f770000604082015260600190565b60208082526026908201527f416464726573733a20696e73756666696369656e742062616c616e636520666f6040820152651c8818d85b1b60d21b606082015260800190565b6020808252601a908201527f536166654d6174683a206469766973696f6e206279207a65726f000000000000604082015260600190565b60208082526030908201527f416363657373436f6e74726f6c3a2073656e646572206d75737420626520616e60408201526f2061646d696e20746f207265766f6b6560801b606082015260800190565b6020808252600e908201526d15185c99d95d081a5b9d985b1a5960921b604082015260600190565b60208082526010908201526f14185d5cd8589b194e881c185d5cd95960821b604082015260600190565b60208082526018908201527f536166654d6174683a206d6f64756c6f206279207a65726f0000000000000000604082015260600190565b6020808252602e908201527f496e697469616c697a61626c653a20636f6e747261637420697320616c72656160408201526d191e481a5b9a5d1a585b1a5e995960921b606082015260800190565b60208082526021908201527f536166654d6174683a206d756c7469706c69636174696f6e206f766572666c6f6040820152607760f81b606082015260800190565b60208082526024908201527f556e61626c6520746f2070756c6c2066756e64732066726f6d20746865207365604082015263373232b960e11b606082015260800190565b60208082526017908201527f4e6f742074686520636861726163746572206f776e6572000000000000000000604082015260600190565b6020808252601b908201527f4e6f206d6f726520656c69746573206c65667420746f206d696e740000000000604082015260600190565b6020808252601490820152734e6f7420656e6f75676820616c6c6f77616e636560601b604082015260600190565b60208082526012908201527120b236b4b7103937b632903732b2b232b21760711b604082015260600190565b6020808252601d908201527f416464726573733a2063616c6c20746f206e6f6e2d636f6e7472616374000000604082015260600190565b60208082526017908201527f47616d652061646d696e20726f6c65206e65656465642e000000000000000000604082015260600190565b6020808252602a908201527f5361666545524332303a204552433230206f7065726174696f6e20646964206e6040820152691bdd081cdd58d8d9595960b21b606082015260800190565b60208082526036908201527f5361666545524332303a20617070726f76652066726f6d206e6f6e2d7a65726f60408201527520746f206e6f6e2d7a65726f20616c6c6f77616e636560501b606082015260800190565b6020808252602f908201527f416363657373436f6e74726f6c3a2063616e206f6e6c792072656e6f756e636560408201526e103937b632b9903337b91039b2b63360891b606082015260800190565b6020808252601490820152732737ba103a3432903bb2b0b837b71037bbb732b960611b604082015260600190565b61ffff92831681529116602082015260400190565b62ffffff91909116815260200190565b62ffffff92909216825260ff16602082015260400190565b91825261ffff16602082015260400190565b96875262ffffff958616602088015260ff9490941660408701529184166060860152909216608084015261ffff90911660a083015260c082015260e00190565b93845262ffffff92909216602084015260ff908116604084015216606082015260800190565b91825260ff16602082015260400190565b60ff9586168152938516602085015291909316604083015262ffffff909216606082015267ffffffffffffffff909116608082015260a00190565b8060038110610aac57fe5b60005b8381101561563d578181015183820152602001615625565b83811115610fe55750506000910152565b6001600160a01b0381168114610a2057600080fd5b60038110610a2057600080fd5b6dffffffffffffffffffffffffffff81168114610a2057600080fd5b61ffff81168114610a2057600080fd5b62ffffff81168114610a2057600080fd5b67ffffffffffffffff81168114610a2057600080fd5b60ff81168114610a2057600080fdfe2923a68ab18857387a786f4b954442f28426fec438e8e215e37d3b5737480fa6a26469706673582212205d592baab4faec5190160b369f88d61639768bf478603eb7ce660d85a4443f6864736f6c63430006050033",
  "immutableReferences": {},
  "source": "// SPDX-License-Identifier: MIT\npragma solidity ^0.6.0;\npragma experimental ABIEncoderV2;\n\nimport '@openzeppelin/contracts-upgradeable/proxy/Initializable.sol';\nimport '@openzeppelin/contracts-upgradeable/access/AccessControlUpgradeable.sol';\nimport '@openzeppelin/contracts-upgradeable/utils/PausableUpgradeable.sol';\nimport '@openzeppelin/contracts/math/SafeMath.sol';\nimport 'abdk-libraries-solidity/ABDKMath64x64.sol';\nimport '@openzeppelin/contracts-upgradeable/token/ERC20/IERC20Upgradeable.sol';\nimport '@openzeppelin/contracts-upgradeable/token/ERC20/SafeERC20Upgradeable.sol';\nimport './interfaces/IRandoms.sol';\nimport './interfaces/IPriceOracle.sol';\nimport './characters.sol';\nimport './weapons.sol';\nimport './Crafting.sol';\nimport './util.sol';\nimport './interfaces/ICharacter.sol';\nimport './interfaces/ICipherCore.sol';\nimport './interfaces/IGameMaster.sol';\nimport './interfaces/ICrafting.sol';\nimport './RewardsManager/interfaces/IRewardsManager.sol';\n\ncontract GameMaster is Initializable, AccessControlUpgradeable, PausableUpgradeable, ICharacter, IGameMaster {\n    using ABDKMath64x64 for int128;\n    using SafeMath for uint256;\n    using SafeMath for uint64;\n    using SafeMath for uint24;\n    using SafeMath for uint8;\n    using SafeERC20Upgradeable for IERC20Upgradeable;\n\n    bytes32 public constant GAME_ADMIN = keccak256('GAME_ADMIN');\n\n    Characters public override characters;\n    Weapons public override weapons;\n    IERC20Upgradeable public override tagToken;\n    IRandoms public randoms;\n\n    function initialize(\n        IERC20Upgradeable _tagToken,\n        Characters _characters,\n        Weapons _weapons,\n        IRandoms _randoms\n    ) public initializer {\n        __AccessControl_init();\n\n        _setupRole(DEFAULT_ADMIN_ROLE, msg.sender);\n        _setupRole(GAME_ADMIN, msg.sender);\n\n        tagToken = _tagToken;\n        characters = _characters;\n        weapons = _weapons;\n        randoms = _randoms;\n\n        fightXpGain = 32;\n        staminaCostFight = 40;\n        durabilityCostFight = 40;\n    }\n\n    uint8 staminaCostFight;\n    uint8 durabilityCostFight;\n    uint256 public fightXpGain; // multiplied based on power differences\n\n    mapping(address => uint256) public tokenRewards; // user adress : tags wei\n    mapping(uint256 => uint256) xpRewards; // character id : xp\n\n    mapping(address => uint256) lastBlockNumberCalled;\n\n    event FightOutcome(\n        address indexed owner,\n        uint256 indexed character,\n        uint256 weapon,\n        uint32 targetPower,\n        uint8 targetTrait,\n        uint24 playerRoll,\n        uint24 enemyRoll,\n        uint16 xpGain,\n        uint256 tagsGain\n    );\n    event ShotOutcome(uint8 indexed player, uint256 totalDamage, uint8 bodyPartHit);\n\n    uint16 combatDuration;\n    uint8 constant FIGHTS_PER_ELITE_PER_DAY = 7;\n\n    event MintWeaponsSuccess(address indexed minter, uint32 count);\n    event MintWeaponsFailure(address indexed minter, uint32 count);\n\n    event OverflowRewardWon(address indexed player, uint256 reward);\n    event TagsHarvested(uint256 amount);\n\n    event ParameterAdjusted(bytes32 indexed param, uint256 prevValue, uint256 newValue);\n\n    ICipherCore public cipherCore;\n    uint256 public totalEpochRewards;\n    uint256 public nextEpochStartTimestamp;\n    uint256 public epochDuration;\n    uint256 public overflowReward;\n    uint256 public chanceOfWinningOverflow;\n    int128 public treasuryTax;\n    address public treasury;\n    uint256 public totalPlayerRewards;\n    uint256 public fightRewardBaseAmount;\n    int128 public burnPercentage;\n    uint256 public injectedRewards;\n    uint256 public overflowThreshold;\n    uint256 public eliteFee;\n    uint256 public traineeFee;\n    uint256 public totalEliteToBeMinted;\n    uint256 public totalTraineeToBeMinted;\n    uint256 public overflowTax;\n    uint256 public totalEliteMinted;\n    uint256 public totalTraineeMinted;\n    ICrafting public crafting;\n    IRewardsManager public cipherChef;\n\n    function mintCharacter(CharacterType ctype)\n        public\n        whenNotPaused\n        // onlyNonContract\n        oncePerBlock(msg.sender)\n    {\n        require(ctype == CharacterType.Elite || ctype == CharacterType.Trainee, 'Invalid class type');\n        uint256 seed = randoms.getRandomSeed(msg.sender);\n        uint256 taxAmount = 0;\n\n        if (ctype == CharacterType.Elite) {\n            require(totalEliteMinted <= totalEliteToBeMinted, 'No more elites left to mint');\n            require(tagToken.allowance(msg.sender, address(this)) >= eliteFee, 'Not enough allowance');\n\n            if (treasuryTax > 0) {\n                taxAmount = ABDKMath64x64.mulu(treasuryTax, eliteFee);\n                tagToken.safeTransferFrom(msg.sender, treasury, taxAmount);\n            }\n            tagToken.safeTransferFrom(msg.sender, address(this), eliteFee.sub(taxAmount));\n\n            // all operators have a parent eliteId, for elites it will be between 1-10\n            // totalEliteMinted.div(100).add(1) calculates the same for elites\n            uint256 parentEliteId = totalEliteMinted.div(100).add(1);\n            totalEliteMinted = totalEliteMinted.add(1);\n            characters.mint(msg.sender, seed, CharacterType.Elite, parentEliteId);\n        }\n        if (ctype == CharacterType.Trainee) {\n            require(totalTraineeMinted <= totalTraineeToBeMinted, 'No more trainees left to mint');\n            require(tagToken.allowance(msg.sender, address(this)) >= traineeFee, 'Not enough allowance');\n\n            if (treasuryTax > 0) {\n                taxAmount = ABDKMath64x64.mulu(treasuryTax, traineeFee);\n                tagToken.safeTransferFrom(msg.sender, treasury, taxAmount);\n            }\n            tagToken.safeTransferFrom(msg.sender, address(this), traineeFee.sub(taxAmount));\n\n            // all operators have a parent eliteId, consequetive 5 trainees will have the same parent elite\n            // totalTraineeMinted.div(5) calculates the same for trainees\n            uint256 parentEliteId = totalTraineeMinted.div(5);\n            totalTraineeMinted = totalTraineeMinted.add(1);\n            characters.mint(msg.sender, seed, CharacterType.Trainee, parentEliteId);\n        }\n    }\n\n    function getTargets(uint256 char, uint256 wep) public view returns (Target[4] memory) {\n        (uint16 wepPower, , , , , , , ) = weapons.get(wep);\n\n        return\n            getTargetsInternal(\n                getPlayerPower(characters.getPower(char), wepPower),\n                weapons.getFireRate(wep),\n                characters.getStaminaTimestamp(char),\n                now.div(1 hours)\n            );\n    }\n\n    function getTargetsInternal(\n        uint24 playerPower,\n        uint16 fireRate,\n        uint64 staminaTimestamp,\n        uint256 currentHour\n    ) private pure returns (Target[4] memory) {\n        // 4 targets, roll powers based on character + weapon power\n        // targets expire on the hour\n\n        uint256 baseSeed = RandomUtil.combineSeeds(RandomUtil.combineSeeds(staminaTimestamp, currentHour), playerPower);\n\n        Target[4] memory targets;\n        for (uint256 i = 0; i < targets.length; i++) {\n            // we alter seed per-index or they would be all the same\n            uint256 indexSeed = RandomUtil.combineSeeds(baseSeed, i);\n\n            targets[i] = Target(\n                uint24(RandomUtil.plusMinus10PercentSeeded(playerPower, indexSeed)),\n                uint8(indexSeed % 4),\n                fireRate // make this same as player fire rate\n            );\n        }\n\n        return targets;\n    }\n\n    // 40 bits -- 24 bits power 8 bits trait 8 bits fireRate\n\n    // Fighting Methods\n\n    function unpackFightData(uint112 playerData)\n        public\n        pure\n        returns (\n            uint8 charTrait,\n            uint8 charAccuracy,\n            uint8 charClass,\n            uint24 basePowerLevel,\n            uint64 timestamp\n        )\n    {\n        charTrait = uint8(playerData & 0xFF);\n        charAccuracy = uint8((playerData >> 8) & 0xFF);\n        charClass = uint8((playerData >> 16) & 0xFF);\n        basePowerLevel = uint24((playerData >> 24) & 0xFFFFFF);\n        timestamp = uint64((playerData >> 48) & 0xFFFFFFFFFFFFFFFF);\n    }\n\n    function fight(\n        uint256 char,\n        uint256 wep,\n        Target calldata target,\n        uint8 fightMultiplier\n    ) external override whenNotPaused fightModifierChecks(char, wep) {\n        require(fightMultiplier >= 1 && fightMultiplier <= 5);\n        uint64 charStamina = characters.getStaminaTimestamp(char);\n\n        (\n            ,\n            uint8 charAccuracy, // uint64 timestamp\n            ,\n            ,\n\n        ) = unpackFightData(characters.getFightDataAndDrainStamina(char, uint8(fightMultiplier.mul(staminaCostFight))));\n        uint24 charPower = characters.getPower(char);\n        (uint16 wepPower, uint16 fireRate, , , , , , ) = weapons.get(wep);\n\n        weapons.getFightDataAndDrainDurability(wep, uint8(fightMultiplier.mul(durabilityCostFight)));\n\n        _verifyFight(charPower, wepPower, charStamina, fireRate, target);\n\n        performFight(\n                char,\n                wep,\n                getPlayerPower(charPower, wepPower),\n                uint24(target.power),\n                uint8(target.trait),\n                charAccuracy,\n                fightMultiplier\n        );\n    }\n\n    function _verifyFight(\n        uint24 basePowerLevel,\n        uint24 weaponPower,\n        uint64 timestamp,\n        uint16 fireRate,\n        Target memory target\n    ) internal view {\n        verifyFight(basePowerLevel, weaponPower, timestamp, fireRate, now.div(1 hours), target);\n    }\n\n    function verifyFight(\n        uint24 playerBasePower,\n        uint24 weaponPower,\n        uint64 staminaTimestamp,\n        uint16 fireRate,\n        uint256 hour,\n        Target memory target\n    ) public pure {\n        Target[4] memory targets = getTargetsInternal(\n            getPlayerPower(playerBasePower, weaponPower),\n            fireRate,\n            staminaTimestamp,\n            hour\n        );\n        bool foundMatch = false;\n        for (uint256 i = 0; i < targets.length; i++) {\n            if (\n                targets[i].power == target.power &&\n                targets[i].trait == target.trait &&\n                targets[i].fireRate == target.fireRate\n            ) {\n                foundMatch = true;\n                i = targets.length;\n            }\n        }\n\n        require(foundMatch, 'Target invalid');\n    }\n\n    function performFight(\n        uint256 char,\n        uint256 wep,\n        uint24 playerPower,\n        uint24 targetPower,\n        uint8 targetTrait,\n        uint8 playerAccuracy,\n        uint8 fightMultiplier\n    ) private {\n        uint256 seed = randoms.getRandomSeed(msg.sender);\n        uint8 charTrait = characters.getElement(char);\n        uint8 charClass = characters.getClass(char);\n\n        playerPower = weapons.getFightData(wep, playerPower, charTrait, charClass);\n\n        uint24 playerRoll = getPlayerPowerRoll(playerPower, playerAccuracy, wep, seed);\n\n        if ((((targetTrait + 1) % 4) == charTrait)) {\n            playerRoll = uint24(playerRoll.add(uint24(ABDKMath64x64.divu(7, 100).mulu(playerRoll))));\n        }\n\n        uint24 monsterRoll = getMonsterPowerRoll(targetPower, playerAccuracy, wep, RandomUtil.combineSeeds(seed, 1));\n\n        if ((((charTrait + 1) % 4) == targetTrait)) {\n            monsterRoll = uint24(monsterRoll.add(uint24(ABDKMath64x64.divu(7, 100).mulu(monsterRoll))));\n        }\n\n        uint16 xpRewardsToClaim = 0;\n        uint256 tokens = 0;\n\n        // iff player beats the monster\n        if (playerRoll > monsterRoll) {\n            xpRewardsToClaim = uint16(fightMultiplier.mul(getXpGainForFight(playerPower, targetPower)));\n            tokens = fightMultiplier.mul(getTokenGainForFight(targetPower));\n\n            // decrease reward if we are runing out of totalEpochRewards\n            if (totalEpochRewards < tokens) {\n                tokens = totalEpochRewards;\n            }\n\n            totalEpochRewards = totalEpochRewards.sub(tokens);\n\n            // Player won overflow reward\n            tokens = handleOverflow(char,seed,tokens);\n\n            // stake tokens\n            handleStake(tokens);\n\n            // Reward player with loot items -- for elites and trainees both\n            lootItems(char, tokens);\n\n            if (xpRewardsToClaim > 65535) {\n                xpRewardsToClaim = 65535;\n            }\n            if (xpRewardsToClaim > 0) {\n                characters.gainXp(char, uint16(xpRewardsToClaim));\n            }\n\n        } else {\n            handleStake(tokens);\n        }\n\n            emit FightOutcome(\n                msg.sender,\n                char,\n                wep,\n                targetPower,\n                targetTrait,\n                playerRoll,\n                monsterRoll,\n                xpRewardsToClaim,\n                tokens\n            );\n    }\n\n    function handleStake(uint256 tokens) private {\n        \n        if (tokenRewards[msg.sender] > 0) {\n            tokens = tokens.add(tokenRewards[msg.sender]);\n            tokenRewards[msg.sender] = 0;\n        }\n\n        if(tokens > 0) {\n            // approve tokens to chef contract\n            tagToken.safeApprove(address(cipherChef), tokens);\n            // deposit to chef contract on behalf of users\n            cipherChef.deposit(0, tokens, msg.sender);\n        }\n    }\n\n    function handleOverflow(uint256 char, uint256 seed, uint256 tokens) private returns(uint256) {\n        CharacterType cType = characters.getCharacterType(char);\n        uint256 overflowWon;\n        if (overflowReward > 0 && RandomUtil.combineSeeds(seed, block.timestamp).mod(chanceOfWinningOverflow) == 0) {\n                \n                if (cType == CharacterType.Trainee) {\n                    // Trainees get extra loot items when they win overflow\n                    lootItems(char,tokens);\n                    overflowWon = 0;\n                    tokens = 0;\n                } else {\n                    overflowWon = overflowReward > overflowThreshold ? overflowThreshold : overflowReward;\n                    overflowReward = overflowReward.sub(overflowWon);\n\n                    uint256 overflowTaxIncrement = ABDKMath64x64.mulu(treasuryTax, overflowWon);\n                    overflowWon = overflowWon.sub(overflowTaxIncrement);\n                    overflowTax = overflowTax.add(overflowTaxIncrement);\n\n                    tokens = tokens.add(overflowWon);\n                }\n\n                emit OverflowRewardWon(msg.sender, overflowWon);\n        }\n\n        return tokens;\n    }\n\n    function lootItems(uint256 char, uint256 tokens) private {\n        crafting.lootItems(char, (tokens / 1 ether), msg.sender);\n    }\n\n    function getPlayerPowerRoll(\n        uint24 playerFightPower,\n        uint8 playerAccuracy,\n        uint256 wep,\n        uint256 seed\n    ) internal returns (uint24) {\n        (, uint16 _fireRate, uint8 _accuracy, , , , , ) = weapons.get(wep);\n\n        uint8 finalAccuracy = uint8(ABDKMath64x64.divu(_accuracy, 100).mulu(playerAccuracy));\n        uint256 shotsFired = uint256(ABDKMath64x64.divu(_fireRate, 100).mulu(combatDuration)); // floor value\n        uint256 totalDamage = 0;\n        for (uint256 i = 0; i < shotsFired; i++) {\n            uint256 indexSeed = RandomUtil.combineSeeds(seed, i);\n            uint8 bodyPartHit = calculateBodyPartHit(finalAccuracy, indexSeed);\n            uint24 perShotDamage = calculateBodyPartShot(playerFightPower, bodyPartHit);\n            totalDamage = totalDamage.add(perShotDamage);\n            emit ShotOutcome(0, perShotDamage, bodyPartHit);\n        }\n\n        return uint24(totalDamage);\n    }\n\n    function getMonsterPowerRoll(\n        uint24 monsterFightPower,\n        uint8 monsterAccuracy,\n        uint256 wep,\n        uint256 seed\n    ) internal returns (uint24) {\n        (, uint16 _fireRate, uint8 _accuracy, , , , , ) = weapons.get(wep);\n\n        uint8 finalAccuracy = uint8(ABDKMath64x64.divu(_accuracy, 100).mulu(monsterAccuracy));\n        finalAccuracy = uint8(RandomUtil.plusMinus10PercentSeeded(finalAccuracy, seed));\n        uint256 shotsFired = uint256(ABDKMath64x64.divu(_fireRate, 100).mulu(combatDuration)); // floor value\n\n        uint256 totalDamage = 0;\n        for (uint256 i = 0; i < shotsFired; i++) {\n            uint256 indexSeed = RandomUtil.combineSeeds(seed, i);\n            uint8 bodyPartHit = calculateBodyPartHit(finalAccuracy, indexSeed);\n            uint24 perShotDamage = calculateBodyPartShot(monsterFightPower, bodyPartHit);\n            totalDamage = totalDamage.add(perShotDamage);\n            emit ShotOutcome(1, perShotDamage, bodyPartHit);\n        }\n\n        return uint24(totalDamage);\n    }\n\n    function calculateBodyPartShot(uint24 power, uint8 bodyPart) internal pure returns (uint24) {\n        // 0 -  (-12)% legs\n        // 1 - (0%) body\n        // 2 - (+12)% head\n\n        if (bodyPart == 0) {\n            power = uint24(power.sub(uint24((ABDKMath64x64.divu(12, 100)).mulu(power))));\n        } else if (bodyPart == 1) {\n            power = power;\n        } else if (bodyPart == 2) {\n            power = uint24(power.add(uint24((ABDKMath64x64.divu(12, 100)).mulu(power))));\n        } else {\n            power = 0;\n        }\n        return power;\n    }\n\n    function calculateBodyPartHit(uint8 accuracy, uint256 seed) internal pure returns (uint8) {\n        uint256 base = 33;\n        uint256 roll = seed % 100;\n        if (accuracy == 0) {\n            return uint8(RandomUtil.randomSeededMinMax(0, 2, seed));\n        } else if (accuracy > 0 && accuracy <= base) {\n            uint256 x1 = base.sub(accuracy);\n            uint256 x2 = base.sub(accuracy).add(1);\n            uint256 x3 = x2.add(base).add(accuracy.div(2));\n\n            if (roll >= 0 && roll <= x1) {\n                return 0;\n            } else if (roll > x1 && roll <= x3) {\n                return 1;\n            } else if (roll > x3) {\n                return 2;\n            }\n        } else if (accuracy > base && accuracy <= 82) {\n            uint256 x1 = (base.add(base.div(2))).sub(accuracy.sub(base));\n\n            if (roll >= 0 && roll <= x1) {\n                return 1;\n            } else {\n                return 2;\n            }\n        } else if (accuracy > 82) {\n            return 2;\n        } else {\n            return 0;\n        }\n    }\n\n    function getXpGainForFight(uint24 playerPower, uint24 monsterPower) internal view returns (uint16) {\n        return uint16(ABDKMath64x64.divu(monsterPower, playerPower).mulu(fightXpGain));\n    }\n\n    function getTokenGainForFight(uint24 monsterPower) internal view returns (uint256) {\n        uint24 maxWeaponPower = 50000;\n        uint24 minWeaponPower = 5000;\n        uint24 maxMonsterPower = uint24(\n            ABDKMath64x64.mulu(ABDKMath64x64.divu(11, 10), (characters.getPowerAtLevel(255).add(maxWeaponPower)))\n        );\n        uint24 minMonsterPower = uint24(\n            ABDKMath64x64.mulu(ABDKMath64x64.divu(9, 10), (characters.getPowerAtLevel(0).add(minWeaponPower)))\n        );\n        int128 k = ABDKMath64x64.divu(monsterPower.sub(minMonsterPower), maxMonsterPower.sub(minMonsterPower));\n        int128 one = ABDKMath64x64.divu(1, 1);\n        int128 half = ABDKMath64x64.divu(1, 2);\n        int128 m = ABDKMath64x64.mul(half, ABDKMath64x64.add(one, ABDKMath64x64.sqrt(k)));\n        return ABDKMath64x64.mulu(m, fightRewardBaseAmount);\n    }\n\n    function claimTokenRewards() public override {\n        uint256 _tokenRewards = tokenRewards[msg.sender];\n        tokenRewards[msg.sender] = 0;\n        totalPlayerRewards = totalPlayerRewards.sub(_tokenRewards);\n\n        _payPlayerConverted(msg.sender, _tokenRewards);\n    }\n\n    function _payPlayerConverted(address playerAddress, uint256 convertedAmount) internal {\n        tagToken.safeTransfer(playerAddress, convertedAmount);\n    }\n\n    function getMyCharacters() public view returns (uint256[] memory) {\n        uint256[] memory tokens = new uint256[](characters.balanceOf(msg.sender));\n        for (uint256 i = 0; i < tokens.length; i++) {\n            tokens[i] = characters.tokenOfOwnerByIndex(msg.sender, i);\n        }\n        return tokens;\n    }\n\n    function getMyWeapons() public view returns (uint256[] memory) {\n        uint256[] memory tokens = new uint256[](weapons.balanceOf(msg.sender));\n        for (uint256 i = 0; i < tokens.length; i++) {\n            tokens[i] = weapons.tokenOfOwnerByIndex(msg.sender, i);\n        }\n        return tokens;\n    }\n\n    // can be called by anyone\n    function startNextEpoch() external {\n        require(now > nextEpochStartTimestamp, 'New epoch cannot be started yet');\n        nextEpochStartTimestamp = nextEpochStartTimestamp.add(epochDuration);\n\n        if (nextEpochStartTimestamp < now) {\n            nextEpochStartTimestamp = now.add(epochDuration);\n        }\n\n        // pay overflow tax\n        if (overflowTax > 0) {\n            tagToken.safeTransfer(treasury, overflowTax);\n            overflowTax = 0;\n        }\n\n        uint256 excessBalance = getExcessBalance();\n        if (excessBalance > 0) {\n            // pay tax\n            uint256 taxAmount = 0;\n            if (treasuryTax > 0) {\n                taxAmount = ABDKMath64x64.mulu(treasuryTax, excessBalance);\n                tagToken.safeTransfer(treasury, taxAmount);\n            }\n\n            // burn tokens\n            uint256 burnAmount = 0;\n            if (burnPercentage > 0) {\n                burnAmount = ABDKMath64x64.mulu(burnPercentage, excessBalance);\n                tagToken.safeTransfer(address(0x1), burnAmount);\n            }\n\n            excessBalance = excessBalance.sub(taxAmount).sub(burnAmount);\n\n            int128 oneThird = ABDKMath64x64.divu(1, 3);\n\n            // deposit to Cipher Core\n            uint256 depositAmount = ABDKMath64x64.mulu(oneThird, excessBalance);\n            tagToken.approve(address(cipherCore), depositAmount);\n            cipherCore.depositInTags(depositAmount);\n            excessBalance = excessBalance.sub(depositAmount);\n\n            // rollover to next epoch rewards\n            totalEpochRewards = ABDKMath64x64.mulu(oneThird, excessBalance);\n            excessBalance = excessBalance.sub(totalEpochRewards);\n\n            // send unclaimed rewards to overflow\n            overflowReward = overflowReward.add(excessBalance);\n        }\n\n        // pull rewards from Core\n        uint256 balanceBefore = tagToken.balanceOf(address(this));\n        cipherCore.harvestYieldInTags();\n        uint256 harvested = tagToken.balanceOf(address(this)).sub(balanceBefore);\n        totalEpochRewards = totalEpochRewards.add(harvested);\n        emit TagsHarvested(harvested);\n\n        // add injected rewards\n        totalEpochRewards = totalEpochRewards.add(injectedRewards);\n        injectedRewards = 0;\n\n        // update reward formula multiplier\n        fightRewardBaseAmount = _calculateFightRewardBaseline(totalEpochRewards);\n    }\n\n    function injectRewards(uint256 amount) external {\n        require(tagToken.transferFrom(_msgSender(), address(this), amount), 'Unable to pull funds from the sender');\n\n        injectedRewards = injectedRewards.add(amount);\n    }\n\n    function _calculateFightRewardBaseline(uint256 totalRewards) internal view returns (uint256) {\n        uint256 epochDurationInDays = epochDuration.div(1 days);\n        uint256 maxNumOfFights = (characters.getOperatorsCountPerRole(CharacterType.Elite))\n            .mul(FIGHTS_PER_ELITE_PER_DAY)\n            .mul(epochDurationInDays);\n        uint256 result = totalRewards.div(uint256(maxNumOfFights));\n\n        return result;\n    }\n\n    function setCombatDuration(uint16 duration) public restricted {\n        emit ParameterAdjusted(keccak256('combatDuration'), combatDuration, duration);\n        combatDuration = duration;\n    }\n\n    function setEpochDuration(uint256 duration) public restricted {\n        emit ParameterAdjusted(keccak256('epochDuration'), epochDuration, duration);\n        epochDuration = duration;\n    }\n\n    function setChanceOfWinningOverflow(uint256 chance) public restricted {\n        emit ParameterAdjusted(keccak256('chanceOfWinningOverflow'), chanceOfWinningOverflow, chance);\n        chanceOfWinningOverflow = chance;\n    }\n\n    function setTreasury(address _treasury) public restricted {\n        treasury = _treasury;\n    }\n\n    function setTreasuryTax(int128 _tax) public restricted {\n        emit ParameterAdjusted(keccak256('treasuryTax'), uint256(treasuryTax), uint256(_tax));\n        treasuryTax = _tax;\n    }\n\n    function setBurnPercentage(int128 _burnPercentage) public restricted {\n        emit ParameterAdjusted(keccak256('burnPercentage'), uint256(burnPercentage), uint256(_burnPercentage));\n        burnPercentage = _burnPercentage;\n    }\n\n    function setOverflowThreshold(uint256 _overflowThreshold) public restricted {\n        emit ParameterAdjusted(keccak256('overflowThreshold'), overflowThreshold, _overflowThreshold);\n        overflowThreshold = _overflowThreshold;\n    }\n\n    function setFightXpGain(uint256 _fightXpGain) public restricted {\n        emit ParameterAdjusted(keccak256('fightXpGain'), fightXpGain, _fightXpGain);\n        fightXpGain = _fightXpGain;\n    }\n\n    function setFightRewardBaseAmount(uint256 _fightRewardBaseAmount) public restricted {\n        emit ParameterAdjusted(keccak256('fightRewardBaseAmount'), fightRewardBaseAmount, _fightRewardBaseAmount);\n        fightRewardBaseAmount = _fightRewardBaseAmount;\n    }\n\n    function setEliteFee(uint256 _fee) public restricted {\n        emit ParameterAdjusted(keccak256('eliteFee'), eliteFee, _fee);\n        eliteFee = _fee;\n    }\n\n    function setTraineeFee(uint256 _fee) public restricted {\n        emit ParameterAdjusted(keccak256('traineeFee'), traineeFee, _fee);\n        traineeFee = _fee;\n    }\n\n    function setTotalEliteToBeMinted(uint256 _value) public restricted {\n        emit ParameterAdjusted(keccak256('totalEliteToBeMinted'), totalEliteToBeMinted, _value);\n        totalEliteToBeMinted = _value;\n    }\n\n    function setTotalEliteMinted() public restricted {\n        totalEliteMinted = characters.getOperatorsCountPerRole(CharacterType.Elite);\n    }\n\n    function setTotalTraineeToBeMinted(uint256 _value) public restricted {\n        emit ParameterAdjusted(keccak256('totalTraineeToBeMinted'), totalTraineeToBeMinted, _value);\n        totalTraineeToBeMinted = _value;\n    }\n\n    function setTotalTraineeMinted() public restricted {\n        totalTraineeMinted = characters.getOperatorsCountPerRole(CharacterType.Trainee);\n    }\n\n    function setCore(ICipherCore _core) public restricted {\n        cipherCore = _core;\n    }\n\n    function setCrafting(ICrafting _crafting) public restricted {\n        crafting = _crafting;\n    }\n\n    function setTagToken(IERC20Upgradeable _tagToken) public restricted {\n        tagToken = _tagToken;\n    }\n\n    function setRewardsManager(IRewardsManager _chef) public restricted {\n        cipherChef = _chef;\n    }\n\n    function rewardsManager() public override returns (IRewardsManager) {\n        return cipherChef;\n    }\n\n    function getPlayerPower(uint24 basePower, uint24 weaponPower) public pure returns (uint24) {\n        return uint24(weaponPower.add(basePower));\n    }\n\n    function getExcessBalance() public view returns (uint256) {\n        uint256 balance = tagToken.balanceOf(address(this));\n        return balance.sub(overflowReward).sub(totalPlayerRewards).sub(injectedRewards).sub(overflowTax);\n    }\n\n    function isNotContract(address user) internal view returns (bool) {\n        return tx.origin == user;\n    }\n\n    // modifier onlyNonContract() {\n    //     _onlyNonContract();\n    //     _;\n    // }\n\n    // function _onlyNonContract() internal view {\n    //     require(tx.origin == msg.sender);\n    // }\n\n    modifier oncePerBlock(address user) {\n        _oncePerBlock(user);\n        _;\n    }\n\n    modifier restricted() {\n        _restricted();\n        _;\n    }\n\n    modifier isWeaponOwner(uint256 weapon) {\n        _isWeaponOwner(weapon);\n        _;\n    }\n\n    function _isWeaponOwner(uint256 weapon) internal view {\n        require(weapons.ownerOf(weapon) == msg.sender, 'Not the weapon owner');\n    }\n\n    modifier isCharacterOwner(uint256 character) {\n        _isCharacterOwner(character);\n        _;\n    }\n\n    function _isCharacterOwner(uint256 character) internal view {\n        require(characters.ownerOf(character) == msg.sender, 'Not the character owner');\n    }\n\n    modifier fightModifierChecks(uint256 character, uint256 weapon) {\n        // _onlyNonContract();\n        _isCharacterOwner(character);\n        _isWeaponOwner(weapon);\n        _;\n    }\n\n    function _restricted() internal view {\n        require(hasRole(GAME_ADMIN, msg.sender), 'Game admin role needed.');\n    }\n\n    function _oncePerBlock(address user) internal {\n        require(lastBlockNumberCalled[user] < block.number, 'OCB');\n        lastBlockNumberCalled[user] = block.number;\n    }\n\n    modifier onlyOwner() {\n        _onlyOwner();\n        _;\n    }\n\n    function _onlyOwner() internal view {\n        require(hasRole(DEFAULT_ADMIN_ROLE, msg.sender), 'Admin role needed.');\n    }\n\n    function pause() external onlyOwner {\n        _pause();\n    }\n\n    function unpause() external onlyOwner {\n        _unpause();\n    }\n}\n",
  "sourcePath": "/Users/school/dev/ciphershooters/contracts/GameMaster.sol",
  "compiler": {
    "name": "solc",
    "version": "0.6.5+commit.f956cc89.Emscripten.clang"
  },
  "schemaVersion": "3.4.6",
  "updatedAt": "2022-06-04T16:14:57.672Z",
  "devdoc": {
    "methods": {
      "getRoleAdmin(bytes32)": {
        "details": "Returns the admin role that controls `role`. See {grantRole} and {revokeRole}.     * To change a role's admin, use {_setRoleAdmin}."
      },
      "getRoleMember(bytes32,uint256)": {
        "details": "Returns one of the accounts that have `role`. `index` must be a value between 0 and {getRoleMemberCount}, non-inclusive.     * Role bearers are not sorted in any particular way, and their ordering may change at any point.     * WARNING: When using {getRoleMember} and {getRoleMemberCount}, make sure you perform all queries on the same block. See the following https://forum.openzeppelin.com/t/iterating-over-elements-on-enumerableset-in-openzeppelin-contracts/2296[forum post] for more information."
      },
      "getRoleMemberCount(bytes32)": {
        "details": "Returns the number of accounts that have `role`. Can be used together with {getRoleMember} to enumerate all bearers of a role."
      },
      "grantRole(bytes32,address)": {
        "details": "Grants `role` to `account`.     * If `account` had not been already granted `role`, emits a {RoleGranted} event.     * Requirements:     * - the caller must have ``role``'s admin role."
      },
      "hasRole(bytes32,address)": {
        "details": "Returns `true` if `account` has been granted `role`."
      },
      "paused()": {
        "details": "Returns true if the contract is paused, and false otherwise."
      },
      "renounceRole(bytes32,address)": {
        "details": "Revokes `role` from the calling account.     * Roles are often managed via {grantRole} and {revokeRole}: this function's purpose is to provide a mechanism for accounts to lose their privileges if they are compromised (such as when a trusted device is misplaced).     * If the calling account had been granted `role`, emits a {RoleRevoked} event.     * Requirements:     * - the caller must be `account`."
      },
      "revokeRole(bytes32,address)": {
        "details": "Revokes `role` from `account`.     * If `account` had been granted `role`, emits a {RoleRevoked} event.     * Requirements:     * - the caller must have ``role``'s admin role."
      }
    }
  },
  "userdoc": {
    "methods": {}
  }
}