{
  "contractName": "NFTMarket",
  "abi": [
    {
      "anonymous": false,
      "inputs": [
        {
          "indexed": true,
          "internalType": "address",
          "name": "seller",
          "type": "address"
        },
        {
          "indexed": true,
          "internalType": "contract IERC721",
          "name": "nftAddress",
          "type": "address"
        },
        {
          "indexed": true,
          "internalType": "uint256",
          "name": "nftID",
          "type": "uint256"
        }
      ],
      "name": "CancelledListing",
      "type": "event"
    },
    {
      "anonymous": false,
      "inputs": [
        {
          "indexed": true,
          "internalType": "address",
          "name": "seller",
          "type": "address"
        },
        {
          "indexed": true,
          "internalType": "contract IERC721",
          "name": "nftAddress",
          "type": "address"
        },
        {
          "indexed": true,
          "internalType": "uint256",
          "name": "nftID",
          "type": "uint256"
        },
        {
          "indexed": false,
          "internalType": "uint256",
          "name": "newPrice",
          "type": "uint256"
        }
      ],
      "name": "ListingPriceChange",
      "type": "event"
    },
    {
      "anonymous": false,
      "inputs": [
        {
          "indexed": true,
          "internalType": "address",
          "name": "seller",
          "type": "address"
        },
        {
          "indexed": true,
          "internalType": "contract IERC721",
          "name": "nftAddress",
          "type": "address"
        },
        {
          "indexed": true,
          "internalType": "uint256",
          "name": "nftID",
          "type": "uint256"
        },
        {
          "indexed": false,
          "internalType": "address",
          "name": "newTargetBuyer",
          "type": "address"
        }
      ],
      "name": "ListingTargetBuyerChange",
      "type": "event"
    },
    {
      "anonymous": false,
      "inputs": [
        {
          "indexed": true,
          "internalType": "address",
          "name": "seller",
          "type": "address"
        },
        {
          "indexed": true,
          "internalType": "contract IERC721",
          "name": "nftAddress",
          "type": "address"
        },
        {
          "indexed": true,
          "internalType": "uint256",
          "name": "nftID",
          "type": "uint256"
        },
        {
          "indexed": false,
          "internalType": "uint256",
          "name": "price",
          "type": "uint256"
        },
        {
          "indexed": false,
          "internalType": "address",
          "name": "targetBuyer",
          "type": "address"
        }
      ],
      "name": "NewListing",
      "type": "event"
    },
    {
      "anonymous": false,
      "inputs": [
        {
          "indexed": true,
          "internalType": "address",
          "name": "buyer",
          "type": "address"
        },
        {
          "indexed": false,
          "internalType": "address",
          "name": "seller",
          "type": "address"
        },
        {
          "indexed": true,
          "internalType": "contract IERC721",
          "name": "nftAddress",
          "type": "address"
        },
        {
          "indexed": true,
          "internalType": "uint256",
          "name": "nftID",
          "type": "uint256"
        },
        {
          "indexed": false,
          "internalType": "uint256",
          "name": "price",
          "type": "uint256"
        }
      ],
      "name": "PurchasedListing",
      "type": "event"
    },
    {
      "anonymous": false,
      "inputs": [
        {
          "indexed": true,
          "internalType": "bytes32",
          "name": "role",
          "type": "bytes32"
        },
        {
          "indexed": true,
          "internalType": "bytes32",
          "name": "previousAdminRole",
          "type": "bytes32"
        },
        {
          "indexed": true,
          "internalType": "bytes32",
          "name": "newAdminRole",
          "type": "bytes32"
        }
      ],
      "name": "RoleAdminChanged",
      "type": "event"
    },
    {
      "anonymous": false,
      "inputs": [
        {
          "indexed": true,
          "internalType": "bytes32",
          "name": "role",
          "type": "bytes32"
        },
        {
          "indexed": true,
          "internalType": "address",
          "name": "account",
          "type": "address"
        },
        {
          "indexed": true,
          "internalType": "address",
          "name": "sender",
          "type": "address"
        }
      ],
      "name": "RoleGranted",
      "type": "event"
    },
    {
      "anonymous": false,
      "inputs": [
        {
          "indexed": true,
          "internalType": "bytes32",
          "name": "role",
          "type": "bytes32"
        },
        {
          "indexed": true,
          "internalType": "address",
          "name": "account",
          "type": "address"
        },
        {
          "indexed": true,
          "internalType": "address",
          "name": "sender",
          "type": "address"
        }
      ],
      "name": "RoleRevoked",
      "type": "event"
    },
    {
      "inputs": [],
      "name": "DEFAULT_ADMIN_ROLE",
      "outputs": [
        {
          "internalType": "bytes32",
          "name": "",
          "type": "bytes32"
        }
      ],
      "stateMutability": "view",
      "type": "function"
    },
    {
      "inputs": [],
      "name": "GAME_ADMIN",
      "outputs": [
        {
          "internalType": "bytes32",
          "name": "",
          "type": "bytes32"
        }
      ],
      "stateMutability": "view",
      "type": "function"
    },
    {
      "inputs": [],
      "name": "addFee",
      "outputs": [
        {
          "internalType": "int128",
          "name": "",
          "type": "int128"
        }
      ],
      "stateMutability": "view",
      "type": "function"
    },
    {
      "inputs": [],
      "name": "changeFee",
      "outputs": [
        {
          "internalType": "int128",
          "name": "",
          "type": "int128"
        }
      ],
      "stateMutability": "view",
      "type": "function"
    },
    {
      "inputs": [],
      "name": "defaultTax",
      "outputs": [
        {
          "internalType": "int128",
          "name": "",
          "type": "int128"
        }
      ],
      "stateMutability": "view",
      "type": "function"
    },
    {
      "inputs": [
        {
          "internalType": "bytes32",
          "name": "role",
          "type": "bytes32"
        }
      ],
      "name": "getRoleAdmin",
      "outputs": [
        {
          "internalType": "bytes32",
          "name": "",
          "type": "bytes32"
        }
      ],
      "stateMutability": "view",
      "type": "function"
    },
    {
      "inputs": [
        {
          "internalType": "bytes32",
          "name": "role",
          "type": "bytes32"
        },
        {
          "internalType": "uint256",
          "name": "index",
          "type": "uint256"
        }
      ],
      "name": "getRoleMember",
      "outputs": [
        {
          "internalType": "address",
          "name": "",
          "type": "address"
        }
      ],
      "stateMutability": "view",
      "type": "function"
    },
    {
      "inputs": [
        {
          "internalType": "bytes32",
          "name": "role",
          "type": "bytes32"
        }
      ],
      "name": "getRoleMemberCount",
      "outputs": [
        {
          "internalType": "uint256",
          "name": "",
          "type": "uint256"
        }
      ],
      "stateMutability": "view",
      "type": "function"
    },
    {
      "inputs": [
        {
          "internalType": "bytes32",
          "name": "role",
          "type": "bytes32"
        },
        {
          "internalType": "address",
          "name": "account",
          "type": "address"
        }
      ],
      "name": "grantRole",
      "outputs": [],
      "stateMutability": "nonpayable",
      "type": "function"
    },
    {
      "inputs": [
        {
          "internalType": "bytes32",
          "name": "role",
          "type": "bytes32"
        },
        {
          "internalType": "address",
          "name": "account",
          "type": "address"
        }
      ],
      "name": "hasRole",
      "outputs": [
        {
          "internalType": "bool",
          "name": "",
          "type": "bool"
        }
      ],
      "stateMutability": "view",
      "type": "function"
    },
    {
      "inputs": [
        {
          "internalType": "address",
          "name": "",
          "type": "address"
        }
      ],
      "name": "isTokenBanned",
      "outputs": [
        {
          "internalType": "bool",
          "name": "",
          "type": "bool"
        }
      ],
      "stateMutability": "view",
      "type": "function"
    },
    {
      "inputs": [
        {
          "internalType": "address",
          "name": "",
          "type": "address"
        }
      ],
      "name": "isUserBanned",
      "outputs": [
        {
          "internalType": "bool",
          "name": "",
          "type": "bool"
        }
      ],
      "stateMutability": "view",
      "type": "function"
    },
    {
      "inputs": [],
      "name": "priceOracletagPerUsd",
      "outputs": [
        {
          "internalType": "contract IPriceOracle",
          "name": "",
          "type": "address"
        }
      ],
      "stateMutability": "view",
      "type": "function"
    },
    {
      "inputs": [
        {
          "internalType": "bytes32",
          "name": "role",
          "type": "bytes32"
        },
        {
          "internalType": "address",
          "name": "account",
          "type": "address"
        }
      ],
      "name": "renounceRole",
      "outputs": [],
      "stateMutability": "nonpayable",
      "type": "function"
    },
    {
      "inputs": [
        {
          "internalType": "bytes32",
          "name": "role",
          "type": "bytes32"
        },
        {
          "internalType": "address",
          "name": "account",
          "type": "address"
        }
      ],
      "name": "revokeRole",
      "outputs": [],
      "stateMutability": "nonpayable",
      "type": "function"
    },
    {
      "inputs": [],
      "name": "tagToken",
      "outputs": [
        {
          "internalType": "contract IERC20",
          "name": "",
          "type": "address"
        }
      ],
      "stateMutability": "view",
      "type": "function"
    },
    {
      "inputs": [
        {
          "internalType": "address",
          "name": "",
          "type": "address"
        }
      ],
      "name": "tax",
      "outputs": [
        {
          "internalType": "int128",
          "name": "",
          "type": "int128"
        }
      ],
      "stateMutability": "view",
      "type": "function"
    },
    {
      "inputs": [],
      "name": "taxRecipient",
      "outputs": [
        {
          "internalType": "address",
          "name": "",
          "type": "address"
        }
      ],
      "stateMutability": "view",
      "type": "function"
    },
    {
      "inputs": [
        {
          "internalType": "contract IERC20",
          "name": "_tagToken",
          "type": "address"
        },
        {
          "internalType": "address",
          "name": "_taxRecipient",
          "type": "address"
        }
      ],
      "name": "initialize",
      "outputs": [],
      "stateMutability": "nonpayable",
      "type": "function"
    },
    {
      "inputs": [
        {
          "internalType": "contract Characters",
          "name": "_charactersContract",
          "type": "address"
        },
        {
          "internalType": "contract Weapons",
          "name": "_weaponsContract",
          "type": "address"
        }
      ],
      "name": "migrateTo_a98a9ac",
      "outputs": [],
      "stateMutability": "nonpayable",
      "type": "function"
    },
    {
      "inputs": [
        {
          "internalType": "contract IERC721",
          "name": "_tokenAddress",
          "type": "address"
        }
      ],
      "name": "isTokenAllowed",
      "outputs": [
        {
          "internalType": "bool",
          "name": "",
          "type": "bool"
        }
      ],
      "stateMutability": "view",
      "type": "function"
    },
    {
      "inputs": [],
      "name": "getAllowedTokenTypes",
      "outputs": [
        {
          "internalType": "contract IERC721[]",
          "name": "",
          "type": "address[]"
        }
      ],
      "stateMutability": "view",
      "type": "function"
    },
    {
      "inputs": [
        {
          "internalType": "contract IERC721",
          "name": "_tokenAddress",
          "type": "address"
        },
        {
          "internalType": "uint256",
          "name": "_tokenId",
          "type": "uint256"
        }
      ],
      "name": "getSellerOfNftID",
      "outputs": [
        {
          "internalType": "address",
          "name": "",
          "type": "address"
        }
      ],
      "stateMutability": "view",
      "type": "function"
    },
    {
      "inputs": [],
      "name": "defaultTaxAsRoundedPercentRoughEstimate",
      "outputs": [
        {
          "internalType": "uint256",
          "name": "",
          "type": "uint256"
        }
      ],
      "stateMutability": "view",
      "type": "function"
    },
    {
      "inputs": [],
      "name": "getListedTokenTypes",
      "outputs": [
        {
          "internalType": "contract IERC721[]",
          "name": "",
          "type": "address[]"
        }
      ],
      "stateMutability": "view",
      "type": "function"
    },
    {
      "inputs": [
        {
          "internalType": "contract IERC721",
          "name": "_tokenAddress",
          "type": "address"
        }
      ],
      "name": "getListingIDs",
      "outputs": [
        {
          "internalType": "uint256[]",
          "name": "",
          "type": "uint256[]"
        }
      ],
      "stateMutability": "view",
      "type": "function"
    },
    {
      "inputs": [
        {
          "components": [
            {
              "internalType": "contract IERC721",
              "name": "tokenAddress",
              "type": "address"
            },
            {
              "internalType": "uint8",
              "name": "limit",
              "type": "uint8"
            },
            {
              "internalType": "uint256",
              "name": "pageNumber",
              "type": "uint256"
            },
            {
              "internalType": "uint8",
              "name": "element",
              "type": "uint8"
            },
            {
              "internalType": "uint8",
              "name": "quality",
              "type": "uint8"
            },
            {
              "internalType": "uint8",
              "name": "gunType",
              "type": "uint8"
            },
            {
              "internalType": "uint8",
              "name": "holographic",
              "type": "uint8"
            }
          ],
          "internalType": "struct NFTMarket.WeaponsFilter",
          "name": "filter",
          "type": "tuple"
        }
      ],
      "name": "getWeaponListingIDsPage",
      "outputs": [
        {
          "internalType": "uint256[]",
          "name": "",
          "type": "uint256[]"
        }
      ],
      "stateMutability": "view",
      "type": "function"
    },
    {
      "inputs": [
        {
          "components": [
            {
              "internalType": "contract IERC721",
              "name": "tokenAddress",
              "type": "address"
            },
            {
              "internalType": "uint8",
              "name": "limit",
              "type": "uint8"
            },
            {
              "internalType": "uint256",
              "name": "pageNumber",
              "type": "uint256"
            },
            {
              "internalType": "uint8",
              "name": "trait",
              "type": "uint8"
            },
            {
              "internalType": "uint8",
              "name": "minLevel",
              "type": "uint8"
            },
            {
              "internalType": "uint8",
              "name": "maxLevel",
              "type": "uint8"
            },
            {
              "internalType": "uint8",
              "name": "class",
              "type": "uint8"
            },
            {
              "internalType": "uint8",
              "name": "characterType",
              "type": "uint8"
            },
            {
              "internalType": "uint8",
              "name": "holographic",
              "type": "uint8"
            }
          ],
          "internalType": "struct NFTMarket.CharactersFilter",
          "name": "filter",
          "type": "tuple"
        }
      ],
      "name": "getCharacterListingIDsPage",
      "outputs": [
        {
          "internalType": "uint256[]",
          "name": "",
          "type": "uint256[]"
        }
      ],
      "stateMutability": "view",
      "type": "function"
    },
    {
      "inputs": [
        {
          "internalType": "contract IERC721",
          "name": "_tokenAddress",
          "type": "address"
        },
        {
          "internalType": "address",
          "name": "_seller",
          "type": "address"
        }
      ],
      "name": "getNumberOfListingsBySeller",
      "outputs": [
        {
          "internalType": "uint256",
          "name": "",
          "type": "uint256"
        }
      ],
      "stateMutability": "view",
      "type": "function"
    },
    {
      "inputs": [
        {
          "internalType": "contract IERC721",
          "name": "_tokenAddress",
          "type": "address"
        },
        {
          "internalType": "address",
          "name": "_seller",
          "type": "address"
        }
      ],
      "name": "getListingIDsBySeller",
      "outputs": [
        {
          "internalType": "uint256[]",
          "name": "tokens",
          "type": "uint256[]"
        }
      ],
      "stateMutability": "view",
      "type": "function"
    },
    {
      "inputs": [
        {
          "internalType": "contract IERC721",
          "name": "_tokenAddress",
          "type": "address"
        }
      ],
      "name": "getNumberOfListingsForToken",
      "outputs": [
        {
          "internalType": "uint256",
          "name": "",
          "type": "uint256"
        }
      ],
      "stateMutability": "view",
      "type": "function"
    },
    {
      "inputs": [
        {
          "components": [
            {
              "internalType": "contract IERC721",
              "name": "tokenAddress",
              "type": "address"
            },
            {
              "internalType": "uint8",
              "name": "limit",
              "type": "uint8"
            },
            {
              "internalType": "uint256",
              "name": "pageNumber",
              "type": "uint256"
            },
            {
              "internalType": "uint8",
              "name": "trait",
              "type": "uint8"
            },
            {
              "internalType": "uint8",
              "name": "minLevel",
              "type": "uint8"
            },
            {
              "internalType": "uint8",
              "name": "maxLevel",
              "type": "uint8"
            },
            {
              "internalType": "uint8",
              "name": "class",
              "type": "uint8"
            },
            {
              "internalType": "uint8",
              "name": "characterType",
              "type": "uint8"
            },
            {
              "internalType": "uint8",
              "name": "holographic",
              "type": "uint8"
            }
          ],
          "internalType": "struct NFTMarket.CharactersFilter",
          "name": "filter",
          "type": "tuple"
        }
      ],
      "name": "getNumberOfCharacterListings",
      "outputs": [
        {
          "internalType": "uint256",
          "name": "",
          "type": "uint256"
        }
      ],
      "stateMutability": "view",
      "type": "function"
    },
    {
      "inputs": [
        {
          "components": [
            {
              "internalType": "contract IERC721",
              "name": "tokenAddress",
              "type": "address"
            },
            {
              "internalType": "uint8",
              "name": "limit",
              "type": "uint8"
            },
            {
              "internalType": "uint256",
              "name": "pageNumber",
              "type": "uint256"
            },
            {
              "internalType": "uint8",
              "name": "element",
              "type": "uint8"
            },
            {
              "internalType": "uint8",
              "name": "quality",
              "type": "uint8"
            },
            {
              "internalType": "uint8",
              "name": "gunType",
              "type": "uint8"
            },
            {
              "internalType": "uint8",
              "name": "holographic",
              "type": "uint8"
            }
          ],
          "internalType": "struct NFTMarket.WeaponsFilter",
          "name": "filter",
          "type": "tuple"
        }
      ],
      "name": "getNumberOfWeaponListings",
      "outputs": [
        {
          "internalType": "uint256",
          "name": "",
          "type": "uint256"
        }
      ],
      "stateMutability": "view",
      "type": "function"
    },
    {
      "inputs": [
        {
          "internalType": "contract IERC721",
          "name": "_tokenAddress",
          "type": "address"
        },
        {
          "internalType": "uint256",
          "name": "_id",
          "type": "uint256"
        }
      ],
      "name": "getSellerPrice",
      "outputs": [
        {
          "internalType": "uint256",
          "name": "",
          "type": "uint256"
        }
      ],
      "stateMutability": "view",
      "type": "function"
    },
    {
      "inputs": [
        {
          "internalType": "contract IERC721",
          "name": "_tokenAddress",
          "type": "address"
        },
        {
          "internalType": "uint256",
          "name": "_id",
          "type": "uint256"
        }
      ],
      "name": "getFinalPrice",
      "outputs": [
        {
          "internalType": "uint256",
          "name": "",
          "type": "uint256"
        }
      ],
      "stateMutability": "view",
      "type": "function"
    },
    {
      "inputs": [
        {
          "internalType": "contract IERC721",
          "name": "_tokenAddress",
          "type": "address"
        },
        {
          "internalType": "uint256",
          "name": "_id",
          "type": "uint256"
        }
      ],
      "name": "getTaxOnListing",
      "outputs": [
        {
          "internalType": "uint256",
          "name": "",
          "type": "uint256"
        }
      ],
      "stateMutability": "view",
      "type": "function"
    },
    {
      "inputs": [
        {
          "internalType": "contract IERC721",
          "name": "_tokenAddress",
          "type": "address"
        },
        {
          "internalType": "uint256",
          "name": "_id",
          "type": "uint256"
        }
      ],
      "name": "getTargetBuyer",
      "outputs": [
        {
          "internalType": "address",
          "name": "",
          "type": "address"
        }
      ],
      "stateMutability": "view",
      "type": "function"
    },
    {
      "inputs": [
        {
          "internalType": "contract IERC721",
          "name": "_tokenAddress",
          "type": "address"
        },
        {
          "internalType": "uint256",
          "name": "start",
          "type": "uint256"
        },
        {
          "internalType": "uint256",
          "name": "length",
          "type": "uint256"
        }
      ],
      "name": "getListingSlice",
      "outputs": [
        {
          "internalType": "uint256",
          "name": "returnedCount",
          "type": "uint256"
        },
        {
          "internalType": "uint256[]",
          "name": "ids",
          "type": "uint256[]"
        },
        {
          "internalType": "address[]",
          "name": "sellers",
          "type": "address[]"
        },
        {
          "internalType": "uint256[]",
          "name": "prices",
          "type": "uint256[]"
        }
      ],
      "stateMutability": "view",
      "type": "function"
    },
    {
      "inputs": [
        {
          "internalType": "contract IERC721",
          "name": "_tokenAddress",
          "type": "address"
        },
        {
          "internalType": "uint256",
          "name": "_id",
          "type": "uint256"
        },
        {
          "internalType": "uint256",
          "name": "_price",
          "type": "uint256"
        },
        {
          "internalType": "address",
          "name": "_targetBuyer",
          "type": "address"
        }
      ],
      "name": "addListing",
      "outputs": [],
      "stateMutability": "nonpayable",
      "type": "function"
    },
    {
      "inputs": [
        {
          "internalType": "contract IERC721",
          "name": "_tokenAddress",
          "type": "address"
        },
        {
          "internalType": "uint256",
          "name": "_id",
          "type": "uint256"
        },
        {
          "internalType": "uint256",
          "name": "_newPrice",
          "type": "uint256"
        }
      ],
      "name": "changeListingPrice",
      "outputs": [],
      "stateMutability": "nonpayable",
      "type": "function"
    },
    {
      "inputs": [
        {
          "internalType": "contract IERC721",
          "name": "_tokenAddress",
          "type": "address"
        },
        {
          "internalType": "uint256",
          "name": "_id",
          "type": "uint256"
        },
        {
          "internalType": "address",
          "name": "_newTargetBuyer",
          "type": "address"
        }
      ],
      "name": "changeListingTargetBuyer",
      "outputs": [],
      "stateMutability": "nonpayable",
      "type": "function"
    },
    {
      "inputs": [
        {
          "internalType": "contract IERC721",
          "name": "_tokenAddress",
          "type": "address"
        },
        {
          "internalType": "uint256",
          "name": "_id",
          "type": "uint256"
        }
      ],
      "name": "cancelListing",
      "outputs": [],
      "stateMutability": "nonpayable",
      "type": "function"
    },
    {
      "inputs": [
        {
          "internalType": "contract IERC721",
          "name": "_tokenAddress",
          "type": "address"
        },
        {
          "internalType": "uint256",
          "name": "_id",
          "type": "uint256"
        },
        {
          "internalType": "uint256",
          "name": "_maxPrice",
          "type": "uint256"
        }
      ],
      "name": "purchaseListing",
      "outputs": [],
      "stateMutability": "nonpayable",
      "type": "function"
    },
    {
      "inputs": [
        {
          "internalType": "uint256",
          "name": "cents",
          "type": "uint256"
        }
      ],
      "name": "setAddValue",
      "outputs": [],
      "stateMutability": "nonpayable",
      "type": "function"
    },
    {
      "inputs": [
        {
          "internalType": "uint256",
          "name": "cents",
          "type": "uint256"
        }
      ],
      "name": "setChangeValue",
      "outputs": [],
      "stateMutability": "nonpayable",
      "type": "function"
    },
    {
      "inputs": [
        {
          "internalType": "address",
          "name": "_taxRecipient",
          "type": "address"
        }
      ],
      "name": "setTaxRecipient",
      "outputs": [],
      "stateMutability": "nonpayable",
      "type": "function"
    },
    {
      "inputs": [
        {
          "internalType": "int128",
          "name": "_defaultTax",
          "type": "int128"
        }
      ],
      "name": "setDefaultTax",
      "outputs": [],
      "stateMutability": "nonpayable",
      "type": "function"
    },
    {
      "inputs": [
        {
          "internalType": "uint256",
          "name": "_numerator",
          "type": "uint256"
        },
        {
          "internalType": "uint256",
          "name": "_denominator",
          "type": "uint256"
        }
      ],
      "name": "setDefaultTaxAsRational",
      "outputs": [],
      "stateMutability": "nonpayable",
      "type": "function"
    },
    {
      "inputs": [
        {
          "internalType": "uint256",
          "name": "_percent",
          "type": "uint256"
        }
      ],
      "name": "setDefaultTaxAsPercent",
      "outputs": [],
      "stateMutability": "nonpayable",
      "type": "function"
    },
    {
      "inputs": [
        {
          "internalType": "contract IERC721",
          "name": "_tokenAddress",
          "type": "address"
        },
        {
          "internalType": "int128",
          "name": "_newTax",
          "type": "int128"
        }
      ],
      "name": "setTaxOnTokenType",
      "outputs": [],
      "stateMutability": "nonpayable",
      "type": "function"
    },
    {
      "inputs": [
        {
          "internalType": "contract IERC721",
          "name": "_tokenAddress",
          "type": "address"
        },
        {
          "internalType": "uint256",
          "name": "_numerator",
          "type": "uint256"
        },
        {
          "internalType": "uint256",
          "name": "_denominator",
          "type": "uint256"
        }
      ],
      "name": "setTaxOnTokenTypeAsRational",
      "outputs": [],
      "stateMutability": "nonpayable",
      "type": "function"
    },
    {
      "inputs": [
        {
          "internalType": "contract IERC721",
          "name": "_tokenAddress",
          "type": "address"
        },
        {
          "internalType": "uint256",
          "name": "_percent",
          "type": "uint256"
        }
      ],
      "name": "setTaxOnTokenTypeAsPercent",
      "outputs": [],
      "stateMutability": "nonpayable",
      "type": "function"
    },
    {
      "inputs": [
        {
          "internalType": "contract IERC721",
          "name": "_tokenAddress",
          "type": "address"
        },
        {
          "internalType": "uint256",
          "name": "_id",
          "type": "uint256"
        }
      ],
      "name": "unlistItem",
      "outputs": [],
      "stateMutability": "nonpayable",
      "type": "function"
    },
    {
      "inputs": [
        {
          "internalType": "contract IERC721",
          "name": "_tokenAddress",
          "type": "address"
        },
        {
          "internalType": "uint256[]",
          "name": "_ids",
          "type": "uint256[]"
        }
      ],
      "name": "unlistItems",
      "outputs": [],
      "stateMutability": "nonpayable",
      "type": "function"
    },
    {
      "inputs": [
        {
          "internalType": "contract IERC721",
          "name": "_tokenAddress",
          "type": "address"
        }
      ],
      "name": "allowToken",
      "outputs": [],
      "stateMutability": "nonpayable",
      "type": "function"
    },
    {
      "inputs": [
        {
          "internalType": "contract IERC721",
          "name": "_tokenAddress",
          "type": "address"
        }
      ],
      "name": "disallowToken",
      "outputs": [],
      "stateMutability": "nonpayable",
      "type": "function"
    },
    {
      "inputs": [
        {
          "internalType": "uint256",
          "name": "amount",
          "type": "uint256"
        }
      ],
      "name": "recovertag",
      "outputs": [],
      "stateMutability": "nonpayable",
      "type": "function"
    },
    {
      "inputs": [
        {
          "internalType": "int128",
          "name": "usdAmount",
          "type": "int128"
        }
      ],
      "name": "usdTotag",
      "outputs": [
        {
          "internalType": "uint256",
          "name": "",
          "type": "uint256"
        }
      ],
      "stateMutability": "view",
      "type": "function"
    },
    {
      "inputs": [
        {
          "internalType": "address",
          "name": "",
          "type": "address"
        },
        {
          "internalType": "address",
          "name": "",
          "type": "address"
        },
        {
          "internalType": "uint256",
          "name": "_id",
          "type": "uint256"
        },
        {
          "internalType": "bytes",
          "name": "",
          "type": "bytes"
        }
      ],
      "name": "onERC721Received",
      "outputs": [
        {
          "internalType": "bytes4",
          "name": "",
          "type": "bytes4"
        }
      ],
      "stateMutability": "nonpayable",
      "type": "function"
    }
  ],
  "bytecode": "0x608060405234801561001057600080fd5b50613e54806100206000396000f3fe608060405234801561001057600080fd5b50600436106103975760003560e01c806374c7b328116101e9578063b53472ef1161010f578063d547741f116100ad578063e79767af1161007c578063e79767af146107ae578063ed9999ca146107c1578063f599eb72146107d4578063f9eaee0d146107e757610397565b8063d547741f1461076d578063d739d8bc14610780578063d9db220d14610793578063e4ca10dc146107a657610397565b8063c573a97e116100e9578063c573a97e14610721578063ca15c87314610734578063cc8efb1414610747578063d23727a31461075a57610397565b8063b53472ef146106e8578063bb782e73146106fb578063bf57204f1461070e57610397565b80639010d07c11610187578063a217fddf11610156578063a217fddf146106a7578063a5bc3632146106af578063a6f95726146106c2578063b2ddee06146106d557610397565b80639010d07c1461064e57806391d148541461066157806399bd17e4146106815780639ed9b4fd1461069457610397565b80637899d80f116101c35780637899d80f1461060257806378e3079e146106155780637ff57c571461062857806386c51fa91461063b57610397565b806374c7b328146105c9578063751ddc60146105dc5780637647abda146105ef57610397565b8063346710fd116102ce578063534be8fb1161026c578063633948f01161023b578063633948f01461059e5780636891de07146105b15780637286a07c146105b9578063737ea06e146105c157610397565b8063534be8fb14610568578063546b45ac1461057b5780635504d3d21461058e57806357fbf8a81461059657610397565b806337972d9b116102a857806337972d9b1461051c5780633b75a46a1461052f578063485cc95514610542578063490df5301461055557610397565b8063346710fd146104d657806335e0406f146104e957806336568abe1461050957610397565b8063248a9ca31161033b5780632c2dea77116103155780632c2dea77146104955780632df8c04a146104a85780632f2ff15d146104bb5780632f48f151146104ce57610397565b8063248a9ca31461044f5780632731447314610462578063281fb1651461048257610397565b8063150b7a0211610377578063150b7a02146103e25780631a10c902146104025780631ac0bab0146104175780631eb788f51461042c57610397565b80621e91871461039c57806240ff6c146103c55780630bb99c57146103da575b600080fd5b6103af6103aa36600461341a565b6107fa565b6040516103bc9190613939565b60405180910390f35b6103cd610828565b6040516103bc9190613957565b6103cd610838565b6103f56103f0366004613215565b610841565b6040516103bc9190613942565b61040a6108bc565b6040516103bc91906138ce565b61042a6104253660046132d1565b61095b565b005b61043f61043a366004613486565b6109c7565b6040516103bc9493929190613d6b565b6103af61045d3660046132d1565b610bad565b61047561047036600461341a565b610bc2565b6040516103bc919061387d565b61047561049036600461341a565b610c3e565b61042a6104a3366004613445565b610c66565b6103af6104b636600461341a565b610d8d565b61042a6104c93660046132e9565b610dc3565b6103cd610e0b565b61042a6104e43660046134ba565b610e14565b6104fc6104f73660046131f9565b611006565b6040516103bc919061391b565b61042a6105173660046132e9565b6110b0565b6103af61052a3660046135db565b6110f2565b61042a61053d366004613503565b61114b565b61042a610550366004613339565b61119d565b61042a6105633660046132d1565b611296565b61042a610576366004613366565b611315565b6103af610589366004613339565b6113e8565b6103af611479565b610475611490565b6104fc6105ac36600461351e565b61149f565b6103af611510565b610475611533565b610475611542565b61042a6105d73660046133e5565b611551565b6103af6105ea366004613503565b6115a1565b6103af6105fd36600461351e565b61163d565b6103cd6106103660046131f9565b611696565b61042a6106233660046131f9565b6116ab565b61042a610636366004613339565b6116f8565b61042a61064936600461341a565b61174d565b61047561065c366004613318565b6117a7565b61067461066f3660046132e9565b6117c5565b6040516103bc919061392e565b61042a61068f36600461341a565b6117e3565b6106746106a23660046131f9565b61185d565b6103af611872565b61042a6106bd366004613486565b611877565b61042a6106d0366004613486565b6118cb565b61042a6106e336600461341a565b611bdc565b61042a6106f63660046131f9565b611d92565b6106746107093660046131f9565b611de9565b6104fc61071c3660046135db565b611dfe565b61042a61072f366004613318565b611e66565b6103af6107423660046132d1565b611ec4565b6103af6107553660046131f9565b611edb565b61042a6107683660046132d1565b611efc565b61042a61077b3660046132e9565b611f7f565b6104fc61078e366004613339565b611fb9565b6103af6107a136600461341a565b6120af565b61040a6120d4565b61042a6107bc3660046131f9565b61216c565b61042a6107cf366004613486565b6121a8565b61042a6107e23660046132d1565b6122ac565b6106746107f53660046131f9565b61235b565b6001600160a01b03821660009081526067602090815260408083208484529091529020600101545b92915050565b607554600160801b9004600f0b81565b606f54600f0b81565b60003361085560698263ffffffff61236e16565b801561088457506001600160a01b0381166000908152606860205260409020610884908663ffffffff61238316565b6108a95760405162461bcd60e51b81526004016108a090613bbf565b60405180910390fd5b50630a85bd0160e11b9695505050505050565b60606070816108ca8261238f565b6001600160401b03811180156108df57600080fd5b50604051908082528060200260200182016040528015610909578160200160208202803683370190505b50905060005b815181101561095457610928838263ffffffff61239a16565b82828151811061093457fe5b6001600160a01b039092166020928302919091019091015260010161090f565b5091505090565b61097860405161096a90613867565b6040518091039020336117c5565b6109945760405162461bcd60e51b81526004016108a090613c17565b61099f8160646123a6565b606f8054600f9290920b6001600160801b03166001600160801b031990921691909117905550565b8060608080836001600160401b03811180156109e257600080fd5b50604051908082528060200260200182016040528015610a0c578160200160208202803683370190505b509250846001600160401b0381118015610a2557600080fd5b50604051908082528060200260200182016040528015610a4f578160200160208202803683370190505b509150846001600160401b0381118015610a6857600080fd5b50604051908082528060200260200182016040528015610a92578160200160208202803683370190505b506001600160a01b038816600090815260686020526040812091925090875b878901811015610ba057610ac48261238f565b8110610ad55750909450610ba49050565b6000610ae7838363ffffffff61239a16565b9050610af1613198565b506001600160a01b03808c1660009081526067602090815260408083208584528252918290208251808401909352805490931682526001909201549181019190915287518290899087908110610b4357fe5b6020026020010181815250508060000151878681518110610b6057fe5b6001600160a01b039092166020928302919091018201528101518651600187019688918110610b8b57fe5b60209081029190910101525050600101610ab1565b5050505b93509350935093565b60009081526033602052604090206002015490565b6000610bd560698463ffffffff61236e16565b610be157506000610822565b6001600160a01b0383166000908152606860205260409020610c09908363ffffffff61238316565b610c1557506000610822565b506001600160a01b03918216600090815260676020908152604080832093835292905220541690565b6001600160a01b03918216600090815260766020908152604080832093835292905220541690565b8282610c7960698363ffffffff61236e16565b8015610ca857506001600160a01b0382166000908152606860205260409020610ca8908263ffffffff61238316565b610cc45760405162461bcd60e51b81526004016108a090613bbf565b6001600160a01b03808616600090815260676020908152604080832088845290915290205486918691163314610d0c5760405162461bcd60e51b81526004016108a090613cbb565b6001600160a01b0387811660008181526076602090815260408083208b84529091529081902080546001600160a01b03191693891693909317909255905187919033907faa79ba781ed370c2a15b6fe1a86316cab25598fecac3329356cc3f5557c8bae690610d7c908a9061387d565b60405180910390a450505050505050565b6001600160a01b0382166000908152606d6020526040812054610dbc90600f0b610db785856107fa565b6123e6565b9392505050565b600082815260336020526040902060020154610de19061066f61244e565b610dfd5760405162461bcd60e51b81526004016108a0906139d5565b610e078282612452565b5050565b607554600f0b81565b83610e1e8161235b565b610e3a5760405162461bcd60e51b81526004016108a090613c74565b84610e4c816380ac58cd60e01b6124c1565b610e5557600080fd5b8585610e6860698363ffffffff61236e16565b1580610e9957506001600160a01b0382166000908152606860205260409020610e97908263ffffffff61238316565b155b610eb55760405162461bcd60e51b81526004016108a090613a24565b60408051808201825233815260208082018981526001600160a01b038c81166000818152606785528681208e82528552868120955186549084166001600160a01b03199182161787559351600190960195909555808552607684528585208d865284528585208054928c16929093169190911790915582526068905220610f42908863ffffffff6124dd16565b50610f4c886124e9565b604051632142170760e11b81526001600160a01b038916906342842e0e90610f7c90339030908c90600401613891565b600060405180830381600087803b158015610f9657600080fd5b505af1158015610faa573d6000803e3d6000fd5b5050505086886001600160a01b0316336001600160a01b03167f5949a8af96064ae9b490d9118c3636906cab7e3b2c46530c7e2b5ff9f8a297e18989604051610ff4929190613d54565b60405180910390a45050505050505050565b6001600160a01b03811660009081526068602052604090206060908161102b8261238f565b6001600160401b038111801561104057600080fd5b5060405190808252806020026020018201604052801561106a578160200160208202803683370190505b50905060005b81518110156110a857611089838263ffffffff61239a16565b82828151811061109557fe5b6020908102919091010152600101611070565b509392505050565b6110b861244e565b6001600160a01b0316816001600160a01b0316146110e85760405162461bcd60e51b81526004016108a090613d05565b610e07828261252a565b80516001600160a01b0316600090815260686020526040812081805b6111178361238f565b8110156110a857611137611131848363ffffffff61239a16565b86612599565b15611143576001909101905b60010161110e565b61115a60405161096a90613867565b6111765760405162461bcd60e51b81526004016108a090613c17565b606f8054600f9290920b6001600160801b03166001600160801b0319909216919091179055565b600054610100900460ff16806111b657506111b66126db565b806111c4575060005460ff16155b6111e05760405162461bcd60e51b81526004016108a090613b71565b600054610100900460ff1615801561120b576000805460ff1961ff0019909116610100171660011790555b6112136126ec565b61121e600033610dfd565b606580546001600160a01b038086166001600160a01b031992831617909255606680549285169290911691909117905561125a6001600a6123a6565b606f8054600f9290920b6001600160801b03166001600160801b03199092169190911790558015611291576000805461ff00191690555b505050565b6112a560405161096a90613867565b6112c15760405162461bcd60e51b81526004016108a090613c17565b60648111156112e25760405162461bcd60e51b81526004016108a090613bec565b6112ed8160646123a6565b60758054600f9290920b6001600160801b03166001600160801b031990921691909117905550565b61132460405161096a90613867565b6113405760405162461bcd60e51b81526004016108a090613c17565b60005b818110156113e2576001600160a01b03841660009081526067602052604081209084848481811061137057fe5b60209081029290920135835250810191909152604001600090812080546001600160a01b0319168155600101556113d98383838181106113ac57fe5b6001600160a01b03881660009081526068602090815260409091209391020135905063ffffffff61277e16565b50600101611343565b50505050565b6001600160a01b038216600090815260686020526040812081805b61140c8361238f565b811015611470576001600160a01b0386811660009081526067602052604081209187169190611441868563ffffffff61239a16565b81526020810191909152604001600020546001600160a01b03161415611468576001909101905b600101611403565b50949350505050565b60405161148590613867565b604051809103902081565b6065546001600160a01b031681565b606060006114ac8361163d565b905060008360400151600101846020015160ff160290506000818310156114f157604085015160208601516114ec91859160ff160263ffffffff61278a16565b6114fa565b846020015160ff165b90506115078582846127b2565b95945050505050565b606f5460009061152e90600f90810b900b606463ffffffff6123e616565b905090565b6074546001600160a01b031681565b6066546001600160a01b031681565b61156060405161096a90613867565b61157c5760405162461bcd60e51b81526004016108a090613c17565b8161158e816380ac58cd60e01b6124c1565b61159757600080fd5b61129183836128ad565b6000610822607460009054906101000a90046001600160a01b03166001600160a01b0316639d1b464a6040518163ffffffff1660e01b815260040160206040518083038186803b1580156115f457600080fd5b505afa158015611608573d6000803e3d6000fd5b505050506040513d601f19601f8201168201806040525081019061162c91906137dc565b600f84900b9063ffffffff6123e616565b80516001600160a01b0316600090815260686020526040812081805b6116628361238f565b8110156110a85761168261167c848363ffffffff61239a16565b86612927565b1561168e576001909101905b600101611659565b606d60205260009081526040902054600f0b81565b6116ba60405161096a90613867565b6116d65760405162461bcd60e51b81526004016108a090613c17565b606680546001600160a01b0319166001600160a01b0392909216919091179055565b6117036000336117c5565b61171f5760405162461bcd60e51b81526004016108a090613ce2565b607380546001600160a01b039384166001600160a01b03199182161790915560728054929093169116179055565b61175c60405161096a90613867565b6117785760405162461bcd60e51b81526004016108a090613c17565b8161178a816380ac58cd60e01b6124c1565b61179357600080fd5b611291836117a28460646123a6565b6128ad565b6000828152603360205260408120610dbc908363ffffffff61239a16565b6000828152603360205260408120610dbc908363ffffffff61236e16565b6117f260405161096a90613867565b61180e5760405162461bcd60e51b81526004016108a090613c17565b6001600160a01b0382166000818152606760209081526040808320858452825280832080546001600160a01b03191681556001018390559282526068905220611291908263ffffffff61277e16565b606c6020526000908152604090205460ff1681565b600081565b61188660405161096a90613867565b6118a25760405162461bcd60e51b81526004016108a090613c17565b826118b4816380ac58cd60e01b6124c1565b6118bd57600080fd5b6113e2846117a285856123a6565b82826118de60698363ffffffff61236e16565b801561190d57506001600160a01b038216600090815260686020526040902061190d908263ffffffff61238316565b6119295760405162461bcd60e51b81526004016108a090613bbf565b6001600160a01b0380861660009081526076602090815260408083208884529091529020548691869116158061198357506001600160a01b0382811660009081526076602090815260408083208584529091529020541633145b61199f5760405162461bcd60e51b81526004016108a090613b47565b60006119ab88886120af565b9050858111156119cd5760405162461bcd60e51b81526004016108a0906139a7565b6119d5613198565b506001600160a01b0380891660009081526067602090815260408083208b8452825280832081518083019092528054909416815260019093015490830152611a1d8a8a610d8d565b6001600160a01b038b1660008181526067602090815260408083208e8452825280832080546001600160a01b03191681556001018390559282526068905220909150611a6f908a63ffffffff61277e16565b50611a798a6124e9565b611a8281612acf565b60655482516001600160a01b03909116906323b872dd903390611aab878663ffffffff61278a16565b6040518463ffffffff1660e01b8152600401611ac993929190613891565b602060405180830381600087803b158015611ae357600080fd5b505af1158015611af7573d6000803e3d6000fd5b505050506040513d601f19601f82011682018060405250810190611b1b91906132b1565b50604051632142170760e11b81526001600160a01b038b16906342842e0e90611b4c90309033908e90600401613891565b600060405180830381600087803b158015611b6657600080fd5b505af1158015611b7a573d6000803e3d6000fd5b50505050888a6001600160a01b0316336001600160a01b03167f7762d23dc0afc60972698afa4f7ab7e5853e961dad5c968fe29b0fd3b14fffb5856000015187604051611bc89291906138b5565b60405180910390a450505050505050505050565b8181611bef60698363ffffffff61236e16565b8015611c1e57506001600160a01b0382166000908152606860205260409020611c1e908263ffffffff61238316565b611c3a5760405162461bcd60e51b81526004016108a090613bbf565b6001600160a01b0380851660009081526067602090815260408083208784529091529020548591859116331480611c7b5750611c7b60405161096a90613867565b611c975760405162461bcd60e51b81526004016108a090613cbb565b6001600160a01b0386166000818152606760209081526040808320898452825280832080546001600160a01b03191681556001018390559282526068905220611ce6908663ffffffff61277e16565b50611cf0866124e9565b604051632142170760e11b81526001600160a01b038716906342842e0e90611d2090309033908a90600401613891565b600060405180830381600087803b158015611d3a57600080fd5b505af1158015611d4e573d6000803e3d6000fd5b50506040518792506001600160a01b038916915033907fd66e7fc4b7515678684c4cbafb29ad2dbe872f0d8913ac2227c7cfead5d6923490600090a4505050505050565b611da160405161096a90613867565b611dbd5760405162461bcd60e51b81526004016108a090613c17565b80611dcf816380ac58cd60e01b6124c1565b611dd857600080fd5b61129160708363ffffffff612b0816565b606b6020526000908152604090205460ff1681565b60606000611e0b836110f2565b905060008360400151600101846020015160ff16029050600081831015611e505760408501516020860151611e4b91859160ff160263ffffffff61278a16565b611e59565b846020015160ff165b9050611507858383612b1d565b611e7560405161096a90613867565b611e915760405162461bcd60e51b81526004016108a090613c17565b611e9b82826123a6565b606f8054600f9290920b6001600160801b03166001600160801b03199092169190911790555050565b60008181526033602052604081206108229061238f565b6001600160a01b03811660009081526068602052604081206108229061238f565b611f0b60405161096a90613867565b611f275760405162461bcd60e51b81526004016108a090613c17565b6064811115611f485760405162461bcd60e51b81526004016108a090613a5b565b611f538160646123a6565b607560106101000a8154816001600160801b030219169083600f0b6001600160801b0316021790555050565b600082815260336020526040902060020154611f9d9061066f61244e565b6110e85760405162461bcd60e51b81526004016108a090613af7565b60606000611fc784846113e8565b9050806001600160401b0381118015611fdf57600080fd5b50604051908082528060200260200182016040528015612009578160200160208202803683370190505b506001600160a01b0385166000908152606860205260408120919350805b6120308361238f565b8110156120a5576000612049848363ffffffff61239a16565b6001600160a01b0389811660009081526067602090815260408083208584529091529020549192508881169116141561209c578086848060010195508151811061208f57fe5b6020026020010181815250505b50600101612027565b5050505092915050565b6000610dbc6120be8484610d8d565b6120c885856107fa565b9063ffffffff612c0b16565b60606069816120e28261238f565b6001600160401b03811180156120f757600080fd5b50604051908082528060200260200182016040528015612121578160200160208202803683370190505b50905060005b815181101561095457612140838263ffffffff61239a16565b82828151811061214c57fe5b6001600160a01b0390921660209283029190910190910152600101612127565b61217b60405161096a90613867565b6121975760405162461bcd60e51b81526004016108a090613c17565b610e0760708263ffffffff612c3016565b82826121bb60698363ffffffff61236e16565b80156121ea57506001600160a01b03821660009081526068602052604090206121ea908263ffffffff61238316565b6122065760405162461bcd60e51b81526004016108a090613bbf565b6001600160a01b0380861660009081526067602090815260408083208884529091529020548691869116331461224e5760405162461bcd60e51b81526004016108a090613cbb565b6001600160a01b03871660008181526067602090815260408083208a8452909152908190206001018790555187919033907f35717041cfb73c9917e328a2cdd6bae61d669e3c8b024b049188bb5cd35d00cb90610d7c908a90613939565b6122bb60405161096a90613867565b6122d75760405162461bcd60e51b81526004016108a090613c17565b60655460405163a9059cbb60e01b81526001600160a01b039091169063a9059cbb9061230990339085906004016138b5565b602060405180830381600087803b15801561232357600080fd5b505af1158015612337573d6000803e3d6000fd5b505050506040513d601f19601f82011682018060405250810190610e0791906132b1565b600061082260708363ffffffff61236e16565b6000610dbc836001600160a01b038416612c45565b6000610dbc8383612c45565b600061082282612c5d565b6000610dbc8383612c61565b6000816123b257600080fd5b60006123be8484612ca6565b90506f7fffffffffffffffffffffffffffffff6001600160801b0382161115610dbc57600080fd5b6000816123f557506000610822565b600083600f0b121561240657600080fd5b600f83900b6001600160801b038316810260401c90608084901c026001600160c01b0381111561243557600080fd5b60401b811981111561244657600080fd5b019392505050565b3390565b6000828152603360205260409020612470908263ffffffff612b0816565b15610e075761247d61244e565b6001600160a01b0316816001600160a01b0316837f2f8788117e7eff1d82e926ec794901d17c78024a50270940304540a733656f0d60405160405180910390a45050565b60006124cc83612df0565b8015610dbc5750610dbc8383612e23565b6000610dbc8383612e46565b6001600160a01b038116600090815260686020526040812061250a9061238f565b111561251e5761251981612e90565b612527565b61252781612f45565b50565b6000828152603360205260409020612548908263ffffffff612c3016565b15610e075761255561244e565b6001600160a01b0316816001600160a01b0316837ff6391f5c32d9c69d2a47ea670b442974b53935d1edc7fd64eb21e047a839171b60405160405180910390a45050565b607254604051634a83e9cd60e11b815260009182918291829182916001600160a01b031690639507d39a906125d2908a90600401613939565b6101006040518083038186803b1580156125eb57600080fd5b505afa1580156125ff573d6000803e3d6000fd5b505050506040513d601f19601f820116820180604052508101906126239190613673565b975050965096509650505050600060ff90508060ff168760a0015160ff16148061265657508660a0015160ff168560ff16145b801561267e57508060ff16876060015160ff16148061267e5750866060015160ff168460ff16145b80156126a657508060ff16876080015160ff1614806126a65750866080015160ff168360ff16145b80156126cf57508060ff168760c0015160ff1614806126cf575060c087015160ff161515821515145b98975050505050505050565b60006126e630612f56565b15905090565b600054610100900460ff168061270557506127056126db565b80612713575060005460ff16155b61272f5760405162461bcd60e51b81526004016108a090613b71565b600054610100900460ff1615801561275a576000805460ff1961ff0019909116610100171660011790555b612762612f5c565b61276a612f5c565b8015612527576000805461ff001916905550565b6000610dbc8383612fdd565b6000828211156127ac5760405162461bcd60e51b81526004016108a090613ac0565b50900390565b82516001600160a01b0316600090815260686020526040902060609081846001600160401b03811180156127e557600080fd5b5060405190808252806020026020018201604052801561280f578160200160208202803683370190505b509050600080805b6128208561238f565b8110801561282d57508683105b156128a05761284b612845868363ffffffff61239a16565b8a612927565b1561289857886020015160ff168703831061289157612870858263ffffffff61239a16565b848360ff168151811061287f57fe5b60209081029190910101526001909101905b6001909201915b600101612817565b5091979650505050505050565b600081600f0b12156128d15760405162461bcd60e51b81526004016108a090613c3f565b6001600160a01b03919091166000908152606d6020908152604080832080546001600160801b0319166001600160801b03600f9690960b958616179055606e90915290208054911560ff19909216919091179055565b607354604051634a83e9cd60e11b8152600091829182918291829182916001600160a01b0390911690639507d39a90612964908b90600401613939565b6101206040518083038186803b15801561297d57600080fd5b505afa158015612991573d6000803e3d6000fd5b505050506040513d601f19601f820116820180604052508101906129b5919061371a565b9850509750509650965096505050600060ff90508060ff16886060015160ff1614806129ea5750876060015160ff168560ff16145b8015612a1257508060ff168860c0015160ff161480612a1257508760c0015160ff168460ff16145b8015612a6457508060ff16886080015160ff161480612a3a57508060ff168860a0015160ff16145b80612a645750876080015160ff168660ff1610158015612a6457508760a0015160ff168660ff1611155b8015612a9757508060ff168860e0015160ff161480612a9757508760e0015160ff16836002811115612a9257fe5b60ff16145b8015612ac257508060ff1688610100015160ff161480612ac2575061010088015160ff161515821515145b9998505050505050505050565b6065546066546040516323b872dd60e01b81526001600160a01b03928316926323b872dd92612309923392909116908690600401613891565b6000610dbc836001600160a01b038416612e46565b82516001600160a01b0316600090815260686020526040902060609081836001600160401b0381118015612b5057600080fd5b50604051908082528060200260200182016040528015612b7a578160200160208202803683370190505b509050600080805b612b8b8561238f565b81108015612b9857508783105b156128a057612bb6612bb0868363ffffffff61239a16565b8a612599565b15612c0357886020015160ff1688038310612bfc57612bdb858263ffffffff61239a16565b848360ff1681518110612bea57fe5b60209081029190910101526001909101905b6001909201915b600101612b82565b600082820183811015610dbc5760405162461bcd60e51b81526004016108a090613a89565b6000610dbc836001600160a01b038416612fdd565b60009081526001919091016020526040902054151590565b5490565b81546000908210612c845760405162461bcd60e51b81526004016108a090613965565b826000018281548110612c9357fe5b9060005260206000200154905092915050565b600081612cb257600080fd5b60006001600160c01b038411612cd75782604085901b81612ccf57fe5b049050612ddc565b60c084811c6401000000008110612cf0576020918201911c5b620100008110612d02576010918201911c5b6101008110612d13576008918201911c5b60108110612d23576004918201911c5b60048110612d33576002918201911c5b60028110612d42576001820191505b60bf820360018603901c6001018260ff0387901b81612d5d57fe5b0492506001600160801b03831115612d7457600080fd5b608085901c83026001600160801b038616840260c088901c604089901b82811015612da0576001820391505b608084901b92900382811015612db7576001820391505b829003608084901c8214612dc757fe5b888181612dd057fe5b04870196505050505050505b6001600160801b03811115610dbc57600080fd5b6000612e03826301ffc9a760e01b612e23565b80156108225750612e1c826001600160e01b0319612e23565b1592915050565b6000806000612e3285856130a3565b915091508180156115075750949350505050565b6000612e528383612c45565b612e8857508154600181810184556000848152602080822090930184905584548482528286019093526040902091909155610822565b506000610822565b612ea160698263ffffffff61236e16565b61252757612eb660698263ffffffff612b0816565b506001600160a01b0381166000908152606d6020526040902054600f90810b900b158015612efd57506001600160a01b0381166000908152606e602052604090205460ff16155b1561252757606f546001600160a01b0382166000908152606d602052604090208054600f92830b90920b6001600160801b03166001600160801b031990921691909117905550565b610e0760698263ffffffff612c3016565b3b151590565b600054610100900460ff1680612f755750612f756126db565b80612f83575060005460ff16155b612f9f5760405162461bcd60e51b81526004016108a090613b71565b600054610100900460ff1615801561276a576000805460ff1961ff0019909116610100171660011790558015612527576000805461ff001916905550565b60008181526001830160205260408120548015613099578354600019808301919081019060009087908390811061301057fe5b906000526020600020015490508087600001848154811061302d57fe5b60009182526020808320909101929092558281526001898101909252604090209084019055865487908061305d57fe5b60019003818190600052602060002001600090559055866001016000878152602001908152602001600020600090556001945050505050610822565b6000915050610822565b60008060606301ffc9a760e01b846040516024016130c19190613942565b604051602081830303815290604052906001600160e01b0319166020820180516001600160e01b038381831617835250505050905060006060866001600160a01b031661753084604051613115919061382e565b6000604051808303818686fa925050503d8060008114613151576040519150601f19603f3d011682016040523d82523d6000602084013e613156565b606091505b50915091506020815110156131745760008094509450505050613191565b818180602001905181019061318991906132b1565b945094505050505b9250929050565b604080518082019091526000808252602082015290565b8051801515811461082257600080fd5b803561082281613dfa565b8035600f81900b811461082257600080fd5b805161ffff8116811461082257600080fd5b803561082281613e0f565b60006020828403121561320a578081fd5b8135610dbc81613dfa565b60008060008060006080868803121561322c578081fd5b853561323781613dfa565b9450602086013561324781613dfa565b93506040860135925060608601356001600160401b0380821115613269578283fd5b81880189601f82011261327a578384fd5b803592508183111561328a578384fd5b89602084830101111561329b578384fd5b6020810194505050809150509295509295909350565b6000602082840312156132c2578081fd5b81518015158114610dbc578182fd5b6000602082840312156132e2578081fd5b5035919050565b600080604083850312156132fb578182fd5b82359150602083013561330d81613dfa565b809150509250929050565b6000806040838503121561332a578182fd5b50508035926020909101359150565b6000806040838503121561334b578182fd5b823561335681613dfa565b9150602083013561330d81613dfa565b60008060006040848603121561337a578081fd5b833561338581613dfa565b925060208401356001600160401b03808211156133a0578283fd5b81860187601f8201126133b1578384fd5b80359250818311156133c1578384fd5b87602080850283010111156133d4578384fd5b949760209095019650909450505050565b600080604083850312156133f7578182fd5b823561340281613dfa565b915061341184602085016131ca565b90509250929050565b6000806040838503121561342c578182fd5b823561343781613dfa565b946020939093013593505050565b600080600060608486031215613459578081fd5b833561346481613dfa565b925060208401359150604084013561347b81613dfa565b809150509250925092565b60008060006060848603121561349a578081fd5b83356134a581613dfa565b95602085013595506040909401359392505050565b600080600080608085870312156134cf578182fd5b84356134da81613dfa565b9350602085013592506040850135915060608501356134f881613dfa565b939692955090935050565b600060208284031215613514578081fd5b610dbc83836131ca565b6000610120808385031215613531578182fd5b61353a81613dd4565b61354485856131bf565b815261355385602086016131ee565b60208201526040840135604082015261356f85606086016131ee565b606082015261358185608086016131ee565b60808201526135938560a086016131ee565b60a08201526135a58560c086016131ee565b60c08201526135b78560e086016131ee565b60e082015261010091506135cd858386016131ee565b918101919091529392505050565b600060e082840312156135ec578081fd5b6135f660e0613dd4565b823561360181613dfa565b8152602083013561361181613e0f565b602082015260408381013590820152606083013561362e81613e0f565b6060820152608083013561364181613e0f565b608082015260a083013561365481613e0f565b60a082015260c083013561366781613e0f565b60c08201529392505050565b600080600080600080600080610100898b03121561368f578586fd5b6136998a8a6131dc565b97506136a88a60208b016131dc565b965060408901516136b881613e0f565b60608a01519096506136c981613e0f565b60808a01519095506136da81613e0f565b60a08a01519094506136eb81613e0f565b60c08a01519093506136fc81613e0f565b915061370b8a60e08b016131af565b90509295985092959890939650565b60008060008060008060008060006101208a8c031215613738578283fd5b6137428b8b6131dc565b985060208a015161375281613e0f565b60408b015190985061376381613e0f565b60608b015190975061377481613e0f565b60808b015190965061378581613e0f565b60a08b01519095506001600160401b03811681146137a1578384fd5b60c08b0151909450600381106137b5578384fd5b60e08b015190935091506137cd8b6101008c016131af565b90509295985092959850929598565b6000602082840312156137ed578081fd5b5051919050565b6000815180845260208085019450808401835b8381101561382357815187529582019590820190600101613807565b509495945050505050565b60008251815b8181101561384e5760208186018101518583015201613834565b8181111561385c5782828501525b509190910192915050565b6923a0a6a2afa0a226a4a760b11b8152600a0190565b6001600160a01b0391909116815260200190565b6001600160a01b039384168152919092166020820152604081019190915260600190565b6001600160a01b03929092168252602082015260400190565b6020808252825182820181905260009190848201906040850190845b8181101561390f5783516001600160a01b0316835292840192918401916001016138ea565b50909695505050505050565b600060208252610dbc60208301846137f4565b901515815260200190565b90815260200190565b6001600160e01b031991909116815260200190565b600f9190910b815260200190565b60208082526022908201527f456e756d657261626c655365743a20696e646578206f7574206f6620626f756e604082015261647360f01b606082015260800190565b602080825260149082015273427579696e6720707269636520746f6f206c6f7760601b604082015260600190565b6020808252602f908201527f416363657373436f6e74726f6c3a2073656e646572206d75737420626520616e60408201526e0818591b5a5b881d1bc819dc985b9d608a1b606082015260800190565b6020808252601b908201527f546f6b656e204944206d757374206e6f74206265206c69737465640000000000604082015260600190565b602080825260149082015273086d0c2dccecaacc2d8eaca40e8dede40d0d2ced60631b604082015260600190565b6020808252601b908201527f536166654d6174683a206164646974696f6e206f766572666c6f770000000000604082015260600190565b6020808252601e908201527f536166654d6174683a207375627472616374696f6e206f766572666c6f770000604082015260600190565b60208082526030908201527f416363657373436f6e74726f6c3a2073656e646572206d75737420626520616e60408201526f2061646d696e20746f207265766f6b6560801b606082015260800190565b60208082526010908201526f2737ba103a30b933b2ba10313abcb2b960811b604082015260600190565b6020808252602e908201527f496e697469616c697a61626c653a20636f6e747261637420697320616c72656160408201526d191e481a5b9a5d1a585b1a5e995960921b606082015260800190565b602080825260139082015272151bdad95b881251081b9bdd081b1a5cdd1959606a1b604082015260600190565b602080825260119082015270082c8c8acc2d8eaca40e8dede40d0d2ced607b1b604082015260600190565b6020808252600e908201526d2737ba1033b0b6b29030b236b4b760911b604082015260600190565b6020808252818101527f5765277265206e6f742072756e6e696e67206120636861726974792068657265604082015260600190565b60208082526027908201527f546869732074797065206f66204e4654206d6179206e6f7420626520747261646040820152666564206865726560c81b606082015260800190565b6020808252600d908201526c1058d8d95cdcc819195b9a5959609a1b604082015260600190565b6020808252600990820152682737ba1030b236b4b760b91b604082015260600190565b6020808252602f908201527f416363657373436f6e74726f6c3a2063616e206f6e6c792072656e6f756e636560408201526e103937b632b9903337b91039b2b63360891b606082015260800190565b9182526001600160a01b0316602082015260400190565b60008582526020608081840152613d8560808401876137f4565b8381036040850152855180825282870191830190845b81811015613dc05783516001600160a01b031683529284019291840191600101613d9b565b50508481036060860152612ac281876137f4565b6040518181016001600160401b0381118282101715613df257600080fd5b604052919050565b6001600160a01b038116811461252757600080fd5b60ff8116811461252757600080fdfea264697066735822122090f2076cb57600007c097619e0e7d48b9524aefce4bb060d82b72fd9e6c50ea464736f6c63430006050033",
  "immutableReferences": {},
  "source": "// SPDX-License-Identifier: MIT\npragma solidity ^0.6.0;\npragma experimental ABIEncoderV2;\n\nimport '@openzeppelin/contracts-upgradeable/proxy/Initializable.sol';\nimport '@openzeppelin/contracts-upgradeable/access/AccessControlUpgradeable.sol';\nimport '@openzeppelin/contracts-upgradeable/token/ERC721/IERC721ReceiverUpgradeable.sol';\nimport '@openzeppelin/contracts/utils/EnumerableSet.sol';\nimport '@openzeppelin/contracts/math/SafeMath.sol';\nimport '@openzeppelin/contracts/introspection/ERC165Checker.sol';\nimport '@openzeppelin/contracts/token/ERC20/IERC20.sol';\nimport '@openzeppelin/contracts/token/ERC721/IERC721.sol';\nimport \"@openzeppelin/contracts-upgradeable/token/ERC20/SafeERC20Upgradeable.sol\";\nimport 'abdk-libraries-solidity/ABDKMath64x64.sol';\nimport './interfaces/IPriceOracle.sol';\nimport \"./interfaces/ICharacter.sol\";\nimport './characters.sol';\nimport './weapons.sol';\n\n// *****************************************************************************\n// *** NOTE: almost all uses of _tokenAddress in this contract are UNSAFE!!! ***\n// *****************************************************************************\ncontract NFTMarket is\n    IERC721ReceiverUpgradeable,\n    Initializable,\n    AccessControlUpgradeable,\n    ICharacter\n{\n    using SafeMath for uint256;\n    using ABDKMath64x64 for int128;\n    using EnumerableSet for EnumerableSet.UintSet;\n    using EnumerableSet for EnumerableSet.AddressSet;\n    using SafeERC20Upgradeable for IERC20;\n\n    bytes4 private constant _INTERFACE_ID_ERC721 = 0x80ac58cd;\n\n    bytes32 public constant GAME_ADMIN = keccak256('GAME_ADMIN');\n\n    // ############\n    // Initializer\n    // ############\n    function initialize(IERC20 _tagToken, address _taxRecipient)\n        public\n        initializer\n    {\n        __AccessControl_init();\n\n        _setupRole(DEFAULT_ADMIN_ROLE, msg.sender);\n\n        tagToken = _tagToken;\n\n        taxRecipient = _taxRecipient;\n        defaultTax = ABDKMath64x64.divu(1, 10); // 10%\n    }\n\n    function migrateTo_a98a9ac(\n        Characters _charactersContract,\n        Weapons _weaponsContract\n    ) external {\n        require(hasRole(DEFAULT_ADMIN_ROLE, msg.sender), 'Not admin');\n\n        characters = _charactersContract;\n        weapons = _weaponsContract;\n    }\n\n    // function setParams() external {\n    //     require(hasRole(DEFAULT_ADMIN_ROLE, msg.sender), 'Not admin');\n    //     _INTERFACE_ID_ERC721 = 0x80ac58cd;\n    //     GAME_ADMIN = keccak256('GAME_ADMIN');\n    // }\n\n    // function migrateTo_2316231(IPriceOracle _priceOracletagPerUsd) external {\n    //     require(hasRole(DEFAULT_ADMIN_ROLE, msg.sender), 'Not admin');\n\n    //     // priceOracletagPerUsd = _priceOracletagPerUsd;\n    //     // addFee = ABDKMath64x64.divu(2, 100);    // 0.02 usd;\n    //     // changeFee = ABDKMath64x64.divu(0, 100); // 0.00 usd;\n    // }\n\n    // basic listing; we can easily offer other types (auction / buy it now)\n    // if the struct can be extended, that's one way, otherwise different mapping per type.\n    struct Listing {\n        address seller;\n        uint256 price;\n        //int128 usdTether; // this would be to \"tether\" price dynamically to our oracle\n    }\n\n    struct CharactersFilter {\n        IERC721 tokenAddress;\n        uint8 limit;\n        uint256 pageNumber;\n        uint8 trait;\n        uint8 minLevel;\n        uint8 maxLevel;\n        uint8 class;\n        uint8 characterType;\n        uint8 holographic;\n    }\n\n    struct WeaponsFilter {\n        IERC721 tokenAddress;\n        uint8 limit;\n        uint256 pageNumber;\n        uint8 element;\n        uint8 quality;\n        uint8 gunType;\n        uint8 holographic;\n    }\n\n    // ############\n    // State\n    // ############\n    IERC20 public tagToken; //\n    address public taxRecipient; //game master contract\n\n    // address is IERC721 -- kept like this because of OpenZeppelin upgrade plugin bug\n    mapping(address => mapping(uint256 => Listing)) private listings;\n    // address is IERC721 -- kept like this because of OpenZeppelin upgrade plugin bug\n    mapping(address => EnumerableSet.UintSet) private listedTokenIDs;\n    // address is IERC721\n    EnumerableSet.AddressSet private listedTokenTypes; // stored for a way to know the types we have on offer\n\n    // UNUSED; KEPT FOR UPGRADEABILITY PROXY COMPATIBILITY\n    mapping(address => bool) public isTokenBanned;\n\n    // UNUSED; KEPT FOR UPGRADEABILITY PROXY COMPATIBILITY\n    mapping(address => bool) public isUserBanned;\n\n    // address is IERC721 -- kept like this because of OpenZeppelin upgrade plugin bug\n    mapping(address => int128) public tax; // per NFT type tax\n    // address is IERC721 -- kept like this because of OpenZeppelin upgrade plugin bug\n    mapping(address => bool) private freeTax; // since tax is 0-default, this specifies it to fix an exploit\n    int128 public defaultTax; // fallback in case we haven't specified it\n\n    // address is IERC721 -- kept like this because of OpenZeppelin upgrade plugin bug\n    EnumerableSet.AddressSet private allowedTokenTypes;\n\n    Weapons internal weapons;\n    Characters internal characters;\n\n    IPriceOracle public priceOracletagPerUsd;\n    int128 public addFee;\n    int128 public changeFee;\n\n    // keeps target buyer for nftId of specific type (address)\n    mapping(address => mapping(uint256 => address)) nftTargetBuyers;\n\n    // bytes4 private _INTERFACE_ID_ERC721;\n\n    // bytes32 public GAME_ADMIN;\n\n    // ############\n    // Events\n    // ############\n    event NewListing(\n        address indexed seller,\n        IERC721 indexed nftAddress,\n        uint256 indexed nftID,\n        uint256 price,\n        address targetBuyer\n    );\n    event ListingPriceChange(\n        address indexed seller,\n        IERC721 indexed nftAddress,\n        uint256 indexed nftID,\n        uint256 newPrice\n    );\n    event ListingTargetBuyerChange(\n        address indexed seller,\n        IERC721 indexed nftAddress,\n        uint256 indexed nftID,\n        address newTargetBuyer\n    );\n    event CancelledListing(\n        address indexed seller,\n        IERC721 indexed nftAddress,\n        uint256 indexed nftID\n    );\n    event PurchasedListing(\n        address indexed buyer,\n        address seller,\n        IERC721 indexed nftAddress,\n        uint256 indexed nftID,\n        uint256 price\n    );\n\n    // ############\n    // Modifiers\n    // ############\n    modifier restricted() {\n        require(hasRole(GAME_ADMIN, msg.sender), 'Not game admin');\n        _;\n    }\n\n    modifier isListed(IERC721 _tokenAddress, uint256 id) {\n        require(\n            listedTokenTypes.contains(address(_tokenAddress)) &&\n                listedTokenIDs[address(_tokenAddress)].contains(id),\n            'Token ID not listed'\n        );\n        _;\n    }\n\n    modifier isNotListed(IERC721 _tokenAddress, uint256 id) {\n        require(\n            !listedTokenTypes.contains(address(_tokenAddress)) ||\n                !listedTokenIDs[address(_tokenAddress)].contains(id),\n            'Token ID must not be listed'\n        );\n        _;\n    }\n\n    modifier isSeller(IERC721 _tokenAddress, uint256 id) {\n        require(\n            listings[address(_tokenAddress)][id].seller == msg.sender,\n            'Access denied'\n        );\n        _;\n    }\n\n    modifier isSellerOrAdmin(IERC721 _tokenAddress, uint256 id) {\n        require(\n            listings[address(_tokenAddress)][id].seller == msg.sender ||\n                hasRole(GAME_ADMIN, msg.sender),\n            'Access denied'\n        );\n        _;\n    }\n\n    modifier tokenAllowed(IERC721 _tokenAddress) {\n        require(\n            isTokenAllowed(_tokenAddress),\n            'This type of NFT may not be traded here'\n        );\n        _;\n    }\n\n    modifier userAllowedToPurchase(IERC721 _tokenAddress, uint256 _id) {\n        require(\n            nftTargetBuyers[address(_tokenAddress)][_id] == address(0) ||\n                nftTargetBuyers[address(_tokenAddress)][_id] == msg.sender,\n            'Not target buyer'\n        );\n        _;\n    }\n\n    modifier isValidERC721(IERC721 _tokenAddress) {\n        require(\n            ERC165Checker.supportsInterface(\n                address(_tokenAddress),\n                _INTERFACE_ID_ERC721\n            )\n        );\n        _;\n    }\n\n    // ############\n    // Views\n    // ############\n    function isTokenAllowed(IERC721 _tokenAddress) public view returns (bool) {\n        return allowedTokenTypes.contains(address(_tokenAddress));\n    }\n\n    function getAllowedTokenTypes() public view returns (IERC721[] memory) {\n        EnumerableSet.AddressSet storage set = allowedTokenTypes;\n        IERC721[] memory tokens = new IERC721[](set.length());\n\n        for (uint256 i = 0; i < tokens.length; i++) {\n            tokens[i] = IERC721(set.at(i));\n        }\n        return tokens;\n    }\n\n    function getSellerOfNftID(IERC721 _tokenAddress, uint256 _tokenId)\n        public\n        view\n        returns (address)\n    {\n        if (!listedTokenTypes.contains(address(_tokenAddress))) {\n            return address(0);\n        }\n\n        if (!listedTokenIDs[address(_tokenAddress)].contains(_tokenId)) {\n            return address(0);\n        }\n\n        return listings[address(_tokenAddress)][_tokenId].seller;\n    }\n\n    function defaultTaxAsRoundedPercentRoughEstimate()\n        public\n        view\n        returns (uint256)\n    {\n        return defaultTax.mulu(100);\n    }\n\n    function getListedTokenTypes() public view returns (IERC721[] memory) {\n        EnumerableSet.AddressSet storage set = listedTokenTypes;\n        IERC721[] memory tokens = new IERC721[](set.length());\n\n        for (uint256 i = 0; i < tokens.length; i++) {\n            tokens[i] = IERC721(set.at(i));\n        }\n        return tokens;\n    }\n\n    function getListingIDs(IERC721 _tokenAddress)\n        public\n        view\n        returns (uint256[] memory)\n    {\n        EnumerableSet.UintSet storage set = listedTokenIDs[\n            address(_tokenAddress)\n        ];\n        uint256[] memory tokens = new uint256[](set.length());\n\n        for (uint256 i = 0; i < tokens.length; i++) {\n            tokens[i] = set.at(i);\n        }\n        return tokens;\n    }\n\n    function getWeaponListingIDsPage(WeaponsFilter memory filter)\n        public \n        view \n        returns (uint256[] memory) \n    {\n        uint256 matchingWeaponsAmount = getNumberOfWeaponListings(filter);\n        uint256 pageEnd = filter.limit * (filter.pageNumber + 1);\n        uint256 tokensSize = matchingWeaponsAmount >= pageEnd\n            ? filter.limit\n            : matchingWeaponsAmount.sub(filter.limit * filter.pageNumber);\n\n        return _getWeaponListingIDsPage(filter, pageEnd, tokensSize);\n    }\n\n    function _getWeaponListingIDsPage(WeaponsFilter memory filter, uint256 pageEnd, uint256 tokensSize)\n        internal\n        view\n        returns (uint256[] memory) \n    {\n        EnumerableSet.UintSet storage set = listedTokenIDs[\n            address(filter.tokenAddress)\n        ];\n        uint256[] memory tokens = new uint256[](tokensSize);\n        uint256 counter = 0;\n        uint8 tokenIterator = 0;\n\n        for (uint256 i = 0; i < set.length() && counter < pageEnd; i++) {\n            if (_weaponPassesFilter(set.at(i), filter)) {\n                if (counter >= pageEnd - filter.limit) {\n                    tokens[tokenIterator] = set.at(i);\n                    tokenIterator++;\n                }\n                counter++;\n            }\n        }\n\n        return tokens;\n    }\n\n    function getCharacterListingIDsPage(CharactersFilter memory filter)\n        public\n        view\n        returns (uint256[] memory)\n    {\n        // EnumerableSet.UintSet storage set = listedTokenIDs[address(filter.tokenAddress)];\n        uint256 matchingCharactersAmount = getNumberOfCharacterListings(filter);\n        uint256 pageEnd = filter.limit * (filter.pageNumber + 1);\n        uint256 tokensSize = matchingCharactersAmount >= pageEnd ? filter.limit : matchingCharactersAmount.sub(filter.limit * filter.pageNumber);\n        return _getCharacterListingIDsPage(filter, tokensSize, pageEnd);\n    }\n\n    function _getCharacterListingIDsPage(CharactersFilter memory filter, uint256 tokensSize, uint256 pageEnd) internal view returns (uint256[] memory) {\n        EnumerableSet.UintSet storage set = listedTokenIDs[address(filter.tokenAddress)];\n        uint256[] memory tokens = new uint256[](tokensSize);\n        uint256 counter = 0;\n        uint8 tokenIterator = 0;\n\n        for (uint256 i = 0; i < set.length() && counter < pageEnd; i++) {\n            \n            if(_characterPassesFilter(set.at(i), filter)) {\n                if(counter >= pageEnd - filter.limit) {\n                    tokens[tokenIterator] = set.at(i);\n                    tokenIterator++;\n                }\n                counter++;\n            }\n        }\n\n        return tokens;\n    }\n\n    function getNumberOfListingsBySeller(IERC721 _tokenAddress, address _seller)\n        public\n        view\n        returns (uint256)\n    {\n        EnumerableSet.UintSet storage listedTokens = listedTokenIDs[\n            address(_tokenAddress)\n        ];\n\n        uint256 amount = 0;\n        for (uint256 i = 0; i < listedTokens.length(); i++) {\n            if (\n                listings[address(_tokenAddress)][listedTokens.at(i)].seller ==\n                _seller\n            ) amount++;\n        }\n\n        return amount;\n    }\n\n    function getListingIDsBySeller(IERC721 _tokenAddress, address _seller)\n        public\n        view\n        returns (uint256[] memory tokens)\n    {\n        // NOTE: listedTokens is enumerated twice (once for length calc, once for getting token IDs)\n        uint256 amount = getNumberOfListingsBySeller(_tokenAddress, _seller);\n        tokens = new uint256[](amount);\n\n        EnumerableSet.UintSet storage listedTokens = listedTokenIDs[\n            address(_tokenAddress)\n        ];\n\n        uint256 index = 0;\n        for (uint256 i = 0; i < listedTokens.length(); i++) {\n            uint256 id = listedTokens.at(i);\n            if (listings[address(_tokenAddress)][id].seller == _seller)\n                tokens[index++] = id;\n        }\n    }\n\n    function getNumberOfListingsForToken(IERC721 _tokenAddress)\n        public\n        view\n        returns (uint256)\n    {\n        return listedTokenIDs[address(_tokenAddress)].length();\n    }\n\n    function getNumberOfCharacterListings(CharactersFilter memory filter)\n        public\n        view\n        returns (uint256)\n    {\n        EnumerableSet.UintSet storage listedTokens = listedTokenIDs[address(filter.tokenAddress)];\n        uint256 counter = 0;\n\n        for(uint256 i = 0; i < listedTokens.length(); i++) {\n            if(_characterPassesFilter(listedTokens.at(i), filter)) {\n                counter++;\n            }\n        }\n        return counter;\n    }\n\n    function getNumberOfWeaponListings(WeaponsFilter memory filter)\n        public\n        view\n        returns (uint256)\n    {\n        EnumerableSet.UintSet storage listedTokens = listedTokenIDs[address(filter.tokenAddress)];\n        uint256 counter = 0;\n\n        for (uint256 i = 0; i < listedTokens.length(); i++) {\n            if (_weaponPassesFilter(listedTokens.at(i), filter)) {\n                counter++;\n            }\n        }\n        return counter;\n    }\n\n    function getSellerPrice(IERC721 _tokenAddress, uint256 _id)\n        public\n        view\n        returns (uint256)\n    {\n        return listings[address(_tokenAddress)][_id].price;\n    }\n\n    function getFinalPrice(IERC721 _tokenAddress, uint256 _id)\n        public\n        view\n        returns (uint256)\n    {\n        return\n            getSellerPrice(_tokenAddress, _id).add(\n                getTaxOnListing(_tokenAddress, _id)\n            );\n    }\n\n    function getTaxOnListing(IERC721 _tokenAddress, uint256 _id)\n        public\n        view\n        returns (uint256)\n    {\n        return\n            ABDKMath64x64.mulu(\n                tax[address(_tokenAddress)],\n                getSellerPrice(_tokenAddress, _id)\n            );\n    }\n\n    function getTargetBuyer(IERC721 _tokenAddress, uint256 _id)\n        public\n        view\n        returns (address)\n    {\n        return nftTargetBuyers[address(_tokenAddress)][_id];\n    }\n\n    function getListingSlice(\n        IERC721 _tokenAddress,\n        uint256 start,\n        uint256 length\n    )\n        public\n        view\n        returns (\n            uint256 returnedCount,\n            uint256[] memory ids,\n            address[] memory sellers,\n            uint256[] memory prices\n        )\n    {\n        returnedCount = length;\n        ids = new uint256[](length);\n        sellers = new address[](length);\n        prices = new uint256[](length);\n\n        uint256 index = 0;\n        EnumerableSet.UintSet storage listedTokens = listedTokenIDs[\n            address(_tokenAddress)\n        ];\n        for (uint256 i = start; i < start + length; i++) {\n            if (i >= listedTokens.length())\n                return (index, ids, sellers, prices);\n\n            uint256 id = listedTokens.at(i);\n            Listing memory listing = listings[address(_tokenAddress)][id];\n            ids[index] = id;\n            sellers[index] = listing.seller;\n            prices[index++] = listing.price;\n        }\n    }\n\n    // ############\n    // Mutative\n    // ############\n    function addListing(\n        IERC721 _tokenAddress,\n        uint256 _id,\n        uint256 _price,\n        address _targetBuyer\n    )\n        public\n        tokenAllowed(_tokenAddress)\n        isValidERC721(_tokenAddress)\n        isNotListed(_tokenAddress, _id)\n    {\n        // if(addFee > 0) {\n        //     payTax(usdTotag(addFee));\n        // }\n\n        listings[address(_tokenAddress)][_id] = Listing(msg.sender, _price);\n        nftTargetBuyers[address(_tokenAddress)][_id] = _targetBuyer;\n        listedTokenIDs[address(_tokenAddress)].add(_id);\n\n        _updateListedTokenTypes(_tokenAddress);\n\n        // in theory the transfer and required approval already test non-owner operations\n        _tokenAddress.safeTransferFrom(msg.sender, address(this), _id);\n\n        emit NewListing(msg.sender, _tokenAddress, _id, _price, _targetBuyer);\n    }\n\n    function changeListingPrice(\n        IERC721 _tokenAddress,\n        uint256 _id,\n        uint256 _newPrice\n    )\n        public\n        isListed(_tokenAddress, _id)\n        isSeller(_tokenAddress, _id)\n    {\n        // if(changeFee > 0) {\n        //     payTax(usdTotag(changeFee));\n        // }\n\n        listings[address(_tokenAddress)][_id].price = _newPrice;\n        emit ListingPriceChange(msg.sender, _tokenAddress, _id, _newPrice);\n    }\n\n    function changeListingTargetBuyer(\n        IERC721 _tokenAddress,\n        uint256 _id,\n        address _newTargetBuyer\n    )\n        public\n        isListed(_tokenAddress, _id)\n        isSeller(_tokenAddress, _id)\n    {\n        nftTargetBuyers[address(_tokenAddress)][_id] = _newTargetBuyer;\n        emit ListingTargetBuyerChange(\n            msg.sender,\n            _tokenAddress,\n            _id,\n            _newTargetBuyer\n        );\n    }\n\n    function cancelListing(IERC721 _tokenAddress, uint256 _id)\n        public\n        isListed(_tokenAddress, _id)\n        isSellerOrAdmin(_tokenAddress, _id)\n    {\n        delete listings[address(_tokenAddress)][_id];\n        listedTokenIDs[address(_tokenAddress)].remove(_id);\n\n        _updateListedTokenTypes(_tokenAddress);\n\n        _tokenAddress.safeTransferFrom(address(this), msg.sender, _id);\n\n        emit CancelledListing(msg.sender, _tokenAddress, _id);\n    }\n\n    function purchaseListing(\n        IERC721 _tokenAddress,\n        uint256 _id,\n        uint256 _maxPrice\n    )\n        public\n        isListed(_tokenAddress, _id)\n        userAllowedToPurchase(_tokenAddress, _id)\n    {\n        uint256 finalPrice = getFinalPrice(_tokenAddress, _id);\n        require(finalPrice <= _maxPrice, 'Buying price too low');\n\n        Listing memory listing = listings[address(_tokenAddress)][_id];\n        uint256 taxAmount = getTaxOnListing(_tokenAddress, _id);\n\n        delete listings[address(_tokenAddress)][_id];\n        listedTokenIDs[address(_tokenAddress)].remove(_id);\n        _updateListedTokenTypes(_tokenAddress);\n\n        payTax(taxAmount);\n        tagToken.transferFrom(\n            msg.sender,\n            listing.seller,\n            finalPrice.sub(taxAmount)\n        );\n        _tokenAddress.safeTransferFrom(address(this), msg.sender, _id);\n\n        emit PurchasedListing(\n            msg.sender,\n            listing.seller,\n            _tokenAddress,\n            _id,\n            finalPrice\n        );\n    }\n\n    function setAddValue(uint256 cents) public restricted {\n        require(cents <= 100, 'AddValue too high');\n        addFee = ABDKMath64x64.divu(cents, 100);\n    }\n\n    function setChangeValue(uint256 cents) public restricted {\n        require(cents <= 100, 'ChangeValue too high');\n        changeFee = ABDKMath64x64.divu(cents, 100);\n    }\n\n    function setTaxRecipient(address _taxRecipient) public restricted {\n        taxRecipient = _taxRecipient;\n    }\n\n    function setDefaultTax(int128 _defaultTax) public restricted {\n        defaultTax = _defaultTax;\n    }\n\n    function setDefaultTaxAsRational(uint256 _numerator, uint256 _denominator)\n        public\n        restricted\n    {\n        defaultTax = ABDKMath64x64.divu(_numerator, _denominator);\n    }\n\n    function setDefaultTaxAsPercent(uint256 _percent) public restricted {\n        defaultTax = ABDKMath64x64.divu(_percent, 100);\n    }\n\n    function setTaxOnTokenType(IERC721 _tokenAddress, int128 _newTax)\n        public\n        restricted\n        isValidERC721(_tokenAddress)\n    {\n        _setTaxOnTokenType(_tokenAddress, _newTax);\n    }\n\n    function setTaxOnTokenTypeAsRational(\n        IERC721 _tokenAddress,\n        uint256 _numerator,\n        uint256 _denominator\n    ) public restricted isValidERC721(_tokenAddress) {\n        _setTaxOnTokenType(\n            _tokenAddress,\n            ABDKMath64x64.divu(_numerator, _denominator)\n        );\n    }\n\n    function setTaxOnTokenTypeAsPercent(IERC721 _tokenAddress, uint256 _percent)\n        public\n        restricted\n        isValidERC721(_tokenAddress)\n    {\n        _setTaxOnTokenType(_tokenAddress, ABDKMath64x64.divu(_percent, 100));\n    }\n\n    function payTax(uint256 amount) internal {\n        tagToken.transferFrom(msg.sender, taxRecipient, amount);\n    }\n\n    function unlistItem(IERC721 _tokenAddress, uint256 _id)\n        external\n        restricted\n    {\n        delete listings[address(_tokenAddress)][_id];\n        listedTokenIDs[address(_tokenAddress)].remove(_id);\n    }\n\n    function unlistItems(IERC721 _tokenAddress, uint256[] calldata _ids)\n        external\n        restricted\n    {\n        for (uint256 i = 0; i < _ids.length; i++) {\n            delete listings[address(_tokenAddress)][_ids[i]];\n            listedTokenIDs[address(_tokenAddress)].remove(_ids[i]);\n        }\n    }\n\n    function allowToken(IERC721 _tokenAddress)\n        public\n        restricted\n        isValidERC721(_tokenAddress)\n    {\n        allowedTokenTypes.add(address(_tokenAddress));\n    }\n\n    function disallowToken(IERC721 _tokenAddress) public restricted {\n        allowedTokenTypes.remove(address(_tokenAddress));\n    }\n\n    function recovertag(uint256 amount) public restricted {\n        tagToken.transfer(msg.sender, amount); // dont expect we'll hold tokens here but might as well\n    }\n\n    function usdTotag(int128 usdAmount) public view returns (uint256) {\n        return usdAmount.mulu(priceOracletagPerUsd.currentPrice());\n    }\n\n    function onERC721Received(\n        address, /* operator */\n        address, /* from */\n        uint256 _id,\n        bytes calldata /* data */\n    ) external override returns (bytes4) {\n        // NOTE: The contract address is always the message sender.\n        address _tokenAddress = msg.sender;\n\n        require(\n            listedTokenTypes.contains(_tokenAddress) &&\n                listedTokenIDs[_tokenAddress].contains(_id),\n            'Token ID not listed'\n        );\n\n        return IERC721ReceiverUpgradeable.onERC721Received.selector;\n    }\n\n    // ############\n    // Internal helpers\n    // ############\n    function _setTaxOnTokenType(IERC721 tokenAddress, int128 newTax) private {\n        require(newTax >= 0, \"We're not running a charity here\");\n        tax[address(tokenAddress)] = newTax;\n        freeTax[address(tokenAddress)] = newTax == 0;\n    }\n\n    function _updateListedTokenTypes(IERC721 tokenAddress) private {\n        if (listedTokenIDs[address(tokenAddress)].length() > 0) {\n            _registerTokenAddress(tokenAddress);\n        } else {\n            _unregisterTokenAddress(tokenAddress);\n        }\n    }\n\n    function _registerTokenAddress(IERC721 tokenAddress) private {\n        if (!listedTokenTypes.contains(address(tokenAddress))) {\n            listedTokenTypes.add(address(tokenAddress));\n\n            // this prevents resetting custom tax by removing all\n            if (\n                tax[address(tokenAddress)] == 0 && // unset or intentionally free\n                !freeTax[address(tokenAddress)]\n            ) tax[address(tokenAddress)] = defaultTax;\n        }\n    }\n\n    function _unregisterTokenAddress(IERC721 tokenAddress) private {\n        listedTokenTypes.remove(address(tokenAddress));\n    }\n\n    function _characterPassesFilter(uint256 characterId, CharactersFilter memory filter) internal view returns (bool){\n        (   ,\n            ,\n            uint8 characterLevel,\n            uint8 characterTrait,\n            uint8 characterClass,\n            ,\n            CharacterType characterType,\n            ,\n            bool holographic) = characters.get(characterId);\n\n        uint8 noFilter = 255;\n\n        return (filter.trait == noFilter || characterTrait == filter.trait) &&\n        (filter.class == noFilter || characterClass == filter.class) &&\n        (filter.minLevel == noFilter || filter.maxLevel == noFilter || (characterLevel >= filter.minLevel && characterLevel <= filter.maxLevel)) &&\n        (filter.characterType == noFilter || uint8(characterType) == filter.characterType) &&\n        (filter.holographic == noFilter || holographic == (filter.holographic != 0));\n    }\n\n    function _weaponPassesFilter(uint256 weaponId, WeaponsFilter memory filter) internal view returns (bool){\n        (   ,\n            ,\n            ,\n            uint8 gunType,\n            uint8 element,\n            uint8 quality,\n            ,\n            bool holographic) = weapons.get(weaponId);\n\n        uint8 noFilter = 255;\n\n        return (filter.gunType == noFilter || gunType == filter.gunType) &&\n        (filter.element == noFilter || element == filter.element) &&\n        (filter.quality == noFilter || quality == filter.quality) &&\n        (filter.holographic == noFilter || holographic == (filter.holographic != 0));\n    }\n}\n",
  "sourcePath": "/Users/school/dev/ciphershooters/contracts/NFTMarket.sol",
  "compiler": {
    "name": "solc",
    "version": "0.6.5+commit.f956cc89.Emscripten.clang"
  },
  "schemaVersion": "3.4.6",
  "updatedAt": "2022-06-04T16:14:57.723Z",
  "devdoc": {
    "methods": {
      "getRoleAdmin(bytes32)": {
        "details": "Returns the admin role that controls `role`. See {grantRole} and {revokeRole}.     * To change a role's admin, use {_setRoleAdmin}."
      },
      "getRoleMember(bytes32,uint256)": {
        "details": "Returns one of the accounts that have `role`. `index` must be a value between 0 and {getRoleMemberCount}, non-inclusive.     * Role bearers are not sorted in any particular way, and their ordering may change at any point.     * WARNING: When using {getRoleMember} and {getRoleMemberCount}, make sure you perform all queries on the same block. See the following https://forum.openzeppelin.com/t/iterating-over-elements-on-enumerableset-in-openzeppelin-contracts/2296[forum post] for more information."
      },
      "getRoleMemberCount(bytes32)": {
        "details": "Returns the number of accounts that have `role`. Can be used together with {getRoleMember} to enumerate all bearers of a role."
      },
      "grantRole(bytes32,address)": {
        "details": "Grants `role` to `account`.     * If `account` had not been already granted `role`, emits a {RoleGranted} event.     * Requirements:     * - the caller must have ``role``'s admin role."
      },
      "hasRole(bytes32,address)": {
        "details": "Returns `true` if `account` has been granted `role`."
      },
      "renounceRole(bytes32,address)": {
        "details": "Revokes `role` from the calling account.     * Roles are often managed via {grantRole} and {revokeRole}: this function's purpose is to provide a mechanism for accounts to lose their privileges if they are compromised (such as when a trusted device is misplaced).     * If the calling account had been granted `role`, emits a {RoleRevoked} event.     * Requirements:     * - the caller must be `account`."
      },
      "revokeRole(bytes32,address)": {
        "details": "Revokes `role` from `account`.     * If `account` had been granted `role`, emits a {RoleRevoked} event.     * Requirements:     * - the caller must have ``role``'s admin role."
      }
    }
  },
  "userdoc": {
    "methods": {}
  }
}