{
  "contractName": "NFTPool",
  "abi": [
    {
      "anonymous": false,
      "inputs": [
        {
          "indexed": false,
          "internalType": "address",
          "name": "owner",
          "type": "address"
        },
        {
          "indexed": false,
          "internalType": "uint256",
          "name": "rewardAmount",
          "type": "uint256"
        }
      ],
      "name": "OperatorOwnerRewardDistributed",
      "type": "event"
    },
    {
      "anonymous": false,
      "inputs": [
        {
          "indexed": false,
          "internalType": "address",
          "name": "account",
          "type": "address"
        }
      ],
      "name": "Paused",
      "type": "event"
    },
    {
      "anonymous": false,
      "inputs": [
        {
          "indexed": false,
          "internalType": "address",
          "name": "player",
          "type": "address"
        },
        {
          "indexed": false,
          "internalType": "uint256",
          "name": "rewardAmount",
          "type": "uint256"
        }
      ],
      "name": "PlayerRewardDistributed",
      "type": "event"
    },
    {
      "anonymous": false,
      "inputs": [
        {
          "indexed": true,
          "internalType": "bytes32",
          "name": "role",
          "type": "bytes32"
        },
        {
          "indexed": true,
          "internalType": "bytes32",
          "name": "previousAdminRole",
          "type": "bytes32"
        },
        {
          "indexed": true,
          "internalType": "bytes32",
          "name": "newAdminRole",
          "type": "bytes32"
        }
      ],
      "name": "RoleAdminChanged",
      "type": "event"
    },
    {
      "anonymous": false,
      "inputs": [
        {
          "indexed": true,
          "internalType": "bytes32",
          "name": "role",
          "type": "bytes32"
        },
        {
          "indexed": true,
          "internalType": "address",
          "name": "account",
          "type": "address"
        },
        {
          "indexed": true,
          "internalType": "address",
          "name": "sender",
          "type": "address"
        }
      ],
      "name": "RoleGranted",
      "type": "event"
    },
    {
      "anonymous": false,
      "inputs": [
        {
          "indexed": true,
          "internalType": "bytes32",
          "name": "role",
          "type": "bytes32"
        },
        {
          "indexed": true,
          "internalType": "address",
          "name": "account",
          "type": "address"
        },
        {
          "indexed": true,
          "internalType": "address",
          "name": "sender",
          "type": "address"
        }
      ],
      "name": "RoleRevoked",
      "type": "event"
    },
    {
      "anonymous": false,
      "inputs": [
        {
          "indexed": false,
          "internalType": "address",
          "name": "account",
          "type": "address"
        }
      ],
      "name": "Unpaused",
      "type": "event"
    },
    {
      "anonymous": false,
      "inputs": [
        {
          "indexed": false,
          "internalType": "address",
          "name": "owner",
          "type": "address"
        },
        {
          "indexed": false,
          "internalType": "uint256",
          "name": "rewardAmount",
          "type": "uint256"
        }
      ],
      "name": "WeaponOwnerDistributed",
      "type": "event"
    },
    {
      "inputs": [],
      "name": "DEFAULT_ADMIN_ROLE",
      "outputs": [
        {
          "internalType": "bytes32",
          "name": "",
          "type": "bytes32"
        }
      ],
      "stateMutability": "view",
      "type": "function"
    },
    {
      "inputs": [],
      "name": "GAME_CONTROLLER",
      "outputs": [
        {
          "internalType": "bytes32",
          "name": "",
          "type": "bytes32"
        }
      ],
      "stateMutability": "view",
      "type": "function"
    },
    {
      "inputs": [],
      "name": "POOL_ADMIN",
      "outputs": [
        {
          "internalType": "bytes32",
          "name": "",
          "type": "bytes32"
        }
      ],
      "stateMutability": "view",
      "type": "function"
    },
    {
      "inputs": [],
      "name": "claimTokenRewards",
      "outputs": [],
      "stateMutability": "nonpayable",
      "type": "function"
    },
    {
      "inputs": [],
      "name": "craftingItems",
      "outputs": [
        {
          "internalType": "contract CraftingItems",
          "name": "",
          "type": "address"
        }
      ],
      "stateMutability": "view",
      "type": "function"
    },
    {
      "inputs": [
        {
          "internalType": "contract IERC721Upgradeable",
          "name": "token",
          "type": "address"
        },
        {
          "internalType": "uint256",
          "name": "tokenId",
          "type": "uint256"
        }
      ],
      "name": "deposit",
      "outputs": [],
      "stateMutability": "nonpayable",
      "type": "function"
    },
    {
      "inputs": [
        {
          "internalType": "contract IERC721Upgradeable",
          "name": "",
          "type": "address"
        },
        {
          "internalType": "uint256",
          "name": "",
          "type": "uint256"
        }
      ],
      "name": "depositor",
      "outputs": [
        {
          "internalType": "address",
          "name": "",
          "type": "address"
        }
      ],
      "stateMutability": "view",
      "type": "function"
    },
    {
      "inputs": [
        {
          "internalType": "uint256",
          "name": "operatorId",
          "type": "uint256"
        },
        {
          "internalType": "uint256",
          "name": "weaponId",
          "type": "uint256"
        },
        {
          "components": [
            {
              "internalType": "uint24",
              "name": "power",
              "type": "uint24"
            },
            {
              "internalType": "uint8",
              "name": "trait",
              "type": "uint8"
            },
            {
              "internalType": "uint16",
              "name": "fireRate",
              "type": "uint16"
            }
          ],
          "internalType": "struct IGameMaster.Target",
          "name": "target",
          "type": "tuple"
        },
        {
          "internalType": "uint8",
          "name": "fightMultiplier",
          "type": "uint8"
        }
      ],
      "name": "fight",
      "outputs": [],
      "stateMutability": "nonpayable",
      "type": "function"
    },
    {
      "inputs": [],
      "name": "gameMaster",
      "outputs": [
        {
          "internalType": "contract IGameMaster",
          "name": "",
          "type": "address"
        }
      ],
      "stateMutability": "view",
      "type": "function"
    },
    {
      "inputs": [],
      "name": "getBalances",
      "outputs": [
        {
          "components": [
            {
              "internalType": "uint256",
              "name": "rewards",
              "type": "uint256"
            },
            {
              "internalType": "uint256",
              "name": "parts",
              "type": "uint256"
            },
            {
              "internalType": "uint256",
              "name": "fireCrystals",
              "type": "uint256"
            },
            {
              "internalType": "uint256",
              "name": "lightningCrystals",
              "type": "uint256"
            },
            {
              "internalType": "uint256",
              "name": "waterCrystals",
              "type": "uint256"
            },
            {
              "internalType": "uint256",
              "name": "earthCrystals",
              "type": "uint256"
            }
          ],
          "internalType": "struct NFTPoolBase.Balances",
          "name": "",
          "type": "tuple"
        }
      ],
      "stateMutability": "view",
      "type": "function"
    },
    {
      "inputs": [
        {
          "internalType": "bytes32",
          "name": "role",
          "type": "bytes32"
        }
      ],
      "name": "getRoleAdmin",
      "outputs": [
        {
          "internalType": "bytes32",
          "name": "",
          "type": "bytes32"
        }
      ],
      "stateMutability": "view",
      "type": "function"
    },
    {
      "inputs": [
        {
          "internalType": "bytes32",
          "name": "role",
          "type": "bytes32"
        },
        {
          "internalType": "uint256",
          "name": "index",
          "type": "uint256"
        }
      ],
      "name": "getRoleMember",
      "outputs": [
        {
          "internalType": "address",
          "name": "",
          "type": "address"
        }
      ],
      "stateMutability": "view",
      "type": "function"
    },
    {
      "inputs": [
        {
          "internalType": "bytes32",
          "name": "role",
          "type": "bytes32"
        }
      ],
      "name": "getRoleMemberCount",
      "outputs": [
        {
          "internalType": "uint256",
          "name": "",
          "type": "uint256"
        }
      ],
      "stateMutability": "view",
      "type": "function"
    },
    {
      "inputs": [
        {
          "internalType": "bytes32",
          "name": "role",
          "type": "bytes32"
        },
        {
          "internalType": "address",
          "name": "account",
          "type": "address"
        }
      ],
      "name": "grantRole",
      "outputs": [],
      "stateMutability": "nonpayable",
      "type": "function"
    },
    {
      "inputs": [
        {
          "internalType": "bytes32",
          "name": "role",
          "type": "bytes32"
        },
        {
          "internalType": "address",
          "name": "account",
          "type": "address"
        }
      ],
      "name": "hasRole",
      "outputs": [
        {
          "internalType": "bool",
          "name": "",
          "type": "bool"
        }
      ],
      "stateMutability": "view",
      "type": "function"
    },
    {
      "inputs": [
        {
          "internalType": "contract IERC721Upgradeable",
          "name": "",
          "type": "address"
        }
      ],
      "name": "inventoryLimit",
      "outputs": [
        {
          "internalType": "uint256",
          "name": "",
          "type": "uint256"
        }
      ],
      "stateMutability": "view",
      "type": "function"
    },
    {
      "inputs": [],
      "name": "minClaimAmount",
      "outputs": [
        {
          "internalType": "uint256",
          "name": "",
          "type": "uint256"
        }
      ],
      "stateMutability": "view",
      "type": "function"
    },
    {
      "inputs": [
        {
          "internalType": "address",
          "name": "",
          "type": "address"
        },
        {
          "internalType": "address",
          "name": "",
          "type": "address"
        },
        {
          "internalType": "uint256[]",
          "name": "",
          "type": "uint256[]"
        },
        {
          "internalType": "uint256[]",
          "name": "",
          "type": "uint256[]"
        },
        {
          "internalType": "bytes",
          "name": "",
          "type": "bytes"
        }
      ],
      "name": "onERC1155BatchReceived",
      "outputs": [
        {
          "internalType": "bytes4",
          "name": "",
          "type": "bytes4"
        }
      ],
      "stateMutability": "nonpayable",
      "type": "function"
    },
    {
      "inputs": [
        {
          "internalType": "address",
          "name": "",
          "type": "address"
        },
        {
          "internalType": "address",
          "name": "",
          "type": "address"
        },
        {
          "internalType": "uint256",
          "name": "",
          "type": "uint256"
        },
        {
          "internalType": "uint256",
          "name": "",
          "type": "uint256"
        },
        {
          "internalType": "bytes",
          "name": "",
          "type": "bytes"
        }
      ],
      "name": "onERC1155Received",
      "outputs": [
        {
          "internalType": "bytes4",
          "name": "",
          "type": "bytes4"
        }
      ],
      "stateMutability": "nonpayable",
      "type": "function"
    },
    {
      "inputs": [
        {
          "internalType": "address",
          "name": "",
          "type": "address"
        },
        {
          "internalType": "address",
          "name": "",
          "type": "address"
        },
        {
          "internalType": "uint256",
          "name": "",
          "type": "uint256"
        },
        {
          "internalType": "bytes",
          "name": "",
          "type": "bytes"
        }
      ],
      "name": "onERC721Received",
      "outputs": [
        {
          "internalType": "bytes4",
          "name": "",
          "type": "bytes4"
        }
      ],
      "stateMutability": "nonpayable",
      "type": "function"
    },
    {
      "inputs": [],
      "name": "operatorOwnerFee",
      "outputs": [
        {
          "internalType": "int128",
          "name": "",
          "type": "int128"
        }
      ],
      "stateMutability": "view",
      "type": "function"
    },
    {
      "inputs": [],
      "name": "operators",
      "outputs": [
        {
          "internalType": "contract IERC721Upgradeable",
          "name": "",
          "type": "address"
        }
      ],
      "stateMutability": "view",
      "type": "function"
    },
    {
      "inputs": [],
      "name": "pause",
      "outputs": [],
      "stateMutability": "nonpayable",
      "type": "function"
    },
    {
      "inputs": [],
      "name": "paused",
      "outputs": [
        {
          "internalType": "bool",
          "name": "",
          "type": "bool"
        }
      ],
      "stateMutability": "view",
      "type": "function"
    },
    {
      "inputs": [
        {
          "internalType": "bytes32",
          "name": "role",
          "type": "bytes32"
        },
        {
          "internalType": "address",
          "name": "account",
          "type": "address"
        }
      ],
      "name": "renounceRole",
      "outputs": [],
      "stateMutability": "nonpayable",
      "type": "function"
    },
    {
      "inputs": [
        {
          "internalType": "bytes32",
          "name": "role",
          "type": "bytes32"
        },
        {
          "internalType": "address",
          "name": "account",
          "type": "address"
        }
      ],
      "name": "revokeRole",
      "outputs": [],
      "stateMutability": "nonpayable",
      "type": "function"
    },
    {
      "inputs": [],
      "name": "rewardToken",
      "outputs": [
        {
          "internalType": "contract IERC20Upgradeable",
          "name": "",
          "type": "address"
        }
      ],
      "stateMutability": "view",
      "type": "function"
    },
    {
      "inputs": [],
      "name": "rewardsManager",
      "outputs": [
        {
          "internalType": "contract IRewardsManager",
          "name": "",
          "type": "address"
        }
      ],
      "stateMutability": "view",
      "type": "function"
    },
    {
      "inputs": [
        {
          "internalType": "contract CraftingItems",
          "name": "_craftingItems",
          "type": "address"
        }
      ],
      "name": "setCraftingItems",
      "outputs": [],
      "stateMutability": "nonpayable",
      "type": "function"
    },
    {
      "inputs": [
        {
          "internalType": "int128",
          "name": "_operatorOwnerFee",
          "type": "int128"
        },
        {
          "internalType": "int128",
          "name": "_weaponOwnerFee",
          "type": "int128"
        }
      ],
      "name": "setFeeDistribution",
      "outputs": [],
      "stateMutability": "nonpayable",
      "type": "function"
    },
    {
      "inputs": [
        {
          "internalType": "contract IERC721Upgradeable",
          "name": "_token",
          "type": "address"
        },
        {
          "internalType": "uint32",
          "name": "_limit",
          "type": "uint32"
        }
      ],
      "name": "setInventoryLimit",
      "outputs": [],
      "stateMutability": "nonpayable",
      "type": "function"
    },
    {
      "inputs": [
        {
          "internalType": "uint256",
          "name": "_minClaimAmount",
          "type": "uint256"
        }
      ],
      "name": "setMinClaimAmount",
      "outputs": [],
      "stateMutability": "nonpayable",
      "type": "function"
    },
    {
      "inputs": [
        {
          "internalType": "contract IRewardsManager",
          "name": "_rewardsManager",
          "type": "address"
        }
      ],
      "name": "setRewardsManager",
      "outputs": [],
      "stateMutability": "nonpayable",
      "type": "function"
    },
    {
      "inputs": [
        {
          "internalType": "address",
          "name": "_treasury",
          "type": "address"
        }
      ],
      "name": "setTreasury",
      "outputs": [],
      "stateMutability": "nonpayable",
      "type": "function"
    },
    {
      "inputs": [
        {
          "internalType": "int128",
          "name": "_tax",
          "type": "int128"
        }
      ],
      "name": "setTreasuryTax",
      "outputs": [],
      "stateMutability": "nonpayable",
      "type": "function"
    },
    {
      "inputs": [
        {
          "internalType": "bytes4",
          "name": "interfaceId",
          "type": "bytes4"
        }
      ],
      "name": "supportsInterface",
      "outputs": [
        {
          "internalType": "bool",
          "name": "",
          "type": "bool"
        }
      ],
      "stateMutability": "view",
      "type": "function"
    },
    {
      "inputs": [
        {
          "internalType": "address",
          "name": "",
          "type": "address"
        }
      ],
      "name": "tokenRewards",
      "outputs": [
        {
          "internalType": "uint256",
          "name": "",
          "type": "uint256"
        }
      ],
      "stateMutability": "view",
      "type": "function"
    },
    {
      "inputs": [],
      "name": "treasury",
      "outputs": [
        {
          "internalType": "address",
          "name": "",
          "type": "address"
        }
      ],
      "stateMutability": "view",
      "type": "function"
    },
    {
      "inputs": [],
      "name": "treasuryTax",
      "outputs": [
        {
          "internalType": "int128",
          "name": "",
          "type": "int128"
        }
      ],
      "stateMutability": "view",
      "type": "function"
    },
    {
      "inputs": [],
      "name": "unpause",
      "outputs": [],
      "stateMutability": "nonpayable",
      "type": "function"
    },
    {
      "inputs": [],
      "name": "weaponOwnerFee",
      "outputs": [
        {
          "internalType": "int128",
          "name": "",
          "type": "int128"
        }
      ],
      "stateMutability": "view",
      "type": "function"
    },
    {
      "inputs": [],
      "name": "weapons",
      "outputs": [
        {
          "internalType": "contract IERC721Upgradeable",
          "name": "",
          "type": "address"
        }
      ],
      "stateMutability": "view",
      "type": "function"
    },
    {
      "inputs": [
        {
          "internalType": "contract IERC721Upgradeable",
          "name": "token",
          "type": "address"
        },
        {
          "internalType": "uint256",
          "name": "tokenId",
          "type": "uint256"
        },
        {
          "internalType": "bool",
          "name": "claimRewards",
          "type": "bool"
        }
      ],
      "name": "withdraw",
      "outputs": [],
      "stateMutability": "nonpayable",
      "type": "function"
    },
    {
      "inputs": [
        {
          "internalType": "contract IGameMaster",
          "name": "_gameMaster",
          "type": "address"
        },
        {
          "internalType": "address",
          "name": "_poolAdmin",
          "type": "address"
        }
      ],
      "name": "initialize",
      "outputs": [],
      "stateMutability": "nonpayable",
      "type": "function"
    },
    {
      "inputs": [],
      "name": "setRegisterInterfaces",
      "outputs": [],
      "stateMutability": "nonpayable",
      "type": "function"
    }
  ],
  "bytecode": "0x608060405234801561001057600080fd5b50613ad1806100206000396000f3fe608060405234801561001057600080fd5b506004361061027e5760003560e01c80639010d07c1161015c578063ca15c873116100ce578063ead5d35911610087578063ead5d359146104fb578063ecfeb5ba1461050e578063f0151b1714610516578063f0f4426014610529578063f23a6e611461053c578063f7c618c11461054f5761027e565b8063ca15c873146104b5578063cb299e97146104c8578063d547741f146104d0578063d680626d146104e3578063defe2053146104eb578063e673df8a146104f35761027e565b8063a8be1a5f11610120578063a8be1a5f14610462578063adc25bde14610477578063b47da25c1461047f578063b7e1cd8614610492578063bc197c811461049a578063bdf84ae7146104ad5761027e565b80639010d07c1461041957806391d148541461042c578063922fc2481461043f578063a217fddf14610452578063a2b4fe711461045a5761027e565b80633f4ba83a116101f557806358fbc1d3116101b957806358fbc1d3146103c65780635c975abb146103d95780635e020ebb146103e157806361d027b3146104015780636b1f6436146104095780638456cb59146104115761027e565b80633f4ba83a1461037257806343ad46161461037a57806347e7ef241461038d578063485cc955146103a05780634d728861146103b35761027e565b80631cc7259d116102475780631cc7259d146102fe578063248a9ca314610311578063292c5afd146103315780632f2ff15d1461033957806330bd3eeb1461034c57806336568abe1461035f5761027e565b8062113e081461028357806301ffc9a7146102a15780630a8ddc5e146102c15780630ec32977146102d6578063150b7a02146102de575b600080fd5b61028b610557565b604051610298919061399a565b60405180910390f35b6102b46102af36600461319b565b610b08565b60405161029891906134fc565b6102d46102cf366004612e97565b610b27565b005b6102d4610b8b565b6102f16102ec366004612f80565b610c57565b6040516102989190613510565b6102d461030c366004613291565b610c9d565b61032461031f366004613133565b610cef565b6040516102989190613507565b6102d4610d04565b6102d461034736600461314b565b610d4d565b61032461035a366004612e97565b610d91565b6102d461036d36600461314b565b610da3565b6102d4610de5565b6102d461038836600461322f565b610e18565b6102d461039b3660046131c3565b610e68565b6102d46103ae366004613264565b61101a565b6102d46103c13660046132ac565b6110d1565b6102d46103d4366004612e97565b611134565b6102b4611181565b6103f46103ef3660046131c3565b61118a565b60405161029891906133f2565b6103f46111b0565b6103246111bf565b6102d46111d6565b6103f461042736600461317a565b611209565b6102b461043a36600461314b565b611230565b6102d461044d366004613133565b61124e565b61032461127e565b610324611283565b61046a61128f565b6040516102989190613525565b610324611298565b61032461048d366004612e97565b61129e565b6103f46112b0565b6102f16104a8366004612ed6565b6112bf565b6103f46112d0565b6103246104c3366004613133565b6112df565b61046a6112f6565b6102d46104de36600461314b565b611306565b6103f4611340565b6103f461134f565b6103f461135e565b6102d46105093660046131ee565b61136d565b61046a611501565b6102d461052436600461331b565b61150a565b6102d4610537366004612e97565b611f2d565b6102f161054a36600461301d565b611f7a565b6103f4611f8b565b61055f612d66565b60a2546040516393f1a40b60e01b81526000916001600160a01b0316906393f1a40b906105929084903090600401613533565b604080518083038186803b1580156105a957600080fd5b505afa1580156105bd573d6000803e3d6000fd5b505050506040513d601f19601f820116820180604052508101906105e191906132f8565b5060408051600580825260c08201909252919250606091906020820160a080368337505060a354604080516356bda8d960e01b815290519394506001600160a01b03909116926356bda8d992506004808301926020929190829003018186803b15801561064d57600080fd5b505afa158015610661573d6000803e3d6000fd5b505050506040513d601f19601f8201168201806040525081019061068591906132e0565b8160008151811061069257fe5b60209081029190910181019190915260a354604080516306da0ecb60e01b815290516001600160a01b03909216926306da0ecb92600480840193829003018186803b1580156106e057600080fd5b505afa1580156106f4573d6000803e3d6000fd5b505050506040513d601f19601f8201168201806040525081019061071891906132e0565b8160018151811061072557fe5b60209081029190910181019190915260a35460408051630202678560e41b815290516001600160a01b0390921692632026785092600480840193829003018186803b15801561077357600080fd5b505afa158015610787573d6000803e3d6000fd5b505050506040513d601f19601f820116820180604052508101906107ab91906132e0565b816002815181106107b857fe5b60209081029190910181019190915260a35460408051639ce6d25360e01b815290516001600160a01b0390921692639ce6d25392600480840193829003018186803b15801561080657600080fd5b505afa15801561081a573d6000803e3d6000fd5b505050506040513d601f19601f8201168201806040525081019061083e91906132e0565b8160038151811061084b57fe5b60209081029190910181019190915260a3546040805163bd7c1e1160e01b815290516001600160a01b039092169263bd7c1e1192600480840193829003018186803b15801561089957600080fd5b505afa1580156108ad573d6000803e3d6000fd5b505050506040513d601f19601f820116820180604052508101906108d191906132e0565b816004815181106108de57fe5b602090810291909101015260408051600580825260c08201909252606091816020016020820280368337019050509050308160008151811061091c57fe5b60200260200101906001600160a01b031690816001600160a01b031681525050308160018151811061094a57fe5b60200260200101906001600160a01b031690816001600160a01b031681525050308160028151811061097857fe5b60200260200101906001600160a01b031690816001600160a01b03168152505030816003815181106109a657fe5b60200260200101906001600160a01b031690816001600160a01b03168152505030816004815181106109d457fe5b6001600160a01b03928316602091820292909201015260a3546040516313849cfd60e21b81526060929190911690634e1273f490610a18908590879060040161347b565b60006040518083038186803b158015610a3057600080fd5b505afa158015610a44573d6000803e3d6000fd5b505050506040513d6000823e601f3d908101601f19168201604052610a6c9190810190613084565b90506040518060c0016040528085815260200182600081518110610a8c57fe5b6020026020010151815260200182600181518110610aa657fe5b6020026020010151815260200182600281518110610ac057fe5b6020026020010151815260200182600381518110610ada57fe5b6020026020010151815260200182600481518110610af457fe5b602002602001015181525094505050505090565b6001600160e01b031916600090815260a4602052604090205460ff1690565b610b44604051610b36906133d7565b604051809103902033611230565b610b695760405162461bcd60e51b8152600401610b6090613628565b60405180910390fd5b60a280546001600160a01b0319166001600160a01b0392909216919091179055565b336000908152609c602052604090205460a054811015610bbd5760405162461bcd60e51b8152600401610b60906138ee565b336000818152609c602052604080822091909155609854905163a9059cbb60e01b81526001600160a01b039091169163a9059cbb91610c019190859060040161342a565b602060405180830381600087803b158015610c1b57600080fd5b505af1158015610c2f573d6000803e3d6000fd5b505050506040513d601f19601f82011682018060405250810190610c539190613117565b5050565b609a546000906001600160a01b0316331480610c7d57506099546001600160a01b031633145b15610c905750630a85bd0160e11b610c94565b5060005b95945050505050565b610cac604051610b36906133d7565b610cc85760405162461bcd60e51b8152600401610b6090613628565b609d8054600f9290920b6001600160801b03166001600160801b0319909216919091179055565b60009081526033602052604090206002015490565b610d0f600033611230565b610d2b5760405162461bcd60e51b8152600401610b6090613855565b610d3b6380ac58cd60e01b611f9a565b610d4b636cdb3d1360e11b611f9a565b565b600082815260336020526040902060020154610d6b9061043a611fe9565b610d875760405162461bcd60e51b8152600401610b60906135ab565b610c538282611fed565b609c6020526000908152604090205481565b610dab611fe9565b6001600160a01b0316816001600160a01b031614610ddb5760405162461bcd60e51b8152600401610b609061394b565b610c53828261205c565b610df4604051610b36906133c1565b610e105760405162461bcd60e51b8152600401610b609061365f565b610d4b6120cb565b610e27604051610b36906133d7565b610e435760405162461bcd60e51b8152600401610b6090613628565b6001600160a01b03909116600090815260a16020526040902063ffffffff9091169055565b610e70611181565b15610e8d5760405162461bcd60e51b8152600401610b60906137dd565b60995482906001600160a01b0380831691161480610eb85750609a546001600160a01b038281169116145b610ed45760405162461bcd60e51b8152600401610b609061370c565b6001600160a01b038316600081815260a16020526040908190205490516370a0823160e01b81529091906370a0823190610f129030906004016133f2565b60206040518083038186803b158015610f2a57600080fd5b505afa158015610f3e573d6000803e3d6000fd5b505050506040513d601f19601f82011682018060405250810190610f6291906132e0565b10610f7f5760405162461bcd60e51b8152600401610b6090613880565b604051632142170760e11b81526001600160a01b038416906342842e0e90610faf90339030908790600401613406565b600060405180830381600087803b158015610fc957600080fd5b505af1158015610fdd573d6000803e3d6000fd5b5050506001600160a01b039093166000908152609b602090815260408083209483529390529190912080546001600160a01b031916331790555050565b600054610100900460ff16806110335750611033612139565b80611041575060005460ff16155b61105d5760405162461bcd60e51b8152600401610b6090613807565b600054610100900460ff16158015611088576000805460ff1961ff0019909116610100171660011790555b611092838361214a565b61109a6124c6565b6110aa6380ac58cd60e01b611f9a565b6110ba636cdb3d1360e11b611f9a565b80156110cc576000805461ff00191690555b505050565b6110e0604051610b36906133c1565b6110fc5760405162461bcd60e51b8152600401610b609061365f565b609f8054600f92830b6001600160801b03908116600160801b029490930b83166001600160801b031990911617909116919091179055565b611143604051610b36906133d7565b61115f5760405162461bcd60e51b8152600401610b6090613628565b60a380546001600160a01b0319166001600160a01b0392909216919091179055565b60655460ff1690565b609b6020908152600092835260408084209091529082529020546001600160a01b031681565b609e546001600160a01b031681565b6040516111cb906133d7565b604051809103902081565b6111e5604051610b36906133c1565b6112015760405162461bcd60e51b8152600401610b609061365f565b610d4b612561565b6000828152603360205260408120611227908363ffffffff6125bc16565b90505b92915050565b6000828152603360205260408120611227908363ffffffff6125c816565b61125d604051610b36906133c1565b6112795760405162461bcd60e51b8152600401610b609061365f565b60a055565b600081565b6040516111cb906133c1565b609f54600f0b81565b60a05481565b60a16020526000908152604090205481565b6099546001600160a01b031681565b63bc197c8160e01b95945050505050565b6097546001600160a01b031681565b600081815260336020526040812061122a906125dd565b609f54600160801b9004600f0b81565b6000828152603360205260409020600201546113249061043a611fe9565b610ddb5760405162461bcd60e51b8152600401610b609061378d565b60a3546001600160a01b031681565b60a2546001600160a01b031681565b609a546001600160a01b031681565b6040516331a9108f60e11b81528390839030906001600160a01b03841690636352211e9061139f908590600401613507565b60206040518083038186803b1580156113b757600080fd5b505afa1580156113cb573d6000803e3d6000fd5b505050506040513d601f19601f820116820180604052508101906113ef9190612eba565b6001600160a01b0316146114155760405162461bcd60e51b8152600401610b60906136c6565b6001600160a01b038581166000908152609b602090815260408083208884529091529020541633146114595760405162461bcd60e51b8152600401610b60906138b7565b604051632142170760e11b81526001600160a01b038616906342842e0e9061148990309033908990600401613406565b600060405180830381600087803b1580156114a357600080fd5b505af11580156114b7573d6000803e3d6000fd5b5050506001600160a01b0386166000908152609b60209081526040808320888452909152902080546001600160a01b03191690555082156114fa576114fa610b8b565b5050505050565b609d54600f0b81565b611512611181565b1561152f5760405162461bcd60e51b8152600401610b60906137dd565b609a546040516331a9108f60e11b81526001600160a01b0390911690859030908390636352211e90611565908590600401613507565b60206040518083038186803b15801561157d57600080fd5b505afa158015611591573d6000803e3d6000fd5b505050506040513d601f19601f820116820180604052508101906115b59190612eba565b6001600160a01b0316146115db5760405162461bcd60e51b8152600401610b60906136c6565b6099546040516331a9108f60e11b81526001600160a01b0390911690869030908390636352211e90611611908590600401613507565b60206040518083038186803b15801561162957600080fd5b505afa15801561163d573d6000803e3d6000fd5b505050506040513d601f19601f820116820180604052508101906116619190612eba565b6001600160a01b0316146116875760405162461bcd60e51b8152600401610b60906136c6565b61168f612d66565b611697610557565b60975460405163f0151b1760e01b81529192506001600160a01b03169063f0151b17906116ce908c908c908c908c906004016139de565b600060405180830381600087803b1580156116e857600080fd5b505af11580156116fc573d6000803e3d6000fd5b50505050611708612d66565b611710610557565b825181519192501015611b3b5781518151600091611734919063ffffffff6125e816565b609e549091506001600160a01b03161580159061175b5750609d546000600f91820b90910b135b1561187957609d5460009061177390600f0b83612610565b60a254604051630ad58d2f60e01b81529192506001600160a01b031690630ad58d2f906117a9906000908590309060040161354a565b600060405180830381600087803b1580156117c357600080fd5b505af11580156117d7573d6000803e3d6000fd5b5050609854609e5460405163a9059cbb60e01b81526001600160a01b03928316945063a9059cbb93506118129290911690859060040161342a565b602060405180830381600087803b15801561182c57600080fd5b505af1158015611840573d6000803e3d6000fd5b505050506040513d601f19601f820116820180604052508101906118649190613117565b50611875828263ffffffff6125e816565b9150505b609a546001600160a01b039081166000908152609b602090815260408083208f8452909152812054609f549216916118b490600f0b84612610565b60a25460405163289df2cb60e01b81529192506001600160a01b03169063289df2cb906118ea906000908590879060040161354a565b600060405180830381600087803b15801561190457600080fd5b505af1158015611918573d6000803e3d6000fd5b505050507fab70def1ffe1cd4369f3a6a881db1a36f5fac043247c5af37a1ad83b90ceb4f7828260405161194d92919061342a565b60405180910390a16000609b6000609960009054906101000a90046001600160a01b03166001600160a01b03166001600160a01b0316815260200190815260200160002060008e815260200190815260200160002060009054906101000a90046001600160a01b0316905060006119d3609f60109054906101000a9004600f0b86612610565b60a25460405163289df2cb60e01b81529192506001600160a01b03169063289df2cb90611a09906000908590879060040161354a565b600060405180830381600087803b158015611a2357600080fd5b505af1158015611a37573d6000803e3d6000fd5b505050507f0de96f18cecdb5742f2badbf9a612e52860c0ceb20e5e105cb765d324b5464268282604051611a6c92919061342a565b60405180910390a1611a9481611a88878663ffffffff6125e816565b9063ffffffff6125e816565b60a25460405163289df2cb60e01b81529196506001600160a01b03169063289df2cb90611aca906000908990339060040161354a565b600060405180830381600087803b158015611ae457600080fd5b505af1158015611af8573d6000803e3d6000fd5b505050507fd46aebaa412d7daffb7e27655e9aea6d72f737b61c3a687406e030ec989d5c9d3386604051611b2d92919061342a565b60405180910390a150505050505b60a354604080516356bda8d960e01b81529051611bca926001600160a01b0316916356bda8d9916004808301926020929190829003018186803b158015611b8157600080fd5b505afa158015611b95573d6000803e3d6000fd5b505050506040513d601f19601f82011682018060405250810190611bb991906132e0565b836020015183602001518d8d612678565b60a354604080516306da0ecb60e01b81529051611c59926001600160a01b0316916306da0ecb916004808301926020929190829003018186803b158015611c1057600080fd5b505afa158015611c24573d6000803e3d6000fd5b505050506040513d601f19601f82011682018060405250810190611c4891906132e0565b836040015183604001518d8d612678565b60a35460408051630202678560e41b81529051611ce8926001600160a01b0316916320267850916004808301926020929190829003018186803b158015611c9f57600080fd5b505afa158015611cb3573d6000803e3d6000fd5b505050506040513d601f19601f82011682018060405250810190611cd791906132e0565b836060015183606001518d8d612678565b60a35460408051639ce6d25360e01b81529051611d77926001600160a01b031691639ce6d253916004808301926020929190829003018186803b158015611d2e57600080fd5b505afa158015611d42573d6000803e3d6000fd5b505050506040513d601f19601f82011682018060405250810190611d6691906132e0565b836080015183608001518d8d612678565b60a3546040805163bd7c1e1160e01b81529051611e06926001600160a01b03169163bd7c1e11916004808301926020929190829003018186803b158015611dbd57600080fd5b505afa158015611dd1573d6000803e3d6000fd5b505050506040513d601f19601f82011682018060405250810190611df591906132e0565b8360a001518360a001518d8d612678565b336000908152609c60205260409020548015611f2057336000908152609c60205260408082209190915560985460a254915163095ea7b360e01b81526001600160a01b039182169263095ea7b392611e6592911690859060040161342a565b602060405180830381600087803b158015611e7f57600080fd5b505af1158015611e93573d6000803e3d6000fd5b505050506040513d601f19601f82011682018060405250810190611eb79190613117565b5060a254604051638dbdbe6d60e01b81526001600160a01b0390911690638dbdbe6d90611eed906000908590339060040161354a565b600060405180830381600087803b158015611f0757600080fd5b505af1158015611f1b573d6000803e3d6000fd5b505050505b5050505050505050505050565b611f3c604051610b36906133d7565b611f585760405162461bcd60e51b8152600401610b6090613628565b609e80546001600160a01b0319166001600160a01b0392909216919091179055565b63f23a6e6160e01b95945050505050565b6098546001600160a01b031681565b6001600160e01b03198082161415611fc45760405162461bcd60e51b8152600401610b609061368f565b6001600160e01b031916600090815260a460205260409020805460ff19166001179055565b3390565b600082815260336020526040902061200b908263ffffffff61287616565b15610c5357612018611fe9565b6001600160a01b0316816001600160a01b0316837f2f8788117e7eff1d82e926ec794901d17c78024a50270940304540a733656f0d60405160405180910390a45050565b600082815260336020526040902061207a908263ffffffff61288b16565b15610c5357612087611fe9565b6001600160a01b0316816001600160a01b0316837ff6391f5c32d9c69d2a47ea670b442974b53935d1edc7fd64eb21e047a839171b60405160405180910390a45050565b6120d3611181565b6120ef5760405162461bcd60e51b8152600401610b60906135fa565b6065805460ff191690557f5db9ee0a495bf2e6ff9c91a7834c1ba4fdd244a5e8aa4e537bd38aeae4b073aa612122611fe9565b60405161212f91906133f2565b60405180910390a1565b6000612144306128a0565b15905090565b600054610100900460ff16806121635750612163612139565b80612171575060005460ff16155b61218d5760405162461bcd60e51b8152600401610b6090613807565b600054610100900460ff161580156121b8576000805460ff1961ff0019909116610100171660011790555b6121c06128a6565b6121c861291c565b6121e56040516121d7906133c1565b604051809103902033610d87565b6121f46040516121d7906133d7565b612211604051612203906133c1565b604051809103902083610d87565b612241604051612220906133c1565b6040518091039020604051612234906133c1565b604051809103902061299a565b609780546001600160a01b0319166001600160a01b03858116919091179182905560408051630aff7f1560e31b8152905192909116916357fbf8a8916004808201926020929091908290030181600087803b15801561229f57600080fd5b505af11580156122b3573d6000803e3d6000fd5b505050506040513d601f19601f820116820180604052508101906122d79190612eba565b609880546001600160a01b0319166001600160a01b0392831617905560975460408051635bf0e6c360e11b81529051919092169163b7e1cd869160048083019260209291908290030181600087803b15801561233257600080fd5b505af1158015612346573d6000803e3d6000fd5b505050506040513d601f19601f8201168201806040525081019061236a9190612eba565b609980546001600160a01b0319166001600160a01b039283161790556097546040805163341c2ed560e21b81529051919092169163d070bb549160048083019260209291908290030181600087803b1580156123c557600080fd5b505af11580156123d9573d6000803e3d6000fd5b505050506040513d601f19601f820116820180604052508101906123fd9190612eba565b609a80546001600160a01b0319166001600160a01b039283161790556097546040805163defe205360e01b81529051919092169163defe20539160048083019260209291908290030181600087803b15801561245857600080fd5b505af115801561246c573d6000803e3d6000fd5b505050506040513d601f19601f820116820180604052508101906124909190612eba565b60a280546001600160a01b0319166001600160a01b039290921691909117905580156110cc576000805461ff0019169055505050565b600054610100900460ff16806124df57506124df612139565b806124ed575060005460ff16155b6125095760405162461bcd60e51b8152600401610b6090613807565b600054610100900460ff16158015612534576000805460ff1961ff0019909116610100171660011790555b61253c6129ec565b612544612a6a565b61254c612ae8565b801561255e576000805461ff00191690555b50565b612569611181565b156125865760405162461bcd60e51b8152600401610b60906137dd565b6065805460ff191660011790557f62e78cea01bee320cd4e420270b5ea74000d11b0c9f74754ebdbfc544b05a258612122611fe9565b60006112278383612b69565b6000611227836001600160a01b038416612bae565b600061122a82612bc6565b60008282111561260a5760405162461bcd60e51b8152600401610b6090613756565b50900390565b60008161261f5750600061122a565b600083600f0b121561263057600080fd5b600f83900b6001600160801b038316810260401c90608084901c026001600160c01b0381111561265f57600080fd5b60401b811981111561267057600080fd5b019392505050565b838311612684576114fa565b6000612696848663ffffffff6125e816565b609a546001600160a01b039081166000908152609b60209081526040808320888452909152812054609f54939450909116916126d590600f0b84612610565b60a354604051637921219560e11b81529192506001600160a01b03169063f242432a9061270c90309086908d908790600401613443565b600060405180830381600087803b15801561272657600080fd5b505af115801561273a573d6000803e3d6000fd5b50506099546001600160a01b039081166000908152609b602090815260408083208a8452909152812054609f5492169350915061278190600160801b9004600f0b86612610565b60a354604051637921219560e11b81529192506001600160a01b03169063f242432a906127b890309086908f908790600401613443565b600060405180830381600087803b1580156127d257600080fd5b505af11580156127e6573d6000803e3d6000fd5b5050505061280181611a8885886125e890919063ffffffff16565b60a354604051637921219560e11b81529196506001600160a01b03169063f242432a9061283890309033908f908b90600401613443565b600060405180830381600087803b15801561285257600080fd5b505af1158015612866573d6000803e3d6000fd5b5050505050505050505050505050565b6000611227836001600160a01b038416612bca565b6000611227836001600160a01b038416612c14565b3b151590565b600054610100900460ff16806128bf57506128bf612139565b806128cd575060005460ff16155b6128e95760405162461bcd60e51b8152600401610b6090613807565b600054610100900460ff16158015612914576000805460ff1961ff0019909116610100171660011790555b612544612ae8565b600054610100900460ff16806129355750612935612139565b80612943575060005460ff16155b61295f5760405162461bcd60e51b8152600401610b6090613807565b600054610100900460ff1615801561298a576000805460ff1961ff0019909116610100171660011790555b612992612ae8565b61254c612cda565b600082815260336020526040808220600201549051839285917fbd79b86ffe0ab8e8776151514217cd7cacd52c909f66475c3af44e129f0b00ff9190a460009182526033602052604090912060020155565b600054610100900460ff1680612a055750612a05612139565b80612a13575060005460ff16155b612a2f5760405162461bcd60e51b8152600401610b6090613807565b600054610100900460ff16158015612a5a576000805460ff1961ff0019909116610100171660011790555b61254c6301ffc9a760e01b611f9a565b600054610100900460ff1680612a835750612a83612139565b80612a91575060005460ff16155b612aad5760405162461bcd60e51b8152600401610b6090613807565b600054610100900460ff16158015612ad8576000805460ff1961ff0019909116610100171660011790555b61254c630271189760e51b611f9a565b600054610100900460ff1680612b015750612b01612139565b80612b0f575060005460ff16155b612b2b5760405162461bcd60e51b8152600401610b6090613807565b600054610100900460ff1615801561254c576000805460ff1961ff001990911661010017166001179055801561255e576000805461ff001916905550565b81546000908210612b8c5760405162461bcd60e51b8152600401610b6090613569565b826000018281548110612b9b57fe5b9060005260206000200154905092915050565b60009081526001919091016020526040902054151590565b5490565b6000612bd68383612bae565b612c0c5750815460018181018455600084815260208082209093018490558454848252828601909352604090209190915561122a565b50600061122a565b60008181526001830160205260408120548015612cd05783546000198083019190810190600090879083908110612c4757fe5b9060005260206000200154905080876000018481548110612c6457fe5b600091825260208083209091019290925582815260018981019092526040902090840190558654879080612c9457fe5b6001900381819060005260206000200160009055905586600101600087815260200190815260200160002060009055600194505050505061122a565b600091505061122a565b600054610100900460ff1680612cf35750612cf3612139565b80612d01575060005460ff16155b612d1d5760405162461bcd60e51b8152600401610b6090613807565b600054610100900460ff16158015612d48576000805460ff1961ff0019909116610100171660011790555b6065805460ff19169055801561255e576000805461ff001916905550565b6040518060c001604052806000815260200160008152602001600081526020016000815260200160008152602001600081525090565b600082601f830112612dac578081fd5b8135612dbf612dba82613a49565b613a22565b818152915060208083019084810181840286018201871015612de057600080fd5b60005b84811015612dff57813584529282019290820190600101612de3565b505050505092915050565b600082601f830112612e1a578081fd5b813567ffffffffffffffff811115612e30578182fd5b612e43601f8201601f1916602001613a22565b9150808252836020828501011115612e5a57600080fd5b8060208401602084013760009082016020015292915050565b8035600f81900b811461122a57600080fd5b803561ffff8116811461122a57600080fd5b600060208284031215612ea8578081fd5b8135612eb381613a69565b9392505050565b600060208284031215612ecb578081fd5b8151612eb381613a69565b600080600080600060a08688031215612eed578081fd5b8535612ef881613a69565b94506020860135612f0881613a69565b9350604086013567ffffffffffffffff80821115612f24578283fd5b612f3089838a01612d9c565b94506060880135915080821115612f45578283fd5b612f5189838a01612d9c565b93506080880135915080821115612f66578283fd5b50612f7388828901612e0a565b9150509295509295909350565b600080600080600060808688031215612f97578283fd5b8535612fa281613a69565b94506020860135612fb281613a69565b935060408601359250606086013567ffffffffffffffff80821115612fd5578283fd5b81880189601f820112612fe6578384fd5b8035925081831115612ff6578384fd5b896020848301011115613007578384fd5b6020810194505050809150509295509295909350565b600080600080600060a08688031215613034578283fd5b853561303f81613a69565b9450602086013561304f81613a69565b93506040860135925060608601359150608086013567ffffffffffffffff811115613078578182fd5b612f7388828901612e0a565b60006020808385031215613096578182fd5b825167ffffffffffffffff8111156130ac578283fd5b80840185601f8201126130bd578384fd5b805191506130cd612dba83613a49565b82815283810190828501858502840186018910156130e9578687fd5b8693505b8484101561310b5780518352600193909301929185019185016130ed565b50979650505050505050565b600060208284031215613128578081fd5b8151612eb381613a7e565b600060208284031215613144578081fd5b5035919050565b6000806040838503121561315d578182fd5b82359150602083013561316f81613a69565b809150509250929050565b6000806040838503121561318c578182fd5b50508035926020909101359150565b6000602082840312156131ac578081fd5b81356001600160e01b031981168114612eb3578182fd5b600080604083850312156131d5578182fd5b82356131e081613a69565b946020939093013593505050565b600080600060608486031215613202578081fd5b833561320d81613a69565b925060208401359150604084013561322481613a7e565b809150509250925092565b60008060408385031215613241578182fd5b823561324c81613a69565b9150602083013563ffffffff8116811461316f578182fd5b60008060408385031215613276578182fd5b823561328181613a69565b9150602083013561316f81613a69565b6000602082840312156132a2578081fd5b6112278383612e73565b600080604083850312156132be578182fd5b6132c88484612e73565b91506132d78460208501612e73565b90509250929050565b6000602082840312156132f1578081fd5b5051919050565b6000806040838503121561330a578182fd5b505080516020909101519092909150565b60008060008084860360c0811215613331578283fd5b85359450602086013593506060603f198201121561334d578283fd5b506133586060613a22565b604086013562ffffff8116811461336d578384fd5b8152606086013560ff81168114613382578384fd5b60208201526133948760808801612e85565b6040820152915060a08501356133a981613a8c565b939692955090935050565b6001600160a01b03169052565b692827a7a62fa0a226a4a760b11b8152600a0190565b6e23a0a6a2afa1a7a72a2927a62622a960891b8152600f0190565b6001600160a01b0391909116815260200190565b6001600160a01b039384168152919092166020820152604081019190915260600190565b6001600160a01b03929092168252602082015260400190565b6001600160a01b0394851681529290931660208301526040820152606081019190915260a06080820181905260009082015260c00190565b604080825283519082018190526000906020906060840190828701845b828110156134bb576134ab8483516133b4565b9284019290840190600101613498565b50505083810382850152845180825285830191830190845b818110156134ef578351835292840192918401916001016134d3565b5090979650505050505050565b901515815260200190565b90815260200190565b6001600160e01b031991909116815260200190565b600f9190910b815260200190565b9182526001600160a01b0316602082015260400190565b92835260208301919091526001600160a01b0316604082015260600190565b60208082526022908201527f456e756d657261626c655365743a20696e646578206f7574206f6620626f756e604082015261647360f01b606082015260800190565b6020808252602f908201527f416363657373436f6e74726f6c3a2073656e646572206d75737420626520616e60408201526e0818591b5a5b881d1bc819dc985b9d608a1b606082015260800190565b60208082526014908201527314185d5cd8589b194e881b9bdd081c185d5cd95960621b604082015260600190565b6020808252601b908201527f47616d6520636f6e74726f6c6c657220726f6c65206e65656465640000000000604082015260600190565b602080825260169082015275141bdbdb0818591b5a5b881c9bdb19481b995959195960521b604082015260600190565b6020808252601c908201527f4552433136353a20696e76616c696420696e7465726661636520696400000000604082015260600190565b60208082526026908201527f546865206173736574206973206e6f74206465706f736974656420696e20746860408201526519481c1bdbdb60d21b606082015260800190565b6020808252602a908201527f546869732074797065206f66204e4654206d6179206e6f74206265206465706f6040820152697369746564206865726560b01b606082015260800190565b6020808252601e908201527f536166654d6174683a207375627472616374696f6e206f766572666c6f770000604082015260600190565b60208082526030908201527f416363657373436f6e74726f6c3a2073656e646572206d75737420626520616e60408201526f2061646d696e20746f207265766f6b6560801b606082015260800190565b60208082526010908201526f14185d5cd8589b194e881c185d5cd95960821b604082015260600190565b6020808252602e908201527f496e697469616c697a61626c653a20636f6e747261637420697320616c72656160408201526d191e481a5b9a5d1a585b1a5e995960921b606082015260800190565b60208082526011908201527010591b5a5b881c9bdb19481b9959591959607a1b604082015260600190565b60208082526018908201527f506f6f6c2073697a65206c696d69742065786365656465640000000000000000604082015260600190565b6020808252601f908201527f556e617574686f72697a6564207769746864726177616c20617474656d707400604082015260600190565b60208082526039908201527f546f6f20666577207265776172647320746f20636c61696d2e20506c6561736560408201527f206561726e206d6f7265206265666f6520636c61696d696e6700000000000000606082015260800190565b6020808252602f908201527f416363657373436f6e74726f6c3a2063616e206f6e6c792072656e6f756e636560408201526e103937b632b9903337b91039b2b63360891b606082015260800190565b600060c082019050825182526020830151602083015260408301516040830152606083015160608301526080830151608083015260a083015160a083015292915050565b938452602080850193909352815162ffffff166040808601919091529282015160ff9081166060860152929091015161ffff1660808401521660a082015260c00190565b60405181810167ffffffffffffffff81118282101715613a4157600080fd5b604052919050565b600067ffffffffffffffff821115613a5f578081fd5b5060209081020190565b6001600160a01b038116811461255e57600080fd5b801515811461255e57600080fd5b60ff8116811461255e57600080fdfea2646970667358221220bdfa058853dc18af8e12a6f75a04ad848d0d2a3c657cf0403bacab229bf819f064736f6c63430006050033",
  "immutableReferences": {},
  "source": "// SPDX-License-Identifier: MIT\npragma solidity ^0.6.0;\npragma experimental ABIEncoderV2;\n\nimport '@openzeppelin/contracts-upgradeable/token/ERC1155/ERC1155HolderUpgradeable.sol';\nimport './NFTPoolBase.sol';\n\ncontract NFTPool is Initializable, NFTPoolBase, ERC1155HolderUpgradeable {\n\n    bytes4 private constant InterfaceId_ERC721 = 0x80ac58cd;\n    bytes4 private constant InterfaceId_ERC1155 = 0xd9b67a26;\n\n    function initialize(IGameMaster _gameMaster, address _poolAdmin) public initializer {\n        __NFTPoolBase_init(_gameMaster, _poolAdmin);\n        __ERC1155Holder_init();\n        _registerInterface(InterfaceId_ERC721);\n        _registerInterface(InterfaceId_ERC1155);\n    }\n\n    function setRegisterInterfaces() public {\n        require(hasRole(DEFAULT_ADMIN_ROLE, msg.sender), 'Admin role needed');\n\n        _registerInterface(InterfaceId_ERC721);\n        _registerInterface(InterfaceId_ERC1155);\n    }\n\n}",
  "sourcePath": "/Users/school/dev/ciphershooters/contracts/NFTPool/NFTPool.sol",
  "compiler": {
    "name": "solc",
    "version": "0.6.5+commit.f956cc89.Emscripten.clang"
  },
  "schemaVersion": "3.4.6",
  "updatedAt": "2022-06-04T16:14:57.749Z",
  "devdoc": {
    "methods": {
      "getRoleAdmin(bytes32)": {
        "details": "Returns the admin role that controls `role`. See {grantRole} and {revokeRole}.     * To change a role's admin, use {_setRoleAdmin}."
      },
      "getRoleMember(bytes32,uint256)": {
        "details": "Returns one of the accounts that have `role`. `index` must be a value between 0 and {getRoleMemberCount}, non-inclusive.     * Role bearers are not sorted in any particular way, and their ordering may change at any point.     * WARNING: When using {getRoleMember} and {getRoleMemberCount}, make sure you perform all queries on the same block. See the following https://forum.openzeppelin.com/t/iterating-over-elements-on-enumerableset-in-openzeppelin-contracts/2296[forum post] for more information."
      },
      "getRoleMemberCount(bytes32)": {
        "details": "Returns the number of accounts that have `role`. Can be used together with {getRoleMember} to enumerate all bearers of a role."
      },
      "grantRole(bytes32,address)": {
        "details": "Grants `role` to `account`.     * If `account` had not been already granted `role`, emits a {RoleGranted} event.     * Requirements:     * - the caller must have ``role``'s admin role."
      },
      "hasRole(bytes32,address)": {
        "details": "Returns `true` if `account` has been granted `role`."
      },
      "paused()": {
        "details": "Returns true if the contract is paused, and false otherwise."
      },
      "renounceRole(bytes32,address)": {
        "details": "Revokes `role` from the calling account.     * Roles are often managed via {grantRole} and {revokeRole}: this function's purpose is to provide a mechanism for accounts to lose their privileges if they are compromised (such as when a trusted device is misplaced).     * If the calling account had been granted `role`, emits a {RoleRevoked} event.     * Requirements:     * - the caller must be `account`."
      },
      "revokeRole(bytes32,address)": {
        "details": "Revokes `role` from `account`.     * If `account` had been granted `role`, emits a {RoleRevoked} event.     * Requirements:     * - the caller must have ``role``'s admin role."
      },
      "supportsInterface(bytes4)": {
        "details": "See {IERC165-supportsInterface}.     * Time complexity O(1), guaranteed to always use less than 30 000 gas."
      }
    }
  },
  "userdoc": {
    "methods": {}
  }
}