{
  "contractName": "NFTPoolBase",
  "abi": [
    {
      "anonymous": false,
      "inputs": [
        {
          "indexed": false,
          "internalType": "address",
          "name": "owner",
          "type": "address"
        },
        {
          "indexed": false,
          "internalType": "uint256",
          "name": "rewardAmount",
          "type": "uint256"
        }
      ],
      "name": "OperatorOwnerRewardDistributed",
      "type": "event"
    },
    {
      "anonymous": false,
      "inputs": [
        {
          "indexed": false,
          "internalType": "address",
          "name": "account",
          "type": "address"
        }
      ],
      "name": "Paused",
      "type": "event"
    },
    {
      "anonymous": false,
      "inputs": [
        {
          "indexed": false,
          "internalType": "address",
          "name": "player",
          "type": "address"
        },
        {
          "indexed": false,
          "internalType": "uint256",
          "name": "rewardAmount",
          "type": "uint256"
        }
      ],
      "name": "PlayerRewardDistributed",
      "type": "event"
    },
    {
      "anonymous": false,
      "inputs": [
        {
          "indexed": true,
          "internalType": "bytes32",
          "name": "role",
          "type": "bytes32"
        },
        {
          "indexed": true,
          "internalType": "bytes32",
          "name": "previousAdminRole",
          "type": "bytes32"
        },
        {
          "indexed": true,
          "internalType": "bytes32",
          "name": "newAdminRole",
          "type": "bytes32"
        }
      ],
      "name": "RoleAdminChanged",
      "type": "event"
    },
    {
      "anonymous": false,
      "inputs": [
        {
          "indexed": true,
          "internalType": "bytes32",
          "name": "role",
          "type": "bytes32"
        },
        {
          "indexed": true,
          "internalType": "address",
          "name": "account",
          "type": "address"
        },
        {
          "indexed": true,
          "internalType": "address",
          "name": "sender",
          "type": "address"
        }
      ],
      "name": "RoleGranted",
      "type": "event"
    },
    {
      "anonymous": false,
      "inputs": [
        {
          "indexed": true,
          "internalType": "bytes32",
          "name": "role",
          "type": "bytes32"
        },
        {
          "indexed": true,
          "internalType": "address",
          "name": "account",
          "type": "address"
        },
        {
          "indexed": true,
          "internalType": "address",
          "name": "sender",
          "type": "address"
        }
      ],
      "name": "RoleRevoked",
      "type": "event"
    },
    {
      "anonymous": false,
      "inputs": [
        {
          "indexed": false,
          "internalType": "address",
          "name": "account",
          "type": "address"
        }
      ],
      "name": "Unpaused",
      "type": "event"
    },
    {
      "anonymous": false,
      "inputs": [
        {
          "indexed": false,
          "internalType": "address",
          "name": "owner",
          "type": "address"
        },
        {
          "indexed": false,
          "internalType": "uint256",
          "name": "rewardAmount",
          "type": "uint256"
        }
      ],
      "name": "WeaponOwnerDistributed",
      "type": "event"
    },
    {
      "inputs": [],
      "name": "DEFAULT_ADMIN_ROLE",
      "outputs": [
        {
          "internalType": "bytes32",
          "name": "",
          "type": "bytes32"
        }
      ],
      "stateMutability": "view",
      "type": "function"
    },
    {
      "inputs": [],
      "name": "GAME_CONTROLLER",
      "outputs": [
        {
          "internalType": "bytes32",
          "name": "",
          "type": "bytes32"
        }
      ],
      "stateMutability": "view",
      "type": "function"
    },
    {
      "inputs": [],
      "name": "POOL_ADMIN",
      "outputs": [
        {
          "internalType": "bytes32",
          "name": "",
          "type": "bytes32"
        }
      ],
      "stateMutability": "view",
      "type": "function"
    },
    {
      "inputs": [],
      "name": "craftingItems",
      "outputs": [
        {
          "internalType": "contract CraftingItems",
          "name": "",
          "type": "address"
        }
      ],
      "stateMutability": "view",
      "type": "function"
    },
    {
      "inputs": [
        {
          "internalType": "contract IERC721Upgradeable",
          "name": "",
          "type": "address"
        },
        {
          "internalType": "uint256",
          "name": "",
          "type": "uint256"
        }
      ],
      "name": "depositor",
      "outputs": [
        {
          "internalType": "address",
          "name": "",
          "type": "address"
        }
      ],
      "stateMutability": "view",
      "type": "function"
    },
    {
      "inputs": [],
      "name": "gameMaster",
      "outputs": [
        {
          "internalType": "contract IGameMaster",
          "name": "",
          "type": "address"
        }
      ],
      "stateMutability": "view",
      "type": "function"
    },
    {
      "inputs": [
        {
          "internalType": "bytes32",
          "name": "role",
          "type": "bytes32"
        }
      ],
      "name": "getRoleAdmin",
      "outputs": [
        {
          "internalType": "bytes32",
          "name": "",
          "type": "bytes32"
        }
      ],
      "stateMutability": "view",
      "type": "function"
    },
    {
      "inputs": [
        {
          "internalType": "bytes32",
          "name": "role",
          "type": "bytes32"
        },
        {
          "internalType": "uint256",
          "name": "index",
          "type": "uint256"
        }
      ],
      "name": "getRoleMember",
      "outputs": [
        {
          "internalType": "address",
          "name": "",
          "type": "address"
        }
      ],
      "stateMutability": "view",
      "type": "function"
    },
    {
      "inputs": [
        {
          "internalType": "bytes32",
          "name": "role",
          "type": "bytes32"
        }
      ],
      "name": "getRoleMemberCount",
      "outputs": [
        {
          "internalType": "uint256",
          "name": "",
          "type": "uint256"
        }
      ],
      "stateMutability": "view",
      "type": "function"
    },
    {
      "inputs": [
        {
          "internalType": "bytes32",
          "name": "role",
          "type": "bytes32"
        },
        {
          "internalType": "address",
          "name": "account",
          "type": "address"
        }
      ],
      "name": "grantRole",
      "outputs": [],
      "stateMutability": "nonpayable",
      "type": "function"
    },
    {
      "inputs": [
        {
          "internalType": "bytes32",
          "name": "role",
          "type": "bytes32"
        },
        {
          "internalType": "address",
          "name": "account",
          "type": "address"
        }
      ],
      "name": "hasRole",
      "outputs": [
        {
          "internalType": "bool",
          "name": "",
          "type": "bool"
        }
      ],
      "stateMutability": "view",
      "type": "function"
    },
    {
      "inputs": [
        {
          "internalType": "contract IERC721Upgradeable",
          "name": "",
          "type": "address"
        }
      ],
      "name": "inventoryLimit",
      "outputs": [
        {
          "internalType": "uint256",
          "name": "",
          "type": "uint256"
        }
      ],
      "stateMutability": "view",
      "type": "function"
    },
    {
      "inputs": [],
      "name": "minClaimAmount",
      "outputs": [
        {
          "internalType": "uint256",
          "name": "",
          "type": "uint256"
        }
      ],
      "stateMutability": "view",
      "type": "function"
    },
    {
      "inputs": [],
      "name": "operatorOwnerFee",
      "outputs": [
        {
          "internalType": "int128",
          "name": "",
          "type": "int128"
        }
      ],
      "stateMutability": "view",
      "type": "function"
    },
    {
      "inputs": [],
      "name": "operators",
      "outputs": [
        {
          "internalType": "contract IERC721Upgradeable",
          "name": "",
          "type": "address"
        }
      ],
      "stateMutability": "view",
      "type": "function"
    },
    {
      "inputs": [],
      "name": "paused",
      "outputs": [
        {
          "internalType": "bool",
          "name": "",
          "type": "bool"
        }
      ],
      "stateMutability": "view",
      "type": "function"
    },
    {
      "inputs": [
        {
          "internalType": "bytes32",
          "name": "role",
          "type": "bytes32"
        },
        {
          "internalType": "address",
          "name": "account",
          "type": "address"
        }
      ],
      "name": "renounceRole",
      "outputs": [],
      "stateMutability": "nonpayable",
      "type": "function"
    },
    {
      "inputs": [
        {
          "internalType": "bytes32",
          "name": "role",
          "type": "bytes32"
        },
        {
          "internalType": "address",
          "name": "account",
          "type": "address"
        }
      ],
      "name": "revokeRole",
      "outputs": [],
      "stateMutability": "nonpayable",
      "type": "function"
    },
    {
      "inputs": [],
      "name": "rewardToken",
      "outputs": [
        {
          "internalType": "contract IERC20Upgradeable",
          "name": "",
          "type": "address"
        }
      ],
      "stateMutability": "view",
      "type": "function"
    },
    {
      "inputs": [],
      "name": "rewardsManager",
      "outputs": [
        {
          "internalType": "contract IRewardsManager",
          "name": "",
          "type": "address"
        }
      ],
      "stateMutability": "view",
      "type": "function"
    },
    {
      "inputs": [
        {
          "internalType": "address",
          "name": "",
          "type": "address"
        }
      ],
      "name": "tokenRewards",
      "outputs": [
        {
          "internalType": "uint256",
          "name": "",
          "type": "uint256"
        }
      ],
      "stateMutability": "view",
      "type": "function"
    },
    {
      "inputs": [],
      "name": "treasury",
      "outputs": [
        {
          "internalType": "address",
          "name": "",
          "type": "address"
        }
      ],
      "stateMutability": "view",
      "type": "function"
    },
    {
      "inputs": [],
      "name": "treasuryTax",
      "outputs": [
        {
          "internalType": "int128",
          "name": "",
          "type": "int128"
        }
      ],
      "stateMutability": "view",
      "type": "function"
    },
    {
      "inputs": [],
      "name": "weaponOwnerFee",
      "outputs": [
        {
          "internalType": "int128",
          "name": "",
          "type": "int128"
        }
      ],
      "stateMutability": "view",
      "type": "function"
    },
    {
      "inputs": [],
      "name": "weapons",
      "outputs": [
        {
          "internalType": "contract IERC721Upgradeable",
          "name": "",
          "type": "address"
        }
      ],
      "stateMutability": "view",
      "type": "function"
    },
    {
      "inputs": [
        {
          "internalType": "address",
          "name": "",
          "type": "address"
        },
        {
          "internalType": "address",
          "name": "",
          "type": "address"
        },
        {
          "internalType": "uint256",
          "name": "",
          "type": "uint256"
        },
        {
          "internalType": "bytes",
          "name": "",
          "type": "bytes"
        }
      ],
      "name": "onERC721Received",
      "outputs": [
        {
          "internalType": "bytes4",
          "name": "",
          "type": "bytes4"
        }
      ],
      "stateMutability": "nonpayable",
      "type": "function"
    },
    {
      "inputs": [
        {
          "internalType": "contract IERC721Upgradeable",
          "name": "token",
          "type": "address"
        },
        {
          "internalType": "uint256",
          "name": "tokenId",
          "type": "uint256"
        }
      ],
      "name": "deposit",
      "outputs": [],
      "stateMutability": "nonpayable",
      "type": "function"
    },
    {
      "inputs": [
        {
          "internalType": "contract IERC721Upgradeable",
          "name": "token",
          "type": "address"
        },
        {
          "internalType": "uint256",
          "name": "tokenId",
          "type": "uint256"
        },
        {
          "internalType": "bool",
          "name": "claimRewards",
          "type": "bool"
        }
      ],
      "name": "withdraw",
      "outputs": [],
      "stateMutability": "nonpayable",
      "type": "function"
    },
    {
      "inputs": [
        {
          "internalType": "uint256",
          "name": "operatorId",
          "type": "uint256"
        },
        {
          "internalType": "uint256",
          "name": "weaponId",
          "type": "uint256"
        },
        {
          "components": [
            {
              "internalType": "uint24",
              "name": "power",
              "type": "uint24"
            },
            {
              "internalType": "uint8",
              "name": "trait",
              "type": "uint8"
            },
            {
              "internalType": "uint16",
              "name": "fireRate",
              "type": "uint16"
            }
          ],
          "internalType": "struct IGameMaster.Target",
          "name": "target",
          "type": "tuple"
        },
        {
          "internalType": "uint8",
          "name": "fightMultiplier",
          "type": "uint8"
        }
      ],
      "name": "fight",
      "outputs": [],
      "stateMutability": "nonpayable",
      "type": "function"
    },
    {
      "inputs": [],
      "name": "claimTokenRewards",
      "outputs": [],
      "stateMutability": "nonpayable",
      "type": "function"
    },
    {
      "inputs": [],
      "name": "pause",
      "outputs": [],
      "stateMutability": "nonpayable",
      "type": "function"
    },
    {
      "inputs": [],
      "name": "unpause",
      "outputs": [],
      "stateMutability": "nonpayable",
      "type": "function"
    },
    {
      "inputs": [
        {
          "internalType": "address",
          "name": "_treasury",
          "type": "address"
        }
      ],
      "name": "setTreasury",
      "outputs": [],
      "stateMutability": "nonpayable",
      "type": "function"
    },
    {
      "inputs": [
        {
          "internalType": "int128",
          "name": "_tax",
          "type": "int128"
        }
      ],
      "name": "setTreasuryTax",
      "outputs": [],
      "stateMutability": "nonpayable",
      "type": "function"
    },
    {
      "inputs": [
        {
          "internalType": "contract IERC721Upgradeable",
          "name": "_token",
          "type": "address"
        },
        {
          "internalType": "uint32",
          "name": "_limit",
          "type": "uint32"
        }
      ],
      "name": "setInventoryLimit",
      "outputs": [],
      "stateMutability": "nonpayable",
      "type": "function"
    },
    {
      "inputs": [
        {
          "internalType": "int128",
          "name": "_operatorOwnerFee",
          "type": "int128"
        },
        {
          "internalType": "int128",
          "name": "_weaponOwnerFee",
          "type": "int128"
        }
      ],
      "name": "setFeeDistribution",
      "outputs": [],
      "stateMutability": "nonpayable",
      "type": "function"
    },
    {
      "inputs": [
        {
          "internalType": "uint256",
          "name": "_minClaimAmount",
          "type": "uint256"
        }
      ],
      "name": "setMinClaimAmount",
      "outputs": [],
      "stateMutability": "nonpayable",
      "type": "function"
    },
    {
      "inputs": [
        {
          "internalType": "contract IRewardsManager",
          "name": "_rewardsManager",
          "type": "address"
        }
      ],
      "name": "setRewardsManager",
      "outputs": [],
      "stateMutability": "nonpayable",
      "type": "function"
    },
    {
      "inputs": [
        {
          "internalType": "contract CraftingItems",
          "name": "_craftingItems",
          "type": "address"
        }
      ],
      "name": "setCraftingItems",
      "outputs": [],
      "stateMutability": "nonpayable",
      "type": "function"
    },
    {
      "inputs": [],
      "name": "getBalances",
      "outputs": [
        {
          "components": [
            {
              "internalType": "uint256",
              "name": "rewards",
              "type": "uint256"
            },
            {
              "internalType": "uint256",
              "name": "parts",
              "type": "uint256"
            },
            {
              "internalType": "uint256",
              "name": "fireCrystals",
              "type": "uint256"
            },
            {
              "internalType": "uint256",
              "name": "lightningCrystals",
              "type": "uint256"
            },
            {
              "internalType": "uint256",
              "name": "waterCrystals",
              "type": "uint256"
            },
            {
              "internalType": "uint256",
              "name": "earthCrystals",
              "type": "uint256"
            }
          ],
          "internalType": "struct NFTPoolBase.Balances",
          "name": "",
          "type": "tuple"
        }
      ],
      "stateMutability": "view",
      "type": "function"
    }
  ],
  "bytecode": "0x608060405234801561001057600080fd5b50612e56806100206000396000f3fe608060405234801561001057600080fd5b50600436106102475760003560e01c806391d148541161013b578063cb299e97116100b8578063ead5d3591161007c578063ead5d35914610483578063ecfeb5ba14610496578063f0151b171461049e578063f0f44260146104b1578063f7c618c1146104c457610247565b8063cb299e9714610450578063d547741f14610458578063d680626d1461046b578063defe205314610473578063e673df8a1461047b57610247565b8063adc25bde116100ff578063adc25bde14610412578063b47da25c1461041a578063b7e1cd861461042d578063bdf84ae714610435578063ca15c8731461043d57610247565b806391d14854146103c7578063922fc248146103da578063a217fddf146103ed578063a2b4fe71146103f5578063a8be1a5f146103fd57610247565b806343ad4616116101c95780635e020ebb1161018d5780635e020ebb1461037c57806361d027b31461039c5780636b1f6436146103a45780638456cb59146103ac5780639010d07c146103b457610247565b806343ad46161461031b57806347e7ef241461032e5780634d7288611461034157806358fbc1d3146103545780635c975abb1461036757610247565b8063248a9ca311610210578063248a9ca3146102ba5780632f2ff15d146102da57806330bd3eeb146102ed57806336568abe146103005780633f4ba83a1461031357610247565b8062113e081461024c5780630a8ddc5e1461026a5780630ec329771461027f578063150b7a02146102875780631cc7259d146102a7575b600080fd5b6102546104cc565b6040516102619190612d1c565b60405180910390f35b61027d61027836600461242a565b610a7d565b005b61027d610ae1565b61029a610295366004612469565b610bad565b6040516102619190612942565b61027d6102b53660046126c3565b610bf3565b6102cd6102c83660046125ba565b610c45565b6040516102619190612939565b61027d6102e83660046125d2565b610c5a565b6102cd6102fb36600461242a565b610c9e565b61027d61030e3660046125d2565b610cb0565b61027d610cf2565b61027d61032936600461268e565b610d27565b61027d61033c366004612622565b610d77565b61027d61034f3660046126de565b610f29565b61027d61036236600461242a565b610f8c565b61036f610fd9565b604051610261919061292e565b61038f61038a366004612622565b610fe2565b6040516102619190612824565b61038f611008565b6102cd611017565b61027d61102e565b61038f6103c2366004612601565b611061565b61036f6103d53660046125d2565b611088565b61027d6103e83660046125ba565b6110a6565b6102cd6110d6565b6102cd6110db565b6104056110e7565b6040516102619190612957565b6102cd6110f0565b6102cd61042836600461242a565b6110f6565b61038f611108565b61038f611117565b6102cd61044b3660046125ba565b611126565b61040561113d565b61027d6104663660046125d2565b61114d565b61038f611187565b61038f611196565b61038f6111a5565b61027d61049136600461264d565b6111b4565b610405611348565b61027d6104ac36600461274d565b611351565b61027d6104bf36600461242a565b611d74565b61038f611dc1565b6104d46123d0565b60a2546040516393f1a40b60e01b81526000916001600160a01b0316906393f1a40b906105079084903090600401612965565b604080518083038186803b15801561051e57600080fd5b505afa158015610532573d6000803e3d6000fd5b505050506040513d601f19601f82011682018060405250810190610556919061272a565b5060408051600580825260c08201909252919250606091906020820160a080368337505060a354604080516356bda8d960e01b815290519394506001600160a01b03909116926356bda8d992506004808301926020929190829003018186803b1580156105c257600080fd5b505afa1580156105d6573d6000803e3d6000fd5b505050506040513d601f19601f820116820180604052508101906105fa9190612712565b8160008151811061060757fe5b60209081029190910181019190915260a354604080516306da0ecb60e01b815290516001600160a01b03909216926306da0ecb92600480840193829003018186803b15801561065557600080fd5b505afa158015610669573d6000803e3d6000fd5b505050506040513d601f19601f8201168201806040525081019061068d9190612712565b8160018151811061069a57fe5b60209081029190910181019190915260a35460408051630202678560e41b815290516001600160a01b0390921692632026785092600480840193829003018186803b1580156106e857600080fd5b505afa1580156106fc573d6000803e3d6000fd5b505050506040513d601f19601f820116820180604052508101906107209190612712565b8160028151811061072d57fe5b60209081029190910181019190915260a35460408051639ce6d25360e01b815290516001600160a01b0390921692639ce6d25392600480840193829003018186803b15801561077b57600080fd5b505afa15801561078f573d6000803e3d6000fd5b505050506040513d601f19601f820116820180604052508101906107b39190612712565b816003815181106107c057fe5b60209081029190910181019190915260a3546040805163bd7c1e1160e01b815290516001600160a01b039092169263bd7c1e1192600480840193829003018186803b15801561080e57600080fd5b505afa158015610822573d6000803e3d6000fd5b505050506040513d601f19601f820116820180604052508101906108469190612712565b8160048151811061085357fe5b602090810291909101015260408051600580825260c08201909252606091816020016020820280368337019050509050308160008151811061089157fe5b60200260200101906001600160a01b031690816001600160a01b03168152505030816001815181106108bf57fe5b60200260200101906001600160a01b031690816001600160a01b03168152505030816002815181106108ed57fe5b60200260200101906001600160a01b031690816001600160a01b031681525050308160038151811061091b57fe5b60200260200101906001600160a01b031690816001600160a01b031681525050308160048151811061094957fe5b6001600160a01b03928316602091820292909201015260a3546040516313849cfd60e21b81526060929190911690634e1273f49061098d90859087906004016128ad565b60006040518083038186803b1580156109a557600080fd5b505afa1580156109b9573d6000803e3d6000fd5b505050506040513d6000823e601f3d908101601f191682016040526109e19190810190612506565b90506040518060c0016040528085815260200182600081518110610a0157fe5b6020026020010151815260200182600181518110610a1b57fe5b6020026020010151815260200182600281518110610a3557fe5b6020026020010151815260200182600381518110610a4f57fe5b6020026020010151815260200182600481518110610a6957fe5b602002602001015181525094505050505090565b610a9a604051610a8c90612809565b604051809103902033611088565b610abf5760405162461bcd60e51b8152600401610ab690612a5a565b60405180910390fd5b60a280546001600160a01b0319166001600160a01b0392909216919091179055565b336000908152609c602052604090205460a054811015610b135760405162461bcd60e51b8152600401610ab690612c70565b336000818152609c602052604080822091909155609854905163a9059cbb60e01b81526001600160a01b039091169163a9059cbb91610b579190859060040161285c565b602060405180830381600087803b158015610b7157600080fd5b505af1158015610b85573d6000803e3d6000fd5b505050506040513d601f19601f82011682018060405250810190610ba9919061259e565b5050565b609a546000906001600160a01b0316331480610bd357506099546001600160a01b031633145b15610be65750630a85bd0160e11b610bea565b5060005b95945050505050565b610c02604051610a8c90612809565b610c1e5760405162461bcd60e51b8152600401610ab690612a5a565b609d8054600f9290920b6001600160801b03166001600160801b0319909216919091179055565b60009081526033602052604090206002015490565b600082815260336020526040902060020154610c78906103d5611dd0565b610c945760405162461bcd60e51b8152600401610ab6906129dd565b610ba98282611dd4565b609c6020526000908152604090205481565b610cb8611dd0565b6001600160a01b0316816001600160a01b031614610ce85760405162461bcd60e51b8152600401610ab690612ccd565b610ba98282611e43565b610d01604051610a8c906127f3565b610d1d5760405162461bcd60e51b8152600401610ab690612a91565b610d25611eb2565b565b610d36604051610a8c90612809565b610d525760405162461bcd60e51b8152600401610ab690612a5a565b6001600160a01b03909116600090815260a16020526040902063ffffffff9091169055565b610d7f610fd9565b15610d9c5760405162461bcd60e51b8152600401610ab690612bd8565b60995482906001600160a01b0380831691161480610dc75750609a546001600160a01b038281169116145b610de35760405162461bcd60e51b8152600401610ab690612b07565b6001600160a01b038316600081815260a16020526040908190205490516370a0823160e01b81529091906370a0823190610e21903090600401612824565b60206040518083038186803b158015610e3957600080fd5b505afa158015610e4d573d6000803e3d6000fd5b505050506040513d601f19601f82011682018060405250810190610e719190612712565b10610e8e5760405162461bcd60e51b8152600401610ab690612c02565b604051632142170760e11b81526001600160a01b038416906342842e0e90610ebe90339030908790600401612838565b600060405180830381600087803b158015610ed857600080fd5b505af1158015610eec573d6000803e3d6000fd5b5050506001600160a01b039093166000908152609b602090815260408083209483529390529190912080546001600160a01b031916331790555050565b610f38604051610a8c906127f3565b610f545760405162461bcd60e51b8152600401610ab690612a91565b609f8054600f92830b6001600160801b03908116600160801b029490930b83166001600160801b031990911617909116919091179055565b610f9b604051610a8c90612809565b610fb75760405162461bcd60e51b8152600401610ab690612a5a565b60a380546001600160a01b0319166001600160a01b0392909216919091179055565b60655460ff1690565b609b6020908152600092835260408084209091529082529020546001600160a01b031681565b609e546001600160a01b031681565b60405161102390612809565b604051809103902081565b61103d604051610a8c906127f3565b6110595760405162461bcd60e51b8152600401610ab690612a91565b610d25611f20565b600082815260336020526040812061107f908363ffffffff611f7b16565b90505b92915050565b600082815260336020526040812061107f908363ffffffff611f8716565b6110b5604051610a8c906127f3565b6110d15760405162461bcd60e51b8152600401610ab690612a91565b60a055565b600081565b604051611023906127f3565b609f54600f0b81565b60a05481565b60a16020526000908152604090205481565b6099546001600160a01b031681565b6097546001600160a01b031681565b600081815260336020526040812061108290611f9c565b609f54600160801b9004600f0b81565b60008281526033602052604090206002015461116b906103d5611dd0565b610ce85760405162461bcd60e51b8152600401610ab690612b88565b60a3546001600160a01b031681565b60a2546001600160a01b031681565b609a546001600160a01b031681565b6040516331a9108f60e11b81528390839030906001600160a01b03841690636352211e906111e6908590600401612939565b60206040518083038186803b1580156111fe57600080fd5b505afa158015611212573d6000803e3d6000fd5b505050506040513d601f19601f82011682018060405250810190611236919061244d565b6001600160a01b03161461125c5760405162461bcd60e51b8152600401610ab690612ac1565b6001600160a01b038581166000908152609b602090815260408083208884529091529020541633146112a05760405162461bcd60e51b8152600401610ab690612c39565b604051632142170760e11b81526001600160a01b038616906342842e0e906112d090309033908990600401612838565b600060405180830381600087803b1580156112ea57600080fd5b505af11580156112fe573d6000803e3d6000fd5b5050506001600160a01b0386166000908152609b60209081526040808320888452909152902080546001600160a01b031916905550821561134157611341610ae1565b5050505050565b609d54600f0b81565b611359610fd9565b156113765760405162461bcd60e51b8152600401610ab690612bd8565b609a546040516331a9108f60e11b81526001600160a01b0390911690859030908390636352211e906113ac908590600401612939565b60206040518083038186803b1580156113c457600080fd5b505afa1580156113d8573d6000803e3d6000fd5b505050506040513d601f19601f820116820180604052508101906113fc919061244d565b6001600160a01b0316146114225760405162461bcd60e51b8152600401610ab690612ac1565b6099546040516331a9108f60e11b81526001600160a01b0390911690869030908390636352211e90611458908590600401612939565b60206040518083038186803b15801561147057600080fd5b505afa158015611484573d6000803e3d6000fd5b505050506040513d601f19601f820116820180604052508101906114a8919061244d565b6001600160a01b0316146114ce5760405162461bcd60e51b8152600401610ab690612ac1565b6114d66123d0565b6114de6104cc565b60975460405163f0151b1760e01b81529192506001600160a01b03169063f0151b1790611515908c908c908c908c90600401612d60565b600060405180830381600087803b15801561152f57600080fd5b505af1158015611543573d6000803e3d6000fd5b5050505061154f6123d0565b6115576104cc565b825181519192501015611982578151815160009161157b919063ffffffff611fa716565b609e549091506001600160a01b0316158015906115a25750609d546000600f91820b90910b135b156116c057609d546000906115ba90600f0b83611fcf565b60a254604051630ad58d2f60e01b81529192506001600160a01b031690630ad58d2f906115f0906000908590309060040161297c565b600060405180830381600087803b15801561160a57600080fd5b505af115801561161e573d6000803e3d6000fd5b5050609854609e5460405163a9059cbb60e01b81526001600160a01b03928316945063a9059cbb93506116599290911690859060040161285c565b602060405180830381600087803b15801561167357600080fd5b505af1158015611687573d6000803e3d6000fd5b505050506040513d601f19601f820116820180604052508101906116ab919061259e565b506116bc828263ffffffff611fa716565b9150505b609a546001600160a01b039081166000908152609b602090815260408083208f8452909152812054609f549216916116fb90600f0b84611fcf565b60a25460405163289df2cb60e01b81529192506001600160a01b03169063289df2cb90611731906000908590879060040161297c565b600060405180830381600087803b15801561174b57600080fd5b505af115801561175f573d6000803e3d6000fd5b505050507fab70def1ffe1cd4369f3a6a881db1a36f5fac043247c5af37a1ad83b90ceb4f7828260405161179492919061285c565b60405180910390a16000609b6000609960009054906101000a90046001600160a01b03166001600160a01b03166001600160a01b0316815260200190815260200160002060008e815260200190815260200160002060009054906101000a90046001600160a01b03169050600061181a609f60109054906101000a9004600f0b86611fcf565b60a25460405163289df2cb60e01b81529192506001600160a01b03169063289df2cb90611850906000908590879060040161297c565b600060405180830381600087803b15801561186a57600080fd5b505af115801561187e573d6000803e3d6000fd5b505050507f0de96f18cecdb5742f2badbf9a612e52860c0ceb20e5e105cb765d324b54642682826040516118b392919061285c565b60405180910390a16118db816118cf878663ffffffff611fa716565b9063ffffffff611fa716565b60a25460405163289df2cb60e01b81529196506001600160a01b03169063289df2cb90611911906000908990339060040161297c565b600060405180830381600087803b15801561192b57600080fd5b505af115801561193f573d6000803e3d6000fd5b505050507fd46aebaa412d7daffb7e27655e9aea6d72f737b61c3a687406e030ec989d5c9d338660405161197492919061285c565b60405180910390a150505050505b60a354604080516356bda8d960e01b81529051611a11926001600160a01b0316916356bda8d9916004808301926020929190829003018186803b1580156119c857600080fd5b505afa1580156119dc573d6000803e3d6000fd5b505050506040513d601f19601f82011682018060405250810190611a009190612712565b836020015183602001518d8d612037565b60a354604080516306da0ecb60e01b81529051611aa0926001600160a01b0316916306da0ecb916004808301926020929190829003018186803b158015611a5757600080fd5b505afa158015611a6b573d6000803e3d6000fd5b505050506040513d601f19601f82011682018060405250810190611a8f9190612712565b836040015183604001518d8d612037565b60a35460408051630202678560e41b81529051611b2f926001600160a01b0316916320267850916004808301926020929190829003018186803b158015611ae657600080fd5b505afa158015611afa573d6000803e3d6000fd5b505050506040513d601f19601f82011682018060405250810190611b1e9190612712565b836060015183606001518d8d612037565b60a35460408051639ce6d25360e01b81529051611bbe926001600160a01b031691639ce6d253916004808301926020929190829003018186803b158015611b7557600080fd5b505afa158015611b89573d6000803e3d6000fd5b505050506040513d601f19601f82011682018060405250810190611bad9190612712565b836080015183608001518d8d612037565b60a3546040805163bd7c1e1160e01b81529051611c4d926001600160a01b03169163bd7c1e11916004808301926020929190829003018186803b158015611c0457600080fd5b505afa158015611c18573d6000803e3d6000fd5b505050506040513d601f19601f82011682018060405250810190611c3c9190612712565b8360a001518360a001518d8d612037565b336000908152609c60205260409020548015611d6757336000908152609c60205260408082209190915560985460a254915163095ea7b360e01b81526001600160a01b039182169263095ea7b392611cac92911690859060040161285c565b602060405180830381600087803b158015611cc657600080fd5b505af1158015611cda573d6000803e3d6000fd5b505050506040513d601f19601f82011682018060405250810190611cfe919061259e565b5060a254604051638dbdbe6d60e01b81526001600160a01b0390911690638dbdbe6d90611d34906000908590339060040161297c565b600060405180830381600087803b158015611d4e57600080fd5b505af1158015611d62573d6000803e3d6000fd5b505050505b5050505050505050505050565b611d83604051610a8c90612809565b611d9f5760405162461bcd60e51b8152600401610ab690612a5a565b609e80546001600160a01b0319166001600160a01b0392909216919091179055565b6098546001600160a01b031681565b3390565b6000828152603360205260409020611df2908263ffffffff61223516565b15610ba957611dff611dd0565b6001600160a01b0316816001600160a01b0316837f2f8788117e7eff1d82e926ec794901d17c78024a50270940304540a733656f0d60405160405180910390a45050565b6000828152603360205260409020611e61908263ffffffff61224a16565b15610ba957611e6e611dd0565b6001600160a01b0316816001600160a01b0316837ff6391f5c32d9c69d2a47ea670b442974b53935d1edc7fd64eb21e047a839171b60405160405180910390a45050565b611eba610fd9565b611ed65760405162461bcd60e51b8152600401610ab690612a2c565b6065805460ff191690557f5db9ee0a495bf2e6ff9c91a7834c1ba4fdd244a5e8aa4e537bd38aeae4b073aa611f09611dd0565b604051611f169190612824565b60405180910390a1565b611f28610fd9565b15611f455760405162461bcd60e51b8152600401610ab690612bd8565b6065805460ff191660011790557f62e78cea01bee320cd4e420270b5ea74000d11b0c9f74754ebdbfc544b05a258611f09611dd0565b600061107f838361225f565b600061107f836001600160a01b0384166122a4565b6000611082826122bc565b600082821115611fc95760405162461bcd60e51b8152600401610ab690612b51565b50900390565b600081611fde57506000611082565b600083600f0b1215611fef57600080fd5b600f83900b6001600160801b038316810260401c90608084901c026001600160c01b0381111561201e57600080fd5b60401b811981111561202f57600080fd5b019392505050565b83831161204357611341565b6000612055848663ffffffff611fa716565b609a546001600160a01b039081166000908152609b60209081526040808320888452909152812054609f549394509091169161209490600f0b84611fcf565b60a354604051637921219560e11b81529192506001600160a01b03169063f242432a906120cb90309086908d908790600401612875565b600060405180830381600087803b1580156120e557600080fd5b505af11580156120f9573d6000803e3d6000fd5b50506099546001600160a01b039081166000908152609b602090815260408083208a8452909152812054609f5492169350915061214090600160801b9004600f0b86611fcf565b60a354604051637921219560e11b81529192506001600160a01b03169063f242432a9061217790309086908f908790600401612875565b600060405180830381600087803b15801561219157600080fd5b505af11580156121a5573d6000803e3d6000fd5b505050506121c0816118cf8588611fa790919063ffffffff16565b60a354604051637921219560e11b81529196506001600160a01b03169063f242432a906121f790309033908f908b90600401612875565b600060405180830381600087803b15801561221157600080fd5b505af1158015612225573d6000803e3d6000fd5b5050505050505050505050505050565b600061107f836001600160a01b0384166122c0565b600061107f836001600160a01b03841661230a565b815460009082106122825760405162461bcd60e51b8152600401610ab69061299b565b82600001828154811061229157fe5b9060005260206000200154905092915050565b60009081526001919091016020526040902054151590565b5490565b60006122cc83836122a4565b61230257508154600181810184556000848152602080822090930184905584548482528286019093526040902091909155611082565b506000611082565b600081815260018301602052604081205480156123c6578354600019808301919081019060009087908390811061233d57fe5b906000526020600020015490508087600001848154811061235a57fe5b60009182526020808320909101929092558281526001898101909252604090209084019055865487908061238a57fe5b60019003818190600052602060002001600090559055866001016000878152602001908152602001600020600090556001945050505050611082565b6000915050611082565b6040518060c001604052806000815260200160008152602001600081526020016000815260200160008152602001600081525090565b8035600f81900b811461108257600080fd5b803561ffff8116811461108257600080fd5b60006020828403121561243b578081fd5b813561244681612deb565b9392505050565b60006020828403121561245e578081fd5b815161244681612deb565b600080600080600060808688031215612480578081fd5b853561248b81612deb565b9450602086013561249b81612deb565b935060408601359250606086013567ffffffffffffffff808211156124be578283fd5b81880189601f8201126124cf578384fd5b80359250818311156124df578384fd5b8960208483010111156124f0578384fd5b6020810194505050809150509295509295909350565b60006020808385031215612518578182fd5b825167ffffffffffffffff81111561252e578283fd5b80840185601f82011261253f578384fd5b8051915061255461254f83612dcb565b612da4565b8281528381019082850185850284018601891015612570578687fd5b8693505b84841015612592578051835260019390930192918501918501612574565b50979650505050505050565b6000602082840312156125af578081fd5b815161244681612e03565b6000602082840312156125cb578081fd5b5035919050565b600080604083850312156125e4578182fd5b8235915060208301356125f681612deb565b809150509250929050565b60008060408385031215612613578182fd5b50508035926020909101359150565b60008060408385031215612634578182fd5b823561263f81612deb565b946020939093013593505050565b600080600060608486031215612661578081fd5b833561266c81612deb565b925060208401359150604084013561268381612e03565b809150509250925092565b600080604083850312156126a0578182fd5b82356126ab81612deb565b9150602083013563ffffffff811681146125f6578182fd5b6000602082840312156126d4578081fd5b61107f8383612406565b600080604083850312156126f0578182fd5b6126fa8484612406565b91506127098460208501612406565b90509250929050565b600060208284031215612723578081fd5b5051919050565b6000806040838503121561273c578182fd5b505080516020909101519092909150565b60008060008084860360c0811215612763578283fd5b85359450602086013593506060603f198201121561277f578283fd5b5061278a6060612da4565b604086013562ffffff8116811461279f578384fd5b8152606086013560ff811681146127b4578384fd5b60208201526127c68760808801612418565b6040820152915060a08501356127db81612e11565b939692955090935050565b6001600160a01b03169052565b692827a7a62fa0a226a4a760b11b8152600a0190565b6e23a0a6a2afa1a7a72a2927a62622a960891b8152600f0190565b6001600160a01b0391909116815260200190565b6001600160a01b039384168152919092166020820152604081019190915260600190565b6001600160a01b03929092168252602082015260400190565b6001600160a01b0394851681529290931660208301526040820152606081019190915260a06080820181905260009082015260c00190565b604080825283519082018190526000906020906060840190828701845b828110156128ed576128dd8483516127e6565b92840192908401906001016128ca565b50505083810382850152845180825285830191830190845b8181101561292157835183529284019291840191600101612905565b5090979650505050505050565b901515815260200190565b90815260200190565b6001600160e01b031991909116815260200190565b600f9190910b815260200190565b9182526001600160a01b0316602082015260400190565b92835260208301919091526001600160a01b0316604082015260600190565b60208082526022908201527f456e756d657261626c655365743a20696e646578206f7574206f6620626f756e604082015261647360f01b606082015260800190565b6020808252602f908201527f416363657373436f6e74726f6c3a2073656e646572206d75737420626520616e60408201526e0818591b5a5b881d1bc819dc985b9d608a1b606082015260800190565b60208082526014908201527314185d5cd8589b194e881b9bdd081c185d5cd95960621b604082015260600190565b6020808252601b908201527f47616d6520636f6e74726f6c6c657220726f6c65206e65656465640000000000604082015260600190565b602080825260169082015275141bdbdb0818591b5a5b881c9bdb19481b995959195960521b604082015260600190565b60208082526026908201527f546865206173736574206973206e6f74206465706f736974656420696e20746860408201526519481c1bdbdb60d21b606082015260800190565b6020808252602a908201527f546869732074797065206f66204e4654206d6179206e6f74206265206465706f6040820152697369746564206865726560b01b606082015260800190565b6020808252601e908201527f536166654d6174683a207375627472616374696f6e206f766572666c6f770000604082015260600190565b60208082526030908201527f416363657373436f6e74726f6c3a2073656e646572206d75737420626520616e60408201526f2061646d696e20746f207265766f6b6560801b606082015260800190565b60208082526010908201526f14185d5cd8589b194e881c185d5cd95960821b604082015260600190565b60208082526018908201527f506f6f6c2073697a65206c696d69742065786365656465640000000000000000604082015260600190565b6020808252601f908201527f556e617574686f72697a6564207769746864726177616c20617474656d707400604082015260600190565b60208082526039908201527f546f6f20666577207265776172647320746f20636c61696d2e20506c6561736560408201527f206561726e206d6f7265206265666f6520636c61696d696e6700000000000000606082015260800190565b6020808252602f908201527f416363657373436f6e74726f6c3a2063616e206f6e6c792072656e6f756e636560408201526e103937b632b9903337b91039b2b63360891b606082015260800190565b600060c082019050825182526020830151602083015260408301516040830152606083015160608301526080830151608083015260a083015160a083015292915050565b938452602080850193909352815162ffffff166040808601919091529282015160ff9081166060860152929091015161ffff1660808401521660a082015260c00190565b60405181810167ffffffffffffffff81118282101715612dc357600080fd5b604052919050565b600067ffffffffffffffff821115612de1578081fd5b5060209081020190565b6001600160a01b0381168114612e0057600080fd5b50565b8015158114612e0057600080fd5b60ff81168114612e0057600080fdfea2646970667358221220053cfaf54c849593b52aedc926e53132044d286f5a731a105af37ca00836423664736f6c63430006050033",
  "immutableReferences": {},
  "source": "// SPDX-License-Identifier: MIT\npragma solidity ^0.6.0;\npragma experimental ABIEncoderV2;\n\nimport '@openzeppelin/contracts-upgradeable/proxy/Initializable.sol';\nimport '@openzeppelin/contracts-upgradeable/access/AccessControlUpgradeable.sol';\nimport '@openzeppelin/contracts-upgradeable/utils/PausableUpgradeable.sol';\nimport '@openzeppelin/contracts-upgradeable/token/ERC721/IERC721Upgradeable.sol';\nimport '@openzeppelin/contracts-upgradeable/token/ERC721/IERC721ReceiverUpgradeable.sol';\nimport '@openzeppelin/contracts-upgradeable/token/ERC20/IERC20Upgradeable.sol';\nimport '@openzeppelin/contracts-upgradeable/math/SafeMathUpgradeable.sol';\nimport '../interfaces/IGameMaster.sol';\nimport '../RewardsManager/interfaces/IRewardsManager.sol';\nimport '../CraftingItems.sol';\n\ncontract NFTPoolBase is IERC721ReceiverUpgradeable, Initializable, AccessControlUpgradeable, PausableUpgradeable {\n    using SafeMathUpgradeable for uint256;\n\n    IGameMaster public gameMaster;\n    IERC20Upgradeable public rewardToken;\n    IERC721Upgradeable public weapons;\n    IERC721Upgradeable public operators;\n    mapping(IERC721Upgradeable => mapping(uint256 => address)) public depositor;\n    mapping(address => uint256) public tokenRewards;\n\n    int128 public treasuryTax;\n    address public treasury;\n    int128 public operatorOwnerFee;\n    int128 public weaponOwnerFee;\n    uint256 public minClaimAmount;\n    mapping(IERC721Upgradeable => uint256) public inventoryLimit;\n\n    IRewardsManager public rewardsManager;\n    CraftingItems public craftingItems;\n\n    bytes32 public constant GAME_CONTROLLER = keccak256('GAME_CONTROLLER');\n    bytes32 public constant POOL_ADMIN = keccak256('POOL_ADMIN');\n\n    event PlayerRewardDistributed(address player, uint256 rewardAmount);\n    event OperatorOwnerRewardDistributed(address owner, uint256 rewardAmount);\n    event WeaponOwnerDistributed(address owner, uint256 rewardAmount);\n\n    struct Balances {\n        uint256 rewards;\n        uint256 parts;\n        uint256 fireCrystals;\n        uint256 lightningCrystals;\n        uint256 waterCrystals;\n        uint256 earthCrystals;\n    }\n\n    function __NFTPoolBase_init(IGameMaster _gameMaster, address _poolAdmin) internal initializer {\n        __AccessControl_init();\n        __Pausable_init();\n\n        _setupRole(POOL_ADMIN, msg.sender);\n        _setupRole(GAME_CONTROLLER, msg.sender);\n        _setupRole(POOL_ADMIN, _poolAdmin);\n        _setRoleAdmin(POOL_ADMIN, POOL_ADMIN);\n\n        gameMaster = _gameMaster;\n        rewardToken = gameMaster.tagToken();\n        weapons = gameMaster.weapons();\n        operators = gameMaster.characters();\n        rewardsManager = gameMaster.rewardsManager();\n    }\n\n    function onERC721Received(\n        address,\n        address,\n        uint256,\n        bytes calldata\n    ) external override returns (bytes4) {\n        if (msg.sender == address(operators) || msg.sender == address(weapons)) {\n            return IERC721ReceiverUpgradeable.onERC721Received.selector;\n        } else {\n            return 0;\n        }\n    }\n\n    function deposit(IERC721Upgradeable token, uint256 tokenId) public virtual whenNotPaused tokenAllowed(token) {\n        require(token.balanceOf(address(this)) < inventoryLimit[token], 'Pool size limit exceeded');\n\n        token.safeTransferFrom(msg.sender, address(this), tokenId);\n        depositor[token][tokenId] = msg.sender;\n    }\n\n    function withdraw(\n        IERC721Upgradeable token,\n        uint256 tokenId,\n        bool claimRewards\n    ) public virtual deposited(token, tokenId) {\n        require(depositor[token][tokenId] == msg.sender, 'Unauthorized withdrawal attempt');\n        token.safeTransferFrom(address(this), msg.sender, tokenId);\n        delete depositor[token][tokenId];\n\n        if (claimRewards) {\n            claimTokenRewards();\n        }\n    }\n\n    function fight(\n        uint256 operatorId,\n        uint256 weaponId,\n        IGameMaster.Target memory target,\n        uint8 fightMultiplier\n    ) public virtual whenNotPaused deposited(operators, operatorId) deposited(weapons, weaponId) {\n        \n        Balances memory balanceBefore = getBalances();\n        gameMaster.fight(operatorId, weaponId, target, fightMultiplier);\n        Balances memory balanceAfter = getBalances();\n\n        if (balanceAfter.rewards > balanceBefore.rewards) {\n            uint256 totalReward = balanceAfter.rewards.sub(balanceBefore.rewards);\n\n            if (address(treasury) != address(0) && treasuryTax > 0) {\n                uint256 taxAmount = ABDKMath64x64.mulu(treasuryTax, totalReward);\n                rewardsManager.withdraw(0, taxAmount, address(this));\n                rewardToken.transfer(treasury, taxAmount);\n                totalReward = totalReward.sub(taxAmount);\n            }\n\n            address operatorOwner = depositor[operators][operatorId];\n            uint256 operatorReward = ABDKMath64x64.mulu(operatorOwnerFee, totalReward);\n            rewardsManager.transfer(0, operatorReward, operatorOwner);\n            emit OperatorOwnerRewardDistributed(operatorOwner, operatorReward);\n\n            address weaponOwner = depositor[weapons][weaponId];\n            uint256 weaponReward = ABDKMath64x64.mulu(weaponOwnerFee, totalReward);\n            rewardsManager.transfer(0, weaponReward, weaponOwner);\n            emit WeaponOwnerDistributed(weaponOwner, weaponReward);\n\n            totalReward = totalReward.sub(operatorReward).sub(weaponReward);\n            rewardsManager.transfer(0, totalReward, msg.sender);\n            emit PlayerRewardDistributed(msg.sender, totalReward);\n        }\n\n        distributePartsOrCrystals(craftingItems.PART(), balanceBefore.parts, balanceAfter.parts, operatorId, weaponId);\n        distributePartsOrCrystals(craftingItems.FIRE_CRYSTAL(), balanceBefore.fireCrystals, balanceAfter.fireCrystals, operatorId, weaponId);\n        distributePartsOrCrystals(craftingItems.LIGHTNING_CRYSTAL(), balanceBefore.lightningCrystals, balanceAfter.lightningCrystals, operatorId, weaponId);\n        distributePartsOrCrystals(craftingItems.WATER_CRYSTAL(), balanceBefore.waterCrystals, balanceAfter.waterCrystals, operatorId, weaponId);\n        distributePartsOrCrystals(craftingItems.EARTH_CRYSTAL(), balanceBefore.earthCrystals, balanceAfter.earthCrystals, operatorId, weaponId);\n\n        // Migrate old rewards to Rewards Manager\n        uint256 _tokenRewards = tokenRewards[msg.sender];\n        if (_tokenRewards > 0) {\n            tokenRewards[msg.sender] = 0;\n            rewardToken.approve(address(rewardsManager), _tokenRewards);\n            rewardsManager.deposit(0, _tokenRewards, msg.sender);\n        }\n    }\n\n    function claimTokenRewards() public virtual {\n        uint256 _tokenRewards = tokenRewards[msg.sender];\n\n        require(_tokenRewards >= minClaimAmount, 'Too few rewards to claim. Please earn more befoe claiming');\n        tokenRewards[msg.sender] = 0;\n\n        rewardToken.transfer(msg.sender, _tokenRewards);\n    }\n\n    function pause() external onlyPoolAdmin {\n        _pause();\n    }\n\n    function unpause() external onlyPoolAdmin {\n        _unpause();\n    }\n\n    function setTreasury(address _treasury) public onlyGameController {\n        treasury = _treasury;\n    }\n\n    function setTreasuryTax(int128 _tax) public onlyGameController {\n        treasuryTax = _tax;\n    }\n\n    function setInventoryLimit(IERC721Upgradeable _token, uint32 _limit) public onlyGameController {\n        inventoryLimit[_token] = _limit;\n    }\n\n    function setFeeDistribution(int128 _operatorOwnerFee, int128 _weaponOwnerFee) public virtual onlyPoolAdmin {\n        operatorOwnerFee = _operatorOwnerFee;\n        weaponOwnerFee = _weaponOwnerFee;\n    }\n\n    function setMinClaimAmount(uint256 _minClaimAmount) public onlyPoolAdmin {\n        minClaimAmount = _minClaimAmount;\n    }\n\n    function setRewardsManager(IRewardsManager _rewardsManager) public onlyGameController {\n        rewardsManager = _rewardsManager;\n    }\n\n    function setCraftingItems(CraftingItems _craftingItems) public onlyGameController {\n        craftingItems = _craftingItems;\n    }\n\n    function getBalances() public view returns (Balances memory) {\n        (uint256 rewards, ) = rewardsManager.userInfo(0, address(this));\n        uint256[] memory tokenIds = new uint[](5);\n        tokenIds[0] = craftingItems.PART();\n        tokenIds[1] = craftingItems.FIRE_CRYSTAL();\n        tokenIds[2] = craftingItems.LIGHTNING_CRYSTAL();\n        tokenIds[3] = craftingItems.WATER_CRYSTAL();\n        tokenIds[4] = craftingItems.EARTH_CRYSTAL();\n\n        address[] memory addresses = new address[](5);\n        addresses[0] = address(this);\n        addresses[1] = address(this);\n        addresses[2] = address(this);\n        addresses[3] = address(this);\n        addresses[4] = address(this);\n\n        uint256[] memory balances = craftingItems.balanceOfBatch(addresses,tokenIds);\n\n        return Balances(rewards, balances[0], balances[1], balances[2], balances[3], balances[4]);\n    }\n\n    function distributePartsOrCrystals(uint256 tokenId, uint256 balanceBefore, uint256 balanceAfter, uint256 operatorId, uint256 weaponId) private {\n        if (balanceAfter <= balanceBefore) return;\n\n        uint256 totalReward = balanceAfter.sub(balanceBefore);\n\n        address operatorOwner = depositor[operators][operatorId];\n        uint256 operatorReward = ABDKMath64x64.mulu(operatorOwnerFee, totalReward);\n        craftingItems.safeTransferFrom(address(this), operatorOwner, tokenId, operatorReward, '');\n\n        address weaponOwner = depositor[weapons][weaponId];\n        uint256 weaponReward = ABDKMath64x64.mulu(weaponOwnerFee, totalReward);\n        craftingItems.safeTransferFrom(address(this), weaponOwner, tokenId, weaponReward, '');\n\n        totalReward = totalReward.sub(operatorReward).sub(weaponReward);\n        craftingItems.safeTransferFrom(address(this), msg.sender, tokenId, totalReward, '');\n    }\n\n    modifier deposited(IERC721Upgradeable token, uint256 tokenId) {\n        require(token.ownerOf(tokenId) == address(this), 'The asset is not deposited in the pool');\n        _;\n    }\n\n    modifier tokenAllowed(IERC721Upgradeable token) {\n        require(token == weapons || token == operators, 'This type of NFT may not be deposited here');\n        _;\n    }\n\n    modifier onlyPoolAdmin() {\n        require(hasRole(POOL_ADMIN, msg.sender), 'Pool admin role needed');\n        _;\n    }\n\n    modifier onlyGameController() {\n        require(hasRole(GAME_CONTROLLER, msg.sender), 'Game controller role needed');\n        _;\n    }\n}\n",
  "sourcePath": "/Users/school/dev/ciphershooters/contracts/NFTPool/NFTPoolBase.sol",
  "compiler": {
    "name": "solc",
    "version": "0.6.5+commit.f956cc89.Emscripten.clang"
  },
  "schemaVersion": "3.4.6",
  "updatedAt": "2022-06-04T16:14:57.759Z",
  "devdoc": {
    "methods": {
      "getRoleAdmin(bytes32)": {
        "details": "Returns the admin role that controls `role`. See {grantRole} and {revokeRole}.     * To change a role's admin, use {_setRoleAdmin}."
      },
      "getRoleMember(bytes32,uint256)": {
        "details": "Returns one of the accounts that have `role`. `index` must be a value between 0 and {getRoleMemberCount}, non-inclusive.     * Role bearers are not sorted in any particular way, and their ordering may change at any point.     * WARNING: When using {getRoleMember} and {getRoleMemberCount}, make sure you perform all queries on the same block. See the following https://forum.openzeppelin.com/t/iterating-over-elements-on-enumerableset-in-openzeppelin-contracts/2296[forum post] for more information."
      },
      "getRoleMemberCount(bytes32)": {
        "details": "Returns the number of accounts that have `role`. Can be used together with {getRoleMember} to enumerate all bearers of a role."
      },
      "grantRole(bytes32,address)": {
        "details": "Grants `role` to `account`.     * If `account` had not been already granted `role`, emits a {RoleGranted} event.     * Requirements:     * - the caller must have ``role``'s admin role."
      },
      "hasRole(bytes32,address)": {
        "details": "Returns `true` if `account` has been granted `role`."
      },
      "paused()": {
        "details": "Returns true if the contract is paused, and false otherwise."
      },
      "renounceRole(bytes32,address)": {
        "details": "Revokes `role` from the calling account.     * Roles are often managed via {grantRole} and {revokeRole}: this function's purpose is to provide a mechanism for accounts to lose their privileges if they are compromised (such as when a trusted device is misplaced).     * If the calling account had been granted `role`, emits a {RoleRevoked} event.     * Requirements:     * - the caller must be `account`."
      },
      "revokeRole(bytes32,address)": {
        "details": "Revokes `role` from `account`.     * If `account` had been granted `role`, emits a {RoleRevoked} event.     * Requirements:     * - the caller must have ``role``'s admin role."
      }
    }
  },
  "userdoc": {
    "methods": {}
  }
}