{
  "contractName": "PreMintSale",
  "abi": [
    {
      "anonymous": false,
      "inputs": [
        {
          "indexed": false,
          "internalType": "address",
          "name": "account",
          "type": "address"
        }
      ],
      "name": "Paused",
      "type": "event"
    },
    {
      "anonymous": false,
      "inputs": [
        {
          "indexed": true,
          "internalType": "bytes32",
          "name": "role",
          "type": "bytes32"
        },
        {
          "indexed": true,
          "internalType": "bytes32",
          "name": "previousAdminRole",
          "type": "bytes32"
        },
        {
          "indexed": true,
          "internalType": "bytes32",
          "name": "newAdminRole",
          "type": "bytes32"
        }
      ],
      "name": "RoleAdminChanged",
      "type": "event"
    },
    {
      "anonymous": false,
      "inputs": [
        {
          "indexed": true,
          "internalType": "bytes32",
          "name": "role",
          "type": "bytes32"
        },
        {
          "indexed": true,
          "internalType": "address",
          "name": "account",
          "type": "address"
        },
        {
          "indexed": true,
          "internalType": "address",
          "name": "sender",
          "type": "address"
        }
      ],
      "name": "RoleGranted",
      "type": "event"
    },
    {
      "anonymous": false,
      "inputs": [
        {
          "indexed": true,
          "internalType": "bytes32",
          "name": "role",
          "type": "bytes32"
        },
        {
          "indexed": true,
          "internalType": "address",
          "name": "account",
          "type": "address"
        },
        {
          "indexed": true,
          "internalType": "address",
          "name": "sender",
          "type": "address"
        }
      ],
      "name": "RoleRevoked",
      "type": "event"
    },
    {
      "anonymous": false,
      "inputs": [
        {
          "indexed": false,
          "internalType": "address",
          "name": "account",
          "type": "address"
        }
      ],
      "name": "Unpaused",
      "type": "event"
    },
    {
      "anonymous": false,
      "inputs": [
        {
          "indexed": true,
          "internalType": "address",
          "name": "admin",
          "type": "address"
        },
        {
          "indexed": false,
          "internalType": "uint256",
          "name": "batchNumber",
          "type": "uint256"
        }
      ],
      "name": "updatedBatchNumber",
      "type": "event"
    },
    {
      "inputs": [],
      "name": "DEFAULT_ADMIN_ROLE",
      "outputs": [
        {
          "internalType": "bytes32",
          "name": "",
          "type": "bytes32"
        }
      ],
      "stateMutability": "view",
      "type": "function"
    },
    {
      "inputs": [],
      "name": "GAME_ADMIN",
      "outputs": [
        {
          "internalType": "bytes32",
          "name": "",
          "type": "bytes32"
        }
      ],
      "stateMutability": "view",
      "type": "function"
    },
    {
      "inputs": [],
      "name": "WETH",
      "outputs": [
        {
          "internalType": "contract IERC20",
          "name": "",
          "type": "address"
        }
      ],
      "stateMutability": "view",
      "type": "function"
    },
    {
      "inputs": [],
      "name": "batchNumber",
      "outputs": [
        {
          "internalType": "uint256",
          "name": "",
          "type": "uint256"
        }
      ],
      "stateMutability": "view",
      "type": "function"
    },
    {
      "inputs": [],
      "name": "characters",
      "outputs": [
        {
          "internalType": "contract Characters",
          "name": "",
          "type": "address"
        }
      ],
      "stateMutability": "view",
      "type": "function"
    },
    {
      "inputs": [],
      "name": "currentTotalMintedElite",
      "outputs": [
        {
          "internalType": "uint256",
          "name": "",
          "type": "uint256"
        }
      ],
      "stateMutability": "view",
      "type": "function"
    },
    {
      "inputs": [],
      "name": "currentTotalMintedTrainee",
      "outputs": [
        {
          "internalType": "uint256",
          "name": "",
          "type": "uint256"
        }
      ],
      "stateMutability": "view",
      "type": "function"
    },
    {
      "inputs": [
        {
          "internalType": "uint256",
          "name": "",
          "type": "uint256"
        }
      ],
      "name": "earlyAdopters",
      "outputs": [
        {
          "internalType": "address",
          "name": "",
          "type": "address"
        }
      ],
      "stateMutability": "view",
      "type": "function"
    },
    {
      "inputs": [],
      "name": "earlyAdoptersDuration",
      "outputs": [
        {
          "internalType": "uint256",
          "name": "",
          "type": "uint256"
        }
      ],
      "stateMutability": "view",
      "type": "function"
    },
    {
      "inputs": [],
      "name": "eliteCharacterBaseFee",
      "outputs": [
        {
          "internalType": "uint256",
          "name": "",
          "type": "uint256"
        }
      ],
      "stateMutability": "view",
      "type": "function"
    },
    {
      "inputs": [
        {
          "internalType": "bytes32",
          "name": "role",
          "type": "bytes32"
        }
      ],
      "name": "getRoleAdmin",
      "outputs": [
        {
          "internalType": "bytes32",
          "name": "",
          "type": "bytes32"
        }
      ],
      "stateMutability": "view",
      "type": "function"
    },
    {
      "inputs": [
        {
          "internalType": "bytes32",
          "name": "role",
          "type": "bytes32"
        },
        {
          "internalType": "uint256",
          "name": "index",
          "type": "uint256"
        }
      ],
      "name": "getRoleMember",
      "outputs": [
        {
          "internalType": "address",
          "name": "",
          "type": "address"
        }
      ],
      "stateMutability": "view",
      "type": "function"
    },
    {
      "inputs": [
        {
          "internalType": "bytes32",
          "name": "role",
          "type": "bytes32"
        }
      ],
      "name": "getRoleMemberCount",
      "outputs": [
        {
          "internalType": "uint256",
          "name": "",
          "type": "uint256"
        }
      ],
      "stateMutability": "view",
      "type": "function"
    },
    {
      "inputs": [
        {
          "internalType": "bytes32",
          "name": "role",
          "type": "bytes32"
        },
        {
          "internalType": "address",
          "name": "account",
          "type": "address"
        }
      ],
      "name": "grantRole",
      "outputs": [],
      "stateMutability": "nonpayable",
      "type": "function"
    },
    {
      "inputs": [
        {
          "internalType": "bytes32",
          "name": "role",
          "type": "bytes32"
        },
        {
          "internalType": "address",
          "name": "account",
          "type": "address"
        }
      ],
      "name": "hasRole",
      "outputs": [
        {
          "internalType": "bool",
          "name": "",
          "type": "bool"
        }
      ],
      "stateMutability": "view",
      "type": "function"
    },
    {
      "inputs": [],
      "name": "paused",
      "outputs": [
        {
          "internalType": "bool",
          "name": "",
          "type": "bool"
        }
      ],
      "stateMutability": "view",
      "type": "function"
    },
    {
      "inputs": [],
      "name": "premintStarts",
      "outputs": [
        {
          "internalType": "uint256",
          "name": "",
          "type": "uint256"
        }
      ],
      "stateMutability": "view",
      "type": "function"
    },
    {
      "inputs": [],
      "name": "priceIncreaseEveryBatchForElite",
      "outputs": [
        {
          "internalType": "uint256",
          "name": "",
          "type": "uint256"
        }
      ],
      "stateMutability": "view",
      "type": "function"
    },
    {
      "inputs": [],
      "name": "priceIncreaseEveryBatchForTrainee",
      "outputs": [
        {
          "internalType": "uint256",
          "name": "",
          "type": "uint256"
        }
      ],
      "stateMutability": "view",
      "type": "function"
    },
    {
      "inputs": [],
      "name": "randoms",
      "outputs": [
        {
          "internalType": "contract IRandoms",
          "name": "",
          "type": "address"
        }
      ],
      "stateMutability": "view",
      "type": "function"
    },
    {
      "inputs": [],
      "name": "referralPercent",
      "outputs": [
        {
          "internalType": "uint256",
          "name": "",
          "type": "uint256"
        }
      ],
      "stateMutability": "view",
      "type": "function"
    },
    {
      "inputs": [
        {
          "internalType": "bytes32",
          "name": "role",
          "type": "bytes32"
        },
        {
          "internalType": "address",
          "name": "account",
          "type": "address"
        }
      ],
      "name": "renounceRole",
      "outputs": [],
      "stateMutability": "nonpayable",
      "type": "function"
    },
    {
      "inputs": [
        {
          "internalType": "bytes32",
          "name": "role",
          "type": "bytes32"
        },
        {
          "internalType": "address",
          "name": "account",
          "type": "address"
        }
      ],
      "name": "revokeRole",
      "outputs": [],
      "stateMutability": "nonpayable",
      "type": "function"
    },
    {
      "inputs": [],
      "name": "traineeCharacterBaseFee",
      "outputs": [
        {
          "internalType": "uint256",
          "name": "",
          "type": "uint256"
        }
      ],
      "stateMutability": "view",
      "type": "function"
    },
    {
      "inputs": [],
      "name": "treasury",
      "outputs": [
        {
          "internalType": "address",
          "name": "",
          "type": "address"
        }
      ],
      "stateMutability": "view",
      "type": "function"
    },
    {
      "inputs": [
        {
          "internalType": "contract Characters",
          "name": "_characters",
          "type": "address"
        },
        {
          "internalType": "contract IRandoms",
          "name": "_randoms",
          "type": "address"
        },
        {
          "internalType": "address",
          "name": "_weth",
          "type": "address"
        },
        {
          "internalType": "address[]",
          "name": "_earlyAdopters",
          "type": "address[]"
        }
      ],
      "name": "initialize",
      "outputs": [],
      "stateMutability": "nonpayable",
      "type": "function"
    },
    {
      "inputs": [
        {
          "internalType": "address",
          "name": "_treasury",
          "type": "address"
        }
      ],
      "name": "setTreasury",
      "outputs": [],
      "stateMutability": "nonpayable",
      "type": "function"
    },
    {
      "inputs": [],
      "name": "setPreMintStartTime",
      "outputs": [],
      "stateMutability": "nonpayable",
      "type": "function"
    },
    {
      "inputs": [
        {
          "internalType": "address",
          "name": "referral",
          "type": "address"
        }
      ],
      "name": "preSaleMintElite",
      "outputs": [],
      "stateMutability": "nonpayable",
      "type": "function"
    },
    {
      "inputs": [
        {
          "internalType": "address",
          "name": "referral",
          "type": "address"
        }
      ],
      "name": "preSaleMintTrainee",
      "outputs": [],
      "stateMutability": "nonpayable",
      "type": "function"
    },
    {
      "inputs": [],
      "name": "startNextBatch",
      "outputs": [
        {
          "internalType": "uint256",
          "name": "",
          "type": "uint256"
        }
      ],
      "stateMutability": "nonpayable",
      "type": "function"
    },
    {
      "inputs": [
        {
          "internalType": "address[]",
          "name": "users",
          "type": "address[]"
        }
      ],
      "name": "addEarlyAdopters",
      "outputs": [],
      "stateMutability": "nonpayable",
      "type": "function"
    },
    {
      "inputs": [],
      "name": "getAllEarlyAdopters",
      "outputs": [
        {
          "internalType": "address[]",
          "name": "",
          "type": "address[]"
        }
      ],
      "stateMutability": "view",
      "type": "function"
    },
    {
      "inputs": [],
      "name": "getMyCharacters",
      "outputs": [
        {
          "internalType": "uint256[]",
          "name": "",
          "type": "uint256[]"
        }
      ],
      "stateMutability": "view",
      "type": "function"
    },
    {
      "inputs": [
        {
          "internalType": "uint256",
          "name": "amount",
          "type": "uint256"
        }
      ],
      "name": "withdraw",
      "outputs": [],
      "stateMutability": "nonpayable",
      "type": "function"
    },
    {
      "inputs": [],
      "name": "pause",
      "outputs": [],
      "stateMutability": "nonpayable",
      "type": "function"
    },
    {
      "inputs": [],
      "name": "unpause",
      "outputs": [],
      "stateMutability": "nonpayable",
      "type": "function"
    }
  ],
  "bytecode": "0x608060405234801561001057600080fd5b506128be806100206000396000f3fe608060405234801561001057600080fd5b50600436106102275760003560e01c8063951fa54011610130578063d547741f116100b8578063e856bece1161007c578063e856bece14610407578063f0f442601461040f578063f1f94ba414610422578063fa85cd5a1461042a578063fff5e0421461043257610227565b8063d547741f146103b1578063d90422d1146103c4578063daeaea53146103cc578063e03a4eb5146103df578063e6bfbfd8146103f457610227565b8063ba873065116100ff578063ba87306514610373578063bee666d81461037b578063c762b7e514610383578063ca15c87314610396578063d070bb54146103a957610227565b8063951fa540146103535780639ba8a7831461035b578063a217fddf14610363578063ad5c46481461036b57610227565b80633f4ba83a116101b35780636f5bc007116101825780636f5bc007146102ff5780638456cb591461031257806388b2436e1461031a5780639010d07c1461032d57806391d148541461034057610227565b80633f4ba83a146102c55780635504d3d2146102cd5780635c975abb146102d557806361d027b3146102ea57610227565b80632e1a7d4d116101fa5780632e1a7d4d1461026d5780632f2ff15d14610282578063343dfb7e1461029557806336568abe1461029d5780633c4739d3146102b057610227565b80631915db881461022c578063248a9ca31461024a5780632588ae5a1461025d5780632d48482b14610265575b600080fd5b61023461043a565b60405161024191906122d6565b60405180910390f35b61023461025836600461209f565b610440565b610234610455565b61023461045b565b61028061027b36600461209f565b610461565b005b6102806102903660046120b7565b6105c5565b61023461060d565b6102806102ab3660046120b7565b610612565b6102b8610654565b6040516102419190612293565b6102806107d0565b6102346107e2565b6102dd6107f9565b60405161024191906122cb565b6102f2610802565b60405161024191906121a8565b61028061030d366004612028565b610811565b610280610dba565b6102f261032836600461209f565b610dca565b6102f261033b3660046120e6565b610df1565b6102dd61034e3660046120b7565b610e18565b610234610e36565b610234610e3c565b610234610e42565b6102f2610e47565b610234610e56565b6102f2610e5c565b610280610391366004612028565b610e6b565b6102346103a436600461209f565b6114d9565b6102f26114f0565b6102806103bf3660046120b7565b6114ff565b610234611539565b6102806103da366004612044565b61153f565b6103e761160d565b6040516102419190612246565b610280610402366004612107565b61166f565b6102346117ab565b61028061041d366004612028565b611849565b610280611873565b6102346118a6565b6102346118ac565b60d25481565b60009081526033602052604090206002015490565b60cc5481565b60d05481565b6002609754141561048d5760405162461bcd60e51b815260040161048490612798565b60405180910390fd5b600260975561049a6118b2565b60cb546040516370a0823160e01b815282916001600160a01b0316906370a08231906104ca9030906004016121a8565b60206040518083038186803b1580156104e257600080fd5b505afa1580156104f6573d6000803e3d6000fd5b505050506040513d601f19601f8201168201806040525081019061051a919061217a565b10156105385760405162461bcd60e51b815260040161048490612848565b60cb5460405163a9059cbb60e01b81526001600160a01b039091169063a9059cbb9061056a90339085906004016121fa565b602060405180830381600087803b15801561058457600080fd5b505af1158015610598573d6000803e3d6000fd5b505050506040513d601f19601f820116820180604052508101906105bc919061207f565b50506001609755565b6000828152603360205260409020600201546105e39061034e6118d9565b6105ff5760405162461bcd60e51b815260040161048490612321565b61060982826118dd565b5050565b601981565b61061a6118d9565b6001600160a01b0316816001600160a01b03161461064a5760405162461bcd60e51b8152600401610484906127cf565b610609828261194c565b60c9546040516370a0823160e01b815260609182916001600160a01b03909116906370a08231906106899033906004016121a8565b60206040518083038186803b1580156106a157600080fd5b505afa1580156106b5573d6000803e3d6000fd5b505050506040513d601f19601f820116820180604052508101906106d9919061217a565b67ffffffffffffffff811180156106ef57600080fd5b50604051908082528060200260200182016040528015610719578160200160208202803683370190505b50905060005b81518110156107c95760c954604051632f745c5960e01b81526001600160a01b0390911690632f745c599061075a90339085906004016121fa565b60206040518083038186803b15801561077257600080fd5b505afa158015610786573d6000803e3d6000fd5b505050506040513d601f19601f820116820180604052508101906107aa919061217a565b8282815181106107b657fe5b602090810291909101015260010161071f565b5090505b90565b6107d86119bb565b6107e06119f4565b565b6040516107ee90612192565b604051809103902081565b60655460ff1690565b60d6546001600160a01b031681565b6108196107f9565b156108365760405162461bcd60e51b8152600401610484906124ca565b61083e611a62565b3361084881611a6e565b6002609754141561086b5760405162461bcd60e51b815260040161048490612798565b600260975560d55461088590612a3063ffffffff611ac116565b4210156108f9576000805b60d4548110156108d957336001600160a01b031660d482815481106108b157fe5b6000918252602090912001546001600160a01b031614156108d157600191505b600101610890565b50806108f75760405162461bcd60e51b81526004016104849061239e565b505b816001600160a01b0381161561093257336001600160a01b03821614156109325760405162461bcd60e51b815260040161048490612735565b61138860d05411156109565760405162461bcd60e51b815260040161048490612761565b60cd5460cb54604051636eb1769f60e11b81526001600160a01b039091169063dd62ed3e9061098b90339030906004016121bc565b60206040518083038186803b1580156109a357600080fd5b505afa1580156109b7573d6000803e3d6000fd5b505050506040513d601f19601f820116820180604052508101906109db919061217a565b10156109f95760405162461bcd60e51b815260040161048490612709565b60ca54604051630e20f61560e21b81526000916001600160a01b031690633883d85490610a2a9033906004016121a8565b60206040518083038186803b158015610a4257600080fd5b505afa158015610a56573d6000803e3d6000fd5b505050506040513d601f19601f82011682018060405250810190610a7a919061217a565b90506000610aa66103e8610a9a601960cd54611ae690919063ffffffff16565b9063ffffffff611b2016565b60d054909150610abd90600163ffffffff611ac116565b60d05560cb546001600160a01b03166323b872dd3330610af6610ae786600263ffffffff611ae616565b60cd549063ffffffff611b5216565b6040518463ffffffff1660e01b8152600401610b14939291906121d6565b602060405180830381600087803b158015610b2e57600080fd5b505af1158015610b42573d6000803e3d6000fd5b505050506040513d601f19601f82011682018060405250810190610b66919061207f565b506001600160a01b03851615610c025760cb546040516323b872dd60e01b81526001600160a01b03909116906323b872dd90610baa903390899086906004016121d6565b602060405180830381600087803b158015610bc457600080fd5b505af1158015610bd8573d6000803e3d6000fd5b505050506040513d601f19601f82011682018060405250810190610bfc919061207f565b50610c8f565b60cb5460d6546040516323b872dd60e01b81526001600160a01b03928316926323b872dd92610c3b9233929091169086906004016121d6565b602060405180830381600087803b158015610c5557600080fd5b505af1158015610c69573d6000803e3d6000fd5b505050506040513d601f19601f82011682018060405250810190610c8d919061207f565b505b60cb5460d6546040516323b872dd60e01b81526001600160a01b03928316926323b872dd92610cc89233929091169086906004016121d6565b602060405180830381600087803b158015610ce257600080fd5b505af1158015610cf6573d6000803e3d6000fd5b505050506040513d601f19601f82011682018060405250810190610d1a919061207f565b5060c95460d0546001600160a01b039091169063a7a6be969033908590600190610d5d908290610d5190600563ffffffff611b7a16565b9063ffffffff611ac116565b6040518563ffffffff1660e01b8152600401610d7c9493929190612213565b600060405180830381600087803b158015610d9657600080fd5b505af1158015610daa573d6000803e3d6000fd5b5050600160975550505050505050565b610dc26119bb565b6107e0611bac565b60d48181548110610dd757fe5b6000918252602090912001546001600160a01b0316905081565b6000828152603360205260408120610e0f908363ffffffff611c0716565b90505b92915050565b6000828152603360205260408120610e0f908363ffffffff611c1316565b60d55481565b60d15481565b600081565b60cb546001600160a01b031681565b60ce5481565b60ca546001600160a01b031681565b610e736107f9565b15610e905760405162461bcd60e51b8152600401610484906124ca565b60cf54610ea490606463ffffffff611b2016565b60ce54148015610eb75750600960ce5411155b610ed35760405162461bcd60e51b81526004016104849061261b565b610edb611a62565b33610ee581611a6e565b60026097541415610f085760405162461bcd60e51b815260040161048490612798565b600260975560d554610f2290612a3063ffffffff611ac116565b421015610f96576000805b60d454811015610f7657336001600160a01b031660d48281548110610f4e57fe5b6000918252602090912001546001600160a01b03161415610f6e57600191505b600101610f2d565b5080610f945760405162461bcd60e51b81526004016104849061239e565b505b816001600160a01b03811615610fcf57336001600160a01b0382161415610fcf5760405162461bcd60e51b815260040161048490612735565b6103e860cf541115610ff35760405162461bcd60e51b815260040161048490612645565b60ce5461100790606463ffffffff611ae616565b60cf541015801561103f575061103a606461102e600160ce54611ac190919063ffffffff16565b9063ffffffff611ae616565b60cf54105b61105b5760405162461bcd60e51b81526004016104849061267c565b6000611097611088611079600160ce54611b5290919063ffffffff16565b60d1549063ffffffff611ae616565b60cc549063ffffffff611ac116565b905060006110b26103e8610a9a84601963ffffffff611ae616565b60cb54604051636eb1769f60e11b815291925083916001600160a01b039091169063dd62ed3e906110e990339030906004016121bc565b60206040518083038186803b15801561110157600080fd5b505afa158015611115573d6000803e3d6000fd5b505050506040513d601f19601f82011682018060405250810190611139919061217a565b10156111575760405162461bcd60e51b815260040161048490612709565b60ca54604051630e20f61560e21b81526000916001600160a01b031690633883d854906111889033906004016121a8565b60206040518083038186803b1580156111a057600080fd5b505afa1580156111b4573d6000803e3d6000fd5b505050506040513d601f19601f820116820180604052508101906111d8919061217a565b60cf549091506111ef90600163ffffffff611ac116565b60cf5560cb546001600160a01b03166323b872dd333061122661121987600263ffffffff611ae616565b889063ffffffff611b5216565b6040518463ffffffff1660e01b8152600401611244939291906121d6565b602060405180830381600087803b15801561125e57600080fd5b505af1158015611272573d6000803e3d6000fd5b505050506040513d601f19601f82011682018060405250810190611296919061207f565b506001600160a01b038616156113325760cb546040516323b872dd60e01b81526001600160a01b03909116906323b872dd906112da9033908a9087906004016121d6565b602060405180830381600087803b1580156112f457600080fd5b505af1158015611308573d6000803e3d6000fd5b505050506040513d601f19601f8201168201806040525081019061132c919061207f565b506113bf565b60cb5460d6546040516323b872dd60e01b81526001600160a01b03928316926323b872dd9261136b9233929091169087906004016121d6565b602060405180830381600087803b15801561138557600080fd5b505af1158015611399573d6000803e3d6000fd5b505050506040513d601f19601f820116820180604052508101906113bd919061207f565b505b60cb5460d6546040516323b872dd60e01b81526001600160a01b03928316926323b872dd926113f89233929091169087906004016121d6565b602060405180830381600087803b15801561141257600080fd5b505af1158015611426573d6000803e3d6000fd5b505050506040513d601f19601f8201168201806040525081019061144a919061207f565b5060c95460ce546001600160a01b039091169063a7a6be96903390849060009061147b90600163ffffffff611ac116565b6040518563ffffffff1660e01b815260040161149a9493929190612213565b600060405180830381600087803b1580156114b457600080fd5b505af11580156114c8573d6000803e3d6000fd5b505060016097555050505050505050565b6000818152603360205260408120610e1290611c28565b60c9546001600160a01b031681565b60008281526033602052604090206002015461151d9061034e6118d9565b61064a5760405162461bcd60e51b81526004016104849061247a565b60cd5481565b6115476119bb565b60008151116115685760405162461bcd60e51b8152600401610484906125b3565b60005b81518110156106095760006001600160a01b031682828151811061158b57fe5b60200260200101516001600160a01b031614156115ba5760405162461bcd60e51b8152600401610484906126df565b60d48282815181106115c857fe5b60209081029190910181015182546001808201855560009485529290932090920180546001600160a01b0319166001600160a01b03909316929092179091550161156b565b606060d480548060200260200160405190810160405280929190818152602001828054801561166557602002820191906000526020600020905b81546001600160a01b03168152600190910190602001808311611647575b5050505050905090565b600054610100900460ff16806116885750611688611c33565b80611696575060005460ff16155b6116b25760405162461bcd60e51b815260040161048490612565565b600054610100900460ff161580156116dd576000805460ff1961ff0019909116610100171660011790555b6116e5611c44565b6116f06000336105ff565b61170d6040516116ff90612192565b6040518091039020336105ff565b60cb80546001600160a01b038086166001600160a01b03199283161790925560c9805488841690831617905560ca80549287169290911691909117905566470de4df82000060cc55662386f26fc1000060cd819055600160ce55606460cf556101f460d05560d155600060d2554260d55581516117919060d4906020850190611ef9565b5080156117a4576000805461ff00191690555b5050505050565b60006117b56119bb565b6117d0606461102e600160ce54611ac190919063ffffffff16565b60cf54146117f05760405162461bcd60e51b81526004016104849061281e565b60ce5461180490600163ffffffff611ac116565b60ce81905560405133917f0734741d92efed9b12dab0b88de74400880e6398c832eaf3a60e5757ce56b1809161183a91906122d6565b60405180910390a25060ce5490565b6118516118b2565b60d680546001600160a01b0319166001600160a01b0392909216919091179055565b61187b6118b2565b6118836107f9565b156118a05760405162461bcd60e51b8152600401610484906124ca565b4260d555565b60cf5481565b612a3081565b6118bd600033610e18565b6107e05760405162461bcd60e51b8152600401610484906126b3565b3390565b60008281526033602052604090206118fb908263ffffffff611cd716565b15610609576119086118d9565b6001600160a01b0316816001600160a01b0316837f2f8788117e7eff1d82e926ec794901d17c78024a50270940304540a733656f0d60405160405180910390a45050565b600082815260336020526040902061196a908263ffffffff611cec16565b15610609576119776118d9565b6001600160a01b0316816001600160a01b0316837ff6391f5c32d9c69d2a47ea670b442974b53935d1edc7fd64eb21e047a839171b60405160405180910390a45050565b6119d86040516119ca90612192565b604051809103902033610e18565b6107e05760405162461bcd60e51b815260040161048490612511565b6119fc6107f9565b611a185760405162461bcd60e51b815260040161048490612370565b6065805460ff191690557f5db9ee0a495bf2e6ff9c91a7834c1ba4fdd244a5e8aa4e537bd38aeae4b073aa611a4b6118d9565b604051611a5891906121a8565b60405180910390a1565b3233146107e057600080fd5b6001600160a01b038116600090815260d360205260409020544311611aa55760405162461bcd60e51b8152600401610484906124f4565b6001600160a01b0316600090815260d360205260409020439055565b600082820183811015610e0f5760405162461bcd60e51b8152600401610484906123d5565b600082611af557506000610e12565b82820282848281611b0257fe5b0414610e0f5760405162461bcd60e51b8152600401610484906125da565b6000808211611b415760405162461bcd60e51b815260040161048490612443565b818381611b4a57fe5b049392505050565b600082821115611b745760405162461bcd60e51b81526004016104849061240c565b50900390565b6000808211611b9b5760405162461bcd60e51b81526004016104849061252e565b818381611ba457fe5b069392505050565b611bb46107f9565b15611bd15760405162461bcd60e51b8152600401610484906124ca565b6065805460ff191660011790557f62e78cea01bee320cd4e420270b5ea74000d11b0c9f74754ebdbfc544b05a258611a4b6118d9565b6000610e0f8383611d01565b6000610e0f836001600160a01b038416611d46565b6000610e1282611d5e565b6000611c3e30611d62565b15905090565b600054610100900460ff1680611c5d5750611c5d611c33565b80611c6b575060005460ff16155b611c875760405162461bcd60e51b815260040161048490612565565b600054610100900460ff16158015611cb2576000805460ff1961ff0019909116610100171660011790555b611cba611d68565b611cc2611d68565b8015611cd4576000805461ff00191690555b50565b6000610e0f836001600160a01b038416611de9565b6000610e0f836001600160a01b038416611e33565b81546000908210611d245760405162461bcd60e51b8152600401610484906122df565b826000018281548110611d3357fe5b9060005260206000200154905092915050565b60009081526001919091016020526040902054151590565b5490565b3b151590565b600054610100900460ff1680611d815750611d81611c33565b80611d8f575060005460ff16155b611dab5760405162461bcd60e51b815260040161048490612565565b600054610100900460ff16158015611cc2576000805460ff1961ff0019909116610100171660011790558015611cd4576000805461ff001916905550565b6000611df58383611d46565b611e2b57508154600181810184556000848152602080822090930184905584548482528286019093526040902091909155610e12565b506000610e12565b60008181526001830160205260408120548015611eef5783546000198083019190810190600090879083908110611e6657fe5b9060005260206000200154905080876000018481548110611e8357fe5b600091825260208083209091019290925582815260018981019092526040902090840190558654879080611eb357fe5b60019003818190600052602060002001600090559055866001016000878152602001908152602001600020600090556001945050505050610e12565b6000915050610e12565b828054828255906000526020600020908101928215611f4e579160200282015b82811115611f4e57825182546001600160a01b0319166001600160a01b03909116178255602090920191600190910190611f19565b50611f5a929150611f5e565b5090565b6107cd91905b80821115611f5a5780546001600160a01b0319168155600101611f64565b8035610e1281612873565b600082601f830112611f9d578081fd5b813567ffffffffffffffff80821115611fb4578283fd5b602080830260405182828201018181108582111715611fd1578687fd5b604052848152945081850192508582018187018301881015611ff257600080fd5b600091505b8482101561201d576120098882611f82565b845292820192600191909101908201611ff7565b505050505092915050565b600060208284031215612039578081fd5b8135610e0f81612873565b600060208284031215612055578081fd5b813567ffffffffffffffff81111561206b578182fd5b61207784828501611f8d565b949350505050565b600060208284031215612090578081fd5b81518015158114610e0f578182fd5b6000602082840312156120b0578081fd5b5035919050565b600080604083850312156120c9578081fd5b8235915060208301356120db81612873565b809150509250929050565b600080604083850312156120f8578182fd5b50508035926020909101359150565b6000806000806080858703121561211c578182fd5b843561212781612873565b9350602085013561213781612873565b9250604085013561214781612873565b9150606085013567ffffffffffffffff811115612162578182fd5b61216e87828801611f8d565b91505092959194509250565b60006020828403121561218b578081fd5b5051919050565b6923a0a6a2afa0a226a4a760b11b8152600a0190565b6001600160a01b0391909116815260200190565b6001600160a01b0392831681529116602082015260400190565b6001600160a01b039384168152919092166020820152604081019190915260600190565b6001600160a01b03929092168252602082015260400190565b6001600160a01b038516815260208101849052608081016003841061223457fe5b60408201939093526060015292915050565b6020808252825182820181905260009190848201906040850190845b818110156122875783516001600160a01b031683529284019291840191600101612262565b50909695505050505050565b6020808252825182820181905260009190848201906040850190845b81811015612287578351835292840192918401916001016122af565b901515815260200190565b90815260200190565b60208082526022908201527f456e756d657261626c655365743a20696e646578206f7574206f6620626f756e604082015261647360f01b606082015260800190565b6020808252602f908201527f416363657373436f6e74726f6c3a2073656e646572206d75737420626520616e60408201526e0818591b5a5b881d1bc819dc985b9d608a1b606082015260800190565b60208082526014908201527314185d5cd8589b194e881b9bdd081c185d5cd95960621b604082015260600190565b6020808252601f908201527f4f6e6c79204561726c792041646f707465727320616363657373206e6f772100604082015260600190565b6020808252601b908201527f536166654d6174683a206164646974696f6e206f766572666c6f770000000000604082015260600190565b6020808252601e908201527f536166654d6174683a207375627472616374696f6e206f766572666c6f770000604082015260600190565b6020808252601a908201527f536166654d6174683a206469766973696f6e206279207a65726f000000000000604082015260600190565b60208082526030908201527f416363657373436f6e74726f6c3a2073656e646572206d75737420626520616e60408201526f2061646d696e20746f207265766f6b6560801b606082015260800190565b60208082526010908201526f14185d5cd8589b194e881c185d5cd95960821b604082015260600190565b6020808252600390820152624f435360e81b604082015260600190565b6020808252600390820152624e474160e81b604082015260600190565b60208082526018908201527f536166654d6174683a206d6f64756c6f206279207a65726f0000000000000000604082015260600190565b6020808252602e908201527f496e697469616c697a61626c653a20636f6e747261637420697320616c72656160408201526d191e481a5b9a5d1a585b1a5e995960921b606082015260800190565b6020808252600d908201526c4e6f206164647265737365732160981b604082015260600190565b60208082526021908201527f536166654d6174683a206d756c7469706c69636174696f6e206f766572666c6f6040820152607760f81b606082015260800190565b60208082526010908201526f2130ba31b41039b0b632b99037bb32b960811b604082015260600190565b60208082526017908201527f50726573616c65206f76657220666f7220456c69746573000000000000000000604082015260600190565b6020808252601d908201527f5761697420666f7220746865206e6578742062617463682073616c6521000000604082015260600190565b60208082526012908201527120b236b4b7103937b632903732b2b232b21760711b604082015260600190565b60208082526010908201526f20b2323932b9b99418149032b93937b960811b604082015260600190565b6020808252601290820152712ba2aa24103737ba1030b8383937bb32b21760711b604082015260600190565b602080825260129082015271155cd9481d985b1a59081c9959995c9c985b60721b604082015260600190565b60208082526019908201527f50726573616c65206f76657220666f7220547261696e65657300000000000000604082015260600190565b6020808252601f908201527f5265656e7472616e637947756172643a207265656e7472616e742063616c6c00604082015260600190565b6020808252602f908201527f416363657373436f6e74726f6c3a2063616e206f6e6c792072656e6f756e636560408201526e103937b632b9903337b91039b2b63360891b606082015260800190565b60208082526010908201526f2737ba1030b63637bbb2b2103737bb9760811b604082015260600190565b602080825260119082015270139bdd08195b9bdd59da08185b5bdd5b9d607a1b604082015260600190565b6001600160a01b0381168114611cd457600080fdfea26469706673582212205efd69df40b167b7c0979c735f306d4ebc3a88901cbd93425a43073459c2c53264736f6c63430006050033",
  "immutableReferences": {},
  "source": "// SPDX-License-Identifier: MIT\npragma solidity ^0.6.0;\npragma experimental ABIEncoderV2;\n\nimport '@openzeppelin/contracts-upgradeable/proxy/Initializable.sol';\nimport '@openzeppelin/contracts-upgradeable/access/AccessControlUpgradeable.sol';\nimport '@openzeppelin/contracts-upgradeable/utils/PausableUpgradeable.sol';\nimport '@openzeppelin/contracts-upgradeable/utils/ReentrancyGuardUpgradeable.sol';\nimport '@openzeppelin/contracts/math/SafeMath.sol';\nimport '@openzeppelin/contracts/utils/Pausable.sol';\nimport '@openzeppelin/contracts/utils/ReentrancyGuard.sol';\nimport 'abdk-libraries-solidity/ABDKMath64x64.sol';\nimport '@openzeppelin/contracts/token/ERC20/IERC20.sol';\n// import '@openzeppelin/contracts/token/ERC20/SafeERC20.sol';\nimport \"@openzeppelin/contracts-upgradeable/token/ERC20/SafeERC20Upgradeable.sol\";\nimport './characters.sol';\nimport './interfaces/IRandoms.sol';\nimport './interfaces/ICharacter.sol';\n\ncontract PreMintSale is\n    Initializable,\n    AccessControlUpgradeable,\n    PausableUpgradeable,\n    ReentrancyGuardUpgradeable,\n    ICharacter\n{\n    using SafeMath for uint256;\n    using SafeERC20Upgradeable for IERC20;\n\n    bytes32 public constant GAME_ADMIN = keccak256('GAME_ADMIN');\n\n    Characters public characters;\n    IRandoms public randoms;\n    IERC20 public WETH;\n\n    function initialize(\n        Characters _characters,\n        IRandoms _randoms,\n        address _weth,\n        address[] memory _earlyAdopters\n    ) public initializer {\n        __AccessControl_init();\n\n        _setupRole(DEFAULT_ADMIN_ROLE, msg.sender);\n        _setupRole(GAME_ADMIN, msg.sender);\n        WETH = IERC20(_weth);\n        characters = _characters;\n        randoms = _randoms;\n        eliteCharacterBaseFee = 20000000000000000;\n        traineeCharacterBaseFee = 10000000000000000;\n        batchNumber = 1;\n        currentTotalMintedElite = 100;\n        currentTotalMintedTrainee = 500;\n        priceIncreaseEveryBatchForElite = 10000000000000000;\n        priceIncreaseEveryBatchForTrainee = 0;\n        premintStarts = block.timestamp;\n        earlyAdopters = _earlyAdopters;\n    }\n\n    uint256 public eliteCharacterBaseFee;\n    uint256 public traineeCharacterBaseFee;\n    uint256 public batchNumber;\n    uint256 public currentTotalMintedElite;\n    uint256 public currentTotalMintedTrainee;\n    uint256 public priceIncreaseEveryBatchForElite;\n    uint256 public priceIncreaseEveryBatchForTrainee;\n    mapping(address => uint256) lastBlockNumberCalled;\n    address[] public earlyAdopters;\n    uint256 public premintStarts;\n    uint256 public constant earlyAdoptersDuration = 10800;\n    uint256 public constant referralPercent = 25; \n    address public treasury; \n\n    event updatedBatchNumber(address indexed admin, uint256 batchNumber);\n\n    modifier onlyValidBatch() {\n        require(\n            batchNumber == currentTotalMintedElite.div(100) &&\n                batchNumber <= 9,\n            'Batch sales over'\n        );\n        _;\n    }\n\n    modifier onlyValidReferrer(address referrer) {\n        if(referrer != address(0)) {\n            require(msg.sender != referrer, \"Use valid referral\" );\n            // require(characters.balanceOf(referrer) > 0, \"Use valid referral\");\n        }\n        _;\n    }\n\n    modifier onlyEarlyAdopters() {\n        if((block.timestamp < premintStarts.add(earlyAdoptersDuration))) {\n            bool isEarlyAdopter = false;\n            for(uint256 i = 0; i < earlyAdopters.length; i++) {\n                if(earlyAdopters[i] == msg.sender) {\n                    isEarlyAdopter = true;\n                }\n            }\n            require(isEarlyAdopter, \"Only Early Adopters access now!\");\n        }\n        _;\n    }\n\n    function setTreasury(address _treasury) external onlyOwner {\n        treasury = _treasury;\n    }\n\n    function setPreMintStartTime() external onlyOwner whenNotPaused {\n        premintStarts = block.timestamp;\n    }\n\n    function preSaleMintElite(address referral)\n        public\n        whenNotPaused\n        onlyValidBatch\n        onlyNonContract\n        oncePerBlock(msg.sender)\n        nonReentrant\n        onlyEarlyAdopters\n        onlyValidReferrer(referral)\n    {\n        require(currentTotalMintedElite <= 1000, \"Presale over for Elites\");\n        require(\n            currentTotalMintedElite >= batchNumber.mul(100) &&\n                currentTotalMintedElite < batchNumber.add(1).mul(100),\n            \"Wait for the next batch sale!\"\n        );\n        uint256 mintFee = eliteCharacterBaseFee.add(\n            priceIncreaseEveryBatchForElite.mul(batchNumber.sub(1))\n        );\n        uint256 referralFee = mintFee.mul(referralPercent).div(1000);\n        require(\n            WETH.allowance(msg.sender, address(this)) >= mintFee,\n            \"WETH not approved.\"\n        );\n        uint256 seed = randoms.getRandomSeed(msg.sender);\n        currentTotalMintedElite = currentTotalMintedElite.add(1);\n\n        WETH.transferFrom(msg.sender, address(this), mintFee.sub(referralFee.mul(2)));\n        if(referral != address(0)) {\n            WETH.transferFrom(msg.sender,referral,referralFee);\n        } else {\n            WETH.transferFrom(msg.sender,treasury,referralFee);\n        }\n        WETH.transferFrom(msg.sender,treasury,referralFee);\n        characters.mint(msg.sender, seed, CharacterType.Elite, batchNumber.add(1));\n    }\n\n    function preSaleMintTrainee(address referral)\n        public\n        whenNotPaused\n        onlyNonContract\n        oncePerBlock(msg.sender)\n        nonReentrant\n        onlyEarlyAdopters\n        onlyValidReferrer(referral)\n    {\n        require(currentTotalMintedTrainee <= 5000, \"Presale over for Trainees\");\n        require(\n            WETH.allowance(msg.sender, address(this)) >=\n                traineeCharacterBaseFee,\n            \"WETH not approved.\"\n        );\n        uint256 seed = randoms.getRandomSeed(msg.sender);\n        uint256 referralFee = traineeCharacterBaseFee.mul(referralPercent).div(1000);\n        currentTotalMintedTrainee = currentTotalMintedTrainee.add(1);\n\n        WETH.transferFrom(msg.sender, address(this), traineeCharacterBaseFee.sub(referralFee.mul(2)));\n        if(referral != address(0)) {\n            WETH.transferFrom(msg.sender,referral,referralFee);\n        } else {\n            WETH.transferFrom(msg.sender,treasury,referralFee);\n        }\n        WETH.transferFrom(msg.sender,treasury,referralFee);\n        characters.mint(\n            msg.sender,\n            seed,\n            CharacterType.Trainee,\n            currentTotalMintedTrainee.mod(5).add(1)\n        );\n    }\n\n    function startNextBatch() public restricted returns (uint256) {\n        // require that admin can not change batchNumber until current sale is over\n        require(\n            currentTotalMintedElite == batchNumber.add(1).mul(100),\n            \"Not allowed now.\"\n        );\n        batchNumber = batchNumber.add(1);\n        emit updatedBatchNumber(msg.sender, batchNumber);\n        return batchNumber;\n    }\n\n    function addEarlyAdopters(address[] memory users) public restricted {\n        require(users.length > 0, \"No addresses!\");\n        for(uint i=0; i< users.length; i++) {\n            require(users[i] != address(0), \"Address(0) error\");\n            earlyAdopters.push(users[i]);\n        }   \n    }\n\n    function getAllEarlyAdopters() public view returns(address[] memory) {\n        return earlyAdopters;\n    }\n    \n    function getMyCharacters() public view returns(uint256[] memory) {\n        uint256[] memory tokens = new uint256[](characters.balanceOf(msg.sender));\n        for(uint256 i = 0; i < tokens.length; i++) {\n            tokens[i] = characters.tokenOfOwnerByIndex(msg.sender, i);\n        }\n        return tokens;\n    }\n\n    function withdraw(uint256 amount) public nonReentrant onlyOwner {\n        require(WETH.balanceOf(address(this)) >= amount, \"Not enough amount\");\n        WETH.transfer(msg.sender, amount);\n    }\n\n    function pause() external restricted {\n        _pause();\n    }\n\n    function unpause() external restricted {\n        _unpause();\n    }\n\n    function _restricted() internal view {\n        require(hasRole(GAME_ADMIN, msg.sender), 'NGA');\n    }\n\n    function _onlyOwner() internal view {\n        require(hasRole(DEFAULT_ADMIN_ROLE, msg.sender), \"Admin role needed.\");\n    }\n\n    function _oncePerBlock(address user) internal {\n        require(lastBlockNumberCalled[user] < block.number, 'OCS');\n        lastBlockNumberCalled[user] = block.number;\n    }\n\n    function _onlyNonContract() internal view {\n        require(tx.origin == msg.sender);\n    }\n\n    modifier oncePerBlock(address user) {\n        _oncePerBlock(user);\n        _;\n    }\n\n    modifier restricted() {\n        _restricted();\n        _;\n    }\n\n    modifier onlyOwner() {\n        _onlyOwner();\n        _;\n    }\n\n    modifier onlyNonContract() {\n        _onlyNonContract();\n        _;\n    }\n}\n",
  "sourcePath": "/Users/school/dev/ciphershooters/contracts/PreMintSale.sol",
  "compiler": {
    "name": "solc",
    "version": "0.6.5+commit.f956cc89.Emscripten.clang"
  },
  "schemaVersion": "3.4.6",
  "updatedAt": "2022-06-04T16:14:57.783Z",
  "devdoc": {
    "methods": {
      "getRoleAdmin(bytes32)": {
        "details": "Returns the admin role that controls `role`. See {grantRole} and {revokeRole}.     * To change a role's admin, use {_setRoleAdmin}."
      },
      "getRoleMember(bytes32,uint256)": {
        "details": "Returns one of the accounts that have `role`. `index` must be a value between 0 and {getRoleMemberCount}, non-inclusive.     * Role bearers are not sorted in any particular way, and their ordering may change at any point.     * WARNING: When using {getRoleMember} and {getRoleMemberCount}, make sure you perform all queries on the same block. See the following https://forum.openzeppelin.com/t/iterating-over-elements-on-enumerableset-in-openzeppelin-contracts/2296[forum post] for more information."
      },
      "getRoleMemberCount(bytes32)": {
        "details": "Returns the number of accounts that have `role`. Can be used together with {getRoleMember} to enumerate all bearers of a role."
      },
      "grantRole(bytes32,address)": {
        "details": "Grants `role` to `account`.     * If `account` had not been already granted `role`, emits a {RoleGranted} event.     * Requirements:     * - the caller must have ``role``'s admin role."
      },
      "hasRole(bytes32,address)": {
        "details": "Returns `true` if `account` has been granted `role`."
      },
      "paused()": {
        "details": "Returns true if the contract is paused, and false otherwise."
      },
      "renounceRole(bytes32,address)": {
        "details": "Revokes `role` from the calling account.     * Roles are often managed via {grantRole} and {revokeRole}: this function's purpose is to provide a mechanism for accounts to lose their privileges if they are compromised (such as when a trusted device is misplaced).     * If the calling account had been granted `role`, emits a {RoleRevoked} event.     * Requirements:     * - the caller must be `account`."
      },
      "revokeRole(bytes32,address)": {
        "details": "Revokes `role` from `account`.     * If `account` had been granted `role`, emits a {RoleRevoked} event.     * Requirements:     * - the caller must have ``role``'s admin role."
      }
    }
  },
  "userdoc": {
    "methods": {}
  }
}