{
  "contractName": "PrivateNFTPool",
  "abi": [
    {
      "anonymous": false,
      "inputs": [
        {
          "indexed": false,
          "internalType": "address",
          "name": "owner",
          "type": "address"
        },
        {
          "indexed": false,
          "internalType": "uint256",
          "name": "rewardAmount",
          "type": "uint256"
        }
      ],
      "name": "OperatorOwnerRewardDistributed",
      "type": "event"
    },
    {
      "anonymous": false,
      "inputs": [
        {
          "indexed": false,
          "internalType": "address",
          "name": "account",
          "type": "address"
        }
      ],
      "name": "Paused",
      "type": "event"
    },
    {
      "anonymous": false,
      "inputs": [
        {
          "indexed": false,
          "internalType": "address",
          "name": "player",
          "type": "address"
        },
        {
          "indexed": false,
          "internalType": "uint256",
          "name": "rewardAmount",
          "type": "uint256"
        }
      ],
      "name": "PlayerRewardDistributed",
      "type": "event"
    },
    {
      "anonymous": false,
      "inputs": [
        {
          "indexed": true,
          "internalType": "bytes32",
          "name": "role",
          "type": "bytes32"
        },
        {
          "indexed": true,
          "internalType": "bytes32",
          "name": "previousAdminRole",
          "type": "bytes32"
        },
        {
          "indexed": true,
          "internalType": "bytes32",
          "name": "newAdminRole",
          "type": "bytes32"
        }
      ],
      "name": "RoleAdminChanged",
      "type": "event"
    },
    {
      "anonymous": false,
      "inputs": [
        {
          "indexed": true,
          "internalType": "bytes32",
          "name": "role",
          "type": "bytes32"
        },
        {
          "indexed": true,
          "internalType": "address",
          "name": "account",
          "type": "address"
        },
        {
          "indexed": true,
          "internalType": "address",
          "name": "sender",
          "type": "address"
        }
      ],
      "name": "RoleGranted",
      "type": "event"
    },
    {
      "anonymous": false,
      "inputs": [
        {
          "indexed": true,
          "internalType": "bytes32",
          "name": "role",
          "type": "bytes32"
        },
        {
          "indexed": true,
          "internalType": "address",
          "name": "account",
          "type": "address"
        },
        {
          "indexed": true,
          "internalType": "address",
          "name": "sender",
          "type": "address"
        }
      ],
      "name": "RoleRevoked",
      "type": "event"
    },
    {
      "anonymous": false,
      "inputs": [
        {
          "indexed": false,
          "internalType": "address",
          "name": "account",
          "type": "address"
        }
      ],
      "name": "Unpaused",
      "type": "event"
    },
    {
      "anonymous": false,
      "inputs": [
        {
          "indexed": false,
          "internalType": "address",
          "name": "owner",
          "type": "address"
        },
        {
          "indexed": false,
          "internalType": "uint256",
          "name": "rewardAmount",
          "type": "uint256"
        }
      ],
      "name": "WeaponOwnerDistributed",
      "type": "event"
    },
    {
      "inputs": [],
      "name": "DEFAULT_ADMIN_ROLE",
      "outputs": [
        {
          "internalType": "bytes32",
          "name": "",
          "type": "bytes32"
        }
      ],
      "stateMutability": "view",
      "type": "function"
    },
    {
      "inputs": [],
      "name": "GAME_CONTROLLER",
      "outputs": [
        {
          "internalType": "bytes32",
          "name": "",
          "type": "bytes32"
        }
      ],
      "stateMutability": "view",
      "type": "function"
    },
    {
      "inputs": [],
      "name": "POOL_ADMIN",
      "outputs": [
        {
          "internalType": "bytes32",
          "name": "",
          "type": "bytes32"
        }
      ],
      "stateMutability": "view",
      "type": "function"
    },
    {
      "inputs": [],
      "name": "POOL_MEMBER",
      "outputs": [
        {
          "internalType": "bytes32",
          "name": "",
          "type": "bytes32"
        }
      ],
      "stateMutability": "view",
      "type": "function"
    },
    {
      "inputs": [],
      "name": "claimTokenRewards",
      "outputs": [],
      "stateMutability": "nonpayable",
      "type": "function"
    },
    {
      "inputs": [],
      "name": "craftingItems",
      "outputs": [
        {
          "internalType": "contract CraftingItems",
          "name": "",
          "type": "address"
        }
      ],
      "stateMutability": "view",
      "type": "function"
    },
    {
      "inputs": [
        {
          "internalType": "contract IERC721Upgradeable",
          "name": "",
          "type": "address"
        },
        {
          "internalType": "uint256",
          "name": "",
          "type": "uint256"
        }
      ],
      "name": "depositor",
      "outputs": [
        {
          "internalType": "address",
          "name": "",
          "type": "address"
        }
      ],
      "stateMutability": "view",
      "type": "function"
    },
    {
      "inputs": [],
      "name": "extensionFee",
      "outputs": [
        {
          "internalType": "uint256",
          "name": "",
          "type": "uint256"
        }
      ],
      "stateMutability": "view",
      "type": "function"
    },
    {
      "inputs": [],
      "name": "gameMaster",
      "outputs": [
        {
          "internalType": "contract IGameMaster",
          "name": "",
          "type": "address"
        }
      ],
      "stateMutability": "view",
      "type": "function"
    },
    {
      "inputs": [],
      "name": "getBalances",
      "outputs": [
        {
          "components": [
            {
              "internalType": "uint256",
              "name": "rewards",
              "type": "uint256"
            },
            {
              "internalType": "uint256",
              "name": "parts",
              "type": "uint256"
            },
            {
              "internalType": "uint256",
              "name": "fireCrystals",
              "type": "uint256"
            },
            {
              "internalType": "uint256",
              "name": "lightningCrystals",
              "type": "uint256"
            },
            {
              "internalType": "uint256",
              "name": "waterCrystals",
              "type": "uint256"
            },
            {
              "internalType": "uint256",
              "name": "earthCrystals",
              "type": "uint256"
            }
          ],
          "internalType": "struct NFTPoolBase.Balances",
          "name": "",
          "type": "tuple"
        }
      ],
      "stateMutability": "view",
      "type": "function"
    },
    {
      "inputs": [
        {
          "internalType": "bytes32",
          "name": "role",
          "type": "bytes32"
        }
      ],
      "name": "getRoleAdmin",
      "outputs": [
        {
          "internalType": "bytes32",
          "name": "",
          "type": "bytes32"
        }
      ],
      "stateMutability": "view",
      "type": "function"
    },
    {
      "inputs": [
        {
          "internalType": "bytes32",
          "name": "role",
          "type": "bytes32"
        },
        {
          "internalType": "uint256",
          "name": "index",
          "type": "uint256"
        }
      ],
      "name": "getRoleMember",
      "outputs": [
        {
          "internalType": "address",
          "name": "",
          "type": "address"
        }
      ],
      "stateMutability": "view",
      "type": "function"
    },
    {
      "inputs": [
        {
          "internalType": "bytes32",
          "name": "role",
          "type": "bytes32"
        }
      ],
      "name": "getRoleMemberCount",
      "outputs": [
        {
          "internalType": "uint256",
          "name": "",
          "type": "uint256"
        }
      ],
      "stateMutability": "view",
      "type": "function"
    },
    {
      "inputs": [
        {
          "internalType": "bytes32",
          "name": "role",
          "type": "bytes32"
        },
        {
          "internalType": "address",
          "name": "account",
          "type": "address"
        }
      ],
      "name": "grantRole",
      "outputs": [],
      "stateMutability": "nonpayable",
      "type": "function"
    },
    {
      "inputs": [
        {
          "internalType": "bytes32",
          "name": "role",
          "type": "bytes32"
        },
        {
          "internalType": "address",
          "name": "account",
          "type": "address"
        }
      ],
      "name": "hasRole",
      "outputs": [
        {
          "internalType": "bool",
          "name": "",
          "type": "bool"
        }
      ],
      "stateMutability": "view",
      "type": "function"
    },
    {
      "inputs": [
        {
          "internalType": "contract IERC721Upgradeable",
          "name": "",
          "type": "address"
        }
      ],
      "name": "inventoryLimit",
      "outputs": [
        {
          "internalType": "uint256",
          "name": "",
          "type": "uint256"
        }
      ],
      "stateMutability": "view",
      "type": "function"
    },
    {
      "inputs": [],
      "name": "maxOperatorOwnerFee",
      "outputs": [
        {
          "internalType": "int128",
          "name": "",
          "type": "int128"
        }
      ],
      "stateMutability": "view",
      "type": "function"
    },
    {
      "inputs": [],
      "name": "maxWeaponOwnerFee",
      "outputs": [
        {
          "internalType": "int128",
          "name": "",
          "type": "int128"
        }
      ],
      "stateMutability": "view",
      "type": "function"
    },
    {
      "inputs": [],
      "name": "minClaimAmount",
      "outputs": [
        {
          "internalType": "uint256",
          "name": "",
          "type": "uint256"
        }
      ],
      "stateMutability": "view",
      "type": "function"
    },
    {
      "inputs": [
        {
          "internalType": "address",
          "name": "",
          "type": "address"
        },
        {
          "internalType": "address",
          "name": "",
          "type": "address"
        },
        {
          "internalType": "uint256[]",
          "name": "",
          "type": "uint256[]"
        },
        {
          "internalType": "uint256[]",
          "name": "",
          "type": "uint256[]"
        },
        {
          "internalType": "bytes",
          "name": "",
          "type": "bytes"
        }
      ],
      "name": "onERC1155BatchReceived",
      "outputs": [
        {
          "internalType": "bytes4",
          "name": "",
          "type": "bytes4"
        }
      ],
      "stateMutability": "nonpayable",
      "type": "function"
    },
    {
      "inputs": [
        {
          "internalType": "address",
          "name": "",
          "type": "address"
        },
        {
          "internalType": "address",
          "name": "",
          "type": "address"
        },
        {
          "internalType": "uint256",
          "name": "",
          "type": "uint256"
        },
        {
          "internalType": "uint256",
          "name": "",
          "type": "uint256"
        },
        {
          "internalType": "bytes",
          "name": "",
          "type": "bytes"
        }
      ],
      "name": "onERC1155Received",
      "outputs": [
        {
          "internalType": "bytes4",
          "name": "",
          "type": "bytes4"
        }
      ],
      "stateMutability": "nonpayable",
      "type": "function"
    },
    {
      "inputs": [
        {
          "internalType": "address",
          "name": "",
          "type": "address"
        },
        {
          "internalType": "address",
          "name": "",
          "type": "address"
        },
        {
          "internalType": "uint256",
          "name": "",
          "type": "uint256"
        },
        {
          "internalType": "bytes",
          "name": "",
          "type": "bytes"
        }
      ],
      "name": "onERC721Received",
      "outputs": [
        {
          "internalType": "bytes4",
          "name": "",
          "type": "bytes4"
        }
      ],
      "stateMutability": "nonpayable",
      "type": "function"
    },
    {
      "inputs": [],
      "name": "operatorOwnerFee",
      "outputs": [
        {
          "internalType": "int128",
          "name": "",
          "type": "int128"
        }
      ],
      "stateMutability": "view",
      "type": "function"
    },
    {
      "inputs": [],
      "name": "operators",
      "outputs": [
        {
          "internalType": "contract IERC721Upgradeable",
          "name": "",
          "type": "address"
        }
      ],
      "stateMutability": "view",
      "type": "function"
    },
    {
      "inputs": [],
      "name": "pause",
      "outputs": [],
      "stateMutability": "nonpayable",
      "type": "function"
    },
    {
      "inputs": [],
      "name": "paused",
      "outputs": [
        {
          "internalType": "bool",
          "name": "",
          "type": "bool"
        }
      ],
      "stateMutability": "view",
      "type": "function"
    },
    {
      "inputs": [
        {
          "internalType": "bytes32",
          "name": "role",
          "type": "bytes32"
        },
        {
          "internalType": "address",
          "name": "account",
          "type": "address"
        }
      ],
      "name": "renounceRole",
      "outputs": [],
      "stateMutability": "nonpayable",
      "type": "function"
    },
    {
      "inputs": [
        {
          "internalType": "bytes32",
          "name": "role",
          "type": "bytes32"
        },
        {
          "internalType": "address",
          "name": "account",
          "type": "address"
        }
      ],
      "name": "revokeRole",
      "outputs": [],
      "stateMutability": "nonpayable",
      "type": "function"
    },
    {
      "inputs": [],
      "name": "rewardToken",
      "outputs": [
        {
          "internalType": "contract IERC20Upgradeable",
          "name": "",
          "type": "address"
        }
      ],
      "stateMutability": "view",
      "type": "function"
    },
    {
      "inputs": [],
      "name": "rewardsManager",
      "outputs": [
        {
          "internalType": "contract IRewardsManager",
          "name": "",
          "type": "address"
        }
      ],
      "stateMutability": "view",
      "type": "function"
    },
    {
      "inputs": [
        {
          "internalType": "contract CraftingItems",
          "name": "_craftingItems",
          "type": "address"
        }
      ],
      "name": "setCraftingItems",
      "outputs": [],
      "stateMutability": "nonpayable",
      "type": "function"
    },
    {
      "inputs": [
        {
          "internalType": "contract IERC721Upgradeable",
          "name": "_token",
          "type": "address"
        },
        {
          "internalType": "uint32",
          "name": "_limit",
          "type": "uint32"
        }
      ],
      "name": "setInventoryLimit",
      "outputs": [],
      "stateMutability": "nonpayable",
      "type": "function"
    },
    {
      "inputs": [
        {
          "internalType": "uint256",
          "name": "_minClaimAmount",
          "type": "uint256"
        }
      ],
      "name": "setMinClaimAmount",
      "outputs": [],
      "stateMutability": "nonpayable",
      "type": "function"
    },
    {
      "inputs": [],
      "name": "setRegisterInterfaces",
      "outputs": [],
      "stateMutability": "nonpayable",
      "type": "function"
    },
    {
      "inputs": [
        {
          "internalType": "contract IRewardsManager",
          "name": "_rewardsManager",
          "type": "address"
        }
      ],
      "name": "setRewardsManager",
      "outputs": [],
      "stateMutability": "nonpayable",
      "type": "function"
    },
    {
      "inputs": [
        {
          "internalType": "address",
          "name": "_treasury",
          "type": "address"
        }
      ],
      "name": "setTreasury",
      "outputs": [],
      "stateMutability": "nonpayable",
      "type": "function"
    },
    {
      "inputs": [
        {
          "internalType": "int128",
          "name": "_tax",
          "type": "int128"
        }
      ],
      "name": "setTreasuryTax",
      "outputs": [],
      "stateMutability": "nonpayable",
      "type": "function"
    },
    {
      "inputs": [
        {
          "internalType": "bytes4",
          "name": "interfaceId",
          "type": "bytes4"
        }
      ],
      "name": "supportsInterface",
      "outputs": [
        {
          "internalType": "bool",
          "name": "",
          "type": "bool"
        }
      ],
      "stateMutability": "view",
      "type": "function"
    },
    {
      "inputs": [
        {
          "internalType": "address",
          "name": "",
          "type": "address"
        }
      ],
      "name": "tokenRewards",
      "outputs": [
        {
          "internalType": "uint256",
          "name": "",
          "type": "uint256"
        }
      ],
      "stateMutability": "view",
      "type": "function"
    },
    {
      "inputs": [],
      "name": "treasury",
      "outputs": [
        {
          "internalType": "address",
          "name": "",
          "type": "address"
        }
      ],
      "stateMutability": "view",
      "type": "function"
    },
    {
      "inputs": [],
      "name": "treasuryTax",
      "outputs": [
        {
          "internalType": "int128",
          "name": "",
          "type": "int128"
        }
      ],
      "stateMutability": "view",
      "type": "function"
    },
    {
      "inputs": [],
      "name": "unpause",
      "outputs": [],
      "stateMutability": "nonpayable",
      "type": "function"
    },
    {
      "inputs": [],
      "name": "weaponOwnerFee",
      "outputs": [
        {
          "internalType": "int128",
          "name": "",
          "type": "int128"
        }
      ],
      "stateMutability": "view",
      "type": "function"
    },
    {
      "inputs": [],
      "name": "weapons",
      "outputs": [
        {
          "internalType": "contract IERC721Upgradeable",
          "name": "",
          "type": "address"
        }
      ],
      "stateMutability": "view",
      "type": "function"
    },
    {
      "inputs": [
        {
          "internalType": "contract IERC721Upgradeable",
          "name": "token",
          "type": "address"
        },
        {
          "internalType": "uint256",
          "name": "tokenId",
          "type": "uint256"
        },
        {
          "internalType": "bool",
          "name": "claimRewards",
          "type": "bool"
        }
      ],
      "name": "withdraw",
      "outputs": [],
      "stateMutability": "nonpayable",
      "type": "function"
    },
    {
      "inputs": [
        {
          "internalType": "contract IGameMaster",
          "name": "_gameMaster",
          "type": "address"
        },
        {
          "internalType": "address",
          "name": "_poolAdmin",
          "type": "address"
        }
      ],
      "name": "initialize",
      "outputs": [],
      "stateMutability": "nonpayable",
      "type": "function"
    },
    {
      "inputs": [
        {
          "internalType": "contract IGameMaster",
          "name": "_gameMaster",
          "type": "address"
        },
        {
          "internalType": "address",
          "name": "_poolAdmin",
          "type": "address"
        },
        {
          "internalType": "int128",
          "name": "_maxOperatorOwnerFee",
          "type": "int128"
        },
        {
          "internalType": "int128",
          "name": "_maxWeaponOwnerFee",
          "type": "int128"
        }
      ],
      "name": "initialize",
      "outputs": [],
      "stateMutability": "nonpayable",
      "type": "function"
    },
    {
      "inputs": [
        {
          "internalType": "contract IERC721Upgradeable",
          "name": "token",
          "type": "address"
        },
        {
          "internalType": "uint256",
          "name": "tokenId",
          "type": "uint256"
        }
      ],
      "name": "deposit",
      "outputs": [],
      "stateMutability": "nonpayable",
      "type": "function"
    },
    {
      "inputs": [
        {
          "internalType": "uint256",
          "name": "operatorId",
          "type": "uint256"
        },
        {
          "internalType": "uint256",
          "name": "weaponId",
          "type": "uint256"
        },
        {
          "components": [
            {
              "internalType": "uint24",
              "name": "power",
              "type": "uint24"
            },
            {
              "internalType": "uint8",
              "name": "trait",
              "type": "uint8"
            },
            {
              "internalType": "uint16",
              "name": "fireRate",
              "type": "uint16"
            }
          ],
          "internalType": "struct IGameMaster.Target",
          "name": "target",
          "type": "tuple"
        },
        {
          "internalType": "uint8",
          "name": "fightMultiplier",
          "type": "uint8"
        }
      ],
      "name": "fight",
      "outputs": [],
      "stateMutability": "nonpayable",
      "type": "function"
    },
    {
      "inputs": [
        {
          "internalType": "int128",
          "name": "_operatorOwnerFee",
          "type": "int128"
        },
        {
          "internalType": "int128",
          "name": "_weaponOwnerFee",
          "type": "int128"
        }
      ],
      "name": "setFeeDistribution",
      "outputs": [],
      "stateMutability": "nonpayable",
      "type": "function"
    },
    {
      "inputs": [
        {
          "internalType": "contract IERC721Upgradeable",
          "name": "token",
          "type": "address"
        },
        {
          "internalType": "uint32",
          "name": "sizeIncrease",
          "type": "uint32"
        }
      ],
      "name": "extendInventoryLimit",
      "outputs": [],
      "stateMutability": "nonpayable",
      "type": "function"
    },
    {
      "inputs": [
        {
          "internalType": "uint256",
          "name": "_fee",
          "type": "uint256"
        }
      ],
      "name": "setExtensionFee",
      "outputs": [],
      "stateMutability": "nonpayable",
      "type": "function"
    }
  ],
  "bytecode": "0x608060405234801561001057600080fd5b5061447f806100206000396000f3fe608060405234801561001057600080fd5b506004361061030a5760003560e01c80638456cb591161019d578063ca15c873116100e9578063ead5d359116100a2578063f0f442601161007c578063f0f4426014610606578063f23a6e6114610619578063f24245061461062c578063f7c618c1146106345761030a565b8063ead5d359146105d8578063ecfeb5ba146105eb578063f0151b17146105f35761030a565b8063ca15c87314610592578063cb299e97146105a5578063d547741f146105ad578063d680626d146105c0578063defe2053146105c8578063e673df8a146105d05761030a565b8063a612d5d711610156578063b47da25c11610130578063b47da25c1461055c578063b7e1cd861461056f578063bc197c8114610577578063bdf84ae71461058a5761030a565b8063a612d5d714610539578063a8be1a5f1461054c578063adc25bde146105545761030a565b80638456cb59146104e85780639010d07c146104f057806391d1485414610503578063922fc24814610516578063a217fddf14610529578063a2b4fe71146105315761030a565b806336568abe1161025c5780634d728861116102155780635e020ebb116101ef5780635e020ebb146104b057806361d027b3146104d05780636b1f6436146104d85780637192a592146104e05761030a565b80634d7288611461048257806358fbc1d3146104955780635c975abb146104a85761030a565b806336568abe146104265780633f4ba83a14610439578063424517101461044157806343ad46161461044957806347e7ef241461045c578063485cc9551461046f5761030a565b8063150b7a02116102c957806328ad928e116102a357806328ad928e146103e5578063292c5afd146103f85780632f2ff15d1461040057806330bd3eeb146104135761030a565b8063150b7a02146103925780631cc7259d146103b2578063248a9ca3146103c55761030a565b8062113e081461030f57806266fab91461032d57806301ffc9a7146103425780630342740f146103625780630a8ddc5e146103775780630ec329771461038a575b600080fd5b61031761063c565b604051610324919061431c565b60405180910390f35b61034061033b3660046138c6565b610bed565b005b610355610350366004613832565b610d64565b6040516103249190613c39565b61036a610d83565b6040516103249190613c62565b610340610385366004613535565b610d94565b610340610de1565b6103a56103a0366004613617565b610ead565b6040516103249190613c4d565b6103406103c0366004613981565b610ef3565b6103d86103d33660046137ca565b610f45565b6040516103249190613c44565b6103406103f33660046137ca565b610f5a565b610340610f8b565b61034061040e3660046137e2565b610fd4565b6103d8610421366004613535565b611018565b6103406104343660046137e2565b61102a565b61034061106c565b61036a61109f565b6103406104573660046138c6565b6110a9565b61034061046a36600461385a565b6110f9565b61034061047d3660046138fb565b61112e565b61034061049036600461399c565b6111e5565b6103406104a3366004613535565b6112a7565b6103556112f4565b6104c36104be36600461385a565b6112fd565b6040516103249190613b15565b6104c3611323565b6103d8611332565b6103d8611349565b610340611355565b6104c36104fe366004613811565b611388565b6103556105113660046137e2565b6113af565b6103406105243660046137ca565b6113cd565b6103d86113fd565b6103d8611402565b610340610547366004613928565b61140e565b61036a611506565b6103d861150f565b6103d861056a366004613535565b611515565b6104c3611527565b6103a561058536600461356d565b611536565b6104c3611547565b6103d86105a03660046137ca565b611556565b61036a61156d565b6103406105bb3660046137e2565b61157d565b6104c36115b7565b6104c36115c6565b6104c36115d5565b6103406105e6366004613885565b6115e4565b61036a611771565b610340610601366004613a0b565b61177a565b610340610614366004613535565b6117b7565b6103a56106273660046136b4565b611804565b6103d8611815565b6104c361181c565b610644613404565b60a2546040516393f1a40b60e01b81526000916001600160a01b0316906393f1a40b906106779084903090600401613c70565b604080518083038186803b15801561068e57600080fd5b505afa1580156106a2573d6000803e3d6000fd5b505050506040513d601f19601f820116820180604052508101906106c691906139e8565b5060408051600580825260c08201909252919250606091906020820160a080368337505060a354604080516356bda8d960e01b815290519394506001600160a01b03909116926356bda8d992506004808301926020929190829003018186803b15801561073257600080fd5b505afa158015610746573d6000803e3d6000fd5b505050506040513d601f19601f8201168201806040525081019061076a91906139d0565b8160008151811061077757fe5b60209081029190910181019190915260a354604080516306da0ecb60e01b815290516001600160a01b03909216926306da0ecb92600480840193829003018186803b1580156107c557600080fd5b505afa1580156107d9573d6000803e3d6000fd5b505050506040513d601f19601f820116820180604052508101906107fd91906139d0565b8160018151811061080a57fe5b60209081029190910181019190915260a35460408051630202678560e41b815290516001600160a01b0390921692632026785092600480840193829003018186803b15801561085857600080fd5b505afa15801561086c573d6000803e3d6000fd5b505050506040513d601f19601f8201168201806040525081019061089091906139d0565b8160028151811061089d57fe5b60209081029190910181019190915260a35460408051639ce6d25360e01b815290516001600160a01b0390921692639ce6d25392600480840193829003018186803b1580156108eb57600080fd5b505afa1580156108ff573d6000803e3d6000fd5b505050506040513d601f19601f8201168201806040525081019061092391906139d0565b8160038151811061093057fe5b60209081029190910181019190915260a3546040805163bd7c1e1160e01b815290516001600160a01b039092169263bd7c1e1192600480840193829003018186803b15801561097e57600080fd5b505afa158015610992573d6000803e3d6000fd5b505050506040513d601f19601f820116820180604052508101906109b691906139d0565b816004815181106109c357fe5b602090810291909101015260408051600580825260c082019092526060918160200160208202803683370190505090503081600081518110610a0157fe5b60200260200101906001600160a01b031690816001600160a01b0316815250503081600181518110610a2f57fe5b60200260200101906001600160a01b031690816001600160a01b0316815250503081600281518110610a5d57fe5b60200260200101906001600160a01b031690816001600160a01b0316815250503081600381518110610a8b57fe5b60200260200101906001600160a01b031690816001600160a01b0316815250503081600481518110610ab957fe5b6001600160a01b03928316602091820292909201015260a3546040516313849cfd60e21b81526060929190911690634e1273f490610afd9085908790600401613bb8565b60006040518083038186803b158015610b1557600080fd5b505afa158015610b29573d6000803e3d6000fd5b505050506040513d6000823e601f3d908101601f19168201604052610b51919081019061371b565b90506040518060c0016040528085815260200182600081518110610b7157fe5b6020026020010151815260200182600181518110610b8b57fe5b6020026020010151815260200182600281518110610ba557fe5b6020026020010151815260200182600381518110610bbf57fe5b6020026020010151815260200182600481518110610bd957fe5b602002602001015181525094505050505090565b610c0a604051610bfc90613acd565b6040518091039020336113af565b610c2f5760405162461bcd60e51b8152600401610c2690613e06565b60405180910390fd5b6000610c4d8263ffffffff1661013b5461182b90919063ffffffff16565b609854604051636eb1769f60e11b815291925082916001600160a01b039091169063dd62ed3e90610c849033903090600401613b29565b60206040518083038186803b158015610c9c57600080fd5b505afa158015610cb0573d6000803e3d6000fd5b505050506040513d601f19601f82011682018060405250810190610cd491906139d0565b1015610cf25760405162461bcd60e51b8152600401610c269061418a565b609e54609854610d17916001600160a01b03918216913391168463ffffffff61186516565b6001600160a01b038316600090815260a16020526040902054610d439063ffffffff808516906118bd16565b6001600160a01b03909316600090815260a160205260409020929092555050565b6001600160e01b031916600090815260a4602052604090205460ff1690565b61013a54600160801b9004600f0b81565b610da3604051610bfc90613ae3565b610dbf5760405162461bcd60e51b8152600401610c2690613dcf565b60a280546001600160a01b0319166001600160a01b0392909216919091179055565b336000908152609c602052604090205460a054811015610e135760405162461bcd60e51b8152600401610c2690614226565b336000818152609c602052604080822091909155609854905163a9059cbb60e01b81526001600160a01b039091169163a9059cbb91610e5791908590600401613b67565b602060405180830381600087803b158015610e7157600080fd5b505af1158015610e85573d6000803e3d6000fd5b505050506040513d601f19601f82011682018060405250810190610ea991906137ae565b5050565b609a546000906001600160a01b0316331480610ed357506099546001600160a01b031633145b15610ee65750630a85bd0160e11b610eea565b5060005b95945050505050565b610f02604051610bfc90613ae3565b610f1e5760405162461bcd60e51b8152600401610c2690613dcf565b609d8054600f9290920b6001600160801b03166001600160801b0319909216919091179055565b60009081526033602052604090206002015490565b610f69604051610bfc90613ae3565b610f855760405162461bcd60e51b8152600401610c2690613dcf565b61013b55565b610f966000336113af565b610fb25760405162461bcd60e51b8152600401610c26906140b0565b610fc26380ac58cd60e01b6118e2565b610fd2636cdb3d1360e11b6118e2565b565b600082815260336020526040902060020154610ff290610511611931565b61100e5760405162461bcd60e51b8152600401610c2690613d52565b610ea98282611935565b609c6020526000908152604090205481565b611032611931565b6001600160a01b0316816001600160a01b0316146110625760405162461bcd60e51b8152600401610c26906142cd565b610ea982826119a4565b61107b604051610bfc90613acd565b6110975760405162461bcd60e51b8152600401610c2690613e06565b610fd2611a13565b61013a54600f0b81565b6110b8604051610bfc90613ae3565b6110d45760405162461bcd60e51b8152600401610c2690613dcf565b6001600160a01b03909116600090815260a16020526040902063ffffffff9091169055565b611108604051610bfc90613acd565b6111245760405162461bcd60e51b8152600401610c2690613e06565b610ea98282611a81565b600054610100900460ff16806111475750611147611c33565b80611155575060005460ff16155b6111715760405162461bcd60e51b8152600401610c269061402b565b600054610100900460ff1615801561119c576000805460ff1961ff0019909116610100171660011790555b6111a68383611c44565b6111ae611f9f565b6111be6380ac58cd60e01b6118e2565b6111ce636cdb3d1360e11b6118e2565b80156111e0576000805461ff00191690555b505050565b6111f4604051610bfc90613acd565b6112105760405162461bcd60e51b8152600401610c2690613e06565b61013a54600f90810b810b9083900b1261123c5760405162461bcd60e51b8152600401610c2690613cd9565b61013a54600160801b9004600f90810b810b9082900b1261126f5760405162461bcd60e51b8152600401610c2690614079565b609f8054600f92830b6001600160801b03908116600160801b029490930b83166001600160801b031990911617909116919091179055565b6112b6604051610bfc90613ae3565b6112d25760405162461bcd60e51b8152600401610c2690613dcf565b60a380546001600160a01b0319166001600160a01b0392909216919091179055565b60655460ff1690565b609b6020908152600092835260408084209091529082529020546001600160a01b031681565b609e546001600160a01b031681565b60405161133e90613ae3565b604051809103902081565b60405161133e90613afe565b611364604051610bfc90613acd565b6113805760405162461bcd60e51b8152600401610c2690613e06565b610fd261203a565b60008281526033602052604081206113a6908363ffffffff61209516565b90505b92915050565b60008281526033602052604081206113a6908363ffffffff6120a116565b6113dc604051610bfc90613acd565b6113f85760405162461bcd60e51b8152600401610c2690613e06565b60a055565b600081565b60405161133e90613acd565b600054610100900460ff16806114275750611427611c33565b80611435575060005460ff16155b6114515760405162461bcd60e51b8152600401610c269061402b565b600054610100900460ff1615801561147c576000805460ff1961ff0019909116610100171660011790555b611486858561112e565b61013a80546001600160801b031916600f85810b6001600160801b03908116929092178216600160801b9186900b92909216021790556040516114ed906114cc90613afe565b60405180910390206040516114e090613acd565b60405180910390206120b6565b80156114ff576000805461ff00191690555b5050505050565b609f54600f0b81565b60a05481565b60a16020526000908152604090205481565b6099546001600160a01b031681565b63bc197c8160e01b95945050505050565b6097546001600160a01b031681565b60008181526033602052604081206113a990612108565b609f54600160801b9004600f0b81565b60008281526033602052604090206002015461159b90610511611931565b6110625760405162461bcd60e51b8152600401610c2690613fb1565b60a3546001600160a01b031681565b60a2546001600160a01b031681565b609a546001600160a01b031681565b6040516331a9108f60e11b81528390839030906001600160a01b03841690636352211e90611616908590600401613c44565b60206040518083038186803b15801561162e57600080fd5b505afa158015611642573d6000803e3d6000fd5b505050506040513d601f19601f820116820180604052508101906116669190613551565b6001600160a01b03161461168c5760405162461bcd60e51b8152600401610c2690613e6d565b6001600160a01b038581166000908152609b602090815260408083208884529091529020541633146116d05760405162461bcd60e51b8152600401610c26906141b8565b604051632142170760e11b81526001600160a01b038616906342842e0e9061170090309033908990600401613b43565b600060405180830381600087803b15801561171a57600080fd5b505af115801561172e573d6000803e3d6000fd5b5050506001600160a01b0386166000908152609b60209081526040808320888452909152902080546001600160a01b03191690555082156114ff576114ff610de1565b609d54600f0b81565b611789604051610bfc90613afe565b6117a55760405162461bcd60e51b8152600401610c2690614153565b6117b184848484612113565b50505050565b6117c6604051610bfc90613ae3565b6117e25760405162461bcd60e51b8152600401610c2690613dcf565b609e80546001600160a01b0319166001600160a01b0392909216919091179055565b63f23a6e6160e01b95945050505050565b61013b5481565b6098546001600160a01b031681565b60008261183a575060006113a9565b8282028284828161184757fe5b04146113a65760405162461bcd60e51b8152600401610c26906140db565b6117b1846323b872dd60e01b85858560405160240161188693929190613b43565b60408051601f198184030181529190526020810180516001600160e01b03166001600160e01b031990931692909217909152612b36565b6000828201838110156113a65760405162461bcd60e51b8152600401610c2690613eb3565b6001600160e01b0319808216141561190c5760405162461bcd60e51b8152600401610c2690613e36565b6001600160e01b031916600090815260a460205260409020805460ff19166001179055565b3390565b6000828152603360205260409020611953908263ffffffff612bc516565b15610ea957611960611931565b6001600160a01b0316816001600160a01b0316837f2f8788117e7eff1d82e926ec794901d17c78024a50270940304540a733656f0d60405160405180910390a45050565b60008281526033602052604090206119c2908263ffffffff612bda16565b15610ea9576119cf611931565b6001600160a01b0316816001600160a01b0316837ff6391f5c32d9c69d2a47ea670b442974b53935d1edc7fd64eb21e047a839171b60405160405180910390a45050565b611a1b6112f4565b611a375760405162461bcd60e51b8152600401610c2690613da1565b6065805460ff191690557f5db9ee0a495bf2e6ff9c91a7834c1ba4fdd244a5e8aa4e537bd38aeae4b073aa611a6a611931565b604051611a779190613b15565b60405180910390a1565b611a896112f4565b15611aa65760405162461bcd60e51b8152600401610c2690614001565b60995482906001600160a01b0380831691161480611ad15750609a546001600160a01b038281169116145b611aed5760405162461bcd60e51b8152600401610c2690613eea565b6001600160a01b038316600081815260a16020526040908190205490516370a0823160e01b81529091906370a0823190611b2b903090600401613b15565b60206040518083038186803b158015611b4357600080fd5b505afa158015611b57573d6000803e3d6000fd5b505050506040513d601f19601f82011682018060405250810190611b7b91906139d0565b10611b985760405162461bcd60e51b8152600401610c269061411c565b604051632142170760e11b81526001600160a01b038416906342842e0e90611bc890339030908790600401613b43565b600060405180830381600087803b158015611be257600080fd5b505af1158015611bf6573d6000803e3d6000fd5b5050506001600160a01b039093166000908152609b602090815260408083209483529390529190912080546001600160a01b031916331790555050565b6000611c3e30612bef565b15905090565b600054610100900460ff1680611c5d5750611c5d611c33565b80611c6b575060005460ff16155b611c875760405162461bcd60e51b8152600401610c269061402b565b600054610100900460ff16158015611cb2576000805460ff1961ff0019909116610100171660011790555b611cba612bf5565b611cc2612c6b565b611cdf604051611cd190613acd565b60405180910390203361100e565b611cee604051611cd190613ae3565b611d0b604051611cfd90613acd565b60405180910390208361100e565b611d1a6040516114cc90613acd565b609780546001600160a01b0319166001600160a01b03858116919091179182905560408051630aff7f1560e31b8152905192909116916357fbf8a8916004808201926020929091908290030181600087803b158015611d7857600080fd5b505af1158015611d8c573d6000803e3d6000fd5b505050506040513d601f19601f82011682018060405250810190611db09190613551565b609880546001600160a01b0319166001600160a01b0392831617905560975460408051635bf0e6c360e11b81529051919092169163b7e1cd869160048083019260209291908290030181600087803b158015611e0b57600080fd5b505af1158015611e1f573d6000803e3d6000fd5b505050506040513d601f19601f82011682018060405250810190611e439190613551565b609980546001600160a01b0319166001600160a01b039283161790556097546040805163341c2ed560e21b81529051919092169163d070bb549160048083019260209291908290030181600087803b158015611e9e57600080fd5b505af1158015611eb2573d6000803e3d6000fd5b505050506040513d601f19601f82011682018060405250810190611ed69190613551565b609a80546001600160a01b0319166001600160a01b039283161790556097546040805163defe205360e01b81529051919092169163defe20539160048083019260209291908290030181600087803b158015611f3157600080fd5b505af1158015611f45573d6000803e3d6000fd5b505050506040513d601f19601f82011682018060405250810190611f699190613551565b60a280546001600160a01b0319166001600160a01b039290921691909117905580156111e0576000805461ff0019169055505050565b600054610100900460ff1680611fb85750611fb8611c33565b80611fc6575060005460ff16155b611fe25760405162461bcd60e51b8152600401610c269061402b565b600054610100900460ff1615801561200d576000805460ff1961ff0019909116610100171660011790555b612015612ce9565b61201d612d67565b612025612de5565b8015612037576000805461ff00191690555b50565b6120426112f4565b1561205f5760405162461bcd60e51b8152600401610c2690614001565b6065805460ff191660011790557f62e78cea01bee320cd4e420270b5ea74000d11b0c9f74754ebdbfc544b05a258611a6a611931565b60006113a68383612e66565b60006113a6836001600160a01b038416612eab565b600082815260336020526040808220600201549051839285917fbd79b86ffe0ab8e8776151514217cd7cacd52c909f66475c3af44e129f0b00ff9190a460009182526033602052604090912060020155565b60006113a982612ec3565b61211b6112f4565b156121385760405162461bcd60e51b8152600401610c2690614001565b609a546040516331a9108f60e11b81526001600160a01b0390911690859030908390636352211e9061216e908590600401613c44565b60206040518083038186803b15801561218657600080fd5b505afa15801561219a573d6000803e3d6000fd5b505050506040513d601f19601f820116820180604052508101906121be9190613551565b6001600160a01b0316146121e45760405162461bcd60e51b8152600401610c2690613e6d565b6099546040516331a9108f60e11b81526001600160a01b0390911690869030908390636352211e9061221a908590600401613c44565b60206040518083038186803b15801561223257600080fd5b505afa158015612246573d6000803e3d6000fd5b505050506040513d601f19601f8201168201806040525081019061226a9190613551565b6001600160a01b0316146122905760405162461bcd60e51b8152600401610c2690613e6d565b612298613404565b6122a061063c565b60975460405163f0151b1760e01b81529192506001600160a01b03169063f0151b17906122d7908c908c908c908c90600401614360565b600060405180830381600087803b1580156122f157600080fd5b505af1158015612305573d6000803e3d6000fd5b50505050612311613404565b61231961063c565b825181519192501015612744578151815160009161233d919063ffffffff612ec716565b609e549091506001600160a01b0316158015906123645750609d546000600f91820b90910b135b1561248257609d5460009061237c90600f0b83612eef565b60a254604051630ad58d2f60e01b81529192506001600160a01b031690630ad58d2f906123b29060009085903090600401613c87565b600060405180830381600087803b1580156123cc57600080fd5b505af11580156123e0573d6000803e3d6000fd5b5050609854609e5460405163a9059cbb60e01b81526001600160a01b03928316945063a9059cbb935061241b92909116908590600401613b67565b602060405180830381600087803b15801561243557600080fd5b505af1158015612449573d6000803e3d6000fd5b505050506040513d601f19601f8201168201806040525081019061246d91906137ae565b5061247e828263ffffffff612ec716565b9150505b609a546001600160a01b039081166000908152609b602090815260408083208f8452909152812054609f549216916124bd90600f0b84612eef565b60a25460405163289df2cb60e01b81529192506001600160a01b03169063289df2cb906124f39060009085908790600401613c87565b600060405180830381600087803b15801561250d57600080fd5b505af1158015612521573d6000803e3d6000fd5b505050507fab70def1ffe1cd4369f3a6a881db1a36f5fac043247c5af37a1ad83b90ceb4f78282604051612556929190613b67565b60405180910390a16000609b6000609960009054906101000a90046001600160a01b03166001600160a01b03166001600160a01b0316815260200190815260200160002060008e815260200190815260200160002060009054906101000a90046001600160a01b0316905060006125dc609f60109054906101000a9004600f0b86612eef565b60a25460405163289df2cb60e01b81529192506001600160a01b03169063289df2cb906126129060009085908790600401613c87565b600060405180830381600087803b15801561262c57600080fd5b505af1158015612640573d6000803e3d6000fd5b505050507f0de96f18cecdb5742f2badbf9a612e52860c0ceb20e5e105cb765d324b5464268282604051612675929190613b67565b60405180910390a161269d81612691878663ffffffff612ec716565b9063ffffffff612ec716565b60a25460405163289df2cb60e01b81529196506001600160a01b03169063289df2cb906126d39060009089903390600401613c87565b600060405180830381600087803b1580156126ed57600080fd5b505af1158015612701573d6000803e3d6000fd5b505050507fd46aebaa412d7daffb7e27655e9aea6d72f737b61c3a687406e030ec989d5c9d3386604051612736929190613b67565b60405180910390a150505050505b60a354604080516356bda8d960e01b815290516127d3926001600160a01b0316916356bda8d9916004808301926020929190829003018186803b15801561278a57600080fd5b505afa15801561279e573d6000803e3d6000fd5b505050506040513d601f19601f820116820180604052508101906127c291906139d0565b836020015183602001518d8d612f57565b60a354604080516306da0ecb60e01b81529051612862926001600160a01b0316916306da0ecb916004808301926020929190829003018186803b15801561281957600080fd5b505afa15801561282d573d6000803e3d6000fd5b505050506040513d601f19601f8201168201806040525081019061285191906139d0565b836040015183604001518d8d612f57565b60a35460408051630202678560e41b815290516128f1926001600160a01b0316916320267850916004808301926020929190829003018186803b1580156128a857600080fd5b505afa1580156128bc573d6000803e3d6000fd5b505050506040513d601f19601f820116820180604052508101906128e091906139d0565b836060015183606001518d8d612f57565b60a35460408051639ce6d25360e01b81529051612980926001600160a01b031691639ce6d253916004808301926020929190829003018186803b15801561293757600080fd5b505afa15801561294b573d6000803e3d6000fd5b505050506040513d601f19601f8201168201806040525081019061296f91906139d0565b836080015183608001518d8d612f57565b60a3546040805163bd7c1e1160e01b81529051612a0f926001600160a01b03169163bd7c1e11916004808301926020929190829003018186803b1580156129c657600080fd5b505afa1580156129da573d6000803e3d6000fd5b505050506040513d601f19601f820116820180604052508101906129fe91906139d0565b8360a001518360a001518d8d612f57565b336000908152609c60205260409020548015612b2957336000908152609c60205260408082209190915560985460a254915163095ea7b360e01b81526001600160a01b039182169263095ea7b392612a6e929116908590600401613b67565b602060405180830381600087803b158015612a8857600080fd5b505af1158015612a9c573d6000803e3d6000fd5b505050506040513d601f19601f82011682018060405250810190612ac091906137ae565b5060a254604051638dbdbe6d60e01b81526001600160a01b0390911690638dbdbe6d90612af69060009085903390600401613c87565b600060405180830381600087803b158015612b1057600080fd5b505af1158015612b24573d6000803e3d6000fd5b505050505b5050505050505050505050565b6060612b8b826040518060400160405280602081526020017f5361666545524332303a206c6f772d6c6576656c2063616c6c206661696c6564815250856001600160a01b03166131559092919063ffffffff16565b8051909150156111e05780806020019051810190612ba991906137ae565b6111e05760405162461bcd60e51b8152600401610c2690614283565b60006113a6836001600160a01b03841661316e565b60006113a6836001600160a01b0384166131b8565b3b151590565b600054610100900460ff1680612c0e5750612c0e611c33565b80612c1c575060005460ff16155b612c385760405162461bcd60e51b8152600401610c269061402b565b600054610100900460ff16158015612c63576000805460ff1961ff0019909116610100171660011790555b61201d612de5565b600054610100900460ff1680612c845750612c84611c33565b80612c92575060005460ff16155b612cae5760405162461bcd60e51b8152600401610c269061402b565b600054610100900460ff16158015612cd9576000805460ff1961ff0019909116610100171660011790555b612ce1612de5565b61202561327e565b600054610100900460ff1680612d025750612d02611c33565b80612d10575060005460ff16155b612d2c5760405162461bcd60e51b8152600401610c269061402b565b600054610100900460ff16158015612d57576000805460ff1961ff0019909116610100171660011790555b6120256301ffc9a760e01b6118e2565b600054610100900460ff1680612d805750612d80611c33565b80612d8e575060005460ff16155b612daa5760405162461bcd60e51b8152600401610c269061402b565b600054610100900460ff16158015612dd5576000805460ff1961ff0019909116610100171660011790555b612025630271189760e51b6118e2565b600054610100900460ff1680612dfe5750612dfe611c33565b80612e0c575060005460ff16155b612e285760405162461bcd60e51b8152600401610c269061402b565b600054610100900460ff16158015612025576000805460ff1961ff0019909116610100171660011790558015612037576000805461ff001916905550565b81546000908210612e895760405162461bcd60e51b8152600401610c2690613d10565b826000018281548110612e9857fe5b9060005260206000200154905092915050565b60009081526001919091016020526040902054151590565b5490565b600082821115612ee95760405162461bcd60e51b8152600401610c2690613f34565b50900390565b600081612efe575060006113a9565b600083600f0b1215612f0f57600080fd5b600f83900b6001600160801b038316810260401c90608084901c026001600160c01b03811115612f3e57600080fd5b60401b8119811115612f4f57600080fd5b019392505050565b838311612f63576114ff565b6000612f75848663ffffffff612ec716565b609a546001600160a01b039081166000908152609b60209081526040808320888452909152812054609f5493945090911691612fb490600f0b84612eef565b60a354604051637921219560e11b81529192506001600160a01b03169063f242432a90612feb90309086908d908790600401613b80565b600060405180830381600087803b15801561300557600080fd5b505af1158015613019573d6000803e3d6000fd5b50506099546001600160a01b039081166000908152609b602090815260408083208a8452909152812054609f5492169350915061306090600160801b9004600f0b86612eef565b60a354604051637921219560e11b81529192506001600160a01b03169063f242432a9061309790309086908f908790600401613b80565b600060405180830381600087803b1580156130b157600080fd5b505af11580156130c5573d6000803e3d6000fd5b505050506130e0816126918588612ec790919063ffffffff16565b60a354604051637921219560e11b81529196506001600160a01b03169063f242432a9061311790309033908f908b90600401613b80565b600060405180830381600087803b15801561313157600080fd5b505af1158015613145573d6000803e3d6000fd5b5050505050505050505050505050565b6060613164848460008561330a565b90505b9392505050565b600061317a8383612eab565b6131b0575081546001818101845560008481526020808220909301849055845484825282860190935260409020919091556113a9565b5060006113a9565b6000818152600183016020526040812054801561327457835460001980830191908101906000908790839081106131eb57fe5b906000526020600020015490508087600001848154811061320857fe5b60009182526020808320909101929092558281526001898101909252604090209084019055865487908061323857fe5b600190038181906000526020600020016000905590558660010160008781526020019081526020016000206000905560019450505050506113a9565b60009150506113a9565b600054610100900460ff16806132975750613297611c33565b806132a5575060005460ff16155b6132c15760405162461bcd60e51b8152600401610c269061402b565b600054610100900460ff161580156132ec576000805460ff1961ff0019909116610100171660011790555b6065805460ff191690558015612037576000805461ff001916905550565b60608247101561332c5760405162461bcd60e51b8152600401610c2690613f6b565b61333585612bef565b6133515760405162461bcd60e51b8152600401610c26906141ef565b60006060866001600160a01b0316858760405161336e9190613ab1565b60006040518083038185875af1925050503d80600081146133ab576040519150601f19603f3d011682016040523d82523d6000602084013e6133b0565b606091505b50915091506133c08282866133cb565b979650505050505050565b606083156133da575081613167565b8251156133ea5782518084602001fd5b8160405162461bcd60e51b8152600401610c269190613ca6565b6040518060c001604052806000815260200160008152602001600081526020016000815260200160008152602001600081525090565b600082601f83011261344a578081fd5b813561345d613458826143cb565b6143a4565b81815291506020808301908481018184028601820187101561347e57600080fd5b60005b8481101561349d57813584529282019290820190600101613481565b505050505092915050565b600082601f8301126134b8578081fd5b813567ffffffffffffffff8111156134ce578182fd5b6134e1601f8201601f19166020016143a4565b91508082528360208285010111156134f857600080fd5b8060208401602084013760009082016020015292915050565b8035600f81900b81146113a957600080fd5b803561ffff811681146113a957600080fd5b600060208284031215613546578081fd5b81356113a681614417565b600060208284031215613562578081fd5b81516113a681614417565b600080600080600060a08688031215613584578081fd5b853561358f81614417565b9450602086013561359f81614417565b9350604086013567ffffffffffffffff808211156135bb578283fd5b6135c789838a0161343a565b945060608801359150808211156135dc578283fd5b6135e889838a0161343a565b935060808801359150808211156135fd578283fd5b5061360a888289016134a8565b9150509295509295909350565b60008060008060006080868803121561362e578283fd5b853561363981614417565b9450602086013561364981614417565b935060408601359250606086013567ffffffffffffffff8082111561366c578283fd5b81880189601f82011261367d578384fd5b803592508183111561368d578384fd5b89602084830101111561369e578384fd5b6020810194505050809150509295509295909350565b600080600080600060a086880312156136cb578283fd5b85356136d681614417565b945060208601356136e681614417565b93506040860135925060608601359150608086013567ffffffffffffffff81111561370f578182fd5b61360a888289016134a8565b6000602080838503121561372d578182fd5b825167ffffffffffffffff811115613743578283fd5b80840185601f820112613754578384fd5b80519150613764613458836143cb565b8281528381019082850185850284018601891015613780578687fd5b8693505b848410156137a2578051835260019390930192918501918501613784565b50979650505050505050565b6000602082840312156137bf578081fd5b81516113a68161442c565b6000602082840312156137db578081fd5b5035919050565b600080604083850312156137f4578182fd5b82359150602083013561380681614417565b809150509250929050565b60008060408385031215613823578182fd5b50508035926020909101359150565b600060208284031215613843578081fd5b81356001600160e01b0319811681146113a6578182fd5b6000806040838503121561386c578182fd5b823561387781614417565b946020939093013593505050565b600080600060608486031215613899578081fd5b83356138a481614417565b92506020840135915060408401356138bb8161442c565b809150509250925092565b600080604083850312156138d8578182fd5b82356138e381614417565b9150602083013563ffffffff81168114613806578182fd5b6000806040838503121561390d578182fd5b823561391881614417565b9150602083013561380681614417565b6000806000806080858703121561393d578182fd5b843561394881614417565b9350602085013561395881614417565b92506139678660408701613511565b91506139768660608701613511565b905092959194509250565b600060208284031215613992578081fd5b6113a68383613511565b600080604083850312156139ae578182fd5b6139b88484613511565b91506139c78460208501613511565b90509250929050565b6000602082840312156139e1578081fd5b5051919050565b600080604083850312156139fa578182fd5b505080516020909101519092909150565b60008060008084860360c0811215613a21578283fd5b85359450602086013593506060603f1982011215613a3d578283fd5b50613a4860606143a4565b604086013562ffffff81168114613a5d578384fd5b8152606086013560ff81168114613a72578384fd5b6020820152613a848760808801613523565b6040820152915060a0850135613a998161443a565b939692955090935050565b6001600160a01b03169052565b60008251613ac38184602087016143eb565b9190910192915050565b692827a7a62fa0a226a4a760b11b8152600a0190565b6e23a0a6a2afa1a7a72a2927a62622a960891b8152600f0190565b6a2827a7a62fa6a2a6a122a960a91b8152600b0190565b6001600160a01b0391909116815260200190565b6001600160a01b0392831681529116602082015260400190565b6001600160a01b039384168152919092166020820152604081019190915260600190565b6001600160a01b03929092168252602082015260400190565b6001600160a01b0394851681529290931660208301526040820152606081019190915260a06080820181905260009082015260c00190565b604080825283519082018190526000906020906060840190828701845b82811015613bf857613be8848351613aa4565b9284019290840190600101613bd5565b50505083810382850152845180825285830191830190845b81811015613c2c57835183529284019291840191600101613c10565b5090979650505050505050565b901515815260200190565b90815260200190565b6001600160e01b031991909116815260200190565b600f9190910b815260200190565b9182526001600160a01b0316602082015260400190565b92835260208301919091526001600160a01b0316604082015260600190565b6000602082528251806020840152613cc58160408501602087016143eb565b601f01601f19169190910160400192915050565b6020808252601d908201527f5f6f70657261746f724f776e657246656520697320746f6f2068696768000000604082015260600190565b60208082526022908201527f456e756d657261626c655365743a20696e646578206f7574206f6620626f756e604082015261647360f01b606082015260800190565b6020808252602f908201527f416363657373436f6e74726f6c3a2073656e646572206d75737420626520616e60408201526e0818591b5a5b881d1bc819dc985b9d608a1b606082015260800190565b60208082526014908201527314185d5cd8589b194e881b9bdd081c185d5cd95960621b604082015260600190565b6020808252601b908201527f47616d6520636f6e74726f6c6c657220726f6c65206e65656465640000000000604082015260600190565b602080825260169082015275141bdbdb0818591b5a5b881c9bdb19481b995959195960521b604082015260600190565b6020808252601c908201527f4552433136353a20696e76616c696420696e7465726661636520696400000000604082015260600190565b60208082526026908201527f546865206173736574206973206e6f74206465706f736974656420696e20746860408201526519481c1bdbdb60d21b606082015260800190565b6020808252601b908201527f536166654d6174683a206164646974696f6e206f766572666c6f770000000000604082015260600190565b6020808252602a908201527f546869732074797065206f66204e4654206d6179206e6f74206265206465706f6040820152697369746564206865726560b01b606082015260800190565b6020808252601e908201527f536166654d6174683a207375627472616374696f6e206f766572666c6f770000604082015260600190565b60208082526026908201527f416464726573733a20696e73756666696369656e742062616c616e636520666f6040820152651c8818d85b1b60d21b606082015260800190565b60208082526030908201527f416363657373436f6e74726f6c3a2073656e646572206d75737420626520616e60408201526f2061646d696e20746f207265766f6b6560801b606082015260800190565b60208082526010908201526f14185d5cd8589b194e881c185d5cd95960821b604082015260600190565b6020808252602e908201527f496e697469616c697a61626c653a20636f6e747261637420697320616c72656160408201526d191e481a5b9a5d1a585b1a5e995960921b606082015260800190565b6020808252601b908201527f5f776561706f6e4f776e657246656520697320746f6f20686967680000000000604082015260600190565b60208082526011908201527010591b5a5b881c9bdb19481b9959591959607a1b604082015260600190565b60208082526021908201527f536166654d6174683a206d756c7469706c69636174696f6e206f766572666c6f6040820152607760f81b606082015260800190565b60208082526018908201527f506f6f6c2073697a65206c696d69742065786365656465640000000000000000604082015260600190565b60208082526018908201527f504f4f4c5f4d454d42455220726f6c65206e65656465642e0000000000000000604082015260600190565b6020808252601490820152734e6f7420656e6f75676820616c6c6f77616e636560601b604082015260600190565b6020808252601f908201527f556e617574686f72697a6564207769746864726177616c20617474656d707400604082015260600190565b6020808252601d908201527f416464726573733a2063616c6c20746f206e6f6e2d636f6e7472616374000000604082015260600190565b60208082526039908201527f546f6f20666577207265776172647320746f20636c61696d2e20506c6561736560408201527f206561726e206d6f7265206265666f6520636c61696d696e6700000000000000606082015260800190565b6020808252602a908201527f5361666545524332303a204552433230206f7065726174696f6e20646964206e6040820152691bdd081cdd58d8d9595960b21b606082015260800190565b6020808252602f908201527f416363657373436f6e74726f6c3a2063616e206f6e6c792072656e6f756e636560408201526e103937b632b9903337b91039b2b63360891b606082015260800190565b600060c082019050825182526020830151602083015260408301516040830152606083015160608301526080830151608083015260a083015160a083015292915050565b938452602080850193909352815162ffffff166040808601919091529282015160ff9081166060860152929091015161ffff1660808401521660a082015260c00190565b60405181810167ffffffffffffffff811182821017156143c357600080fd5b604052919050565b600067ffffffffffffffff8211156143e1578081fd5b5060209081020190565b60005b838110156144065781810151838201526020016143ee565b838111156117b15750506000910152565b6001600160a01b038116811461203757600080fd5b801515811461203757600080fd5b60ff8116811461203757600080fdfea2646970667358221220cc14800c6b18990430aa38ecc387f1e78e327539a57d3704a3e08c26a574c93564736f6c63430006050033",
  "immutableReferences": {},
  "source": "// SPDX-License-Identifier: MIT\npragma solidity ^0.6.0;\npragma experimental ABIEncoderV2;\n\nimport \"@openzeppelin/contracts-upgradeable/token/ERC20/SafeERC20Upgradeable.sol\";\nimport './NFTPool.sol';\n\ncontract PrivateNFTPool is NFTPool {\n    using SafeERC20Upgradeable for IERC20Upgradeable;\n\n    bytes32 public constant POOL_MEMBER = keccak256('POOL_MEMBER');\n\n    int128 public maxOperatorOwnerFee;\n    int128 public maxWeaponOwnerFee;\n    uint256 public extensionFee;\n\n    function initialize(\n        IGameMaster _gameMaster,\n        address _poolAdmin,\n        int128 _maxOperatorOwnerFee,\n        int128 _maxWeaponOwnerFee\n    ) public virtual initializer {\n        super.initialize(_gameMaster, _poolAdmin);\n\n        maxOperatorOwnerFee = _maxOperatorOwnerFee;\n        maxWeaponOwnerFee = _maxWeaponOwnerFee;\n\n        _setRoleAdmin(POOL_MEMBER, POOL_ADMIN);\n    }\n\n    function deposit(IERC721Upgradeable token, uint256 tokenId) public override onlyPoolAdmin {\n        super.deposit(token, tokenId);\n    }\n\n    function fight(\n        uint256 operatorId,\n        uint256 weaponId,\n        IGameMaster.Target memory target,\n        uint8 fightMultiplier\n    ) public override onlyPoolMember {\n        super.fight(operatorId, weaponId, target, fightMultiplier);\n    }\n\n    function setFeeDistribution(int128 _operatorOwnerFee, int128 _weaponOwnerFee) public override onlyPoolAdmin {\n        require(_operatorOwnerFee < maxOperatorOwnerFee, '_operatorOwnerFee is too high');\n        require(_weaponOwnerFee < maxWeaponOwnerFee, '_weaponOwnerFee is too high');\n\n        operatorOwnerFee = _operatorOwnerFee;\n        weaponOwnerFee = _weaponOwnerFee;\n    }\n\n    function extendInventoryLimit(IERC721Upgradeable token, uint32 sizeIncrease) public onlyPoolAdmin {\n        uint256 extensionTotalFee = extensionFee.mul(sizeIncrease);\n        require(rewardToken.allowance(msg.sender, address(this)) >= extensionTotalFee, 'Not enough allowance');\n        rewardToken.safeTransferFrom(msg.sender, treasury, extensionTotalFee);\n\n        inventoryLimit[token] = inventoryLimit[token].add(sizeIncrease);\n    }\n\n    function setExtensionFee(uint256 _fee) public onlyGameController {\n        extensionFee = _fee;\n    }\n\n    modifier onlyPoolMember() {\n        require(hasRole(POOL_MEMBER, msg.sender), 'POOL_MEMBER role needed.');\n        _;\n    }\n}\n",
  "sourcePath": "/Users/school/dev/ciphershooters/contracts/NFTPool/PrivateNFTPool.sol",
  "compiler": {
    "name": "solc",
    "version": "0.6.5+commit.f956cc89.Emscripten.clang"
  },
  "schemaVersion": "3.4.6",
  "updatedAt": "2022-06-04T16:14:57.772Z",
  "devdoc": {
    "methods": {
      "getRoleAdmin(bytes32)": {
        "details": "Returns the admin role that controls `role`. See {grantRole} and {revokeRole}.     * To change a role's admin, use {_setRoleAdmin}."
      },
      "getRoleMember(bytes32,uint256)": {
        "details": "Returns one of the accounts that have `role`. `index` must be a value between 0 and {getRoleMemberCount}, non-inclusive.     * Role bearers are not sorted in any particular way, and their ordering may change at any point.     * WARNING: When using {getRoleMember} and {getRoleMemberCount}, make sure you perform all queries on the same block. See the following https://forum.openzeppelin.com/t/iterating-over-elements-on-enumerableset-in-openzeppelin-contracts/2296[forum post] for more information."
      },
      "getRoleMemberCount(bytes32)": {
        "details": "Returns the number of accounts that have `role`. Can be used together with {getRoleMember} to enumerate all bearers of a role."
      },
      "grantRole(bytes32,address)": {
        "details": "Grants `role` to `account`.     * If `account` had not been already granted `role`, emits a {RoleGranted} event.     * Requirements:     * - the caller must have ``role``'s admin role."
      },
      "hasRole(bytes32,address)": {
        "details": "Returns `true` if `account` has been granted `role`."
      },
      "paused()": {
        "details": "Returns true if the contract is paused, and false otherwise."
      },
      "renounceRole(bytes32,address)": {
        "details": "Revokes `role` from the calling account.     * Roles are often managed via {grantRole} and {revokeRole}: this function's purpose is to provide a mechanism for accounts to lose their privileges if they are compromised (such as when a trusted device is misplaced).     * If the calling account had been granted `role`, emits a {RoleRevoked} event.     * Requirements:     * - the caller must be `account`."
      },
      "revokeRole(bytes32,address)": {
        "details": "Revokes `role` from `account`.     * If `account` had been granted `role`, emits a {RoleRevoked} event.     * Requirements:     * - the caller must have ``role``'s admin role."
      },
      "supportsInterface(bytes4)": {
        "details": "See {IERC165-supportsInterface}.     * Time complexity O(1), guaranteed to always use less than 30 000 gas."
      }
    }
  },
  "userdoc": {
    "methods": {}
  }
}