{
  "contractName": "SMTFaucet",
  "abi": [
    {
      "inputs": [
        {
          "internalType": "address",
          "name": "_smtAddress",
          "type": "address"
        },
        {
          "internalType": "address",
          "name": "_ownerAddress",
          "type": "address"
        }
      ],
      "stateMutability": "nonpayable",
      "type": "constructor"
    },
    {
      "inputs": [],
      "name": "send",
      "outputs": [],
      "stateMutability": "nonpayable",
      "type": "function"
    },
    {
      "inputs": [
        {
          "internalType": "address",
          "name": "_tokenAddr",
          "type": "address"
        }
      ],
      "name": "setTokenAddress",
      "outputs": [],
      "stateMutability": "nonpayable",
      "type": "function"
    },
    {
      "inputs": [
        {
          "internalType": "uint256",
          "name": "_amount",
          "type": "uint256"
        }
      ],
      "name": "setFaucetDripAmount",
      "outputs": [],
      "stateMutability": "nonpayable",
      "type": "function"
    },
    {
      "inputs": [
        {
          "internalType": "address",
          "name": "_receiver",
          "type": "address"
        },
        {
          "internalType": "uint256",
          "name": "_amount",
          "type": "uint256"
        }
      ],
      "name": "withdrawTokens",
      "outputs": [],
      "stateMutability": "nonpayable",
      "type": "function"
    }
  ],
  "bytecode": "0x6080604052600a60035534801561001557600080fd5b506040516106493803806106498339818101604052604081101561003857600080fd5b508051602090910151600080546001600160a01b039384166001600160a01b031991821617909155600180549390921692169190911790556105ca8061007f6000396000f3fe608060405234801561001057600080fd5b506004361061004c5760003560e01c806306b091f9146100515780631a0c069a1461007f57806326a4e8d21461009c578063b46300ec146100c2575b600080fd5b61007d6004803603604081101561006757600080fd5b506001600160a01b0381351690602001356100ca565b005b61007d6004803603602081101561009557600080fd5b503561027b565b61007d600480360360208110156100b257600080fd5b50356001600160a01b03166102df565b61007d610360565b6001546001600160a01b03163314610129576040805162461bcd60e51b815260206004820152601d60248201527f4661756365744572726f723a2043616c6c6572206e6f74206f776e6572000000604482015290519081900360640190fd5b600054604080516370a0823160e01b8152306004820152905183926001600160a01b0316916370a08231916024808301926020929190829003018186803b15801561017357600080fd5b505afa158015610187573d6000803e3d6000fd5b505050506040513d602081101561019d57600080fd5b505110156101f2576040805162461bcd60e51b815260206004820152601f60248201527f4661756365744572726f723a20496e73756666696369656e742066756e647300604482015290519081900360640190fd5b600080546040805163a9059cbb60e01b81526001600160a01b038681166004830152602482018690529151919092169263a9059cbb92604480820193602093909283900390910190829087803b15801561024b57600080fd5b505af115801561025f573d6000803e3d6000fd5b505050506040513d602081101561027557600080fd5b50505050565b6001546001600160a01b031633146102da576040805162461bcd60e51b815260206004820152601d60248201527f4661756365744572726f723a2043616c6c6572206e6f74206f776e6572000000604482015290519081900360640190fd5b600355565b6001546001600160a01b0316331461033e576040805162461bcd60e51b815260206004820152601d60248201527f4661756365744572726f723a2043616c6c6572206e6f74206f776e6572000000604482015290519081900360640190fd5b600080546001600160a01b0319166001600160a01b0392909216919091179055565b600054604080516370a0823160e01b815230600482015290516001926001600160a01b0316916370a08231916024808301926020929190829003018186803b1580156103ab57600080fd5b505afa1580156103bf573d6000803e3d6000fd5b505050506040513d60208110156103d557600080fd5b50511161041e576040805162461bcd60e51b81526020600482015260126024820152714661756365744572726f723a20456d70747960701b604482015290519081900360640190fd5b336000908152600260205260409020544211610481576040805162461bcd60e51b815260206004820152601c60248201527f4661756365744572726f723a2054727920616761696e206c6174657200000000604482015290519081900360640190fd5b3360008181526002602090815260408083204261012c0190559154825163313ce56760e01b815292516001600160a01b039091169363a9059cbb939092859263313ce567926004808201939291829003018186803b1580156104e257600080fd5b505afa1580156104f6573d6000803e3d6000fd5b505050506040513d602081101561050c57600080fd5b5051600354604080516001600160e01b031960e087901b1681526001600160a01b03909416600485015260ff909216600a0a0260248301525160448083019260209291908290030181600087803b15801561056657600080fd5b505af115801561057a573d6000803e3d6000fd5b505050506040513d602081101561059057600080fd5b505056fea2646970667358221220c64129f781af902d6f137e42c3dc6820fbb6d1844df782e655653cf644b204f464736f6c63430006050033",
  "immutableReferences": {},
  "source": "// SPDX-License-Identifier: UNLISCENSED\npragma solidity ^0.6.5;\n\ninterface _IERC20 {\n    /**\n     * @dev returns the tokens owned by `account`.\n     */\n    function balanceOf(address account) external view returns (uint256);\n\n    /**\n     * @dev returns the decimal places of a token\n     */\n    function decimals() external view returns (uint8);\n\n    /**\n     * @dev transfers the `amount` of tokens from caller's account\n     * to the `recipient` account.\n     *\n     * returns boolean value indicating the operation status.\n     *\n     * Emits a {Transfer} event\n     */\n    function transfer(address recipient, uint256 amount)\n        external\n        returns (bool);\n}\n\ncontract SMTFaucet {\n    // The underlying token of the Faucet\n    _IERC20 token;\n\n    // The address of the faucet owner\n    address owner;\n\n    // For rate limiting\n    mapping(address => uint256) nextRequestAt;\n\n    // No.of tokens to send when requested\n    uint256 faucetDripAmount = 10;\n\n    // Sets the addresses of the Owner and the underlying token\n    constructor(address _smtAddress, address _ownerAddress) public {\n        token = _IERC20(_smtAddress);\n        owner = _ownerAddress;\n    }\n\n    // Verifies whether the caller is the owner\n    modifier onlyOwner() {\n        require(msg.sender == owner, 'FaucetError: Caller not owner');\n        _;\n    }\n\n    // Sends the amount of token to the caller.\n    function send() external {\n        require(token.balanceOf(address(this)) > 1, 'FaucetError: Empty');\n        require(\n            nextRequestAt[msg.sender] < block.timestamp,\n            'FaucetError: Try again later'\n        );\n\n        // Next request from the address can be made only after 5 minutes\n        nextRequestAt[msg.sender] = block.timestamp + (5 minutes);\n\n        token.transfer(\n            msg.sender,\n            faucetDripAmount * uint256(10)**token.decimals()\n        );\n    }\n\n    // Updates the underlying token address\n    function setTokenAddress(address _tokenAddr) external onlyOwner {\n        token = _IERC20(_tokenAddr);\n    }\n\n    // Updates the drip rate\n    function setFaucetDripAmount(uint256 _amount) external onlyOwner {\n        faucetDripAmount = _amount;\n    }\n\n    // Allows the owner to withdraw tokens from the contract.\n    function withdrawTokens(address _receiver, uint256 _amount)\n        external\n        onlyOwner\n    {\n        require(\n            token.balanceOf(address(this)) >= _amount,\n            'FaucetError: Insufficient funds'\n        );\n        token.transfer(_receiver, _amount);\n    }\n}\n",
  "sourcePath": "/Users/school/dev/ciphershooters/contracts/Faucet.sol",
  "compiler": {
    "name": "solc",
    "version": "0.6.5+commit.f956cc89.Emscripten.clang"
  },
  "schemaVersion": "3.4.6",
  "updatedAt": "2022-06-04T16:14:57.646Z",
  "devdoc": {
    "methods": {}
  },
  "userdoc": {
    "methods": {}
  }
}